:20000000003C0120A146010039FB021039FB021039FB021039FB021039FB021039FB0210F7
:1C00200039FB021039FB021039FB021039FB021039FB021039FB021011FB021002
:20003C002DE9F04FD34DD5A0A8620820ADF13C0D28634FF0FF30E86228464063402018F0E5
:20005C0071FE00262946D04B8863314618B1CA00865082185360491C0829F7DBD2A02860EB
:20007C00EE604FF0070BC5F808B04FF0FF376F60382018F057FE0028286120D0CDA10160E7
:20009C00C24F4760D0A48460C14BC36017D0066105F11401416112D0D0A18161BD4FC761A1
:2000BC000DD0066205F12801416208D0D0A18162B94FC76203D0066305F1B4014163CFA0C6
:2000DC000F2768614FF0FF34EF612B46AC6178202B6218F027FE05F1280705F1B404314629
:2000FC00AE4B686218B1CA00865082185360491C0F29F7DBEE63052068644FF0FF332B64BA
:20011C002820AF6418F00EFE0028E86416D0BDA10160A34F4760866005F1A003C3600DD023
:20013C00BBA10161E54F476108D0866105F18C01C16103D0BBA10162E14F4762BCA0C5F821
:20015C00A0000427C5F8A87005F13C020C924FF0FF33C5F8A4302020C5F8AC2018F0E2FD5F
:20017C000746002FC5F8B0700FD0B4A03860D5487860B5A1B960F86007D0B6A13961B8A261
:20019C00786107F118031A60F861B8A04FF0030AC5F8B4004FF0FF37C5F8BCA02B46C5F8B3
:2001BC00B8701820C5F8C03018F0BCFD0028C5F8C4000CD0066005F150014160866005F1A6
:2001DC006407C76003D0066105F178014161ABA02865C5F858A04FF0FF376F651820EC65C7
:2001FC0018F0A0FD002828660ED005F59A71B64A016005F59A71426001F124038360C2607F
:20021C0002D0483101614261A0A06866C5F86CA0AF6618202C6718F085FD002868670ED05C
:20023C0005F1C801A94A016005F1C801426001F124038360C26002D048310161426197A089
:20025C00A8670627C5F880704FF0FF33EB673020C5F8844018F066FD0746002FC5F8887069
:20027C001FD005F515709A49386005F51570796000F12402BA60F96013D000F148023A61DE
:20029C0007F11803796100F16C021A60F96108D000F190023A6207F128037962B4301860D1
:2002BC00F96282A0C5F88C000527C5F894704FF0FF33C5F890302820C5F8984018F032FD6D
:2002DC000746002FC5F89C701BD005F5D0708149386005F5D070796000F12402BA60F96099
:2002FC000FD000F148023A6107F11803796100F16C041C6000F19002F96107F120042260E8
:20031C00796219F089F914F0F5FD071C00F08A8617F0E6F970498446304631F80C4F002CB3
:20033C0040F07C864FF6F879A1F800904F606B4C8E60796820706046616118F01FF84FF005
:20035C00FF30314613F046FE31464FF0FF322061284617F065F905F11401DFF884812069E9
:20037C000A91002800F0C880AF68002F00F0C48002E0C046D015002014E0C046576F726B62
:20039C00207769746800C046352D0100FD6901006D860100598601000D1C01001111010074
:2003BC00715101009EE0C0464D756C74692D526F6C6500C0446973636F76657220446576D2
:2003DC006963657300C046C053746F7020446973636F766572696E6700C046C043616E6319
:2003FC00656C20436F6E6E656374696E6700C04641647665727469736500C046436F6E6EA7
:20041C006563740047415454205265616400C046436F6E6E656374696F6E20557064617484
:20043C006500C046446973636F6E6E65637400C04741545420577269746500C057726974AA
:20045C0065203078303000C05772697465203078353500C05772697465203078414100C021
:20047C005772697465203078464600C050485920507265666572656E63657300416476653E
:20049C0072746973696E6720504859005363616E6E696E672050485900C046C0496E697493
:2004BC0069616C697A652050485900C050485920507265666572656E636500C0F5DB000031
:2004DC00598001000915010041D90000E9390100313F0100F1260100F81F0020E00F0020FB
:2004FC007024002041465F460861DA4B0F702846CB6016F0B1F82069414609783246CFA330
:20051C0016F0F9FE0A9831464FF0FF3217F088F804F140073146384619F07AF8CE48A761E8
:20053C0041F288323346CD49009004F14C0014F0C5FDCB4F07F1180007F10C010FF0F8FC6A
:20055C00C849B86018F0CCFADFF81C83B8684FF4E0214246521E15F083FFB8684FF4E021CB
:20057C00424615F07DFFDFF85C83B8684FF0C0514246521E15F074FFB8684FF0C0514246C8
:20059C0015F06EFFD049B04607F12400C8223346CDF8008014F092FDCC48786009F105007C
:2005BC0015F0DCF9D44FD5493246152307F113000090102009F0CCF9D149102032460223E4
:2005DC0009F0C6F9D4491020FB2240F6480309F0BFF9D249102009F0BBF9207816F0BEFC5B
:2005FC00CF490246102009F0B3F94FF4806001213A4607F023F87A1C40F20240012107F0B0
:20061C001DF8BA1C40F20340012107F017F8FA1C40F20640012107F011F83A1D40F21140AC
:20063C00012107F00BF87A1D40F20D40012107F005F8BA1D40F21240012106F0FFFFFA1DCE
:20065C0040F20C40012106F0F9FF07F108024FF48360012106F0F2FF07F1090240F20F403B
:20067C00012106F0EBFF07F10A0240F20740012106F0E4FF07F10B0640F2144001213246BB
:20069C0006F0DCFFC74910204FF0FF3209F060F9C54910204FF0FF3209F05AF9C34E102030
:2006BC001323C44AC24F00903146019709F050F9202018F037FB0146BF488346816069B15C
:2006DC0009F1070016F06EF8C64910200BF11402009011230191314609F03AF95046012789
:2006FC0002268DF81B004FF0040A8DF81970C4498DF81A6002AB8DF81CA040460A68097947
:20071C001A600DF11902197139460EF0EFFC0DF11A02384601460EF0E9FC0DF11B023046E5
:20073C0039460EF0E3FC032007AA39460EF0DEFC052102AA50460EF0D9FC04F11C0004F1D5
:20075C003802B349CBF80400102009F001F9207816F004FCAF490246102009F0F9F82078CD
:20077C0016F0FCFBAC490246102009F0F1F8207816F0F4FB03460C223046A84900901020E6
:20079C00CDF8048009F0E4F804F1E4070D9704F5A8700B90606900214FF040424FF0FF33D3
:2007BC0018F032FF5FEA0008F4D00020049006A904AA05A813F0DEFB002840F038819DF88F
:2007DC0014000DF1160116F0D3F9002840F02C81BDF81600ADF8140017F026FBBDF8140088
:2007FC00102840F01F8120789DF81810884240F01981049801884FF6FF728A4200F01281C2
:20081C000178913900F09C801F3903D0203900F0078107E10646408817F01EFCC7B2082FA4
:20083C0001DB17F003FEB9490A78206931797E291CD07F2922D13189B9A319E03D3D3D3DD0
:20085C003D3D3D3D3D3D3D3D3D3D3D3D3D3D3D3D00C046C035C50000642600209565010047
:20087C00FC210020F56201000E000580317AB0A30091521CD1B2002216F03DFD7288B0495F
:20089C001020012309F064F8002853D031790B2938D0012902D1307A0A2833D0132917D063
:2008BC00012902D1307A122812D00B99B80000EB07104018077C002F3CD030460BF07AF901
:2008DC0038E0C0460E000010F1840100958201008E4A20691278012919BFA178B4A3317B29
:2008FC00B7A3521C0091D1B2002216F004FD0C9815F0B2FE1EE0C046AC200020F537010061
:20091C00111C0210814A2069127801290AD0F1680978AFA308E0C0460D520210397F011046
:20093C00F16C0210317BAEA30091521CD1B2002216F0E1FC317906F1080018F061FE71E047
:20095C0041780F393AD0491E5CD02E396AD181780C2967D1C778E7B9C17901290BD002298C
:20097C0008BF0FF28C2908D003290CBF0FF288290FF28C2901E00FF2A029644926698088B8
:20099C000F7817F099F90090A5A3CDF80490B91C30E05E49266980880F7817F08DF9A6A36A
:2009BC000090F4E745770100F57A010081700100B8C70100A0190020D01A00205349828888
:2009DC0026690978A2F2064767B341F62C42BF1A0AD182781A2A03D000929DA3491C09E066
:2009FC00A2A3FBE7C4C70100828800928078ABA3C91C0190C9B23046002216F07CFC11E04E
:200A1C006AC701000820002108F082FB0AE0C046F9770100D96C02102D6D02106DBF00003A
:200A3C0001F012FA049810B1049818F040F95FEAD870FFF4AFAEA06918F0DEFD00287FF4FB
:200A5C00A9AEA069064618F0D3FD864208BF002602D0866815F0C0FE5FEA0608EBD02B4B36
:200A7C00206998F800201978E78966780990891D0891511E0C2900F2C882DFE811F081023F
:200A9C002D027201B702210176003000B2021C00AB020D00A8029B0202200DF11D0114F004
:200ABC00D5FE002840F0B182032001210DF11D020EF01CFBA9E2D8F80460777A4FB1AF489E
:200ADC00089F0090B81CC1B209980022BEA316F012FCAA480090A849F788002362E0D8F81D
:200AFC0004603068401E2DD0401E15D0801E11D0001F0DD0083831D1002077686071397802
:200B1C0000917888B4A3019022E0C04670240020BAA31AE0BFA318E00020C4A314E0C04652
:200B3C004D54552053697A653A20256400C046C046432056696F6C617465643A202564007B
:200B5C00D54D02100120BEA360717068007800900898C1B20998002216F0CDFB3068B0F135
:200B7C00004F00F052827068ADE1384617F074FAC1B2082901DB17F059FC002006468B001A
:200B9C0066810B9A2689A08103EB0110012180180174301FADF80800207816F0DFF902AB90
:200BBC00CC49009010203A4608F0D2FE2DE2C04657726974652073656E743A20256400C05F
:200BDC005772697465204572726F7220256400C052656164207273703A20256400C046C0C1
:200BFC0052656164204572726F7220256400C04632204D62707300C0436F64656400C046FB
:200C1C00556E6578706563746564205048592056616C756500C046C031204D62707300C00C
:200C3C0025733A20504859207570646174656420746F20257300C04625733A2050485920EA
:200C5C006368616E6765206661696C75726500C050485920557064617465205374617475A5
:200C7C00733A2030782530327800C046504859204368616E6765206661696C7572652C2033
:200C9C007065657220646F6573206E6F7420737570706F7274207468697300C0556E6B6EDF
:200CBC006F776E20436D64205374617475733A203078253034783A3A30782530327800C00E
:200CDC000898C01EC1B209980096002298A316F012FB002E14BF65216121E7780FB141F007
:200CFC0010012846022216F09BFCC6EB061018F019F8206200B90026EE61002800F08581EA
:200D1C000746002E08BF002620D0DDF83490B246002609F10109484613F032FF01460F226A
:200D3C0038460FF019FE686A40F836700A9801210022B14016F074FC09F107090F37761C24
:200D5C00BAF1010AE7D10E2E00F35F810A9801220021B24016F064FC771CFEB20F2EF5DB6C
:200D7C0053E1D8F80470FB8ABA69002B00F0A780D018A0F1010C04E09569010040E2010069
:200D9C001218944540F29B8012F8010B0028F8D01178022918BF0329F2D1401E521CC0B229
:200DBC000228C0F293804110944540F28F801378F02B02D15378FF2B4CD0801E491E02F13B
:200DDC000202C0B2F0D181E050617373636F64653A20256400C046C04164762053657420FD
:200DFC0025642064697361626C656420616674657220636F6E6E20256400C046416476200C
:200E1C00456E6465642025642044697361626C656400C046416476205374617274656420BD
:200E3C00256420456E61626C656400C0416476205365742025642044697361626C6564003A
:200E5C004164762053657420256420456E61626C656400C078780F2E07F102090E9022DA11
:200E7C007EB1DDF834A0B3460AF1010A48465146062216F01FFDB0B1BBF1010B0AF1070AEB
:200E9C00F4D1DDF834C049460B68C6EBC60202EB0C00401C89880360761C8180F3B2637059
:200EBC000E980CF80200484613F06AFE00900898401FC1B2099800225DA316F01CFAB8696F
:200EDC00002800F0A28015F087FC9EE0012808BF521C56E7ED070210D8F8040000780109BF
:200EFC0031D24009C0F091800E2017F025FB0028634963484A68806840F087809168814268
:200F1C0014D0B0F1FF3F00F08080116951F830702FB901EBC001486815F09EFB75E01169ED
:200F3C0001EBC0014968C0B288476EE0D068F3E72564206465766963657320646973636FD8
:200F5C007665726564000D2017F0F6FA00285CD14B494B48496880688968814208D0B0F1F9
:200F7C00FF3F0AD0401C15F05BFBB0F1FF3F02D1002015F055FB424988600CF07DFA44E055
:200F9C00D8F80400077847B1BF1E3ED102200DF11E0114F05BFC2AA305E000200DF11E0175
:200FBC0014F054FC29A39DF81E00089900900998491E26E00898001FC1B20998002226A345
:200FDC0016F099F92D49102008F0C2FC1DE013F0B1FB1AE0D8F80400B0F8010010F098FF47
:200FFC0018E0D8F8040008F07BFD0EE0284602216FF0020216F014FB2149206909781BA370
:20101C00C91CC9B2002216F076F9D8F8040008B115F0E2FB404615F0DFFB0CE5401C06286E
:20103C00FFF47BA917F0A4FE0FB0BDE8F08FC046446973636F76657265643A20257300C031
:20105C004368617220333A20256400C04368617220313A20256400C0496E73756666696357
:20107C0069656E74204D656D6F727900446973636F766572696E672E2E2E00C07922021097
:20109C007024002038B586B004468DF805104FF6FF720120ADF80220090ADFF8905CADF860
:2010BC00000002238DF806108DF8043069462A78204618F099FA162803D12978204618F028
:2010DC008FFA07B030BD3EB504000D461AD0DFF88C0C0068224618F07FFAFF2811D00020AB
:2010FC000090002301AA294620460EF04FFB40B900F0B9F8C00604D500F0B5F810F004007F
:20111C0000D001203EBDFEB5164615244FF6FF7290420D4615D100208DF80400DFF80C7CB6
:20113C009DF80400B97988421AD23246294600F0C9F800B100249DF80400401C8DF8040027
:20115C00EEE718F045FA50B100F004FD40B99DF804003246294600F0B5F8002400E0142413
:20117C002046FEBD2DE9F04387B00C460021009190461D46014600F04DFD01260028DFF8CE
:20119C00AC7B62D100F06FF88146082DF87908BF002600F012FA040002D100F011FA5BE01F
:2011BC0078789DF8041002280CBF0120002000902B464A46404600F0D7FC1422002102A869
:2011DC00062517F009FA9DF8040015FB00F0243002AA00F044F8A8B91022FF2102A816F096
:2011FC00E8FD78B99DF8040015FB00F5253506AA0421E8B216F088F902AA09F001014046A2
:20121C0018F0E2F9F9799DF80400890670302246090EC0B216F078F988B9204600F0C5F8D9
:20123C00002508E004EB8000018819B18278404616F062FC6D1CF979E8B28842F2D39DF826
:20125C00040000F003FA00F0C2F97878022803D116B1404612F0FEFD07B0BDE8F08310219E
:20127C00C0B216F051B99DF80400B3E17CB50D46044606214C43164600F01EF8A8B900F06C
:20129C0016F890B99DF80700002E14BF054320EA0505E9B2814206D08DF807506A460821F9
:2012BC00E0B216F059F9012076BD002076BD0622FF21684616F07DBD20346A460821E0B28C
:2012DC0016F022B92DE9FC410646344606235C4388461546FFF7F0FF002850D1FFF7E7FFFD
:2012FC0000284CD1DFF8447AF87900F066F9040002D100F065F942E0F979703689062246E2
:20131C00090EF0B216F000F9002834D1204600F04CF85FEA08000DD1FA799206120E0021B7
:20133C00204616F046FD30BBFA799200002100F041F916E0214600F025F858B9280004D030
:20135C002146002000F01EF810B900F040F916E0A0F800808178A9420DD085700DB9002147
:20137C000180204600F021F8F97989062246090EF0B216F0F1F800F02AF9012000E000201C
:20139C00BDE8F68170B5DFF8A439DD79002200E0521CD4B2AC4206D231F824608642F7D1ED
:2013BC0001EB840070BD002070BD10B50021DFF87C290AE030F82130DB4320F8213000EBF0
:2013DC008103491C9C78E4439C70D3799942F1DB10BD2DE9F04186B0804600200E460090BA
:2013FC00002398F8061004AA40460EF0CFF9DFF83C590627A0B1002400E0641CA979E0B2EC
:20141C00884280F0C780A869E3B20622FF2100EBC30016F0CEFC0028EFD08DF8104013E014
:20143C00706988B100F0C1F823306A46FFF717FF50B91022FFF73CFF30B998F80600414654
:20145C0000F0010018F0BCF89DF81000A979884280F09C80E87900F0B0F8040003D100F0E5
:20147C00AFF80A2093E000F0A0F820304246082100F0AAF89DF8100000F0E8F8EA79920087
:20149C0000F097F8E9799DF81000890670302246090E00F099F8A8699DF8103008224146E4
:2014BC0000EBC30017F08EF8726972B1107C002302F1110100F0010018F07EF8726922B106
:2014DC0000F073F8233000F07EF8B2682AB100F06CF821301C2100F077F832692AB100F040
:2014FC0064F822301C2100F06FF8F26882B100F05CF8243000F067F8F06800F110029DF82A
:20151C00100017FB00F725370421F8B216F024F8E87B08B100F052FBB688286A4FF6FF7765
:20153C0050B905F1120100910223DFF860283946012018F03DF82862296A19B3FF200390F0
:20155C00022200230292019305A800900DF112036A8A304606F094FD68B99DF812009DF862
:20157C00131000EB012290B228B1286A418992B23046FFF7C8FD6A8A286A0023394618F002
:20159C0013F8286200F023F8002000E0152006B0BDE8F081DFF8F827107800281DBFDFF835
:2015BC00F417086804780C4637E79DF8100078437047FF21204617F00FB8800017F088B975
:2015DC00042015F0E9BD1021C0B215F0C5BF204617F086B9E0B50623584320306A460821C6
:2015FC00FFF73EFE10B99DF807000EBD00200EBDDFF83807007808210DF0A0B938B5002563
:20161C00DFF8284719E0A069062313FB05F300EBC50220330821D8B215F076FF58B1A069F3
:20163C000622FF2100EBC50016F0D6FFA06900EBC5010022CA716D1CEDB2A1798D42E2DBD6
:20165C00E07B10B1BDE83140B8E231BDF8B5DFF8DC16DFF840578B792E681C461A4600E094
:20167C000A46D1B239B1511ED2B2324412F8017C8742F5D10C46E0B2591E07E01718165C2F
:20169C007F7817542A680244401C567088422A68F4DBE4B28C4205DA1946BDE8F840052003
:2016BC0015F05ABFF1BD38B500200024DFF87C56AA79E1B2914206D2010004D1E0B200F0AF
:2016DC0003F8641CF4E732BD2DE9F84F83465D46062313FB05F58EB005F1200701AA082180
:2016FC00F8B215F011FF002871D10622FF2101A816F05FFB00286AD1DFF83066F079FFF725
:20171C005CFF5FEA000903D1FFF75AFF0A2060E01C22FF2103A816F05FFFF2799200FF21E9
:20173C00484616F059FF05F123040AAA1021FFF7C6FD60B91022FF210AA816F03AFB30B9A5
:20175C009DF80A0001A900F0010017F039FF082200F046F801AA0821F8B215F0FDFE8DF899
:20177C00000003AA05F1210000F036F8074605F1220003AA00F030F8804603AA1021E0B20B
:20179C0015F0EAFE044605F1240003AA102100F024F88246253503AA0421E8B248EA070724
:2017BC0015F0DAFE2743F1799DF800504AEA0707074389060BF170034A46090ED8B215F0B7
:2017DC00CBFE0743484617F08BF83D4300E0002528460FB0BDE8F08F1C21C0B215F0BCBEBE
:2017FC00FF2101A816F0F8BE2DE9F84187B0FF208DF80000DFF83455A87917F069F8040031
:20181C0003D1FFF7DDFE0A202EE01022FF2103A816F0E2FEAA79FFF7CCFE0622FFF7E0FF0C
:20183C0003AA1021022015F097FE064603AA1021032015F091FE06436A460121042015F0CD
:20185C008BFE0746A9792246052015F085FE054601AA0621062015F07FFE8046FFF7B7FE29
:20187C003E432E4348EA060008B0BDE8F081F8B50446DFF8B8542079012842D0092803D0A2
:20189C007D2800F07F8084E0617860881A2976D000F066FA022802D0032818D079E0208989
:2018BC0066880122012804BF6089032807D1E168887820B91021304600F023F90246686935
:2018DC0000281CBF4368002B63D0052116E020896688012804BF6089032806D1E068827814
:2018FC000421304600F00DF900E01820696900291CBF4B68002B4CD0024604213046984791
:20191C0047E0207A6788082838D1384600F028FA02280FD0032831D160890022042100F0DC
:20193C00F0F8696900291CBF4B68002B26D00246042121E060890022102100F0E2F8064639
:20195C00384617F045FE78B1DFF84C24117839B9811D4079012200F0010017F021FE03E044
:20197C00DFF8381401200870686900281CBF4368002B03D03246052160899847608800F0D4
:20199C0089F906E0608800F0EBF90146608800F0A2F9217904F10800BDE8F44017F030BEE8
:2019BC00F0B5A9B006460D46144617F011FE08B91420A4E0A4220021684616F00DFEADF83A
:2019DC0000600DF12607DFF86463F078B17A279A8DF804005208F07A8DF8A0004B0801F0B8
:2019FC00010040EA420222F0020203F0010342EA4302080922F4807200F0010042EA002286
:201A1C00480922F4007200F0010042EA4022880922F4806200F0010042EA8022307B8908CE
:201A3C0022F0040201F00101022842EA81020CBF012000202792787417F0AEFD412807DBF8
:201A5C00307B00B108209DF8991008438DF89900707BB8B10121B974202206F184010DF1E0
:201A7C00390016F0AFFD202206F1A4010DF1590016F0A8FD202206F1C4010DF1790016F004
:201A9C00A1FD00E0B874707A8DF8050088B1C44F102207F110010DF1060016F093FD9DF856
:201ABC009900082805D1102239460DF1160016F089FD307A8DF8260028B11022B9490DF1BA
:201ADC00270016F07FFD307948B1022D18BF032D03D1279840F002002790012100E00021CA
:201AFC009DF899000143B0788DF8991000B1042001438DF899106846214617F049FD29B080
:201B1C00F0BD2DE9FC41154615244FF6FF72904288460DD10027854EB179F8B2884216D261
:201B3C002A464146FFF7A2FB00B100247F1CF3E717F04EFD50B100F00DF840B99DF80400DB
:201B5C002A464146FFF792FB002400E014242046BDE8F681002100910023417901AA01F006
:201B7C000101801D0DF012BE70B504460D4606204543082B88B0164603D1300758BF22352D
:201B9C0000D521351C220021FFF72BFE01AA1C21E8B215F0B9FC78B99DF81E00C01F0A284F
:201BBC000AD20C980090F20801AB02F0010206F00101204617F0E8FC08B070BD38B517F03C
:201BDC00DFFC0024594D0FE0A8690622FF2100EBC40016F0EEF828B9A86900EBC40100209F
:201BFC0017F0CAFC641CE4B2A8798442ECDB31BD3EB50C4600250146009500F00BF838B920
:201C1C009DF80400FFF7E6FCC00601D401203EBD00203EBD002301AA20460DF0B7BDF8B513
:201C3C0006460F4615460C2016F052FE040019D02681A77200202060E07245B108212846DE
:201C5C0016F0E0F9606018B9FFF7C1FC0BE060605548016811B9046004E0014608680028A3
:201C7C00FBD10C600CB91520F2BD0120E0722A4639463046FFF794FE04462C484069002878
:201C9C001CBF4368002B03D000220021304698472046F2BD38B505464348046803E020893C
:201CBC00A84204D02468002CF9D1012032BDE07A012807D100F05EF820B11C480078042145
:201CDC000CF03CFEE17A491CE1722846C9B200F002F8002032BD38B502290446134D02D029
:201CFC0003290DD01EE042F6C921FFF7CBF902001CBF6869002818D04368B3B105210CE006
:201D1C0042F6A621FFF7BEF901001CBF696900290BD04B684BB102460421204601B0BDE871
:201D3C0030401847BDE8324002E031BD101E002010B51D4B1968002201E00A46096851B10F
:201D5C000C898442F9D10868002A0CBF18601060084616F0C5FD002010BD0000680F00205B
:201D7C00024604201049096819B10B899342FAD1C87A70470C48006828B1006818B1C17A19
:201D9C000029FAD170470020704700004CC30100BC35002050350020AA0F0020BD350020F4
:201DBC007C320020AC3200205435002038B5244C2070A171E271C80016F08AFDA061D8B161
:201DDC00A279D200002116F007FCA07916F080FDE06108B9A0690DE0A2791A4D002116F093
:201DFC00FBFBA07916F074FD286050B9A06916F077FDE06916F074FDBDE83240042015F02D
:201E1C00CBB9A279002116F0E7FB04F1E40017F0AFFB2178062017F0A7FBFFF7EFFB2A689A
:201E3C00A179052015F070FB48B1002004E02B68091A4A1E1A54401CA1798842F7DB31BD4E
:201E5C00101E0020503500202DE9F04F884C8178DFF814A2DFF814B2E7780029ADF12C0DC8
:201E7C0000F00881491F00F01282491E5AD0491E23D00A3903D0091F00F0F681B5E28188B1
:201E9C004789867BADF808108DF8126067B9ADF80E70C188ADF80A100689ADF80C608589A8
:201EBC00ADF81050012000E000206D498DF8130002AA102007F04CFD97E2828869490646F5
:201EDC0002AB102007F044FDF0B95546F07827692D786D1C58B90DF10A0012F051FE00906D
:201EFC00BDF81C10D3A3480000EBC10006E00DF10A0012F045FEB1780091D5A30190E9B2EA
:201F1C000022384615F0F7F904F1300015F060FD041C00F06A8220890FF0FAFF204614F082
:201F3C005BFC62E28088834616F096F8C5B2082D29DAA80000EB05100019D0F85C01071CCD
:201F5C000BD016F021FF10B1384616F00FFF384617F006FB384614F03FFC04F1300007683A
:201F7C005E4657B180463889864203D14046394615F090FB3F68002FF5D1304613F0EEFCE2
:201F9C00E078401EE070082D04F5A87101DB16F04DFAA80000EB05104018801C12F0F0FD24
:201FBC00009057460990397820690022D5A3C91CC9B215F0A0F9E078009039782069002229
:201FDC00D5A3091DC9B215F096F9D74E94F80490F7694FF061084FF0010A0025AF422AD889
:201FFC00D249002510204A4600952B4607F0B0FCE07880B904F14C0016F0B8FE30462946A9
:20201C004FF0FF3215F00CFB304629466FF0610215F006FB01E04FF071086FEA0802304609
:20203C00414615F0FDFAE089584540F0DE81304614F012FBD9E1706A099950F835000F2201
:20205C0015F038FC48B906F114000AFA05F1002215F0E6FA94F80490F7696D1CEDB2BDE7D2
:20207C00D9570110F9DC01107024002095650100E00F002006467778002F63D1C7798DF8FC
:20209C000970037A8DF80A3081798DF8081000258DF80C50C27A8DF80B50877A8DF80F2001
:2020BC00437A8DF80E70D2498DF80D3002AF3A680A6078684860CF4FD04ACF49201D07F19D
:2020DC0040030090102007F043FC0720DFF83083009007F10C0301932279414610202B460C
:2020FC0007F036FC1520009007F128030193227941461020012307F02BFCC24922791020B5
:20211C00922307F025FC00958849227910202B4607F01EFCC0B248B1514620690978657141
:20213C002A46B9A3891DC9B215F0E5F812F002FBD248594640F6B8320123009004F17000C3
:20215C0012F0BCFFCE49CF4A1020002307F000FCCD4910204FF4860207F0FAFB4FF4487038
:20217C000122CA49009013460190102007F0F0FBDFF81C8306271020002208ABADF82070A4
:20219C00414607F0E5FB012510200DF122038DF822502A46414607F0DBFB10200DF122033E
:2021BC008DF822503A46414607F0D2FB40F60200032208ABADF820004146102007F0C8FBFB
:2021DC00DFF8D082502710202A4602230097414607F0BEFB10202A4603230097414607F0D5
:2021FC00B7FBB088208150486121002215F018FAE0785746009039782069002246A3091DF5
:20221C00C9B215F078F839782069002287A3C91CC9B215F070F824693D78B01D12F0B0FCA2
:20223C00ED1D0090002284A3E9B2204615F063F8DBE0C046557064617465643A2025732C98
:20225C0020636F6E6E54696D656F75743A256400557064617465204661696C65642030785A
:20227C0025683A20257300C0002F14BF71266126554620692978002275A3C91CC9B215F07F
:20229C003AF829483146F24315F0CAF9ADE0468990F80CC004F5A87900F1040E08224FF6CF
:2022BC00FF71A9F11405002035F8143F994205D0521E00F10100F7D180463BE02E8071461F
:2022DC000A688046A81C7F1C89880260BCF1040F8180FBB2E3702DD1032016F023FD071CAD
:2022FC0026D00A203870A7F80160242016F01AFDE860F8B10097594641F27072012312F037
:20231C00DDFE17E0257320697320646973636F6E6E656374656400C04E756D20436F6E6E8A
:20233C00733A20256400C046D0150020ED74011016F07CF84146082901DB16F077F88D009E
:20235C0005EB011504F14C004D444FF0000985F8089016F009FDA81C12F012FC57468346E6
:20237C00CDF800B03978206940A34A46C91CC9B214F0C1FFE078009039782069464B4A46B8
:20239C00091DC9B214F0B7FFE0780828B4BF4FF00E084FF00F08414EF7694FF0010A4D4654
:2023BC0011E0706A50F8350059460F2215F082FA38B906F114000AFA05F2494615F030F9B4
:2023DC00F7696D1CEDB2AF42EBD86FEA08013046424615F025F9E078082806DA4B46009396
:2023FC002F492279102007F0B3FA0BB0BDE8F08F0B190020AC20002099010110D7760100D2
:20241C009DC000001DEF01104572726F723A204661696C656420746F2053746172742041EB
:20243C0064766572746973696E672100496E697469616C697A6564004D756C74692D526FB1
:20245C006C6520416464726573733A20257300C0436F6E6E6574696E6720617474656D70A7
:20247C00742063616E63656C6C656400436F6E6E656374656420746F202573005C26002021
:20249C0089610210996A0100C5690110F5F9011095390110D5F4011034230000D0150020CD
:2024BC00ED7401102DE9F84FDFF8A055696884B0019121B905B0BDE8F04F17F04DB80978CE
:2024DC00DFF88C65DFF88C7501291CBF0229042946F2A81A40F6C41941F64C5805D04029BD
:2024FC0018BF802900F05681A7E216F0F3FA0028FAD00198007809F0EDFE009017F028F85F
:20251C00DFF8541504464878002800F0C78004F057FE16F007F88246002CDAF80000019051
:20253C000146D1F804B003D000980DF017F8022800F0878000990A78012A04D0022A0CD001
:20255C00042A41D079E218B916F0FEFF4044A0600120A87011213970F4E005223A70C8B933
:20257C0016F0F2FF8044DFF8F4246069C4F808801368DE69DFF8E8341978B21D01EB810105
:20259C00525ADFF8D81409FB0289C0F820900A68A06810616069C17F01F0EF01C1776069E3
:2025BC00C17F41F08001C1776069C17F01F0F00141F00201C177DBF808206169DFF8A4043A
:2025DC0082184A62022199E006223A70C8B916F0BBFF8044DFF890246069C4F80880136813
:2025FC005E69DFF88834197806F10C020901525ADFF8741409FB0289C0F820900A68A06849
:20261C00D060DFF864040168087C0EF04BFC6069C17F01F0EF01C1776069C17F41F0800120
:20263C00C1776069C17F01F0F00141F00201C177DBF808206169DFF82C0482184A620421B8
:20265C005CE00198017880290CD10820DFF8201438700A78DBF81400012A1ABF716A0978E6
:20267C00012113E0072038709AF8060016F0E0F80446207BC10700F1AD80DFF8F4030178D2
:20269C00DBF8140001291CBF716A4978C1729AF80600DFF8C41388700198C9E10098002822
:2026BC001AD00199009A0078DFF8BC6391420DD1012804D0022845D0042866D002E0002C15
:2026DC0040D1C0E1002014F067FD3BE0012804D0022815D0042837D0AFE1002CF1D016F0C7
:2026FC0033FF0146A068514416F02AFF18B916F02BFF4044A060112038700121A97021E0DF
:20271C00052038700221A97016F01EFF0146A068514416F015FFA8B916F016FF8044CF4A1A
:20273C006069C4F808801368DD69CD4B1978AE1D01EB8101755A09FB0589C0F8209011688B
:20275C00A0680861009873E1062038700421A97016F0FAFE0146A068514416F0F1FEA0B9C4
:20277C0016F0F2FE8044C4F8088032685369BF4A6069117803F10C0509016B5A09FB03892A
:20279C00C0F820903168A068C8603068007C0EF089FBD7E7B0494878002800F0E18004F072
:2027BC000FFD15F0BFFE8246DAF800000290D0F804B0A948807815F0B5FE03900198017841
:2027DC00402913D19AF8060016F032F80446207BC1070BD59AF8060015F0A4FE052116F0D0
:2027FC00ABFE207B00F0FE0020732CE116F06CF910F0070F0CD0A87809F06CFD009016F076
:20281C00A7FE040004D0029900980CF0A7FE022800F0828000990A78012A04D0022A0BD00E
:20283C00042A3CD075E018B916F08EFE4044A06011203870012169E005213970B0B916F084
:20285C0083FE8044854A6069C4F808801368DE69834B1978B21D01EB8101525A7F4909FB65
:20287C000289C0F820900A68A06810616069C17F01F0EF01C1776069C17F41F08001C17749
:20289C006069C17F01F0F00141F00201C177DBF808206169734882184A62022136E006219F
:2028BC003970B0B916F050FE80446F4A6069C4F8088013685E696D4B197806F10C02090172
:2028DC00525A694909FB0289C0F820900A68A068D06065480168087C0EF0E4FA6069C17F5E
:2028FC0001F0EF01C1776069C17F41F08001C1776069C17F01F0F00141F00201C177DBF886
:20291C0008206169574882184A6204210098A9708EE0002014F040FC039850451ED0029967
:20293C0053480A78802A0AD10821397000780128DBF814001ABF716A0978012109E0072216
:20295C003A7000780128DBF814000EBF0121716A4978C1729AF806003F498870029867E072
:20297C0016F0B2F810F0070F6DD0A87809F0B2FC064616F0EDFD04463078012804D002281C
:20299C000DD004282DD05EE0002C5CD016F0DCFD4044A060012111203870A97047E00520BC
:2029BC00387016F0D1FD0146A068514416F0C8FDA8B916F0C9FD8044284A6069C4F8088060
:2029DC001368DB699F1D264B1B7803EB8303FB5A09FB0389C0F820901168A068086102208F
:2029FC0024E00620387016F0AFFD0146A0681E4F514416F0A5FDA0B916F0A6FD8044C4F8BC
:202A1C0008803A685369194A6069127803F10C0112018B5A09FB0389C0F820903968A06864
:202A3C00C8603868007C0EF03DFA0420A870304605B0BDE8F04F0CF075B905B0BDE8F04FF3
:202A5C00002014F0A9BB05B0BDE8F08FF4340020C8C90100C80F0020780E0020500F002003
:202A7C00D80F0020F0D8FFFF540F0020D90F0020CC0F00202DE9F84FDFF8B454A978002466
:202A9C00FF2904BF002014F087FBA87815F04AFD054605F1680605F5C9773168086805F135
:202ABC00900808B1EC8311E0B07B002804BFB07E00280BD198F80010002904BF387800289D
:202ADC0004D1287F012804BF688CE8832989E88B4118491C6981284616F02AFD01281EBFA5
:202AFC00DFF850040178012903D12989EC83491C69814FF6FF79B07E01280DD1B28B698987
:202B1C00288916F011FD38B1298968894A1C93B298422FD0B08B23E098F8000001280FD1ED
:202B3C00B8F802206989288916F0FEFC40B1298968894A1C93B298421CD0B8F802000FE05E
:202B5C003878012816D17A886989288916F0ECFC80B1298968894A1C93B298420AD07888D3
:202B7C0092B2904206D04844688180B216F0D8FC4844E883387801280ED128897988401C0F
:202B9C0080B2884208DB7C793C71002038702346A97922460BF006FE05F59A71087920B187
:202BBC0028890021401CE983688105F12E08B07E012845D12A89B08B521C92B290423FD15B
:202BDC00688105F18601284616F0A6FCB08C688400212977E983E88969894118A981B08BE7
:202BFC00298916F09DFC8146B8F80410308C728C01FB0909F08C8A4204BFB8F80810884278
:202C1C0002BFB38CB8F806108B4207D000090090B38CA9795208002016F07AFCB07F88F88F
:202C3C000000718CA8F80410B08CA8F806002846F18CA8F8081016F067FC0220B07601E0B0
:202C5C00B8F80490EA8BDFF8F0C2501C00FB09F040F6C41909FB00F100912B68D3F80CE0D3
:202C7C007144D960DCF800E0B4499EF800A00B884FEA9A1ABAF1030F17D1DFF8C4C29CF84D
:202C9C000FE05FEACE7C48BF00230ED45B1C1FFA83FCBCF1010F11BFB5F812C005F59A7E5D
:202CBC00BEF806C00CF2DC5C01E0B5F812C00CFB00FC4FF4C87EBCFBFEFC0CF1010CC5F8E2
:202CDC0014C00B80A86185F820204FF01C0BDFF874A2AB79DAF8000000F108021BFB03F363
:202CFC00D1582A68116100F10801AB79D26868691BFB03F3121ACA50DAF80000AB7900F129
:202D1C0008021BFB03F3D1582A68916000F10C02A9791BFB01F10C30535C03F0F00343F0A8
:202D3C0002034354DAF80010AB798A1C1BFB03F30021D152387908B914F02EFADAF800006F
:202D5C00AA7900F1100138791BFB02F240088854A879DAF800101BFB00F008440021417428
:202D7C003879042814D1A879DAF800101BFB00F001F110021031135C3A7A43EA82030B54F3
:202D9C00AA79DAF800001BFB02F2024420205074DAF80010A87901F112021BFB00F000219E
:202DBC0011526949A8790A6802F114034FEA401C143253F80C00AB79D5F814C05B0100EB07
:202DDC004C00D050B07E02280DD10A68AE7902F11403760114329859AB7998F800605B0174
:202DFC0019FB0600D0505648C27BD0075CD5DAF80000AC7900F108031BFB04F408301A59EE
:202E1C00AB791BFB03F3A2F5A862C250DAF80000AC7900F108031BFB04F41A592B689A60B2
:202E3C000098121A1A610868AC7900F11403640114301A59AB795B0102F5F662C2503879EC
:202E5C0004280BD10868AC7900F11403640114301A59AB795B0102F56162C2500868AB79B5
:202E7C0000F114025B01D058C5F834016427374A0B68106BAE79006803F11C04B8F8043038
:202E9C004343B3FBF7F7760109FB07F0A0F59660A0512F480378012B30D10868A97900EB6A
:202EBC0041120120D07230E0042C0BD10868AC7900F11403640114301A59AB795B0102F5F4
:202EDC006162C25038790A68AC7904280CBF4FF4AA504FF4E66002F1140364011A59101AF0
:202EFC00B8F8042009FB02F2A2F516729042BDD30821284616F020FB012016E0506A09686F
:202F1C00AA79407801EB4213D872A879DAF800102A681BFB00FB01EB0B00506007210D4865
:202F3C000170284611F0A6FE0020BDE8F28F00BF780E0020D10F00203C0F0020AC350020DA
:202F5C00980C0020980E00209C0E0020C8C90100CC0F0020C80F00202DE9F04FCA4C0546C7
:202F7C002078ADF15C0D032840F045824FF0000B6846182284F800B0082384F801B059461F
:202F9C0015F00EFE6846594613F072FF20612E22594604F130000FF0FBF904F130008146CF
:202FBC00FF210A220C300FF0F3F914F02FF82946584612F0ADF904F11801E06015F011FE40
:202FDC00206AE169B1FBF0F2D7B284F83070022FC4BF022784F83070E770B0F5005F04D1A5
:202FFC00E068B1EB473F00D310B90120207004E2FF2184F83310D846CDF828805E460B9669
:20301C000C960D960E960F9613960A46109211921292149215924FF40055E586594616918E
:20303C00B74200F30B81139E002E3AD10F9E002E28D1B8F1020F25DA0E98022822DA0B9816
:20305C0002281FDA0A9887421FD00E9E9EB9B8F1000F0ED10D9E0C9806430FD15D46AF4231
:20307C0013DD28460BF022FF6D1CEDB2E7786070F5E7012016E0B8F1000F01D1032011E0D2
:20309C0002200FE05D46AF4201DC58460AE028460BF00CFF6178E7786D1CEDB20143617021
:2030BC00F1E705200028A07000F0B180401E70D0401E00F09280401E1DD0801E40F09C816A
:2030DC001498FF2804BF1598149084F8330094F833200C2684F83120D019401E90FBF7F1A6
:2030FC007943401A84F8320012FB0690808BE08607F0B6FD87E0002F08BF5D460BD009F15D
:20311C000C0138465D4611F80C2FFE2A03D0401E05F10105F7D1AF423ADD0C2084F83C50C8
:20313C0015FB0090817E84F83D10C07E84F83E000AF00CFBE2782D1895FBF2F050432D1A27
:20315C00E8B284F83200401C90FBF2F15143401A84F831007C2013F0F7F8FF2810D17E2072
:20317C0013F0F2F8FF280BD1FF2013F0EDF8FF2806D1782013F0E8F8FF2808BF94F8310018
:20319C0084F833000C2110FB0190808BE0864FE0FEE71098129E84F83200FF2E00F10100F1
:2031BC0090FBF7F101FB07F1A0EB0100C1B284F8311008D11198FF2804D10C20129111FB77
:2031DC00009005E012901299880000EBC100484484F83310808BE0860EE1DDF8408008F1A4
:2031FC00010084F8328090FBF7F17943401A84F831005FFA88F00BF059FE6070FE215FFAE3
:20321C0088F013F0D7FE584602F0D4FDF4E084F831B0781E594684F832000C2684F833B03C
:20323C0011FB0690808B7E21E086584613F0C2FE94F83200FE2113F0BDFEDDE00C2116FBC9
:20325C00019706AA0423710315F0D0FC069807F11605010EB1F1960A18D1C0F38541C0F387
:20327C00014040EA8100022810D187F819B09DF818002870FF223A769DF81930FB75304619
:20329C0010F07AF8B88373E04C2000203046594607AA14F001FC3046012108AA14F0FCFB7A
:2032BC003046022109AA14F0F7FBDDF818C00CF0FF010CF0FF00FF2909D0FE2907D07E2966
:2032DC0005D07C2903D0782918BF702909D15FEA0B0706D1CCF38541032908BFBAF1000F36
:2032FC001ED030460BF0E2FD0746002FE06867703FD1710306AA042315F078FC30465946F0
:20331C0007AA14F0C9FB3046012108AA14F0C4FB3046022109AA14F0BFFB069800F0FF0074
:20333C0028709DF81900069F6870C7F30140E8709DF81E30AB702978FF290BD0BDF81C00E8
:20335C00FE2907D04FF6FF71814204D1304610F013F800E01020E8809DF822002871BDF808
:20337C0020702F819DF826306B71BDF824206A81E0682978FF2936D0FE292ED07E2926D06D
:20339C007C291ED0782917D0702910D0A52908D0242904D00F99491CC9B20F9127E01596DC
:2033BC0000E014961399491CC9B213911FE00E99491CC9B20E911AE00D99491CC9B20D91F4
:2033DC0015E00C991296491CC9B20C910FE00B991196491CC9B20B9109E008F101071096CC
:2033FC005FFA87F803E00A99491CC9B20A91E778761CF6B214E66070607817B0BDE8F08FB2
:20341C002DE9FC47D34C0F460546F80B80F0FC816078DFF84483B90F80F0A081B90880F088
:20343C009081F90A80F0FA80390B80F0C580380907D2F80FC0F01E8227F0804710F062FACE
:20345C0018E215F067FC814614F0C6FB002800F0AD80082015F056FB002840F0A780802080
:20347C0015F050FB002840F0A18068460DF026FA012803D10098002800F09880002501268B
:20349C00E8B215F095F848B1837A3BB1867290F9090006FA00F0C0B213F01AF86D1C032D48
:2034BC00EED30320207604F1D40015F02FFC484616F026F8D14800252A460168056050F807
:2034DC00081CCF4940F8085C04F13C0014F0C4FA40460068006B8047A168401A010B206AEC
:2034FC00C1F1FF3282422CBF08444FF0FF30206294F8240020B12069216AB1EBC02F25D9C4
:20351C0014F07AFB294600B13146081C1BD0BD4840F6090101804580417B06F00F0221F011
:20353C000F010A434273017B05F00F0321F00F0143EA010202732946416015F0B1F941888C
:20355C0011F4406FFBD084F82460256211F098FECC4829460560022014F01CF9022013F06A
:20357C0097FB11200BF0B4FA207818B96068483015F0E2FBC448007810B90E200BF0A8FA20
:20359C0094F8250020B184F82550052013F080FBBE48E0612576B4F9AC00B4F9AE10884289
:2035BC0014BF022007200EF0EDFB02E0484615F0A7FF27F0080741E720B1042013F068FB29
:2035DC0000206070656812F067FF38B12846ED696FF4807100224FF00073A847E06858B195
:2035FC0040460068006B8047E2686168801AC860000BC8600026E660A54904F13C000022DA
:20361C0014F02AFA0221D4F89800217618B104F5907015F0A3FB27F400670FE715F07AFBF1
:20363C00064614F0D9FAD4F890100028894600F0828000297FD09749042504F13C00002222
:20365C00257614F009FA304615F05AFF04F1D40015F05CFB40460068006B8047E0604FF014
:20367C00010884F80180284613F02AFBD9F810006060D9F81000416AC90803D3036A2946E2
:20369C0000229847404610F0B5FB606880F81580606807F08FFB6568D5F808A040F60A0235
:2036BC00D01F564600F1010C00E01E46736833B119888A4203D0884218BF8C45F5D10021C9
:2036DC007160727B08F00F0322F00F0213437373D9F80C201288904224D06046904221D0E1
:2036FC002B8E03B3696305F13002518095F83C0001F00F0320F00F00034385F83C3095F8D3
:20371C003D0008F00F0320F00F00034385F83D307260707B01F00F0520F00F0045EA0001E6
:20373C00717300E0E160504615F0BAF85146404614F030F802E0304615F0E2FE27F4806793
:20375C0098E008F059FED4F8980008B927F0020790E0C046682600208C0100104E4A11686F
:20377C0041F08001116020B1042013F091FA0020607015F0CFFA8246D8F854000168042050
:20379C008847D0B1287DC0B1A068B0B18146D8F800002E69006B8047A0EB09002861000BB6
:2037BC002861B04202D280194008286140F6C41181422CBFB0F5967F2961504615F0A0FEFE
:2037DC0012F06AFE80B1EE6928466FF4807100224FF00073B047D4F89000002808BF47F0CC
:2037FC00020701D010F08EF82846AD6900214FF080630A46A84727F000573BE01410044056
:20381C0099450100B034002015F084FAD4F8A86066B306F1280106C90A234FF0E0450B406E
:20383C00154008BF002B21D106F1280191E8000306F1280595E8060006F1280322EA0902B7
:20385C0021EA080183E8060015F05AFEB16879B1B9F1000F08BFB8F1000F09D03069B6F9CE
:20387C003010B5684B464246A84701E015F048FE27F4804727B104F59070394615F06EFAFC
:20389C00BDE8FC8700000460A2C7010079D60000C5CF0000D57B0100CC2108402DE9F04F58
:2038BC000F46780689B027D5DFF8F8231078002115F022FE04001FD0DFF8EC030168884733
:2038DC00054614F0DDFF6168884204BF40F2014015F00EFE00202072201D0DF02DFBDFF8DC
:2038FC00CC130A6828469047204612F033FBFF223C21204615F0F8FDB80604D50CF0BCF95A
:20391C0087F02000CAE1F8070CD514F0B9FF30B100218160DFF89803006800B1804787F001
:20393C000100BBE1380704D506F024FE87F00800B4E1F8060FD50021002200230691059214
:20395C0004910393029101920091022015F0C8FD87F01000A2E1B8070FD5002100230691F5
:20397C0005910491039302910191009101223C2015F0B6FD87F0020090E179074FF01E08AE
:20399C00CC4EDFF834A340F1CF80CC480022002108920791007815F0AFFD0446C8488178BE
:2039BC00FF2904BF002013F0F7FBA07A14F0BAFD05469AF8000095F82E91002805F5947BBC
:2039DC0069D0606D807A022818BF032807D130680D3015F081FD10B93068C11D07915946F9
:2039FC00484615F075FDA0B3606D807C3368002818BF012804D11946584615F065FD04E0AA
:203A1C005A464946184615F0E7FDFF2843D018FB00F83068404406225946C01D14F0D2FD3C
:203A3C00306810F80810404400F1010BC01D41F0020908900622616DC87A00F0010085F8DA
:203A5C002E01606D00F10C0105F5947014F0BAFD21E05946484615F033FDE0B130685A466B
:203A7C00494615F0B9FDFF2815D018FB00F8306840440D3015F030FD58B9306840440D30D4
:203A9C0015F02AFD002801BF30684044417F012901D149F0020905F12C004B460178069117
:203ABC004289120905920122698C0491C0880899029140080390CDF800B0079801900020A4
:203ADC00A97915F00DFDD5F89C017E498842A8790CBF0021012115F0EFFC7B49AB790A6825
:203AFC0038204343134401225A70AB790C68434323449A70AB790C6843432344DA700C68B6
:203B1C00AA79231D424301249C54AA79096810FB02F00844002141710122A97907200DF073
:203B3C0055FC87F00400B9E038060FD500210023069105910491039302910191009101226D
:203B5C003B2015F0CDFC87F08000A7E0F8045DD55E4930680C680D3015F0BEFC002844D188
:203B7C003068C11D0D3015F0A3FC3EE0606D4178480704F13E0526D5287802281EBF0328DA
:203B9C006878012830D16978306804F1380215F023FD8146B9F1FF0F15D0306818FB09F921
:203BBC0048440D3015F098FC68B930684844C11D0D3015F07DFC30684844C11D062204F18A
:203BDC00380014F0FFFC2878022818BF03280BD130680D3015F080FC30B93068C11D06220D
:203BFC0004F1300014F0EEFC2468002CBED13848DAF8042000784FF4805111F06BFE10B122
:203C1C008E2015F051FC87F4805047E0B80505D514F02AFF2F4901200860FEE7780504D516
:203C3C000BF057FD87F4806038E0780405D5812015F03AFC87F4804030E0B9042DD5264CF8
:203C5C00206810B1002013F0A7FA4FF0FF3020600020224C0EF08AFC216851F8202F68466C
:203C7C0090471F494A6B086BC96A24681D4B019200900293ADF810106B461B4A1B491C483F
:203C9C0003921C4A079225681B4AA8471B49086005F078F887F4005000E0002009B0BDE839
:203CBC00F08F00BFD50F0020B41F0020B81F0020480F0020680F0020880E0020D70F0020F2
:203CDC00780E00204DE50110303500204C0F0020C70F00207C052043380F0020200F00204F
:203CFC00082100207D8801008D880100EC240020280800201EFB0080EC0A00201C0F0020C9
:203D1C002DE9FE4307460025B978DFF8346410293CD8DFE811F011000202020202020202E8
:203D3C003C0048000202020265018E007900B60102023B017C01FA017878002826D115F0EB
:203D5C00AFFB044615F0A8FB064615F0A1FB8DF8000022461021022013F0FEFB32461021D9
:203D7C00032013F0F9FB6A460121042013F0F4FB9DF80000012818BF032807D1012015F067
:203D9C0083FB02460621062013F0E6FBC5E178780028FBD1F8783B7B7A89391D00F0010016
:203DBC00FDF7E0F9B9E1B888FDF7C2FF15F068FB0028F7D1307C012808D1FDF774FCF069C8
:203DDC0035740422002114F007FC17E0707C012803D1FDF709FD757410E000240AE0F069B6
:203DFC00E7B2C15D012904D1E0B2FDF76DFCF169CD55641CE0B2B1798842F0D3502013F04A
:203E1C002BFFFDF7FBFB88E115F036FB00280CD0706900281CBF0468002C07D03869009053
:203E3C007B7B3A7B7989F81CA04775E17889012168E178780024002840F09180B879C10786
:203E5C0040F18D800822002101A814F0C5FBB88815F0BEFB04005ED07D69002D00F0658137
:203E7C000622002105F1110013F0A3FF00B306220021284613F09DFF002818D1287C00F083
:203E9C0001084FF0000909F1010985F811900020009000230022414605F111000BF076FCA3
:203EBC0000285FFA89F040F03B810028EBD13AE17D69EDB1287C00F001008DF80A00062231
:203EDC0005F1110101A814F07DFB6079012805D10622A11D04F10C0014F074FB062205F149
:203EFC001101A01D14F06EFB287C40F002006071B879410720794CBF40F0020000F0FD0087
:203F1C002071B879010720794CBF40F0200000F0DF00207106E0FDF72DFF18B130780421CB
:203F3C000AF00CFDB9799DF80B00890801F0010108438DF80B00B9790A074CBF0821002199
:203F5C0008438DF80B00394601A8FDF742FA0400B88802D1FDF79EFE01E0FDF7E9FE7069D6
:203F7C0000281CBF4368002B0FD07A78B888012198477878002808D1B879C10705D573699A
:203F9C00B88822465C680321A047C5E0787806281BD1B88815F01CFBB8B1B17B012904D0F0
:203FBC0013D3032907D00CD30FE04179B8880022FDF735FE09E00022002140F2094003F051
:203FDC003DFBB888052115F053FA706900281CBF4368002B03D07A78B888022198479BE0A1
:203FFC0000950023F97801AA01F00101381D0BF0CDFB0028F3D19DF804300620434325330D
:20401C0007F10C020421D8B213F0A6FA84E0706900281CBF4368002B03D0B88800220021C0
:20403C009847707810B9B88805216BE0B88815F0CFFA040071D0B87AC10712D50095002337
:20405C006179002201F00101A01D0BF09FFB00281EBF60790028012803D0F868C0F340208E
:20407C0028B1307B022807D1B87A010704D4B888032115F0F9F950E06179B88807F10802E5
:20409C0028E0BD8897F80C80284615F0A1FA040042D015F0F1F900283ED1009000236179C5
:2040BC0001AA01F00101A01D0BF070FB28BB9DF80400FDF78FFA08F00C01042911D00829E6
:2040DC000BD00C290FD100F0090109290BD0617900222846FDF7A3FD1EE010F0090102D1F4
:2040FC00F5E7C107F3D501220092A37C9DF8041002462846FDF738FD0EE070780028E6D127
:20411C000521284615F0B0F906E0FDF733FE18B1307804210AF012FC01252846BDE8FE83DE
:20413C0000287FF4C5AE002078610622607900F001008DF80A00A11D01A814F043FAD7E676
:20415C00101E00202DE9FE4F0446DFF8E803DFF8E8530278002A45D0052A53D0062A55D014
:20417C00072A18BF082A00F0CF80112A40F0DA81DFF8C8331878002115F0BEF904001EBFC4
:20419C00606D407810F00C0F2CD0216DC0064CBF886CC86E0622016801F10806B11C6846D2
:2041BC0014F010FA307800F00F0105291AD16946C0F3801015F08CF9002813D0296868464E
:2041DC0015F082F90646296804F1380015F07CF986420DD0606D4178C80604D440F201407B
:2041FC0015F086F9A4E1607B40F0020060739FE12B681E204643981906226946C01D14F077
:20421C00E1F995E1012015F02BF991E1DFF83063306815F021F90400F7D020790328F4D101
:20423C00207A00F00F01072937D1C64800684169497A4A1E11425FD0617A04F10A035A5C30
:20425C0002F03F02242A57DDA17A8A09012A53D111F03F0F50D0007C14F064F9E17ACA0718
:20427C004CBF04F1110204F10B028B0748BF921D0B0748BF921CC90648BFD21C1621127879
:20429C0052094A43B0498B180A31F3608A5A428699898186DA89C2862EE000F00F00082833
:2042BC002AD1A17A880927D131B3A6480168087C14F038F9E17A074688071DD5062201F00D
:2042DC00010112FB01F1601800F10C01684614F079F9207AC009FF280ED0694615F0F8F81B
:2042FC0050B1286800F10D01684615F0B1F818B90521384615F020F9207903281CBF002064
:20431C0012F04AFF306839E0904EB078FF2837D014F008F9074607F16C08D8F8040015F0BA
:20433C009BF802908DF8004002990879032801D0200025D0D1F808E0854B9EF8009009F0AA
:20435C000300019038225FEA896006D51968B87901F10A04504301212154019860B119683F
:20437C00BC7901F10A00544300EB040C9DF800109CF8000029B120B9D8F8040015F064F83D
:20439C00D6E09EF801400EF1020AF8B11AF8010B00F01F018CF81A108009B979D3F800C09E
:2043BC005143614481F82500B879196812FB00F201EB020C14310A449CF824100CF11803EC
:2043DC0009F098FB9DF8000000281CD10198032807F2171B1CD0BCB198F8000068B107F1A2
:2043FC00F400017801290FD1524A1178072904D0082904BFC078012806D13D2101208BF8D3
:20441C0001108BF8000093E052490A78012AFAD097F8940078B3241FE4B2534622464946B0
:20443C0038460DF039FE00281EBF4B490878002809D101203D218BF800008BF8011028686D
:20445C0014F0FEFF74E04548016888470546B97972684FF4D07041435018002280F8412164
:20447C0007F59E700168807949080EF0BBF83C490A68284690470298002181600198032816
:20449C0019D03848416909788A0709D541690878C1074CBF0320002000191AF8000000E0B2
:2044BC00812088F808002246019BB078DBB2514606F0D4FD2DE09AF800005FEA896103D5F6
:2044DC001B2804BF022C01241C2803D226490B5C9C4206D08BF802000721384614F0ACFFEA
:2044FC0014E01448017808295146384607D102F03DF858B95146384614F09AFF06E000F0F9
:20451C00F9F918B95146384614F08EFF504610F0E3FAD8F8040014F097FF0299384614F018
:20453C007FFF05E0002012F037FE862014F074FFBDE8F78FC80F0020680F0020D50F0020CB
:20455C00BC0A0020540F0020E0070020780E002030350020D20F0020BA350020B41F0020A1
:20457C00B81F0020C8C9010068CA01002DE9F84FDFF848730446386808B907209CE1C07AEB
:20459C00012804D0042012F0C3F9012801D10C2092E1CB480078092818BF0A2804D00B28BA
:2045BC001CBF0C280D2801D1212085E1002C05D0207810B101280BD102E0E01C00F0B480C1
:2045DC00A078002818BF012804D0022818BF032840F0AA806078002818BF012803D0022828
:2045FC0018BF032872D1607A10F0050F6ED000210022607A01238B40184232D004EB0210C5
:20461C0043F6FD7543891E1FAE423EBF8689A6F1040CAC450FD2B34222BF038BC58AAB42B5
:20463C000BD3C38940F67B459E1FAE423EBF068AA6F1060CAC4577D29E4275D3458AB5F580
:20465C00FA7F71DA808AA0F10A0640F6774C66453FBF6D1C5B006B43B3EBC00F64D2521C8A
:20467C00D2B2491CC8B20228C3DD39684869417A022904BF002012F08FFD38684461617A28
:20469C00062990490CBF01200020087014F0C0FE050008BF09200BD03A68A9791174E01C9B
:2046BC0007D0A278E11C402007F0C6FF08B10B2002E105F16101284614F0A6FE05F12C0677
:2046DC00B07B012803DC28460DF03EF92CE039686078DFF8F481DFF8F4B1DFF8F491DFF869
:2046FC00F4A188726078002818BF012807D1C0073B6854BF594641460622181D3FE0DAF846
:20471C0000000D3014F0E8FE30B999F80010002904BF2078002812D16078C10754BF5946EB
:20473C00414614F0CDFE08B91220C5E06078C107386854BF594641460622001D0EE0DAF8F1
:20475C0000003B68C11D0622181D13F03BFF62480168DAF8003008680622D91D13F032FF4B
:20477C006078DAF8001000F0010008706078C107DAF8000054BF594641460622401C13F0C8
:20479C0021FF207870BBA07885F82E0105F594780622E11C404613F015FFA178DAF80000A3
:2047BC00E21C01F0010114F017FF0146FF291CBF99F80000002815D0A07840F0020085F823
:2047DC002E011E22DAF8003051431944487F48B901F10D0014F080FE20B906223F49404603
:2047FC0013F0F0FE14F00CFEA86213F0B5FC686204F1100133480078000104F114030A5AAC
:20481C00F280195A71812044428A328102223868417C3170B2700020B08014F0ECF90C2217
:20483C0090FBF2F20C2101FB1200401DF07304200AF036FE39682A4A2A4B08604260836128
:20485C00294A42610120C872A87914F0D5FD99F80000002801BF386841690A78012A0ED185
:20487C00807A02280BD1DAF8001001F10D0014F033FE20B91D48417941F004014171104CCA
:20489C002078C0B999F8001049B11948006814F0AFFD38680068816941F48021816138688D
:2048BC00007C0CF0FFFA06202070012200210CF08DFDFDF7F7FD0020BDE8F28F540F00203A
:2048DC00C80F0020D90F0020480E0020400E0020880E0020680F00204C350020006E02106B
:2048FC00040C00200200808095540100BC0A00206C0F00202DE9F84185B0044611F801CB5C
:20491C0000203822BCF1030F04F5A47704F1660504F1F406DFF81883C64B00F0B380BCF18C
:20493C00070F00F06381BCF10F0F0CD0BCF1110F00F00E81BCF11A0F00F01F81BCF11B0F41
:20495C0000F0448171E1707A820703D40F2184F8191157E008784A7800EB02233B808878D0
:20497C00CA7800EB02237B8008794A7900EB0223BB808879CA7900EB0223FB80087A387244
:20499C004A7A887A02EB00237B81C87A0A7B00EB0223BB81487B8A7B00EB0223FB81C87B7F
:2049BC000A7C00EB02233B82487C8A7C00EB02237B82C87C0A7D00EB0223BB82487D897DCE
:2049DC0000EB01229C48FA8201788A0658BF1A2212D504F5AA70049079890391387A029089
:2049FC0021890191F8880090BB887A883988204614F0FAFC70B11E22707A410708D40F204B
:204A1C0084F81901204614F0EBFC002837D1D6E00F21C3E004F18600798881800023BA88F8
:204A3C00C2800222F988018102704380A18EC91DE983628E8188B1EB520F02BFC188A28E0B
:204A5C00914202BF0089E18EB0EB111F18D0287C012804BF687C0F2805D0687D18B10F219D
:204A7C00A976FE2170E0FC21204614F0E5FCF8880090BB887A883988A07914F0ADFCCEE09A
:204A9C00102161E0707AC20709D431781A200129707002D1FF220D213AE00D2154E000204D
:204ABC002870A87101233371082204F1B00014F08FFC0146022204F1B80014F089FC04F16D
:204ADC00A80801460822404614F082FC07460821404614F079FC04F19C0804223946404658
:204AFC0014F076FC0421404614F06EFC04F1A00014F066FC04F1980014F05EFC4F48018805
:204B1C0041F0800101803078012805D1FF220421204614F04DFC82E06E7C0F2E18BF142E04
:204B3C0003D00E2E18BF0C2E0DD12F7C204614F03BFC0421204614F07FFC012F12BF31468D
:204B5C00AE76FD2100E00421204614F075FC66E00D783D761A2D4978797666D11868A579CD
:204B7C00811D5543002048551968A37912FB03F20A445072A179787E4FE0A6791868097818
:204B9C005643064401F01F0516F82D0F890918B17078C840C70705D420221A21204614F0DE
:204BBC00FFFB3CE0F5701868A37912FB03F20244204682F82F10002108F0D8FC78BB98F8AB
:204BDC0000004FF4804109F0B9FE28E0A179186851430144888908B900258D71A1791868FB
:204BFC0012FB01F281180020487218E009780F2917D01A2919D1A1791868514301440020CE
:204C1C008871A1791B6812FB01F2991848721A20F17A01F0FB01F172A1790CF051FE0120FC
:204C3C0003E0717A01F0FD01717206B0BDE8F081C70F002030350020200E00209C0F002058
:204C5C00C9480278112A00D070472DE9F84FC74A1078002114F050FC04000AD1002012F083
:204C7C009BFA002012F098FABDE8F24FFF2014F0D3BB04F14C0999F8000008B90121E17227
:204C9C00401C89F80000C2B2E17DD9F804608A4229D2D9F808104A7AB17B277E0120A1F11C
:204CBC00250300FA03F3A7F125018840184322EA000000F0070010F085FD2530B073A18BB6
:204CDC00B06800EB8100B060607DC1060AD5628B99F80010A08B00FB1121B068A63100EBE1
:204CFC00810030663EE104F1280706F1900806F173054FF0000A4FD1A17F6975E07FA8755D
:204D1C00D9F808205278930710D5E27FD30604D5C91E697500F0EF00A875C6F874A085F812
:204D3C0000A00022A97D01F0FE0116E1910608D4F88B00B1F87E2876F88B00B1386AC8F837
:204D5C000000D9F808004178CA070DD5F88B00281CBF386A002807D0C8F80000B97EF88B51
:204D7C00814238BF08462876E07FC1060BD5B06B397800EB8100B063A18CA63100EB8100B0
:204D9C007067022002E0C6F874A0002028700022E17F01F0FC01E0E0D9F808205278D307C5
:204DBC0017D5A87D697D00F0F700891E01F03F0182075CBF891D40F00200420644BF491EF3
:204DDC0000F0BF00A8756975C8F800A085F818A0C8E0401AC0B2009090077AD500980128CD
:204DFC0006F1400B3FD1B06BA18C00EB8100B063A07F00F03F00A0776875E17FA975D9F8ED
:204E1C00082053785A0704D5801F687501F0FD01A9750023697DFA7E9BF8000001F03F017B
:204E3C008A18521CC0F3800192B200F0030014F0B3FA00F59B70A0841E21A08C90FBF1F12E
:204E5C008AB2A97D01F0FE01204614F0A1FA85F800A0F88B00B1F87E2876F88B00B1386AA4
:204E7C00C8F800007EE00228B06BA18C00EB8100B06326D1E07FC10706D5687D811F6975AB
:204E9C00A87D00F0FE00A8750023697DFA7E9BF8000001F03F018A18521CC0F3800192B2F9
:204EBC0000F0030014F078FA00F59B70A0840022A97D01F0FE01204614F06AFA787FABF8A9
:204EDC001A00797F0098491C081AC0B2012814DD0BE0B06BA18C00EB8100B063797F0098B7
:204EFC00081AE17FCA06C0B207D5A28CB16BA63201EB820171670221297098B3D8F8003086
:204F1C0097F81BC0E27FA17F6344C8F8003052084FEA4208D9F808205278530748BF28F0DA
:204F3C000208920748BF28F00808012807D1387F2876C6F874A028F0100885F800A001F01D
:204F5C00C006404614F020FA00F03F003043687585F81680002208F0FC012046BDE8F84FD0
:204F7C0014F016BABDE8F18FC80F0020D50F00202DE9FE4F0422FF2101A813F02DFBB949A2
:204F9C0088780024FF2800F06A8113F0CBFA054605F217100178012908BF417800F0B68055
:204FBC0005F1740005F59276817B022904BF05F174018C73F18911B1307B09F0BFFC688989
:204FDC00A94F2881FA79BB7A397BF87A97F80DC09B185B181B1805F58D7903EB0C08B9F8DE
:204FFC0000C0B9F80430C4445B1CA9F800C0A9F8043097F80AC0B9F802306344A9F8023085
:20501C0033683BB3DFF864E2DEF800E00EF10E0ACDF800A04FF01C0A95F806B01AFB0BFADA
:20503C00DDF800B01BF80AA033F81AB0C34423F81AB00EF10E0A95F806B04FF01C0E1EFB55
:20505C000BFB1AF80BA003EB4A03B3F84AE0F444A3F84AC0002A08BF002804D1002904BFAA
:20507C00787B002829D02989E8892C744118287FA981012804BF688CE883A979012207205C
:20509C000CF0A4F9A246787868B10121297705F174018878002804BF887B002803D1087FCC
:2050BC0008B9688CE883307D002837D0022804BFF87A00282ED1347530E0A97907200CF054
:2050DC0085F9EC83B87A40B1297F2C7401294FF0010A09D1688CE88306E0B9F80600401CB6
:2050FC004FF0020AA9F80600A8892989814206D08842C8D2081A41F2AB029042C3DA287CAD
:20511C0008B1052901D0082100E03E21284614F013FAA4E0787A08B1022131755448F97BCC
:20513C000068CA070AD52A683969D160143001F59071D160A9794901445011E0AA7900F165
:20515C0014015201885830614848AB7901681C2001F1080243432968D058C860EC832C778C
:20517C00444A50690078810702D5B87B802800D1812005F1740651463070284605F0B0FAF4
:20519C0028460BF071F902281BD1F079022805DB01AA394928460EF0CDFD0446284614F078
:2051BC00EFF801285BD020000DD0224601A928460FF068FC38B928460BF056F9012802D113
:2051DC004DE001284BD00121284614F0D5F8284614F0CEF8FDF74EFC012840D028460CF0C8
:2051FC008FFDFDF75FF9254FB988386810B1AA79914203D04FF6FD70814230D12049087B7A
:20521C0013F076FB04002AD084F800A0A8791D4960800A68A879115C217195F896016071F6
:20523C0096F90010A171A4F80880B9F80200608113F026FB050005D1FF204FF0FF312073C9
:20525C00216109E02878207314F07EF90146A86814F08AF880082061204639688847BDE8B8
:20527C00F78F00BF780E0020980C0020980E00209C0E0020C8C9010044220020800E00200D
:20529C00FC240020443500202DE9F84F8AB083460C4600208DF800001646B849C87981069D
:2052BC001A4602D5B6488178880640F163811D98169B199D1E9908B900250CE059B9012B1E
:2052DC000CBF4FF040094FF020094D4503DB012B0CBF40252025DDF86880DDF86C90C6464C
:2052FC001EFB09FE15FB0EF5AFB24FF0600A97FBFAFE0AFB1E775FEA070C18BF4FF0010CB2
:20531C00E6445FFA8EF70897AFB20997ADF81A208DF819408DF818609A4F3A78149CDDF8EF
:20533C0054C0DDF85CE0DDF860A01C9E002A72D0ADF860A000279DF800A0ADF81CB08DF83A
:20535C0050408DF854C08DF858308DF85CE01D901E910899F8B2884279DAA8B26028ACBF29
:20537C004FF0600BAB465FFA8BF02D1A4000203080B212F057FA04004BD0912020703E2187
:20539C0081226170A2705FFA8BF20998A080A7714B46BDF81C0020819DF81910A1729DF853
:2053BC001800E072BDF81A10A1819DF85000A0739DF85410E1739DF8580020749DF85C109F
:2053DC00617404F12001BDF86000608284F814B004F12000A06184F81580881884F81690A6
:2053FC00E675E06105904246A0691E9904900391CDF804A000961D989DF8581002905FFA54
:20541C008BF003F02BF882465E480078214605F06DFB7F1C9DE78DF868808DF86C908DF8A3
:20543C0070609DF80090DDF82480ADF81CB08DF850408DF854C08DF858308DF85CE0ADF850
:20545C0060A01D901E9100260899F0B2884280F29180A8B26028ACBF60272F46F8B22D1AE4
:20547C005FFA87FA4FEA4A0000F1140B0BF10B00C0B212F0D7F904007AD001202070FF2139
:20549C0004F1080261706260042010703E22606842708120616881F802B06168C8704FEA11
:2054BC002821606880F804806068417161688E716168BDF81C00C8716168BDF81C00000A0A
:2054DC00087261689DF81900487261689DF8180088726168BDF81A00C8726168BDF81A002B
:2054FC00000A087361689DF85000487361689DF85400887361689DF85800C87361689DF8A6
:20551C005C0008746168BDF8600048746168BDF86000000A88746068C77460689DF8681041
:20553C00017560689DF86C10417560689DF87010817560681E9A9DF86C30039200F1170128
:20555C005144059117300490CDF804909DF870101D989DF8682000910290F8B29DF858101F
:20557C0002F07CFF814608480078214605F0BEFA761C69E70BB0BDE8F08F00BF280E002029
:20559C00200E0020B3350020B13500202DE9FF47AA48017806294FF0010840F04981A84E65
:2055BC00A84F3068A84C016801F108054FF0FF09297801F00F00072802BFA8788309012B34
:2055DC0040F09780002800F09480E878C30707D50622291D684612F0F5FF2878C0F3801938
:2055FC00E978880737D5062201F001012B1D5143194402A812F0E6FF2878C009FF282AD024
:20561C0002A913F065FF002800F08F802068807A022818BF032804D138680D3013F05CFF77
:20563C00002840F00081386800F10D0102A813F00FFF002874D02068062202A9001D12F035
:20565C00C1FF707940F0040070710622386802A9C01D12F0B7FF4846FF2800F0E4806946B0
:20567C0013F036FF1E25002800F0A8803968684613F02AFF2268014650690078FF2900F0BE
:20569C008280002815FB01F563D1107C12F04AFF90F82E11022918BF032901BF3B685A5DA4
:2056BC0001F001018A4253D100F59479581906224946401C12F098FC30B906224946634884
:2056DC0012F092FC002843D020684169386840190622C91C401C12F087FC002838D07079B1
:2056FC0040F00800707106226946484612F06AFF43E011F00F0F1CBF01F00F02012A27D163
:20571C000622A91C684612F05DFF2878C0F3801900F00F0001289ED1062205F1080168E77B
:20573C003068016800220A7184E02168887A022818BF032805D138680D3013F0CDFE0028EB
:20575C0089D12068807A002818BF01283FF483AF69E039684A5D70694919491C083813F050
:20577C00FFFD3B490A7890425DD03968706949196A46C91D083813F0EFFD3868401906224A
:20579C006946C01D4DE000284DD1107C12F0CAFE0746206840698278914544D1C11C062230
:2057BC00684612F021FC00283DD0707969F3C30070710622694607F5947032E021684A69BD
:2057DC00107880BB087C12F0ADFE82469AF82E01022818BF032826D138686A46494613F02B
:2057FC00FBFEFF281FD015FB00F5386841194A7F012A04D00D30401913F06EFE98B12068E1
:20581C004169386840190622C91C401C12F0ECFB48B1707969F3C3007071062269460AF5BF
:20583C00947012F0CFFE306801680020087101E04FF00008404604B0BDE8F087C80F00206A
:20585C00BC0A0020680F0020540F0020006E0210B83500202DE9F84F05004AD09C480078C7
:20587C00092818BF0A2804D00B281CBF0C280D2801D1212029E1A878002113F03DFE0400E7
:20589C0008BF4220F6D0934FA978914A3970107810B9A8789049087004F14806F068417860
:2058BC0001F01201022902BF706900280C2012D0607AF0B1A07B012804D1B5F8030008B1D0
:2058DC00812816DA6878402813DA204613F040FDB06808B90720F8E0B561287801281BD195
:2058FC00A07B00281CBF0128042815D17B48007808B91220E9E07A494A78824208BF092003
:20591C00F8D004F1220004F13801427F802006F093FE08B10B20D8E0687808B91120D4E054
:20593C002878DFF8C091DFF8C0A1DFF8C0B1012840F09380207A0021012821734FF00A08CE
:20595C0011D19BF80000402110F0DEFDB5F8030008FB00F1402013F0F7FC0100DFD1B169B5
:20597C0068794871B0E001202072E172617309F097FD6060DAF8000080475D4A01461068BB
:20599C0002E06268426000680028FAD10846D9F8001088476168574848610021387810F062
:2059BC0081F83978012211200BF010FDF0684178C80605D5204613F0C3FC01000BD084E024
:2059DC00002060840BF0BAFC84F82100204613F0B3FC010079D1F0684178C8071CD504F130
:2059FC004207B98800291CBF3068002814D03A788A4211D20F2013F09BFC68B1F068017845
:205A1C008DF80010B888ADF801000F2039788DF80310694613F088FC2D4F3878002853D1C9
:205A3C003549087800281EBFF068417811F0030F03D03248006813F0DBFC11203870012199
:205A5C002172B5F8030008FB00F1402013F07CFC01003AD1FCF726FD36E0207AA8B3DAF819
:205A7C000000804705463878012110F01BF89BF80000402110F048FD0020207213F02AF803
:205A9C00012804D012F0FCFE6168884212D111F0CFF840F2014013F02BFD194919480860EA
:205ABC0001219BF8000008F049FFD9F800102846884709E0204613F033FCD9F800102846E7
:205ADC008847204610F046FA0020BDE8F28F00BFC80F0020D60F0020D50F0020D40F00202D
:205AFC00780E0020B81F0020B41F0020C70F00204C0F002021740000880E00206C0F0020A3
:205B1C00480F002041E700102DE9F14F82B013F01BFD009041F60301BDF808003225401ADE
:205B3C004FF0FF3B0328D9464FF0500842F21077DFF844A2914E6FD91E38012808D9801E52
:205B5C006AD0001F00F0D580401E00F0028110E18B4A907812F0E6FC0400F8D0E08E618EDF
:205B7C0090FBF1F77068A17950F83110009813F0FBFB01462089A279336ADFF808C2DFF86A
:205B9C0008E203280EDB814C2468382010FB02F014F80090B9F1010F1EBF201890F82D001D
:205BBC0001280FD17D436424B5FBF4F47568985C2D1DF14615F83250A54217D2B0B9514530
:205BDC0029D313E07068041D08FB07F814F83240985C4FF0640BB8FBFBF844454FF0FA69CE
:205BFC0004D218B9DFF8A881414501D3E1460AE0F369985C7D43B5FBFBF5AC4202D208B944
:205C1C00514508D3F146401C032190FBF1F101EB4101401A9854ACE05E480078002113F091
:205C3C006BFC0400F7D0606D007811F009FCFF280190F0D0BDF8080041F6030188421CBFB6
:205C5C0041F60401884207D041F62301884202BF207D8009012802D14FF07A7901E0DFF859
:205C7C0038913068019950F83110009813F07CFB226E0146B2F80300C0B1636D93F801C061
:205C9C005FEACC6E08D5A47B012C05D1474340F2E24397FBF3FB09E0D3F80340474324F070
:205CBC007F4440F271204443B7FBF4FB507910B1584538BF8346394881420BD232680198DF
:205CDC00131D642213F8300008FB0BF3B3FBF2F2904202D309F102094BE051453FBF05FBB9
:205CFC000BF56421B5FBF1F1884242D309F101093FE03169009813F037FB024628480368E5
:205D1C00186A41884FF07A6949B1808838B94F43D9698B8840F27120434397FBF3FB1F49EF
:205D3C008A4207D2307D08FB0BF36421B3FBF1F1884202D3DFF86C901BE052453FBF05FBDD
:205D5C000BF56421B5FBF1F1884212D3DFF858900FE0B168009813F007FB0D494FF07A7975
:205D7C00884228BFDFF8449003D2504528BFDFF840904846BDE8FE8F81841E005832002026
:205D9C00780E00200200D0070100D0073035002001093D00D50F00200000B80B01127A0070
:205DBC00500F00200200A00F0100A00F0200E8030100E8032DE9F04FA44C8246E07894F81D
:205DDC00315094F83290BAF1000FADF1140D0146A1F101018FB218BF01214FF0000884F887
:205DFC003F10464603964FF0F80B019622E0B1451ED0E06871036A46042312F0F7FE009931
:205E1C0011F4403F03D00198401CC0B2019001F0FF017C2918BF782909D1304606215A46F2
:205E3C0012F03AF80C2016FB004080F848B0E078761CF6B2B042DADC0199401E88425BD0FE
:205E5C00002F04F1300600F0CA8040464FF4005B019094F83F30E06813B9012184F83F10E1
:205E7C006A466903042312F0C1FEBAF1000F05D00099E07811F4403F40F09980009800F02D
:205E9C00FF00702803D02846702111F093F8E0684FEA49316A46042312F0A8FE009800F0EF
:205EBC00FF00FE2803D04846FE2111F083F848460621FE2211F0F0FF4FEA8900FF22FE21DE
:205EDC0084F83C9000EBC900A4F840B0AB0084F83D50801984F83E20183001700199029012
:205EFC0003EBC5008019A4F84410808BA4F8420000F0C0FD102801D10020A4E0BAF1000F4C
:205F1C000CBF10215146BAF1000F07D0B4F84000C0F50050814207DC01200390B4F840000A
:205F3C00C0F50050814201DD782100E07C21484611F040F807F00AFC054694F83F00062188
:205F5C00FC22401B84F83F00484611F0A5FF0298FC21017094F83210E0787F1B491994F8E8
:205F7C003E500C23414491FBF0F24243891AC9B284F83210491C91FBF0F24243891A84F87D
:205F9C00311015FB0361898BBFB2102905D1691C91FBF0F24243891ACDB294F83290DDF8DF
:205FBC000480BAF1000F17D00398A8B117E06D1C08F1010295FBF0F17F1E94F83F30A4F88B
:205FDC0040B041431FFA82F8BFB2581E6D1A84F83F00EDB284F83D50002F7FF43AAF7C20A6
:205FFC0010F0B2F90546FF2D1CD17E2010F0ACF90546FF2D16D194F831500C2015FB00602C
:20601C00807DFF280AD0E27894F832008018401E90FBF2F15143401AC5B203E028467E2195
:20603C0010F0C8FF0C2084F8335015FB0060808BE08694F83200FE2110F0BCFFB4F84000ED
:20605C00C0F5005000B205B0BDE8F08F4C20002070B5894D687912F03BFC88490028086092
:20607C000BD00022026002730868C2610262A87912F02EFC82490028086000F0FB80002204
:20609C000260C27200200A681074052308684374002209684A61E87A12F01AFC7949002847
:2060BC00086071D0784C21782878C91C10FB01F080B212F00DFC75490028886064D0207866
:2060DC00002874D0698811FB00F080B212F000FC6F4A0028506057D06E482278017811FB8E
:2060FC0002F080B212F0F4FB6B49002808604BD000250AE0E8B212F09BFB0021418081600C
:20611C0001800223037101736D1C2078E9B28142F0D312F0DDFB61490028086034D02078E3
:20613C00400012F0D5FB5E49002808602CD020781C2110FB01F080B212F0CAFB594A002869
:20615C00106021D02078400112F0C2FB56490028086019D02078000112F0BAFB53490028FE
:20617C00086011D02078000112F0B2FB50490028086009D02078302110FB01F080B212F057
:20619C00A7FB4C4A0028106074D02078382110FB01F080B212F09CFB474A0028106069D0B5
:2061BC00207812F095FB45490028086062D0444D444E2978307800EB4100C000103080B27F
:2061DC0012F086FB40490028086053D000F10801416030782A7800EB4200C000103080B2A0
:2061FC0012F076FB39490028086043D000F1080141601E212878401C10FB01F080B212F0E5
:20621C0067FB334A0028106034D0082012F060FB304D286070B3062012F05AFB29680860C4
:20623C002968086830B300204860062012F050FB29490860F0B1A02012F04AFB274D2860A5
:20625C00C0B12078C00012F043FB686090B1142012F03EFBA86168B10026207812F038FB8C
:20627C0005F11C0141F8260020B1761C022EF4DB002070BD072070BDFC240020500F0020CE
:20629C00540F0020440F0020D40F0020F4340020780E00205726002038350020340F00206E
:2062BC002C350020980E00209C0E0020A00E0020A40E0020A80E002030350020443500201D
:2062DC00B9350020B83500206C0F0020700F0020680F00204C350020400F002058320020FC
:2062FC002DE9F04F0646A04DF08995F833404FF0000BADF12C0D4FF0FF0A5F46C01D0A92F4
:20631C001FFA80F8E87809910AE02046782110F051FEE878641C94FBF0F14143641AE4B2B6
:20633C00B8422ADD95F832007F1CA042BFB2F0D0E868610306AA042312F058FC069800F064
:20635C00FF007828E5D005F13009FF2818BF7E2803D120467C2110F02DFEA00085F8334068
:20637C0000EBC4004844818BE986808B42F2010340448342C9DD95F833A0BAF1FF0F0AD125
:20639C004046FFF717FD804503DD687800B90520E6E04FF0010B2C4695F833706078F8B9B2
:2063BC000A9820B102281BD1BBF1000F18D0307A8DF80C00F388ADF80A30B288ADF80820F9
:2063DC0000210091E18E01AA0323384605F0BAFA9DF81400BDF81030307495F83370B381E2
:2063FC00E58EE068790306AA042312F0FFFB0698B84600F0FF0100F0FF007E2806D14046F9
:20641C007C2110F0D7FD069901F0FF017C2940F0A480F08942F20103C11D8FB2EA199342BE
:20643C0040F39980F288337A11128DF81D2063F39F01B3888DF81C109A1003F00301064619
:20645C008DF81E20C0F3851200F03F0342EA81128DF81F20990072198DF82010F31D1FFA5C
:20647C0082FA98B20D282DDBDDF8249031460022484612F005FB0246052107A812F000FB31
:20649C009DF82010334600F03F0641EAA0114A46B0008DF8201040F0020096268DF8210008
:2064BC0029468DF8226040460EF00EFF0646514607AA0723404666700EF006FF3043607059
:2064DC004DD135E0099904F1240032460AF044FA07A90A68301900F1240948460979026007
:2064FC00731D0171002204F1240099B212F0C8FA9DF82010962300F03F068DF8223041EA7F
:20651C00A011B0008DF820103B4640F0020007AE49468DF821003268B0790A60B28888714C
:20653C0040468A8004F1240229460EF0CDFE6070E18EED194FEA8806AAB2C919E18606EBBA
:20655C00C8010919A1F84C2048B1404651460EF0F7FC607803E0052000E001206070C0B205
:20657C000BB0BDE8F08FC0464C2000202DE9F84185B0044611F8017B00203822072F04F592
:20659C00A47504F1FD06DFF86082984B00F00A810F2F09D0112F00F0B7801A2F00F0C980B7
:2065BC001B2F00F0EF801CE133789A071BD504F176073878012804BF78780F2808D07879DF
:2065DC0008B17A7812B13A7B012A03D158070AD5232264E010B17878012802D0B87E0128AB
:2065FC0006D1580702D40F21317751E02A2256E008784A7800EB02232B808878CA7800EBBE
:20661C0002236B8008794A7900EB0223AB808879CA7900EB0223EB80087A28724A7A887A2E
:20663C0002EB00236B81C87A0A7B00EB0223AB81487B8A7B00EB0223EB81C87B0A7C00EB47
:20665C0002232B82487C8A7C00EB02236B82C87C0A7D00EB0223AB82487D897D00EB0122A4
:20667C00EA8204F5AA70049069890391287A029021890191E8880090AB886A8829882046B9
:20669C0012F0B2FE68B13078410707D40F203077204612F0A5FE002830D16CE01E220F2182
:2066BC0058E06888B882A988F9820221E8883883397400207882A18EC91DF981B88A618EDB
:2066DC00B0EB510F02BFF88AA18E884202BF388BE18EB0EB111F12D0787918B10F21B972B2
:2066FC00FE210DE0FC21204612F0A6FEE8880090AB886A882988A07912F06EFE6BE0002180
:20671C00204612F099FE66E00E782E761A2E4978697666D11868A679811D564300208855FC
:20673C001968A37912FB03F20A445072A179687E4FE0A679186809785643064401F01F0547
:20675C0016F82D0F890918B17078C840C00705D420221A21204612F023FE3CE0F5701868E1
:20677C00A37912FB03F20244204682F82F10002106F0FCFE78BB98F800004FF4804108F0AA
:20679C00DDF828E0A179186851430144888908B900258D71A179186812FB01F28118002045
:2067BC00487218E009780F2917D01A2919D1A17918685143014400208871A1791B6812FB08
:2067DC0001F2991848721A20B17801F0FB01B170A1790BF075F8012003E0317801F0FD01B0
:2067FC00317006B0BDE8F081C70F0020303500202DE9FF477D4C7E497E4E20700A22002001
:20681C0008600D237C4840F211210270438081807A4A7B48106037787A480770FF2F717870
:20683C00417008BFFF29B2788270F378C370357905717679467114D1FF2A08BFFF2B10D138
:20685C00FF2D08BFFF2E0CD16F490A7802704B7843708A788270CB78C3700A7902714979DB
:20687C0041716A4902786A4D6A4E6B4FDFF8AC810A7043784B7082788A70C378CB7002791B
:20689C000A714079664A4871FF2028706870A870E87028716871002062490880F06B624975
:2068BC00407808706149F06B007808701388604860490380F06BC06C3860F06B90F83C00EA
:2068DC0008705D49F06B90F83D000870F06B406901795A484A1E0270F06B5949C07888F837
:2068FC000000F06B8069086008B910F055FCF06B5449C069086008B910F04EFCF06B416D21
:20691C0051480C2211F05EFE12F006FDF06B4F49006A086008B910F03FFCF06BDFF830917E
