:20000000003C0120E13C010039FB021039FB021039FB021039FB021039FB021039FB0210C1
:1C00200039FB021039FB021039FB021039FB021039FB021039FB021011FB021002
:20003C0038B586B004468DF805104FF6FF720120ADF80220090ADFF8905CADF8000002235F
:20005C008DF806108DF8043069462A78204618F029FD162803D12978204618F01FFD07B057
:20007C0030BD3EB504000D461AD0DFF88C0C0068224618F00FFDFF2811D000200090002315
:20009C0001AA294620460EF085FE40B900F0B9F8C00604D500F0B5F810F0040000D0012078
:2000BC003EBDFEB5164615244FF6FF7290420D4615D100208DF80400DFF80C7C9DF804007F
:2000DC00B97988421AD23246294600F0C9F800B100249DF80400401C8DF80400EEE718F054
:2000FC00D5FC50B100F004FD40B99DF804003246294600F0B5F8002400E014242046FEBDAE
:20011C002DE9F04387B00C460021009190461D46014600F04DFD01260028DFF8AC7B62D105
:20013C0000F06FF88146082DF87908BF002600F012FA040002D100F011FA5BE078789DF864
:20015C00041002280CBF0120002000902B464A46404600F0D7FC1422002102A8062517F02C
:20017C0093FC9DF8040015FB00F0243002AA00F044F8A8B91022FF2102A817F086F878B9FC
:20019C009DF8040015FB00F5253506AA0421E8B216F03AFC02AA09F00101404618F072FCFD
:2001BC00F9799DF80400890670302246090EC0B216F02AFC88B9204600F0C5F8002508E06B
:2001DC0004EB8000018819B18278404616F0F0FE6D1CF979E8B28842F2D39DF8040000F020
:2001FC0003FA00F0C2F97878022803D116B1404613F054F907B0BDE8F0831021C0B216F038
:20021C0003BC9DF80400B3E17CB50D46044606214C43164600F01EF8A8B900F016F890B948
:20023C009DF80700002E14BF054320EA0505E9B2814206D08DF807506A460821E0B216F028
:20025C000BFC012076BD002076BD0622FF21684617F01BB820346A460821E0B216F0D4BBB0
:20027C002DE9FC410646344606235C4388461546FFF7F0FF002850D1FFF7E7FF00284CD109
:20029C00DFF8447AF87900F066F9040002D100F065F942E0F979703689062246090EF0B2DE
:2002BC0016F0B2FB002834D1204600F04CF85FEA08000DD1FA799206120E0021204616F0C1
:2002DC00E4FF30BBFA799200002100F041F916E0214600F025F858B9280004D021460020E6
:2002FC0000F01EF810B900F040F916E0A0F800808178A9420DD085700DB900210180204658
:20031C0000F021F8F97989062246090EF0B216F0A3FB00F02AF9012000E00020BDE8F681A2
:20033C0070B5DFF8A439DD79002200E0521CD4B2AC4206D231F824608642F7D101EB840009
:20035C0070BD002070BD10B50021DFF87C290AE030F82130DB4320F8213000EB8103491CE7
:20037C009C78E4439C70D3799942F1DB10BD2DE9F04186B0804600200E460090002398F860
:20039C00061004AA40460EF005FDDFF83C590627A0B1002400E0641CA979E0B2884280F09B
:2003BC00C780A869E3B20622FF2100EBC30016F06CFF0028EFD08DF8104013E0706988B10C
:2003DC0000F0C1F823306A46FFF717FF50B91022FFF73CFF30B998F80600414600F00100E6
:2003FC0018F04CFB9DF81000A979884280F09C80E87900F0B0F8040003D100F0AFF80A20E3
:20041C0093E000F0A0F820304246082100F0AAF89DF8100000F0E8F8EA79920000F097F849
:20043C00E9799DF81000890670302246090E00F099F8A8699DF810300822414600EBC30025
:20045C0017F018FB726972B1107C002302F1110100F0010018F00EFB726922B100F073F8A9
:20047C00233000F07EF8B2682AB100F06CF821301C2100F077F832692AB100F064F822305D
:20049C001C2100F06FF8F26882B100F05CF8243000F067F8F06800F110029DF8100017FB26
:2004BC0000F725370421F8B216F0D6FAE87B08B100F052FBB688286A4FF6FF7750B905F145
:2004DC00120100910223DFF860283946012018F0CDFA2862296A19B3FF2003900222002387
:2004FC000292019305A800900DF112036A8A304607F0C8FB68B99DF812009DF8131000EBD9
:20051C00012290B228B1286A418992B23046FFF7C8FD6A8A286A0023394618F0A3FA286259
:20053C0000F023F8002000E0152006B0BDE8F081DFF8F827107800281DBFDFF8F4170868BF
:20055C0004780C4637E79DF8100078437047FF21204617F099BA800017F0FEBB042016F032
:20057C0087B81021C0B216F077BA204617F0FCBBE0B50623584320306A460821FFF73EFE6E
:20059C0010B99DF807000EBD00200EBDDFF83807007808210DF08ABD38B50025DFF82847D1
:2005BC0019E0A069062313FB05F300EBC50220330821D8B216F028FA58B1A0690622FF21B4
:2005DC0000EBC50017F060FAA06900EBC5010022CA716D1CEDB2A1798D42E2DBE07B10B1ED
:2005FC00BDE83140B8E231BDF8B5DFF8DC16DFF840578B792E681C461A4600E00A46D1B24E
:20061C0039B1511ED2B2324412F8017C8742F5D10C46E0B2591E07E01718165C7F78175410
:20063C002A680244401C567088422A68F4DBE4B28C4205DA1946BDE8F840052016F00CBA09
:20065C00F1BD38B500200024DFF87C56AA79E1B2914206D2010004D1E0B200F003F8641CC2
:20067C00F4E732BD2DE9F84F83465D46062313FB05F58EB005F1200701AA0821F8B216F0BB
:20069C00C3F9002871D10622FF2101A816F0FDFD00286AD1DFF83066F079FFF75CFF5FEA54
:2006BC00000903D1FFF75AFF0A2060E01C22FF2103A817F0E9F9F2799200FF21484617F0E4
:2006DC00E3F905F123040AAA1021FFF7C6FD60B91022FF210AA816F0D8FD30B99DF80A00E7
:2006FC0001A900F0010018F0C9F9082200F046F801AA0821F8B216F0AFF98DF8000003AAC3
:20071C0005F1210000F036F8074605F1220003AA00F030F8804603AA1021E0B216F09CF98D
:20073C00044605F1240003AA102100F024F88246253503AA0421E8B248EA070716F08CF9F6
:20075C002743F1799DF800504AEA0707074389060BF170034A46090ED8B216F07DF9074343
:20077C00484617F001FB3D4300E0002528460FB0BDE8F08F1C21C0B216F06EB9FF2101A851
:20079C0017F082B92DE9F84187B0FF208DF80000DFF83455A87917F0DFFA040003D1FFF7A2
:2007BC00DDFE0A202EE01022FF2103A817F06CF9AA79FFF7CCFE0622FFF7E0FF03AA1021E3
:2007DC00022016F049F9064603AA1021032016F043F906436A460121042016F03DF907463C
:2007FC00A9792246052016F037F9054601AA0621062016F031F98046FFF7B7FE3E432E4322
:20081C0048EA060008B0BDE8F081F8B50446DFF8B8542079012842D0092803D07D2800F06F
:20083C007F8084E0617860881A2976D000F066FA022802D0032818D079E02089668801227D
:20085C00012804BF6089032807D1E168887820B91021304600F023F90246686900281CBFB3
:20087C004368002B63D0052116E020896688012804BF6089032806D1E068827804213046EC
:20089C0000F00DF900E01820696900291CBF4B68002B4CD0024604213046984747E0207ADB
:2008BC006788082838D1384600F028FA02280FD0032831D160890022042100F0F0F8696954
:2008DC0000291CBF4B68002B26D00246042121E060890022102100F0E2F80646384618F0DE
:2008FC00D5F878B1DFF84C24117839B9811D4079012200F0010018F0B1F803E0DFF8381402
:20091C0001200870686900281CBF4368002B03D03246052160899847608800F089F906E0FF
:20093C00608800F0EBF90146608800F0A2F9217904F10800BDE8F44018F08CB8F0B5A9B06B
:20095C0006460D46144618F0A1F808B91420A4E0A4220021684617F097F8ADF800600DF13A
:20097C002607DFF86463F078B17A279A8DF804005208F07A8DF8A0004B0801F0010040EA5B
:20099C00420222F0020203F0010342EA4302080922F4807200F0010042EA0022480922F4BA
:2009BC00007200F0010042EA4022880922F4806200F0010042EA8022307B890822F004028E
:2009DC0001F00101022842EA81020CBF012000202792787418F03AF8412807DB307B00B19D
:2009FC0008209DF8991008438DF89900707BB8B10121B974202206F184010DF1390017F06D
:200A1C0039F8202206F1A4010DF1590017F032F8202206F1C4010DF1790017F02BF800E0A4
:200A3C00B874707A8DF8050088B1C44F102207F110010DF1060017F01DF89DF899000828F5
:200A5C0005D1102239460DF1160017F013F8307A8DF8260028B11022B9490DF1270017F03F
:200A7C0009F8307948B1022D18BF032D03D1279840F002002790012100E000219DF89900B4
:200A9C000143B0788DF8991000B1042001438DF899106846214617F0D5FF29B0F0BD2DE9CD
:200ABC00FC41154615244FF6FF72904288460DD10027854EB179F8B2884216D22A4641469E
:200ADC00FFF7A2FB00B100247F1CF3E717F0DEFF50B100F00DF840B99DF804002A464146BA
:200AFC00FFF792FB002400E014242046BDE8F681002100910023417901AA01F00101801DCF
:200B1C000EF048B970B504460D4606204543082B88B0164603D1300758BF223500D52135DF
:200B3C001C220021FFF72BFE01AA1C21E8B215F06BFF78B99DF81E00C01F0A280AD20C98B5
:200B5C000090F20801AB02F0010206F00101204617F074FF08B070BD38B517F06BFF00240F
:200B7C00594D0FE0A8690622FF2100EBC40016F08CFB28B9A86900EBC401002017F056FF11
:200B9C00641CE4B2A8798442ECDB31BD3EB50C4600250146009500F00BF838B99DF80400C4
:200BBC00FFF7E6FCC00601D401203EBD00203EBD002301AA20460EF0EDB8F8B506460F464A
:200BDC0015460C2017F0C8F8040019D02681A77200202060E07245B10821284616F07EFCFF
:200BFC00606018B9FFF7C1FC0BE060605548016811B9046004E0014608680028FBD10C60BB
:200C1C000CB91520F2BD0120E0722A4639463046FFF794FE04462C48406900281CBF43689A
:200C3C00002B03D000220021304698472046F2BD38B505464348046803E02089A84204D074
:200C5C002468002CF9D1012032BDE07A012807D100F05EF820B11C48007804210DF026FA56
:200C7C00E17A491CE1722846C9B200F002F8002032BD38B502290446134D02D003290DD0C6
:200C9C001EE042F6C921FFF7CBF902001CBF6869002818D04368B3B105210CE042F6A62180
:200CBC00FFF7BEF901001CBF696900290BD04B684BB102460421204601B0BDE83040184712
:200CDC00BDE8324002E031BD4417002010B51D4B1968002201E00A46096851B10C898442C7
:200CFC00F9D10868002A0CBF18601060084617F03BF8002010BD0000680F00200246042049
:200D1C001049096819B10B899342FAD1C87A70470C48006828B1006818B1C17A0029FAD101
:200D3C007047002070470000E8BE0100F42E0020882E0020AA0F0020F52E0020B42B00202F
:200D5C00E42B00208C2E002038B5244C2070A171E271C80017F000F8A061D8B1A279D200DE
:200D7C00002116F091FEA07916F0F6FFE06108B9A0690DE0A2791A4D002116F085FEA07950
:200D9C0016F0EAFF286050B9A06916F0EDFFE06916F0EAFFBDE83240042015F069BCA27904
:200DBC00002116F071FE04F1E40017F03BFE2178062017F033FEFFF7EFFB2A68A1790520C0
:200DDC0015F022FE48B1002004E02B68091A4A1E1A54401CA1798842F7DB31BD44170020CE
:200DFC00882E00202DE9F04F8B4D8FA04FF0070A28600026C5F808A0ADF1240DEE604FF0E6
:200E1C00FF306860382017F0DCF9286110B3066005F1280188A74160804C8760286900287E
:200E3C00C46017D089A101617D4F476112D0866105F11401C1610DD089A10162DA4F476259
:200E5C0008D0866205F15001C16203D0066305F17801416387A0A8624FF0020BC5F830B0E3
:200E7C004FF0FF37EF6210206D6317F0AAF905F150040FF21C2884A1A863079128B1016055
:200E9C00CA4F476042468260C76083A0A8670327C5F880704FF0FF33EB671820C5F8845050
:200EBC0017F08FF9C5F8880058B17FA10160C0497FA2416007468260F96017B17EA03861E6
:200EDC0079617FA068610827EF614FF0FF33AB6140202D6217F075F93146B64B686218B1C9
:200EFC00CA00865082185360491C0829F7DB77A02865AF654FF0FF336B654020ED6517F0CF
:200F1C0060F93146AC4B286618B1CA00865082185360491C0829F7DB6E66C5F86CA04FF066
:200F3C00FF30A86638202C6717F04BF9002868671FD069A10160A14F4760866005F18C03CF
:200F5C00C36016D067A101619D49416111D06AA28261C1610DD06DA101629A4F476208D0D0
:200F7C00866205F13C01C16203D06DA10163964F47636EA0C5F88C000427C5F8947005F10A
:200F9C00640205924FF0FF33C5F890302020C5F8982017F016F90746002FC5F89C700FD05B
:200FBC0065A038608948786066A1B960F86007D067A1396169A2786107F118031A60F86114
:200FDC0069A0E86305236B644FF0FF322A642820AD6417F0F6F80028E86414D00799016005
:200FFC007B4A426066A38360C2600CD066A101614346426100F118010B6000F12001C26145
:20101C0064A30B60426217F005FD13F03BFA5FEA000900F0EC8005E0742800206166010046
:20103C007D7A0100D6E0C04653696D706C652043656E7472616C00C0446973636F7665728E
:20105C00204465766963657300C046C053746F7020446973636F766572696E6700C046C0C2
:20107C0043616E63656C20436F6E6E656374696E6700C046536574205363616E6E696E6763
:20109C002050485900C046C031204D62707300C0436F64656400C046536574204175746FF0
:2010BC00436F6E6E6563740044697361626C650047726F757020410047726F7570204200B9
:2010DC00436F6E6E65637420746F00C0576F726B207769746800C04647415454205265617A
:2010FC006400C046537461727420525353492052656164696E6700C053746F7020525353A3
:20111C00492052656164696E6700C046436F6E6E656374696F6E2055706461746500C046F1
:20113C00446973636F6E6E65637400C04741545420577269746500C05772697465203078DB
:20115C00303000C05772697465203078353500C05772697465203078414100C0577269749B
:20117C0065203078464600C053657420436F6E6E2050485920507265666572656E636500D0
:20119C0032204D62707300C03120262032204D62707300C03120262032204D6270732C208D
:2011BC002620436F64656400697A010059270100A9AE00006915010035110100F94A010028
:2011DC00AD10010039D400000D710100710D0100112B010015F0F2FC3746D64C069006209F
:2011FC0034F80C3F2BB1401E07F10107F8D117F010F84FF6F878A4F80080C4F80490A66023
:20121C00D24CD9F8040060610698277016F0FAFA04F148073146384617F0F8FB08F1070894
:20123C0004F1B800A761082720F8108F7F1EC660FAD1CE4F07F1180007F10C010EF080F9C0
:20125C00CB49B86016F090FEDFF82893B8684FF4E0214A46521E14F087FBB8684FF4E021D2
:20127C004A4614F081FBDFF81093B8684FF0C0514A46521E14F078FBB8684FF0C0514A46E1
:20129C0014F072FBB146C8223346CB49CDF8009007F1240013F0DAF9CD48CE4ECE4915238C
:2012BC004A46786006F10C000090102008F054F944F26827FB201B224FF4A473CB49009087
:2012DC001020019708F048F9C949102008F044F92178502015F0F8FAC6490246102008F0FB
:2012FC003BF9C54910204FF0FF3208F035F9CC4910204FF0FF3208F02FF92178502015F0E7
:20131C00E3FAC9490246102008F026F94FF480600121324606F096F8721C40F202400121CE
:20133C0006F090F8B21C40F20340012106F08AF8F21C40F20640012106F084F8321D40F29B
:20135C001140012106F07EF8721D40F20D40012106F078F8B21D40F21240012106F072F827
:20137C00F21D40F20C40012106F06CF806F108024FF48360012106F065F806F1090240F278
:20139C000F40012106F05EF806F10A0240F20740012106F057F80B3640F214400121324630
:2013BC0006F050F8B44904F14002102008F0D4F8C2494A461020134608F0CEF821785020C0
:2013DC0015F082FABE490246102008F0C5F82178502015F079FACDF800B003460822B949D1
:2013FC00CDF80490102008F0B7F84FF0FF30494612F0E4F8206149464FF0FF32284615F0D3
:20141C008FFB2069DFF8C0B258B1AF684FB1594657460861AD4E0F702846CE6014F0A0FBDA
:20143C0020695D4629784A46AAA315F0D0F941F2054B606949464FF040424FF0FF3317F004
:20145C00E1FA5FEA0008F4D0CDF8089003A804A902AA12F083F8002840F017819DF80C0011
:20147C000DF10E0114F0D8FD002840F00B81BDF80E00ADF80C0015F043FFBDF80C001028D2
:20149C0040F0FE8020789DF81010884240F0F880029801884FF6FF728A4200F0F180017844
:2014BC0091396BD01F3903D0203900F0E780E7E04288874906460123102008F04DF80028CA
:2014DC004DD002992A7820694B78162B02F101023ED00B790B2B2FD0012B02D1097A0A2997
:2014FC002AD03179132915D0012902D1337A122B10D07E290BD07F2906D0E778002F2ED0B8
:20151C0030460AF0BBFD2AE0318978A322E0317A7AA31FE0012919BF21797CA3317B80A355
:20153C000091D1B24A4615F052F9059814F018FB15E0C0462C1900203179012903D0F16887
:20155C0009787BA306E0317B7EA303E0E00F0020317980A30091D1B24A4615F038F93179DA
:20157C0006F1080017F076FA8AE0C046D41A0020FD5701000E0005800E00001041780E3955
:20159C005BD0491E3AD0491E70D02E3978D181780C2975D1C7780FBBC17901290ED0022952
:2015BC0008BFDFF894A20BD003290CBF0FF2B81A0FF2BC1A04E0C04679790100DDF81CA051
:2015DC002F782669808815F0A3FD6FA344E0C046B1800100CC1C0020A12E01002F78266990
:2015FC00808815F095FD6EA3009038E00D3D0210397F0110F16C0210216C010081882669BD
:20161C002F78A1F20643002B3AD041F62C415B1A0CD180781A2805D0009067A37F1C1FE0BD
:20163C00AD6F01006BA3F9E72D6D021081880091807874A3FF1C019012E081888B451FD1C7
:20165C0081682F7826698A78487891F903A000EB022015F05DFD74A30090CDF804A0BF1C09
:20167C00F9B230464A4615F0B2F809E00820494609F052FD04E0C046D56C010000F0DEF814
:20169C00029810B1029816F061FD5FEAD870FFF4D0AEA069064617F0B1F9864208BF4E46AA
:2016BC0002D0866814F01CFB002E3FF4C2AE304601F0B2FD304614F013FBEAE7111C0210B4
:2016DC00D96C0210C1B90000681D00205DBE0000D54D02103D3D3D3D3D3D3D3D3D3D3D3D4D
:2016FC003D3D3D3D3D3D3D3D00C046C04D54552053697A653A20256400C046C046432056C7
:20171C00696F6C617465643A2025640057726974652073656E743A2030782530327800C042
:20173C005772697465204572726F7220256400C052656164207273703A20307825303278FD
:20175C0000C046C052656164204572726F7220256400C046415454205273702064726F703F
:20177C0070656420256400C0434F44454400C046556E6578706563746564205048592056AA
:20179C00616C756500C046C025733A20504859207570646174656420746F20257300C04615
:2017BC0025733A20504859206368616E6765206661696C75726500C0504859205570646141
:2017DC007465205374617475733A2030782530327800C046504859204368616E676520668C
:2017FC0061696C7572652C207065657220646F6573206E6F7420737570706F7274207468DE
:20181C00697300C0556E6B6E6F776E20436D64205374617475733A203078253034783A3AD1
:20183C0030782530327800C025733A20525353492025642064426D009C1100002DE9F04F14
:20185C000646AF4CDFF8BC92DFF8BCA2B178A079ADF12C0D002900F00F82491F00F0198116
:20187C00491E00F08480491E56D00A3935D0091F40F0A682216AE0B1002908BFE0790CD05B
:20189C0004F1380015F061FE206A14F029FA0021E0792162401EC0B2E07100904F463978F6
:2018BC0020690022CEA30831C9B214F090FF0DF09DFE607800280CBF4B266B264F463978FE
:2018DC0020690022D2A3C91CC9B214F080FF50463146F24315F024F972E2B77BF5888DF8FD
:2018FC0012707289ADF80A50B088ADF80E203389ADF80800AF49B789ADF80C30012502AAF1
:20191C00ADF8107010208DF8135007F025FEA079002840F04C8153E2D649B288102002ABAB
:20193C0007F01AFEF0B94F46F07825693F787F1C58B90DF10A0012F0EBFB0090BDF81C1084
:20195C00BAA3480000EBC10006E00DF10A0012F0DFFBB1780091BCA30190F9B2002228466B
:20197C0014F035FFA079002840F0218128E2B7884FF0430BE8B104F13800804616F037FC65
:20199C00061C16D04FF6FF75308A87420CD14046314615F0DAFD4046314615F075FFB07C8F
:2019BC0000F0FE00B0743582304616F022FC061CEAD1384612F002F9617804F1C8054FF670
:2019DC00FF7C08220020A5F1100333F8106FB74204D0521E00F10100F7D104E0491EA3F8F6
:2019FC0000C0C9B261700646A07908B10DF0FEFD082E01DB16F0A0F905EB0610801C12F054
:201A1C0087FB00904D46099029782069002294A3C91CC9B214F0DBFE60780090297820691A
:201A3C000022D9A3091DC9B214F0D1FE564694F80180D6F81C904FF0010A0025A94512D80E
:201A5C00B8F1000F18BF4FF0630B30466FEA0B02594615F065F82089B84240F0B1813046D6
:201A7C0014F07EF8ACE1706A099950F835000F2215F08EF950B906F114000AFA05F100225D
:201A9C0015F04EF894F80180D6F81C906D1CEDB2D4E77589311D361DD0B1276AC7B1226AC0
:201ABC00084608321146062215F00AFD216A04F13807384615F049FD216A384615F0EFFE74
:201ADC00216A887C40F0010088740D820027276294F801C0B6464FF0000804F1C802082375
:201AFC004FF6FF768DF82380A2F11000414630F8107FBE420AD05B1E01F10101F7D110E008
:201B1C00E00F0020681D00207428002005807646801C3368B78803600CF101058780E8B27B
:201B3C006070082901DB16F007F902EB011080F80880801C12F0ECFA4F468346CDF800B051
:201B5C00397820694246A0A3C91CC9B214F03FFE607800903978206942468BA3091DC9B2CA
:201B7C0014F035FE60780828B4BF4FF01C094FF01F095646F76945464FF0010AAF421BD817
:201B9C006FEA090130464A4614F0CAFF9C4910204FF480620DF1230307F0DEFCA079002883
:201BBC0000F00E819DF82300022800F009810DF01DFD05E1D9570110706A50F835005946FA
:201BDC000F2215F0E5F838B906F114000AFA05F2414614F0A5FFF7696D1CEDB2CEE7C0466D
:201BFC004175746F436F6E6E6563743A204E756D626572206F66206D656D6265727320691A
:201C1C006E207468652067726F757020256400C0436F6E6E6574696E6720617474656D70D3
:201C3C00742063616E63656C6C656400557064617465643A2025732C20636F6E6E54696D7C
:201C5C00656F75743A256400557064617465204661696C656420307825683A20257300C019
:201C7C00257320697320646973636F6E6E656374656400C0F9DC01106249634A1020002350
:201C9C0007F06AFC614910204FF4860207F064FC4FF448700122002300905D490190102097
:201CBC0007F05AFCDFF86CB106271020002208ABADF82070594607F04FFC012510200DF12B
:201CDC0022038DF822502A46594607F045FCA84610200DF122038DF822803A46594607F007
:201CFC003BFC40F60200032208ABADF820005946102007F031FC502710200223464D0097D3
:201D1C004246294607F028FC1020032300974246294607F021FCB08843210022E0815046E8
:201D3C0014F0FEFE4F463978206900222AA3C91CC9B214F04CFD6078009039782069002258
:201D5C0011A3091DC9B214F042FDD4F810903D78B01D12F0DDF96D1D25A10091002221A342
:201D7C000190E9B2484614F032FD002016F042FE026804F131010A608088888026693D78A5
:201D9C0004F1310007E0C0464E756D20436F6E6E733A2025640012F0BBF9AD1D00900022AE
:201DBC0014A3E9B2304614F012FD092040F6B83243461A49009004F1540012F047FCFFE7F3
:201DDC000BB0BDE8F08FC046436F6E6E656374656420746F20257300496E697469616C6981
:201DFC007A656400257320416464723A20257300494400C0525020416464723A20257300E3
:201E1C0061DE0000896102109D5E0100C5690110F5F9011095390110D5F40110B561010061
:201E3C002DE9F84FDFF8A055696884B0019121B905B0BDE8F04F16F0D9BD0978DFF88C656E
:201E5C00DFF88C7501291CBF0229042946F2A81A40F6C41941F64C5805D0402918BF80298B
:201E7C0000F05681A7E216F079F80028FAD00198007809F0C3FE009016F0B4FDDFF854153B
:201E9C0004464878002800F0C78005F09DF815F08DFD8246002CDAF8000001900146D1F83D
:201EBC0004B003D000980CF017FF022800F0878000990A78012A04D0022A0CD0042A41D053
:201EDC0079E218B916F08AFD4044A0600120A87011213970F4E005223A70C8B916F07EFDEE
:201EFC008044DFF8F4246069C4F808801368DE69DFF8E8341978B21D01EB8101525ADFF800
:201F1C00D81409FB0289C0F820900A68A06810616069C17F01F0EF01C1776069C17F41F07B
:201F3C008001C1776069C17F01F0F00141F00201C177DBF808206169DFF8A40482184A62EB
:201F5C00022199E006223A70C8B916F047FD8044DFF890246069C4F8088013685E69DFF8B7
:201F7C008834197806F10C020901525ADFF8741409FB0289C0F820900A68A068D060DFF866
:201F9C0064040168087C0EF039FB6069C17F01F0EF01C1776069C17F41F08001C1776069C0
:201FBC00C17F01F0F00141F00201C177DBF808206169DFF82C0482184A6204215CE001986B
:201FDC00017880290CD10820DFF8201438700A78DBF81400012A1ABF716A0978012113E02D
:201FFC00072038709AF8060015F05EFE0446207BC10700F1AD80DFF8F4030178DBF8140004
:20201C0001291CBF716A4978C1729AF80600DFF8C41388700198C9E1009800281AD001990B
:20203C00009A0078DFF8BC6391420DD1012804D0022845D0042866D002E0002C40D1C0E16D
:20205C00002014F015FB3BE0012804D0022815D0042837D0AFE1002CF1D016F0BFFC014651
:20207C00A068514416F0B6FC18B916F0B7FC4044A060112038700121A97021E005203870FF
:20209C000221A97016F0AAFC0146A068514416F0A1FCA8B916F0A2FC8044CF4A6069C4F84E
:2020BC0008801368DD69CD4B1978AE1D01EB8101755A09FB0589C0F820901168A068086126
:2020DC00009873E1062038700421A97016F086FC0146A068514416F07DFCA0B916F07EFC28
:2020FC008044C4F8088032685369BF4A6069117803F10C0509016B5A09FB0389C0F820903F
:20211C003168A068C8603068007C0EF077FAD7E7B0494878002800F0E18004F055FF15F01A
:20213C0045FC8246DAF800000290D0F804B0A948807815F03BFC039001980178402913D183
:20215C009AF8060015F0B0FD0446207BC1070BD59AF8060015F02AFC052116F037FC207BCF
:20217C0000F0FE0020732CE115F0F2FE10F0070F0CD0A87809F042FD009016F033FC0400AD
:20219C0004D0029900980CF0A7FD022800F0828000990A78012A04D0022A0BD0042A3CD005
:2021BC0075E018B916F01AFC4044A06011203870012169E005213970B0B916F00FFC8044EC
:2021DC00854A6069C4F808801368DE69834B1978B21D01EB8101525A7F4909FB0289C0F8EE
:2021FC0020900A68A06810616069C17F01F0EF01C1776069C17F41F08001C1776069C17F0A
:20221C0001F0F00141F00201C177DBF808206169734882184A62022136E006213970B0B91C
:20223C0016F0DCFB80446F4A6069C4F8088013685E696D4B197806F10C020901525A694923
:20225C0009FB0289C0F820900A68A068D06065480168087C0EF0D2F96069C17F01F0EF0174
:20227C00C1776069C17F41F08001C1776069C17F01F0F00141F00201C177DBF808206169FB
:20229C00574882184A6204210098A9708EE0002014F0EEF9039850451ED0029953480A7818
:2022BC00802A0AD10821397000780128DBF814001ABF716A0978012109E007223A70007898
:2022DC000128DBF814000EBF0121716A4978C1729AF806003F498870029867E015F038FEE0
:2022FC0010F0070F6DD0A87809F088FC064616F079FB04463078012804D002280DD00428EA
:20231C002DD05EE0002C5CD016F068FB4044A060012111203870A97047E00520387016F013
:20233C005DFB0146A068514416F054FBA8B916F055FB8044284A6069C4F808801368DB6937
:20235C009F1D264B1B7803EB8303FB5A09FB0389C0F820901168A0680861022024E00620AA
:20237C00387016F03BFB0146A0681E4F514416F031FBA0B916F032FB8044C4F808803A68A4
:20239C005369194A6069127803F10C0112018B5A09FB0389C0F820903968A068C86038684D
:2023BC00007C0EF02BF90420A870304605B0BDE8F04F0CF0D5B805B0BDE8F04F002014F0D2
:2023DC0057B905B0BDE8F08F2C2E0020DCBD0100C80F0020780E0020500F0020D80F0020C1
:2023FC00F0D8FFFF540F0020D90F0020CC0F00202DE9F84FDFF8B454A9780024FF2904BF09
:20241C00002014F035F9A87815F0D0FA054605F1680605F5C9773168086805F1900808B126
:20243C00EC8311E0B07B002804BFB07E00280BD198F80010002904BF3878002804D1287FF8
:20245C00012804BF688CE8832989E88B4118491C6981284616F0B6FA01281EBFDFF85004F3
:20247C000178012903D12989EC83491C69814FF6FF79B07E01280DD1B28B6989288916F081
:20249C009DFA38B1298968894A1C93B298422FD0B08B23E098F8000001280FD1B8F80220D0
:2024BC006989288916F08AFA40B1298968894A1C93B298421CD0B8F802000FE03878012854
:2024DC0016D17A886989288916F078FA80B1298968894A1C93B298420AD0788892B2904293
:2024FC0006D04844688180B216F064FA4844E883387801280ED128897988401C80B2884226
:20251C0008DB7C793C71002038702346A97922460BF000FD05F59A71087920B1288900213E
:20253C00401CE983688105F12E08B07E012845D12A89B08B521C92B290423FD1688105F1D4
:20255C008601284616F032FAB08C688400212977E983E88969894118A981B08B298916F00A
:20257C0029FA8146B8F80410308C728C01FB0909F08C8A4204BFB8F80810884202BFB38C2C
:20259C00B8F806108B4207D000090090B38CA9795208002016F006FAB07F88F80000718C8F
:2025BC00A8F80410B08CA8F806002846F18CA8F8081016F0F3F90220B07601E0B8F8049067
:2025DC00EA8BDFF8F0C2501C00FB09F040F6C41909FB00F100912B68D3F80CE07144D960B0
:2025FC00DCF800E0B4499EF800A00B884FEA9A1ABAF1030F17D1DFF8C4C29CF80FE05FEA8A
:20261C00CE7C48BF00230ED45B1C1FFA83FCBCF1010F11BFB5F812C005F59A7EBEF806C09F
:20263C000CF2DC5C01E0B5F812C00CFB00FC4FF4C87EBCFBFEFC0CF1010CC5F814C00B8085
:20265C00A86185F820204FF01C0BDFF874A2AB79DAF8000000F108021BFB03F3D1582A688D
:20267C00116100F10801AB79D26868691BFB03F3121ACA50DAF80000AB7900F108021BFB4A
:20269C0003F3D1582A68916000F10C02A9791BFB01F10C30535C03F0F00343F002034354B3
:2026BC00DAF80010AB798A1C1BFB03F30021D152387908B913F0DCFFDAF80000AA7900F1CC
:2026DC00100138791BFB02F240088854A879DAF800101BFB00F008440021417438790428E6
:2026FC0014D1A879DAF800101BFB00F001F110021031135C3A7A43EA82030B54AA79DAF862
:20271C0000001BFB02F2024420205074DAF80010A87901F112021BFB00F000211152694904
:20273C00A8790A6802F114034FEA401C143253F80C00AB79D5F814C05B0100EB4C00D05036
:20275C00B07E02280DD10A68AE7902F11403760114329859AB7998F800605B0119FB06004C
:20277C00D0505648C27BD0075CD5DAF80000AC7900F108031BFB04F408301A59AB791BFB54
:20279C0003F3A2F5A862C250DAF80000AC7900F108031BFB04F41A592B689A600098121AAF
:2027BC001A610868AC7900F11403640114301A59AB795B0102F5F662C250387904280BD12F
:2027DC000868AC7900F11403640114301A59AB795B0102F56162C2500868AB7900F114023D
:2027FC005B01D058C5F834016427374A0B68106BAE79006803F11C04B8F804304343B3FB92
:20281C00F7F7760109FB07F0A0F59660A0512F480378012B30D10868A97900EB41120120B0
:20283C00D07230E0042C0BD10868AC7900F11403640114301A59AB795B0102F56162C25019
:20285C0038790A68AC7904280CBF4FF4AA504FF4E66002F1140364011A59101AB8F8042077
:20287C0009FB02F2A2F516729042BDD30821284616F0ACF8012016E0506A0968AA79407865
:20289C0001EB4213D872A879DAF800102A681BFB00FB01EB0B00506007210D4801702846E8
:2028BC0011F0B0FC0020BDE8F28F00BF780E0020D10F00203C0F0020E42E0020980C002043
:2028DC00980E00209C0E0020DCBD0100CC0F0020C80F00202DE9F04FCA4C05462078ADF1D4
:2028FC005C0D032840F045824FF0000B6846182284F800B0082384F801B0594615F09AFB42
:20291C006846594613F020FD20612E22594604F130000FF09DF804F130008146FF210A22CD
:20293C000C300FF095F813F0C7FD2946584611F091FF04F11801E06015F09DFB206AE1698F
:20295C00B1FBF0F2D7B284F83070022FC4BF022784F83070E770B0F5005F04D1E068B1EB1B
:20297C00473F00D310B90120207004E2FF2184F83310D846CDF828805E460B960C960D968E
:20299C000E960F9613960A46109211921292149215924FF40055E58659461691B74200F36E
:2029BC000B81139E002E3AD10F9E002E28D1B8F1020F25DA0E98022822DA0B9802281FDA66
:2029DC000A9887421FD00E9E9EB9B8F1000F0ED10D9E0C9806430FD15D46AF4213DD28467D
:2029FC000BF082FE6D1CEDB2E7786070F5E7012016E0B8F1000F01D1032011E002200FE047
:202A1C005D46AF4201DC58460AE028460BF06CFE6178E7786D1CEDB201436170F1E705205C
:202A3C000028A07000F0B180401E70D0401E00F09280401E1DD0801E40F09C811498FF281A
:202A5C0004BF1598149084F8330094F833200C2684F83120D019401E90FBF7F17943401AE9
:202A7C0084F8320012FB0690808BE08607F07AFD87E0002F08BF5D460BD009F10C013846AA
:202A9C005D4611F80C2FFE2A03D0401E05F10105F7D1AF423ADD0C2084F83C5015FB00903A
:202ABC00817E84F83D10C07E84F83E000AF0E6FAE2782D1895FBF2F050432D1AE8B284F85F
:202ADC003200401C90FBF2F15143401A84F831007C2012F0BDFEFF2810D17E2012F0B8FE8C
:202AFC00FF280BD1FF2012F0B3FEFF2806D1782012F0AEFEFF2808BF94F8310084F8330047
:202B1C000C2110FB0190808BE0864FE0FEE71098129E84F83200FF2E00F1010090FBF7F1B3
:202B3C0001FB07F1A0EB0100C1B284F8311008D11198FF2804D10C20129111FB009005E0FB
:202B5C0012901299880000EBC100484484F83310808BE0860EE1DDF8408008F1010084F822
:202B7C00328090FBF7F17943401A84F831005FFA88F00BF0B9FD6070FE215FFA88F013F00C
:202B9C006FFC584603F01AF8F4E084F831B0781E594684F832000C2684F833B011FB0690C4
:202BBC00808B7E21E086584613F05AFC94F83200FE2113F055FCDDE00C2116FB019706AA7E
:202BDC000423710315F05CFA069807F11605010EB1F1960A18D1C0F38541C0F3014040EA61
:202BFC008100022810D187F819B09DF818002870FF223A769DF81930FB7530460FF0DEFE30
:202C1C00B88373E0801900203046594607AA14F09FF93046012108AA14F09AF93046022175
:202C3C0009AA14F095F9DDF818C00CF0FF010CF0FF00FF2909D0FE2907D07E2905D07C296F
:202C5C0003D0782918BF702909D15FEA0B0706D1CCF38541032908BFBAF1000F1ED03046D2
:202C7C000BF042FD0746002FE06867703FD1710306AA042315F004FA3046594607AA14F03B
:202C9C0067F93046012108AA14F062F93046022109AA14F05DF9069800F0FF0028709DF8AF
:202CBC001900069F6870C7F30140E8709DF81E30AB702978FF290BD0BDF81C00FE2907D09E
:202CDC004FF6FF71814204D130460FF077FE00E01020E8809DF822002871BDF820702F81E4
:202CFC009DF826306B71BDF824206A81E0682978FF2936D0FE292ED07E2926D07C291ED0A1
:202D1C00782917D0702910D0A52908D0242904D00F99491CC9B20F9127E0159600E014966B
:202D3C001399491CC9B213911FE00E99491CC9B20E911AE00D99491CC9B20D9115E00C996A
:202D5C001296491CC9B20C910FE00B991196491CC9B20B9109E008F1010710965FFA87F814
:202D7C0003E00A99491CC9B20A91E778761CF6B214E66070607817B0BDE8F08F2DE9FC47B7
:202D9C00D34C0F460546F80B80F0FC816078DFF84483B90F80F0A081B90880F09081F90A54
:202DBC0080F0FA80390B80F0C580380907D2F80FC0F01E8227F0804710F0FAF818E215F0D4
:202DDC00F8F9814614F064F9002800F0AD80082015F0DCF8002840F0A780802015F0D6F886
:202DFC00002840F0A18068460DF014F9012803D10098002800F0988000250126E8B214F0D7
:202E1C001BFE48B1837A3BB1867290F9090006FA00F0C0B212F0E0FD6D1C032DEED3032033
:202E3C00207604F1D40015F0C0F9484615F0B2FDD14800252A460168056050F8081CCF4917
:202E5C0040F8085C04F13C0014F062F840460068006B8047A168401A010B206AC1F1FF322F
:202E7C0082422CBF08444FF0FF30206294F8240020B12069216AB1EBC02F25D914F018F918
:202E9C00294600B13146081C1BD0BD4840F6090101804580417B06F00F0221F00F010A43B4
:202EBC004273017B05F00F0321F00F0143EA010202732946416014F02FFF418811F4406F39
:202EDC00FBD084F82460256211F07CFCCC4829460560022013F0CCFE022013F02DF91120B8
:202EFC000BF014FA207818B96068483015F073F9C448007810B90E200BF008FA94F825006A
:202F1C0020B184F82550052013F016F9BE48E0612576B4F9AC00B4F9AE10884214BF022037
:202F3C0007200EF08FFA02E0484615F033FD27F0080741E720B1042013F0FEF800206070F6
:202F5C00656812F02DFD38B12846ED696FF4807100224FF00073A847E06858B14046006859
:202F7C00006B8047E2686168801AC860000BC8600026E660A54904F13C00002213F0C8FF84
:202F9C000221D4F89800217618B104F5907015F038F927F400670FE715F00BF9064614F02E
:202FBC0077F8D4F890100028894600F0828000297FD09749042504F13C000022257613F0BF
:202FDC00A7FF304615F0E6FC04F1D40015F0EDF840460068006B8047E0604FF0010884F8FB
:202FFC000180284613F0C0F8D9F810006060D9F81000416AC90803D3036A2946002298475A
:20301C00404610F01BFA606880F81580606807F053FB6568D5F808A040F60A02D01F564608
:20303C0000F1010C00E01E46736833B119888A4203D0884218BF8C45F5D100217160727B1C
:20305C0008F00F0322F00F0213437373D9F80C201288904224D06046904221D02B8E03B3B6
:20307C00696305F13002518095F83C0001F00F0320F00F00034385F83C3095F83D0008F093
:20309C000F0320F00F00034385F83D307260707B01F00F0520F00F0045EA0001717300E0DE
:2030BC00E160504614F038FE5146404613F0E0FD02E0304615F06EFC27F4806798E008F0AD
:2030DC002FFED4F8980008B927F0020790E0C046001F00208C0100104E4A116841F080014D
:2030FC00116020B1042013F027F80020607015F060F88246D8F85400016804208847D0B116
:20311C00287DC0B1A068B0B18146D8F800002E69006B8047A0EB09002861000B2861B04211
:20313C0002D280194008286140F6C41181422CBFB0F5967F2961504615F02CFC12F030FC47
:20315C0080B1EE6928466FF4807100224FF00073B047D4F89000002808BF47F0020701D0E2
:20317C000FF026FF2846AD6900214FF080630A46A84727F000573BE014100440813B01005B
:20319C00E82D002015F015F8D4F8A86066B306F1280106C90A234FF0E0450B40154008BFF8
:2031BC00002B21D106F1280191E8000306F1280595E8060006F1280322EA090221EA080146
:2031DC0083E8060015F0E6FBB16879B1B9F1000F08BFB8F1000F09D03069B6F93010B56883
:2031FC004B464246A84701E015F0D4FB27F4804727B104F59070394615F003F8BDE8FC879C
:20321C0000000460FABB0100A9CF0000F5C800008D700100CC2108402DE9F0478046C44CED
:20323C00C44DDFF814A3B8F80010A079D4F810902E78ADF1200D491E092900F2A281DFE8A8
:20325C0011F023019201A8004F007D013A006F0128000A006301002015F0CCFB26692D78C5
:20327C00313407460622214613F092FD002800F08881384610F04CFFAD1D00900022C8A38E
:20329C00E9B2304613F0A3FA38682060BD88A58077E1D8F80450BF4C687A38B1761C00945F
:2032BC0048460022C1A3F1B213F091FA0094BA49EA88002353E198F80200C8340001215A43
:2032DC00255A4FF6FF728A4200F05B810019C06814F09DFFB14910202A4606F03DF950E12D
:2032FC00D8F80470002842D0E079082800F01381B86904F11C01042214F0E2F8002833D0C5
:20331C0004F13800814614F06EFF061C0FD007F1020A06F108005146062214F0D1F828B9BB
:20333C00304614F062FF061CF3D100E0E6B9142014F047FF061C03D12978A0A308311BE1A4
:20335C0006F10800B91C062214F094FB787800234FF6FF72B0733146B3744846328214F0F2
:20337C0093FAE079401CE0712E78D4F81090B81C10F0CEFEF61C0090002298A3F1B24846BC
:20339C0013F025FAB869002800F0FB8012F0A8FCF7E0E179002857D1D8F804004578F61C71
:2033BC00002292A3F1B24846009513F010FA002D14BF0B210321607808B141F0200104226E
:2033DC00504613F0ADFB606A10B1606A12F088FCC5EB051014F0F5FE606200B900255646BD
:2033FC000028F56100F0CD800746002D08BF00241DD0DFF8A892002410204946224601AB9C
:20341C0006F0AAF80DF1060010F082FE01460F2238460CF04DFE706A6D1E40F8347007F1FE
:20343C000F0704F10104E7D1082C80F2AA801436012505FA04F23046002113F071FB641CED
:20345C00E4B2082CF5DB9CE008294FF043050DDB00910836484600226AA3F1B213F0B7F9B8
:20347C000CF0C4F8607800B1632507E000910836484600226FA3F1B213F0A9F929465046A2
:20349C00042213F04DFB59E098F80200010921D2400976D30E2014F093FA002871D16A684A
:2034BC00A8689168814213D0B0F1FF3F69D0116951F830702FB901EBC001486812F050FB34
:2034DC005FE0116901EBC0014968C0B2884758E0D068F3E70D2014F073FA002851D1696875
:2034FC00A8688968814208D0B0F1FF3F09D0401C12F01AFBB0F1FF3F02D1002012F014FB06
:20351C00A86009F051FC3CE0B61C4846002259A3F1B213F05CF96049102006F01DF830E0B8
:20353C0098F80200D8F8041005F0F4FB29E0C046E00F0020681D0020742800200020A08155
:20355C0060810127E770E0892178001FADF80400502013F0B9F900905149228901AB10204F
:20357C0005F0FAFF0DE0504604216FF0040213F0D7FA297844A3C91C2069C9B2002213F0CA
:20359C0026F9D8F8040008B112F0AAFB08B0BDE8F087C04640E20100D15E01000D2B021045
:2035BC00525020416464723A2025730050617373636F64653A20256400C046C04175746F4C
:2035DC00436F6E6E6563743A20416C6C6F636174696F6E206661696C65642100446973637C
:2035FC006F76657265643A20257300C02564206465766963657320646973636F7665726508
:20361C006400C0464175746F436F6E6E6563743A204E756D626572206F66206D656D6265E3
:20363C00727320696E207468652067726F757020256400C04175746F436F6E6E6563743ADE
:20365C00204E6F7420616C6C206D656D6265727320666F756E642C206F6E6C792025642086
:20367C006D656D62657273207765726520666F756E6400C0496E73756666696369656E748D
:20369C00204D656D6F727900446973636F766572696E672E2E2E00C0792202104597011014
:2036BC00ED0702102DE9F04F0F46780689B027D5DFF8F8231078002115F068F904001FD097
:2036DC00DFF8EC0301688847054614F015FB6168884204BF40F2014015F054F900202072A4
:2036FC00201D0CF0D5FFDFF8CC130A6828469047204611F0B3FEFF223C21204615F03EF9FC
:20371C00B80604D50BF018FE87F02000CAE1F8070CD514F0F1FA30B100218160DFF898037F
:20373C00006800B1804787F00100BBE1380704D506F0A2FB87F00800B4E1F8060FD50021B7
:20375C00002200230691059204910393029101920091022015F00EF987F01000A2E1B80701
:20377C000FD500210023069105910491039302910191009101223C2015F0FCF887F0020006
:20379C0090E179074FF01E08CC4EDFF834A340F1CF80CC480022002108920791007815F069
:2037BC00F5F80446C8488178FF2904BF002012F05FFFA07A14F0FAF805469AF8000095F8C8
:2037DC002E91002805F5947B69D0606D807A022818BF032807D130680D3015F0C7F810B977
:2037FC003068C11D07915946484615F0BBF8A0B3606D807C3368002818BF012804D11946A7
:20381C00584615F0ABF804E05A464946184615F041F9FF2843D018FB00F83068404406220D
:20383C005946C01D14F026F9306810F80810404400F1010BC01D41F0020908900622616DED
:20385C00C87A00F0010085F82E01606D00F10C0105F5947014F00EF921E05946484615F066
:20387C0079F8E0B130685A46494615F013F9FF2815D018FB00F8306840440D3015F076F86F
:20389C0058B9306840440D3015F070F8002801BF30684044417F012901D149F0020905F13B
:2038BC002C004B46017806914289120905920122698C0491C0880899029140080390CDF8D9
:2038DC0000B0079801900020A97915F053F8D5F89C017E498842A8790CBF0021012115F02B
:2038FC0035F87B49AB790A6838204343134401225A70AB790C68434323449A70AB790C68DC
:20391C0043432344DA700C68AA79231D424301249C54AA79096810FB02F008440021417133
:20393C000122A97907200DF0B3F887F00400B9E038060FD500210023069105910491039385
:20395C0002910191009101223B2015F013F887F08000A7E0F8045DD55E4930680C680D306B
:20397C0015F004F8002844D13068C11D0D3014F0E9FF3EE0606D4178480704F13E0526D528
:20399C00287802281EBF03286878012830D16978306804F1380215F07DF88146B9F1FF0F8E
:2039BC0015D0306818FB09F948440D3014F0DEFF68B930684844C11D0D3014F0C3FF3068F1
:2039DC004844C11D062204F1380014F053F82878022818BF03280BD130680D3014F0C6FF77
:2039FC0030B93068C11D062204F1300014F042F82468002CBED13848DAF8042000784FF449
:203A1C00805111F00BFA10B18E2014F097FF87F4805047E0B80505D514F06AFA2F490120A0
:203A3C000860FEE7780504D50BF0D9FF87F4806038E0780405D5812014F080FF87F48040CC
:203A5C0030E0B9042DD5264C206810B1002012F00FFE4FF0FF3020600020224C0EF0E6F839
:203A7C00216851F8202F684690471F494A6B086BC96A24681D4B019200900293ADF8101050
:203A9C006B461B4A1B491C4803921C4A079225681B4AA8471B49086004F076FF87F40050B7
:203ABC0000E0002009B0BDE8F08F00BFD50F0020E8180020EC180020480F0020680F0020F8
:203ADC00880E0020D70F0020780E00204DE50110682E00204C0F0020C70F00207C0520431A
:203AFC00380F0020200F0020E0190020F57C0100057D01008C1D0020280800201EFB008034
:203B1C00EC0A00201C0F00202DE9FE4307460025B978DFF8346410293CD8DFE811F0110099
:203B3C0002020202020202023C0048000202020265018E007900B60102023B017C01FA01F1
:203B5C007878002826D114F0F5FE044614F0EEFE064614F0E7FE8DF8000022461021022094
:203B7C0012F07AFF32461021032012F075FF6A460121042012F070FF9DF80000012818BF70
:203B9C00032807D1012014F035FF02460621062012F062FFC5E178780028FBD1F8783B7B05
:203BBC007A89391D00F00100FCF7AAFAB9E1B888FDF78CF814F0B2FE0028F7D1307C01283D
:203BDC0008D1FCF73EFDF06935740422002113F05BFF17E0707C012803D1FCF7D3FD757490
:203BFC0010E000240AE0F069E7B2C15D012904D1E0B2FCF737FDF169CD55641CE0B2B1792B
:203C1C008842F0D3502013F0B3FAFCF7C5FC88E114F080FE00280CD0706900281CBF0468F0
:203C3C00002C07D0386900907B7B3A7B7989F81CA04775E17889012168E17878002400288E
:203C5C0040F09180B879C10740F18D800822002101A813F019FFB88814F018FF04005ED034
:203C7C007D69002D00F065810622002105F1110013F00BFB00B306220021284613F005FB79
:203C9C00002818D1287C00F001084FF0000909F1010985F811900020009000230022414674
:203CBC0005F111000BF076F800285FFA89F040F03B810028EBD13AE17D69EDB1287C00F07B
:203CDC0001008DF80A00062205F1110101A813F0D1FE6079012805D10622A11D04F10C00CE
:203CFC0013F0C8FE062205F11101A01D13F0C2FE287C40F002006071B879410720794CBF6B
:203D1C0040F0020000F0FD002071B879010720794CBF40F0200000F0DF00207106E0FCF771
:203D3C00F7FF18B1307804210AF0C0F9B9799DF80B00890801F0010108438DF80B00B979C5
:203D5C000A074CBF0821002108438DF80B00394601A8FCF70CFB0400B88802D1FCF768FF73
:203D7C0001E0FCF7B3FF706900281CBF4368002B0FD07A78B888012198477878002808D1EC
:203D9C00B879C10705D57369B88822465C680321A047C5E0787806281BD1B88814F076FE7A
:203DBC00B8B1B17B012904D013D3032907D00CD30FE04179B8880022FCF7FFFE09E0002286
:203DDC00002140F2094003F03DFBB888052114F09DFD706900281CBF4368002B03D07A7885
:203DFC00B888022198479BE000950023F97801AA01F00101381D0AF0CDFF0028F3D19DF887
:203E1C00043006204343253307F10C020421D8B212F022FE84E0706900281CBF4368002B61
:203E3C0003D0B888002200219847707810B9B88805216BE0B88814F029FE040071D0B87AED
:203E5C00C10712D5009500236179002201F00101A01D0AF09FFF00281EBF6079002801286C
:203E7C0003D0F868C0F3402028B1307B022807D1B87A010704D4B888032114F043FD50E070
:203E9C006179B88807F1080228E0BD8897F80C80284614F0FBFD040042D014F03BFD00289E
:203EBC003ED100900023617901AA01F00101A01D0AF070FF28BB9DF80400FCF759FB08F0CB
:203EDC000C01042911D008290BD00C290FD100F0090109290BD0617900222846FCF76DFEBB
:203EFC001EE010F0090102D1F5E7C107F3D501220092A37C9DF8041002462846FCF702FE39
:203F1C000EE070780028E6D10521284614F0FAFC06E0FCF7FDFE18B1307804210AF0C6F820
:203F3C0001252846BDE8FE8300287FF4C5AE002078610622607900F001008DF80A00A11D65
:203F5C0001A813F097FDD7E6441700202DE9FE4F0446DFF8E803DFF8E8530278002A45D093
:203F7C00052A53D0062A55D0072A18BF082A00F0CF80112A40F0DA81DFF8C83318780021BC
:203F9C0014F004FD04001EBF606D407810F00C0F2CD0216DC0064CBF886CC86E0622016869
:203FBC0001F10806B11C684613F064FD307800F00F0105291AD16946C0F3801014F0D2FC81
:203FDC00002813D02968684614F0C8FC0646296804F1380014F0C2FC86420DD0606D4178BC
:203FFC00C80604D440F2014014F0CCFCA4E1607B40F0020060739FE12B681E2046439819D0
:20401C0006226946C01D13F035FD95E1012014F075FC91E1DFF83063306814F06BFC0400AC
:20403C00F7D020790328F4D1207A00F00F01072937D1C64800684169497A4A1E11425FD075
:20405C00617A04F10A035A5C02F03F02242A57DDA17A8A09012A53D111F03F0F50D0007C14
:20407C0013F0A4FCE17ACA074CBF04F1110204F10B028B0748BF921D0B0748BF921CC90662
:20409C0048BFD21C1621127852094A43B0498B180A31F3608A5A428699898186DA89C286BC
:2040BC002EE000F00F0008282AD1A17A880927D131B3A6480168087C13F078FCE17A07462A
:2040DC0088071DD5062201F0010112FB01F1601800F10C01684613F0CDFC207AC009FF28AF
:2040FC000ED0694614F03EFC50B1286800F10D01684614F0FBFB18B90521384614F066FCC6
:20411C00207903281CBF002012F0B2FA306839E0904EB078FF2837D013F048FC074607F1A5
:20413C006C08D8F8040014F0E5FB02908DF8004002990879032801D0200025D0D1F808E002
:20415C00854B9EF8009009F00300019038225FEA896006D51968B87901F10A0450430121F2
:20417C002154019860B11968BC7901F10A00544300EB040C9DF800109CF8000029B120B9D4
:20419C00D8F8040014F0AEFBD6E09EF801400EF1020AF8B11AF8010B00F01F018CF81A1065
:2041BC008009B979D3F800C05143614481F82500B879196812FB00F201EB020C14310A4488
:2041DC009CF824100CF1180309F0B6F89DF8000000281CD10198032807F2171B1CD0BCB14A
:2041FC0098F8000068B107F1F400017801290FD1524A1178072904D0082904BFC07801280D
:20421C0006D13D2101208BF801108BF8000093E052490A78012AFAD097F8940078B3241FFF
:20423C00E4B253462246494638460DF095FA00281EBF4B490878002809D101203D218BF815
:20425C0000008BF80110286814F048FB74E04548016888470546B97972684FF4D070414360
:20427C005018002280F8412107F59E700168807949080DF017FD3C490A682846904702981A
:20429C00002181600198032819D03848416909788A0709D541690878C1074CBF03200020F9
:2042BC0000191AF8000000E0812088F808002246019BB078DBB2514606F052FB2DE09AF87C
:2042DC0000005FEA896103D51B2804BF022C01241C2803D226490B5C9C4206D08BF8020036
:2042FC000721384614F0F6FA14E01448017808295146384607D102F03DF858B951463846D4
:20431C0014F0E4FA06E000F0F9F918B95146384614F0D8FA50460FF0A7FED8F8040014F009
:20433C00E1FA0299384614F0C9FA05E0002012F09FF9862014F0BEFABDE8F78FC80F002083
:20435C00680F0020D50F0020BC0A0020540F0020E0070020780E0020682E0020D20F0020D9
:20437C00F22E0020E8180020EC180020DCBD01007CBE01002DE9F84FDFF8487304463868EF
:20439C0008B907209CE1C07A012804D0042011F043FD012801D10C2092E1CB4800780928AA
:2043BC0018BF0A2804D00B281CBF0C280D2801D1212085E1002C05D0207810B101280BD1B5
:2043DC0002E0E01C00F0B480A078002818BF012804D0022818BF032840F0AA806078002825
:2043FC0018BF012803D0022818BF032872D1607A10F0050F6ED000210022607A01238B4027
:20441C00184232D004EB021043F6FD7543891E1FAE423EBF8689A6F1040CAC450FD2B34205
:20443C0022BF038BC58AAB420BD3C38940F67B459E1FAE423EBF068AA6F1060CAC4577D278
:20445C009E4275D3458AB5F5FA7F71DA808AA0F10A0640F6774C66453FBF6D1C5B006B43FC
:20447C00B3EBC00F64D2521CD2B2491CC8B20228C3DD39684869417A022904BF002012F0C5
:20449C00F7F838684461617A062990490CBF01200020087014F00AFA050008BF09200BD08D
:2044BC003A68A9791174E01C07D0A278E11C402007F056FD08B10B2002E105F16101284676
:2044DC0014F0F0F905F12C06B07B012803DC28460CF09AFD2CE039686078DFF8F481DFF8CF
:2044FC00F4B1DFF8F491DFF8F4A188726078002818BF012807D1C0073B6854BF59464146BE
:20451C000622181D3FE0DAF800000D3014F02EFA30B999F80010002904BF2078002812D1AF
:20453C006078C10754BF5946414614F013FA08B91220C5E06078C107386854BF5946414664
:20455C000622001D0EE0DAF800003B68C11D0622181D13F08FFA62480168DAF8003008684B
:20457C000622D91D13F086FA6078DAF8001000F0010008706078C107DAF8000054BF594637
:20459C0041460622401C13F075FA207870BBA07885F82E0105F594780622E11C404613F047
:2045BC0069FAA178DAF80000E21C01F0010114F071FA0146FF291CBF99F80000002815D049
:2045DC00A07840F0020085F82E011E22DAF8003051431944487F48B901F10D0014F0C6F90C
:2045FC0020B906223F49404613F044FA14F056F9A86213F001F8686204F110013348007833
:20461C00000104F114030A5AF280195A71812044428A328102223868417C3170B2700020EF
:20463C00B08013F032FD0C2290FBF2F20C2101FB1200401DF07304200AF0F0FA39682A4A47
:20465C002A4B086042608361294A42610120C872A87914F01FF999F80000002801BF386814
:20467C0041690A78012A0ED1807A02280BD1DAF8001001F10D0014F079F920B91D48417999
:20469C0041F004014171104C2078C0B999F8001049B11948006814F0F9F83868006881695E
:2046BC0041F4802181613868007C0BF0A7FF06202070012200210CF0EBF9FDF7B1FB0020CF
:2046DC00BDE8F28F540F0020C80F0020D90F0020480E0020400E0020880E0020680F0020E5
:2046FC00842E0020006E0210040C002002008080D9490100BC0A00206C0F00202DE9F84127
:20471C0085B0044611F801CB00203822BCF1030F04F5A47704F1660504F1F406DFF818831B
:20473C00C64B00F0B380BCF1070F00F06381BCF10F0F0CD0BCF1110F00F00E81BCF11A0FC9
:20475C0000F01F81BCF11B0F00F0448171E1707A820703D40F2184F8191157E008784A7836
:20477C0000EB02233B808878CA7800EB02237B8008794A7900EB0223BB808879CA7900EB47
:20479C000223FB80087A38724A7A887A02EB00237B81C87A0A7B00EB0223BB81487B8A7B84
:2047BC0000EB0223FB81C87B0A7C00EB02233B82487C8A7C00EB02237B82C87C0A7D00EB2E
:2047DC000223BB82487D897D00EB01229C48FA8201788A0658BF1A2212D504F5AA70049038
:2047FC0079890391387A029021890191F8880090BB887A883988204614F044F870B11E226A
:20481C00707A410708D40F2084F81901204614F035F8002837D1D6E00F21C3E004F18600DE
:20483C00798881800023BA88C2800222F988018102704380A18EC91DE983628E8188B1EB41
:20485C00520F02BFC188A28E914202BF0089E18EB0EB111F18D0287C012804BF687C0F28B7
:20487C0005D0687D18B10F21A976FE2170E0FC21204614F02FF8F8880090BB887A88398817
:20489C00A07913F0F7FFCEE0102161E0707AC20709D431781A200129707002D1FF220D212B
:2048BC003AE00D2154E000202870A87101233371082204F1B00013F0D9FF0146022204F1BD
:2048DC00B80013F0D3FF04F1A80801460822404613F0CCFF07460821404613F0C3FF04F10F
:2048FC009C0804223946404613F0C0FF0421404613F0B8FF04F1A00013F0B0FF04F19800D2
:20491C0013F0A8FF4F48018841F0800101803078012805D1FF220421204613F097FF82E030
:20493C006E7C0F2E18BF142E03D00E2E18BF0C2E0DD12F7C204613F085FF0421204613F0F7
:20495C00C9FF012F12BF3146AE76FD2100E00421204613F0BFFF66E00D783D761A2D497807
:20497C00797666D11868A579811D5543002048551968A37912FB03F20A445072A179787EA5
:20499C004FE0A679186809785643064401F01F0516F82D0F890918B17078C840C70705D478
:2049BC0020221A21204613F049FF3CE0F5701868A37912FB03F20244204682F82F10002108
:2049DC0008F06CFA78BB98F800004FF4804109F06DFB28E0A179186851430144888908B9E8
:2049FC0000258D71A179186812FB01F281180020487218E009780F2917D01A2919D1A1798C
:204A1C0018685143014400208871A1791B6812FB01F2991848721A20F17A01F0FB01F1720B
:204A3C00A1790CF0ADFA012003E0717A01F0FD01717206B0BDE8F081C70F0020682E002064
:204A5C00200E00209C0F0020C9480278112A00D070472DE9F84FC74A1078002113F096FF25
:204A7C0004000AD1002011F003FE002011F000FEBDE8F24FFF2013F01DBF04F14C0999F83B
:204A9C00000008B90121E172401C89F80000C2B2E17DD9F804608A4229D2D9F808104A7A6C
:204ABC00B17B277E0120A1F1250300FA03F3A7F125018840184322EA000000F0070010F05A
:204ADC0047F92530B073A18BB06800EB8100B060607DC1060AD5628B99F80010A08B00FB0B
:204AFC001121B068A63100EB810030663EE104F1280706F1900806F173054FF0000A4FD1CD
:204B1C00A17F6975E07FA875D9F808205278930710D5E27FD30604D5C91E697500F0EF0006
:204B3C00A875C6F874A085F800A00022A97D01F0FE0116E1910608D4F88B00B1F87E287663
:204B5C00F88B00B1386AC8F80000D9F808004178CA070DD5F88B00281CBF386A002807D037
:204B7C00C8F80000B97EF88B814238BF08462876E07FC1060BD5B06B397800EB8100B063A8
:204B9C00A18CA63100EB81007067022002E0C6F874A0002028700022E17F01F0FC01E0E0F4
:204BBC00D9F808205278D30717D5A87D697D00F0F700891E01F03F0182075CBF891D40F00C
:204BDC000200420644BF491E00F0BF00A8756975C8F800A085F818A0C8E0401AC0B20090C2
:204BFC0090077AD50098012806F1400B3FD1B06BA18C00EB8100B063A07F00F03F00A07774
:204C1C006875E17FA975D9F8082053785A0704D5801F687501F0FD01A9750023697DFA7E15
:204C3C009BF8000001F03F018A18521CC0F3800192B200F0030013F0FDFD00F59B70A084F8
:204C5C001E21A08C90FBF1F18AB2A97D01F0FE01204613F0EBFD85F800A0F88B00B1F87EF6
:204C7C002876F88B00B1386AC8F800007EE00228B06BA18C00EB8100B06326D1E07FC10777
:204C9C0006D5687D811F6975A87D00F0FE00A8750023697DFA7E9BF8000001F03F018A18A3
:204CBC00521CC0F3800192B200F0030013F0C2FD00F59B70A0840022A97D01F0FE0120467B
:204CDC0013F0B4FD787FABF81A00797F0098491C081AC0B2012814DD0BE0B06BA18C00EB8F
:204CFC008100B063797F0098081AE17FCA06C0B207D5A28CB16BA63201EB82017167022148
:204D1C00297098B3D8F8003097F81BC0E27FA17F6344C8F8003052084FEA4208D9F808203B
:204D3C005278530748BF28F00208920748BF28F00808012807D1387F2876C6F874A028F002
:204D5C00100885F800A001F0C006404613F06AFD00F03F003043687585F81680002208F0AF
:204D7C00FC012046BDE8F84F13F060BDBDE8F18FC80F0020D50F00202DE9FE4F0422FF21DF
:204D9C0001A812F081FEB94988780024FF2800F06A8112F00BFE054605F21710017801298E
:204DBC0008BF417800F0B68005F1740005F59276817B022904BF05F174018C73F18911B135
:204DDC00307B09F073F96889A94F2881FA79BB7A397BF87A97F80DC09B185B181B1805F598
:204DFC008D7903EB0C08B9F800C0B9F80430C4445B1CA9F800C0A9F8043097F80AC0B9F87A
:204E1C0002306344A9F8023033683BB3DFF864E2DEF800E00EF10E0ACDF800A04FF01C0A8D
:204E3C0095F806B01AFB0BFADDF800B01BF80AA033F81AB0C34423F81AB00EF10E0A95F832
:204E5C0006B04FF01C0E1EFB0BFB1AF80BA003EB4A03B3F84AE0F444A3F84AC0002A08BF5D
:204E7C00002804D1002904BF787B002829D02989E8892C744118287FA981012804BF688C4C
:204E9C00E883A979012207200BF002FEA246787868B10121297705F174018878002804BF1B
:204EBC00887B002803D1087F08B9688CE883307D002837D0022804BFF87A00282ED1347525
:204EDC0030E0A97907200BF0E3FDEC83B87A40B1297F2C7401294FF0010A09D1688CE883FB
:204EFC0006E0B9F80600401C4FF0020AA9F80600A8892989814206D08842C8D2081A41F276
:204F1C00AB029042C3DA287C08B1052901D0082100E03E21284613F059FDA4E0787A08B19F
:204F3C00022131755448F97B0068CA070AD52A683969D160143001F59071D160A979490127
:204F5C00445011E0AA7900F114015201885830614848AB7901681C2001F108024343296857
:204F7C00D058C860EC832C77444A50690078810702D5B87B802800D1812005F17406514641
:204F9C003070284605F02EF828460AF0CBFD02281BD1F079022805DB01AA394928460EF07A
:204FBC00EDF90446284613F039FC01285BD020000DD0224601A928460FF02CF838B92846AC
:204FDC000AF0B0FD012802D14DE001284BD00121284613F01FFC284613F018FCFDF708FA78
:204FFC00012840D028460CF0EBF9FCF719FF254FB988386810B1AA79914203D04FF6FD7072
:20501C00814230D12049087B12F0B6FE04002AD084F800A0A8791D4960800A68A879115C8D
:20503C00217195F89601607196F90010A171A4F80880B9F80200608112F05EFE050005D12B
:20505C00FF204FF0FF312073216109E02878207313F0C4FC0146A86813F0D4FB8008206180
:20507C00204639688847BDE8F78F00BF780E0020980C0020980E00209C0E0020DCBD0100C0
:20509C001C1B0020800E00209C1D00207C2E00202DE9F84F8AB083460C4600208DF80000F5
:2050BC001646B849C87981061A4602D5B6488178880640F163811D98169B199D1E9908B94A
:2050DC0000250CE059B9012B0CBF4FF040094FF020094D4503DB012B0CBF40252025DDF8C4
:2050FC006880DDF86C90C6461EFB09FE15FB0EF5AFB24FF0600A97FBFAFE0AFB1E775FEA25
:20511C00070C18BF4FF0010CE6445FFA8EF70897AFB20997ADF81A208DF819408DF81860DB
:20513C009A4F3A78149CDDF854C0DDF85CE0DDF860A01C9E002A72D0ADF860A000279DF8B2
:20515C0000A0ADF81CB08DF850408DF854C08DF858308DF85CE01D901E910899F8B2884235
:20517C0079DAA8B26028ACBF4FF0600BAB465FFA8BF02D1A4000203080B211F0C1FD040038
:20519C004BD0912020703E2181226170A2705FFA8BF20998A080A7714B46BDF81C00208100
:2051BC009DF81910A1729DF81800E072BDF81A10A1819DF85000A0739DF85410E1739DF828
:2051DC00580020749DF85C10617404F12001BDF86000608284F814B004F12000A06184F812
:2051FC001580881884F81690E675E06105904246A0691E9904900391CDF804A000961D98E7
:20521C009DF8581002905FFA8BF002F029FF82465E480078214605F0EBF87F1C9DE78DF82C
:20523C0068808DF86C908DF870609DF80090DDF82480ADF81CB08DF850408DF854C08DF852
:20525C0058308DF85CE0ADF860A01D901E9100260899F0B2884280F29180A8B26028ACBFE5
:20527C0060272F46F8B22D1A5FFA87FA4FEA4A0000F1140B0BF10B00C0B211F041FD0400FC
:20529C007AD001202070FF2104F1080261706260042010703E22606842708120616881F8E4
:2052BC0002B06168C8704FEA2821606880F804806068417161688E716168BDF81C00C871C4
:2052DC006168BDF81C00000A087261689DF81900487261689DF8180088726168BDF81A005B
:2052FC00C8726168BDF81A00000A087361689DF85000487361689DF85400887361689DF8C7
:20531C005800C87361689DF85C0008746168BDF8600048746168BDF86000000A8874606862
:20533C00C77460689DF86810017560689DF86C10417560689DF87010817560681E9A9DF854
:20535C006C30039200F117015144059117300490CDF804909DF870101D989DF86820009120
:20537C000290F8B29DF8581002F07AFE814608480078214605F03CF8761C69E70BB0BDE80D
:20539C00F08F00BF280E0020200E0020EB2E0020E92E00202DE9FF47AA48017806294FF06A
:2053BC00010840F04981A84EA84F3068A84C016801F108054FF0FF09297801F00F000728D6
:2053DC0002BFA8788309012B40F09780002800F09480E878C30707D50622291D684612F081
:2053FC0049FB2878C0F38019E978880737D5062201F001012B1D5143194402A812F03AFB30
:20541C002878C009FF282AD002A913F0ABFA002800F08F802068807A022818BF032804D1E9
:20543C0038680D3013F0A2FA002840F00081386800F10D0102A813F059FA002874D0206868
:20545C00062202A9001D12F015FB707940F0040070710622386802A9C01D12F00BFB48464A
:20547C00FF2800F0E480694613F07CFA1E25002800F0A8803968684613F070FA226801465D
:20549C0050690078FF2900F08280002815FB01F563D1107C12F08AFA90F82E11022918BF68
:2054BC00032901BF3B685A5D01F001018A4253D100F59479581906224946401C12F000F827
:2054DC0030B906224946634811F0FAFF002843D020684169386840190622C91C401C11F09B
:2054FC00EFFF002838D0707940F00800707106226946484612F0BEFA43E011F00F0F1CBF34
:20551C0001F00F02012A27D10622A91C684612F0B1FA2878C0F3801900F00F0001289ED17F
:20553C00062205F1080168E73068016800220A7184E02168887A022818BF032805D13868AA
:20555C000D3013F013FA002889D12068807A002818BF01283FF483AF69E039684A5D7069E7
:20557C004919491C083813F049F93B490A7890425DD03968706949196A46C91D083813F009
:20559C0039F93868401906226946C01D4DE000284DD1107C12F00AFA074620684069827893
:2055BC00914544D1C11C0622684611F089FF00283DD0707969F3C30070710622694607F5B7
:2055DC00947032E021684A69107880BB087C12F0EDF982469AF82E01022818BF032826D182
:2055FC0038686A46494613F055FAFF281FD015FB00F5386841194A7F012A04D00D304019EB
:20561C0013F0B4F998B120684169386840190622C91C401C11F054FF48B1707969F3C3008C
:20563C007071062269460AF5947012F023FA306801680020087101E04FF00008404604B078
:20565C00BDE8F087C80F0020BC0A0020680F0020540F0020006E0210F02E00202DE9F84F00
:20567C0005004AD09C480078092818BF0A2804D00B281CBF0C280D2801D1212029E1A878D1
:20569C00002113F083F9040008BF4220F6D0934FA978914A3970107810B9A8789049087012
:2056BC0004F14806F068417801F01201022902BF706900280C2012D0607AF0B1A07B0128BC
:2056DC0004D1B5F8030008B1812816DA6878402813DA204613F08AF8B06808B90720F8E0DF
:2056FC00B561287801281BD1A07B00281CBF0128042815D17B48007808B91220E9E07A49B0
:20571C004A78824208BF0920F8D004F1220004F13801427F802006F023FC08B10B20D8E0D8
:20573C00687808B91120D4E02878DFF8C091DFF8C0A1DFF8C0B1012840F09380207A002158
:20575C00012821734FF00A0811D19BF80000402110F07AF9B5F8030008FB00F1402013F0CF
:20577C0041F80100DFD1B16968794871B0E001202072E172617309F051FA6060DAF800002F
:20579C0080475D4A0146106802E06268426000680028FAD10846D9F80010884761685748B1
:2057BC004861002138780FF0FFFB3978012211200BF06EF9F0684178C80605D5204613F0D1
:2057DC000DF801000BD084E0002060840BF018F984F82100204612F0FDFF010079D1F068B4
:2057FC004178C8071CD504F14207B98800291CBF3068002814D03A788A4211D20F2012F05B
:20581C00E5FF68B1F06801788DF80010B888ADF801000F2039788DF80310694612F0D2FF29
:20583C002D4F3878002853D13549087800281EBFF068417811F0030F03D03248006813F0F5
:20585C0025F81120387001212172B5F8030008FB00F1402012F0C6FF01003AD1FCF7E0FADD
:20587C0036E0207AA8B3DAF8000080470546387801210FF099FB9BF80000402110F0E4F8E8
:20589C000020207212F06AFB012804D012F034FA6168884212D110F01FFC40F2014013F09F
:2058BC0071F819491948086001219BF8000008F0FDFBD9F800102846884709E0204612F024
:2058DC007DFFD9F800102846884720460FF0C6FD0020BDE8F28F00BFC80F0020D60F0020E9
:2058FC00D50F0020D40F0020780E0020EC180020E8180020C70F00204C0F0020297200008F
:20591C00880E00206C0F0020480F002041E700102DE9F14F82B013F061F8009041F60301BC
:20593C00BDF808003225401A4FF0FF3B0328D9464FF0500842F21077DFF844A2914E6FD9E4
:20595C001E38012808D9801E6AD0001F00F0D580401E00F0028110E18B4A907812F026F8D0
:20597C000400F8D0E08E618E90FBF1F77068A17950F83110009812F045FF01462089A2790B
:20599C00336ADFF808C2DFF808E203280EDB814C2468382010FB02F014F80090B9F1010FD4
:2059BC001EBF201890F82D0001280FD17D436424B5FBF4F47568985C2D1DF14615F8325037
:2059DC00A54217D2B0B9514529D313E07068041D08FB07F814F83240985C4FF0640BB8FB1F
:2059FC00FBF844454FF0FA6904D218B9DFF8A881414501D3E1460AE0F369985C7D43B5FB9B
:205A1C00FBF5AC4202D208B9514508D3F146401C032190FBF1F101EB4101401A9854ACE062
:205A3C005E480078002112F0B1FF0400F7D0606D007810F085FFFF280190F0D0BDF8080090
:205A5C0041F6030188421CBF41F60401884207D041F62301884202BF207D8009012802D165
:205A7C004FF07A7901E0DFF838913068019950F83110009812F0C6FE226E0146B2F80300BA
:205A9C00C0B1636D93F801C05FEACC6E08D5A47B012C05D1474340F2E24397FBF3FB09E091
:205ABC00D3F80340474324F07F4440F271204443B7FBF4FB507910B1584538BF8346394808
:205ADC0081420BD232680198131D642213F8300008FB0BF3B3FBF2F2904202D309F10209A7
:205AFC004BE051453FBF05FB0BF56421B5FBF1F1884242D309F101093FE03169009812F07E
:205B1C0081FE024628480368186A41884FF07A6949B1808838B94F43D9698B8840F27120BD
:205B3C00434397FBF3FB1F498A4207D2307D08FB0BF36421B3FBF1F1884202D3DFF86C9001
:205B5C001BE052453FBF05FB0BF56421B5FBF1F1884212D3DFF858900FE0B168009812F072
:205B7C0051FE0D494FF07A79884228BFDFF8449003D2504528BFDFF840904846BDE8FE8F1E
:205B9C0081841E00902B0020780E00200200D0070100D007682E002001093D00D50F002093
:205BBC000000B80B01127A00500F00200200A00F0100A00F0200E8030100E8032DE9F04F6B
:205BDC00A44C8246E07894F8315094F83290BAF1000FADF1140D0146A1F101018FB218BFD2
:205BFC0001214FF0000884F83F10464603964FF0F80B019622E0B1451ED0E06871036A4605
:205C1C00042312F03DFA009911F4403F03D00198401CC0B2019001F0FF017C2918BF782912
:205C3C0009D1304606215A4611F0A2FB0C2016FB004080F848B0E078761CF6B2B042DADC6C
:205C5C000199401E88425BD0002F04F1300600F0CA8040464FF4005B019094F83F30E068AF
:205C7C0013B9012184F83F106A466903042312F007FABAF1000F05D00099E07811F4403F05
:205C9C0040F09980009800F0FF00702803D02846702110F0E5FBE0684FEA49316A460423FC
:205CBC0012F0EEF9009800F0FF00FE2803D04846FE2110F0D5FB48460621FE2211F058FBB9
:205CDC004FEA8900FF22FE2184F83C9000EBC900A4F840B0AB0084F83D50801984F83E20F7
:205CFC00183001700199029003EBC5008019A4F84410808BA4F8420000F0C0FD102801D1C7
:205D1C000020A4E0BAF1000F0CBF10215146BAF1000F07D0B4F84000C0F50050814207DC4E
:205D3C0001200390B4F84000C0F50050814201DD782100E07C21484610F092FB07F09EF942
:205D5C00054694F83F000621FC22401B84F83F00484611F00DFB0298FC21017094F8321029
:205D7C00E0787F1B491994F83E500C23414491FBF0F24243891AC9B284F83210491C91FB25
:205D9C00F0F24243891A84F8311015FB0361898BBFB2102905D1691C91FBF0F24243891AFD
:205DBC00CDB294F83290DDF80480BAF1000F17D00398A8B117E06D1C08F1010295FBF0F11F
:205DDC007F1E94F83F30A4F840B041431FFA82F8BFB2581E6D1A84F83F00EDB284F83D509B
:205DFC00002F7FF43AAF7C200FF032FD0546FF2D1CD17E200FF02CFD0546FF2D16D194F81E
:205E1C0031500C2015FB0060807DFF280AD0E27894F832008018401E90FBF2F15143401AE1
:205E3C00C5B203E028467E2110F01AFB0C2084F8335015FB0060808BE08694F83200FE21E1
:205E5C0010F00EFBB4F84000C0F5005000B205B0BDE8F08F8019002070B5894D687911F00B
:205E7C007BFF8849002808600BD00022026002730868C2610262A87911F06EFF82490028DE
:205E9C00086000F0FB8000220260C27200200A681074052308684374002209684A61E87A56
:205EBC0011F05AFF79490028086071D0784C21782878C91C10FB01F080B211F04DFF7549BE
:205EDC000028886064D02078002874D0698811FB00F080B211F040FF6F4A0028506057D047
:205EFC006E482278017811FB02F080B211F034FF6B49002808604BD000250AE0E8B211F050
:205F1C00D3FE00214180816001800223037101736D1C2078E9B28142F0D311F01DFF61493A
:205F3C000028086034D02078400011F015FF5E49002808602CD020781C2110FB01F080B28E
:205F5C0011F00AFF594A0028106021D02078400111F002FF56490028086019D02078000163
:205F7C0011F0FAFE53490028086011D02078000111F0F2FE50490028086009D0207830218A
:205F9C0010FB01F080B211F0E7FE4C4A0028106074D02078382110FB01F080B211F0DCFE65
:205FBC00474A0028106069D0207811F0D5FE45490028086062D0444D444E2978307800EB50
:205FDC004100C000103080B211F0C6FE40490028086053D000F10801416030782A7800EB61
:205FFC004200C000103080B211F0B6FE39490028086043D000F1080141601E212878401C61
:20601C0010FB01F080B211F0A7FE334A0028106034D0082011F0A0FE304D286070B3062062
:20603C0011F09AFE296808602968086830B300204860062011F090FE29490860F0B1A02016
:20605C0011F08AFE274D2860C0B12078C00011F083FE686090B1142011F07EFEA86168B178
:20607C000026207811F078FE05F11C0141F8260020B1761C022EF4DB002070BD072070BD5A
:20609C009C1D0020500F0020540F0020440F0020D40F00202C2E0020780E0020F01E002045
:2060BC00702E0020340F0020642E0020980E00209C0E0020A00E0020A40E0020A80E0020EB
:2060DC00682E00207C2E0020F12E0020F02E00206C0F0020700F0020680F0020842E002004
:2060FC00400F0020902B00202DE9F04F0646A04DF08995F833404FF0000BADF12C0D4FF0D3
:20611C00FF0A5F46C01D0A921FFA80F8E87809910AE02046782110F0A3F9E878641C94FBBD
:20613C00F0F14143641AE4B2B8422ADD95F832007F1CA042BFB2F0D0E868610306AA0423D1
:20615C0011F09EFF069800F0FF007828E5D005F13009FF2818BF7E2803D120467C2110F0F9
:20617C007FF9A00085F8334000EBC4004844818BE986808B42F2010340448342C9DD95F886
:20619C0033A0BAF1FF0F0AD14046FFF717FD804503DD687800B90520E6E04FF0010B2C4606
:2061BC0095F833706078F8B90A9820B102281BD1BBF1000F18D0307A8DF80C00F388ADF883
:2061DC000A30B288ADF8082000210091E18E01AA0323384605F07CF99DF81400BDF81030EA
:2061FC00307495F83370B381E58EE068790306AA042311F045FF0698B84600F0FF0100F0AC
:20621C00FF007E2806D140467C2110F029F9069901F0FF017C2940F0A480F08942F2010367
:20623C00C11D8FB2EA19934240F39980F288337A11128DF81D2063F39F01B3888DF81C1011
:20625C009A1003F0030106468DF81E20C0F3851200F03F0342EA81128DF81F20990072194F
:20627C008DF82010F31D1FFA82FA98B20D282DDBDDF8249031460022484611F045FE0246E5
:20629C00052107A811F040FE9DF82010334600F03F0641EAA0114A46B0008DF8201040F05A
:2062BC00020096268DF8210029468DF8226040460EF0ACFA0646514607AA072340466670A4
:2062DC000EF0A4FA304360704DD135E0099904F12400324609F0ECFE07A90A68301900F11E
:2062FC002409484609790260731D0171002204F1240099B211F008FE9DF82010962300F0E6
:20631C003F068DF8223041EAA011B0008DF820103B4640F0020007AE49468DF821003268CD
:20633C00B0790A60B288887140468A8004F1240229460EF06BFA6070E18EED194FEA8806F2
:20635C00AAB2C919E18606EBC8010919A1F84C2048B1404651460EF0BBF8607803E00520F4
:20637C0000E001206070C0B20BB0BDE8F08FC046801900202DE9F84185B0044611F8017BCD
:20639C0000203822072F04F5A47504F1FD06DFF86082984B00F00A810F2F09D0112F00F0C9
:2063BC00B7801A2F00F0C9801B2F00F0EF801CE133789A071BD504F176073878012804BF18
:2063DC0078780F2808D0787908B17A7812B13A7B012A03D158070AD5232264E010B1787817
:2063FC00012802D0B87E012806D1580702D40F21317751E02A2256E008784A7800EB02233E
:20641C002B808878CA7800EB02236B8008794A7900EB0223AB808879CA7900EB0223EB803A
:20643C00087A28724A7A887A02EB00236B81C87A0A7B00EB0223AB81487B8A7B00EB022387
:20645C00EB81C87B0A7C00EB02232B82487C8A7C00EB02236B82C87C0A7D00EB0223AB825F
:20647C00487D897D00EB0122EA8204F5AA70049069890391287A029021890191E88800901E
:20649C00AB886A882988204612F0FCF968B13078410707D40F203077204612F0EFF900287B
:2064BC0030D16CE01E220F2158E06888B882A988F9820221E8883883397400207882A18EB1
:2064DC00C91DF981B88A618EB0EB510F02BFF88AA18E884202BF388BE18EB0EB111F12D038
:2064FC00787918B10F21B972FE210DE0FC21204612F0F0F9E8880090AB886A882988A07902
:20651C0012F0B8F96BE00021204612F0E3F966E00E782E761A2E4978697666D11868A679CE
:20653C00811D5643002088551968A37912FB03F20A445072A179687E4FE0A679186809780D
:20655C005643064401F01F0516F82D0F890918B17078C840C00705D420221A21204612F00D
:20657C006DF93CE0F5701868A37912FB03F20244204682F82F10002106F090FC78BB98F8AF
:20659C0000004FF4804107F091FD28E0A179186851430144888908B900258D71A17918684C
:2065BC0012FB01F281180020487218E009780F2917D01A2919D1A1791868514301440020F4
:2065DC008871A1791B6812FB01F2991848721A20B17801F0FB01B170A1790AF0D1FC01202B
:2065FC0003E0317801F0FD01317006B0BDE8F081C70F0020682E00202DE9FF477D4C7E49FF
:20661C007E4E20700A22002008600D237C4840F211210270438081807A4A7B48106037781A
:20663C007A480770FF2F7178417008BFFF29B2788270F378C370357905717679467114D1E5
:20665C00FF2A08BFFF2B10D1FF2D08BFFF2E0CD16F490A7802704B7843708A788270CB78CD
:20667C00C3700A790271497941716A4902786A4D6A4E6B4FDFF8AC810A7043784B7082781D
:20669C008A70C378CB7002790A714079664A4871FF2028706870A870E870287168710020C5
:2066BC0062490880F06B6249407808706149F06B007808701388604860490380F06BC06C6A
:2066DC003860F06B90F83C0008705D49F06B90F83D000870F06B406901795A484A1E027037
:2066FC00F06B5949C07888F80000F06B8069086008B90FF0BDFFF06B5449C069086008B957
:20671C000FF0B6FFF06B416D51480C2211F0B2F912F050F8F06B4F49006A086008B90FF05E
:20673C00A7FFF06BDFF83091406AC9F8000008B90FF09EFFF06B4949806A086008B90FF0DD
:20675C0097FFFFF789FB07280AD104F0AFF920784FF4804107F0AAFC00200FF089FF46E061
:20677C003F480168884782460BF0C2FDD9F8000001688847684611F00FFBD9F800200420E5
:20679C008DF80000694652F8043F00209847354908600DF087FDF068334A018898F80000C8
:2067BC00324B014311805046196888470C21304811F00BFD284611F0F9FF11F0F3FF2D4808
:2067DC0000214FF6FF72016082800921387882072948006848BF0C2111F05EFA0121FF2059
:2067FC000EF0E2FB20784FF4005107F05FFCBDE8FF8700BFC70F0020380F0020D04F00506E
:20681C00700E00203C0F0020B63F0050400E0020E8120050500E0020480E0020DCBD0100C8
:20683C006C2E0020C40F0020DC1E00209E0F0020C60F0020D40F0020E22E0020F02E002042
:20685C00F12E0020CB0F0020200F0020240F0020202E0020280F00202C0F0020300F0020C2
:20687C00E8180020742E0020A00F0020EC180020FC0D0020800E0020842E00202DE9F04F29
:20689C009B4D95F83D0095F83F10EB7895F83C800027ADF12C0D0918491E91FBF3F295F81E
:2068BC003D406F705A43891AC9B20891810001EBC0014919B1F84C0095F83C10ADF81C00ED
:2068DC00880000EBC1004019B0F84C60CDF8248006A80EF069FD68780A97A04500F0A180C9
:2068FC00B946CB46BBF1010F00F09080BDF81C10172966DB002840F09580BDF81C0001AA65
:20691C00C01F81B2ADF81C10204609F04BFABDF81210BDF81C30884608F1070008F1100223
