:20000000003C01204126010039FB021039FB021039FB021039FB021039FB021039FB021077
:1C00200039FB021039FB021039FB021039FB021039FB021039FB021011FB021002
:20003C0038B586B004468DF805104FF6FF720120ADF80220090ADFF8905CADF8000002235F
:20005C008DF806108DF8043069462A78204617F0D3F9162803D12978204617F0C9F907B00D
:20007C0030BD3EB504000D461AD0DFF88C0C0068224617F0B9F9FF2811D000200090002370
:20009C0001AA294620460DF001FD40B900F0B9F8C00604D500F0B5F810F0040000D00120FE
:2000BC003EBDFEB5164615244FF6FF7290420D4615D100208DF80400DFF80C7C9DF804007F
:2000DC00B97988421AD23246294600F0C9F800B100249DF80400401C8DF80400EEE717F055
:2000FC007FF950B100F004FD40B99DF804003246294600F0B5F8002400E014242046FEBD07
:20011C002DE9F04387B00C460021009190461D46014600F04DFD01260028DFF8AC7B62D105
:20013C0000F06FF88146082DF87908BF002600F012FA040002D100F011FA5BE078789DF864
:20015C00041002280CBF0120002000902B464A46404600F0D7FC1422002102A8062516F02D
:20017C007DF99DF8040015FB00F0243002AA00F044F8A8B91022FF2102A815F078FD78B920
:20019C009DF8040015FB00F5253506AA0421E8B215F004F902AA09F00101404617F01CF991
:2001BC00F9799DF80400890670302246090EC0B215F0F4F888B9204600F0C5F8002508E0A6
:2001DC0004EB8000018819B18278404615F002FC6D1CF979E8B28842F2D39DF8040000F011
:2001FC0003FA00F0C2F97878022803D116B1404611F0D6FD07B0BDE8F0831021C0B215F0B5
:20021C00CDB89DF80400B3E17CB50D46044606214C43164600F01EF8A8B900F016F890B982
:20023C009DF80700002E14BF054320EA0505E9B2814206D08DF807506A460821E0B215F029
:20025C00D5F8012076BD002076BD0622FF21684615F00DBD20346A460821E0B215F09EB82F
:20027C002DE9FC410646344606235C4388461546FFF7F0FF002850D1FFF7E7FF00284CD109
:20029C00DFF8447AF87900F066F9040002D100F065F942E0F979703689062246090EF0B2DE
:2002BC0015F07CF8002834D1204600F04CF85FEA08000DD1FA799206120E0021204615F0FC
:2002DC00D6FC30BBFA799200002100F041F916E0214600F025F858B9280004D021460020F7
:2002FC0000F01EF810B900F040F916E0A0F800808178A9420DD085700DB900210180204658
:20031C0000F021F8F97989062246090EF0B215F06DF800F02AF9012000E00020BDE8F681DC
:20033C0070B5DFF8A439DD79002200E0521CD4B2AC4206D231F824608642F7D101EB840009
:20035C0070BD002070BD10B50021DFF87C290AE030F82130DB4320F8213000EB8103491CE7
:20037C009C78E4439C70D3799942F1DB10BD2DE9F04186B0804600200E460090002398F860
:20039C00061004AA40460DF081FBDFF83C590627A0B1002400E0641CA979E0B2884280F022
:2003BC00C780A869E3B20622FF2100EBC30015F05EFC0028EFD08DF8104013E0706988B11E
:2003DC0000F0C1F823306A46FFF717FF50B91022FFF73CFF30B998F80600414600F00100E6
:2003FC0016F0F6FF9DF81000A979884280F09C80E87900F0B0F8040003D100F0AFF80A2037
:20041C0093E000F0A0F820304246082100F0AAF89DF8100000F0E8F8EA79920000F097F849
:20043C00E9799DF81000890670302246090E00F099F8A8699DF810300822414600EBC30025
:20045C0016F002F8726972B1107C002302F1110100F0010016F0B8FF726922B100F073F817
:20047C00233000F07EF8B2682AB100F06CF821301C2100F077F832692AB100F064F822305D
:20049C001C2100F06FF8F26882B100F05CF8243000F067F8F06800F110029DF8100017FB26
:2004BC0000F725370421F8B214F0A0FFE87B08B100F052FBB688286A4FF6FF7750B905F178
:2004DC00120100910223DFF860283946012016F077FF2862296A19B3FF20039002220023DA
:2004FC000292019305A800900DF112036A8A304606F004FC68B99DF812009DF8131000EB9D
:20051C00012290B228B1286A418992B23046FFF7C8FD6A8A286A0023394616F04DFF2862AC
:20053C0000F023F8002000E0152006B0BDE8F081DFF8F827107800281DBFDFF8F4170868BF
:20055C0004780C4637E79DF8100078437047FF21204615F083BF800016F0E8B8042014F061
:20057C0065BD1021C0B214F041BF204616F0E6B8E0B50623584320306A460821FFF73EFED8
:20059C0010B99DF807000EBD00200EBDDFF83807007808210CF00ABC38B50025DFF8284753
:2005BC0019E0A069062313FB05F300EBC50220330821D8B214F0F2FE58B1A0690622FF21E8
:2005DC0000EBC50015F04AFFA06900EBC5010022CA716D1CEDB2A1798D42E2DBE07B10B100
:2005FC00BDE83140B8E231BDF8B5DFF8DC16DFF840578B792E681C461A4600E00A46D1B24E
:20061C0039B1511ED2B2324412F8017C8742F5D10C46E0B2591E07E01718165C7F78175410
:20063C002A680244401C567088422A68F4DBE4B28C4205DA1946BDE8F840052014F0D6BE3D
:20065C00F1BD38B500200024DFF87C56AA79E1B2914206D2010004D1E0B200F003F8641CC2
:20067C00F4E732BD2DE9F84F83465D46062313FB05F58EB005F1200701AA0821F8B214F0BD
:20069C008DFE002871D10622FF2101A815F0EFFA00286AD1DFF83066F079FFF75CFF5FEA97
:2006BC00000903D1FFF75AFF0A2060E01C22FF2103A815F0D3FEF2799200FF21484615F0F9
:2006DC00CDFE05F123040AAA1021FFF7C6FD60B91022FF210AA815F0CAFA30B99DF80A000A
:2006FC0001A900F0010016F073FE082200F046F801AA0821F8B214F079FE8DF8000003AA49
:20071C0005F1210000F036F8074605F1220003AA00F030F8804603AA1021E0B214F066FEC0
:20073C00044605F1240003AA102100F024F88246253503AA0421E8B248EA070714F056FE29
:20075C002743F1799DF800504AEA0707074389060BF170034A46090ED8B214F047FE074376
:20077C00484615F0EBFF3D4300E0002528460FB0BDE8F08F1C21C0B214F038BEFF2101A898
:20079C0015F06CBE2DE9F84187B0FF208DF80000DFF83455A87915F0C9FF040003D1FFF7C8
:2007BC00DDFE0A202EE01022FF2103A815F056FEAA79FFF7CCFE0622FFF7E0FF03AA1021F6
:2007DC00022014F013FE064603AA1021032014F00DFE06436A460121042014F007FE0746D5
:2007FC00A9792246052014F001FE054601AA0621062014F0FBFD8046FFF7B7FE3E432E4389
:20081C0048EA060008B0BDE8F081F8B50446DFF8B8542079012842D0092803D07D2800F06F
:20083C007F8084E0617860881A2976D000F066FA022802D0032818D079E02089668801227D
:20085C00012804BF6089032807D1E168887820B91021304600F023F90246686900281CBFB3
:20087C004368002B63D0052116E020896688012804BF6089032806D1E068827804213046EC
:20089C0000F00DF900E01820696900291CBF4B68002B4CD0024604213046984747E0207ADB
:2008BC006788082838D1384600F028FA02280FD0032831D160890022042100F0F0F8696954
:2008DC0000291CBF4B68002B26D00246042121E060890022102100F0E2F80646384616F0E0
:2008FC007FFD78B1DFF84C24117839B9811D4079012200F0010016F05BFD03E0DFF83814A6
:20091C0001200870686900281CBF4368002B03D03246052160899847608800F089F906E0FF
:20093C00608800F0EBF90146608800F0A2F9217904F10800BDE8F44016F036BDF0B5A9B0BE
:20095C0006460D46144616F04BFD08B91420A4E0A4220021684615F081FDADF800600DF1A0
:20097C002607DFF86463F078B17A279A8DF804005208F07A8DF8A0004B0801F0010040EA5B
:20099C00420222F0020203F0010342EA4302080922F4807200F0010042EA0022480922F4BA
:2009BC00007200F0010042EA4022880922F4806200F0010042EA8022307B890822F004028E
:2009DC0001F00101022842EA81020CBF012000202792787416F0E4FC412807DB307B00B1F1
:2009FC0008209DF8991008438DF89900707BB8B10121B974202206F184010DF1390015F06F
:200A1C0023FD202206F1A4010DF1590015F01CFD202206F1C4010DF1790015F015FD00E0DB
:200A3C00B874707A8DF8050088B1C44F102207F110010DF1060015F007FD9DF89900082808
:200A5C0005D1102239460DF1160015F0FDFC307A8DF8260028B11022B9490DF1270015F055
:200A7C00F3FC307948B1022D18BF032D03D1279840F002002790012100E000219DF89900C6
:200A9C000143B0788DF8991000B1042001438DF899106846214616F07FFC29B0F0BD2DE927
:200ABC00FC41154615244FF6FF72904288460DD10027854EB179F8B2884216D22A4641469E
:200ADC00FFF7A2FB00B100247F1CF3E716F088FC50B100F00DF840B99DF804002A46414614
:200AFC00FFF792FB002400E014242046BDE8F681002100910023417901AA01F00101801DCF
:200B1C000CF0C4BF70B504460D4606204543082B88B0164603D1300758BF223500D521355F
:200B3C001C220021FFF72BFE01AA1C21E8B214F035FC78B99DF81E00C01F0A280AD20C98EF
:200B5C000090F20801AB02F0010206F00101204616F01EFC08B070BD38B516F015FC0024C3
:200B7C00594D0FE0A8690622FF2100EBC40015F07EF828B9A86900EBC401002016F000FC7D
:200B9C00641CE4B2A8798442ECDB31BD3EB50C4600250146009500F00BF838B99DF80400C4
:200BBC00FFF7E6FCC00601D401203EBD00203EBD002301AA20460CF069BFF8B506460F46C9
:200BDC0015460C2015F0B2FD040019D02681A77200202060E07245B10821284615F07EF916
:200BFC00606018B9FFF7C1FC0BE060605548016811B9046004E0014608680028FBD10C60BB
:200C1C000CB91520F2BD0120E0722A4639463046FFF794FE04462C48406900281CBF43689A
:200C3C00002B03D000220021304698472046F2BD38B505464348046803E02089A84204D074
:200C5C002468002CF9D1012032BDE07A012807D100F05EF820B11C48007804210CF0A6F8D9
:200C7C00E17A491CE1722846C9B200F002F8002032BD38B502290446134D02D003290DD0C6
:200C9C001EE042F6C921FFF7CBF902001CBF6869002818D04368B3B105210CE042F6A62180
:200CBC00FFF7BEF901001CBF696900290BD04B684BB102460421204601B0BDE83040184712
:200CDC00BDE8324002E031BD9C1A002010B51D4B1968002201E00A46096851B10C8984426C
:200CFC00F9D10868002A0CBF18601060084615F025FD002010BD0000680F0020024604205C
:200D1C001049096819B10B899342FAD1C87A70470C48006828B1006818B1C17A0029FAD101
:200D3C0070470020704700002CA10100E032002074320020AA0F0020E1320020A02F002048
:200D5C00D02F00207832002038B5244C2070A171E271C80015F0EAFCA061D8B1A279D20012
:200D7C00002115F07BFBA07915F0E0FCE06108B9A0690DE0A2791A4D002115F06FFBA0799E
:200D9C0015F0D4FC286050B9A06915F0D7FCE06915F0D4FCBDE83240042014F047B9A27978
:200DBC00002115F05BFB04F1E40016F0E5FA2178062016F0DDFAFFF7EFFB2A68A179052090
:200DDC0014F0ECFA48B1002004E02B68091A4A1E1A54401CA1798842F7DB31BD9C1A0020AE
:200DFC00743200202DE9F04FBA4D4FF0FF30686000262E604FF00208C5F80880ADF1240D6E
:200E1C00EE60102015F0BEFE286140B1066005F1140141602C69866005F15007E76088A0B4
:200E3C0068610827EF614FF0FF34AC6140202D6215F0A8FE05F114043146A74B686218B12B
:200E5C00CA00865082185360491C0829F7DB7FA028650327AF654FF0FF336B651820ED656C
:200E7C0015F090FE002828660AD07CA101609B4941607CA28260C16002D07CA2026141611A
:200E9C00AE624FF0010BC5F830B04FF0FF30E86208206C6315F076FEA86318B1066005F1E6
:200EBC003C01416073A00627E8634FF0FF346F6405F128032C643020AB6415F063FE0746A5
:200EDC00002FEF6418D071A038608548786071A1B960F86010D071A1396173A2786107F149
:200EFC0018042260F86107D071A1396275A2786207F128042260F86216F036FA11F072FFC2
:200F1C00071C00F0338514F049FB76498446304631F80C4F002C40F025854FF6F879A1F8CA
:200F3C0000904F60704C8E60796820706046E16015F05CF904F140073146384616F010FAB9
:200F5C006A4841F28832334627616949009004F14C0012F02BF8674F67493246152307F11F
:200F7C0021000090102007F0D1FB644910203246434607F0CBFB4FF4806059463A4605F0DF
:200F9C009FFA40F2024059467A1C05F099FA40F203405946BA1C05F093FA40F206405946E8
:200FBC00FA1C05F08DFA40F2114059463A1D05F087FA7A1D40F20D40594605F081FABA1D98
:200FDC0040F21240594605F07BFAFA1D40F20C40594605F075FA07F108024FF48360594609
:200FFC0005F06EFA07F1090240F20740594605F067FA0A3740F2144059463A4605F060FAD2
:20101C00D14910204FF0FF3207F080FBCF4910204FF0FF3207F07AFBDFF834A3CD4F10206A
:20103C001323CD4A00905146019707F06FFB202015F0A8FDD94F0146B96000296ED05FE00F
:20105C00576F726B207769746800C046536574204175746F436F6E6E6563740044697361BF
:20107C00626C650047726F757020410047726F757020420053657420436F6E6E2050485959
:20109C0020507265666572656E63650031204D62707300C032204D62707300C03120262037
:2010BC0032204D62707300C0436F64656400C0463120262032204D6270732C202620436FCC
:2010DC00646564004175746F20504859206368616E676500102E0020C5360100A98B000009
:2010FC0005B40000841C0020E00F002018230020F5470100D81C002005180100111C021043
:20111C0009F1070013F07EFAC549102007F11402009011230191514607F0F8FA03238DF86A
:20113C00188058468DF8193004228DF81700BD498DF81A200DF10E0330460A6809791A6015
:20115C000DF11702197159460CF00CFA5846594606AA0CF007FA404659460DF119020CF00D
:20117C0001FA032059460DF11A020CF0FBF9042005210DF10E020CF0F5F904F1140004F14C
:20119C003802A9497860102007F0C0FA207813F02FFEA6490246102007F0B8FA207813F0DB
:2011BC0027FEA3490246102007F0B0FAA1491020FB2240F6480307F0A9FA9F49102007F088
:2011DC00A5FA9E4F07F1180007F10C010CF0D8FF9B49B86015F0B2FBDFF834A3B8684FF4C0
:2011FC00E0215246521E13F087F8B8684FF4E021524613F081F8DFF830A3B8684FF0C051B6
:20121C005246521E13F078F8B8684FF0C051524613F072F8C549009607F12400C82233469F
:20123C0011F0C4FEC248786009F105000FF038FF207813F0DDFDBF49034640460422B04650
:20125C0000901020CDF8048007F060FA04F1E4073146C02238460FF0ADF804F1E40B09F1DF
:20127C0007060820401E27F8186BFBD14FF0FF30414610F025FEA06041464FF0FF32C8A0DA
:20129C002860284614F016F9A068DFF8289358B1AF684FB1494607270861CC4E0F70284642
:2012BC00CE6013F009F9A0684D4629784246CBA313F06BFFE06800214FF040424FF0FF33A5
:2012DC0016F04AF800280890F4D0002002900DF1160102AA03A813F01BFB002840F0A18175
:2012FC00BDF80C00102840F0988120789DF81610884240F09281029908884FF6FF7282428B
:20131C0000F08B810E463078913827D01F3803D0203800F07F8180E13379A0682A787E2B27
:20133C0004D07F2B0AD10989B2A301E0317AB5A30091521CD1B2002213F027FF317906F1FF
:20135C00080016F031F868E101560100D1590100154F01008CA501002C16002070780E3847
:20137C0044D0401E29D0401E00F032812E3840F05481B0780C2840F05081F778A068297805
:20139C009FB9F279012A0BD0022A08BFC5A208D0032A0CBFC4A2C6A203E0C0465C170020F4
:2013BC00C9A20092891CC9A301E0491CCCA3C9B2002213F0EAFE0C2014E0B08842F2320107
:2013DC00814240F02A81B278A06829781A2A1ABF0092C8A3CFA3491C0022C9B213F0D5FE1C
:2013FC0042F2320031460EF0A1FD16E1B168B788087841F20542BF1A24D0A7F62B47002F04
:20141C0040F00B81002840F00881C878009008790190A1682878D3A38C46C01DCFE0C046AE
:20143C0098A5010065A60100B5560100D96C02102D6D02100D520210397F0110B81E002007
:20145C008D410100B168491C91F902A0002840F0E4804A78087800EB022014F015FDD4F80A
:20147C0008C095F800E00746082F80F2A580BAF17F0F00F08880F90001EB07110BEB0106D5
:20149C00727C531C88187374584480F80CA0727C052092FBF0F343430BEB0100D21A0C3064
:2014BC0000210523727410F9012B5B1E0A4411B2F9D1052091FBF0F040B2B074F37C002B17
:2014DC0061D110F11F0F4FF0000904DD337D022B18BF002B30D196F9120010F11E0F07DAD6
:2014FC0010F1290F04DD337D012B18BF002B17D110F1330F04DD10F1280F44DA337D4BB9C2
:20151C0010F1320F3FDA04224FF0020915E0C0460E00058004224FF001094FF006080EE0AC
:20153C004FF0010842460AE00E000010756301000F590100CDA5000002224FF00208737DA6
:20155C00984502D1B07D022801DB98451BD0308811464B4612F024FF0120F074707D8045C8
:20157C001CBF0020B075B9F1000F06D0B9F1010F14BF4FF002084FF0060886F81580D4F89E
:20159C0008C095F800E0F800CDF800A000EB0710584490F91200C9A301900EF105000EE075
:2015BC0053696D706C65205065726970686572616C00C046282100200EF10100C7A3C1B22D
:2015DC000022604613F0E1FD27E0C04691CA00000820002106F0EEFA1FE0C0463D3D3D3DBE
:2015FC003D3D3D3D3D3D3D3D3D3D3D3D3D3D3D3D00C046C04D54552053697A653A202564A5
:20161C0000C046C046432056696F6C617465643A20256400084600F035FA029808B115F05F
:20163C0074FA0898C00FFFF445AE206915F090FE00287FF43FAE2069064615F085FE864202
:20165C0008BF002602D0866812F0F6FF002EECD03078401E082800F27D81DFE810F056019C
:20167C00ED00C700A3008D00730079017301090070684788384614F007FCA1682A780828F9
:20169C000DDAC10001EB00115944C87D012840F06181BA493A46102007F038F85AE1571CE4
:2016BC008EA39BE0324D00C0434F44454400C046556E657870656374656420504859205622
:2016DC00616C756500C046C0314D00C0504859205570646174656420746F20257300C046AA
:2016FC00504859204368616E6765206661696C75726500C0504859205570646174652053C8
:20171C007461747573204576656E743A203078257800C046504859204368616E67652066D8
:20173C0061696C7572652C207065657220646F6573206E6F7420737570706F72742074689E
:20175C00697300C002200DF11B0111F0CFFF002840F00081032001210DF11B020BF002FF91
:20177C00F8E0C046525850683A2025642C20545850683A20256400C07768787A48B1804845
:20179C0000902978A06800227EA3C91CC9B213F0FCFC7B4800907849FA880023102006F077
:2017BC00B5FFD7E072681079A1682F781278DAB1521E10D0521E08D0521E40F0CB800028CF
:2017DC000EBF74A3009078A307E0002808BF7CA303D080A305E018B984A3FF1C8846ABE022
:2017FC0086A3FF1C8846A6E089A3F6E77768A26828783968491E0CD0491E08D00E3912D156
:20181C0079680B780093498885A3019105E08DA300E091A3796809780091001DC1B2104628
:20183C00002213F0B2FC3868B0F1004F00F09280786812F001FF8DE070680078010923D289
:20185C004009C0F087800E2014F0B8FD002840F081806A68A8689168814213D0B0F1FF3FCC
:20187C0078D0116951F830702FB901EBC001486812F022FE6EE0116901EBC0014968C0B2A2
:20189C00884767E0D068F3E70D2014F097FD002860D16968A8688968814208D0B0F1FF3F9A
:2018BC0009D0401C13F000F8B0F1FF3F02D1002012F0FAFFA8600AF001F94BE052535349A7
:2018DC003A25642064426D2C2041564720525353493A25642064426D00C046C0436F6E6E21
:2018FC00656374696F6E2068616E646C65206973206E6F7420696E2074686520636F6E6E2B
:20191C004C6973742021212100C070682F78D4F8088000787F1C38B1801E1BD1022007A9A1
:20193C0011F0E4FE51A304E0002007A911F0DEFE51A39DF81C000090F9B24046002213F098
:20195C0024FC07E07068B0F801000BF0FBF805E010F0F8FB706808B112F06EFE304612F0A6
:20197C006BFE62E6401C0628FFF4D2AA15F030F909B0BDE8F08FC046294801000D2B0210D4
:20199C0040E2010050617373636F64653A20256400C046C0426F6E642073617665207375D3
:2019BC00636365737300C046426F6E642073617665206661696C65643A20256400C046C074
:2019DC00456E6372797074696F6E207375636365737300C0456E6372797074696F6E206636
:2019FC0061696C65643A20256400C04650616972696E672073756363657373005061697274
:201A1C00696E67206661696C3A20256400C046C050616972696E6720737461727465640026
:201A3C00416476205365742025642064697361626C656420616674657220636F6E6E2025DD
:201A5C006400C046416476205365742025642044697361626C656400416476205365742031
:201A7C00256420456E61626C656400C04368617220333A20256400C04368617220313A2099
:201A9C00256400002DE9F04F0646C84DC34CB2782878A168ADF1240D002A00F1010000F02E
:201ABC008781C14B521F0FF2E42900F0BB80521E4DD0521E1ED00A3A40F03A82B088B77BC7
:201ADC00ADF8080070898DF8127060B9ADF80E00B089ADF81000F188ADF80A103789ADF8E6
:201AFC000C70012000E00020AD498DF8130002AA0D461BE1AB49B288102002AB06F006FE9F
:201B1C002D78A768F078AD1C30B90DF10A0010F0AFFF89A3009007E00DF10A0010F0A8FFD3
:201B3C00B17800918AA30190E9B23846002213F02CFB04F1300013F0A9FE041C00F000824B
:201B5C0020890AF0FFFF204612F076FDF8E11946102006F0DBFD5FFA80F82978A06800221B
:201B7C0084A3491CC9B213F010FBCDF800802978A06800224B46891CC9B213F006FBB08837
:201B9C00814614F081F908282CD0C60006EB00163619E436B068071C0ED015F025F810B186
:201BBC00384615F013F8384615F0CAFB384612F043FD706812F040FD04F1300007684E4634
:201BDC0057B182463889864203D15046394613F0BEFC3F68002FF5D1304612F09DF93046CA
:201BFC000FF05EFAB8F1000F08D104F14C0014F0EDFFCD480221012213F05CFC002600963E
:201C1C00CA4FA27810203346394606F07FFD0096E27810203346394606F078FD2878A168AF
:201C3C00C01C87E11946102006F070FD5FFA80FBCDF800B02978A06800224B46891CC9B28D
:201C5C0013F0A3FAB04698F80100002851D1B8F80AA004F1E409082000264FF6FF72A9F11D
:201C7C00180737F8181F8A4204D0401E06F10106F7D127E0A7F800A0032014F083FF786038
:201C9C00D0B1082101707868A0F801A0242014F079FFB86018B9786812F0CEFC0CE0F000C3
:201CBC0000EB0610484441680091B249806841F27072012311F07AF9F000012100EB06109E
:201CDC00484401752D78A66808F1040010F0D0FE6D1C009000229CA3E9B2304613F055FA8B
:201CFC0091480121022213F0E5FB04F14C0014F06BFFBBF1080F12DA607880B9002600969B
:201D1C008A4DA27810203346294606F0FFFC33460093E2781020294606F0F8FC10E1964DEA
:201D3C00E2781020294606F0F1FCA2782946102006F0ECFC04E1C0464C696E6B2050617258
:201D5C00616D20557064617465643A20257300C04C696E6B20506172616D20557064617443
:201D7C0065204661696C656420307825783A20257300C04644657669636520446973636FBE
:201D9C006E6E65637465642100C046C04E756D20436F6E6E733A20256400C046E00F002016
:201DBC00D9570110F9DC0110AD3E021028210020B14699F80170002F40F0C280337A8DF8AE
:201DDC000A30B2798DF80820F7798DF80970F37A8DF80F30727A8DF80D2000278DF80C7070
:201DFC00B37A8DF80B7002AA8DF80E30634B166852681E60C6B2084631465A6056A33A4657
:201E1C0013F0C3F9A01CDFF87CA1604E5C4900905246102006F1380306F078FCC0B208B1C5
:201E3C0014F047FA4FF00B0806F10B00CDF8008055490190A2783B46102006F067FCC0B2E3
:201E5C0008B114F036FA1C2006F1540300904E490193A2781020012306F058FCC0B208B151
:201E7C0014F027FAA2784A491020922306F04EFC0097DFF8B8B0A27810203B46594606F019
:201E9C0045FCC0B208B114F014FAE01C3C490090524606F17003102006F038FCC0B208B110
:201EBC0014F007FACDF80080163601963649E27810203B4606F02AFCC0B208B114F0F9F912
:201EDC00E27833491020922306F020FC0097E278102059463B4606F019FCC0B208B114F09E
:201EFC00E8F92D78A66809F1060010F0C1FDAD1D1FA100913A461BA30190E9B2304613F076
:201F1C0044F910F01FF9234840F6B83201231949009004F1700011F049F81F4802213A46FE
:201F3C0013F0C8FA0CE0C046102E0020ED740110421CD6B2C2B208461146324614F0B0FCD7
:201F5C0009B0BDE8F08FC046436F6E6E656374656420746F20257300496E697469616C6901
:201F7C007A656400257320416464723A20257300494400C0F547010065020210971500200E
:201F9C009901011091550100FDA60000D81C00201DEF011019230020102E00202DE9F84FA8
:201FBC00DFF8B454A9780024FF2904BF002013F03DF8A87814F0F8F9054605F1680605F5E0
:201FDC00C9773168086805F1900808B1EC8311E0B07B002804BFB07E00280BD198F800100D
:201FFC00002904BF3878002804D1287F012804BF688CE8832989E88B4118491C69812846FF
:20201C0015F09AF901281EBFDFF850040178012903D12989EC83491C69814FF6FF79B07E09
:20203C0001280DD1B28B6989288915F081F938B1298968894A1C93B298422FD0B08B23E0D0
:20205C0098F8000001280FD1B8F802206989288915F06EF940B1298968894A1C93B29842D1
:20207C001CD0B8F802000FE03878012816D17A886989288915F05CF980B1298968894A1CBE
:20209C0093B298420AD0788892B2904206D04844688180B215F048F94844E8833878012882
:2020BC000ED128897988401C80B2884208DB7C793C71002038702346A97922460AF0AAFD3A
:2020DC0005F59A71087920B128890021401CE983688105F12E08B07E012845D12A89B08B83
:2020FC00521C92B290423FD1688105F18601284615F016F9B08C688400212977E983E88982
:20211C0069894118A981B08B298915F00DF98146B8F80410308C728C01FB0909F08C8A429B
:20213C0004BFB8F80810884202BFB38CB8F806108B4207D000090090B38CA9795208002050
:20215C0015F0EAF8B07F88F80000718CA8F80410B08CA8F806002846F18CA8F8081015F092
:20217C00D7F80220B07601E0B8F80490EA8BDFF8F0C2501C00FB09F040F6C41909FB00F1A1
:20219C0000912B68D3F80CE07144D960DCF800E0B4499EF800A00B884FEA9A1ABAF1030F36
:2021BC0017D1DFF8C4C29CF80FE05FEACE7C48BF00230ED45B1C1FFA83FCBCF1010F11BF00
:2021DC00B5F812C005F59A7EBEF806C00CF2DC5C01E0B5F812C00CFB00FC4FF4C87EBCFBFD
:2021FC00FEFC0CF1010CC5F814C00B80A86185F820204FF01C0BDFF874A2AB79DAF8000094
:20221C0000F108021BFB03F3D1582A68116100F10801AB79D26868691BFB03F3121ACA50F3
:20223C00DAF80000AB7900F108021BFB03F3D1582A68916000F10C02A9791BFB01F10C3074
:20225C00535C03F0F00343F002034354DAF80010AB798A1C1BFB03F30021D152387908B990
:20227C0012F0E4FEDAF80000AA7900F1100138791BFB02F240088854A879DAF800101BFB6F
:20229C0000F00844002141743879042814D1A879DAF800101BFB00F001F110021031135C91
:2022BC003A7A43EA82030B54AA79DAF800001BFB02F2024420205074DAF80010A87901F1FF
:2022DC0012021BFB00F0002111526949A8790A6802F114034FEA401C143253F80C00AB799F
:2022FC00D5F814C05B0100EB4C00D050B07E02280DD10A68AE7902F11403760114329859E7
:20231C00AB7998F800605B0119FB0600D0505648C27BD0075CD5DAF80000AC7900F1080321
:20233C001BFB04F408301A59AB791BFB03F3A2F5A862C250DAF80000AC7900F108031BFBDC
:20235C0004F41A592B689A600098121A1A610868AC7900F11403640114301A59AB795B01F1
:20237C0002F5F662C250387904280BD10868AC7900F11403640114301A59AB795B0102F5F7
:20239C006162C2500868AB7900F114025B01D058C5F834016427374A0B68106BAE790068B2
:2023BC0003F11C04B8F804304343B3FBF7F7760109FB07F0A0F59660A0512F480378012BDB
:2023DC0030D10868A97900EB41120120D07230E0042C0BD10868AC7900F11403640114304B
:2023FC001A59AB795B0102F56162C25038790A68AC7904280CBF4FF4AA504FF4E66002F10A
:20241C00140364011A59101AB8F8042009FB02F2A2F516729042BDD30821284614F074FF2C
:20243C00012016E0506A0968AA79407801EB4213D872A879DAF800102A681BFB00FB01EB46
:20245C000B00506007210D480170284610F08AFB0020BDE8F28F00BF780E0020D10F002019
:20247C003C0F0020D0320020980C0020980E00209C0E0020A0A70100CC0F0020C80F002025
:20249C002DE9F04FCA4C05462078ADF15C0D032840F045824FF0000B6846182284F800B04B
:2024BC00082384F801B0594614F0A8FA6846594612F028FC20612E22594604F130000DF05E
:2024DC0079FF04F130008146FF210A220C300DF071FF12F0E5FC2946584610F06BFE04F139
:2024FC001801E06014F0ABFA206AE169B1FBF0F2D7B284F83070022FC4BF022784F83070BE
:20251C00E770B0F5005F04D1E068B1EB473F00D310B90120207004E2FF2184F83310D846D5
:20253C00CDF828805E460B960C960D960E960F9613960A46109211921292149215924FF4CD
:20255C000055E58659461691B74200F30B81139E002E3AD10F9E002E28D1B8F1020F25DA6A
:20257C000E98022822DA0B9802281FDA0A9887421FD00E9E9EB9B8F1000F0ED10D9E0C986A
:20259C0006430FD15D46AF4213DD28460AF0CAFE6D1CEDB2E7786070F5E7012016E0B8F14F
:2025BC00000F01D1032011E002200FE05D46AF4201DC58460AE028460AF0B4FE6178E778AE
:2025DC006D1CEDB201436170F1E705200028A07000F0B180401E70D0401E00F09280401EF0
:2025FC001DD0801E40F09C811498FF2804BF1598149084F8330094F833200C2684F8312073
:20261C00D019401E90FBF7F17943401A84F8320012FB0690808BE08606F0EEFE87E0002F94
:20263C0008BF5D460BD009F10C0138465D4611F80C2FFE2A03D0401E05F10105F7D1AF42BF
:20265C003ADD0C2084F83C5015FB0090817E84F83D10C07E84F83E0009F09AFBE2782D1886
:20267C0095FBF2F050432D1AE8B284F83200401C90FBF2F15143401A84F831007C2011F0A8
:20269C00AFFDFF2810D17E2011F0AAFDFF280BD1FF2011F0A5FDFF2806D1782011F0A0FD2B
:2026BC00FF2808BF94F8310084F833000C2110FB0190808BE0864FE0FEE71098129E84F882
:2026DC003200FF2E00F1010090FBF7F101FB07F1A0EB0100C1B284F8311008D11198FF28C1
:2026FC0004D10C20129111FB009005E012901299880000EBC100484484F83310808BE0865C
:20271C000EE1DDF8408008F1010084F8328090FBF7F17943401A84F831005FFA88F00AF0F0
:20273C0001FE6070FE215FFA88F012F08DFB584602F0ACFAF4E084F831B0781E594684F81C
:20275C0032000C2684F833B011FB0690808B7E21E086584612F078FB94F83200FE2112F0F6
:20277C0073FBDDE00C2116FB019706AA0423710314F06AF9069807F11605010EB1F1960A88
:20279C0018D1C0F38541C0F3014040EA8100022810D187F819B09DF818002870FF223A76B3
:2027BC009DF81930FB7530460EF0EEFDB88373E0641D00203046594607AA13F0DBF830460F
:2027DC00012108AA13F0D6F83046022109AA13F0D1F8DDF818C00CF0FF010CF0FF00FF2954
:2027FC0009D0FE2907D07E2905D07C2903D0782918BF702909D15FEA0B0706D1CCF3854150
:20281C00032908BFBAF1000F1ED030460AF08AFD0746002FE06867703FD1710306AA042314
:20283C0014F012F93046594607AA13F0A3F83046012108AA13F09EF83046022109AA13F0D7
:20285C0099F8069800F0FF0028709DF81900069F6870C7F30140E8709DF81E30AB70297889
:20287C00FF290BD0BDF81C00FE2907D04FF6FF71814204D130460EF087FD00E01020E880AD
:20289C009DF822002871BDF820702F819DF826306B71BDF824206A81E0682978FF2936D015
:2028BC00FE292ED07E2926D07C291ED0782917D0702910D0A52908D0242904D00F99491CD2
:2028DC00C9B20F9127E0159600E014961399491CC9B213911FE00E99491CC9B20E911AE036
:2028FC000D99491CC9B20D9115E00C991296491CC9B20C910FE00B991196491CC9B20B9123
:20291C0009E008F1010710965FFA87F803E00A99491CC9B20A91E778761CF6B214E66070CF
:20293C00607817B0BDE8F08F2DE9FC47D34C0F460546F80B80F0FC816078DFF84483B90F72
:20295C0080F0A081B90880F09081F90A80F0FA80390B80F0C580380907D2F80FC0F01E8231
:20297C0027F080470EF0D6FF18E214F003F9814613F0A0F8002800F0AD80082013F0F0FFCF
:20299C00002840F0A780802013F0EAFF002840F0A18068460CF0BAF8012803D1009800287E
:2029BC0000F0988000250126E8B213F043FD48B1837A3BB1867290F9090006FA00F0C0B2FC
:2029DC0011F0D2FC6D1C032DEED30320207604F1D40014F0C9F8484614F092FCD1480025ED
:2029FC002A460168056050F8081CCF4940F8085C04F13C0012F09EFF40460068006B80476D
:202A1C00A168401A010B206AC1F1FF3282422CBF08444FF0FF30206294F8240020B12069C9
:202A3C00216AB1EBC02F25D913F054F8294600B13146081C1BD0BD4840F6090101804580E6
:202A5C00417B06F00F0221F00F010A434273017B05F00F0321F00F0143EA010202732946BC
:202A7C00416013F04BFE418811F4406FFBD084F82460256210F056FBCC4829460560022023
:202A9C0012F0E6FD022012F04DF811200AF0BEFA207818B96068483014F07EF8C448007842
:202ABC0010B90E200AF0B2FA94F8250020B184F82550052012F036F8BE48E0612576B4F906
:202ADC00AC00B4F9AE10884214BF022007200DF0A9F902E0484614F013FC27F0080741E76D
:202AFC0020B1042012F01EF800206070656811F01FFC38B12846ED696FF4807100224FF072
:202B1C000073A847E06858B140460068006B8047E2686168801AC860000BC8600026E66052
:202B3C00A54904F13C00002212F004FF0221D4F89800217618B104F5907014F03FF827F4FD
:202B5C0000670FE714F016F8064612F0B3FFD4F890100028894600F0828000297FD097493D
:202B7C00042504F13C000022257612F0E3FE304614F0C6FB04F1D40013F0F6FF4046006855
:202B9C00006B8047E0604FF0010884F80180284611F0E0FFD9F810006060D9F81000416AE7
:202BBC00C90803D3036A29460022984740460FF0C7F8606880F81580606806F0C7FC65680E
:202BDC00D5F808A040F60A02D01F564600F1010C00E01E46736833B119888A4203D088428C
:202BFC0018BF8C45F5D100217160727B08F00F0322F00F0213437373D9F80C20128890429A
:202C1C0024D06046904221D02B8E03B3696305F13002518095F83C0001F00F0320F00F001C
:202C3C00034385F83C3095F83D0008F00F0320F00F00034385F83D307260707B01F00F0564
:202C5C0020F00F0045EA0001717300E0E160504613F054FD5146404612F0FAFC02E03046AD
:202C7C0014F04EFB27F4806798E007F0F5FED4F8980008B927F0020790E0C0462823002061
:202C9C008C0100104E4A116841F08001116020B1042011F047FF0020607013F06BFF8246E6
:202CBC00D8F85400016804208847D0B1287DC0B1A068B0B18146D8F800002E69006B804718
:202CDC00A0EB09002861000B2861B04202D280194008286140F6C41181422CBFB0F5967F84
:202CFC002961504614F00CFB11F022FB80B1EE6928466FF4807100224FF00073B047D4F88E
:202D1C009000002808BF47F0020701D00EF002FE2846AD6900214FF080630A46A84727F0EC
:202D3C0000573BE014100440E1240100D431002013F020FFD4F8A86066B306F1280106C974
:202D5C000A234FF0E0450B40154008BF002B21D106F1280191E8000306F1280595E80600FF
:202D7C0006F1280322EA090221EA080183E8060014F0C6FAB16879B1B9F1000F08BFB8F149
:202D9C00000F09D03069B6F93010B5684B464246A84701E014F0B4FA27F4804727B104F53C
:202DBC009070394613F00AFFBDE8FC870000046076A50100BDBC000009B60000B15A010080
:202DDC00CC2108402DE9F04F0F46780689B027D5DFF8F8231078002114F08EFA04001FD02B
:202DFC00DFF8EC0301688847054613F077FC6168884204BF40F2014014F07AFA0020207205
:202E1C00201D0CF077F9DFF8CC130A6828469047204610F0CDFFFF223C21204614F064FA08
:202E3C00B80604D508F0D3F887F02000CAE1F8070CD513F053FC30B100218160DFF8980353
:202E5C00006800B1804787F00100BBE1380704D508F0C5F987F00800B4E1F8060FD500217D
:202E7C00002200230691059204910393029101920091022014F034FA87F01000A2E1B807C4
:202E9C000FD500210023069105910491039302910191009101223C2014F022FA87F00200C8
:202EBC0090E179074FF01E08CC4EDFF834A340F1CF80CC480022002108920791007814F053
:202EDC001BFA0446C8488178FF2904BF002012F0ADF8A07A13F068FA05469AF8000095F8D3
:202EFC002E91002805F5947B69D0606D807A022818BF032807D130680D3014F0EDF910B93A
:202F1C003068C11D07915946484614F0E1F9A0B3606D807C3368002818BF012804D1194669
:202F3C00584614F0D1F904E05A464946184614F05BFAFF2843D018FB00F8306840440622B6
:202F5C005946C01D13F080FA306810F80810404400F1010BC01D41F0020908900622616D7C
:202F7C00C87A00F0010085F82E01606D00F10C0105F5947013F068FA21E05946484614F0F6
:202F9C009FF9E0B130685A46494614F02DFAFF2815D018FB00F8306840440D3014F09CF9F1
:202FBC0058B9306840440D3014F096F9002801BF30684044417F012901D149F0020905F1FE
:202FDC002C004B46017806914289120905920122698C0491C0880899029140080390CDF8C2
:202FFC0000B0079801900020A97914F079F9D5F89C017E498842A8790CBF0021012114F0EF
:20301C005BF97B49AB790A6838204343134401225A70AB790C68434323449A70AB790C689D
:20303C0043432344DA700C68AA79231D424301249C54AA79096810FB02F00844002141711C
:20305C000122A97907200CF09DFA87F00400B9E038060FD500210023069105910491039383
:20307C0002910191009101223B2014F039F987F08000A7E0F8045DD55E4930680C680D302E
:20309C0014F02AF9002844D13068C11D0D3014F00FF93EE0606D4178480704F13E0526D5CB
:2030BC00287802281EBF03286878012830D16978306804F1380214F097F98146B9F1FF0F5D
:2030DC0015D0306818FB09F948440D3014F004F968B930684844C11D0D3014F0E9F830689B
:2030FC004844C11D062204F1380013F0ADF92878022818BF03280BD130680D3014F0ECF8E7
:20311C0030B93068C11D062204F1300013F09CF92468002CBED13848DAF8042000784FF4D7
:20313C00805110F027FB10B18E2014F0BDF887F4805047E0B80505D513F0C4FB2F490120F4
:20315C000860FEE7780504D50DF06DF987F4806038E0780405D5812014F0A6F887F4804006
:20317C0030E0B9042DD5264C206810B1002011F05DFF4FF0FF3020600020224C0DF008FAB1
:20319C00216851F8202F684690471F494A6B086BC96A24681D4B019200900293ADF8101039
:2031BC006B461B4A1B491C4803921C4A079225681B4AA8471B49086004F036FB87F40050E4
:2031DC0000E0002009B0BDE8F08F00BFD50F0020401C0020441C0020480F0020680F002029
:2031FC00880E0020D70F0020780E00204DE50110543200204C0F0020C70F00207C05204313
:20321C00380F0020200F0020C41D0020D9660100E9660100A4210020280800201EFB00807D
:20323C00EC0A00201C0F00202DE9FE4307460025B978DFF8346410293CD8DFE811F0110082
:20325C0002020202020202023C0048000202020265018E007900B60102023B017C01FA01DA
:20327C007878002826D114F01BF8044614F014F8064614F00DF88DF800002246102102201D
:20329C0012F0B4F832461021032012F0AFF86A460121042012F0AAF89DF80000012818BFC0
:2032BC00032807D1012013F0EFFF02460621062012F09CF8C5E178780028FBD1F8783B7B02
:2032DC007A89391D00F00100FCF71AFFB9E1B888FDF7FCFC13F0D4FF0028F7D1307C01281B
:2032FC0008D1FDF7AEF9F06935740422002113F0B5F817E0707C012803D1FDF743FA75744B
:20331C0010E000240AE0F069E7B2C15D012904D1E0B2FDF7A7F9F169CD55641CE0B2B179A6
:20333C008842F0D3502012F005FCFDF735F988E113F0A2FF00280CD0706900281CBF0468F6
:20335C00002C07D0386900907B7B3A7B7989F81CA04775E17889012168E178780024002877
:20337C0040F09180B879C10740F18D800822002101A813F073F8B88814F032F804005ED0B7
:20339C007D69002D00F065810622002105F1110012F06DFC00B306220021284612F067FC9E
:2033BC00002818D1287C00F001084FF0000909F1010985F81190002000900023002241465D
:2033DC0005F111000AF062FB00285FFA89F040F03B810028EBD13AE17D69EDB1287C00F076
:2033FC0001008DF80A00062205F1110101A813F02BF86079012805D10622A11D04F10C0063
:20341C0013F022F8062205F11101A01D13F01CF8287C40F002006071B879410720794CBFAB
:20343C0040F0020000F0FD002071B879010720794CBF40F0200000F0DF00207106E0FDF759
:20345C0067FC18B13078042109F0B0FCB9799DF80B00890801F0010108438DF80B00B9794F
:20347C000A074CBF0821002108438DF80B00394601A8FCF77CFF0400B88802D1FDF7D8FB7B
:20349C0001E0FDF723FC706900281CBF4368002B0FD07A78B888012198477878002808D167
:2034BC00B879C10705D57369B88822465C680321A047C5E0787806281BD1B88813F090FF49
:2034DC00B8B1B17B012904D013D3032907D00CD30FE04179B8880022FDF76FFB09E0002201
:2034FC00002140F2094002F0EBFFB888052113F0BFFE706900281CBF4368002B03D07A789B
:20351C00B888022198479BE000950023F97801AA01F00101381D0AF0B9FA0028F3D19DF888
:20353C00043006204343253307F10C020421D8B211F05CFF84E0706900281CBF4368002B10
:20355C0003D0B888002200219847707810B9B88805216BE0B88813F043FF040071D0B87ABC
:20357C00C10712D5009500236179002201F00101A01D0AF08BFA00281EBF6079002801286E
:20359C0003D0F868C0F3402028B1307B022807D1B87A010704D4B888032113F065FE50E037
:2035BC006179B88807F1080228E0BD8897F80C80284613F015FF040042D013F05DFE00284A
:2035DC003ED100900023617901AA01F00101A01D0AF05CFA28BB9DF80400FCF7C9FF08F059
:2035FC000C01042911D008290BD00C290FD100F0090109290BD0617900222846FDF7DDFA37
:20361C001EE010F0090102D1F5E7C107F3D501220092A37C9DF8041002462846FDF772FAB4
:20363C000EE070780028E6D10521284613F01CFE06E0FDF76DFB18B13078042109F0B6FB86
:20365C0001252846BDE8FE8300287FF4C5AE002078610622607900F001008DF80A00A11D4E
:20367C0001A812F0F1FED7E69C1A00202DE9FE4F0446DFF8E803DFF8E8530278002A45D0C7
:20369C00052A53D0062A55D0072A18BF082A00F0CF80112A40F0DA81DFF8C83318780021A5
:2036BC0013F02AFE04001EBF606D407810F00C0F2CD0216DC0064CBF886CC86E062201682C
:2036DC0001F10806B11C684612F0BEFE307800F00F0105291AD16946C0F3801013F0F8FDEA
:2036FC00002813D02968684613F0EEFD0646296804F1380013F0E8FD86420DD0606D417859
:20371C00C80604D440F2014013F0F2FDA4E1607B40F0020060739FE12B681E204643981992
:20373C0006226946C01D12F08FFE95E1012013F097FD91E1DFF83063306813F08DFD0400F7
:20375C00F7D020790328F4D1207A00F00F01072937D1C64800684169497A4A1E11425FD05E
:20377C00617A04F10A035A5C02F03F02242A57DDA17A8A09012A53D111F03F0F50D0007CFD
:20379C0012F012FEE17ACA074CBF04F1110204F10B028B0748BF921D0B0748BF921CC906DC
:2037BC0048BFD21C1621127852094A43B0498B180A31F3608A5A428699898186DA89C286A5
:2037DC002EE000F00F0008282AD1A17A880927D131B3A6480168087C12F0E6FDE17A0746A5
:2037FC0088071DD5062201F0010112FB01F1601800F10C01684612F027FE207AC009FF283D
:20381C000ED0694613F064FD50B1286800F10D01684613F01DFD18B90521384613F074FD57
:20383C00207903281CBF002011F000FC306839E0904EB078FF2837D012F0B6FD074607F1D1
:20385C006C08D8F8040013F007FD02908DF8004002990879032801D0200025D0D1F808E0C8
:20387C00854B9EF8009009F00300019038225FEA896006D51968B87901F10A0450430121DB
:20389C002154019860B11968BC7901F10A00544300EB040C9DF800109CF8000029B120B9BD
:2038BC00D8F8040013F0D0FCD6E09EF801400EF1020AF8B11AF8010B00F01F018CF81A102C
:2038DC008009B979D3F800C05143614481F82500B879196812FB00F201EB020C14310A4471
:2038FC009CF824100CF1180308F0B0FB9DF8000000281CD10198032807F2171B1CD0BCB137
:20391C0098F8000068B107F1F400017801290FD1524A1178072904D0082904BFC0780128F5
:20393C0006D13D2101208BF801108BF8000093E052490A78012AFAD097F8940078B3241FE8
:20395C00E4B253462246494638460CF0F5FB00281EBF4B490878002809D101203D218BF89E
:20397C0000008BF80110286813F06AFC74E04548016888470546B97972684FF4D070414327
:20399C005018002280F8412107F59E700168807949080CF039FE3C490A68284690470298E1
:2039BC00002181600198032819D03848416909788A0709D541690878C1074CBF03200020E2
:2039DC0000191AF8000000E0812088F808002246019BB078DBB2514605F00CFF2DE09AF8A8
:2039FC0000005FEA896103D51B2804BF022C01241C2803D226490B5C9C4206D08BF802001F
:203A1C000721384613F018FC14E01448017808295146384607D113F0A9F858B9514638461C
:203A3C0013F006FC06E000F035F818B95146384613F0FAFB50460EF0C7FFD8F8040013F053
:203A5C0003FC0299384613F0EBFB05E0002011F0EDFA862013F0E0FBBDE8F78FC80F0020B6
:203A7C00680F0020D50F0020BC0A0020540F0020E0070020780E002054320020D20F0020D2
:203A9C00DE320020401C0020441C0020A0A7010040A801002DE9F84185B0044611F801CB0A
:203ABC0000203822BCF1030F04F5A47704F1660504F1F406DFF81883C64B00F0B380BCF1FB
:203ADC00070F00F06381BCF10F0F0CD0BCF1110F00F00E81BCF11A0F00F01F81BCF11B0FB0
:203AFC0000F0448171E1707A820703D40F2184F8191157E008784A7800EB02233B8088783F
:203B1C00CA7800EB02237B8008794A7900EB0223BB808879CA7900EB0223FB80087A3872B2
:203B3C004A7A887A02EB00237B81C87A0A7B00EB0223BB81487B8A7B00EB0223FB81C87BED
:203B5C000A7C00EB02233B82487C8A7C00EB02237B82C87C0A7D00EB0223BB82487D897D3C
:203B7C0000EB01229C48FA8201788A0658BF1A2212D504F5AA70049079890391387A0290F7
:203B9C0021890191F8880090BB887A883988204613F03EFB70B11E22707A410708D40F2077
:203BBC0084F81901204613F02FFB002837D1D6E00F21C3E004F18600798881800023BA8825
:203BDC00C2800222F988018102704380A18EC91DE983628E8188B1EB520F02BFC188A28E7A
:203BFC00914202BF0089E18EB0EB111F18D0287C012804BF687C0F2805D0687D18B10F210C
:203C1C00A976FE2170E0FC21204613F015FBF8880090BB887A883988A07913F0F1FACEE099
:203C3C00102161E0707AC20709D431781A200129707002D1FF220D213AE00D2154E00020BB
:203C5C002870A87101233371082204F1B00013F0D3FA0146022204F1B80013F0CDFA04F159
:203C7C00A80801460822404613F0C6FA07460821404613F0BDFA04F19C0804223946404644
:203C9C0013F0BAFA0421404613F0B2FA04F1A00013F0AAFA04F1980013F0A2FA4F4801886F
:203CBC0041F0800101803078012805D1FF220421204613F091FA82E06E7C0F2E18BF142E32
:203CDC0003D00E2E18BF0C2E0DD12F7C204613F07FFA0421204613F0AFFA012F12BF31468E
:203CFC00AE76FD2100E00421204613F0A5FA66E00D783D761A2D4978797666D11868A5790F
:203D1C00811D5543002048551968A37912FB03F20A445072A179787E4FE0A6791868097886
:203D3C005643064401F01F0516F82D0F890918B17078C840C70705D420221A21204613F04D
:203D5C0043FA3CE0F5701868A37912FB03F20244204682F82F10002107F02AFF78BB98F882
:203D7C0000004FF4804109F021F828E0A179186851430144888908B900258D71A179186807
:203D9C0012FB01F281180020487218E009780F2917D01A2919D1A17918685143014400203C
:203DBC008871A1791B6812FB01F2991848721A20F17A01F0FB01F172A1790BF015FE0120A8
:203DDC0003E0717A01F0FD01717206B0BDE8F081C70F002054320020200E00209C0F0020A6
:203DFC00C9480278112A00D070472DE9F84FC74A1078002113F080FA04000AD1002011F0C6
:203E1C0015F9002011F012F9BDE8F24FFF2013F003BA04F14C0999F8000008B90121E17276
:203E3C00401C89F80000C2B2E17DD9F804608A4229D2D9F808104A7AB17B277E0120A1F18A
:203E5C00250300FA03F3A7F125018840184322EA000000F007000FF0E3FB2530B073A18BC9
:203E7C00B06800EB8100B060607DC1060AD5628B99F80010A08B00FB1121B068A63100EB4F
:203E9C00810030663EE104F1280706F1900806F173054FF0000A4FD1A17F6975E07FA875CB
:203EBC00D9F808205278930710D5E27FD30604D5C91E697500F0EF00A875C6F874A085F881
:203EDC0000A00022A97D01F0FE0116E1910608D4F88B00B1F87E2876F88B00B1386AC8F8A6
:203EFC000000D9F808004178CA070DD5F88B00281CBF386A002807D0C8F80000B97EF88BC0
:203F1C00814238BF08462876E07FC1060BD5B06B397800EB8100B063A18CA63100EB81001E
:203F3C007067022002E0C6F874A0002028700022E17F01F0FC01E0E0D9F808205278D30733
:203F5C0017D5A87D697D00F0F700891E01F03F0182075CBF891D40F00200420644BF491E61
:203F7C0000F0BF00A8756975C8F800A085F818A0C8E0401AC0B2009090077AD5009801283B
:203F9C0006F1400B3FD1B06BA18C00EB8100B063A07F00F03F00A0776875E17FA975D9F85B
:203FBC00082053785A0704D5801F687501F0FD01A9750023697DFA7E9BF8000001F03F01EA
:203FDC008A18521CC0F3800192B200F0030013F0F7F800F59B70A0841E21A08C90FBF1F15C
:203FFC008AB2A97D01F0FE01204613F0E5F885F800A0F88B00B1F87E2876F88B00B1386AD2
:20401C00C8F800007EE00228B06BA18C00EB8100B06326D1E07FC10706D5687D811F697519
:20403C00A87D00F0FE00A8750023697DFA7E9BF8000001F03F018A18521CC0F3800192B267
:20405C0000F0030013F0BCF800F59B70A0840022A97D01F0FE01204613F0AEF8787FABF895
:20407C001A00797F0098491C081AC0B2012814DD0BE0B06BA18C00EB8100B063797F009825
:20409C00081AE17FCA06C0B207D5A28CB16BA63201EB820171670221297098B3D8F80030F4
:2040BC0097F81BC0E27FA17F6344C8F8003052084FEA4208D9F808205278530748BF28F049
:2040DC000208920748BF28F00808012807D1387F2876C6F874A028F0100885F800A001F08C
:2040FC00C006404613F064F800F03F003043687585F81680002208F0FC012046BDE8F84FFE
:20411C0013F05AB8BDE8F18FC80F0020D50F00202DE9FE4F0422FF2101A812F09FF9B94960
:20413C0088780024FF2800F06A8112F03DF9054605F217100178012908BF417800F0B68053
:20415C0005F1740005F59276817B022904BF05F174018C73F18911B1307B08F027FE68898E
:20417C00A94F2881FA79BB7A397BF87A97F80DC09B185B181B1805F58D7903EB0C08B9F84C
:20419C0000C0B9F80430C4445B1CA9F800C0A9F8043097F80AC0B9F802306344A9F80230F3
:2041BC0033683BB3DFF864E2DEF800E00EF10E0ACDF800A04FF01C0A95F806B01AFB0BFA49
:2041DC00DDF800B01BF80AA033F81AB0C34423F81AB00EF10E0A95F806B04FF01C0E1EFBC4
:2041FC000BFB1AF80BA003EB4A03B3F84AE0F444A3F84AC0002A08BF002804D1002904BF19
:20421C00787B002829D02989E8892C744118287FA981012804BF688CE883A97901220720CA
:20423C000BF0B0F9A246787868B10121297705F174018878002804BF887B002803D1087F2F
:20425C0008B9688CE883307D002837D0022804BFF87A00282ED1347530E0A97907200BF0C3
:20427C0091F9EC83B87A40B1297F2C7401294FF0010A09D1688CE88306E0B9F80600401C18
:20429C004FF0020AA9F80600A8892989814206D08842C8D2081A41F2AB029042C3DA287C1B
:2042BC0008B1052901D0082100E03E21284613F02BF8A4E0787A08B1022131755448F97B26
:2042DC000068CA070AD52A683969D160143001F59071D160A9794901445011E0AA7900F1D4
:2042FC0014015201885830614848AB7901681C2001F1080243432968D058C860EC832C77FB
:20431C00444A50690078810702D5B87B802800D1812005F1740651463070284604F0ACFD64
:20433C0028460AF0C9F902281BD1F079022805DB01AA394928460DF0A3FC0446284612F0BD
:20435C0033FF01285BD020000DD0224601A928460EF010FB38B928460AF0AEF9012802D139
:20437C004DE001284BD00121284612F019FF284612F012FFFDF712FE012840D028460BF0DF
:20439C000FFD01F085FF254FB988386810B1AA79914203D04FF6FD70814230D12049087B3F
:2043BC0012F0D4F904002AD084F800A0A8791D4960800A68A879115C217195F8960160710A
:2043DC0096F90010A171A4F80880B9F80200608112F084F9050005D1FF204FF0FF312073DD
:2043FC00216109E02878207312F0D2FE0146A86812F0CAFE80082061204639688847BDE88C
:20441C00F78F00BF780E0020980C0020980E00209C0E0020A0A70100AC200020800E00205F
:20443C00B4210020683200202DE9F84F8AB083460C4600208DF800001646B849C879810635
:20445C001A4602D5B6488178880640F163811D98169B199D1E9908B900250CE059B9012B8C
:20447C000CBF4FF040094FF020094D4503DB012B0CBF40252025DDF86880DDF86C90C646BA
:20449C001EFB09FE15FB0EF5AFB24FF0600A97FBFAFE0AFB1E775FEA070C18BF4FF0010C20
:2044BC00E6445FFA8EF70897AFB20997ADF81A208DF819408DF818609A4F3A78149CDDF85E
:2044DC0054C0DDF85CE0DDF860A01C9E002A72D0ADF860A000279DF800A0ADF81CB08DF8A9
:2044FC0050408DF854C08DF858308DF85CE01D901E910899F8B2884279DAA8B26028ACBF98
:20451C004FF0600BAB465FFA8BF02D1A4000203080B211F0E5F804004BD0912020703E216A
:20453C0081226170A2705FFA8BF20998A080A7714B46BDF81C0020819DF81910A1729DF8C1
:20455C001800E072BDF81A10A1819DF85000A0739DF85410E1739DF8580020749DF85C100D
:20457C00617404F12001BDF86000608284F814B004F12000A06184F81580881884F8169014
:20459C00E675E06105904246A0691E9904900391CDF804A000961D989DF8581002905FFAC2
:2045BC008BF002F099FD82465E480078214604F069FE7F1C9DE78DF868808DF86C908DF8A2
:2045DC0070609DF80090DDF82480ADF81CB08DF850408DF854C08DF858308DF85CE0ADF8BF
:2045FC0060A01D901E9100260899F0B2884280F29180A8B26028ACBF60272F46F8B22D1A53
:20461C005FFA87FA4FEA4A0000F1140B0BF10B00C0B211F065F804007AD001202070FF211B
:20463C0004F1080261706260042010703E22606842708120616881F802B06168C8704FEA7F
:20465C002821606880F804806068417161688E716168BDF81C00C8716168BDF81C00000A78
:20467C00087261689DF81900487261689DF8180088726168BDF81A00C8726168BDF81A0099
:20469C00000A087361689DF85000487361689DF85400887361689DF85800C87361689DF814
:2046BC005C0008746168BDF8600048746168BDF86000000A88746068C77460689DF86810B0
:2046DC00017560689DF86C10417560689DF87010817560681E9A9DF86C30039200F1170197
:2046FC005144059117300490CDF804909DF870101D989DF8682000910290F8B29DF858108E
:20471C0002F0EAFC814608480078214604F0BAFD761C69E70BB0BDE8F08F00BF280E00202E
:20473C00200E0020D7320020D53200202DE9F84F05004AD09C480078092818BF0A2804D0D9
:20475C000B281CBF0C280D2801D1212029E1A878002112F0D1FD040008BF4220F6D0934FC3
:20477C00A978914A3970107810B9A8789049087004F14806F068417801F01201022902BF72
:20479C00706900280C2012D0607AF0B1A07B012804D1B5F8030008B1812816DA6878402810
:2047BC0013DA204612F0ECFCB06808B90720F8E0B561287801281BD1A07B00281CBF0128B6
:2047DC00042815D17B48007808B91220E9E07A494A78824208BF0920F8D004F1220004F1A7
:2047FC003801427F802006F0C7F908B10B20D8E0687808B91120D4E02878DFF8C091DFF88C
:20481C00C0A1DFF8C0B1012840F09380207A0021012821734FF00A0811D19BF800004021C8
:20483C000FF0DAFDB5F8030008FB00F1402012F0A3FC0100DFD1B16968794871B0E00120CB
:20485C002072E172617309F009F86060DAF8000080475D4A0146106802E062684260006814
:20487C000028FAD10846D9F800108847616857484861002138780FF043F83978012211200A
:20489C000AF080FEF0684178C80605D5204612F06FFC01000BD084E0002060840AF02AFE92
:2048BC0084F82100204612F05FFC010079D1F0684178C8071CD504F14207B98800291CBFDD
:2048DC003068002814D03A788A4211D20F2012F047FC68B1F06801788DF80010B888ADF8DF
:2048FC0001000F2039788DF80310694612F034FC2D4F3878002853D13549087800281EBFC7
:20491C00F068417811F0030F03D03248006812F01FFC1120387001212172B5F8030008FB44
:20493C0000F1402012F028FC01003AD101F0B0FC36E0207AA8B3DAF800008047054638789C
:20495C0001210EF0DDFF9BF8000040210FF044FD0020207211F0ECFF012804D011F0BEFEB3
:20497C006168884212D110F0ADF840F2014012F0BFFC19491948086001219BF8000008F0F8
:20499C0015FAD9F800102846884709E0204612F0DBFBD9F800102846884720460FF008FA22
:2049BC000020BDE8F28F00BFC80F0020D60F0020D50F0020D40F0020780E0020441C0020AD
:2049DC00401C0020C70F00204C0F002075600000880E00206C0F0020480F002041E70010F9
:2049FC002DE9F14F82B012F0D3FB009041F60301BDF808003225401A4FF0FF3B0328D94647
:204A1C004FF0500842F21077DFF844A2914E6FD91E38012808D9801E6AD0001F00F0D580A8
:204A3C00401E00F0028110E18B4A907811F0BCFC0400F8D0E08E618E90FBF1F77068A17974
:204A5C0050F83110009812F09FFB01462089A279336ADFF808C2DFF808E203280EDB814C92
:204A7C002468382010FB02F014F80090B9F1010F1EBF201890F82D0001280FD17D436424C8
:204A9C00B5FBF4F47568985C2D1DF14615F83250A54217D2B0B9514529D313E07068041DCA
:204ABC0008FB07F814F83240985C4FF0640BB8FBFBF844454FF0FA6904D218B9DFF8A88140
:204ADC00414501D3E1460AE0F369985C7D43B5FBFBF5AC4202D208B9514508D3F146401C18
:204AFC00032190FBF1F101EB4101401A9854ACE05E480078002112F0FFFB0400F7D0606D36
:204B1C00007810F0E7FBFF280190F0D0BDF8080041F6030188421CBF41F60401884207D02D
:204B3C0041F62301884202BF207D8009012802D14FF07A7901E0DFF838913068019950F824
:204B5C003110009812F020FB226E0146B2F80300C0B1636D93F801C05FEACC6E08D5A47BB3
:204B7C00012C05D1474340F2E24397FBF3FB09E0D3F80340474324F07F4440F27120444313
:204B9C00B7FBF4FB507910B1584538BF8346394881420BD232680198131D642213F830002C
:204BBC0008FB0BF3B3FBF2F2904202D309F102094BE051453FBF05FB0BF56421B5FBF1F1C4
:204BDC00884242D309F101093FE03169009812F0DBFA024628480368186A41884FF07A691E
:204BFC0049B1808838B94F43D9698B8840F27120434397FBF3FB1F498A4207D2307D08FB39
:204C1C000BF36421B3FBF1F1884202D3DFF86C901BE052453FBF05FB0BF56421B5FBF1F14C
:204C3C00884212D3DFF858900FE0B168009812F0ABFA0D494FF07A79884228BFDFF84490BF
:204C5C0003D2504528BFDFF840904846BDE8FE8F81841E007C2F0020780E00200200D00713
:204C7C000100D0075432002001093D00D50F00200000B80B01127A00500F00200200A00FCF
:204C9C000100A00F0200E8030100E8032DE9F04FA44C8246E07894F8315094F83290BAF104
:204CBC00000FADF1140D0146A1F101018FB218BF01214FF0000884F83F10464603964FF07F
:204CDC00F80B019622E0B1451ED0E06871036A46042311F0B9FE009911F4403F03D0019864
:204CFC00401CC0B2019001F0FF017C2918BF782909D1304606215A4611F02CF80C2016FBB2
:204D1C00004080F848B0E078761CF6B2B042DADC0199401E88425BD0002F04F1300600F056
:204D3C00CA8040464FF4005B019094F83F30E06813B9012184F83F106A466903042311F018
:204D5C0083FEBAF1000F05D00099E07811F4403F40F09980009800F0FF00702803D0284609
:204D7C00702110F071F8E0684FEA49316A46042311F06AFE009800F0FF00FE2803D04846D4
:204D9C00FE2110F061F848460621FE2210F0E2FF4FEA8900FF22FE2184F83C9000EBC900CB
:204DBC00A4F840B0AB0084F83D50801984F83E20183001700199029003EBC5008019A4F857
:204DDC004410808BA4F8420000F07EFC102801D10020A4E0BAF1000F0CBF10215146BAF16A
:204DFC00000F07D0B4F84000C0F50050814207DC01200390B4F84000C0F50050814201DDD4
:204E1C00782100E07C21484610F01EF806F0C0FF054694F83F000621FC22401B84F83F0096
:204E3C00484610F097FF0298FC21017094F83210E0787F1B491994F83E500C23414491FB8E
:204E5C00F0F24243891AC9B284F83210491C91FBF0F24243891A84F8311015FB0361898BB3
:204E7C00BFB2102905D1691C91FBF0F24243891ACDB294F83290DDF80480BAF1000F17D0B4
:204E9C000398A8B117E06D1C08F1010295FBF0F17F1E94F83F30A4F840B041431FFA82F8DA
:204EBC00BFB2581E6D1A84F83F00EDB284F83D50002F7FF43AAF7C200FF092F90546FF2DDD
:204EDC001CD17E200FF08CF90546FF2D16D194F831500C2015FB0060807DFF280AD0E27848
:204EFC0094F832008018401E90FBF2F15143401AC5B203E028467E210FF0A6FF0C2084F8D3
:204F1C00335015FB0060808BE08694F83200FE210FF09AFFB4F84000C0F5005000B205B044
:204F3C00BDE8F08F641D002070B5894D687911F0FDFB8849002808600BD000220260027386
:204F5C000868C2610262A87911F0F0FB82490028086000F0FB8000220260C27200200A6821
:204F7C001074052308684374002209684A61E87A11F0DCFB79490028086071D0784C2178DA
:204F9C002878C91C10FB01F080B211F0CFFB75490028886064D02078002874D0698811FB74
:204FBC0000F080B211F0C2FB6F4A0028506057D06E482278017811FB02F080B211F0B6FB92
:204FDC006B49002808604BD000250AE0E8B211F05DFB002141808160018002230371017303
:204FFC006D1C2078E9B28142F0D311F09FFB61490028086034D02078400011F097FB5E4968
:20501C00002808602CD020781C2110FB01F080B211F08CFB594A0028106021D02078400158
:20503C0011F084FB56490028086019D02078000111F07CFB53490028086011D02078000105
:20505C0011F074FB50490028086009D02078302110FB01F080B211F069FB4C4A0028106018
:20507C0074D02078382110FB01F080B211F05EFB474A0028106069D0207811F057FB45497C
:20509C000028086062D0444D444E2978307800EB4100C000103080B211F048FB4049002873
:2050BC00086053D000F10801416030782A7800EB4200C000103080B211F038FB3949002827
:2050DC00086043D000F1080141601E212878401C10FB01F080B211F029FB334A00281060FB
:2050FC0034D0082011F022FB304D286070B3062011F01CFB296808602968086830B30020E7
:20511C004860062011F012FB29490860F0B1A02011F00CFB274D2860C0B12078C00011F08E
:20513C0005FB686090B1142011F000FBA86168B10026207811F0FAFA05F11C0141F82600D3
:20515C0020B1761C022EF4DB002070BD072070BDB4210020500F0020540F0020440F0020C6
:20517C00D40F002018320020780E00201323002058320020340F002050320020980E002035
:20519C009C0E0020A00E0020A40E0020A80E00205432002068320020DD320020DC320020F6
:2051BC006C0F0020700F0020680F002070320020400F00207C2F00202DE9F04F0646A04D78
:2051DC00F08995F833404FF0000BADF12C0D4FF0FF0A5F46C01D0A921FFA80F8E878099128
:2051FC000AE0204678210FF02FFEE878641C94FBF0F14143641AE4B2B8422ADD95F83200D6
:20521C007F1CA042BFB2F0D0E868610306AA042311F01AFC069800F0FF007828E5D005F14A
:20523C003009FF2818BF7E2803D120467C210FF00BFEA00085F8334000EBC4004844818BBF
:20525C00E986808B42F2010340448342C9DD95F833A0BAF1FF0F0AD14046FFF717FD804548
:20527C0003DD687800B90520E6E04FF0010B2C4695F833706078F8B90A9820B102281BD1AF
:20529C00BBF1000F18D0307A8DF80C00F388ADF80A30B288ADF8082000210091E18E01AAE7
:2052BC000323384604F01AFF9DF81400BDF81030307495F83370B381E58EE068790306AA94
:2052DC00042311F0C1FB0698B84600F0FF0100F0FF007E2806D140467C210FF0B5FD069963
:2052FC0001F0FF017C2940F0A480F08942F20103C11D8FB2EA19934240F39980F288337A8D
:20531C0011128DF81D2063F39F01B3888DF81C109A1003F0030106468DF81E20C0F38512B0
:20533C0000F03F0342EA81128DF81F20990072198DF82010F31D1FFA82FA98B20D282DDB97
:20535C00DDF8249031460022484611F0C7FA0246052107A811F0C2FA9DF82010334600F0B7
:20537C003F0641EAA0114A46B0008DF8201040F0020096268DF8210029468DF8226040466B
:20539C000DF0F4FE0646514607AA0723404666700DF0ECFE304360704DD135E0099904F1F4
:2053BC002400324609F000FC07A90A68301900F12409484609790260731D0171002204F12C
:2053DC00240099B211F08AFA9DF82010962300F03F068DF8223041EAA011B0008DF82010F2
:2053FC003B4640F0020007AE49468DF821003268B0790A60B288887140468A8004F12402E9
:20541C0029460DF0B3FE6070E18EED194FEA8806AAB2C919E18606EBC8010919A1F84C20C1
:20543C0048B1404651460DF003FD607803E0052000E001206070C0B20BB0BDE8F08FC04635
:20545C00641D00202DE9FF477D4C7E497E4E20700A22002008600D237C4840F211210270C9
:20547C00438081807A4A7B48106037787A480770FF2F7178417008BFFF29B2788270F3782F
:20549C00C370357905717679467114D1FF2A08BFFF2B10D1FF2D08BFFF2E0CD16F490A78DC
:2054BC0002704B7843708A788270CB78C3700A790271497941716A4902786A4D6A4E6B4FBE
:2054DC00DFF8AC810A7043784B7082788A70C378CB7002790A714079664A4871FF20287083
:2054FC006870A870E87028716871002062490880F06B6249407808706149F06B0078087058
:20551C001388604860490380F06BC06C3860F06B90F83C0008705D49F06B90F83D0008700C
:20553C00F06B406901795A484A1E0270F06B5949C07888F80000F06B8069086008B90FF034
:20555C0075FDF06B5449C069086008B90FF06EFDF06B416D51480C2210F076FF11F0F0FDD6
:20557C00F06B4F49006A086008B90FF05FFDF06BDFF83091406AC9F8000008B90FF056FDBD
:20559C00F06B4949806A086008B90FF04FFDFFF7CBFC07280AD104F0D3F920784FF4804181
:2055BC0007F004FC00200FF041FD46E03F480168884782460BF04EFBD9F800000168884781
:2055DC00684611F0D3F8D9F8002004208DF80000694652F8043F00209847354908600DF07D
:2055FC0011FBF068334A018898F80000324B014311805046196888470C21304811F0C6FAF7
:20561C00284611F099FD11F093FD2D4800214FF6FF720160828009213878820729480068ED
:20563C0048BF0C2111F02AF80121FF200EF068F920784FF4005107F0B9FBBDE8FF8700BF96
:20565C00C70F0020380F0020D04F0050700E00203C0F0020B63F0050400E0020E81200505C
:20567C00500E0020480E0020A0A701005C320020C40F0020922100209E0F0020C60F00209C
:20569C00D40F0020CE320020DC320020DD320020CB0F0020200F0020240F00200C32002074
:2056BC00280F00202C0F0020300F0020401C002060320020A00F0020441C0020FC0D002017
:2056DC00800E0020703200202DE9F04F9B4D95F83D0095F83F10EB7895F83C800027ADF1EA
:2056FC002C0D0918491E91FBF3F295F83D406F705A43891AC9B20891810001EBC00149198F
:20571C00B1F84C0095F83C10ADF81C00880000EBC1004019B0F84C60CDF8248006A80EF0E8
:20573C00EDFA68780A97A04500F0A180B946CB46BBF1010F00F09080BDF81C10172966DBC1
:20575C00002840F09580BDF81C0001AAC01F81B2ADF81C10204609F0EFF8BDF81210BDF88F
:20577C001C30884608F1070008F1100287B29A4246D89DF80E00962842D19DF80F00420853
:20579C0039D2800837D3BDF81C0000230093A0EB08001FFA80FA9DF80D20BDF81C002346A7
:2057BC00401A80B20FF05EF9F8B9F019B0F5005F15DCE868C6F188520AEB443A3B46D21B7A
:2057DC00514602F5005211F03FF9F61909F10109B6B2B6F5005F08BF4FF0010B0BE0BDF85D
:2057FC001C004FF0010BC01D2EE0BDF81C00401EADF81C0004E0BDF81C00A0EB080023E000
:20581C00204607A90BF0F4FD01281FD030E0EA78B9F1000F07D0484BBDF81C70A10001EBEF
:20583C00C401C9188F830899A14220D04249641C94FBF2F05043241AE4B2A00000EBC400EE
:20585C004018808B4FF00009ADF81C0009996878A1427FF46DAF0AE0B9F1000F07D0364AD2
:20587C00BDF81C70A10001EBC40189188F8320B1069810F0B5FB10205AE0DDF824804FF67F
:20589C00F0704FF40051C6EA0040C6EA0141E1FA40F01FFAA0F283B2102102F188524046A7
:2058BC000DF064FC697808436870069810F098FBA0450FD1EA78204F1019401E90FBF2F1AF
:2058DC005143401AC4B2A00000EBC400C019808BADF81C00184B1020BDF81C70A5F84000A3
:2058FC004FEA8801A5F8447001EBC80185F83E40C9188E83B5F9422095F83D104046012343
:20591C000FF0B8FA95F83E10B5F94420022340460FF0B0FABDF81C001728BCBF01200A9033
:20593C00B6F5005F03DB0A9840F002000A900A980BB0BDE8F08FC046941D0020641D0020FC
:20595C002DE9F84F0422FF21684610F087FD924988780024FF2800F01D8110F025FD054635
:20597C0005F217100178012908BF417800F0948005F59276F18911B1307B07F017FA6889E4
:20599C00288105F17401854F887B022804BF05F174008473FB7997F80AC03A7BF97A787BCA
:2059BC009C4494448C4405F58D790CEB0008B9F804E0B9F800C00EF1010EC444A9F804E0A3
:2059DC00A9F800C0B9F802E097F80AC0F444A9F802C036681EB3DFF8C8E195F806B0DEF8BB
:2059FC0000E04FF01C0C0EF10E0A1CFB0BFB0EF10E0E1AF80BA036F81AB0C34426F81AB051
:205A1C0095F806A01CFB0AFC1EF80CC006EB4C0697F80AC0B6F84AE0F444A6F84AC0002BB9
:205A3C0008BF002903D1002A08BF002813D02989E8892C744118A9810122A979082009F0DE
:205A5C00A1FD0026574948690078810728D5B87B802825D025E0A979082009F093FDB87A3E
:205A7C0010B101262C7405E0B9F80600401C0226A9F80600A8892989814206D08842E1D2C2
:205A9C00081A41F2AB029042DCDA287C08B1052901D0082100E03E21284611F035FC79E0A3
:205ABC00812005F1740731463870284603F0E4F928460BF053FA02281BD1F879022805DB14
:205ADC006A46394928460CF0DBF80446284611F02BFB01285ED020000DD022466946284683
:205AFC000CF048FF38B928460BF038FA012802D150E001284ED00121284611F051FB2846FD
:205B1C0011F04AFB00F0F6FE012843D028460AF047F900F0BDFBDFF894A0BAF80410DAF810
:205B3C00000010B1AA79914203D04FF6FD70814230D11F49087B10F009FE04002AD02670C3
:205B5C00A8791C4960800A68A879115C217195F89601607197F90010A171A4F80880B9F8B5
:205B7C000200608110F0BAFD050005D1FF204FF0FF312073216109E02878207311F008FBD1
:205B9C000146A86811F000FB800820612046DAF800108847BDE8F18F780E0020980C0020E7
:205BBC00980E0020A0A7010036220020800E0020B4210020683200202DE9F04FDFF8049224
:205BDC000E46D9F808101F4615460446ADF1340DBEB1B5B130784FF0010808FA00F0014289
:205BFC000FD01046002110F0CFFFA560666010F0C1FF754D83462878022804DB584611F007
:205C1C007FFB0020DBE0002840F0958002F0F2FB6E496F4E086840F00200086008A8C9F8D8
:205C3C00006010F09BFD6B4E6B49707808AA0A9005F590700EF024FA684905F5AA7008AA22
:205C5C000EF01EFA08A810F0F1FC192108AB3078634A099005F13C000EF012F8614A05F1BF
:205C7C0058001A2108AB0EF00BF8B2465E4E30684FF0000900F44020B0F5802F03D15B481E
:205C9C000068800C02D3B9F1000F15D0584A05F17400352108AB0DF0F3FF5649086800F579
:205CBC00407088620868A0F54070C8620C23CB61886940F00C0088614F494A4605F1B00010
:205CDC0013460CF027FF4D494A4605F1D40013460CF020FF3068C0F3814030B1484A05F154
:205CFC00280004214B460FF009FB9AF80200012802D10E2007F0B4FA05F1980010F040FB7B
:205D1C0005F1900010F03CFB4E4685F824602E762E62072085F8E80185F825600523AE601C
:205D3C00384AEE6049462B61374B16700420EB610FF08EFC287805EB8001401CC1F8F840FD
:205D5C00C0B22870584611F0DBFA1FB9684610F049FB6F4638684FF4FA76E6602060B869F0
:205D7C0041466062388A6175E082F869E062786800280CBF40F6C410002120612348E061F6
:205D9C0020622175A061F86800B1E061786900B12062B86800B1A061782204F130000021B6
:205DBC000AF008FB04F1480000210FF013F91849002204F1800013460CF0ACFE20460DB047
:205DDC00BDE8F08FCC2108402823002000200940110000E074A5010045600100C1C900003F
:205DFC00E1240100010C0100B44F00508C130050F1D0000030500940915A0100355E010027
:205E1C00712C0100E6320020BDBC00002FC20000396B01002DE9FE4F8A4C617811B9002085
:205E3C000FF004F911F0B4F906464FF0000806F6C4160027844DDFF8149211E0384610F04F
:205E5C00B3FA417951B12A68817902F8081008F101015FFA81F8314611F062F97F1CFFB233
:205E7C0099F800008742E9DB6178884505D000200FF0DCF8822011F0CFF96078012840F0DE
:205E9C00C480002701E07F1CFFB299F80000874280F2B580384610F087FA064670790028F1
:205EBC00F1D02968B0790A7890421CBF00200FF0BDF8B079A1E0286810F8090010F074FA8F
:205EDC0000684068DAF808108268914204BF3E4609F1010900F0A780A9E0286890F800B03C
:205EFC0001224FF4D0710FE0636803F5B176835C11FB03F901FB0BFE36F809C036F80E6087
:205F1C00B44538BF9B46521CFBB29A42ECDB4FF6FF7011F001F90646584610F045FA4C4969
:205F3C000068D0F804A00868D94630F8192060684FF4D07300F10E0103FB09F3C85AB2EB7A
:205F5C00D00F53D2720840F6C410424300920027404A0190029218E0584610F025FA016892
:205F7C000A78802A03D1DAF81410009A4A6101680B78402B08D1029980790A6802EB401156
:205F9C00009800F5A060C8617F1C47452EDA2868C05D8345F8D001464FF4D073594363688F
:205FBC005A1803F5B173D289595A53088B4202D2521A9045E8DA10F0F7F900684268DAF856
:205FDC0008009168019B7208A1F6C41103FB020011F09EF80028BFD01D48006830F81910B6
:205FFC00491C20F81910286810F807B01848026800215B4622F813105846BDE8FE8F0020D7
:20601C000FF014F8822011F007F9617828680AF090FE2868007810F0C7F900260068D0F8A7
:20603C0004A04FF00109771CC145FFF644AFF6B2002E1CBFF8B200287FF44FAF286890F8CA
:20605C0000B064E7780E0020340F0020D40F0020503200209C0E00202DE9F84F884A8246BA
:20607C001078002111F048F99AF80010044601291CBF00200EF0DAFF14B900200EF0D6FF71
:20609C0004F14C0B0025DBF808004178DBF80460C8064FF47A674FF00B0841F64C592CD587
:2060BC0006F1680005808570C57005714571C58005818572C5727567A07B012818D011F088
:2060DC0067F8B168484411F023F888B111F060F84844B06010F0BDFC0B2290FBF2F2B168E8
:2060FC0008FB12081FFA88F007FB0017B760276194F829000CF05EFD8BE006F19400058097
:20611C008570C57005714571C58005818572C572C6F8A05011F03CF8B168484410F0F8FF95
:20613C0088B111F035F84844B06010F092FC0B2290FBF2F2B16808FB12081FFA88F007FB4D
:20615C000017B760276106F14007607DC10606F1100850D598F80000A27D521CC0F3800106
:20617C00002392B200F0030011F02AF8A0831E20A28B02F59B731E2193FBF0F001FB10300A
:20619C00C0B208B1C0F11E008C46801800F59B7002F5967293B293FBFCFC01FB1C31608389
:2061BC00A283C9B209B1C1F11E018A18A28392B2E17D491E4A4312FA80F06083618BB068D8
:2061DC00A63100EB810030660220F877618BB06800EB8100B0633878012802D1B06B0C30B3
:2061FC00B063A18CB06BA63100EB81007067022086F8730001E03566FD772249C86B4169C3
:20621C00086894F82910401C01EB4101405AA8F802006168DBF804001B4A8A614860DBF8FC
:20623C0008205078C3065CBF102088615078830703D5886940F4002088615078430703D513
:20625C00886940F400008861104B187800281CBF507810F0030F03D0886940F480208861CB
:20627C008BF80050DBF80810087E10F0300F04D05046BDE8F24F0BF0DBBEBDE8F18F00BFB7
:20629C00D50F0020A0A7010002000080880E00202DE9FE4F854D6E681EB9BDE8F74F10F091
:2062BC0033BF3078DFF808B2824FDFF80C9201281CBF0228042841F64C5804D0402818BF09
:2062DC00802874D0EBE010F033FB0028FAD0307804F030FB824610F013FF044699F801004E
:2062FC0000283DD0FFF796FD10F05EF80190016800914E6894B1504607F00EFB02280DD04B
:20631C009AF800100129DDD118B910F041FF4044A0600120A8701121397046E00098017807
:20633C0080290BD10820654938700A787069012A1ABFDBF82410097801210AE007205F497C
:20635C0038700A787069012A0EBF0121DBF824104978C17201988179009889F802109AE0D1
:20637C00BAF1000FAED09AF80000564507D1012801D1D4B998E000200EF058FE15E0012832
:20639C00A0D1002CF6D010F003FF0146A06801F5C241A83110F0BCFE18B910F0F9FE404455
:2063BC00A060112038700121A970504673E099F80100002856D0FFF72DFD0FF0F5FF824609
:2063DC00DAF800000190466899F802000FF0ECFF029010F0A7FA10F0070F1FD0A87804F0C7
:2063FC00A9FA009010F08CFE040017D00199009807F092FA022811D000990A78012A0AD1F8
:20641C0018B910F0C5FE4044A0601120387001210098A9703FE000200EF008FE029850452A
:20643C001ED0019925480A78802A0AD1082139700078012870691ABFDBF824100978012175
:20645C0009E007223A700078012870690EBF0121DBF824104978C1729AF8060089F80200E5
:20647C00019818E010F05EFA10F0070F1CD0A87804F060FA064610F043FE044630780128FF
:20649C0012D18CB110F084FE4044A060012111203870A9703046BDE8FE4F06F07FBEBDE866
:2064BC00FE4F00200EF0C2BDBDE8F78F18320020A0A70100C80F0020780E0020CC0F002061
:2064DC00F8B5144600254FF48067864EC21B84B006F184032AD0921E2FD0521E34D0521E5A
:2064FC0039D0521E3ED0521E42D0521E58D0921E5BD0D21E00F08780521E00F09280921EFB
:20651C0000F09B80521E5BD0521E00F09D80521E00F0AB80521E00F0AE80521E2FD0121F83
:20653C0000F0BB80921E00F0BF80CDE001296BD12078022868DC7070D0E0012964D1207895
:20655C00022869D2B070C9E001295DD12078052862DAF070C2E0012956D1207802285BD256
:20657C007072BBE010294FD1102221465E4814E0012949D1207802284ED23071AEE0012977
:20659C0042D12078022847D200287071F6D001207073602206F1240118460FF055FF9DE052
:2065BC00012931D12078B07298E000292CD110F067FE10B9FAF745F818E0012030748DE0B5
:2065DC00072921D10622611C02A80FF045FD00950023217801AA02A807F058FA88B910F0BD
:2065FC004FFE40B99DF80400FAF73CF8054650200FF0A0FA1EE0F1699DF804200120885419
:20661C006CE034256AE001295CD1317B2078022903D0C11F0A2902D354E0102852D1F072FD
:20663C005CE001294ED1F17B2078F073002908BF012853D1F9F7B0FF50E0012942D1207871
:20665C0003283FDCB07349E001293BD12078022838DC002836D03073022803BF1020F07231
:20667C000120002010F048FD38E001292AD120780FF09AFB32E0707920BB602907D10CB319
:20669C006022214618460FF0DFFE012003E0012918D1BCB12078707320E0012912D18CB172
:2066BC0020781249087019E061B910F0E9FD30B9FAF768F8054650200FF03CFA0EE0012021
:2066DC0070740BE0182509E0092806DA022904D1218810F04DFE054600E00225284605B02F
:2066FC00F0BD00BF9C1A0020B02F0020E03200202DE9FE4FDFF8D4B19BF80000401E032830
:20671C004FF0010808D9103840F0DA80704B1878002110F0F1FD044614B900200EF086FC51
:20673C00606D6C4F41786C4EC806216D4CBF886CC86E0622016801F1080909F1020101A877
:20675C000FF082FE99F800201E2502F00F01C2F3801003298DF80000DFF880912CD101A923
:20677C0010F0B6FD002826D0606D807C012818BF032820D1316801A810F0A6FDFF281AD051
:20679C0015FB00F53068425D4019411C386810F0AFFC99F8001088420DD030684019C11D89
:2067BC00386801AA10F0A0FC30684019062201A9C01D0FF049FE76E002F00F00052872D129
:2067DC009DF800004FEA521A01A910F081FD78B3316801A810F078FD616DFF2820D0897C6F
:2067FC00022918BF032915FB00F50AD13068425D4019411C386810F07BFC99F80010884200
:20681C0051D030684019C11D386801AA10F06CFC30684019062201A9C01D0FF015FE23E004
:20683C004878C10646D5607B40F0020060731BE09BF80000022836D19DF80010306801AA13
:20685C0010F0D2FDFF282ED015FB00F5306841194A7F012A04D00D30401910F03DFD10B3D6
:20687C0040F2014010F044FD606D4178C80621D51B498878410606D55FEACA7003D4206D91
:20689C0041F20A4102E0206D41F204414180418341861448144A01801448154911600121A3
:2068BC00007806F083FA606D4178C80602D5216D886C01E0216DC86E01680020087101E09C
:2068DC004FF000084046BDE8FE8F00BFC80F0020D50F00206C0F0020680F0020DC32002083
:2068FC00C00C00209A0F0020480F0020C70F0020398B00102DE9F8437A4CA178FF2904BF6B
:20691C0000200EF093FBA0780FF04EFD044604F5C9752089411C61812A78012A02BF698865
