:1000000038050020E10C0000551D0000710C0000B7
:10001000710C0000710C0000710C0000710C0000EC
:10002000710C0000710C0000710C00007D0B0000D1
:10003000710C0000710C0000350B0000431D000026
:10004000B90C0000B90C0000B90C0000B90C00009C
:10005000B90C0000B90C0000B90C0000B90C00008C
:10006000B90C0000B90C0000B90C0000B90C00007C
:10007000B90C0000B90C0000B90C0000B90C00006C
:10008000B90C0000B90C0000B90C0000B90C00005C
:10009000B90C0000B90C0000B90C0000B90C00004C
:1000A000B90C0000B90C0000B90C0000B90C00003C
:1000B000B90C0000B90C0000B90C0000B90C00002C
:1000C000B90C0000B90C0000B90C0000B90C00001C
:0800D000B90C0000B90C00009E
:1000D80053B94AB9002908BF00281CBF4FF0FF31A7
:1000E8004FF0FF3000F00CB8ADF1080C6DE904CE0C
:1000F80000F008F8DDF804E0DDE9022304B07047F9
:10010800704700BF2DE9F04F80468C460846099E8F
:100118009146154644461946002B40F0C680824257
:10012800B2FA82F746D94FB1C7F1200E00FA07F3A9
:1001380028FA0EFEBD404EEA030CBC404FEA1549B2
:100148001FFA85FEBCFBF9FA220C09FB1AC30AFB4D
:100158000EFB42EA03439B4528D9EB180AF1FF300E
:1001680004D29B4502D9AAF102002B44A3EB0B034E
:10017800A4B2B3FBF9F209FB123302FB0EFE44EA08
:100188000344A64514D92C1902F1FF3303D2A6451E
:1001980001D9931E2C44A4EB0E0443EA00401EB17F
:1001A800FC40002334607360BDE8F08F5046DDE703
:1001B8001346F0E702B9FFDE87BB831A01214FEA35
:1001C800154CAAB2B3FBFCFE200C0CFB1E330EFB35
:1001D80002F840EA0343984563D9EB180EF1FF3063
:1001E80004D2984502D9AEF102002B44A3EB0803D0
:1001F800A4B2B3FBFCFE0CFB1E330EFB02F244EA76
:100208000344A2424FD92C190EF1FF3304D2A24263
:1002180002D9AEF102032C44A41ABEE7C7F1200E9E
:1002280020FA0EF800FA07F324FA0EFEBD404EEA53
:1002380003024FEA154CABB2B8FBFCFE110C0CFBE9
:100248001E800EFB03F941EA0040814504FA07F4D9
:1002580023D928180EF1FF3104D2814502D9AEF115
:1002680002012844A0EB090092B2B0FBFCFE0CFB93
:100278001E000EFB03F842EA004398450FD9EB181D
:100288000EF1FF3204D2984502D9AEF102022B4496
:10029800A3EB080342EA014191E77146E2E772469F
:1002A800F6E77046A2E77346B6E7834205D90EB172
:1002B800C6E900800021084676E7B3FA83F28AB9D6
:1002C800834201D3C1450BD8B8EB090460EB0303A3
:1002D80001209C46002E68D0C6E9004C002163E747
:1002E8001046F7E7C2F1200E934029FA0EF51D4398
:1002F80028FA0EF100FA02F320FA0EF40B434FEA43
:10030800154A09FA02F708FA02FCB4FBFAF91FFACF
:1003180085F80AFB19401C0C09FB08F144EA004463
:10032800A1423ED92C1909F1FF3004D2A14202D9C9
:10033800A9F102002C44641A9BB2B4FBFAF90AFB37
:10034800194409FB08F843EA044188452BD9691880
:1003580009F1FF3304D2884502D9A9F102032944DF
:1003680043EA0040A1EB0801A0FB07894945C246C2
:100378004C4602D306D1C44504D2B8EB070A69EB50
:10038800050401388EB1BCEB0A0361EB040CD340C1
:100398000CFA0EFE4EEA03032CFA02F2C6E900320A
:1003A8009CE74846C7E74B46DAE73146FCE60000DB
:1003B8000149024801F0ACBC4C2300005E23000058
:1003C8000B6801330B60014B1B681847780E00203F
:1003D8002DE9F04F85B09B460E9CDFF89090012CDC
:1003E800B8BF0124012B0CBF302320231546064635
:1003F8008A46029301274FF00A080022B5FBF9F359
:1004080001930AB9A9451FD8019B514603F1300051
:10041800B04701370122019B08F1FF38B8F1010FFD
:1004280009FB13554FF00A03B9FBF3F9E6D151461E
:1004380005F13000B047BBF1030F02D1E41B002CDB
:100448000EDC05B0BDE8F08F4445E4DBBBF1020FDC
:10045800E1D8029803925146B0470137039ADAE788
:1004680051462020B047013CE9E700BF00CA9A3B4B
:10047800014B1860704700BF780E00202DE9F04F3F
:100488008DB01C460027531E05468B4603934FF03C
:10049800FF39B846002605E06EB9252800F07181BD
:1004A8005946A847039B13F8010F03930028F3D17B
:1004B8000DB0BDE8F08F7A280AD8622810D8302805
:1004C80054D045D8252800F05A812D2800F05F81A6
:1004D80059462520A847039B18785946A847D9E7C5
:1004E800A0F16303172BF3D801A252F823F000BF41
:1004F8007F070000C3050000D9040000D9040000EC
:10050800D9040000A5050000C3050000D9040000B7
:10051800D9040000A5050000D9040000D904000092
:10052800D904000065060000D9040000D9040000C1
:100538004F070000D904000033060000D90400006A
:10054800D904000061050000D9040000A5050000D9
:1005580039281AD95828BBD1039B1B78702B40F037
:10056800888054F8043B0693002290E0B9F1000F0C
:100578000EDAB8F1000F00F00D81A0F13009B8F1E2
:10058800000F08BF4FF002088CE7B9F1000FF4DB49
:100598000A2303FB0909A9F13009F0E7682803D108
:1005A800682F06D148277DE76C2802D16C2F00F010
:1005B800F480002F8CD1074674E77A2F02D154F8C3
:1005C800046B21E06C2FFAD04C2FF8D1073424F0BB
:1005D8000704F4E80223CDE90423049B13F1004146
:1005E800059B089143F100010991DDE908230021E9
:1005F8004FF0FF30994208BF904204D2594628462E
:1006080001F078FB46E7049E002E05DA59462D20B6
:10061800A847764209F1FF39CDF8009043463246A3
:1006280059462846FFF7D4FE34E77A2F02D154F80A
:10063800042B0FE06C2FFAD04C2FF8D1073424F09C
:100648000704F4E8022300214FF0FF30994208BF65
:100658009042D3D3CDF800904346E1E75946302085
:10066800A84759467820A8474FF008094FF00108D5
:1006780072E76C2F3FF475AF4C2F7FF472AFE31D18
:1006880023F007031C4654F8082B06925A680021E9
:100698001023049107914FF0400AAAF1040A069921
:1006A800CAF1200EAAF1200C21FA0AF002FA0EFE75
:1006B80040EA0E0022FA0CFC40EA0C0010F00F0091
:1006C80007D1079911B9BAF1000F25D14FF0300CB5
:1006D80005E009288CBF4FF0570C4FF0300C6044F0
:1006E800594640B20A920793A847049B0A9A0133D5
:1006F8000493079BBAF1000F23D1B8F1030F7FF4DD
:10070800C9AE049BC3EB4906002E7FF7C3AE59461A
:100718002020A847013EF7E7591E99450A9107DBB3
:10072800B8F1010F06D10B9259463020A8470B9A11
:100738000A9BB2E7B8F1020FFAD10B925946202072
:10074800F4E70796A9E754F8046BB24653461AF83B
:10075800010B68B9B8F1030F21D19E1BA9EB06065E
:10076800002E7FF797AE59462020A847013EF7E7AD
:100778005946A847EAE754F8040B5946AEE65946E5
:10078800ACE63746B0464FF0FF3901268AE64FF00F
:10079800030887E64FF0010884E64C2782E6064600
:1007A80080E600BF07B50B460021024601910348C9
:1007B80001A9FFF763FE03B05DF804FBC90300005D
:1007C8000A2838B5074D044604D1286843680D2126
:1007D8005B68984728684368E1B25B689847204699
:1007E80038BD00BF1000002010B5044C204600F0B2
:1007F80083FB2046BDE81040FFF73ABEC90700005A
:1008080008B5044800F02EFE034B1860FFF7ECFF14
:10081800002008BD6F2300001000002008B5044B1D
:100828001B680846DB6A11469847002008BD00BFD0
:10083800B4010010054B1B6810B55B6808461446E8
:10084800984700F03F002060002010BDB401001060
:1008580010B508464AB1012A0DD1084B1B689B699F
:100868004FF480419847002010BD044B1B684FF49B
:10087800C0419B69F6E76FF01500F5E7B401001079
:1008880010B508464AB1012A0CD1084B1B681B6AEF
:100898004FF000519847002010BD044B1B681146CB
:1008A8001B6AF7E76FF01500F6E700BFB401001008
:1008B800154B01222DE9F0411A604FF02003EFF3A8
:1008C800118883F31188BFF36F8F104B1B681B6B64
:1008D8009847DFF83CC0DCE90023DCE90067801AB0
:1008E80061EB0301430C5B049C1941EB0705CCE960
:1008F800004588F31188BFF36F8F400CBDE8F041C5
:1009080040EAC13001F03CB9042009408C010010D4
:10091800000000202DE9F84F274B284E284FDFF81C
:10092800B4B0DFF8B480DFF8B4A000210020C3E938
:100938000001012400253D60CBF800403460336895
:10094800D8F80030CAF800401B6A1420984733686A
:100958004FF02003EFF3118983F31188BFF36F8FF2
:10096800D8F80030CBF800401B6ACAF800401420C1
:100978009847144B04261E60134B1B6823211B68E1
:1009880028469847114B124A1C60136823F4E02349
:1009980043F4803313603C6089F31188BFF36F8F91
:1009A8002A462946304600F005F9304600F0F2F8AC
:1009B8002846BDE8F88F00BF000000202C20094021
:1009C80000002443182009408401001080022443B9
:1009D800002009401C002443B001001004200940F5
:1009E8002DE9F843431C044608BF6FF040444FF01C
:1009F8002003EFF3118583F31188BFF36F8F284B22
:100A08001B681B6B9847274A274BD2E90089B3EB31
:100A1800080369EB490C013C1E184CEB010784F3F1
:100A28001E044FF40033C3FB04673946700C47F6C5
:100A3800FF778F424FEA40404FF0FF3608BF8642AB
:100A48003CBF39463046D2E90067831941EB0702BB
:100A58001B0C43EA02434FF02002EFF3118182F3AB
:100A68001188BFF36F8F114A1268981AB0F1004FBE
:100A780002F106020CD913460D4A136081F311885E
:100A8800BFF36F8F85F31188BFF36F8FBDE8F883CD
:100A9800D01A0028F0DB934238BF1346ECE700BFBA
:100AA8008C01001000000020FFFF010030200940E9
:100AB8001820094008B5074B1B681B6B9847064B65
:100AC800D3E90023801A61EB0301400C40EAC130EE
:100AD80008BD00BF8C010010000000200448816898
:100AE800006A884203D003494FF080520A60704779
:100AF800F800002004ED00E0094A0A4993680968F3
:100B080019660949D8654B6843F080534B60002348
:100B180083F31188BFF36F8F9368186E704700BF17
:100B2800F80000204823000000ED00E00F498A6823
:100B38004FF028001044EFF3098C80E8F01F2020C4
:100B480080F31188BFF36F8F094F4FF000660A6A70
:100B58008A603E60D06D0023D36580F3118802F16E
:100B6800280090E8F01F8CF309887047F8000020EF
:100B780004ED00E01EF0040F0CBFEFF30880EFF364
:100B88000980816911F8021C0229FFD001B501F022
:100B9800D9F801BD43B2002B08DB012200F01F0089
:100BA80002FA00F05B09024A42F82300704700BFCE
:100BB80000E100E043B2002BA8BF03F1604301F15C
:100BC8000101B8BF064B4FEA4111ACBF03F56143C1
:100BD80000F00F00C9B2B4BF195483F8001370476E
:100BE80014ED00E073B51E460A9B00938C18099B10
:100BF800054601F030FAA4F120020A4B22F0070260
:100C080023F001039361069B5360079B9360089B45
:100C1800D3604FF08073D36100231660AA64EB653C
:100C280002B070BDE51C00001144084A21F007011C
:100C38009060184681F30988002163B681F3118812
:100C4800BFF36F8F0022002301F048F8F80000205E
:100C5800014910220A60704710ED00E0404080F31F
:100C6800118830BF704700BFEFF30880EFF30981A8
:100C7800724601B500F092F801BD00BF30BFFFF722
:100C8800FDBF00BF08B5084B084A23F07F039360F7
:100C9800BFF34F8FBFF36F8F00F00AFC00F012FC18
:100CA80000F0F8F800F046FC0000000000ED00E05D
:100CB80001B5EFF30580A0F110004FEAC000044928
:100CC800014409C99847BDE80140024908470000A6
:100CD80068210000E50A0000202080F311880848F8
:100CE8004FF40061401880F30988EFF31480022163
:100CF800084380F31488BFF36F8FFFF7C3FF00002A
:100D0800780600200C4B9A6A9A6A9A6A920708D564
:100D18005A6B9A6A120604D518B19A6A22F08002B0
:100D28009A62054B9A6A9A6A9A6A9A6A002042F00D
:100D3800FF029A620870704700ED00E00D4B9A6A56
:100D48009A6A9A6A920508D59A6B9A6A120404D527
:100D580018B19A6A22F400429A62064B9A6A9A6A11
:100D6800D20558BF9A6A9A6A002042F47F429A6272
:100D78000870704700ED00E0074B9A6A9A6A9A6A11
:100D88009A6A9A6A9A6A9A6A6FEA02426FEA124201
:100D98009A620020704700BF00ED00E070B5364B46
:100DA8005B688AB00E46C3F30803002585F31188F3
:100DB800BFF36F8F02F07F41B1F17F4F11D102F085
:100DC8000C0108290DD0110701D40646012500227F
:100DD800033B8DF80720032B47D8DFE803F0043ED8
:100DE800423B2E46F3E7244BDA6A92073DD4DC6A8D
:100DF80014F0804408D028331B78EBB10DF10701BB
:100E08000120FFF77FFF04469DF8073093B92022A1
:100E1800314602A800F0ADFF099B45B3C3F30802B1
:100E280022B96FEA53236FEA4323099302A92046A4
:100E380000F086FF0AB070BD104B1B782BB10DF186
:100E480007010120FFF77AFFDDE70D4B188884B210
:100E5800002CD9D0FFF790FFD5E70DF1070100204E
:100E6800CFE70DF107010020ECE70024CCE723F4DD
:100E7800FF7323F00103D8E700ED00E029ED00E05F
:100E88002AED00E0024A536943F0100353617047AA
:100E980000ED00E0044800232021C2180133262B6E
:100EA80082F80013F9D1704700E100E038B5044634
:100EB8004FF02003EFF3118583F31188BFF36F8F91
:100EC80001F0D5F80A4B9B68A3420BD1094B5A682D
:100ED800C2F3080212B92846FFF70EFE5A6842F01C
:100EE80080525A602846BDE8384001F05BB800BF20
:100EF800F800002000ED00E0014B1860704700BFCB
:100F08007C0E002038B515461C4600293ED19907AD
:100F18002FD59A063AD5630629D41F4A1F4B14F0D9
:100F2800040F18BF1346A20602F080421A43630456
:100F380003F080731A4304F44073B3F5807F1FD025
:100F4800B3F5007F1FD023BB42F4C042144B1B688B
:100F580028461B6800219847124A14F0010042EA0B
:100F6800850217BF012310601360002038BD0E4BA7
:100F7800D9E713F0010F0CBF4FF000520022D6E75B
:100F880042F48042E2E742F40052DFE76FF02200C9
:100F9800ECE76FF01500E9E70000062000000520E7
:100FA800B4010010001A444200000720084621B18D
:100FB80001290AD06FF0150070470649096821FA1F
:100FC80002F202F001021A607047024A12681A60BF
:100FD80000207047C0200240014B1868704700BFCE
:100FE800E02002400F4983680A6870B59D680A606E
:100FF80019680646A1B10C68002C05EA020538BF3D
:1010080000248B681D4203D04B682A463046984717
:1010180034B12368002B38BF002321461C46F0E773
:1010280070BD00BFE020024038B5124C85682368C7
:1010380004205B69984723684FF4A060DB699847F0
:101048000D4B01221A600D4A13689B07FCD500223C
:1010580010461146FFF7AEFD0020FFF79BFD054C3B
:101068000023AB60236804205B6B98470128F9D103
:10107800002038BDB801001028200860282008404A
:10108800084621B101290BD06FF0150070470121E6
:1010980001FA02F213B1074B1A607047064BFBE7DF
:1010A8004FF0FF321BB1034B1A6000207047024912
:1010B8000A60FAE790200240A020024038B5036891
:1010C8009B681868846914F010040D4606D1054B16
:1010D8001B681B6998472870204638BD4FF0FF30C1
:1010E800FBE700BFD001001003689A68024B106844
:1010F8001B68DB69184700BFD0010010F8B50B79F1
:10110800042B05460C464ED8284AD35C4A79032A54
:1011180049D8DFE802F04504450243F00803A27904
:10112800032A40D8DFE802F00402333643F02003F4
:10113800E679012E03D0022E32D0002E33D12A6850
:1011480090681B4A1268D0E9000157682268B847BE
:101158002B689A6811680A6BFEB142F440429B689A
:101168000A631B68DA6A42F01002DA621A6B42F408
:10117800407242F001021A63DA6A94E8030022F02E
:101188001002DA62AB6883E803000020F8BD43F080
:101198004003CDE743F06003CAE722F44042DEE7AC
:1011A8006FF02200F2E76FF01500EFE78E230000E2
:1011B800D001001038B5194D2B6804465B69022030
:1011C80098472B684FF40070DB6998472B684FF4F9
:1011D80000705B6A9847124B01221A60114A136823
:1011E8009B07FCD50D4D2B6802205B6B98470128A7
:1011F800F9D10D4D2B684FF4C0421B681021032014
:1012080098472B68094A1B680F2102209847A16854
:101218002046BDE83840FFF771BF00BFB801001095
:101228002820086028200840B40100100060002031
:10123800244B1B689B0770B5064607D4224B234AEC
:101248001B68C3F3074343F0F0031370204B214D91
:101258004FF001221A60A3F204431B881E4B1C683E
:101268002B6820461B68984704F04073B3F1807FD1
:1012780002BF1A4B02221A702B6821465B6830465F
:101288009847174B174A1B68C3F3053113F4807F3F
:10129800117014BF144915494022C3F342230A7040
:1012A800DB00134A43F4605313800A4B1B68204643
:1012B8009B689847022000F09DF80E4B01221A60A7
:1012C80070BD00BFB04F0050AC4F00505662084090
:1012D80004A40C40F0010010B44F0050096208400B
:1012E8000C1400500EB00C401C6208402C620840E0
:1012F8006AB00C40940460421B4B10B51C68631C18
:1013080008BF002400F0F6FD184B00221A60184BA5
:101318001B689B6C9847174B1B6823B1164B2046DC
:101328001B68FFF785FF154B00221A60144A1368E3
:1013380023F07F6323F4702343F09C7343F48033DA
:101348001360104B1A68C2F30132012A06D11968DA
:101358000D4A0A4042F4003119601A600B4A1368BA
:10136800002BFCD110BD00BF1C1300508404604248
:10137800F001001080012843800520438C2108409B
:101388004820034028000940EFFFFCFC0C0068429D
:10139800054B1B684BF64130C3F30F33834214BF30
:1013A8004FF0FF30042070471813005008B5104B59
:1013B8001968A3F51E73090F1A68130654BFD2B231
:1013C8000022FFF7E5FF042803D1022909D003D83A
:1013D8000BD14FF0FF3007E00329FAD102F11500D5
:1013E80001E002F10B0040B208BD0A20FCE700BF93
:1013F8001813005070B50A4A0A4D0B490B4C136874
:101408002E689E42FCD1834209D0CB5C0E5C9E4282
:1014180023448CBF5B7813F8013C1360EFE770BD81
:1014280000600C4004600C409323000097230000E8
:101438000A4B70B518700A4B53F82040013000264B
:1014480053F82050A54200D870BD236820465B6839
:10145800984700B166600C34F4E700BF34010020FF
:1014680034230000104B70B5104C05461E469C42B4
:1014780004D10E4CB44209D1002412E062681AB1BA
:1014880022681268AA420CD00C34F0E763680BB9E2
:101498000C34EFE723682846196800F05EFC002842
:1014A800F6D1204670BD00BFE40E0020900E00204B
:1014B8000248034A0021121A00F086BC00000020EE
:1014C8003801002008B50648064A0749121A00F0F4
:1014D80050FCBDE80840054A0549064800F049BCEB
:1014E800780E0020F80E0020EC2300000000000019
:1014F800EC2300000000002008B50220FFF798FF49
:10150800084A0949094800F003FC0320FFF790FF47
:1015180000F060FAFEF74CFF054A137B23F0010345
:10152800137308BDE12300009B230000BB230000C8
:101538009400002080B5364BA0B083F30888354C62
:10154800354E636943F4007363610025E02384F832
:101558002230E57725766576A576636A43F4E0233D
:101568006362FFF78FFCFFF773FB4FF0FF33A36253
:10157800E36207AB64222946184600F025FC274C95
:101588000127A06028468DF82970FFF751FF3846DB
:10159800FFF74EFF00F0D0F9214B26624FF480622E
:1015A800CDE90473CDE902551E4B1F49CDE900551D
:1015B800304600F0F7F9737B23F0040213F01B0F99
:1015C800727304D1B36913B9304600F0DFF8174BD2
:1015D800174D059301220F23CDE903320023CDE9EE
:1015E8000133144900934FF4A072134B284600F0BE
:1015F800D9F96B7B0C490848E56023F004036B7349
:101608000E4B4FF48062C4E90633064BFFF70CFB20
:10161800780E002000ED00E094000020F800002083
:10162800E22300000115000038010020E723000034
:10163800300000203805002035210000100100206E
:1016480010B5084C23685BB1FFF734FA03462068ED
:10165800054A0344BDE810401361002100F04CBD69
:1016680010BD00BF2C010020F8000020F8B5054689
:101678000C464FF02003EFF3118683F31188BFF374
:101688006F8F0D4B00224FF4004740F2E7300021E6
:101698001A61E7FB05014FF47A720023FEF718FD83
:1016A800064B1860064B1C60FFF7CAFF86F31188CB
:1016B800BFF36F8FF8BD00BFF80000202C01002099
:1016C800280100204FF02003EFF3118183F31188E4
:1016D800BFF36F8F044B9A68D37B013BD37381F3BD
:1016E8001188BFF36F8F7047F8000020094B03F192
:1016F8002402824205D19B688B4202D14B7BDB06D8
:1017080006D1D1E9003213605A600023C1E90033E1
:10171800704700BFF800002038B50D4C024604F1B0
:10172800240000F055FC054600B9E568A3684AB9ED
:101738005A7BD20606D1AA6922B9DA897F2A01D949
:10174800236238BD9D4201D0FFF77AFF2562F8E792
:10175800F800002010B54FF02003EFF3118483F355
:101768001188BFF36F8F084B9A68D37B0133D3730B
:101778000020FFF7D1FF84F31188BFF36F8FBDE816
:10178800104000F01BBC00BFF8000020F8B54FF077
:101798002003EFF3118583F31188BFF36F8F164A87
:1017A8001146946A51F8243F8B4208BF0023002B4E
:1017B80038BF0023D3B190F90E7093F90E60B74289
:1017C80003DB9C4212D01B68F4E75A68C0E9003278
:1017D80010605860437B43F0400343730020FFF7D9
:1017E8009BFF85F31188BFF36F8FF8BDC0E9001424
:1017F800936A18609062EDE7F8000020F8B501469A
:101808004FF02003EFF3118483F31188BFF36F8F38
:10181800437B5A0602D51948FFF768FF184A104655
:10182800956A50F8243F834208BF0023002B38BF35
:101838000023EBB191F90E7093F90E60B74203DB08
:101848009D4215D01B68F4E75868C1E90030016073
:1018580059604B7B906843F040034B73431A5842DE
:101868005841FFF759FF84F31188BFF36F8FF8BD14
:10187800C1E90005936A19609162EAE71C0100203A
:10188800F800002038B5154A154B146801469868C9
:10189800A0421C4603D1BDE83840FFF7D1BE002561
:1018A8001560104A1268B2B1C2897F2A13D80E4A4D
:1018B80090F90E50126895420DDB0C4A90420AD0FE
:1018C800826942B91A698A4202DCFFF797FFE2E7A8
:1018D800521A1A6138BD00232361FBE72401002056
:1018E800F80000202C0100202801002030000020F2
:1018F80010B501464FF02003EFF3118483F31188EC
:10190800BFF36F8F437B5A0606D50948FFF7EEFEF3
:101918004B7B23F040034B73064B9868431A58429D
:101928005841FFF7F9FE84F31188BFF36F8F10BD9C
:101938001C010020F8000020044B002103F12402C0
:10194800C3E909220846FFF791BE00BFF80000204E
:10195800014B9868704700BFF800002010B5024698
:101968004FF02003EFF3118483F31188BFF36F8FD7
:10197800437B590704D484F31188BFF36F8F10BDDC
:1019880023F00403437300F05DFB10B11046FFF72A
:10199800FDFE21460248BDE8104000F0F8BA00BF3D
:1019A8003501002030B587B004460E9D04950D9D85
:1019B80003950C9D02950B9D01950A9D0095FFF7D7
:1019C80011F9034B9B6803B19B6DA36507B030BD4C
:1019D800F80000202DE9F04F284E294D87B0B04679
:1019E800B54205F1300410D3FFF76CFE244CDFF844
:1019F80094A04FF4004940F2E7360027444521D32C
:101A080007B0BDE8F04FFFF7A5BE54F8043C0593B6
:101A180054F8103C049354F8143C039354F8183CBD
:101A2800029354F81C3C019354F8203C009354E969
:101A38000A2354E90C01FFF7B5FF54F8303CDD6484
:101A48002546CDE7616A4B1C04D0256821B9284694
:101A5800FFF784FF3034D1E7B346BC46E9FB01BC4D
:101A68004FF47A72002358466146FEF731FB51461F
:101A7800421C05F1180000F041F8EBE7E40E0020E5
:101A8800E40E0020ED1F0000034B1B680BB9FFF7A5
:101A980011B80020704700BF30010020036840B132
:101AA800074A5268904204D01BB19A6881680A4478
:101AB8009A60426813605A600023C0E90033704797
:101AC800880E00200B4B10B51C689C4208BF0024F0
:101AD800FFF7DAFF54B1A368181A20EAE070064B42
:101AE8001B6913B19842A8BF184610BD6FF000409B
:101AF800F5E700BF880E0020F800002070B5044606
:101B08001646C1604FF02003EFF3118583F3118867
:101B1800BFF36F8FFFF7B8FF184B1A68012EACBFE1
:101B2800801901309A42A06001D05E6832B95A68C3
:101B380062605A68236014605C600AE09068A1687B
:101B4800884215DD411A91605168C4E900210C6092
:101B580054601A689A4206D0944204D1FFF7B2FF43
:101B68000021FEF73DFF85F31188BFF36F8F70BD2D
:101B7800091A9642A160DAD01268D7E7880E0020C9
:101B88002DE9F0470646FFF77DFE4FF02003EFF3FF
:101B9800118483F31188BFF36F8F204DDFF88080A5
:101BA800DFF880A02E60C146DAF800002A685045A8
:101BB800D8E9006705D020B18368934213DD9B1AEA
:101BC8008360B61847EBE277C9E9006700262E6004
:101BD800FFF778FF3146FEF703FF84F31188BFF360
:101BE8006F8FBDE8F087F61847EBE377D31A2B60C1
:101BF80000238360C8E90067FFF750FF84F311886A
:101C0800BFF36F8FC36898474FF02003EFF3118439
:101C180083F31188BFF36F8FC6E700BF3001002040
:101C280008000020880E002038B5074C074DAC424C
:101C380001D3002038BD04F114032046C4E905335C
:101C480000F006F81C34F2E7E40E0020E40E002051
:101C58002DE9F04F46680789016890F80A80FF234C
:101C680006FB07FCC3726144324600234FF00C099F
:101C7800984505DC002319468F4220DCBDE8F08F2B
:101C8800D0F80CA0BCFBF2F509FB03FE0AEB0E042E
:101C980004F1040B202DC4E901BB05D8C3729208D6
:101CA80022F003020133E3E715F11F0448BF05F1F1
:101CB8003E0464114AF80E1001EB8401EFE7C26894
:101CC800056802F1040CEC1845F803C095686560D6
:101CD800956801312C6033449460CDE7044608B51B
:101CE800084611461A46A047FFF732FEFFF7DEF80E
:101CF8000020704770B504460D464520A047294688
:101D08005220A047294623465220BDE87040184774
:101D18000FB407B504A951F8040B0191FEF742FD71
:101D280003B05DF804EB04B07047704708B5FFF7DF
:101D3800E3FA002008BD002070477047FEF794BF03
:101D480000F0F4B80146006800F0F0B808B5FEF7F6
:101D580095FFBDE80840FEF7C1BE431E013913F8E0
:101D6800012F11F8010F824201D1002AF7D1101A70
:101D78007047F0B581EA0004A50703460BD0013B84
:101D88000A4491421BD1F0BD002AFCD011F8014B46
:101D980003F8014B013A9C07F6D122F003041D1FFA
:101DA80096080F19B94205D16FF0030505FB062205
:101DB8002344E4E751F804CB45F804CFF2E711F8DF
:101DC800014B03F8014FDCE770B5C9B203469C0725
:101DD80011D141EA012422F0030644EA04451E44D5
:101DE8009408B3420DD16FF0030505FB04221A4491
:101DF800934209D170BD002AFCD003F8011B013AB7
:101E0800E5E743F8045BECE703F8011BF0E74FF064
:101E1800FF3070478368186830B558B10024814294
:101E280013D108685CB95C681860A14200D1586099
:101E38000020086072B9002030BD2846EFE7206016
:101E48005868814208BF5C60F2E705680446002DC7
:101E5800F3D13AB11A680A60586819600028EAD1C3
:101E68005960E9E76FF01500E6E78368084621B195
:101E7800012909D06FF015007047012101FA02F21B
:101E880099681143996070474FF0FF329A600020BB
:101E980070478368084621B101290AD06FF0150000
:101EA8007047012101FA02F2996821EA020199605A
:101EB800704700209860704703689B6819684A68F3
:101EC800002002F00F03486002F00200C2F3C002D3
:101ED80010439A0002F004025B00104303F0080369
:101EE8001843704782680B4692E8030083E80300B2
:101EF8000020704708B5FFF74BFA042803D1FFF715
:101F080055FA132800DCFEE708BD03680BB14068EA
:101F1800184770474FF02002EFF3118382F31188BE
:101F2800BFF36F8FFEE708B5FFF7F4FF70B50546FE
:101F38000E46FFF70DFD314604462846FFF7F3FF2E
:101F48002046BDE87040FEF7B1BF437BDB0603BF08
:101F58008069B0FA80F040090020704738B504461F
:101F68004FF02003EFF3118583F31188BFF36F8FD0
:101F780001468068FFF7BAFB637B23F002036373B3
:101F880085F31188BFF36F8F0023A36038BD21B993
:101F9800EFF3058008B9FEF7AFBD81F31188BFF3F1
:101FA8006F8F7047034620B9EFF305820AB9FEF731
:101FB800A3BD83F31188BFF36F8F70474FF02003E1
:101FC800EFF3118083F31188BFF36F8FFFF7EABF38
:101FD80003460068834203D0002838BF00207047BA
:101FE8000020704738B550F8103C0446A0F118019D
:101FF800C3B14FF02003EFF3118583F31188BFF3CA
:102008006F8F50F8100CFFF771FB14F80B3C23F09E
:10201800020304F80B3C85F31188BFF36F8F00238C
:1020280044F8103C14F80B3C23F0140304F80B3C60
:102038000846FFF78AFF20B1BDE838400846FFF799
:10204800A5BB38BD437BDB0603BF8069B0FA80F0CF
:10205800400900207047009A02738373042200230A
:10206800C0E90633C0E913334273C3737047036D85
:1020780010B5044603B198472046FFF7E3FF38B18F
:102088002046FFF735FC637B43F00803637310BDFC
:10209800637B9B0702D52046FFF760FFA369002BEF
:1020A800F1D004F1180000F001F8ECE710B54FF09A
:1020B8002002EFF3118482F31188BFF36F8F036856
:1020C8003BB1FFF7EBFC002084F31188BFF36F8F5F
:1020D80010BD6FF01500F7E710B54FF02003EFF3D0
:1020E800118483F31188BFF36F8FFFF7EBFC84F340
:1020F8001188BFF36F8F10BD70B504460D464FF0C1
:102108002003EFF3118683F31188BFF36F8FFFF776
:10211800D9FC012805DDA04203DD29462046FEF74B
:102128005FFC86F31188BFF36F8F70BD08B54FF061
:102138002002EFF3118382F31188BFF36F8FFFF74B
:10214800CBFF01210228D8BF0846FFF7D5FFFEF7CD
:0621580085FDECE7704775
:02215E00FFFF81
:08216000ACDFFF7F010000006D
:10216800D80E0020ED0F000000000000451D000003
:1021780000000000451D000000000000451D000093
:1021880000000000B908000000000000451D000024
:1021980000000000451D000000000000451D000073
:1021A80000000000451D000000000000451D000063
:1021B80000000000451D000000000000451D000053
:1021C80000000000451D000000000000451D000043
:1021D80000000000451D000000000000451D000033
:1021E80000000000451D000000000000451D000023
:1021F80000000000451D000000000000451D000013
:1022080000000000451D000000000000451D000002
:1022180000000000451D000000000000451D0000F2
:1022280000000000451D000000000000451D0000E2
:1022380000000000451D000000000000451D0000D2
:1022480020000020131F000000000000451D0000B2
:1022580000000000451D000000000000451D0000B2
:1022680000000000451D000000000000451D0000A2
:1022780028000020131F000000000000451D00007A
:1022880000000000451D000000000000451D000082
:10229800E1230000351D000000000000E1230000DC
:1022A8000908000000000000762300003F1D000020
:1022B800000000007D2300001D0900000000000050
:1022C8008723000031100000000000006F23000089
:1022D800BD11000018230000E1230000311C00009C
:0422E80000000000F2
:1022EC00250800003D08000059080000890800007E
:1022FC000D0F000089100000B50F00001D1E00001E
:10230C00731E00009B1E0000E10F00000010004037
:10231C00006CDC02C5100000F1100000C11E0000B2
:10232C0005110000ED1E0000900E0020CC0E0020C8
:10233C00D80E0020E40E0020E40E0020F5FFFFFF75
:10234C0063633236783272315F6C61756E636878B4
:10235C006C0048656C6C6F20576F726C6421202583
:10236C00730A00554152545F300050494E4D555838
:10237C00007379735F636C6F636B004750494F5FF9
:10238C003000000206828601020003020001037A7B
:10239C0065706879722D76322E312E302D333130B6
:1023AC002D67366532363061663838396230002A2E
:1023BC002A2A20426F6F74696E67205A657068799B
:1023CC0072204F53206275696C642025732025732D
:1023DC00202A2A2A0A006D61696E0069646C650006
:1023EC00F91C0000171E000000C2010000010300D0
:0823FC00880E0020880E00206D
:10240400982200000000000000000000E02200000C
:102414000000000000000000B0220000EC220000D8
:1024240000000000D422000020230000800E0020C1
:10243400A42200000000000000000000BC220000F4
:102444000000000000000000C8220000FC22000080
:042454001400002050
:10245800E40E0020E40E0020000000000000000050
:042468000F00000061
:10246C00FFFFFFFFFFFFFFFFFFFFFFFFFFFFFFFF70
:10247C00FFFFFFFFFFFFFFFFFFFFFFFFFFFFFFFF60
:10248C00FFFFFFFFFFFFFFFFFFFFFFFFFFFFFFFF50
:10249C00FFFFFFFFFFFFFFFFFFFFFFFFFFFFFFFF40
:04FFFC00FFFFFFFF05
:020000021000EC
:10000000FFFFFFFFFFFFFFFFFFFFFFFFFFFFFFFF00
:10001000FFFFFFFFFFFFFFFFFFFFFFFFFFFFFFFFF0
:10002000FFFFFFFFFFFFFFFFFFFFFFFFFFFFFFFFE0
:10003000FFFFFFFFFFFFFFFFFFFFFFFFFFFFFFFFD0
:04FFFC00FFFFFFFF05
:020000022000DC
:10000000FFFFFFFFFFFFFFFFFFFFFFFFFFFFFFFF00
:10001000FFFFFFFFFFFFFFFFFFFFFFFFFFFFFFFFF0
:10002000FFFFFFFFFFFFFFFFFFFFFFFFFFFFFFFFE0
:10003000FFFFFFFFFFFFFFFFFFFFFFFFFFFFFFFFD0
:04FFFC00FFFFFFFF05
:020000023000CC
:10000000FFFFFFFFFFFFFFFFFFFFFFFFFFFFFFFF00
:10001000FFFFFFFFFFFFFFFFFFFFFFFFFFFFFFFFF0
:10002000FFFFFFFFFFFFFFFFFFFFFFFFFFFFFFFFE0
:10003000FFFFFFFFFFFFFFFFFFFFFFFFFFFFFFFFD0
:04FFFC00FFFFFFFF05
:020000024000BC
:10000000FFFFFFFFFFFFFFFFFFFFFFFFFFFFFFFF00
:10001000FFFFFFFFFFFFFFFFFFFFFFFFFFFFFFFFF0
:10002000FFFFFFFFFFFFFFFFFFFFFFFFFFFFFFFFE0
:10003000FFFFFFFFFFFFFFFFFFFFFFFFFFFFFFFFD0
:04FFFC00FFFFFFFF05
:020000025000AC
:10000000FFFFFFFFFFFFFFFFFFFFFFFFFFFFFFFF00
:10001000FFFFFFFFFFFFFFFFFFFFFFFFFFFFFFFFF0
:10002000FFFFFFFFFFFFFFFFFFFFFFFFFFFFFFFFE0
:10003000FFFFFFFFFFFFFFFFFFFFFFFFFFFFFFFFD0
:107FA80000008001100080FFFDFF58003AFFBBF37E
:107FB800FFFFFFFFFFFFFFFFFFFFFFFFFFFFFFFFC9
:107FC800FFFFFFFFFFFFFFFFFFFFFFFFFFFFFFFFB9
:107FD800C50DFEC5FFFFFFFF00FFFFFF00C5C5FF82
:107FE800000000FF00000000FFFFFFFFFFFFFFFF92
:087FF800FFFFFFFFFFFFFFFF89
:0400000300000CE10C
:00000001FF
