:1000000068050020690C000011230000E10B0000CE
:10001000E10B0000E10B0000E10B0000E10B000030
:10002000E10B0000E10B0000E10B0000D90A000029
:10003000E10B0000E10B0000850A0000FD2200003A
:10004000290C0000290C0000290C0000290C0000DC
:10005000290C0000290C0000290C0000290C0000CC
:10006000290C0000290C0000290C0000290C0000BC
:10007000290C0000290C0000290C0000290C0000AC
:10008000290C0000290C0000290C0000290C00009C
:10009000290C0000290C0000290C0000290C00008C
:1000A000290C0000290C0000290C0000290C00007C
:1000B000290C0000290C0000290C0000290C00006C
:1000C000290C0000290C0000290C0000290C00005C
:0C00D000290C0000290C0000290C000085
:1000DC0053B94AB9002908BF00281CBF4FF0FF31A3
:1000EC004FF0FF3000F00CB8ADF1080C6DE904CE08
:1000FC0000F008F8DDF804E0DDE9022304B07047F5
:10010C00704700BF2DE9F04F80468C460846099E8B
:10011C009146154644461946002B40F0C680824253
:10012C00B2FA82F746D94FB1C7F1200E00FA07F3A5
:10013C0028FA0EFEBD404EEA030CBC404FEA1549AE
:10014C001FFA85FEBCFBF9FA220C09FB1AC30AFB49
:10015C000EFB42EA03439B4528D9EB180AF1FF300A
:10016C0004D29B4502D9AAF102002B44A3EB0B034A
:10017C00A4B2B3FBF9F209FB123302FB0EFE44EA04
:10018C000344A64514D92C1902F1FF3303D2A6451A
:10019C0001D9931E2C44A4EB0E0443EA00401EB17B
:1001AC00FC40002334607360BDE8F08F5046DDE7FF
:1001BC001346F0E702B9FFDE87BB831A01214FEA31
:1001CC00154CAAB2B3FBFCFE200C0CFB1E330EFB31
:1001DC0002F840EA0343984563D9EB180EF1FF305F
:1001EC0004D2984502D9AEF102002B44A3EB0803CC
:1001FC00A4B2B3FBFCFE0CFB1E330EFB02F244EA72
:10020C000344A2424FD92C190EF1FF3304D2A2425F
:10021C0002D9AEF102032C44A41ABEE7C7F1200E9A
:10022C0020FA0EF800FA07F324FA0EFEBD404EEA4F
:10023C0003024FEA154CABB2B8FBFCFE110C0CFBE5
:10024C001E800EFB03F941EA0040814504FA07F4D5
:10025C0023D928180EF1FF3104D2814502D9AEF111
:10026C0002012844A0EB090092B2B0FBFCFE0CFB8F
:10027C001E000EFB03F842EA004398450FD9EB1819
:10028C000EF1FF3204D2984502D9AEF102022B4492
:10029C00A3EB080342EA014191E77146E2E772469B
:1002AC00F6E77046A2E77346B6E7834205D90EB16E
:1002BC00C6E900800021084676E7B3FA83F28AB9D2
:1002CC00834201D3C1450BD8B8EB090460EB03039F
:1002DC0001209C46002E68D0C6E9004C002163E743
:1002EC001046F7E7C2F1200E934029FA0EF51D4394
:1002FC0028FA0EF100FA02F320FA0EF40B434FEA3F
:10030C00154A09FA02F708FA02FCB4FBFAF91FFACB
:10031C0085F80AFB19401C0C09FB08F144EA00445F
:10032C00A1423ED92C1909F1FF3004D2A14202D9C5
:10033C00A9F102002C44641A9BB2B4FBFAF90AFB33
:10034C00194409FB08F843EA044188452BD969187C
:10035C0009F1FF3304D2884502D9A9F102032944DB
:10036C0043EA0040A1EB0801A0FB07894945C246BE
:10037C004C4602D306D1C44504D2B8EB070A69EB4C
:10038C00050401388EB1BCEB0A0361EB040CD340BD
:10039C000CFA0EFE4EEA03032CFA02F2C6E9003206
:1003AC009CE74846C7E74B46DAE73146FCE60000D7
:1003BC000149024801F0B8BED02A0000DF2A000033
:1003CC000B6801330B60014B1B681847A80E00200B
:1003DC002DE9F04F85B09B460E9CDFF89090012CD8
:1003EC00B8BF0124012B0CBF302320231546064631
:1003FC008A46029301274FF00A080022B5FBF9F355
:10040C0001930AB9A9451FD8019B514603F130004D
:10041C00B04701370122019B08F1FF38B8F1010FF9
:10042C0009FB13554FF00A03B9FBF3F9E6D151461A
:10043C0005F13000B047BBF1030F02D1E41B002CD7
:10044C000EDC05B0BDE8F08F4445E4DBBBF1020FD8
:10045C00E1D8029803925146B0470137039ADAE784
:10046C0051462020B047013CE9E700BF00CA9A3B47
:10047C00014B1860704700BFA80E00202DE9F04F0B
:10048C008DB01C460027531E05468B4603934FF038
:10049C00FF39B846002605E06EB9252800F07181B9
:1004AC005946A847039B13F8010F03930028F3D177
:1004BC000DB0BDE8F08F7A280AD8622810D8302801
:1004CC0054D045D8252800F05A812D2800F05F81A2
:1004DC0059462520A847039B18785946A847D9E7C1
:1004EC00A0F16303172BF3D801A252F823F000BF3D
:1004FC0083070000C7050000DD040000DD040000D8
:10050C00DD040000A9050000C7050000DD040000A3
:10051C00DD040000A9050000DD040000DD0400007E
:10052C00DD04000069060000DD040000DD040000AD
:10053C0053070000DD04000037060000DD04000056
:10054C00DD04000065050000DD040000A9050000C5
:10055C0039281AD95828BBD1039B1B78702B40F033
:10056C00888054F8043B0693002290E0B9F1000F08
:10057C000EDAB8F1000F00F00D81A0F13009B8F1DE
:10058C00000F08BF4FF002088CE7B9F1000FF4DB45
:10059C000A2303FB0909A9F13009F0E7682803D104
:1005AC00682F06D148277DE76C2802D16C2F00F00C
:1005BC00F480002F8CD1074674E77A2F02D154F8BF
:1005CC00046B21E06C2FFAD04C2FF8D1073424F0B7
:1005DC000704F4E80223CDE90423049B13F1004142
:1005EC00059B089143F100010991DDE908230021E5
:1005FC004FF0FF30994208BF904204D2594628462A
:10060C0001F084FD46E7049E002E05DA59462D20A4
:10061C00A847764209F1FF39CDF80090434632469F
:10062C0059462846FFF7D4FE34E77A2F02D154F806
:10063C00042B0FE06C2FFAD04C2FF8D1073424F098
:10064C000704F4E8022300214FF0FF30994208BF61
:10065C009042D3D3CDF800904346E1E75946302081
:10066C00A84759467820A8474FF008094FF00108D1
:10067C0072E76C2F3FF475AF4C2F7FF472AFE31D14
:10068C0023F007031C4654F8082B06925A680021E5
:10069C001023049107914FF0400AAAF1040A06991D
:1006AC00CAF1200EAAF1200C21FA0AF002FA0EFE71
:1006BC0040EA0E0022FA0CFC40EA0C0010F00F008D
:1006CC0007D1079911B9BAF1000F25D14FF0300CB1
:1006DC0005E009288CBF4FF0570C4FF0300C6044EC
:1006EC00594640B20A920793A847049B0A9A0133D1
:1006FC000493079BBAF1000F23D1B8F1030F7FF4D9
:10070C00C9AE049BC3EB4906002E7FF7C3AE594616
:10071C002020A847013EF7E7591E99450A9107DBAF
:10072C00B8F1010F06D10B9259463020A8470B9A0D
:10073C000A9BB2E7B8F1020FFAD10B92594620206E
:10074C00F4E70796A9E754F8046BB24653461AF837
:10075C00010B68B9B8F1030F21D19E1BA9EB06065A
:10076C00002E7FF797AE59462020A847013EF7E7A9
:10077C005946A847EAE754F8040B5946AEE65946E1
:10078C00ACE63746B0464FF0FF3901268AE64FF00B
:10079C00030887E64FF0010884E64C2782E60646FC
:1007AC0080E600BF07B50B460021024601910348C5
:1007BC0001A9FFF763FE03B05DF804FBCD03000055
:1007CC000A2838B5074D044604D1286843680D2122
:1007DC005B68984728684368E1B25B689847204695
:1007EC0038BD00BF0800002010B5044C204600F0B6
:1007FC0009FC2046BDE81040FFF73ABECD070000CB
:10080C0008B5044801F020F8034B1860FFF7ECFF23
:10081C00002008BDF02A000008000020154B07B589
:10082C001A6882B14FF08042D2F80423D1070AD55E
:10083C0000221A601B6810480093009B83685B7A47
:10084C000BB901F08EFC0D4B1A6882B14FF080424F
:10085C00D2F8042392070AD500221A601B68019370
:10086C00019B074803B05DF804EB01F07ABC03B0C0
:10087C005DF804FB00010040E80E0020040100407C
:10088C00F40E00200D4B0022C3F840214FF0200243
:10089C00EFF3118182F31188BFF36F8F084AD3F8FD
:1008AC0004051368C01A20F07F400344136081F3E1
:1008BC001188BFF36F8F01F06FBB00BF00100140B8
:1008CC002400002073B51C4800F0BEFF80B34368C1
:1008DC001A4D1B6800219847012600244FF48033E1
:1008EC00C5F80845C5F84065C5F8043303F18043E5
:1008FC0003F58A534FF400321C601B680193019B73
:10090C000F4B3146C3F880211120224600F0FEF82F
:10091C00112000F0EBF80B4B1E602E60D5F804355F
:10092C00334423F07F43C5F84035204602B070BDF8
:10093C004FF0FF30FAE700BFF72A0000001001402B
:10094C0000E100E008100140254BF0B5B0F1FF3F8D
:10095C0008BF18464FF02002EFF3118582F311887F
:10096C00BFF36F8F1F49204AD1F804451268A71AAC
:10097C0027F07F463F0219D4013820EAE0709842F4
:10098C00A8BF184601363044984294BF1318D318A8
:10099C001C1B24F07F4423F07F42022CC1F840251D
:1009AC0006D985F31188BFF36F8FF0BD0020E9E7FE
:1009BC00D1F804250D489A1A22F07F42541E844225
:1009CC0005D90B4B4FF40032C3F80021E9E7012A9B
:1009DC0002BF023323F07F43C1F84035E1E700BF8B
:1009EC00FEFFFF000010014024000020FEFF7F00EE
:1009FC0000E100E04FF02002EFF3118382F3118845
:100A0C00BFF36F8F064AD2F80405064A1268801AA3
:100A1C0020F07F4083F31188BFF36F8F704700BFC6
:100A2C00001001402400002004488168406A88427C
:100A3C0003D003494FF080520A6070472001002018
:100A4C0004ED00E0094A0A49936809689966094966
:100A5C0058664B6843F080534B60002383F3118836
:100A6C00BFF36F8F9368986E704700BF2001002012
:100A7C00CC2A000000ED00E012498A684FF02800F3
:100A8C001044EFF3098C80E8F01F202080F31188CC
:100A9C00BFF36F8F0C4F4FF000664A6A8A603E605E
:100AAC00506E0023536680F3118804B5104601F094
:100ABC0030FCBDE8044002F1280090E8F01F8CF3F4
:100ACC00098870472001002004ED00E01EF0040F9F
:100ADC000CBFEFF30880EFF30980816911F8021C59
:100AEC000229FFD001B501F009FC01BD43B2002B76
:100AFC0008DB012200F01F0002FA00F05B09024A39
:100B0C0042F82300704700BF00E100E043B2002B25
:100B1C00A8BF03F1604301F10101B8BF064B4FEAD6
:100B2C004111ACBF03F5614300F00F00C9B2B4BF73
:100B3C00195483F80013704714ED00E073B51E468A
:100B4C000A9B00938C18099B054601F028FEA4F122
:100B5C0020020A4B22F0070223F001039361069B4B
:100B6C005360079B9360089BD3604FF08073D361F5
:100B7C0000231660AA646B6602B070BD01210000F0
:100B8C00F8B505460C4617461E4600F079F90A4B97
:100B9C003C4428469D6024F0070401F0BAFB304623
:100BAC0084F30988002163B681F31188BFF36F8F3A
:100BBC000022002301F09EFA20010020014910229E
:100BCC000A60704710ED00E0404080F3118830BFA0
:100BDC00704700BFEFF30880EFF30981724601B54F
:100BEC0000F0A0F801BD00BF30BFFFF7FDBF00BF94
:100BFC0008B5084B084A23F07F039360BFF34F8F6F
:100C0C00BFF36F8F00F060FE00F068FE00F006F995
:100C1C0000F09CFE0000000000ED00E001B572B693
:100C2C000B4A106A00281EBF0021116201F02FFD33
:100C3C0062B6EFF30580A0F110004FEAC000054941
:100C4C00014409C99847BDE8014003490847000021
:100C5C002001002090280000350A000001F0BEFBA6
:100C6C00202080F3118808484FF40061401880F36D
:100C7C000988EFF314800221084380F31488BFF332
:100C8C006F8FFFF7B5FF0000A80600200C4B9A6A87
:100C9C009A6A9A6A920708D55A6B9A6A120604D510
:100CAC0018B19A6A22F080029A62054B9A6A9A6A83
:100CBC009A6A9A6A002042F0FF029A6208707047A2
:100CCC0000ED00E00D4B9A6A9A6A9A6A920508D573
:100CDC009A6B9A6A120404D518B19A6A22F40042EB
:100CEC009A62064B9A6A9A6AD20558BF9A6A9A6AAD
:100CFC00002042F47F429A620870704700ED00E0D9
:100D0C00074B9A6A9A6A9A6A9A6A9A6A9A6A9A6A69
:100D1C006FEA02426FEA12429A620020704700BFEB
:100D2C0000ED00E070B5364B5B688AB00E46C3F33D
:100D3C000803002585F31188BFF36F8F02F07F4104
:100D4C00B1F17F4F11D102F00C0108290DD0110720
:100D5C0001D4064601250022033B8DF80720032B06
:100D6C0047D8DFE803F0043E423B2E46F3E7244B22
:100D7C00DA6A92073DD4DC6A14F0804408D0283338
:100D8C001B78EBB10DF107010120FFF77FFF044643
:100D9C009DF8073093B92022314602A801F0CDFA14
:100DAC00099B45B3C3F3080222B96FEA53236FEAD8
:100DBC004323099302A9204601F09EFA0AB070BDA4
:100DCC00104B1B782BB10DF107010120FFF77AFFB7
:100DDC00DDE70D4B188884B2002CD9D0FFF790FFBB
:100DEC00D5E70DF107010020CFE70DF10701002039
:100DFC00ECE70024CCE723F4FF7323F00103D8E7DE
:100E0C0000ED00E029ED00E02AED00E0024A536914
:100E1C0043F010035361704700ED00E004480023D9
:100E2C002021C2180133272B82F80013F9D1704707
:100E3C0000E100E038B504464FF02003EFF31185D4
:100E4C0083F31188BFF36F8F01F0B8FC0A4B9B68DA
:100E5C00A3420BD1094B5A68C2F3080212B92846B7
:100E6C00FFF7F0FD5A6842F080525A602846BDE800
:100E7C00384001F03BBC00BF2001002000ED00E039
:100E8C001FB5084B0193084B0293084B039301AB1E
:100E9C000093074A074B0121684600F093F805B010
:100EAC005DF804FB000000200000000000000B06B1
:100EBC000000002000000120DFF884C0F0B50646D9
:100ECC00002710468F4200DBF0BD56F827E0DEF815
:100EDC00044094B343B1651E2C4219D11F2C17D971
:100EEC00DEF80020154213D1202CC2B2DEF80050DF
:100EFC00DEF808000FD9B4F1004F0ED8013CB4FA5B
:100F0C0084F4C4F11F046400072A44EA000406D9DF
:100F1C006FF01500D8E70824F6E73E24F4E725F037
:100F2C001F05154345F0100544F00104CCF80820CA
:100F3C00501CCCF80C50CCF810400137C2E700BF65
:100F4C0090ED00E0034B05225A60BFF34F8FBFF3C7
:100F5C006F8F704790ED00E0BFF35F8F014B002265
:100F6C005A60704790ED00E013490868082810B5E6
:100F7C001ED8FFF7F1FF114C49680022904201F195
:100F8C000C0105D10E4B1870FFF7DCFF002010BDD3
:100F9C00A26051F80C3C23F01F03134343F01003E1
:100FAC00E36051F8043C43F0010323610132E5E7AF
:100FBC004FF0FF30EBE700BF602A000090ED00E03F
:100FCC006001002010B5034C01232278FFF774FF59
:100FDC00207010BD6001002008B5084A002312786B
:100FEC00FFF76AFF10F1160F03D0054B00220728FC
:100FFC0000DD08BD98601A610130F8E7600100203F
:10100C0090ED00E0014B1860704700BFAC0E002063
:10101C004FF02003EFF3118283F31188BFF36F8F2E
:10102C0006490123C1F840354FF08041C1F87835AD
:10103C0082F31188BFF36F8F0020704700E00140EE
:10104C0008B5094B1A786AB90121197006200521D7
:10105C00FFF75CFD0620FFF749FD044B4FF0004203
:10106C00C3F80423002008BD61010020006000408B
:10107C0073B50368544D9B6884681A79D5F80403DA
:10108C0001F01F0343EA4213C0B2002202F5A2761C
:10109C0055F82660C6F30426B34275D120FA02F641
:1010AC00F60771D5900000F1804000F5C040D0F8F3
:1010BC00106526F00106C0F81065012000FA02F256
:1010CC00C5F808239A0002F1A042D2F8000720F4D8
:1010DC004030C2F80007A068C84010F0010051D0A1
:1010EC00E068C84010F001004CD06069C84010F0B6
:1010FC00010056D0A269CA40D2074AD42269E069DD
:10110C00CA4020FA01F102F0010201F001018A4209
:10111C0014BF012102212C4D002404F5A27255F8B4
:10112C00220010F0030036D1A20002F1804202F539
:10113C00C0421B02D2F8106503F4F85343EA014194
:10114C0026F4473604F1400326F440769B00C2F89F
:10115C0010659BB2D2F8106503F1804303F5C043D0
:10116C003143C2F8101518601B680193019BD2F82B
:10117C00103543F00103C2F81035012303FA04F4CF
:10118C00C5F8044302B070BD0132082A7FF47EAF6B
:10119C0098E70321BFE70134082CBED16FF0120091
:1011AC00F0E72369E469D2F80057634023FA01F1B0
:1011BC0001F00101C1F1030125F4403343EA01417F
:1011CC00C2F80017DEE700BF006000402DE9F341D4
:1011DC0055480568002D68D0544B99681B689E686B
:1011EC00D1E902231340D1E90524224323EA020367
:1011FC003268CC690969D2F810254C40544023EA76
:10120C00040401210027002B39D1036003680093EB
:10121C00009B4748002301261F46D0F8042306FAFA
:10122C0003F1114213D09A0002F1804202F5C2423E
:10123C00116861B103F5A27150F8211017601268A2
:10124C000192C1F3042106FA01F1019A0C43013316
:10125C00082BE2D15CBB7DB1344B98681B689F684E
:10126C00D0E902321A40D0E905310B4322EA0302DD
:10127C0001250026002A38D102B0BDE8F0810B42CE
:10128C0010D096F804C007F01F0242EA4C129200EC
:10129C0002F1A04223EA0103D2F800C72CF4403C2F
:1012AC00C2F800C701374900ADE72C46B1E71F4F24
:1012BC00D7F80880D8F800100029CCD00E68002E82
:1012CC0038BF0026D8F80C308A682340134203D06C
:1012DC004B68224638469847002EBCD03368002B0A
:1012EC0038BF002331461E46ECE7154219D03B7936
:1012FC00C46906F01F0141EA43118900036901F139
:10130C00A0416340D1F800C7F34003F00103C3F1DF
:10131C0003032CF4403444EA0343C1F8003722EAB7
:10132C00050201366D00A5E77C610040240F00200A
:10133C0000600040024BD3F88004C3F8800470476F
:10134C000020004030B54B79012B22D18B79032B37
:10135C001FD1CA792AB1012A1BD103689B681B785B
:10136C00BBB10C7914B1022C13D10E240B68B3F55C
:10137C00164F5FD02BD8B3F5165F5DD014D8B3F5EC
:10138C00966F5BD008D8B3F5967F5AD0B3F5167F1D
:10139C005AD06FF022004CE0B3F5166F57D0B3F56E
:1013AC00965FF6D1344B39E0B3F5E14F52D007D804
:1013BC00B3F5615F50D0B3F5964FEAD12F4B2DE0CA
:1013CC0047F61225AB42E4D14FF4000326E0B3F507
:1013DC00613F44D011D8B3F5963F42D008D84DF6B2
:1013EC00C025AB423FD0B3F5614FD2D1244B15E0B1
:1013FC00B3F5E13FCDD1234B10E0B3F5612F35D0E0
:10140C0007D8214DAB4233D0B3F5E12FC1D11F4BDF
:10141C0004E01F4DAB42BCD14FF080531D4D224315
:10142C00C5F82435C5F86C25836803C983E8030027
:10143C00002030BD184BF1E7184BEFE74FF49E231B
:10144C00ECE74FF4A033E9E74FF41C33E6E74FF435
:10145C001D23E3E7124BE1E74FF46C13DEE7114B6E
:10146C00DCE7114BDAE74FF46503D7E70F4BD5E711
:10147C004FF08063D2E700BF00B0130000A04E0015
:10148C0000F0EB0000E0D70190D0030000705F0784
:10149C0040420F000020004000509D0000502700EB
:1014AC0000F0750000B0AF0300903A0100D0BE0E02
:1014BC00084B1A6882B052B1002018601B68019367
:1014CC00019B054BD3F818350B7002B070474FF0E9
:1014DC00FF30FAE70821004000200040094B0022B1
:1014EC001A6082B01A680192019A074A01201060B2
:1014FC00C2F814151A68002AFCD0044B01221A6099
:10150C0002B070471C210040082000400C20004015
:10151C004FF0A04337B5164C4022C3F808250321E1
:10152C0000220825C3F81817C3F82027C4F814554F
:10153C000625C4F80C552025C3F80855C3F8141714
:10154C00C3F81C270523C4F8083507238168C4F8A1
:10155C001035FFF7F7FE48B90423C4F80035054BE6
:10156C0018601B680193019B0123236003B030BDFD
:10157C000020004008210040044B1868421C04BFA6
:10158C00034B1878831F58425841704730010010A4
:10159C00E00F00F0074B1B78062B09D1064B1B689C
:1015AC00C3F30313033B032B02D8044AD05C7047EC
:1015BC0000207047E00F00F0E80F00F0302B000027
:1015CC0008B5FFF7D9FF28B17C4B7D4A1B68C3F3E4
:1015DC0004231360FFF7DEFF10B17A4B7A4A1A60CE
:1015EC00FFF7CAFF28B1794B794A1B68C3F3423322
:1015FC001360FFF7CFFF20B1764AD36823F08073D6
:10160C00D360FFF7B9FF40B14FF080430022C3F81D
:10161C000C21C3F81021C3F83825FFF7BBFF10B11C
:10162C006D4B03221A60FFF7B5FF40B16B4B0522DF
:10163C001A6001229A6700229A603F225A60684B16
:10164C001A68511C0BBF674B674B1A781B6802BF9B
:10165C0008331B68C3F30313062A4DD1033B032B3A
:10166C0003D8624AD35C002B46D04FF08052604BBB
:10167C00D2F80414C3F82015D2F80814C3F82415B2
:10168C00D2F80C14C3F82815D2F81014C3F82C1582
:10169C00D2F81414C3F83015D2F81814C3F8341552
:1016AC00D2F81C14C3F84015D2F82014C3F8441512
:1016BC00D2F82414C3F84815D2F82814C3F84C15E2
:1016CC00D2F82C14C3F85015D2F83014C3F85415B2
:1016DC00D2F83414C3F86015D2F83814C3F8641572
:1016EC00D2F83C14C3F86815D2F84014C3F86C1542
:1016FC00D2F84424C3F87025FFF73EFF28B13D4BC8
:10170C003D4A1B6803F04F031360FFF735FF48B1E8
:10171C004FF08043D3F80024D20744BF6FF001028E
:10172C00C3F800242E4B1B68062B09D12E4B1B68CB
:10173C00033B022B81BF314A136843F4806313606F
:10174C004FF01023D3F80022002A03DBD3F8043225
:10175C00002B2FDA2A4B0122C3F80425D3F80024DE
:10176C00002AFBD04FF010221521C2F80012D3F83A
:10177C000024002AFBD04FF010231522C3F80422BA
:10178C001F4B1A46D3F800140029FBD00021C3F8D4
:10179C000415D2F80034002BFBD0BFF34F8F19493E
:1017AC00194BCA6802F4E0621343CB60BFF34F8F4E
:1017BC0000BFFDE7154B164A1A6008BD2403001044
:1017CC004035014074C007400DF0ADBA4402001022
:1017DC003C050040F0ED00E0A00500401056004034
:1017EC0030010010E00F00F0340100102C2B000031
:1017FC0000C0004058020010E40E00403C170040AE
:10180C0000E0014000ED00E00400FA05B80E0020F5
:10181C000090D0030A4B70B518700A4B53F8204057
:10182C000130002653F82050A54200D870BD236823
:10183C0020465B68984700B166600C34F4E700BF43
:10184C0062010020B82A0000104B70B5104C054600
:10185C001E469C4204D10E4CB44209D1002412E025
:10186C0062681AB122681268AA420CD00C34F0E7F4
:10187C0063680BB90C34EFE723682846196800F04D
:10188C0050FD0028F6D1204670BD00BF300F00205F
:10189C00C40E002008B50B4D4FF02002EFF311835E
:1018AC0082F31188BFF36F8F00F0BDFF0121022876
:1018BC000446D8BF084600F0C6FF2C62FFF784F937
:1018CC00EAE700BF200100200248034A0021121A57
:1018DC0000F05EBD000000206401002008B5064841
:1018EC00064A0749121A00F028FDBDE80840054ACF
:1018FC000549064800F021BDA80E0020440F002029
:10190C00882B000000000000882B00000000002045
:10191C0008B50220FFF77EFF084A0949094800F084
:10192C0003FC0320FFF776FF00F060FAFEF740FDA2
:10193C00054A137B23F00103137308BD7A2B0000B7
:10194C00342B0000542B0000B400002080B5364B23
:10195C00A2B083F30888354C354E636943F40073A9
:10196C0063610025E02384F82230E57725766576DF
:10197C00A576636A43F4E0236362FFF747FAFFF747
:10198C001DF94FF0FF33A362E36207AB6C222946CB
:10199C00184600F0FDFC274C0127A06028468DF866
:1019AC002970FFF737FF3846FFF734FF00F0D0F906
:1019BC00214B66624FF48062CDE90473CDE9025588
:1019CC001E4B1F49CDE90055304600F0F7F9737BEB
:1019DC0023F0040213F01B0F727304D1B36913B913
:1019EC00304600F0DFF8174B174D059301220F23FB
:1019FC00CDE903320023CDE90133144900934FF4B0
:101A0C00A072134B284600F0D9F96B7B0C4908489F
:101A1C00E56023F004036B730E4B4FF48062C4E952
:101A2C000633064BFFF7ACF8A80E002000ED00E0E3
:101A3C00B4000020200100207B2B00001D190000A9
:101A4C0068010020802B0000480000206805002061
:101A5C00A11800003801002010B5084C23685BB1B8
:101A6C00FEF7C8FF03462068054A0344BDE8104052
:101A7C001361002100F0E7BE10BD00BF580100202B
:101A8C0020010020F8B505460C464FF02003EFF37B
:101A9C00118683F31188BFF36F8F0D4B00224FF427
:101AAC00004740F2E73000211A61E7FB05014FF4D3
:101ABC007A720023FEF70CFB064B1860064B1C6079
:101ACC00FFF7CAFF86F31188BFF36F8FF8BD00BF15
:101ADC002001002058010020540100204FF0200369
:101AEC00EFF3118183F31188BFF36F8F044B9A6866
:101AFC00D37B013BD37381F31188BFF36F8F704796
:101B0C0020010020094B03F12802824205D19B6879
:101B1C008B4202D14B7BDB0606D1D1E9003213603C
:101B2C005A600023C1E90033704700BF2001002038
:101B3C0038B50D4C024604F1280000F0EDFD0546C9
:101B4C0000B9E568A3684AB95A7BD20606D1AA69DE
:101B5C0022B9DA897F2A01D9636238BD9D4201D04E
:101B6C00FFF77AFF6562F8E72001002010B54FF00F
:101B7C002003EFF3118483F31188BFF36F8F084BAD
:101B8C009A68D37B0133D3730020FFF7D1FF84F322
:101B9C001188BFF36F8FBDE8104000F0B3BD00BFDC
:101BAC0020010020F8B54FF02003EFF3118583F3EB
:101BBC001188BFF36F8F164A1146D46A51F8283F2B
:101BCC008B4208BF0023002B38BF0023D3B190F900
:101BDC000E7093F90E60B74203DB9C4212D01B6867
:101BEC00F4E75A68C0E9003210605860437B43F058
:101BFC00400343730020FFF79BFF85F31188BFF36D
:101C0C006F8FF8BDC0E90014D36A1860D062EDE79D
:101C1C0020010020F8B501464FF02003EFF31184AA
:101C2C0083F31188BFF36F8F437B5A0602D5194893
:101C3C00FFF768FF184A1046D56A50F8283F8342D0
:101C4C0008BF0023002B38BF0023EBB191F90E70B5
:101C5C0093F90E60B74203DB9D4215D01B68F4E785
:101C6C005868C1E90030016059604B7B906843F0C3
:101C7C0040034B73431A58425841FFF759FF84F302
:101C8C001188BFF36F8FF8BDC1E90005D36A1960E5
:101C9C00D162EAE7480100202001002038B5154A3E
:101CAC00154B146801469868A0421C4603D1BDE848
:101CBC003840FFF7D1BE00251560104A1268B2B14A
:101CCC00C2897F2A13D80E4A90F90E501268954299
:101CDC000DDB0C4A90420AD0826942B91A698A42D9
:101CEC0002DCFFF797FFE2E7521A1A6138BD0023B6
:101CFC002361FBE750010020200100205801002047
:101D0C00540100204800002010B501464FF020037C
:101D1C00EFF3118483F31188BFF36F8F437B5A0663
:101D2C0006D50948FFF7EEFE4B7B23F040034B73BF
:101D3C00064B9868431A58425841FFF7F9FE84F352
:101D4C001188BFF36F8F10BD4801002020010020C7
:101D5C00044B002103F12802C3E90A220846FFF7CD
:101D6C0091BE00BF20010020014B9868704700BF56
:101D7C002001002010B502464FF02003EFF3118430
:101D8C0083F31188BFF36F8F437B590704D484F31B
:101D9C001188BFF36F8F10BD23F00403437300F061
:101DAC00F5FC10B11046FFF7FDFE21460248BDE8D8
:101DBC00104000F090BC00BF6301002030B587B02C
:101DCC0004460E9D04950D9D03950C9D02950B9D4F
:101DDC0001950A9D0095FEF7B1FE034B9B6803B17C
:101DEC001B6E236607B030BD200100202DE9F04F9B
:101DFC00284E294D87B0B046B54205F1300410D3BA
:101E0C00FFF76CFE244CDFF894A04FF4004940F22D
:101E1C00E7360027444521D307B0BDE8F04FFFF764
:101E2C00A5BE54F8043C059354F8103C049354F8A4
:101E3C00143C039354F8183C029354F81C3C019343
:101E4C0054F8203C009354E90A2354E90C01FFF7A1
:101E5C00B5FF54F8303CDD642546CDE7616A4B1C78
:101E6C0004D0256821B92846FFF784FF3034D1E728
:101E7C00B346BC46E9FB01BC4FF47A7200235846CA
:101E8C006146FEF725F95146421C05F1180000F099
:101E9C0041F8EBE7300F0020300F0020392700000D
:101EAC00034B1B680BB9FEF7A5BD0020704700BFA4
:101EBC005C010020036840B1074A5268904204D08C
:101ECC001BB19A6881680A449A60426813605A6030
:101EDC000023C0E900337047BC0E00200B4B10B53B
:101EEC001C689C4208BF0024FFF7DAFF54B1A368BA
:101EFC00181A20EAE070064B1B6913B19842A8BF70
:101F0C00184610BD6FF00040F5E700BFBC0E002076
:101F1C002001002070B504461646C1604FF0200326
:101F2C00EFF3118583F31188BFF36F8FFFF7B8FFC1
:101F3C00184B1A68012EACBF801901309A42A06070
:101F4C0001D05E6832B95A6862605A6823601460C6
:101F5C005C600AE09068A168884215DD411A9160C6
:101F6C005168C4E900210C6054601A689A4206D08A
:101F7C00944204D1FFF7B2FF0021FEF7E5FC85F394
:101F8C001188BFF36F8F70BD091A9642A160DAD029
:101F9C001268D7E7BC0E00202DE9F0470646FFF784
:101FAC007DFE4FF02003EFF3118483F31188BFF310
:101FBC006F8F204DDFF88080DFF880A02E60C14647
:101FCC00DAF800002A685045D8E9006705D020B13E
:101FDC008368934213DD9B1A8360B61847EBE27754
:101FEC00C9E9006700262E60FFF778FF3146FEF73F
:101FFC00ABFC84F31188BFF36F8FBDE8F087F61844
:10200C0047EBE377D31A2B6000238360C8E90067A2
:10201C00FFF750FF84F31188BFF36F8FC3689847A5
:10202C004FF02003EFF3118483F31188BFF36F8F0C
:10203C00C6E700BF5C01002000000020BC0E0020A1
:10204C0038B5074C074DAC4201D3002038BD04F124
:10205C0014032046C4E9053300F006F81C34F2E7FB
:10206C00300F0020300F00202DE9F04F4668078913
:10207C00016890F80A80FF2306FB07FCC3726144D9
:10208C00324600234FF00C09984505DC0023194615
:10209C008F4220DCBDE8F08FD0F80CA0BCFBF2F531
:1020AC0009FB03FE0AEB0E0404F1040B202DC4E91A
:1020BC0001BB05D8C372920822F003020133E3E797
:1020CC0015F11F0448BF05F13E0464114AF80E10C7
:1020DC0001EB8401EFE7C268056802F1040CEC180F
:1020EC0045F803C095686560956801312C603344F0
:1020FC009460CDE7044608B5084611461A46A04739
:10210C00FFF732FEFEF796FE0020704770B50446CE
:10211C000D464520A04729465220A0472946234674
:10212C005220BDE8704018470FB407B504A951F808
:10213C00040B0191FEF736FB03B05DF804EB04B021
:10214C007047704783685A7A22B9187AB0FA80F0CF
:10215C00400970470220704783680020C3E90000E3
:10216C00704738B584680123054663724FF020032D
:10217C00EFF3118183F31188BFF36F8F23682BB1B9
:10218C0060681A682260834208BF626081F311881C
:10219C00BFF36F8F03B938BDD3E9012128469047AF
:1021AC00E4E7F8B5036805469E68836832B11968A0
:1021BC008A424CD011B109680029F9D14FF02000A6
:1021CC00EFF3118180F31188BFF36F8F1C7A013408
:1021DC00E4B21C7281F31188BFF36F8F0AB34FF016
:1021EC0080410320C1F80803597A81B94FF02000CF
:1021FC00EFF3118780F31188BFF36F8F116058686C
:10220C00D0B9C3E9002287F31188BFF36F8F4FF069
:10221C0080430320C3F8040319B1D2E901312846E5
:10222C009847012C06D133684BB9B37A03F180433C
:10223C0001221A6000200CE002605A60E3E7284695
:10224C0098470028F1D12846FFF78BFFF2E76FF093
:10225C000F00F8BD0022FFF7A4BF002210B501212A
:10226C0004461046FEF752FC0020FEF73FFC4FF0F0
:10227C0080430122C3F818250322C3F80423A36862
:10228C000020C3E9000010BD026873B5956884682E
:10229C004FF02003EFF3118683F31188BFF36F8F98
:1022AC00237A03B3013BDBB22372FBB9C4E90033DD
:1022BC006B68A3B9EB7A03F1804301221A602B8976
:1022CC0003F1804300221A601B680193019B0020DC
:1022DC00607286F31188BFF36F8F02B070BD9847A0
:1022EC000028E7D1F3E76FF04400F2E70020F0E7B5
:1022FC0070477047FEF76EBC00F0BAB90146006833
:10230C0000F0B6B908B5FEF76FFCBDE80840FEF763
:10231C008BBB07B5002101A8FEF75EFE03B05DF88C
:10232C0004FB431E013913F8012F11F8010F8242EF
:10233C0001D1002AF7D1101A7047F0B581EA0004D8
:10234C00A50703460BD0013B0A4491421BD1F0BDBB
:10235C00002AFCD011F8014B03F8014B013A9C0701
:10236C00F6D122F003041D1F96080F19B94205D1AE
:10237C006FF0030505FB06222344E4E751F804CB78
:10238C0045F804CFF2E711F8014B03F8014FDCE7F5
:10239C0070B5C9B203469C0711D141EA012422F061
:1023AC00030644EA04451E449408B3420DD16FF071
:1023BC00030505FB04221A44934209D170BD002A7F
:1023CC00FCD003F8011B013AE5E743F8045BECE7AA
:1023DC0003F8011BF0E74FF0FF307047FFF7F0B840
:1023EC0010B504688068A468C0692468012904D108
:1023FC004340C4F80435002010BD003B20FA02F025
:10240C004FF0010118BF012300F0010091408342FD
:10241C0014BFC4F80815C4F80C15ECE7F0B5054664
:10242C00006880680668A868D6F81475C069D6F884
:10243C001045D6F80465604074403C40604001296A
:10244C001CBFD04000F0010018600020F0BD836874
:10245C00186830B558B10024814213D108685CB9B2
:10246C005C681860A14200D158600020086072B905
:10247C00002030BD2846EFE720605868814208BF35
:10248C005C60F2E705680446002DF3D13AB11A6896
:10249C000A60586819600028EAD15960E9E76FF0C2
:1024AC001500E6E72DE9F74F03F47044B4F5A04F9F
:1024BC00866880461F4642D00FDCB4F5405F40D0A2
:1024CC0006DCA4B1B4F5805F3DD06FF0150033E0AD
:1024DC00B4F5804FF9D1022409E0B4F5404F34D063
:1024EC00B4F5504F33D0B4F5E04FEED1052407F4DA
:1024FC004070B0F5807F2CD0A0F500756842684123
:10250C0007F0010C4FEA4C03012943EA0C0343EAA0
:10251C00042418BFD5B207F0020312BFA9464FF02E
:10252C001F09002544EA80044FF0A04A4FF0010B2C
:10253C000193A9450FD2002003B0BDE8F08F03240E
:10254C00D5E70424D3E70124D1E70624CFE70724F9
:10255C00CDE70320D4E7D8F8003001999B681A79AD
:10256C0005F01F0343EA421303F5E0734AF82340D6
:10257C000BFA05F3B26819B31A43B2607269B80664
:10258C004CBF1A439A437261B26979064CBF1A4325
:10259C009A43B261326978074CBF1A439A4332614D
:1025AC00F26939064CBF134322EA0303F36129464F
:1025BC004046FEF75DFD0028BED10135EDB2B8E70F
:1025CC0022EA0302D9E701292DE9F04118BFD4B260
:1025DC008768054612BF26461F2600244FF00108C7
:1025EC00B44202D90020BDE8F081FB6808FA04F27D
:1025FC0023EA0203FB6021462846FEF739FD00283A
:10260C00F1D10134E4B2EBE701292DE9F04118BF17
:10261C00D4B28768054612BF26461F2600244FF009
:10262C000108B44202D90020BDE8F081FB6808FA29
:10263C0004F21343FB6021462846FEF719FD0028DF
:10264C00F2D10134E4B2ECE782680B4692E8030065
:10265C0083E80300002070474FF02002EFF3118352
:10266C0082F31188BFF36F8FFEE708B5FFF7F4FF15
:10267C0070B505460E46FFF777FB314604462846F3
:10268C00FFF7F3FF2046BDE87040FEF7D3BBFFF722
:10269C0030BE437BDB0603BF8069B0FA80F0400993
:1026AC000020704738B504464FF02003EFF3118536
:1026BC0083F31188BFF36F8F01468068FFF722FA0E
:1026CC00637B23F00203637385F31188BFF36F8F71
:1026DC000023A36038BD21B9EFF3058008B9FEF7DC
:1026EC00B1B981F31188BFF36F8F7047034620B9DE
:1026FC00EFF305820AB9FEF7A5B983F31188BFF38E
:10270C006F8F70474FF02003EFF3118083F3118824
:10271C00BFF36F8FFFF7EABF03460068834203D015
:10272C00002838BF002070470020704738B550F89B
:10273C00103C0446A0F11801C3B14FF02003EFF395
:10274C00118583F31188BFF36F8F50F8100CFFF7CE
:10275C00D9F914F80B3C23F0020304F80B3C85F375
:10276C001188BFF36F8F002344F8103C14F80B3C16
:10277C0023F0140304F80B3C0846FFF78AFF20B142
:10278C00BDE838400846FFF70DBA38BD437BDB0681
:10279C0003BF8069B0FA80F040090020704710B583
:1027AC00029C0473837304240023C0E90633C0E93C
:1027BC001333C0E916124473C37310BD036D10B507
:1027CC00044603B198472046FFF7E0FF38B1204696
:1027DC00FFF79AFA637B43F00803637310BD637BC6
:1027EC009B0702D52046FFF75DFFA369002BF1D0B4
:1027FC0004F1180000F001F8ECE710B54FF02002DE
:10280C00EFF3118482F31188BFF36F8F03683BB130
:10281C00FFF750FB002084F31188BFF36F8F10BDBE
:10282C006FF01500F7E710B54FF02003EFF31184AC
:10283C0083F31188BFF36F8FFFF750FB84F311887C
:10284C00BFF36F8F10BD70B504460D464FF02003DB
:10285C00EFF3118683F31188BFF36F8FFFF73EFB05
:10286C00012805DDA04203DD29462046FEF76CF861
:0C287C0086F31188BFF36F8F70BD7047AA
:0828880088D8FF7F0100000069
:1028900000000000290800000000000001230000E3
:1028A00000000000012300000000000001230000E0
:1028B00000000000012300000000000001230000D0
:1028C00000000000D91100000000000001230000FA
:1028D00000000000012300000000000001230000B0
:1028E00000000000012300000000000001230000A0
:1028F0000000000001230000000000000123000090
:10290000000000000123000000000000012300007F
:1029100000000000012300000000000091080000FA
:10292000000000000123000000000000012300005F
:10293000000000000123000000000000012300004F
:10294000000000000123000000000000012300003F
:10295000000000000123000000000000012300002F
:10296000000000000123000000000000012300001F
:10297000000000000123000000000000012300000F
:1029800000000000012300000000000001230000FF
:1029900000000000012300000000000001230000EF
:1029A00000000000012300000000000001230000DF
:1029B00000000000012300000000000001230000CF
:0829C0000000000001230000EB
:1029C8007A2B00000D08000000000000F72A000024
:1029D80065210000542A0000012B00006722000036
:1029E800482A00000B2B0000D1080000000000005E
:1029F8007A2B0000750F0000000000007A2B000001
:102A08001D10000000000000242B00004D100000E5
:102A18009C2A0000F02A00001D1500002B2B000046
:0C2A28007A2B00004D2000000000000090
:102A34006122000095220000AF2100000000000088
:102A4400512100000000000000000000000100040B
:102A540000000000000000000401080C0200000057
:102A6400682A000000000000152B00002400020763
:102A7400000000201D2B00001E000B11B1240000DB
:102A8400ED230000292400005B240000152600002B
:102A9400D3250000000000000000005000000000EA
:102AA400BD140000E914000041130000511300009C
:102AB40055260000C40E0020180F0020240F00200B
:102AC400300F0020300F0020F5FFFFFF6E726635D7
:102AD400325F70636131303034300048656C6C6F44
:102AE40020576F726C64212025730A00554152549B
:102AF4005F3000434C4F434B5F33324B00434C4FEA
:102B0400434B5F31364D007379735F636C6F636B56
:102B140000464C4153485F30005352414D5F3000F2
:102B24004750494F5F3000010000010101000000DF
:102B34007A65706879722D76322E312E302D3331CC
:102B4400302D673665323630616638383962300088
:102B54002A2A2A20426F6F74696E67205A6570684A
:102B64007972204F53206275696C64202573202587
:102B740073202A2A2A0A006D61696E0069646C65F3
:042B8400000000004D
:102B880015210000E323000000C20100000103003A
:0C2B98000090D003BC0E0020BC0E0020FA
:102BA400042A00000000000000000000282A0000A1
:102BB4000000000000000000F829000000000000F0
:102BC40000000000E0290000342A00000C0000206E
:102BD400D4290000342A0000180000201C2A000018
:102BE400A42A0000B00E0020C82900000000000044
:102BF40000000000EC2900000000000000000000BC
:0C2C0400102A0000802A00002800002098
:102C1000300F0020300F00200000000000000000F6
:042C20000F000000A1
:0400000300000C6984
:00000001FF
