:20000000003C01202544010039FB021039FB021039FB021039FB021039FB021039FB021075
:1C00200039FB021039FB021039FB021039FB021039FB021039FB021011FB021002
:20003C002DE9F04FD34DD5A0A8620820ADF13C0D28634FF0FF30E86228464063402018F0E5
:20005C00EBFC00262946D04B8863314618B1CA00865082185360491C0829F7DBD2A0286073
:20007C00EE604FF0070BC5F808B04FF0FF376F60382018F0D1FC0028286120D0CDA101606F
:20009C00C24F4760D0A48460C14BC36017D0066105F11401416112D0D0A18161BD4FC761A1
:2000BC000DD0066205F12801416208D0D0A18162B94FC76203D0066305F1B4014163CFA0C6
:2000DC000F2768614FF0FF34EF612B46AC6178202B6218F0A1FC05F1280705F1B4043146B1
:2000FC00AE4B686218B1CA00865082185360491C0F29F7DBEE63052068644FF0FF332B64BA
:20011C002820AF6418F088FC0028E86416D0BDA10160A34F4760866005F1A003C3600DD0AB
:20013C00BBA10161E54F476108D0866105F18C01C16103D0BBA10162E14F4762BCA0C5F821
:20015C00A0000427C5F8A87005F13C020C924FF0FF33C5F8A4302020C5F8AC2018F05CFCE6
:20017C000746002FC5F8B0700FD0B4A03860D5487860B5A1B960F86007D0B6A13961B8A261
:20019C00786107F118031A60F861B8A04FF0030AC5F8B4004FF0FF37C5F8BCA02B46C5F8B3
:2001BC00B8701820C5F8C03018F036FC0028C5F8C4000CD0066005F150014160866005F12D
:2001DC006407C76003D0066105F178014161ABA02865C5F858A04FF0FF376F651820EC65C7
:2001FC0018F01AFC002828660ED005F59A71B64A016005F59A71426001F124038360C26006
:20021C0002D0483101614261A0A06866C5F86CA0AF6618202C6718F0FFFB002868670ED0E4
:20023C0005F1C801A94A016005F1C801426001F124038360C26002D048310161426197A089
:20025C00A8670627C5F880704FF0FF33EB673020C5F8844018F0E0FB0746002FC5F88870F1
:20027C001FD005F515709A49386005F51570796000F12402BA60F96013D000F148023A61DE
:20029C0007F11803796100F16C021A60F96108D000F190023A6207F128037962B4301860D1
:2002BC00F96282A0C5F88C000527C5F894704FF0FF33C5F890302820C5F8984018F0ACFBF5
:2002DC000746002FC5F89C701BD005F5D0708149386005F5D070796000F12402BA60F96099
:2002FC000FD000F148023A6107F11803796100F16C041C6000F19002F96107F120042260E8
:20031C00796218F0FBFF14F08FFC071C00F08A8617F058F870498446304631F80C4F002C32
:20033C0040F07C864FF6F879A1F800904F606B4C8E60796820706046616117F0A1FE4FF07E
:20035C00FF30314613F00AFD31464FF0FF322061284616F0D7FF05F11401DFF884812069AF
:20037C000A91002800F0C880AF68002F00F0C48002E0C046D015002014E0C046576F726B62
:20039C00207769746800C0462D2B0100D5660100718301005D830100891A0100790E0100C8
:2003BC00F14E01009EE0C0464D756C74692D526F6C6500C0446973636F7665722044657655
:2003DC006963657300C046C053746F7020446973636F766572696E6700C046C043616E6319
:2003FC00656C20436F6E6E656374696E6700C04641647665727469736500C046436F6E6EA7
:20041C006563740047415454205265616400C046436F6E6E656374696F6E20557064617484
:20043C006500C046446973636F6E6E65637400C04741545420577269746500C057726974AA
:20045C0065203078303000C05772697465203078353500C05772697465203078414100C021
:20047C005772697465203078464600C050485920507265666572656E63657300416476653E
:20049C0072746973696E6720504859005363616E6E696E672050485900C046C0496E697493
:2004BC0069616C697A652050485900C050485920507265666572656E636500C0D5DA000052
:2004DC005D7D01000113010005D9000071370100B93C010075240100F81F0020E00F0020B3
:2004FC003824002041465F460861DA4B0F702846CB6015F037FF2069414609783246CFA3DC
:20051C0016F06BFD0A9831464FF0FF3216F0FAFE04F140073146384618F0ECFECE48A76189
:20053C0041F288323346CD49009004F14C0014F085FCCB4F07F1180007F10C010FF0F8FBAC
:20055C00C849B86018F046F9DFF81C83B8684FF4E0214246521E15F025FEB8684FF4E021B1
:20057C00424615F01FFEDFF85C83B8684FF0C0514246521E15F016FEB8684FF0C051424686
:20059C0015F010FED049B04607F12400C8223346CDF8008014F052FCCC48786009F105001C
:2005BC0015F09CF8D44FD5493246152307F113000090102009F06AF9D14910203246022387
:2005DC0009F064F9D4491020FB2240F6480309F05DF9D249102009F059F9207816F05CFBE4
:2005FC00CF490246102009F051F94FF4806001213A4606F0BBFD7A1C40F20240012106F077
:20061C00B5FDBA1C40F20340012106F0AFFDFA1C40F20640012106F0A9FD3A1D40F21140D7
:20063C00012106F0A3FD7A1D40F20D40012106F09DFDBA1D40F21240012106F097FDFA1D00
:20065C0040F20C40012106F091FD07F108024FF48360012106F08AFD07F1090240F20F400F
:20067C00012106F083FD07F10A0240F20740012106F07CFD07F10B0640F21440012132468F
:20069C0006F074FDC74910204FF0FF3209F0FEF8C54910204FF0FF3209F0F8F8C34E102060
:2006BC001323C44AC24F00903146019709F0EEF8202018F0B1F90146BF488346816069B147
:2006DC0009F1070015F0F4FEC64910200BF11402009011230191314609F0D8F85046012761
:2006FC0002268DF81B004FF0040A8DF81970C4498DF81A6002AB8DF81CA040460A68097947
:20071C001A600DF11902197139460EF099FB0DF11A02384601460EF093FB0DF11B02304693
:20073C0039460EF08DFB032007AA39460EF088FB052102AA50460EF083FB04F11C0004F1DA
:20075C003802B349CBF80400102009F09FF8207816F0A2FAAF490246102009F097F82078F6
:20077C0016F09AFAAC490246102009F08FF8207816F092FA03460C223046A849009010200E
:20079C00CDF8048009F082F804F1E4070D9704F5A8700B90606900214FF040424FF0FF3335
:2007BC0018F0A4FD5FEA0008F4D00020049006A904AA05A813F0A2FA002840F038819DF85C
:2007DC0014000DF1160116F059F8002840F02C81BDF81600ADF8140017F09AF9BDF8140091
:2007FC00102840F01F8120789DF81810884240F01981049801884FF6FF728A4200F01281C2
:20081C000178913900F09C801F3903D0203900F0078107E10646408817F0A0FAC7B2082F24
:20083C0001DB17F085FCB9490A78206931797E291CD07F2922D13189B9A319E03D3D3D3D50
:20085C003D3D3D3D3D3D3D3D3D3D3D3D3D3D3D3D00C046C0EDC100002F260020A1620100BF
:20087C00A8210020396001000E000580317AB0A30091521CD1B2002216F0AFFB7288B04901
:20089C001020012309F002F8002853D031790B2938D0012902D1307A0A2833D0132917D0C5
:2008BC00012902D1307A122812D00B99B80000EB07104018077C002F3CD030460AF0C8FFAE
:2008DC0038E0C0460E000010F5810100997F01008E4A20691278012919BFA178B4A3317B27
:2008FC00B7A3521C0091D1B2002216F076FB0C9815F038FD1EE0C046AC2000207D350100E6
:20091C00111C0210814A2069127801290AD0F1680978AFA308E0C0460D520210397F011046
:20093C00F16C0210317BAEA30091521CD1B2002216F053FB317906F1080018F0D3FC71E066
:20095C0041780F393AD0491E5CD02E396AD181780C2967D1C778E7B9C17901290BD002298C
:20097C0008BF0FF28C2908D003290CBF0FF288290FF28C2901E00FF2A029644926698088B8
:20099C000F7817F00DF80090A5A3CDF80490B91C30E05E49266980880F7817F001F8A6A384
:2009BC000090F4E729740100DD770100BD6D010098C40100A0190020D01A002053498288AC
:2009DC0026690978A2F2064767B341F62C42BF1A0AD182781A2A03D000929DA3491C09E066
:2009FC00A2A3FBE7A4C40100828800928078ABA3C91C0190C9B23046002216F0EEFA11E001
:200A1C004AC401000820002108F020FB0AE0C046DD740100D96C02102D6D02106DBE0000DF
:200A3C0001F012FA049810B1049817F0BAFF5FEAD870FFF4AFAEA06918F050FC00287FF40B
:200A5C00A9AEA069064618F045FC864208BF002602D0866815F046FD5FEA0608EBD02B4B40
:200A7C00206998F800201978E78966780990891D0891511E0C2900F2C882DFE811F081023F
:200A9C002D027201B702210176003000B2021C00AB020D00A8029B0202200DF11D0114F004
:200ABC0095FD002840F0B182032001210DF11D020EF0C6F9A9E2D8F80460777A4FB1AF4837
:200ADC00089F0090B81CC1B209980022BEA316F084FAAA480090A849F788002362E0D8F8AD
:200AFC0004603068401E2DD0401E15D0801E11D0001F0DD0083831D1002077686071397802
:200B1C0000917888B4A3019022E0C04638240020BAA31AE0BFA318E00020C4A314E0C0468A
:200B3C004D54552053697A653A20256400C046C046432056696F6C617465643A202564007B
:200B5C00D54D02100120BEA360717068007800900898C1B20998002216F03FFA3068B0F1C4
:200B7C00004F00F052827068ADE1384617F0F6F8C1B2082901DB17F0DBFA002006468B001A
:200B9C0066810B9A2689A08103EB0110012180180174301FADF80800207816F07DF802ABF3
:200BBC00CC49009010203A4608F070FE2DE2C04657726974652073656E743A20256400C0C1
:200BDC005772697465204572726F7220256400C052656164207273703A20256400C046C0C1
:200BFC0052656164204572726F7220256400C04632204D62707300C0436F64656400C046FB
:200C1C00556E6578706563746564205048592056616C756500C046C031204D62707300C00C
:200C3C0025733A20504859207570646174656420746F20257300C04625733A2050485920EA
:200C5C006368616E6765206661696C75726500C050485920557064617465205374617475A5
:200C7C00733A2030782530327800C046504859204368616E6765206661696C7572652C2033
:200C9C007065657220646F6573206E6F7420737570706F7274207468697300C0556E6B6EDF
:200CBC006F776E20436D64205374617475733A203078253034783A3A30782530327800C00E
:200CDC000898C01EC1B209980096002298A316F084F9002E14BF65216121E7780FB141F097
:200CFC0010012846022216F00DFBC6EB061017F093FE206200B90026EE61002800F08581FA
:200D1C000746002E08BF002620D0DDF83490B246002609F10109484613F0F4FD01460F22AA
:200D3C0038460FF019FD686A40F836700A9801210022B14016F0E6FA09F107090F37761CB5
:200D5C00BAF1010AE7D10E2E00F35F810A9801220021B24016F0D6FA771CFEB20F2EF5DBFC
:200D7C0053E1D8F80470FB8ABA69002B00F0A780D018A0F1010C04E06D66010040E2010094
:200D9C001218944540F29B8012F8010B0028F8D01178022918BF0329F2D1401E521CC0B229
:200DBC000228C0F293804110944540F28F801378F02B02D15378FF2B4CD0801E491E02F13B
:200DDC000202C0B2F0D181E050617373636F64653A20256400C046C04164762053657420FD
:200DFC0025642064697361626C656420616674657220636F6E6E20256400C046416476200C
:200E1C00456E6465642025642044697361626C656400C046416476205374617274656420BD
:200E3C00256420456E61626C656400C0416476205365742025642044697361626C6564003A
:200E5C004164762053657420256420456E61626C656400C078780F2E07F102090E9022DA11
:200E7C007EB1DDF834A0B3460AF1010A48465146062216F0A3FBB0B1BBF1010B0AF1070A69
:200E9C00F4D1DDF834C049460B68C6EBC60202EB0C00401C89880360761C8180F3B2637059
:200EBC000E980CF80200484613F02CFD00900898401FC1B2099800225DA316F08EF8B8693E
:200EDC00002800F0A28015F00DFB9EE0012808BF521C56E7ED070210D8F80400007801093A
:200EFC0031D24009C0F091800E2017F0A7F90028634963484A68806840F0878091688142E8
:200F1C0014D0B0F1FF3F00F08080116951F830702FB901EBC001486815F024FA75E0116968
:200F3C0001EBC0014968C0B288476EE0D068F3E72564206465766963657320646973636FD8
:200F5C007665726564000D2017F078F900285CD14B494B48496880688968814208D0B0F178
:200F7C00FF3F0AD0401C15F0E1F9B0F1FF3F02D1002015F0DBF9424988600CF05FFA44E06B
:200F9C00D8F80400077847B1BF1E3ED102200DF11E0114F01BFB2AA305E000200DF11E01B6
:200FBC0014F014FB29A39DF81E00089900900998491E26E00898001FC1B20998002226A386
:200FDC0016F00BF82D49102008F060FC1DE013F073FA1AE0D8F80400B0F8010010F0D6FE3A
:200FFC0018E0D8F8040008F019FD0EE0284602216FF0020216F086F92149206909781BA362
:20101C00C91CC9B2002215F0E8FFD8F8040008B115F068FA404615F065FA0CE5401C0628ED
:20103C00FFF47BA917F01EFD0FB0BDE8F08FC046446973636F76657265643A20257300C0B8
:20105C004368617220333A20256400C04368617220313A20256400C0496E73756666696357
:20107C0069656E74204D656D6F727900446973636F766572696E672E2E2E00C07922021097
:20109C003824002038B586B004468DF805104FF6FF720120ADF80220090ADFF8905CADF898
:2010BC00000002238DF806108DF8043069462A78204618F00BF9162803D12978204618F0B7
:2010DC0001F907B030BD3EB504000D461AD0DFF88C0C0068224618F0F1F8FF2811D00020CA
:2010FC000090002301AA294620460EF0F9F940B900F0B9F8C00604D500F0B5F810F00400D7
:20111C0000D001203EBDFEB5164615244FF6FF7290420D4615D100208DF80400DFF80C7CB6
:20113C009DF80400B97988421AD23246294600F0C9F800B100249DF80400401C8DF8040027
:20115C00EEE718F0B7F850B100F004FD40B99DF804003246294600F0B5F8002400E01424A3
:20117C002046FEBD2DE9F04387B00C460021009190461D46014600F04DFD01260028DFF8CE
:20119C00AC7B62D100F06FF88146082DF87908BF002600F012FA040002D100F011FA5BE01F
:2011BC0078789DF8041002280CBF0120002000902B464A46404600F0D7FC1422002102A869
:2011DC00062517F08BF89DF8040015FB00F0243002AA00F044F8A8B91022FF2102A816F016
:2011FC005CFC78B99DF8040015FB00F5253506AA0421E8B215F0FAFF02AA09F001014046B8
:20121C0018F054F8F9799DF80400890670302246090EC0B215F0EAFF88B9204600F0C5F8F1
:20123C00002508E004EB8000018819B18278404616F0D6FA6D1CF979E8B28842F2D39DF8B4
:20125C00040000F003FA00F0C2F97878022803D116B1404612F0C2FC07B0BDE8F0831021DB
:20127C00C0B215F0C3BF9DF80400B3E17CB50D46044606214C43164600F01EF8A8B900F0F5
:20129C0016F890B99DF80700002E14BF054320EA0505E9B2814206D08DF807506A460821F9
:2012BC00E0B215F0CBFF012076BD002076BD0622FF21684616F0F1BB20346A460821E0B2A3
:2012DC0015F094BF2DE9FC410646344606235C4388461546FFF7F0FF002850D1FFF7E7FF86
:2012FC0000284CD1DFF8447AF87900F066F9040002D100F065F942E0F979703689062246E2
:20131C00090EF0B215F072FF002834D1204600F04CF85FEA08000DD1FA799206120E002140
:20133C00204616F0BAFB30BBFA799200002100F041F916E0214600F025F858B9280004D0BE
:20135C002146002000F01EF810B900F040F916E0A0F800808178A9420DD085700DB9002147
:20137C000180204600F021F8F97989062246090EF0B215F063FF00F02AF9012000E00020A4
:20139C00BDE8F68170B5DFF8A439DD79002200E0521CD4B2AC4206D231F824608642F7D1ED
:2013BC0001EB840070BD002070BD10B50021DFF87C290AE030F82130DB4320F8213000EBF0
:2013DC008103491C9C78E4439C70D3799942F1DB10BD2DE9F04186B0804600200E460090BA
:2013FC00002398F8061004AA40460EF079F8DFF83C590627A0B1002400E0641CA979E0B243
:20141C00884280F0C780A869E3B20622FF2100EBC30016F042FB0028EFD08DF8104013E0A1
:20143C00706988B100F0C1F823306A46FFF717FF50B91022FFF73CFF30B998F80600414654
:20145C0000F0010017F02EFF9DF81000A979884280F09C80E87900F0B0F8040003D100F06D
:20147C00AFF80A2093E000F0A0F820304246082100F0AAF89DF8100000F0E8F8EA79920087
:20149C0000F097F8E9799DF81000890670302246090E00F099F8A8699DF8103008224146E4
:2014BC0000EBC30016F010FF726972B1107C002302F1110100F0010017F0F0FE726922B107
:2014DC0000F073F8233000F07EF8B2682AB100F06CF821301C2100F077F832692AB100F040
:2014FC0064F822301C2100F06FF8F26882B100F05CF8243000F067F8F06800F110029DF82A
:20151C00100017FB00F725370421F8B215F096FEE87B08B100F052FBB688286A4FF6FF77EE
:20153C0050B905F1120100910223DFF860283946012017F0AFFE2862296A19B3FF20039079
:20155C00022200230292019305A800900DF112036A8A304606F034FC68B99DF812009DF8C3
:20157C00131000EB012290B228B1286A418992B23046FFF7C8FD6A8A286A0023394617F003
:20159C0085FE286200F023F8002000E0152006B0BDE8F081DFF8F827107800281DBFDFF8BD
:2015BC00F417086804780C4637E79DF8100078437047FF21204616F091BE800017F002B875
:2015DC00042015F071BC1021C0B215F037BE204617F000B8E0B50623584320306A46082155
:2015FC00FFF73EFE10B99DF807000EBD00200EBDDFF83807007808210DF00EB938B50025F5
:20161C00DFF8284719E0A069062313FB05F300EBC50220330821D8B215F0E8FD58B1A06983
:20163C000622FF2100EBC50016F058FEA06900EBC5010022CA716D1CEDB2A1798D42E2DB55
:20165C00E07B10B1BDE83140B8E231BDF8B5DFF8DC16DFF840578B792E681C461A4600E094
:20167C000A46D1B239B1511ED2B2324412F8017C8742F5D10C46E0B2591E07E01718165C2F
:20169C007F7817542A680244401C567088422A68F4DBE4B28C4205DA1946BDE8F840052003
:2016BC0015F0CCBDF1BD38B500200024DFF87C56AA79E1B2914206D2010004D1E0B200F03F
:2016DC0003F8641CF4E732BD2DE9F84F83465D46062313FB05F58EB005F1200701AA082180
:2016FC00F8B215F083FD002871D10622FF2101A816F0D3F900286AD1DFF83066F079FFF743
:20171C005CFF5FEA000903D1FFF75AFF0A2060E01C22FF2103A816F0E1FDF2799200FF2169
:20173C00484616F0DBFD05F123040AAA1021FFF7C6FD60B91022FF210AA816F0AEF930B9B3
:20175C009DF80A0001A900F0010017F0ABFD082200F046F801AA0821F8B215F06FFD8DF8B8
:20177C00000003AA05F1210000F036F8074605F1220003AA00F030F8804603AA1021E0B20B
:20179C0015F05CFD044605F1240003AA102100F024F88246253503AA0421E8B248EA0707B3
:2017BC0015F04CFD2743F1799DF800504AEA0707074389060BF170034A46090ED8B215F046
:2017DC003DFD0743484616F005FF3D4300E0002528460FB0BDE8F08F1C21C0B215F02EBD5C
:2017FC00FF2101A816F07ABD2DE9F84187B0FF208DF80000DFF83455A87916F0E3FE040031
:20181C0003D1FFF7DDFE0A202EE01022FF2103A816F064FDAA79FFF7CCFE0622FFF7E0FF8B
:20183C0003AA1021022015F009FD064603AA1021032015F003FD06436A460121042015F0EB
:20185C00FDFC0746A9792246052015F0F7FC054601AA0621062015F0F1FC8046FFF7B7FED9
:20187C003E432E4348EA060008B0BDE8F081F8B50446DFF8B8542079012842D0092803D0A2
:20189C007D2800F07F8084E0617860881A2976D000F066FA022802D0032818D079E0208989
:2018BC0066880122012804BF6089032807D1E168887820B91021304600F023F90246686935
:2018DC0000281CBF4368002B63D0052116E020896688012804BF6089032806D1E068827814
:2018FC000421304600F00DF900E01820696900291CBF4B68002B4CD0024604213046984791
:20191C0047E0207A6788082838D1384600F028FA02280FD0032831D160890022042100F0DC
:20193C00F0F8696900291CBF4B68002B26D00246042121E060890022102100F0E2F8064639
:20195C00384617F0B7FC78B1DFF84C24117839B9811D4079012200F0010017F093FC03E064
:20197C00DFF8381401200870686900281CBF4368002B03D03246052160899847608800F0D4
:20199C0089F906E0608800F0EBF90146608800F0A2F9217904F10800BDE8F44017F0A2BC78
:2019BC00F0B5A9B006460D46144617F083FC08B91420A4E0A4220021684616F08FFCADF84A
:2019DC0000600DF12607DFF86463F078B17A279A8DF804005208F07A8DF8A0004B0801F0B8
:2019FC00010040EA420222F0020203F0010342EA4302080922F4807200F0010042EA002286
:201A1C00480922F4007200F0010042EA4022880922F4806200F0010042EA8022307B8908CE
:201A3C0022F0040201F00101022842EA81020CBF012000202792787417F020FC412807DB87
:201A5C00307B00B108209DF8991008438DF89900707BB8B10121B974202206F184010DF1E0
:201A7C00390016F031FC202206F1A4010DF1590016F02AFC202206F1C4010DF1790016F002
:201A9C0023FC00E0B874707A8DF8050088B1C44F102207F110010DF1060016F015FC9DF854
:201ABC009900082805D1102239460DF1160016F00BFC307A8DF8260028B11022B9490DF139
:201ADC00270016F001FC307948B1022D18BF032D03D1279840F002002790012100E0002149
:201AFC009DF899000143B0788DF8991000B1042001438DF899106846214617F0BBFB29B010
:201B1C00F0BD2DE9FC41154615244FF6FF72904288460DD10027854EB179F8B2884216D261
:201B3C002A464146FFF7A2FB00B100247F1CF3E717F0C0FB50B100F00DF840B99DF804006B
:201B5C002A464146FFF792FB002400E014242046BDE8F681002100910023417901AA01F006
:201B7C000101801D0DF0BCBC70B504460D4606204543082B88B0164603D1300758BF223585
:201B9C0000D521351C220021FFF72BFE01AA1C21E8B215F02BFB78B99DF81E00C01F0A28DE
:201BBC000AD20C980090F20801AB02F0010206F00101204617F05AFB08B070BD38B517F0CB
:201BDC0051FB0024594D0FE0A8690622FF2100EBC40015F062FF28B9A86900EBC4010020B4
:201BFC0017F03CFB641CE4B2A8798442ECDB31BD3EB50C4600250146009500F00BF838B9AF
:201C1C009DF80400FFF7E6FCC00601D401203EBD00203EBD002301AA20460DF061BCF8B56A
:201C3C0006460F4615460C2016F0CCFC040019D02681A77200202060E07245B10821284666
:201C5C0016F062F8606018B9FFF7C1FC0BE060605548016811B9046004E001460868002822
:201C7C00FBD10C600CB91520F2BD0120E0722A4639463046FFF794FE04462C484069002878
:201C9C001CBF4368002B03D000220021304698472046F2BD38B505464348046803E020893C
:201CBC00A84204D02468002CF9D1012032BDE07A012807D100F05EF820B11C480078042145
:201CDC000CF0AAFDE17A491CE1722846C9B200F002F8002032BD38B502290446134D02D0BC
:201CFC0003290DD01EE042F6C921FFF7CBF902001CBF6869002818D04368B3B105210CE006
:201D1C0042F6A621FFF7BEF901001CBF696900290BD04B684BB102460421204601B0BDE871
:201D3C0030401847BDE8324002E031BD101E002010B51D4B1968002201E00A46096851B10F
:201D5C000C898442F9D10868002A0CBF18601060084616F03FFC002010BD0000680F0020E2
:201D7C00024604201049096819B10B899342FAD1C87A70470C48006828B1006818B1C17A19
:201D9C000029FAD1704700207047000030C0010054350020E8340020AA0F0020553500204C
:201DBC002432002054320020EC34002038B5244C2070A171E271C80016F004FCA061D8B101
:201DDC00A279D200002116F089FAA07916F0FAFBE06108B9A0690DE0A2791A4D002116F09B
:201DFC007DFAA07916F0EEFB286050B9A06916F0F1FBE06916F0EEFBBDE83240042015F044
:201E1C0053B8A279002116F069FA04F1E40017F021FA2178062017F019FAFFF7EFFB2A68B0
:201E3C00A179052015F0E2F948B1002004E02B68091A4A1E1A54401CA1798842F7DB31BDDE
:201E5C00101E0020E83400202DE9F04F884C8178DFF814A2DFF814B2E7780029ADF12C0D31
:201E7C0000F00881491F00F01282491E5AD0491E23D00A3903D0091F00F0F681B5E28188B1
:201E9C004789867BADF808108DF8126067B9ADF80E70C188ADF80A100689ADF80C608589A8
:201EBC00ADF81050012000E000206D498DF8130002AA102007F0EAFC97E282886949064658
:201EDC0002AB102007F0E2FCF0B95546F07827692D786D1C58B90DF10A0012F013FD00900F
:201EFC00BDF81C10D3A3480000EBC10006E00DF10A0012F007FDB1780091D5A30190E9B229
:201F1C000022384615F069F804F1300015F0E4FB041C00F06A8220890FF038FF204614F051
:201F3C00E1FA62E28088834615F018FFC5B2082D29DAA80000EB05100019D0F85C01071CC1
:201F5C000BD016F09BFD10B1384616F089FD384617F078F9384614F0C5FA04F13000076856
:201F7C005E4657B180463889864203D14046394615F002FA3F68002FF5D1304613F0AEFBB2
:201F9C00E078401EE070082D04F5A87101DB16F0CFF8A80000EB05104018801C12F0B2FCE3
:201FBC00009057460990397820690022D5A3C91CC9B215F012F8E0780090397820690022B8
:201FDC00D5A3091DC9B215F008F8D74E94F80490F7694FF061084FF0010A0025AF422AD818
:201FFC00D249002510204A4600952B4607F04EFCE07880B904F14C0016F032FD3046294692
:20201C004FF0FF3215F07EF9304629466FF0610215F078F901E04FF071086FEA0802304629
:20203C00414615F06FF9E089584540F0DE81304614F098F9D9E1706A099950F835000F220C
:20205C0015F0BCFA48B906F114000AFA05F1002215F058F994F80490F7696D1CEDB2BDE7DF
:20207C00D9570110F9DC011038240020A1620100E00F002006467778002F63D1C7798DF82B
:20209C000970037A8DF80A3081798DF8081000258DF80C50C27A8DF80B50877A8DF80F2001
:2020BC00437A8DF80E70D2498DF80D3002AF3A680A6078684860CF4FD04ACF49201D07F19D
:2020DC0040030090102007F0E1FB0720DFF83083009007F10C0301932279414610202B466F
:2020FC0007F0D4FB1520009007F128030193227941461020012307F0C9FBC249227910207B
:20211C00922307F0C3FB00958849227910202B4607F0BCFBC0B248B1514620690978657107
:20213C002A46B9A3891DC9B214F057FF12F0C4F9D248594640F6B8320123009004F170008B
:20215C0012F07CFECE49CF4A1020002307F09EFBCD4910204FF4860207F098FB4FF448703E
:20217C000122CA49009013460190102007F08EFBDFF81C8306271020002208ABADF8207006
:20219C00414607F083FB012510200DF122038DF822502A46414607F079FB10200DF1220302
:2021BC008DF822503A46414607F070FB40F60200032208ABADF820004146102007F066FBBF
:2021DC00DFF8D082502710202A4602230097414607F05CFB10202A4603230097414607F037
:2021FC0055FBB088208150486121002215F08AF8E0785746009039782069002246A3091DE7
:20221C00C9B214F0EAFE39782069002287A3C91CC9B214F0E2FE24693D78B01D12F072FBF3
:20223C00ED1D0090002284A3E9B2204614F0D5FEDBE0C046557064617465643A2025732C21
:20225C0020636F6E6E54696D656F75743A256400557064617465204661696C65642030785A
:20227C0025683A20257300C0002F14BF71266126554620692978002275A3C91CC9B214F080
:20229C00ACFE29483146F24315F03CF8ADE0468990F80CC004F5A87900F1040E08224FF6E6
:2022BC00FF71A9F11405002035F8143F994205D0521E00F10100F7D180463BE02E8071461F
:2022DC000A688046A81C7F1C89880260BCF1040F8180FBB2E3702DD1032016F09DFB071C35
:2022FC0026D00A203870A7F80160242016F094FBE860F8B10097594641F27072012312F0BF
:20231C009DFD17E0257320697320646973636F6E6E656374656400C04E756D20436F6E6ECB
:20233C00733A20256400C046D0150020ED74011015F0FEFE4146082901DB15F0F9FE8D0090
:20235C0005EB011504F14C004D444FF0000985F8089016F083FBA81C12F0D4FA57468346AE
:20237C00CDF800B03978206940A34A46C91CC9B214F033FEE078009039782069464B4A4647
:20239C00091DC9B214F029FEE0780828B4BF4FF00E084FF00F08414EF7694FF0010A4D46E3
:2023BC0011E0706A50F8350059460F2215F006F938B906F114000AFA05F2494614F0A2FFBA
:2023DC00F7696D1CEDB2AF42EBD86FEA08013046424614F097FFE078082806DA4B4600931F
:2023FC002F492279102007F051FA0BB0BDE8F08F0B190020AC20002099010110BB73010053
:20241C009DBF00001DEF01104572726F723A204661696C656420746F2053746172742041EC
:20243C0064766572746973696E672100496E697469616C697A6564004D756C74692D526FB1
:20245C006C6520416464726573733A20257300C0436F6E6E6574696E6720617474656D70A7
:20247C00742063616E63656C6C656400436F6E6E656374656420746F202573002726002056
:20249C0089610210A3670100C5690110F5F9011095390110D5F4011034230000D0150020C6
:2024BC00ED7401102DE9F84FDFF8A055696884B0019121B905B0BDE8F04F16F0BFBE097857
:2024DC00DFF88C65DFF88C7501291CBF0229042946F2A81A40F6C41941F64C5805D04029BD
:2024FC0018BF802900F05681A7E216F06DF90028FAD00198007809F0D9FD009016F09AFE84
:20251C00DFF8541504464878002800F0C78004F00BFD15F089FE8246002CDAF80000019017
:20253C000146D1F804B003D000980CF0C1FE022800F0878000990A78012A04D0022A0CD052
:20255C00042A41D079E218B916F070FE4044A0600120A87011213970F4E005223A70C8B9C2
:20257C0016F064FE8044DFF8F4246069C4F808801368DE69DFF8E8341978B21D01EB810194
:20259C00525ADFF8D81409FB0289C0F820900A68A06810616069C17F01F0EF01C1776069E3
:2025BC00C17F41F08001C1776069C17F01F0F00141F00201C177DBF808206169DFF8A4043A
:2025DC0082184A62022199E006223A70C8B916F02DFE8044DFF890246069C4F808801368A2
:2025FC005E69DFF88834197806F10C020901525ADFF8741409FB0289C0F820900A68A06849
:20261C00D060DFF864040168087C0EF0FFFA6069C17F01F0EF01C1776069C17F41F080016E
:20263C00C1776069C17F01F0F00141F00201C177DBF808206169DFF82C0482184A620421B8
:20265C005CE00198017880290CD10820DFF8201438700A78DBF81400012A1ABF716A0978E6
:20267C00012113E0072038709AF8060015F05AFF0446207BC10700F1AD80DFF8F403017852
:20269C00DBF8140001291CBF716A4978C1729AF80600DFF8C41388700198C9E10098002822
:2026BC001AD00199009A0078DFF8BC6391420DD1012804D0022845D0042866D002E0002C15
:2026DC0040D1C0E1002014F0EFFB3BE0012804D0022815D0042837D0AFE1002CF1D016F041
:2026FC00A5FD0146A068514416F09CFD18B916F09DFD4044A060112038700121A97021E08F
:20271C00052038700221A97016F090FD0146A068514416F087FDA8B916F088FD8044CF4ACA
:20273C006069C4F808801368DD69CD4B1978AE1D01EB8101755A09FB0589C0F8209011688B
:20275C00A0680861009873E1062038700421A97016F06CFD0146A068514416F063FDA0B9E2
:20277C0016F064FD8044C4F8088032685369BF4A6069117803F10C0509016B5A09FB0389B9
:20279C00C0F820903168A068C8603068007C0EF03DFAD7E7B0494878002800F0E18004F0BF
:2027BC00C3FB15F041FD8246DAF800000290D0F804B0A948807815F037FD0390019801788D
:2027DC00402913D19AF8060015F0ACFE0446207BC1070BD59AF8060015F026FD052116F0D0
:2027FC001DFD207B00F0FE0020732CE115F0E6FF10F0070F0CD0A87809F058FC009016F09B
:20281C0019FD040004D0029900980CF051FD022800F0828000990A78012A04D0022A0BD0F4
:20283C00042A3CD075E018B916F000FD4044A06011203870012169E005213970B0B916F013
:20285C00F5FC8044854A6069C4F808801368DE69834B1978B21D01EB8101525A7F4909FBF5
:20287C000289C0F820900A68A06810616069C17F01F0EF01C1776069C17F41F08001C17749
:20289C006069C17F01F0F00141F00201C177DBF808206169734882184A62022136E006219F
:2028BC003970B0B916F0C2FC80446F4A6069C4F8088013685E696D4B197806F10C02090102
:2028DC00525A694909FB0289C0F820900A68A068D06065480168087C0EF098F96069C17FAB
:2028FC0001F0EF01C1776069C17F41F08001C1776069C17F01F0F00141F00201C177DBF886
:20291C0008206169574882184A6204210098A9708EE0002014F0C8FA039850451ED00299E1
:20293C0053480A78802A0AD10821397000780128DBF814001ABF716A0978012109E0072216
:20295C003A7000780128DBF814000EBF0121716A4978C1729AF806003F498870029867E072
:20297C0015F02CFF10F0070F6DD0A87809F09EFB064616F05FFC04463078012804D0022840
:20299C000DD004282DD05EE0002C5CD016F04EFC4044A060012111203870A97047E005204B
:2029BC00387016F043FC0146A068514416F03AFCA8B916F03BFC8044284A6069C4F808800D
:2029DC001368DB699F1D264B1B7803EB8303FB5A09FB0389C0F820901168A068086102208F
:2029FC0024E00620387016F021FC0146A0681E4F514416F017FCA0B916F018FC8044C4F869
:202A1C0008803A685369194A6069127803F10C0112018B5A09FB0389C0F820903968A06864
:202A3C00C8603868007C0EF0F1F80420A870304605B0BDE8F04F0CF07FB805B0BDE8F04F38
:202A5C00002014F031BA05B0BDE8F08F90340020A8C60100C80F0020780E0020500F002003
:202A7C00D80F0020F0D8FFFF540F0020D90F0020CC0F00202DE9F84FDFF8B454A978002466
:202A9C00FF2904BF002014F00FFAA87815F0CCFB054605F1680605F5C9773168086805F12E
:202ABC00900808B1EC8311E0B07B002804BFB07E00280BD198F80010002904BF387800289D
:202ADC0004D1287F012804BF688CE8832989E88B4118491C6981284616F09CFB01281EBF35
:202AFC00DFF850040178012903D12989EC83491C69814FF6FF79B07E01280DD1B28B698987
:202B1C00288916F083FB38B1298968894A1C93B298422FD0B08B23E098F8000001280FD17D
:202B3C00B8F802206989288916F070FB40B1298968894A1C93B298421CD0B8F802000FE0ED
:202B5C003878012816D17A886989288916F05EFB80B1298968894A1C93B298420AD0788862
:202B7C0092B2904206D04844688180B216F04AFB4844E883387801280ED128897988401C9E
:202B9C0080B2884208DB7C793C71002038702346A97922460BF00EFD05F59A71087920B180
:202BBC0028890021401CE983688105F12E08B07E012845D12A89B08B521C92B290423FD15B
:202BDC00688105F18601284616F018FBB08C688400212977E983E88969894118A981B08B76
:202BFC00298916F00FFB8146B8F80410308C728C01FB0909F08C8A4204BFB8F80810884207
:202C1C0002BFB38CB8F806108B4207D000090090B38CA9795208002016F0ECFAB07F88F81F
:202C3C000000718CA8F80410B08CA8F806002846F18CA8F8081016F0D9FA0220B07601E040
:202C5C00B8F80490EA8BDFF8F0C2501C00FB09F040F6C41909FB00F100912B68D3F80CE0D3
:202C7C007144D960DCF800E0B4499EF800A00B884FEA9A1ABAF1030F17D1DFF8C4C29CF84D
:202C9C000FE05FEACE7C48BF00230ED45B1C1FFA83FCBCF1010F11BFB5F812C005F59A7E5D
:202CBC00BEF806C00CF2DC5C01E0B5F812C00CFB00FC4FF4C87EBCFBFEFC0CF1010CC5F8E2
:202CDC0014C00B80A86185F820204FF01C0BDFF874A2AB79DAF8000000F108021BFB03F363
:202CFC00D1582A68116100F10801AB79D26868691BFB03F3121ACA50DAF80000AB7900F129
:202D1C0008021BFB03F3D1582A68916000F10C02A9791BFB01F10C30535C03F0F00343F0A8
:202D3C0002034354DAF80010AB798A1C1BFB03F30021D152387908B914F0B6F8DAF80000E9
:202D5C00AA7900F1100138791BFB02F240088854A879DAF800101BFB00F008440021417428
:202D7C003879042814D1A879DAF800101BFB00F001F110021031135C3A7A43EA82030B54F3
:202D9C00AA79DAF800001BFB02F2024420205074DAF80010A87901F112021BFB00F000219E
:202DBC0011526949A8790A6802F114034FEA401C143253F80C00AB79D5F814C05B0100EB07
:202DDC004C00D050B07E02280DD10A68AE7902F11403760114329859AB7998F800605B0174
:202DFC0019FB0600D0505648C27BD0075CD5DAF80000AC7900F108031BFB04F408301A59EE
:202E1C00AB791BFB03F3A2F5A862C250DAF80000AC7900F108031BFB04F41A592B689A60B2
:202E3C000098121A1A610868AC7900F11403640114301A59AB795B0102F5F662C2503879EC
:202E5C0004280BD10868AC7900F11403640114301A59AB795B0102F56162C2500868AB79B5
:202E7C0000F114025B01D058C5F834016427374A0B68106BAE79006803F11C04B8F8043038
:202E9C004343B3FBF7F7760109FB07F0A0F59660A0512F480378012B30D10868A97900EB6A
:202EBC0041120120D07230E0042C0BD10868AC7900F11403640114301A59AB795B0102F5F4
:202EDC006162C25038790A68AC7904280CBF4FF4AA504FF4E66002F1140364011A59101AF0
:202EFC00B8F8042009FB02F2A2F516729042BDD30821284616F092F9012016E0506A0968FF
:202F1C00AA79407801EB4213D872A879DAF800102A681BFB00FB01EB0B00506007210D4865
:202F3C000170284616F05EF90020BDE8F28F00BF780E0020D10F00203C0F0020443500208A
:202F5C00980C0020980E00209C0E0020A8C60100CC0F0020C80F00202DE9F04FCA4C0546EA
:202F7C002078ADF15C0D032840F03E824FF0000B6846182284F800B0082384F801B0594626
:202F9C0015F088FC6846594613F010FE20612E22594604F130000FF0BDF804F130008146F9
:202FBC00FF210A220C300FF0B5F813F0CDFE2946584612F06DF804F11801E06015F08BFCA5
:202FDC00206AE169B1FBF0F2D7B284F83070022FC4BF022784F83070E770B0F5005F04D1A5
:202FFC00E068B1EB473F00D310B901202070FDE1FF2184F83310D846CDF828805D460B9573
:20301C000C950D950E950F9513950A46109211921292149215924FF40056E6865946169191
:20303C00AF4200F30B81139E002E3AD10F9E002E28D1B8F1020F25DA0E98022822DA0B981E
:20305C0002281FDA0A9887421FD00E9E9EB9B8F1000F0ED10D9E0C9806430FD15D46AF4231
:20307C0013DD28460BF02CFE6D1CEDB2E7786070F5E7012016E0B8F1000F01D1032011E0C9
:20309C0002200FE05D46AF4201DC58460AE028460BF016FE6178E7786D1CEDB20143617018
:2030BC00F1E705200028A07000F0B180401E70D0401E00F09280401E1DD0801E40F0958171
:2030DC001498FF2804BF1598149084F8330094F833200C2684F83120D019401E90FBF7F1A6
:2030FC007943401A84F8320012FB0690808BE08608F036F987E0002F08BF5D460BD009F1E0
:20311C000C0138465D4611F80C2FFE2A03D0401E05F10105F7D1AF423ADD0C2084F83C50C8
:20313C0015FB0090817E84F83D10C07E84F83E000AF0EEFAE2782D1895FBF2F050432D1A46
:20315C00E8B284F83200401C90FBF2F15143401A84F831007C2012F099FFFF2810D17E20CA
:20317C0012F094FFFF280BD1FF2012F08FFFFF2806D1782012F08AFFFF2808BF94F8310020
:20319C0084F833000C2110FB0190808BE0864FE0FEE71098129E84F83200FF2E00F10100F1
:2031BC0090FBF7F101FB07F1A0EB0100C1B284F8311008D11198FF2804D10C20129111FB77
:2031DC00009005E012901299880000EBC100484484F83310808BE08607E1DDF8408008F1AB
:2031FC00010084F8328090FBF7F17943401A84F831005FFA88F00BF063FD6070FE215FFADA
:20321C0088F013F075FD584602F016FFEDE084F831B0781E594684F832000C2684F833B062
:20323C0011FB0690808B7E21E086584613F060FD94F83200FE2113F05BFDD6E00C2115FB97
:20325C00019706AA0423690315F04AFB069807F11606010EB1F1960A18D1C0F38541C0F315
:20327C00014040EA8100022810D187F819B09DF818003070FF223A769DF81930FB75284619
:20329C0011F0BAFBB8836CE04C2000202846594607AA14F075FC2846012108AA14F070FC64
:2032BC002846022109AA14F06BFCDDF818C00CF0FF010CF0FF00FF2909D0FE2907D07E29F9
:2032DC0005D07C2903D0782918BF702909D15FEA0B0706D1CCF38541032908BFBAF1000F36
:2032FC001ED028460BF0ECFC0746002FE068677038D1690306AA042315F0F2FA284659468E
:20331C0007AA14F03DFC2846012108AA14F038FC2846022109AA14F033FC069800F0FF0025
:20333C0030709DF81900069F9DF81E307070C7F30140F070BDF81C004FF6FF718142B370F4
:20335C0002D1284611F058FBF0809DF822003071BDF8207037819DF826307371BDF824202F
:20337C007281E0683178FF2936D0FE292ED07E2926D07C291ED0782917D0702910D0A529FB
:20339C0008D0242904D00F99491CC9B20F9127E0159500E014951399491CC9B213911FE087
:2033BC000E99491CC9B20E911AE00D99491CC9B20D9115E00C991295491CC9B20C910FE000
:2033DC000B991195491CC9B20B9109E008F1010710955FFA87F803E00A99491CC9B20A91A3
:2033FC00E7786D1CEDB21BE66070607817B0BDE8F08F70472DE9FC47D14C0F460546F80BC6
:20341C0080F0F6816078DFF83C83B90F80F09C81B90880F08E81F90A80F0F980390B80F006
:20343C00C580380907D2F80FC0F01A8227F0804710F02CF914E215F0E7FA814614F040FADA
:20345C00002800F0AD80082015F0D6F9002840F0A780802015F0D0F9002840F0A1806846FB
:20347C000DF02CF9012803D10098002800F0988000250126E8B214F01DFF48B1837A3BB161
:20349C00867290F9090006FA00F0C0B212F0C2FE6D1C032DEED30320207504F1B40015F082
:2034BC00AFFA484615F09AFECF4800252A460168056050F8081CCD4940F8085C04F1380057
:2034DC0014F04EF940460068006B8047A168401A010BE069C1F1FF3282422CBF08444FF090
:2034FC00FF30E06194F8200020B12069E169B1EBC02F25D914F0F4F9294600B13146081CBB
:20351C001BD0D44840F6090101804580417B06F00F0221F00F010A434273017B05F00F0399
:20353C0021F00F0143EA010202732946416015F031F8418811F4406FFBD084F82060E561E1
:20355C0011F05EFDCA4829460560022013F094FF022013F03BFA11200BF028FA207818B944
:20357C006068483015F062FAC248007810B90E200BF01CFA94F8210020B184F82150052074
:20359C0013F024FABC48A0612575B4F98C00B4F98E10884214BF022007200EF031FB02E0D9
:2035BC00484615F01BFE27F0080741E720B1042013F00CFA00206070656812F00FFE38B142
:2035DC002846ED696FF4807100224FF00073A847E06858B140460068006B8047E268616870
:2035FC00801AC860000BC8600026E660A34904F13800002214F0B4F80221A06F217518B1D2
:20361C0004F5807015F024FA27F4006710E715F0FBF9064614F054F9216F0028894600F0FC
:20363C00828000297FD09649042504F138000022257514F095F8304615F0D0FD04F1B40081
:20365C0015F0DEF940460068006B8047E0604FF0010884F80180284613F0D0F9D9F81000B2
:20367C006060D9F81000416AC90803D3036A294600229847404610F081FA606880F8158088
:20369C00606808F04DFB6568D5F808A040F60A02D01F564600F1010C00E01E46736833B1F6
:2036BC0019888A4203D0884218BF8C45F5D100217160727B08F00F0322F00F02134373732E
:2036DC00D9F80C201288904224D06046904221D02B8E03B3696305F13002518095F83C000B
:2036FC0001F00F0320F00F00034385F83C3095F83D0008F00F0320F00F00034385F83D303A
:20371C007260707B01F00F0520F00F0045EA0001717300E0E160504614F03CFF5146404685
:20373C0013F0AAFE02E0304615F058FD27F4806796E008F06BFEA06F08B927F002078FE0D8
:20375C00382600208C0100104E4A116841F08001116020B1042013F039F90020607015F0DF
:20377C0053F98246D8F85400016804208847D0B1287DC0B1A068B0B18146D8F800002E696B
:20379C00006B8047A0EB09002861000B2861B04202D280194008286140F6C41181422CBF41
:2037BC00B0F5967F2961504615F018FD12F016FD78B1EE6928466FF4807100224FF00073CE
:2037DC00B047206F002808BF47F0020701D00FF05DFF2846AD6900214FF080630A46A847E6
:2037FC0027F000573CE0C046141004401D43010015F00AF9D4F8886076B306F1280106C980
:20381C000A234FF0E0450B40154008BF002B23D106F1280191E8000306F1280595E8060032
:20383C0006F1280322EA090221EA080183E8060015F0D4FCB16889B1B9F1000F08BFB8F15D
:20385C00000F0BD03069B6F93010B5684B464246A84703E05834002015F0C0FC27F4804783
:20387C0027B104F58070394615F0F2F8BDE8FC870000046082C401003DD6000095CE0000B4
:20389C00BD780100CC2108402DE9F04F0F46780689B027D5DFF8F8231078002115F09AFC0E
:2038BC0004001FD0DFF8EC0301688847054614F061FE6168884204BF40F2014015F086FCFD
:2038DC0000202072201D0DF0EBF9DFF8CC130A6828469047204612F0DFF9FF223C2120466B
:2038FC0015F070FCB80604D50CF070F887F02000CAE1F8070CD514F03DFE30B100218160FC
:20391C00DFF89803006800B1804787F00100BBE1380704D506F0CCFD87F00800B4E1F8063C
:20393C000FD50021002200230691059204910393029101920091022015F040FC87F0100027
:20395C00A2E1B8070FD500210023069105910491039302910191009101223C2015F02EFC25
:20397C0087F0020090E179074FF01E08CC4EDFF834A340F1CF80CC4800220021089207918B
:20399C00007815F027FC0446C8488178FF2904BF002013F089FAA07A14F046FC05469AF84A
:2039BC00000095F82E91002805F5947B69D0606D807A022818BF032807D130680D3015F090
:2039DC00F9FB10B93068C11D07915946484615F0EDFBA0B3606D807C3368002818BF012807
:2039FC0004D11946584615F0DDFB04E05A464946184615F063FCFF2843D018FB00F830684A
:203A1C00404406225946C01D14F05EFC306810F80810404400F1010BC01D41F0020908901A
:203A3C000622616DC87A00F0010085F82E01606D00F10C0105F5947014F046FC21E05946E6
:203A5C00484615F0ABFBE0B130685A46494615F035FCFF2815D018FB00F8306840440D3013
:203A7C0015F0A8FB58B9306840440D3015F0A2FB002801BF30684044417F012901D149F07D
:203A9C00020905F12C004B46017806914289120905920122698C0491C0880899029140084E
:203ABC000390CDF800B0079801900020A97915F085FBD5F89C017E498842A8790CBF0021E3
:203ADC00012115F067FB7B49AB790A6838204343134401225A70AB790C68434323449A7036
:203AFC00AB790C6843432344DA700C68AA79231D424301249C54AA79096810FB02F008448D
:203B1C00002141710122A97907200DF013FB87F00400B9E038060FD5002100230691059198
:203B3C000491039302910191009101223B2015F045FB87F08000A7E0F8045DD55E493068DA
:203B5C000C680D3015F036FB002844D13068C11D0D3015F01BFB3EE0606D4178480704F16F
:203B7C003E0526D5287802281EBF03286878012830D16978306804F1380215F09FFB814601
:203B9C00B9F1FF0F15D0306818FB09F948440D3015F010FB68B930684844C11D0D3015F081
:203BBC00F5FA30684844C11D062204F1380014F08BFB2878022818BF03280BD130680D309C
:203BDC0015F0F8FA30B93068C11D062204F1300014F07AFB2468002CBED13848DAF80420F0
:203BFC0000784FF4805111F035FD10B18E2015F0C9FA87F4805047E0B80505D514F0AEFDFB
:203C1C002F4901200860FEE7780504D50CF089FA87F4806038E0780405D5812015F0B2FAB2
:203C3C0087F4804030E0B9042DD5264C206810B1002013F039F94FF0FF3020600020224CD2
:203C5C000DF07CFD216851F8202F684690471F494A6B086BC96A24681D4B019200900293BD
:203C7C00ADF810106B461B4A1B491C4803921C4A079225681B4AA8471B49086005F020F837
:203C9C0087F4005000E0002009B0BDE8F08F00BFD50F0020B41F0020B81F0020480F00203C
:203CBC00680F0020880E0020D70F0020780E00204DE50110CC3400204C0F0020C70F00201B
:203CDC007C052043380F0020200F0020082100207185010081850100B4240020280800209F
:203CFC001EFB0080EC0A00201C0F00202DE9FE4307460025B978DFF8346410293CD8DFE831
:203D1C0011F0110002020202020202023C0048000202020265018E007900B60102023B0175
:203D3C007C01FA017878002826D115F027FA044615F020FA064615F019FA8DF80000224600
:203D5C001021022013F07AFA32461021032013F075FA6A460121042013F070FA9DF8000047
:203D7C00012818BF032807D1012015F0FBF902460621062013F062FAC5E178780028FBD18C
:203D9C00F8783B7B7A89391D00F00100FDF7EAF9B9E1B888FDF7CCFF15F0E0F90028F7D159
:203DBC00307C012808D1FDF77EFCF06935740422002114F093FA17E0707C012803D1FDF71D
:203DDC0013FD757410E000240AE0F069E7B2C15D012904D1E0B2FDF777FCF169CD55641CCC
:203DFC00E0B2B1798842F0D3502013F0A9FDFDF705FC88E115F0AEF900280CD07069002836
:203E1C001CBF0468002C07D0386900907B7B3A7B7989F81CA04775E17889012168E17878B1
:203E3C000024002840F09180B879C10740F18D800822002101A814F051FAB88815F03AFAE6
:203E5C0004005ED07D69002D00F065810622002105F1110013F021FE00B30622002128464F
:203E7C0013F01BFE002818D1287C00F001084FF0000909F1010985F811900020009000231F
:203E9C000022414605F111000BF02AFB00285FFA89F040F03B810028EBD13AE17D69EDB1CD
:203EBC00287C00F001008DF80A00062205F1110101A814F009FA6079012805D10622A11D24
:203EDC0004F10C0014F000FA062205F11101A01D14F0FAF9287C40F002006071B8794107C3
:203EFC0020794CBF40F0020000F0FD002071B879010720794CBF40F0200000F0DF002071C5
:203F1C0006E0FDF737FF18B1307804210AF084FCB9799DF80B00890801F0010108438DF83F
:203F3C000B00B9790A074CBF0821002108438DF80B00394601A8FDF74CFA0400B88802D16E
:203F5C00FDF7A8FE01E0FDF7F3FE706900281CBF4368002B0FD07A78B88801219847787831
:203F7C00002808D1B879C10705D57369B88822465C680321A047C5E0787806281BD1B8880F
:203F9C0015F098F9B8B1B17B012904D013D3032907D00CD30FE04179B8880022FDF73FFED8
:203FBC0009E00022002140F2094003F0DFF8B888052115F0CBF8706900281CBF4368002B94
:203FDC0003D07A78B888022198479BE000950023F97801AA01F00101381D0BF081FA002889
:203FFC00F3D19DF8043006204343253307F10C020421D8B213F022F984E0706900281CBF01
:20401C004368002B03D0B888002200219847707810B9B88805216BE0B88815F04BF904008A
:20403C0071D0B87AC10712D5009500236179002201F00101A01D0BF053FA00281EBF6079B8
:20405C000028012803D0F868C0F3402028B1307B022807D1B87A010704D4B888032115F0AC
:20407C0071F850E06179B88807F1080228E0BD8897F80C80284615F01DF9040042D015F063
:20409C0069F800283ED100900023617901AA01F00101A01D0BF024FA28BB9DF80400FDF7FB
:2040BC0099FA08F00C01042911D008290BD00C290FD100F0090109290BD0617900222846AC
:2040DC00FDF7ADFD1EE010F0090102D1F5E7C107F3D501220092A37C9DF8041002462846AC
:2040FC00FDF742FD0EE070780028E6D10521284615F028F806E0FDF73DFE18B13078042158
:20411C000AF08AFB01252846BDE8FE8300287FF4C5AE002078610622607900F001008DF8CC
:20413C000A00A11D01A814F0CFF8D7E6101E00202DE9FE4F0546DFF8BC03DFF8BC63027868
:20415C00002A44D0052A52D0062A54D0072A18BF082A00F0CC80112A40F0C481DFF89C3394
:20417C001878002115F036F80446606D407810F00C0F2CD0216DC0064CBF886CC86E0622A8
:20419C00016801F10805A91C684614F09DF8287800F00F0105291AD16946C0F3801015F0DF
:2041BC0005F8002813D03168684614F0FBFF0546316804F1380014F0F5FF85420DD0606D1C
:2041DC004178C80604D440F2014014F0FFFF8FE1607B40F0020060738AE133681E204543D3
:2041FC00581906226946C01D14F06EF880E1012014F0A4FF7CE1C24D286814F09BFF04004D
:20421C00F8D020790328F5D1207A00F00F01072937D1BC4800684169497A4A1E11425ED09C
:20423C00617A04F10A035A5C02F03F02252A56DBA17A8A09012A52D111F03F0F4FD0007C36
:20425C0013F0F2FFE17ACA074CBF04F1110204F10B028B0748BF921D0B0748BF921CC9062F
:20427C0048BFD21C1621127852094A43A6498B180A31EB608A5A428699898186DA89C286EC
:20429C002DE000F00F00082829D1A17A880926D129B39C480168087C13F0C6FFE17A07460C
:2042BC0088071CD5062201F001015143601800F10C01684614F008F8207AC009FF280ED023
:2042DC00694614F073FF50B1306800F10D01684614F02CFF18B90521384614F09FFF207978
:2042FC0003281CBF002012F0DFFD286838E0DFF81C9299F80200FF2834D013F095FF804656
:20431C0008F16C07786814F015FF01900179032901D0280026D001987D4A836893F800A081
:20433C000AF00300009038215FEA8A6008D5146898F8060004F10A0C484301240CF800405A
:20435C00009860B1146898F806C004F10A0011FB0CFC84442C009CF8000004D018B97868A6
:20437C0014F0E0FEC4E05C7803F1020B98B11BF8010B00F01F038CF81A30800998F806302F
:20439C00126811FB03F1114481F82500404607F0FBFA002DE6D10098032808F2171519D06C
:2043BC00A4B1387868B108F1F400017801290DD1504A1178072904D0082904BFC0780128D9
:2043DC0004D13D2101206970287091E051490A78012AFAD098F8940078B3241FE4B25B46B1
:2043FC002246514640460DF095FD00281EBF4A490878002807D101203D21287069703068ED
:20441C0014F08CFE74E0454801688847064698F80610D9F804204FF4D07041435018002261
:20443C0080F8412108F59E700168807949080DF09BFF3B490A683046904701980021816053
:20445C000098032819D03748416909788A0709D541690878C1074CBF0320002000191BF80F
:20447C00000000E0812038722246009B99F80200DBB2594606F03CFC2CE09BF800005FEA1D
:20449C008A6103D51B2804BF022C01241C2803D225490B5C9C4205D0A8700721404614F079
:2044BC0039FE14E01348017808295946404607D101F010FF58B95946404614F027FE06E06E
:2044DC0000F0F8F918B95946404614F01BFE584610F0C4F9786814F025FE0199404614F046
:2044FC000DFE05E0002012F0DFFC862014F002FEBDE8F78FC80F0020680F0020D50F00204C
:20451C00BC0A0020540F0020E0070020780E0020CC340020D20F002052350020B41F0020AE
:20453C00B81F0020A8C6010048C701002DE9F84FDFF848730446386808B907209CE1C07A71
:20455C00012804D0042012F04FF8012801D10C2092E1CB480078092818BF0A2804D00B286F
:20457C001CBF0C280D2801D1212085E1002C05D0207810B101280BD102E0E01C00F0B48001
:20459C00A078002818BF012804D0022818BF032840F0AA806078002818BF012803D0022868
:2045BC0018BF032872D1607A10F0050F6ED000210022607A01238B40184232D004EB021005
:2045DC0043F6FD7543891E1FAE423EBF8689A6F1040CAC450FD2B34222BF038BC58AAB42F6
:2045FC000BD3C38940F67B459E1FAE423EBF068AA6F1060CAC4577D29E4275D3458AB5F5C1
:20461C00FA7F71DA808AA0F10A0640F6774C66453FBF6D1C5B006B43B3EBC00F64D2521CCA
:20463C00D2B2491CC8B20228C3DD39684869417A022904BF002012F037FC38684461617AC1
:20465C00062990490CBF01200020087014F04EFD050008BF09200BD03A68A9791174E01C4E
:20467C0007D0A278E11C402007F042FE08B10B2002E105F16101284614F034FD05F12C06AF
:20469C00B07B012803DC28460DF014F82CE039686078DFF8F481DFF8F4B1DFF8F491DFF8D4
:2046BC00F4A188726078002818BF012807D1C0073B6854BF594641460622181D3FE0DAF886
:2046DC0000000D3014F076FD30B999F80010002904BF2078002812D16078C10754BF59469F
:2046FC00414614F05BFD08B91220C5E06078C107386854BF594641460622001D0EE0DAF8A5
:20471C0000003B68C11D0622181D13F0DDFD62480168DAF8003008680622D91D13F0D4FD4B
:20473C006078DAF8001000F0010008706078C107DAF8000054BF594641460622401C13F008
:20475C00C3FD207870BBA07885F82E0105F594780622E11C404613F0B7FDA178DAF80000A3
:20477C00E21C01F0010114F0A9FD0146FF291CBF99F80000002815D0A07840F0020085F8D3
:20479C002E011E22DAF8003051431944487F48B901F10D0014F00EFD20B906223F494046B6
:2047BC0013F092FD14F09AFCA86213F057FB686204F1100133480078000104F114030A5A1E
:2047DC00F280195A71812044428A328102223868417C3170B2700020B08014F086F80C22BF
:2047FC0090FBF2F20C2101FB1200401DF07304200AF000FD39682A4A2A4B086042608361A0
:20481C00294A42610120C872A87914F063FC99F80000002801BF386841690A78012A0ED138
:20483C00807A02280BD1DAF8001001F10D0014F0C1FC20B91D48417941F004014171104C7E
:20485C002078C0B999F8001049B11948006814F03DFC38680068816941F480218161386840
:20487C00007C0CF0D3F906202070012200210CF061FCFDF717FE0020BDE8F28F540F0020B3
:20489C00C80F0020D90F0020480E0020400E0020880E0020680F0020E4340020006E021014
:2048BC00040C00200200808015520100BC0A00206C0F00202DE9F84185B0044611F801CB1E
:2048DC0000203822BCF1030F04F5A47704F1660504F1F406DFF81883C64B00F0B380BCF1CD
:2048FC00070F00F06381BCF10F0F0CD0BCF1110F00F00E81BCF11A0F00F01F81BCF11B0F82
:20491C0000F0448171E1707A820703D40F2184F8191157E008784A7800EB02233B80887810
:20493C00CA7800EB02237B8008794A7900EB0223BB808879CA7900EB0223FB80087A387284
:20495C004A7A887A02EB00237B81C87A0A7B00EB0223BB81487B8A7B00EB0223FB81C87BBF
:20497C000A7C00EB02233B82487C8A7C00EB02237B82C87C0A7D00EB0223BB82487D897D0E
:20499C0000EB01229C48FA8201788A0658BF1A2212D504F5AA70049079890391387A0290C9
:2049BC0021890191F8880090BB887A883988204614F088FB70B11E22707A410708D40F20FE
:2049DC0084F81901204614F079FB002837D1D6E00F21C3E004F18600798881800023BA88AC
:2049FC00C2800222F988018102704380A18EC91DE983628E8188B1EB520F02BFC188A28E4C
:204A1C00914202BF0089E18EB0EB111F18D0287C012804BF687C0F2805D0687D18B10F21DD
:204A3C00A976FE2170E0FC21204614F073FBF8880090BB887A883988A07914F03BFBCEE0C0
:204A5C00102161E0707AC20709D431781A200129707002D1FF220D213AE00D2154E000208D
:204A7C002870A87101233371082204F1B00014F01DFB0146022204F1B80014F017FB04F193
:204A9C00A80801460822404614F010FB07460821404614F007FB04F19C080422394640467E
:204ABC0014F004FB0421404614F0FCFA04F1A00014F0F4FA04F1980014F0ECFA4F48018814
:204ADC0041F0800101803078012805D1FF220421204614F0DBFA82E06E7C0F2E18BF142EB9
:204AFC0003D00E2E18BF0C2E0DD12F7C204614F0C9FA0421204614F00DFB012F12BF3146B5
:204B1C00AE76FD2100E00421204614F003FB66E00D783D761A2D4978797666D11868A57980
:204B3C00811D5543002048551968A37912FB03F20A445072A179787E4FE0A6791868097858
:204B5C005643064401F01F0516F82D0F890918B17078C840C70705D420221A21204614F01E
:204B7C008DFA3CE0F5701868A37912FB03F20244204682F82F10002108F0DAFC78BB98F85C
:204B9C0000004FF4804109F047FE28E0A179186851430144888908B900258D71A1791868AD
:204BBC0012FB01F281180020487218E009780F2917D01A2919D1A17918685143014400200E
:204BDC008871A1791B6812FB01F2991848721A20F17A01F0FB01F172A1790CF027FD012068
:204BFC0003E0717A01F0FD01717206B0BDE8F081C70F0020CC340020200E00209C0F0020FE
:204C1C00C9480278112A00D070472DE9F84FC74A1078002114F0DEFA04000AD1002012F037
:204C3C0043F9002012F040F9BDE8F24FFF2014F061BA04F14C0999F8000008B90121E1728C
:204C5C00401C89F80000C2B2E17DD9F804608A4229D2D9F808104A7AB17B277E0120A1F15C
:204C7C00250300FA03F3A7F125018840184322EA000000F0070010F065FC2530B073A18B17
:204C9C00B06800EB8100B060607DC1060AD5628B99F80010A08B00FB1121B068A63100EB21
:204CBC00810030663EE104F1280706F1900806F173054FF0000A4FD1A17F6975E07FA8759D
:204CDC00D9F808205278930710D5E27FD30604D5C91E697500F0EF00A875C6F874A085F853
:204CFC0000A00022A97D01F0FE0116E1910608D4F88B00B1F87E2876F88B00B1386AC8F878
:204D1C000000D9F808004178CA070DD5F88B00281CBF386A002807D0C8F80000B97EF88B91
:204D3C00814238BF08462876E07FC1060BD5B06B397800EB8100B063A18CA63100EB8100F0
:204D5C007067022002E0C6F874A0002028700022E17F01F0FC01E0E0D9F808205278D30705
:204D7C0017D5A87D697D00F0F700891E01F03F0182075CBF891D40F00200420644BF491E33
:204D9C0000F0BF00A8756975C8F800A085F818A0C8E0401AC0B2009090077AD5009801280D
:204DBC0006F1400B3FD1B06BA18C00EB8100B063A07F00F03F00A0776875E17FA975D9F82D
:204DDC00082053785A0704D5801F687501F0FD01A9750023697DFA7E9BF8000001F03F01BC
:204DFC008A18521CC0F3800192B200F0030014F041F900F59B70A0841E21A08C90FBF1F1E2
:204E1C008AB2A97D01F0FE01204614F02FF985F800A0F88B00B1F87E2876F88B00B1386A57
:204E3C00C8F800007EE00228B06BA18C00EB8100B06326D1E07FC10706D5687D811F6975EB
:204E5C00A87D00F0FE00A8750023697DFA7E9BF8000001F03F018A18521CC0F3800192B239
:204E7C0000F0030014F006F900F59B70A0840022A97D01F0FE01204614F0F8F8787FABF8D0
:204E9C001A00797F0098491C081AC0B2012814DD0BE0B06BA18C00EB8100B063797F0098F7
:204EBC00081AE17FCA06C0B207D5A28CB16BA63201EB820171670221297098B3D8F80030C6
:204EDC0097F81BC0E27FA17F6344C8F8003052084FEA4208D9F808205278530748BF28F01B
:204EFC000208920748BF28F00808012807D1387F2876C6F874A028F0100885F800A001F05E
:204F1C00C006404614F0AEF800F03F003043687585F81680002208F0FC012046BDE8F84F84
:204F3C0014F0A4B8BDE8F18FC80F0020D50F00202DE9FE4F0422FF2101A813F0CFF9B849B7
:204F5C0088780024FF2800F0688113F06DF9054605F217100178012908BF417800F0B680F6
:204F7C0005F1740005F59276817B022904BF05F174018C73F18911B1307B09F04DFC68893B
:204F9C00A84F2881FA79BB7A397BF87A97F80DC09B185B181B1805F58D7903EB0C08B9F81F
:204FBC0000C0B9F80430C4445B1CA9F800C0A9F8043097F80AC0B9F802306344A9F80230C5
:204FDC0033683BB3DFF860E2DEF800E00EF10E0ACDF800A04FF01C0A95F806B01AFB0BFA1F
:204FFC00DDF800B01BF80AA033F81AB0C34423F81AB00EF10E0A95F806B04FF01C0E1EFB96
:20501C000BFB1AF80BA003EB4A03B3F84AE0F444A3F84AC0002A08BF002804D1002904BFEA
:20503C00787B002829D02989E8892C744118287FA981012804BF688CE883A979012207209C
:20505C000CF078F8A246787868B10121297705F174018878002804BF887B002803D1087F39
:20507C0008B9688CE883307D002837D0022804BFF87A00282ED1347530E0A97907200CF094
:20509C0059F8EC83B87A40B1297F2C7401294FF0010A09D1688CE88306E0B9F80600401C23
:2050BC004FF0020AA9F80600A8892989814206D08842C8D2081A41F2AB029042C3DA287CED
:2050DC0008B1052901D0082100E03E21284614F0A5F8A2E0787A08B1022131755348F97B80
:2050FC000068CA070AD52A683969D160143001F59071D160A9794901445011E0AA7900F1A6
:20511C0014015201885830614748AB7901681C2001F1080243432968D058C860EC832C77CD
:20513C00434A50690078810702D5B87B802800D1812005F1740651463070284605F06EFA77
:20515C0028460BF091F802281BD1F079022805DB01AA384928460EF0B1FC0446284613F0B8
:20517C007DFF012859D020000DD0224601A928460FF04AFB38B928460BF076F8012802D1C0
:20519C004BE0012849D00121284613F063FF284613F05CFFFDF76EFC01283ED028460CF0C6
:2051BC00EDFCFDF77FF9244FB988386810B1AA79914203D04FF6FD7081422ED11F49087B41
:2051DC0013F010FA040028D084F800A0A879608095F83910217195F89601607196F9001091
:2051FC00A171A4F80880B9F80200608113F0C2F9050005D1FF204FF0FF312073216109E0A4
:20521C002878207314F012F80146A86813F01AFF80082061204639688847BDE8F78F00BFF5
:20523C00780E0020980C0020980E00209C0E0020A8C60100FC250020800E0020C4240020F2
:20525C002DE9F84F8AB083460C4600208DF800001646B849C87981061A4602D5B648817888
:20527C00880640F163811D98169B199D1E9908B900250CE059B9012B0CBF4FF040094FF0FA
:20529C0020094D4503DB012B0CBF40252025DDF86880DDF86C90C6461EFB09FE15FB0EF5EB
:2052BC00AFB24FF0600A97FBFAFE0AFB1E775FEA070C18BF4FF0010CE6445FFA8EF708977E
:2052DC00AFB20997ADF81A208DF819408DF818609A4F3A78149CDDF854C0DDF85CE0DDF8DD
:2052FC0060A01C9E002A72D0ADF860A000279DF800A0ADF81CB08DF850408DF854C08DF8C7
:20531C0058308DF85CE01D901E910899F8B2884279DAA8B26028ACBF4FF0600BAB465FFA23
:20533C008BF02D1A4000203080B212F0EDF804004BD0912020703E2181226170A2705FFA48
:20535C008BF20998A080A7714B46BDF81C0020819DF81910A1729DF81800E072BDF81A1029
:20537C00A1819DF85000A0739DF85410E1739DF8580020749DF85C10617404F12001BDF888
:20539C006000608284F814B004F12000A06184F81580881884F81690E675E06105904246CD
:2053BC00A0691E9904900391CDF804A000961D989DF8581002905FFA8BF002F0EFFF82462A
:2053DC005E480078214605F02FFB7F1C9DE78DF868808DF86C908DF870609DF80090DDF8B1
:2053FC002480ADF81CB08DF850408DF854C08DF858308DF85CE0ADF860A01D901E910026D9
:20541C000899F0B2884280F29180A8B26028ACBF60272F46F8B22D1A5FFA87FA4FEA4A0049
:20543C0000F1140B0BF10B00C0B212F06DF804007AD001202070FF2104F1080261706260AF
:20545C00042010703E22606842708120616881F802B06168C8704FEA2821606880F80480D6
:20547C006068417161688E716168BDF81C00C8716168BDF81C00000A087261689DF8190066
:20549C00487261689DF8180088726168BDF81A00C8726168BDF81A00000A087361689DF879
:2054BC005000487361689DF85400887361689DF85800C87361689DF85C0008746168BDF873
:2054DC00600048746168BDF86000000A88746068C77460689DF86810017560689DF86C1089
:2054FC00417560689DF87010817560681E9A9DF86C30039200F117015144059117300490B2
:20551C00CDF804909DF870101D989DF8682000910290F8B29DF8581002F040FF814608481D
:20553C000078214605F080FA761C69E70BB0BDE8F08F00BF280E0020200E00204B3500203D
:20555C00493500202DE9F04FAE4D0020687095F83F10EB7895F83D00ADF12C0D0918491EE1
:20557C0091FBF3F25A43891AC9B20691810001EBC0014919B1F84C004FF0805909F5EC764F
:20559C00ADF8140095F83C1095F83C009E4F0790880000EBC1004019B0F84C80306895F8EA
:2055BC003D4081683846884700F003000890D9F8D8014268002138469047306881683846C8
:2055DC0088470028F9D10021079F68780991A74200F09F808B46D946BBF1010F00F08E800B
:2055FC00BDF81410172964DB002840F09380BDF814006A46C01F81B2ADF8141020460AF018
:20561C0073FFBDF80E70BDF81430F81D07F1100186B2994246D89DF80A00962842D19DF87C
:20563C000B0042083AD2800838D3BDF814009DF80920C01B1FFA80FABDF8140039462346B4
:20565C00C01B80B211F062F910BB08EB0600B0F5005F17DCE868C8F188520AEB443A33463B
:20567C00921B514602F5005213F03AF909F1010908EB06001FFA80F8B8F5005F08BF4FF0AB
:20569C00010B0BE0BDF814004FF0010BC01D2DE0BDF81400401EADF8140003E0BDF814006D
:2056BC00C01B23E0204605A90DF0F6FC01281FD030E0EA78B9F1000F07D0544BBDF81470FB
:2056DC00A10001EBC401C9188F830699A14220D04E49641C94FBF2F05043241AE4B2A00068
:2056FC0000EBC4004018808B4FF00009ADF8140007996878A1427FF46FAF0AE0B9F1000FE4
:20571C0007D0424ABDF81470A10001EBC40189188F8320B1089812F095FB10206FE04FF605
:20573C00F0704FF40051C8EA0040C8EA01414FF01009E1FA40F087B21FFAA0F18A46D7B1D5
:20575C00202FACBF20263E1C079849460AF1885233460FF079FC6978BF1BBFB209EB0603BA
:20577C000AEB0602002F40EA01001FFA83F91FFA82FA6870E4D1089812F064FB0798A0427D
:20579C000FD1E978214F0819401E90FBF1F24A43801AC4B2A00000EBC400C019808BADF8DA
:2057BC0014001A4EA5F84090BDF81400079FA5F84400B90085F83E4001EBC7018919A1F8F1
:2057DC001C80B5F9422095F83D100123384611F0A5FA95F83E10B5F944200223384611F054
:2057FC009DFABDF814001728BCBF01200990B8F5005F03DB099840F00200099009980BB007
:20581C00BDE8F08F4C200020004003407C2000202DE9FF47AA48017806294FF0010840F00F
:20583C004981A84EA84F3068A84C016801F108054FF0FF09297801F00F00072802BFA878A9
:20585C008309012B40F09780002800F09480E878C30707D50622291D684612F035FD28780B
:20587C00C0F38019E978880737D5062201F001012B1D5143194402A812F026FD2878C00938
:20589C00FF282AD002A913F091FC002800F08F802068807A022818BF032804D138680D3009
:2058BC0013F088FC002840F00081386800F10D0102A813F03BFC002874D02068062202A922
:2058DC00001D12F001FD707940F0040070710622386802A9C01D12F0F7FC4846FF2800F0A7
:2058FC00E480694613F062FC1E25002800F0A8803968684613F056FC2268014650690078EF
:20591C00FF2900F08280002815FB01F563D1107C12F08AFC90F82E11022918BF032901BF26
:20593C003B685A5D01F001018A4253D100F59479581906224946401C12F0D8F930B90622A4
:20595C004946634812F0D2F9002843D020684169386840190622C91C401C12F0C7F900286B
:20597C0038D0707940F00800707106226946484612F0AAFC43E011F00F0F1CBF01F00F02D5
:20599C00012A27D10622A91C684612F09DFC2878C0F3801900F00F0001289ED1062205F1F1
:2059BC00080168E73068016800220A7184E02168887A022818BF032805D138680D3013F004
:2059DC00F9FB002889D12068807A002818BF01283FF483AF69E039684A5D70694919491CF5
:2059FC00083813F02BFB3B490A7890425DD03968706949196A46C91D083813F01BFB3868B2
:205A1C00401906226946C01D4DE000284DD1107C12F00AFC0746206840698278914544D1F3
:205A3C00C11C0622684612F061F900283DD0707969F3C30070710622694607F5947032E034
:205A5C0021684A69107880BB087C12F0EDFB82469AF82E01022818BF032826D138686A46C1
:205A7C00494613F02BFCFF281FD015FB00F5386841194A7F012A04D00D30401913F09AFB46
:205A9C0098B120684169386840190622C91C401C12F02CF948B1707969F3C30070710622DC
:205ABC0069460AF5947012F00FFC306801680020087101E04FF00008404604B0BDE8F087F3
:205ADC00C80F0020BC0A0020680F0020540F0020006E0210503500202DE9F84F05004AD012
:205AFC009C480078092818BF0A2804D00B281CBF0C280D2801D1212029E1A878002113F048
:205B1C0069FB040008BF4220F6D0934FA978914A3970107810B9A8789049087004F1480686
:205B3C00F068417801F01201022902BF706900280C2012D0607AF0B1A07B012804D1B5F8F8
:205B5C00030008B1812816DA6878402813DA204613F06CFAB06808B90720F8E0B561287842
:205B7C0001281BD1A07B00281CBF0128042815D17B48007808B91220E9E07A494A7882425B
:205B9C0008BF0920F8D004F1220004F13801427F802006F0ADFB08B10B20D8E0687808B9B0
:205BBC001120D4E02878DFF8C091DFF8C0A1DFF8C0B1012840F09380207A002101282173B8
:205BDC004FF00A0811D19BF80000402110F03EFBB5F8030008FB00F1402013F023FA010024
:205BFC00DFD1B16968794871B0E001202072E172617309F0FFFA6060DAF8000080475D4AC9
:205C1C000146106802E06268426000680028FAD10846D9F8001088476168574848610021D0
:205C3C0038780FF0FFFD3978012211200BF082FAF0684178C80605D5204613F0EFF9010016
:205C5C000BD084E0002060840BF02CFA84F82100204613F0DFF9010079D1F0684178C807BB
:205C7C001CD504F14207B98800291CBF3068002814D03A788A4211D20F2013F0C7F968B184
:205C9C00F06801788DF80010B888ADF801000F2039788DF80310694613F0B4F92D4F387899
:205CBC00002853D13549087800281EBFF068417811F0030F03D03248006813F007FA11206B
:205CDC00387001212172B5F8030008FB00F1402013F0A8F901003AD1FCF7E4FB36E0207A15
:205CFC00A8B3DAF8000080470546387801210FF099FD9BF80000402110F0A8FA002020729A
:205D1C0012F062FD012804D012F034FC6168884212D110F02BFE40F2014013F057FA19490F
:205D3C001948086001219BF8000008F075FDD9F800102846884709E0204613F05FF9D9F8C6
:205D5C0000102846884720460FF0A6FF0020BDE8F28F00BFC80F0020D60F0020D50F0020CB
:205D7C00D40F0020780E0020B81F0020B41F0020C70F00204C0F0020B9730000880E002021
:205D9C006C0F0020480F002041E700102DE9F14F82B013F04BFA009041F60301BDF8080045
:205DBC003225401A4FF0FF3B0328D9464FF0500842F21077DFF844A2914E6FD91E3801289E
:205DDC0008D9801E6AD0001F00F0D580401E00F0028110E18B4A907812F026FA0400F8D0FD
:205DFC00E08E618E90FBF1F77068A17950F83110009813F027F901462089A279336ADFF802
:205E1C0008C2DFF808E203280EDB814C2468382010FB02F014F80090B9F1010F1EBF2018AE
:205E3C0090F82D0001280FD17D436424B5FBF4F47568985C2D1DF14615F83250A54217D2F7
:205E5C00B0B9514529D313E07068041D08FB07F814F83240985C4FF0640BB8FBFBF84445EE
:205E7C004FF0FA6904D218B9DFF8A881414501D3E1460AE0F369985C7D43B5FBFBF5AC42B4
:205E9C0002D208B9514508D3F146401C032190FBF1F101EB4101401A9854ACE05E4800789E
:205EBC00002113F097F90400F7D0606D007811F039F9FF280190F0D0BDF8080041F603015F
:205EDC0088421CBF41F60401884207D041F62301884202BF207D8009012802D14FF07A79EA
:205EFC0001E0DFF838913068019950F83110009813F0A8F8226E0146B2F80300C0B1636D4A
:205F1C0093F801C05FEACC6E08D5A47B012C05D1474340F2E24397FBF3FB09E0D3F803403F
:205F3C00474324F07F4440F271204443B7FBF4FB507910B1584538BF8346394881420BD2F1
:205F5C0032680198131D642213F8300008FB0BF3B3FBF2F2904202D309F102094BE0514501
:205F7C003FBF05FB0BF56421B5FBF1F1884242D309F101093FE03169009813F063F8024616
:205F9C0028480368186A41884FF07A6949B1808838B94F43D9698B8840F27120434397FBE8
:205FBC00F3FB1F498A4207D2307D08FB0BF36421B3FBF1F1884202D3DFF86C901BE0524503
:205FDC003FBF05FB0BF56421B5FBF1F1884212D3DFF858900FE0B168009813F033F80D49FE
:205FFC004FF07A79884228BFDFF8449003D2504528BFDFF840904846BDE8FE8F81841E001C
:20601C0000320020780E00200200D0070100D007CC34002001093D00D50F00200000B80B8D
:20603C0001127A00500F00200200A00F0100A00F0200E8030100E8032DE9F04FA44C8246F1
:20605C00E07894F8315094F83290BAF1000FADF1140D0146A1F101018FB218BF01214FF0A4
:20607C00000884F83F10464603964FF0F80B019622E0B1451ED0E06871036A46042312F0B8
:20609C002FFC009911F4403F03D00198401CC0B2019001F0FF017C2918BF782909D1304673
:2060BC0006215A4611F07AFD0C2016FB004080F848B0E078761CF6B2B042DADC0199401E66
:2060DC0088425BD0002F04F1300600F0CA8040464FF4005B019094F83F30E06813B9012135
:2060FC0084F83F106A466903042312F0F9FBBAF1000F05D00099E07811F4403F40F0998033
:20611C00009800F0FF00702803D02846702110F0EFFDE0684FEA49316A46042312F0E0FBD7
:20613C00009800F0FF00FE2803D04846FE2110F0DFFD48460621FE2211F030FD4FEA890075
:20615C00FF22FE2184F83C9000EBC900A4F840B0AB0084F83D50801984F83E20183001707B
:20617C000199029003EBC5008019A4F84410808BA4F84200FFF7E6F9102801D10020A4E02F
:20619C00BAF1000F0CBF10215146BAF1000F07D0B4F84000C0F50050814207DC01200390BA
:2061BC00B4F84000C0F50050814201DD782100E07C21484610F09CFD07F0AAFA054694F882
:2061DC003F000621FC22401B84F83F00484611F0E5FC0298FC21017094F83210E0787F1BB1
:2061FC00491994F83E500C23414491FBF0F24243891AC9B284F83210491C91FBF0F242432C
:20621C00891A84F8311015FB0361898BBFB2102905D1691C91FBF0F24243891ACDB294F8D4
:20623C003290DDF80480BAF1000F17D00398A8B117E06D1C08F1010295FBF0F17F1E94F87C
:20625C003F30A4F840B041431FFA82F8BFB2581E6D1A84F83F00EDB284F83D50002F7FF49D
:20627C003AAF7C200FF012FF0546FF2D1CD17E200FF00CFF0546FF2D16D194F831500C20CA
:20629C0015FB0060807DFF280AD0E27894F832008018401E90FBF2F15143401AC5B203E0B0
:2062BC0028467E2110F024FD0C2084F8335015FB0060808BE08694F83200FE2110F018FD96
:2062DC00B4F84000C0F5005000B205B0BDE8F08F4C2000202DE9F84185B0044611F8017B47
:2062FC0000203822072F04F5A47504F1FD06DFF86082984B00F00A810F2F09D0112F00F06A
:20631C00B7801A2F00F0C9801B2F00F0EF801CE133789A071BD504F176073878012804BFB8
:20633C0078780F2808D0787908B17A7812B13A7B012A03D158070AD5232264E010B17878B7
:20635C00012802D0B87E012806D1580702D40F21317751E02A2256E008784A7800EB0223DE
:20637C002B808878CA7800EB02236B8008794A7900EB0223AB808879CA7900EB0223EB80DB
:20639C00087A28724A7A887A02EB00236B81C87A0A7B00EB0223AB81487B8A7B00EB022328
:2063BC00EB81C87B0A7C00EB02232B82487C8A7C00EB02236B82C87C0A7D00EB0223AB8200
:2063DC00487D897D00EB0122EA8204F5AA70049069890391287A029021890191E8880090BF
:2063FC00AB886A882988204612F06CFE68B13078410707D40F203077204612F05FFE002832
:20641C0030D16CE01E220F2158E06888B882A988F9820221E8883883397400207882A18E51
:20643C00C91DF981B88A618EB0EB510F02BFF88AA18E884202BF388BE18EB0EB111F12D0D8
:20645C00787918B10F21B972FE210DE0FC21204612F060FEE8880090AB886A882988A0792D
:20647C0012F028FE6BE00021204612F053FE66E00E782E761A2E4978697666D11868A67985
:20649C00811D5643002088551968A37912FB03F20A445072A179687E4FE0A67918680978AE
:2064BC005643064401F01F0516F82D0F890918B17078C840C00705D420221A21204612F0AE
:2064DC00DDFD3CE0F5701868A37912FB03F20244204682F82F10002107F02AF878BB98F845
:2064FC0000004FF4804108F097F928E0A179186851430144888908B900258D71A1791868EA
:20651C0012FB01F281180020487218E009780F2917D01A2919D1A179186851430144002094
:20653C008871A1791B6812FB01F2991848721A20B17801F0FB01B170A1790BF077F8012028
:20655C0003E0317801F0FD01317006B0BDE8F081C70F0020CC34002070B5864D687912F046
:20657C0031F88549002808600BD00022026002730868C2610262A87912F024F87F4900287E
:20659C00086000F0F48000220260C27200200A681074052308684374002209684A61E87A56
:2065BC0012F010F876490028086066D0754C21782878C91C10FB01F080B212F003F872496B
:2065DC000028886059D0207800286DD0698811FB00F080B211F0F6FF6C4A002850604CD0AA
:2065FC006B482278017811FB02F080B211F0EAFF68490028086040D000250AE0E8B211F0A4
:20661C0091FF00214180816001800223037101736D1C2078E9B28142F0D311F0D3FF5E49C1
:20663C000028086029D02078400011F0CBFF5B490028086021D020781C2110FB01F080B2EA
:20665C0011F0C0FF564A0028106016D02078400111F0B8FF5349002808600ED0207800010C
:20667C0011F0B0FF50490028086006D02078000111F0A8FF4D490028086078D020783021B7
:20669C0010FB01F080B211F09DFF494A002810606DD02078382110FB01F080B211F092FFFA
:2066BC00444A0028106062D0434D444E2978307800EB4100C000103080B211F083FF404991
:2066DC000028086053D000F10801416030782A7800EB4200C000103080B211F073FF3949B2
:2066FC000028086043D000F1080141601E212878401C10FB01F080B211F064FF324A0028CF
:20671C00106034D0082011F05DFF304D286070B3062011F057FF296808602968086830B3E2
:20673C0000204860062011F04DFF29490860F0B1A02011F047FF274D2860C0B12078C000BB
:20675C0011F040FF686090B1142011F03BFFA86168B10026207811F035FF05F11C0141F804
:20677C00260020B1761C022EF4DB002070BD072070BD00BFC4240020500F0020540F00200B
:20679C00440F0020D40F002090340020780E002022260020D4340020340F0020C8340020CE
:2067BC00980E00209C0E0020A00E0020A40E0020A80E0020CC34002051350020503500204C
:2067DC006C0F0020700F0020680F0020E4340020400F0020003200202DE9FF477A4C7B49ED
:2067FC007B4E20700A22002008600D2379484FF40471027043808180774A784810603778F1
:20681C0077480770FF2F7178417008BFFF29B2788270F378C370357905717679467114D106
:20683C00FF2A08BFFF2B10D1FF2D08BFFF2E0CD16C490A7802704B7843708A788270CB78EE
:20685C00C3700A7902714979417167490278674D674E684FDFF8A0810A7043784B70827853
:20687C008A70C378CB7002790A714079634A4871FF2028706870A870E870287168710020E6
:20689C005F490880F06B5F49407808705E49F06B0078087013885D485D490380F06BC06C97
:2068BC003860F06B90F83C0008705A49F06B90F83D000870F06B4069017957484A1E02705B
:2068DC00F06B5649C07888F80000F06B8069086008B910F0E9FAF06B5149C069086008B953
:2068FC0010F0E2FA12F086FBF06B4E49006A086008B910F0D9FAF06BDFF82C91406AC9F86B
:20691C00000008B910F0D0FAF06B4849806A086008B910F0C9FAFFF71FFE07280AD104F0FD
