:200000000038012085A0000039FB021039FB021039FB021039FB021039FB021039FB0210BE
:1C00200039FB021039FB021039FB021039FB021039FB021039FB021011FB021002
:20003C002DE9F04F0546A878ADF1540D022840F05F822888DFF8ECC214281DDCBA4A142800
:20005C0000F03E81002800F04E82801E012840F24682801E00F03482401F00F01E82C01F1A
:20007C0000F01882401E00F00282401E00F0EA81401E00F05B81C9E1203800F0E081801E34
:20009C0000F0D281001F00F09180401E69D0401E4BD0083800F0C281401E40F0B781AF6881
:2000BC0057B36446B4F80302810902D33978022902D040090AD216E0B4F8030220F02000B6
:2000DC00A4F8030240F01000A4F803023878012809D1B4F8030220F01000A4F8030240F02D
:2000FC002000A4F8030200208DF84D0001233878CC490870312003E0012312208DF84D3044
:20011C0003210DF14D0207F043FF0CF091FF0B900CF08AFF0C90A8680CF034FB0020A8606E
:20013C000C980CF07DFF0B989EE1A9680C78012C0ED1BCF803220120120A0AD39CF8022219
:20015C00520806D3891C08200CF0C6F8002000E006208DF801008DF8004002236A4628203B
:20017C00C3E10024A8688DF84E4038B10178082009F0BAFD01280AD0012302E001238DF88C
:20019C004E30272003210DF14E0207F001FF0CF04FFF0F900CF048FF1090A8680CF0F2FA51
:2001BC001098AC600CF03CFF0F985DE100249CF8E501AE688DF84F40002868D13078E0465C
:2001DC0001281AD098F8E801012858D198F8E901002854D1D8F8E001B8F8EA7190F8AD006D
:2001FC0021F0FF0100F0FF000843D8F8EC1167F31F4009F090F9012136E0D8F8E01191F80E
:20021C00AD0000283FD0B1F86471002F3BD098F8E811012937D0B6F80110484390FBF7F0B0
:20023C00C0B288F8E901B6F8011019B110B9012088F8E901D8F8E011D8F8EC0191F8AD1025
:20025C004A01214608F046FC012788F8E871F078A8F8EA013079012811D105F0F9FE70B9D9
:20027C00204688F8E90139468DF84F0002200DF14F020B4688F8E801262007F089FE26200A
:20029C000321012309E026200321012302E0012181200B4606228DF84F200DF14F0207F02B
:2002BC0077FE0CF0C5FE0D900CF0BEFE0E90A8680CF068FA0E98AC600CF0B2FE0D98D3E0D7
:2002DC000020AF688DF8510077B9108800F0800100F48070084300F00B81012314200DF1BB
:2002FC0051028DF8513000E16446B4F8031201F0800201F48070104308D0142003210DF164
:20031C005102012307F044FEB4F80312080A03D3072039460BF0E0FF3978042009F0E4FC3A
:20033C00E6E0C046B8260020BB280020AF686446B81C3978407984F8001279784FF000080F
:20035C0084F801126C4C8DF8528000F1070A504621700BF0D5F8694ED6F800905FEA000B89
:20037C0044D0BF1C5246394607F094FC6448654960604746A160644B8F73644A8773344659
:20039C00E061FE21A36110680491B9F1000F009004D101A804A907F0A7F820606E46DFF8BB
:2003BC0070A1DFF870912068002F07BF31784AEA0101317849EA0101049108F0B9FE20B9E1
:2003DC007F1C761C042FEEDB02E020680CF014F8514801245946047006200BF07DFF1320C5
:2003FC0003210DF15202234607F0D2FD0CF020FE05900CF019FE0690A8680CF0C3F9404696
:20041C00A86006980CF00CFE05982DE0062001218DF84C0013AA0B46812067E005F010F85E
:20043C0066E0C046E22D002000242220032114AA01238DF8504007F0ABFD05204BE00CF0B9
:20045C009DFA55E0A86807F0A5F80CF0F1FD09900CF0EAFD0A90A8680CF094F90020A8604F
:20047C000A980CF0DDFD09980CF0D6FD40E0A86802F032FC0CF0DCFD07900CF0D5FD089056
:20049C00A8680CF07FF90020A86008980CF0C8FD0798E9E70AF09CFB2AE0A8680AF098FD8A
:2004BC000CF0C6FD11900CF0BFFD1290A8680CF069F90020A86012980CF0B2FD1198D3E718
:2004DC000024042003210DF1530201238DF8534007F05EFD032021460BF0FEFE08E0A8683A
:2004FC000AF02EFF04E000200B23032107F050FD15B0BDE8F08FC046E00F002000340020CD
:20051C00003700201037002030370020B4FB00000004C0A0000480A01B2002402DE9F04F71
:20053C00CA4C05462078ADF15C0D032840F03E824FF0000B6846182284F800B0082384F87F
:20055C0001B059460CF094FB684659460BF05CFA20612E22594604F1300008F0BBFA04F1CF
:20057C0030008146FF210A220C3008F0B3FA0BF0EBFA294658460AF081F904F11801E0608C
:20059C000CF092FB206AE169B1FBF0F2D7B284F83070022FC4BF022784F83070E770B0F5BA
:2005BC00005F04D1E068B1EB473F00D310B901202070FDE1FF2184F83310D846CDF82880EC
:2005DC005D460B950C950D950E950F9513950A46109211921292149215924FF40056E686FF
:2005FC0059461691AF4200F30B81139E002E3AD10F9E002E28D1B8F1020F25DA0E980228E2
:20061C0022DA0B9802281FDA0A9887421FD00E9E9EB9B8F1000F0ED10D9E0C9806430FD190
:20063C005D46AF4213DD284606F006FB6D1CEDB2E7786070F5E7012016E0B8F1000F01D1E1
:20065C00032011E002200FE05D46AF4201DC58460AE0284606F0F0FA6178E7786D1CEDB2B2
:20067C0001436170F1E705200028A07000F0B180401E70D0401E00F09280401E1DD0801E0C
:20069C0040F095811498FF2804BF1598149084F8330094F833200C2684F83120D019401E3D
:2006BC0090FBF7F17943401A84F8320012FB0690808BE08603F0A6FF87E0002F08BF5D463B
:2006DC000BD009F10C0138465D4611F80C2FFE2A03D0401E05F10105F7D1AF423ADD0C2066
:2006FC0084F83C5015FB0090817E84F83D10C07E84F83E0005F09AFDE2782D1895FBF2F0D9
:20071C0050432D1AE8B284F83200401C90FBF2F15143401A84F831007C200AF0A1FDFF28DB
:20073C0010D17E200AF09CFDFF280BD1FF200AF097FDFF2806D178200AF092FDFF2808BFCE
:20075C0094F8310084F833000C2110FB0190808BE0864FE0FEE71098129E84F83200FF2E90
:20077C0000F1010090FBF7F101FB07F1A0EB0100C1B284F8311008D11198FF2804D10C209E
:20079C00129111FB009005E012901299880000EBC100484484F83310808BE08607E1DDF81F
:2007BC00408008F1010084F8328090FBF7F17943401A84F831005FFA88F006F03DFA607031
:2007DC00FE215FFA88F00BF093F9584601F06AF9EDE084F831B0781E594684F832000C2655
:2007FC0084F833B011FB0690808B7E21E08658460BF07EF994F83200FE210BF079F9D6E0BC
:20081C000C2115FB019706AA042369030CF051FA069807F11606010EB1F1960A18D1C0F3BE
:20083C008541C0F3014040EA8100022810D187F819B09DF818003070FF223A769DF81930E8
:20085C00FB75284609F0DEFDB8836CE0643200202846594607AA0BF041FE2846012108AA53
:20087C000BF03CFE2846022109AA0BF037FEDDF818C00CF0FF010CF0FF00FF2909D0FE29E7
:20089C0007D07E2905D07C2903D0782918BF702909D15FEA0B0706D1CCF38541032908BFDC
:2008BC00BAF1000F1ED0284606F0C6F90746002FE068677038D1690306AA04230CF0F9F97C
:2008DC002846594607AA0BF009FE2846012108AA0BF004FE2846022109AA0BF0FFFD069824
:2008FC0000F0FF0030709DF81900069F9DF81E307070C7F30140F070BDF81C004FF6FF7156
:20091C008142B37002D1284609F07CFDF0809DF822003071BDF8207037819DF8263073718E
:20093C00BDF824207281E0683178FF2936D0FE292ED07E2926D07C291ED0782917D070291A
:20095C0010D0A52908D0242904D00F99491CC9B20F9127E0159500E014951399491CC9B2E6
:20097C0013911FE00E99491CC9B20E911AE00D99491CC9B20D9115E00C991295491CC9B253
:20099C000C910FE00B991195491CC9B20B9109E008F1010710955FFA87F803E00A99491C97
:2009BC00C9B20A91E7786D1CEDB21BE66070607817B0BDE8F08F70472DE9FC47D14C0F4668
:2009DC000546F80B80F0F6816078DFF83C83B90F80F09C81B90880F08E81F90A80F0F980D7
:2009FC00390B80F0C580380907D2F80FC0F01A8227F0804708F096FF14E20CF0C7F9814691
:200A1C000BF04AFC002800F0AD8008200CF00CF9002840F0A78080200CF006F9002840F099
:200A3C00A180684607F0E8F8012803D10098002800F0988000250126E8B20BF08BFF48B1CB
:200A5C00837A3BB1867290F9090006FA00F0C0B20AF05AFC6D1C032DEED30320207504F12E
:200A7C00B4000CF08FF948460CF0D6FACF4800252A460168056050F8081CCD4940F8085C30
:200A9C0004F138000BF088FB40460068006B8047A168401A010BE069C1F1FF3282422CBF25
:200ABC0008444FF0FF30E06194F8200020B12069E169B1EBC02F25D90BF0FEFB294600B132
:200ADC003146081C1BD0D44840F6090101804580417B06F00F0221F00F010A434273017B70
:200AFC0005F00F0321F00F0143EA01020273294641600BF0E3FF418811F4406FFBD084F85C
:200B1C002060E56109F04EFECA482946056002200BF07EFA02200AF057FE112005F062FF3B
:200B3C00207818B9606848300CF040F9C248007810B90E2005F056FF94F8210020B184F8FE
:200B5C00215005200AF040FEBC48A0612575B4F98C00B4F98E10884214BF0220072007F0AB
:200B7C0031FE02E048460CF057FA27F0080741E720B104200AF028FE0020607065680AF053
:200B9C00A7FB38B12846ED696FF4807100224FF00073A847E06858B140460068006B804762
:200BBC00E2686168801AC860000BC8600026E660A34904F1380000220BF0EEFA0221A06F55
:200BDC00217518B104F580700CF0F8F827F4006710E70CF0DBF806460BF05EFB216F002825
:200BFC00894600F0828000297FD09649042504F13800002225750BF0CFFA30460CF00CFA73
:200C1C0004F1B4000CF0BEF840460068006B8047E0604FF0010884F8018028460AF0ECFD67
:200C3C00D9F810006060D9F81000416AC90803D3036A294600229847404608F069FF606839
:200C5C0080F81580606804F01FF96568D5F808A040F60A02D01F564600F1010C00E01E4646
:200C7C00736833B119888A4203D0884218BF8C45F5D100217160727B08F00F0322F00F0215
:200C9C0013437373D9F80C201288904224D06046904221D02B8E03B3696305F13002518002
:200CBC0095F83C0001F00F0320F00F00034385F83C3095F83D0008F00F0320F00F000343C5
:200CDC0085F83D307260707B01F00F0520F00F0045EA0001717300E0E16050460BF0EEFE7B
:200CFC00514640460BF094F902E030460CF094F927F4806796E004F087FAA06F08B927F07E
:200D1C0002078FE0E03700208C0100104E4A116841F08001116020B104200AF055FD0020D6
:200D3C0060700CF033F88246D8F85400016804208847D0B1287DC0B1A068B0B18146D8F8C1
:200D5C0000002E69006B8047A0EB09002861000B2861B04202D280194008286140F6C411C2
:200D7C0081422CBFB0F5967F296150460CF054F90AF0AEFA78B1EE6928466FF48071002280
:200D9C004FF00073B047206F002808BF47F0020701D008F0C7FD2846AD6900214FF080637C
:200DBC000A46A84727F000573CE0C046141004407D9F00000BF0EAFFD4F8886076B306F10C
:200DDC00280106C90A234FF0E0450B40154008BF002B23D106F1280191E8000306F1280528
:200DFC0095E8060006F1280322EA090221EA080183E806000CF010F9B16889B1B9F1000F85
:200E1C0008BFB8F1000F0BD03069B6F93010B5684B464246A84703E0A44300200CF0FCF8D5
:200E3C0027F4804727B104F5807039460BF0C6FFBDE8FC87000004609E0201007D5F0000AB
:200E5C00A55A000095C20000CC2108402DE9F04FDE4C94F90E02ADF13C0D0E90D4F8E0019D
:200E7C0090F8AD10B0F8640104F16805B0FBF1F0C1B20A20B1FBF0F707B90127D5F87801B8
:200E9C0001F0A2FB2046D0F8E011002305F5C47591F8AD100D9500F1680400E05B1C9942BC
:200EBC0000F36E8194F87D21002A5AD0521E00F06281501E40F06C8164200AF021FB054603
:200EDC00D4F87801D0F86081B8F1000F36D0002D00F05E81B0F8640100272F80401029886A
:200EFC0068806888401A1028D4BF87B21027281D7FB141463E460A7902710A68026091F995
:200F1C000530761E024601F10C0102F106005371F1D1780000EB870001212A46001D83B258
:200F3C00082007F035F82888BE00C019288006EBC7008044298868888842D3DC002D00F0A7
:200F5C0027810CF075F808900CF06EF8099028460BF018FC09980CF063F808980CF05CF86C
:200F7C0016E104F5C8734FF0000C1F788DF831C087B9974F04F5C6746646B14200F3E8807F
:200F9C0001211970D0F8E01190F8E52191F8AD1000F1680404F5C678D2B994F88021012A86
:200FBC0016D1624612E0D8F80010D4F884415301C918E418E8C9E8C46AC984E86A00D0F8C4
:200FDC00E01100F16804521C91F8AD109142EADC6546A9424FDC684605F082FA94F880016D
:200FFC00012829D194F88101002800F0D180401E84F88101C0B2002840F0CA80D4F8780186
:20101C00B4F8827190F8AD0021F0FF0100F0FF000843D4F8841167F31F4008F07CFA0121EB
:20103C008DF831000DF131020B46262006F0B0FF022084F88001ABE002A803C85DA20CCA7D
:20105C0004F0A0FD0646B4F882010D460BF064F90B4602462946304601F01FFF0AAA0E9FCF
:20107C00106009238DF830700620516001210AAA06F08EFF8CE00D9968010E68D8F8004062
:20109C00315A215236182418B06906F10807A06197E8030008F09AF900EE100A10EE100A5F
:2010BC000AF0DAF90FF2141B9BE80C0004F06AFD81460F4604F1080003C808F087F900EEE3
:2010DC00100A10EE100A0AF0C7F90FF2F80A9AE80C0004F057FD0B4602463946484601F098
:2010FC00DCFE103604F1080282E8030096E8030008F06CF900EE100A10EE100A0AF0ACF9AB
:20111C009BE80C0004F03EFD07460E4604F1100003C808F05BF900EE100A10EE100A0AF01E
:20113C009BF99AE80C0004F02DFD0B4602463146384601F0B2FE04F1100686E8030023483D
:20115C00D0F8E001214C90F8AD106D1C683440E70D9922680968750152194919B1E82043EC
:20117C00A2E8204391E8224182E82241396891F8AD10761C01E72846006806F0D9FD07E0D3
:20119C002A46126802EB4312926997427FF686AED4F878010AF0B2FDD4F878110D9891F819
:2011BC00AD1000684A01002107F094FC0FB0BDE8F08FC0460000000000C032406666666648
:2011DC006666E63F343333333333D33FB8260020982800202DE9F04FBD4F06460D46F8697E
:2011FC00BC4C0673ADF1340D457304F12C00386207F02EFF0BF0E2FC0028FBD021780BF07C
:20121C00DDFC012800F05C81DFF8D0B2081CBA4600F08C80401E63D0401E40F030818720F3
:20123C000AF06EF9071C00F02A81DAF82040BD704FF400703E70A84BA7F80500DAF8181022
:20125C008B4208BF012004D0584688420CBF0220002078704FF00009A7F80390B7F805005E
:20127C00B7F803104FF00708401A202802DC86B20EB911E020262146354648464A883B18F7
:20129C00A3F8092031F8043B6D1E07EB000200F10400A2F80730F1D108EB860083B201212F
:2012BC003A46242006F074FEB7F803008019A7F80300B7F80500B7F8031080348842D3DC56
:2012DC000BF0B6FE0A900BF0AFFE0B9038460BF059FA0B980BF0A4FE0A980BF09DFECEE074
:2012FC0001F042FB6068817B012906D0A068817B012940F0EA80022200E001224168002325
:20131C0083738DF800608DF802508DF8012031F8020BADF8030031F8022B0DF1050727F8FC
:20133C00022B0988252009233980A4E001F01CFB6068817B012940F0A280A568A97B012982
:20135C0040F09D8000218173A9734268B2F90260B2F90020921902EBD2778668427B6B6812
:20137C00B25602EB670216B2B3F90270B3F90020D31903EBD3735A106F7BAB68C2EA0646C2
:20139C00DA572D27C7EA02426FF02C07A6FA02F30FFAA3F207FA83F307680FFA83FC7E689E
:2013BC003B689B195B081EB22B685F681B68DB195B080FFA83FE90F90C7095F90C30BB42FD
:2013DC0004DB022362462846764600E00123277E04EB4707BA81A283A37690F90C30A377DD
:2013FC002684407B84F82200ADF81A20227EA08B04F10C0525F81200607E0628AEBF062050
:20141C00607E401C616260760846627E82424FDC606A90FBF2F02085207E0428DCBF401C23
:20143C00011C268C217694F82250ADF81E6094F91E708DF82050A37E8DF81C70208D8DF895
:20145C00213006A9ADF818000CC902AF0CC709883980BDF808009DF81160ADF800009DF912
:20147C000C508DF803609DF810408DF8025005238DF80440232001216A4606F089FDDAF8FC
:20149C0018301549174A5846994207D098421CD10846012312491370002302E00023137017
:2014BC001149CAF81800CAF81C108AF824300CE035F91030626A401CC0B2D2186262A4E7EB
:2014DC00606800218173A06881730DB0BDE8F08F00340020E00F00203037002038370020BD
:2014FC00003700201B2002401037002000202DE9F0470146ADF1180D0BF08AFDA54CA060AB
:20151C0004F114000BF03EFBA34DE0604FF0010A85F800A0A148A8600AF090F8A04F3878C9
:20153C00A146002840F0C3809E4E706800283CD106F1400840460BF0EFF90624B4659A4847
:20155C00706596F87000002404F0070120F00700014386F8701096F8700064F3C30086F88D
:20157C007000B6F8700020F47C7040F43470A6F8700096F87100346464F3820086F871007C
:20159C0020460AF019FFA6F872008949874806F160024346706706F1900000F015FF7060F2
:2015BC00002800F084802B7801E0002453467485346341F609003085A046C6F82C8096F84F
:2015DC00340020F00F0040F0020086F8340096F8340064F3041086F8340096F8340064F3C0
:2015FC00461086F83400204603B9504696F8341060F3C71186F8341096F835000AF00F0381
:20161C0020F00F0043EA000186F8351096F8350064F3071086F83500252286F8362096F811
:20163C00370004F07F0320F07F0043EA000186F8371096F837004FF4867E4FF48A7C07F50E
:20165C00927206F1140364F3C71086F8370006F10801F1632046B36310FB0CF18B181C7171
:20167C0005285C7101EB0203A3F806E008BFC2F8642503D0511801F58A711960401CC0B264
:20169C000628E9DBFA60C7F810807A61C7F8188007F10C00706110200AF0FCF9061C05D076
:2016BC00341D414620460BF0AFFC3460EE60434A4048414E42490292002400904FF4C85373
:2016DC00019601F1080220461470164606EB80121471401C9381C0B204285471F6DB3948E8
:2016FC0048603949087818B1012818BF02280CD1081D6A4601460DCA81E80D003348344EEE
:20171C0078605046BE6004F0B1FB324FD9F8080021464FF080424FF0FF330BF071FCD9F815
:20173C000C000BF069FC0028F0D10BF081FC0490D9F80C000AF094FF064604980BF06CFC77
:20175C00002EECD03088012819D112E0E86800680BF04EFC039060B1017A57F8211088475B
:20177C000BF066FC804603980BF00CF840460BF053FCE86800680BF03FFC0028E6D00BF0F9
:20179C0057FC049030460AF0FDFF04980BF044FCC5E7C046A81F0020783400202DC60000AB
:2017BC000C180020B82B002093C100006436002084FF000009B20000117000003563000061
:2017DC00382F00201FCD0000F0360020ADB4000025BF0000680001002DE9F04FAE4D002016
:2017FC00687095F83F10EB7895F83D00ADF12C0D0918491E91FBF3F25A43891AC9B20691CA
:20181C00810001EBC0014919B1F84C004FF0805909F5EC76ADF8140095F83C1095F83C0054
:20183C009E4F0790880000EBC1004019B0F84C80306895F83D4081683846884700F003003C
:20185C000890D9F8D801426800213846904730688168384688470028F9D10021079F6878A3
:20187C000991A74200F09F808B46D946BBF1010F00F08E80BDF81410172964DB002840F060
:20189C009380BDF814006A46C01F81B2ADF81410204606F063F9BDF80E70BDF81430F81DCC
:2018BC0007F1100186B2994246D89DF80A00962842D19DF80B0042083AD2800838D3BDF824
:2018DC0014009DF80920C01B1FFA80FABDF8140039462346C01B80B209F02EFF10BB08EB0A
:2018FC000600B0F5005F17DCE868C8F188520AEB443A3346921B514602F500520BF0D9F9A6
:20191C0009F1010908EB06001FFA80F8B8F5005F08BF4FF0010B0BE0BDF814004FF0010B00
:20193C00C01D2DE0BDF81400401EADF8140003E0BDF81400C01B23E0204605A907F08EFEA0
:20195C0001281FD030E0EA78B9F1000F07D0544BBDF81470A10001EBC401C9188F83069995
:20197C00A14220D04E49641C94FBF2F05043241AE4B2A00000EBC4004018808B4FF000098F
:20199C00ADF8140007996878A1427FF46FAF0AE0B9F1000F07D0424ABDF81470A10001EBB2
:2019BC00C40189188F8320B108980AF0A3FE10206FE04FF6F0704FF40051C8EA0040C8EA2B
:2019DC0001414FF01009E1FA40F087B21FFAA0F18A46D7B1202FACBF20263E1C0798494683
:2019FC000AF18852334608F025FF6978BF1BBFB209EB06030AEB0602002F40EA01001FFAC8
:201A1C0083F91FFA82FA6870E4D108980AF072FE0798A0420FD1E978214F0819401E90FBC6
:201A3C00F1F24A43801AC4B2A00000EBC400C019808BADF814001A4EA5F84090BDF8140080
:201A5C00079FA5F84400B90085F83E4001EBC7018919A1F81C80B5F9422095F83D10012396
:201A7C0038460AF05BF895F83E10B5F94420022338460AF053F8BDF814001728BCBF012006
:201A9C000990B8F5005F03DB099840F00200099009980BB0BDE8F08F643200200040034082
:201ABC00943200202DE9F04FA44C8246E07894F8315094F83290BAF1000FADF1140D0146A4
:201ADC00A1F101018FB218BF01214FF0000884F83F10464603964FF0F80B019622E0B14514
:201AFC001ED0E06871036A4604230BF0E2F8009911F4403F03D00198401CC0B2019001F09B
:201B1C00FF017C2918BF782909D1304606215A460AF0F2FC0C2016FB004080F848B0E07848
:201B3C00761CF6B2B042DADC0199401E88425BD0002F04F1300600F0CA8040464FF4005B02
:201B5C00019094F83F30E06813B9012184F83F106A46690304230BF0ACF8BAF1000F05D06B
:201B7C000099E07811F4403F40F09980009800F0FF00702803D02846702109F0B9FFE068A1
:201B9C004FEA49316A4604230BF093F8009800F0FF00FE2803D04846FE2109F0A9FF4846BD
:201BBC000621FE220AF0A8FC4FEA8900FF22FE2184F83C9000EBC900A4F840B0AB0084F873
:201BDC003D50801984F83E20183001700199029003EBC5008019A4F84410808BA4F84200DF
:201BFC00FFF7FAFD102801D10020A4E0BAF1000F0CBF10215146BAF1000F07D0B4F8400064
:201C1C00C0F50050814207DC01200390B4F84000C0F50050814201DD782100E07C21484613
:201C3C0009F066FF04F002FB054694F83F000621FC22401B84F83F0048460AF05DFC02984D
:201C5C00FC21017094F83210E0787F1B491994F83E500C23414491FBF0F24243891AC9B2D9
:201C7C0084F83210491C91FBF0F24243891A84F8311015FB0361898BBFB2102905D1691C45
:201C9C0091FBF0F24243891ACDB294F83290DDF80480BAF1000F17D00398A8B117E06D1C57
:201CBC0008F1010295FBF0F17F1E94F83F30A4F840B041431FFA82F8BFB2581E6D1A84F876
:201CDC003F00EDB284F83D50002F7FF43AAF7C2009F0C6FA0546FF2D1CD17E2009F0C0FA6C
:201CFC000546FF2D16D194F831500C2015FB0060807DFF280AD0E27894F832008018401EB5
:201D1C0090FBF2F15143401AC5B203E028467E2109F0EEFE0C2084F8335015FB0060808B59
:201D3C00E08694F83200FE2109F0E2FEB4F84000C0F5005000B205B0BDE8F08F6432002039
:201D5C002DE9F04F0646984CF08994F833504FF0FF0A002742F2010BADF1240DC01D1FFAE6
:201D7C0080F8E07808910AE02846782109F0C0FEE0786D1C95FBF0F141436D1AEDB2B84240
:201D9C0028DD94F832007F1CA842BFB2F0D0E068690305AA04230AF08CFF059800F0FF0013
:201DBC007828E5D004F13009FF2818BF7E2803D128467C2109F09CFEA80084F8335000EBDC
:201DDC00C5004844818BE186808B40448345CBDD94F833A0BAF1FF0F08D14046FFF762FE57
:201DFC00804503DD607800B90520D9E0607894F83370B0B9F588307AADF80650E18EB58875
:201E1C008DF808006A4603233846ADF8045003F039FD9DF81000BDF80C50307494F833701A
:201E3C00B581E068E58E790305AA04230AF041FF0598B84600F0FF0100F0FF007E2806D112
:201E5C0040467C2109F054FE059901F0FF017C2940F0A380F0895A46C11D8FB2E9198A426B
:201E7C0040F39980F288337A11128DF8192063F39F01B3888DF818109A1003F00301064627
:201E9C008DF81A20C0F3851200F03F0342EA81128DF81B20990072198DF81C10F31D1FFA6E
:201EBC0082FA98B20D282DDBDDF820903146002248460AF0A1FE0246052106A80AF09CFE0E
:201EDC009DF81C10334600F03F0641EAA0114A46B0008DF81C1040F0020096268DF81D001A
:201EFC0029468DF81E60404608F0A4FC0646514606AA07234046667008F09CFC304360704A
:201F1C004DD135E0089904F12400324605F0C2FE06A90A68301900F1240948460979026091
:201F3C00731D0171002204F1240099B20AF064FE9DF81C10962300F03F068DF81E3041EAF4
:201F5C00A011B0008DF81C103B4640F0020006AE49468DF81D003268B0790A60B28888715B
:201F7C0040468A8004F12402294608F063FC6070E18EED194FEA8806AAB2C919E18606EB32
:201F9C00C8010919A1F84C2048B14046514608F0D9FA607803E0052000E001206070C0B231
:201FBC0009B0BDE8F08FC046643200202DE9F04F06467E49726901F16800C0F8B82000251A
:201FDC003561F5603289A0F86C21327E80F8B5207268C0F86821327880F8B4203269C0F8B9
:201FFC006021F2680227C0F8642196F8282080F8BC7042F2107880F86E2196F82920A6F8D2
:20201C002280814680F86F21708D86F82170ADF17C0DA1F8D80106F11A0004F047FD00281D
:20203C0040F093803078012805D1284605F0A6FC002840F08A8016A80AF06EFC5C496846BE
:20205C00582205F027FE5C4C6946582204F1DC0005F020FE4FF0FF33169341F29410179083
:20207C004FF6FF72A4F828210E21A4F81411A4F816117368C4F8FC3046F60100A4F8DC007E
:20209C00728CA4F81A2184F81171A4F812514FF0200B84F81D51338984F832704FF0010ADA
:2020BC00A4F8F03094F8E90084F8F3B096F8212084F830A100F0F00184F81F214FF4C86090
:2020DC003F22A4F81801336984F8102141F00101C4F8F8304FF4D270A4F82401F26884F852
:2020FC00E91096F82830C4F8F420307884F83131592284F81E21D4F8B43084F8F200D4F86F
:20211C00B020C4F8083104F17803C4F80421B4F8AE20A3630128C4F80C2106D030F0020003
:20213C000CBFA4F81A81281C01D14FF4A560C4F8EC0004F1140104F1240216AB09F1080093
:20215C0000F042F9C9F8B00008B928462BE0706A00B16060174829465A46A06004F1580087
:20217C0006F0B8FC94F8F20004F15806012802D0022805D015E084F85E70384608F0A0FF7A
:20219C00B4F8AE0084F872A00CA7A4F8700097E803000836C4F82C6104F1600282E80300AF
:2021BC00A56609F108001FB0BDE8F08FB826002048FE0000D9440000F02C0020A4AA70F0B8
:2021DC00CC81F85A2DE9FE4F9B461546894682460AF0DCFD7B490190F83908680CAF5045F5
:2021FC0008BF4868744C6FF0010828B180300AF03DFC002840F0D08009F0F8FE061C00F0BF
:20221C00D58004F1B4000AF0BDFD0023B4F98C00C6F80C90401C86F832306FF31F30A4F8B1
:20223C008C00C6F808B0B4F88C0030866348C6F810A097E80C0020210027B84619401040DF
:20225C0006F1180383E80300424686F8332006F1200383E88001E8683064287C86F8440039
:20227C0028687063287986F83800A868F0636869B064A869F0642F7C27B9EF6817B1012010
:20229C0086F844002F795FB999F80C0000F00F00022805D1012086F83800D9F80800706381
:2022BC00484608274568002D18BF002F70D100886FF30900B0F5305F18BF022506D196F89A
:2022DC003300082540F0100086F8330006F1180090E80C00414606F1180745EA02001943D4
:2022FC0087E80300D4F8F800824507D194F8FC00410824BF00F0FE0084F8FC0030480768EC
:20231C00002F39D004F178000090D4F88010D4F8842004F170052B463046B84710F1030F3D
:20233C0010D0B6F93010B4F98C20914207D0B4F98C1001F6FF716FF31F31A4F88C1010F114
:20235C00020F1BD010F1030F18D096F83300B6F9308040F0800086F8330000278AF8A4702C
:20237C002868864205D0F068007B00F00F0002281CD107F0D7FA19E06FF00200B4F98C10C0
:20239C00804601F6FF716FF31F31A4F88C1005E07F1E2846FFB285E76FF0020894F8FC000C
:2023BC0040F0040084F8FC00C4F8F8A001980AF033FE4046BDE8FE8FE0370020FFEFFF9FC2
:2023DC00DC020100B03900202DE9F047DFF8B4910E46D9F808101F4615460446ADF1300D6E
:2023FC00BEB1B5B130784FF0010808FA00F001420FD0104600210AF0D1FCA56066600AF0E5
:20241C00C5FC614D82462878022804DB50460AF003FE0020B2E000286CD101F079F85B4912
:20243C005B4E086840F00200086008A8C9F800600AF054FB574E5849707808AA0A9005F53F
:20245C00807008F01FFE554905F59A7008AA08F019FE08A80AF012FB192108AB3078504A12
:20247C00099005F1380008F01BFD4E4A05F154001A2108AB08F014FD4B49002205F1900054
:20249C00134607F097FF4949002205F1B400134607F090FF46480068C0F3814030B1454A23
:2024BC0005F124000421002309F0A2FCB078012802D10E2004F05EFB05F178000AF00EFAF8
:2024DC0005F170000AF00AFA002185F820102975E961072085F8C80185F82110364B1970A1
:2024FC00A9600526E960354A2E610420AA6109F08FFD287805EB8001401CC1F8D840C0B2D1
:20251C00287050460AF088FD1FB968460AF004FA6F4638684FF4FA76E6602060B8694146FE
:20253C006062388A6175E082F869E062786800280CBF40F6C410002120612148E061206275
:20255C002175A061F86800B1E061786900B12062B86800B1A061782204F13000002106F0BA
:20257C00B9FA04F14800002109F01AFB1549002204F18000134607F01DFF20460CB0BDE8F8
:20259C00F087C046CC210840E037002000200940110000E09C02010041C70000316900009B
:2025BC007D9F0000BD91000075C20000BDC50000B44F005071A40000004400207D5F000034
:2025DC006330000067CD00002DE9F04F804674480468D8F86051B8F86801ADF1140D09F083
:2025FC009BFE6DA20CCA02F0E7F90090B8F86401A146461098F8AD000191002142014846CC
:20261C0006F068FA002E5DD0B5F9080009F02BFA8346B5F906008A4609F025FA0C46074613
:20263C0053465A4602F0C8F90391029023463A465146584602F0C0F92F6804468A46B7F14A
:20265C00FF3F3BD0002F39D098F8AC0001280AD0022833D198F86701A97A88422EDBE97A1F
:20267C00884205DA2AE098F86701A97A884225DB03990298019B009A06F01EF81ED25146A7
:20269C00204606F019F819D22879FB1109EB401407EB1367381209F0E6F902460B4604F1B5
:2026BC00080003C800F0F9FB04F1080787E80300287909EB40118869401C8861761E05F12B
:2026DC000C05A1D100252BE009EB4514A06909F023FE02460B4604F1100003C802F06CF9FB
:2026FC0004F1100787E8030098F8AD006D1C4EE008EBC501B1F8B610680109EB000429F8A2
:20271C000010A06909F008FE02460B4604F1080003C802F051F96D1C04F1080787E80300E9
:20273C0098F8AD00A842E3D8B8F86401D8F860510026411026E02868B0F1FF3F20D0F8B180
:20275C002979C71100EB176009EB4114001209F08AF904F108020CCA00F09AFB0B460246B7
:20277C0003F010FA02460B4604F1100003C800F094FB04F1100787E80300B8F86401411074
:20279C00761C0C35B142D6D898F8AD000025A8429AD805B0BDE8F08F000000000000594079
:2027BC00A82800202DE9F04F8246ADF11C0D00F0AFFE5D48007807F0D9FC5C4D00240128AD
:2027DC0007D90C3805D0401E0FD0401E012809D906E009F05FFF022804BF01210C1C06D0F4
:2027FC00296806E005211F2401E003210724284601604F4AD068C0F38150012804D1126811
:20281C000120120E904004430AF050F9DFF828B1DFF82081FF2240185B46401E471CC8F83E
:20283C0000007F1E03F8012BFBD1DAF80020002702F0FF03FE2B1CD0D4463B46012602F016
:20285C00FF05FF2D0ED0A84205D3A94203D806FA05F52C4201D0022062E002F0FF022F43C4
:20287C000BF802305CF8042F5B1C02F0FF05FE2DE7D1092004F07EF93048C0F800A038484C
:20289C00012109F08DF9374D00264FF00109B04609FA06F0044214D1074207BF06F0FF0169
:2028BC0041F4C0411BF806005AF82010244803F0E7F9F0B24FF0FF3109F0AEFCC5F80080FB
:2028DC0001E0042028601B480068761C2D1D8642DED904A80AF0D2F81A4C20781B4A0590C1
:2028FC001948102104AB08F0DBFA68460AF0F6F86068184902901648CDF80C806A4608F006
:20291C00C1FB154951F80D0C20F4F85040F4005041F80D0C114AC1F8FF9F4046C2F800906B
:20293C0007B0BDE8F08FC0460144002044370020A84F00504037002084420020EC43002087
:20295C00007FC767D40201001843002069C50000F8410020A9AB00000D3009402C00094086
:20297C00344300207C4100202DE9F04F6A4DA869ADF5A27D07784D902020BB46B0FBF7F0BA
:20299C0084B24D98654E4778902206F1200168464E9705F07FF9902224A806F1B00105F0A9
:2029BC0079F9022C6FDB641E284601274B94D0F820904C9708274E9800285AD0BE004C98B6
:2029DC004C9DDDF838814896401E0BFB00F00026800149900BFB05F080014A904D99300145
:2029FC004968489B499A0C5C401845784A9903EB841083184B44B3F9822040184844B0F95D
:202A1C0082C0B3F98030B0F98010604602F0B4FE0FFA80FA4A9A48988018484400EB85138B
:202A3C0000EB8411B1F98200B3F98220B1F98010B3F9803002F0A0FE00B263004F9003EB78
:202A5C008400401981006846641B48BF644214FB0AF20D584F9C92FBFBF3EA1824AD12194E
:202A7C000A504859761CB8F1010800F101004851B4D17F1C102F9EDB4C984B9F401C4C9092
:202A9C00781E4B9096D1BBF1000F14D05B4600220DEB02000DEB02015F46903050F804CB6F
:202ABC000C687F1E94FBFCFC41F804CBF6D15B1E02F11802ECD118484E9FC16937B30022CD
:202ADC0018234D98406815014419405D657810FB03F000EB85005DF8006094F9085094F990
:202AFC000900D4ED030A06FB050000EE100AB8EEC00A20EE800ABDEEC00A4E6810EE104A4A
:202B1C007F1E26F8124002F10102DAD1012051B08873BDE8F08FC04600340020B4FB0000A1
:202B3C00F0B56C4CB4F8035206460027ADF13C0D05F0200005F01005054371D0002E33D1E7
:202B5C00D4F8E0C1CD789CF8AD00A84215D004F5F6752868012700283AD00AF069FA02905A
:202B7C000AF062FA0390286809F00CFE0020286003980AF055FA029828E03846854207DC67
:202B9C0037BB04F5F47005C8694681E805001FE0DCF8B0304200D35A8A18B2F80B20934272
:202BBC0018BF0127401CE9E704F5F675286878B10AF03EFA04900AF037FA0590286809F0A2
:202BDC00E1FD05982F600AF02BFA04980AF024FA04F5F875686880B10AF02AFA06900AF0E7
:202BFC0023FA0790686809F0CDFD0020686007980AF016FA06980AF00FFA286880B10AF085
:202C1C0017FA08900AF010FA0990286809F0BAFD0020286009980AF003FA08980AF0FCF943
:202C3C00D4F8E00106F0DBF9D4F8E011D1F8B00004F16805D0B10AF0FBF90A900AF0F4F979
:202C5C000B90D5F87801D0F8B00009F09BFDD5F878110020C1F8B0000B980AF0E1F90A9876
:202C7C000AF0DAF9D4F8E01104F16805D1F86001B0B10AF0DDF90C900AF0D6F90D90D5F822
:202C9C007801D0F8600109F07DFDD5F878110020C1F860010D980AF0C3F90C980AF0BCF9C5
:202CBC0005F1080000214FF4C87205F013FF56EA07000DD1B4F8030200F0200100F010006E
:202CDC00084305D0684603C805F5C07585E803000FB0F0BDB82600202DE9F0470025011CA7
:202CFC00ADF1380D8DF8345000F0C880DFF894810746D8F8000010B12846FFF711FFB7F8A7
:202D1C0001004110880000EBC10080B208F0F8FB0028019000F0B280B7F801603878ADF8B4
:202D3C0008603C798DF800007B798DF82840FA888DF829305449ADF82A20FE780991700088
:202D5C0008F0DEFB059080B90AF072F90B900AF06BF90C90019809F015FD0C9801950AF0E6
:202D7C005FF90B980AF058F988E0FA782946474E8DF8182006E04A00BB18B3F80B30491C08
:202D9C008352FA788A42F6DCB7F80100ADF81E0001248DF81A404FF0080AADF81CA068465B
:202DBC00FFF704F90028C6F8E0015FD008F0A6FF07F108021746398806F5F2700180BB7840
:202DDC008370B6F8030206F1680900F0200100F010070F433BD0D6F8E00190F8AD0040012F
:202DFC00074608F08DFBC6F8F401384608F088FBC6F8F001D6F8EC0150B909F5C07029462E
:202E1C00524605F067FE384608F07AFBC6F8EC01D6F8F40188B1D6F8F01171B1D6F8EC1156
:202E3C0059B129463A4605F055FED6F8F00129463A4605F04FFE284604E020462946FFF728
:202E5C006FFE20468DF8340040462330008800EAA00080090CD396F80202400838BF86F828
:202E7C00F94105D3284604F033FA01E08DF83440112003210DAA234605F08AF80EB0BDE86C
:202E9C00F087C0469828002017CD0000B82600202DE9FC4F83F0004301E02DE9FC4F1F035C
:202EBC00FF0847EAD2574FEA42284FEA43095FEA595906D147EA080A1CBF00210020BDE897
:202EDC00FC8F57F000575FF4E06E1EF1FF0EF14505D14FF00000190D0905BDE8FC8F002B16
:202EFC0005D55FF0000AD8F100086AEB07070C03E40844EAD0544FEA40254FEA4106760D61
:202F1C0008D144EA050A19BF00210020191C101CBDE8FC8F44F00054764504D10020090D87
:202F3C000905BDE8FC8F002904D55FF0000A6D426AEB0404B6EB090E08D5A2463C46574634
:202F5C00AA464546D046CEF1000E4E46BEF1360F5CBF4FF0000B23E0BEF1000F04BF4FF047
:202F7C00000B1AE0CEF1390ABAF120092EBF08FA09FB07FA0AFB4BEA080BDEF1200A07FA1F
:202F9C000AFA38BFBA4647FA0EF72DBF28FA0EF8AEF1200E4AFA0EF8D04415EB08057C41CB
:202FBC0054EA050A02BF00210020BDE8FC8F002C58BF4FF0000A06D55FF0010A5FF0000E58
:202FDC006D426EEB0404A6F101066D006441FAD515F4806E11D005F480794BEA090B15F529
:202FFC00806554F1000428BF761C0BD205F400795BEA090B08BF25F4006525F4E0656D0056
:20301C0044EB0404B61CDEBF00210020BDE8FC8F5FF4E06E1EF1FF0E76450AD34FF00000E9
:20303C0013F00043FF21C900C91D09051943BDE8FC8F270547EA1530210B41EA065141EA4A
:20305C00CA71BDE8FC8F704701282DE9F84F40F0B880DFF89491D9F8D400012840F0AE801C
:20307C000220C9F8D40009F07FFA012008F0BCF95FEA000805D00120C9F8D40009F082FAEC
:20309C00A1E009F097FE0090112009F0C7FD00280CBF00250125102009F0C0FD08B145F075
:2030BC0002050F2009F0BAFD08B145F00405474CA06A0068014601208847012805D099F84C
:2030DC00D800012818BF002703D1002002F05CFC012709F09DFDDFF8F8A040080AD2002623
:2030FC00206A80680146504688478346BBF1040FF6D000E00126304600214FF0FF3200F04A
:20311C003BFF012E0ED0BBF1010F05D1206A4068012102465046904734496C39086840F0EF
:20313C0003000860206840690146284688470B2009F074FD274E30B12068C06A3146091D19
:20315C000246088890470A2009F068FD28B12068C06A31460246088890471F4903200126B9
:20317C00C9F8D4001D4B0E6000221A602068406B0146284688470128F8D1194C2068042072
:20319C0008F032F90546174806602068012F02D1304602F0F9FB09F023FD082008F024F9A3
:2031BC0007460098C9F8D46009F03AFF09F0EAF957EA050018BF4FF0FF3804E06FF0040829
:2031DC0001E06FF001084046BDE8F88FB801001000400340CAFE000028200860800104434C
:2031FC002C2009400C400940282E0020902208402DE9FF415F4C04F170010868002588464F
:20321C000028074650D0D4F88400002851D1D4F8800000284FD0D4F8801038690969884297
:20323C0003D197F83300400931D2019502A8012101AA05F031F900283BD0029911BB4E4834
:20325C000668002E35D0D4F88000D4F8841008F108034246B047022807D0012829D101203D
:20327C00009001992B46084605E001230093D4F88000D4F880100069B1F930102A4601F051
:20329C0037FC16E004F1900009F0E8FA11E0D4F88000C06840880028F9D0D4F88000C068F7
:2032BC0040880128F3D006E004F58070022109F085FD002D5BD060683969884251D12946B4
:2032DC0003A80A4605F0E8F858B1039848B1D4F8800030B9D4F8840018B9082008F014F8E3
:2032FC0045E0082009F078F997F8330004F58075C0F3001028B9404608F02CFFC4F88000C2
:20331C0004E0404608F026FFC4F88400B8691B49C0430860B8694A6810434860F869C043A8
:20333C0041F8080CF86951F8042C104341F8040CF868044608F036FE2088A0F6020040B1A7
:20335C0041F21E01401A04D041F6E671401A012803D80120214608F05BFE4FF0804128469E
:20337C0003E004F580704FF4806109F027FD0090BDE8FF81E0370020E002010010100440F1
:20339C00F8B5074661485F4C001DC26A0168B7F5C067C2F30722C4F8B070C1F38441C4F84F
:2033BC00B420C069C4F8B810C0F38120C4F8C80000F0A38094F8D0606EB9C4F8CC70D4F8DE
:2033DC00B800C4F8C000D4F8B460C4F8BC60D4F8C850C4F8C450D4F8CC00D4F8B4500028A1
:2033FC0054BF02236FF0010304F1C002116800EB4000C018431000EB937001EBA0011160A4
:20341C00D4F8C010C4F8BC5000291CDD1E293DDDD4F8C40030B93429B4BF15391E21C4F817
:20343C00C01025E02A29BABFD4F8C0000B381E20C4F8C000D4F8BC003E28D4BF401C3F200A
:20345C00C4F8BC001FE0D4F8C400032812D011F10A0FA6BFD4F8C0000B300120C4F8C00058
:20347C00D4F8BC000028CCBF401E0020C4F8BC00032009E011F1140FA6BFD4F8C000153098
:20349C000120C4F8C0000020C4F8C4004FF08057D7F8A401B4F8BC101B4D40684FF47F42BD
:2034BC0008230646009128463021B047D7F8A40101214FF400321123406800910646042149
:2034DC002846B047D7F8A401B4F8C01040684FF4F80212230646009104212846B047D7F82B
:2034FC00A401B4F8C41040684FF440620A230446009120212846A047F8BD002084F8D0003F
:20351C00F8BDC046282E002000A00C4000A00C4055482DE9F043006842F21072ADF1140DC3
:20353C00B0FBF2F1514340F2AB22401A824200F29680594C94F8E200002840F08E804B481C
:20355C004B4E4FF00108027B3368416884F8E280814684F8E120C3F38147C4F80C1197B9E4
:20357C00D9F8100078B1434856F8083C02686421C3F306604143B1FBF2F23F49002304F149
:20359C00540006F017FF01A809F084FB00252F4604F10C00029501AB8DF80470374903959F
:2035BC003A4606F007FF01A809F074FB04F130000822029501AB8DF804703149039506F0CF
:2035DC00F9FE304A04F1780032213B4607F068FC2E4A2D4F04F194002C212B463D6007F0F3
:2035FC005FFC2B4899F80D3000783068C0F381501BB1032803D184F8D98003281FD002289B
:20361C001DD001281BD14FF08059D9F8A401214C406803214FF040521C2307460091294668
:20363C002046B847D9F8A401406829464FF4007209230746CDF800802046B84706E038681E
:20365C0040F040003860022008F0D6F856F8040CC00802D2284608F0CFF8002000E0FEE752
:20367C0005B0BDE8F083C0461C140050F4010100B44F0050F0430020D5C900000B4B00004B
:20369C0029A90000D5BE000090220840B98D00000144002000A00C40282E00202DE9F84351
:2036BC005F4CDFF868815B4DD4F8DC0000286ED0574E401E0AD0401E60D0401E1CD0401EBA
:2036DC0053D0401E1AD0401E33D02FE04E4801250221006884F8DA50702204234068009114
:2036FC00002107464046B847356004F1300009F047FB2846BDE8F883022100E003214FF0D2
:20371C008059D9F8A40184F8DA1040680025702204232946074600954046B847D9F8A40106
:20373C00C0687022294613460125DAE70320BDE8F88300262E606E6028688008FCD2686889
:20375C008008FCD2374834490127001D06600E200F6003F047F9022008F036F8C4F8DC6040
:20377C0084F8DB600220BDE8F8830520C4F8DC000027376030688008FCD242E00320C4F8CA
:20379C00DC000027376030688008FCD239E0234F01260F202E6042F62A21C7F80B004FF08A
:2037BC008059C7F80F10D9F8A40140684FF4C072072302218446404600910021E047D9F85C
:2037DC00A401C06800214FF4C072072384464046E0472E6028688008FCD394F8D900C7F830
:2037FC001B6018B9032100200E4602E0002028630321C4F8DC6047F8011C686068688008A4
:20381C00FCD20020BDE8F883A401001000A00C4058600C4054600C4004800C4001400C407C
:20383C00282E002038500C402DE9FE4F064693460868DBF8004007784FF000081D46C246E6
:20385C00242F00F1010008602AD10778401C532F086025D1E41C24F00304241D54F8040C31
:20387C00E861CBF80040288B0090A968EA6930685B4609F0B9FB8246306838B1A868504565
:20389C00D8BFA0F1010A306850443060DBF80040286846464FF00108EE60A0EB0A0028603B
:2038BC00662F06D0B8F1000F6CD1E8690770012067E0288B012808D0E41D24F0070408344C
:2038DC00A4F1080090E800030EE0E41C24F00304241D54F8040C01909DED010A10EE100AD0
:2038FC0007F0BAFD804689462BA20CCA4946404604F0E2FE28BF002705D2286989F00049A5
:20391C000127401E286126A20CCA4946404604F016FF33D3404607F089F8064608F0A3F8DD
:20393C000B46024649464046FFF7B2FA1EA20CCA02F028F907F090F90146686904220A2387
:20395C0005F0B2FD411EE9612E2300F8013C6B692A69E86931461B1AEB60D21A0A2305F0BB
:20397C00A3FD002F08BFE86105D0411EE9612D2700F8017CE8696969081A02E004A0E861F1
:20399C000720E860CBF800405046BDE8FE8FC046286572726F722900000000000000000050
:2039BC000000C0FFFFFFDF41000000000088C340F0B54D484B4908604C48ADF1140DFEF705
:2039DC00F1FE4FF08055D5F8D801494C036801210A4620469847D5F8D80142680121204693
:2039FC009047022007F008FF032007F005FF41484149016000258560C560856105624562FF
:203A1C00C5613E4941603E4901613E4941612846FCF784FD06F0D0FA07F016FB012640F227
:203A3C001510ADF800003849ADF8086005208DF80A000A680DF102000260898881803348FD
:203A5C00334C0390201D07F05FFE4FF42F70A0804FF0FF30A060E060C820E0804FF4E1206B
:203A7C00E06200F01DF92B4F042107F13400436823B1491E00F10800F9D103E019210170E0
:203A9C00254B436008F0A0FA592187F82E10802187F82F1008F0AEFF20482349039F206034
:203ABC009DF80A308F66BDF8082081F80732BDF80040A1F805220DF10207A1F803423A685B
:203ADC0001F502731A60B88898801548154906604FF00050086007F05DFA09F081FA284645
:203AFC0005B0F0BD2C37002021AB0000E0010100004003405C42002039050000FDAC0000EF
:203B1C00558C0000458D0000E812005027CD000040340020C43200209D9200000FCD0000E3
:203B3C00741A444290200240B82600202DE9F84F5A4C4FF6DF760025A6F1600808F1700734
:203B5C002C3C07F10809A06A4FF0FF3109F044FA0028F8D0A088400A01D306F031FB08F0D8
:203B7C0033FAE1882389E580A2882581114343EA0102A28008F03EFFA188080A04D308EAD3
:203B9C00010021F08001A080C80907D3606A08F0A5FDA188656221F04001A180480921D39F
:203BBC00E26909F023F8C0B9104609F025FA28B994F90030002B03D4E0690BE094F9003012
:203BDC00A18801F02000034307D1606909F014FA10B9606903F0C8FAA18807EA010021F02E
:203BFC001001A08088092BD394F90000002827DC08F0EAF98346206A08F018FD8246584690
:203C1C0008F0F8FEBAF1000F0BD0504608F0DCF820B994F90000401C207002E0504609F0E0
:203C3C00BFF8A0883040A080206A09F0E5F930B9A08840F02000A080A06A09F0C9F9A18829
:203C5C00080980D394F9000000287FF47CAF08F0BBF98346A06908F0E9FC8246584608F0D8
:203C7C00C9FEBAF1000F06D0504608F0ADF810B1504609F095F8A08809EA0000A080A0697D
:203C9C0009F0BAF900287FF45EAFA08840F00800A080A06A09F09CF955E7C046F032002018
:203CBC002DE9F043514C6078ADF17C0D002840F09A80012060700026A680314666620A46C5
:203CDC00104609F081F9A0623146084609F078F960613146084609F073F9A061314608461D
:203CFC0009F06EF920623146084609F069F9404DE061AF680197EB6802932A7C8DF80C20EA
:203D1C00697C8DF80D10E888ADF8000005F114008CC804A98CC18CC88CC10DC881E80D00A7
:203D3C0034480D90344F0E9708F04EF9334F0DA906C9804607F1140080E80600BDF80000EB
:203D5C00388008F0BDFBB8603A88B868314604F0C1FEBDF8000008F0B3FBF8603A88F868E6
:203D7C00314604F0B7FE264F26489DF80D90B86006F050FF2448254B079004A9089348464C
:203D9C0007F02EF820213246786008F097FF08F01BF98146802278683E8007F10C0108F0BB
:203DBC0092FF484608F026FE404608F023FE04F134003146202204F08DFE0FA831463C2220
:203DDC00082309F0F9F8A88808F07AFB206150B11690A88802270FA9324617900C481597BD
:203DFC0009F0E6F8E0601FB0BDE8F083C432002040340020E1C600005D61000048360020FC
:203E1C0050310020F5C10000754D0000D5C10000493B00002DE9FF4107467D68BE680C4653
:203E3C0008F0B4FF2978012903D109F0F5F8002091E00121297009F0EFF8207868706078C2
:203E5C00A87060686860A068A860E068E86020692861207D2875607D6875A07DA875A069B5
:203E7C00A861207F2877607F4FF0000843466877A07F2B63C5F82080A8771C466C626C6329
:203E9C00AC62AC6385F82C4085F82D4085F8284185F82941706802F06DFE384603F008F9A2
:203EBC00384602F0E9FF78B92C480068C068014630688847706802F095FD08F067FF2C7055
:203EDC0009F0AAF8274645E0684608F0D7FD327B05F17C00B1680192214A00976B4606F0AB
:203EFC00DFFF684608F0FAFD316902911D49009705F198006A4607F0C5F8A87830B905F110
:203F1C00CC00214607F04CFE17482861687830B905F1E800214607F043FE1448E860684691
:203F3C0008F0B8FE01948DF8004005F58270104902970A226B4606F03DFAB169F26905F10A
:203F5C003C0008F060FD0B4A05F1680004213B4607F04EFF38460090BDE8FF81D001001003
:203F7C003D420000099A00003FCD000037CD000091AA000059CB00002DE9F04782464748F0
:203F9C004B4C006888461746810D25D2051704F134000068006880476D1CC0F13E0110F100
:203FBC00020F4FEAE101D8BF07218D42B8BF0D1C3B480068C0F30320401B102803DA002832
:203FDC00D8BF012000E00F20364900F00F0040F0F00081F84D000878002633482568DFF815
:203FFC00CC900660A969D9F8000027208847324D304805F1140211682B460840106003F151
:20401C005C00006820F48070E8652068016B4FF4806088472068016B4FF48160884720681A
:20403C00016B4FF4C0608847244901200860C5F86481234B1860234850F80C1C890805D205
:20405C00B7F1FF3F08BF4FF040473E460660D9F8000028688008FCD32068416B0720884705
:20407C000228F9D1BAF1010F13D0206A164E8168304688470428F8D0012804D1206A426850
:20409C00032130469047D5F8FC0120F00300C5F8FC012068806B8047BDE8F087B44F005053
:2040BC000C1300500D6208400C4009402C200940B8010010FFFFFEFE282008402820086091
:2040DC00800104431C000940004003402DE9F04305462878ADF12C0D401E00F08480401E59
:2040FC0009D0401E40F082804B480088C0097DD2FCF7ACFE7AE068680028074600F08980D3
:20411C0097F90800DFF814817F2820DA10F17F0F1DDD98F80F1298F90E2298F80262C1F13D
:20413C00100313FB02F200FB0120001188F80E0230090CD397F908008DF80000787A012148
:20415C006A4602238DF80100832003F021FF98F80202C146810839D3D9F8E041002C35D0DF
:20417C003978012942D099F8E611012928D194F8AC602EB3022E23D099F8FA61012E05D1FE
:20419C0099F9E41199F90E22914219DD98F90E2298F9E4110EB9914207DB491F914215DD01
:2041BC00012E13D10024012001E00124204602468DF80040694607F037FB89F8FA4103E09B
:2041DC007A68214602F0F8FD98F80202B9F803120840C0080AD3387840B997F90800797A18
:2041FC00FCF7F8FF02E06868FBF71AFF686880B108F01EFF019008F017FF0290686808F0ED
:20421C00C1FA00206860029808F00AFF019808F003FF0BB0BDE8F083BB280020B8260020DD
:20423C002DE9F0478046D8F808603068076CD8F8045047646A6CA96B286C17F4F06FA0EBCA
:20425C00020937D1F8091FD2780979D3B9B196F82100464A145C601E814294BF0C1C641E19
:20427C004046214607F0DCF8A86B001BA863A86B002865D105F19800012108F09FFD4046F6
:20429C00494607F0C1F95BE00029F8D0404607F0C7F8014695F82D00A96318B9A86B002841
:2042BC004ED101E00020A86305F19800012108F085FD45E0F80A21D24FF0000A544603E0AD
:2042DC00A86B401EA863A96B91B14046012107F0A7F83068446814F00F04C0F804A0EFD03C
:2042FC00296BAB6B686B491E2963401E6863EBB905F19800012108F061FD13E03068446828
:20431C000022202904F00F044260CCBF4FF0200A8A464046514607F083F8CAF12000814579
:20433C00C8BF81464946404607F06EF9EC77404606F054F9706A18B10246214640469047C5
:20435C00B80910D3AF6A77B14046394607F0BCF8A862AD6A3DB996F820000549095C4046AE
:20437C00C91906F0ADF9BDE8F087C04604030100100301002DE9F0470646880FC0F08F8076
:20439C00002005F0C5FB474808F098FB464C40F60A09A4F8009000256580207B05F00F0161
:2043BC0020F00F00014321736560607B4FF0010808F00F0720F00F0047EA00013046617359
:2043DC0000F062FDD6F808A04A462146D01F574600F1010C00E027467C6834B123889A42DE
:2043FC0003D0984218BF9C45F5D179607A7B2F4C05F00F0322F00F0213437B73236F33B149
:20441C00DA681288904224D06046904221D0338E03B3756306F13002558096F83C0005F069
:20443C000F0320F00F00034386F83C3096F83D0008F00F0320F00F00034386F83D304A6030
:20445C00487B05F00F0620F00F0046EA00054D7300E0A56008F06AFA1548A06194F8210013
:20447C0080B91448006801684046884701280FD0787B08F00F0120F00F00014379730E4EB7
:20449C00A66105E006F04CFC0028FBD006F062FA504608F013FB5146404607F0B9FDBDE886
:2044BC00F087C04601010E04A4430020E0370020D5090000E0010010259F0000FEB5504C2F
:2044DC004FF480300025104015EA03066768226008BF002878D1B4F85C004FF4006115EA1C
:2044FC00030701EA020108BF00293FD14FF4003115EA030701EA020108BF00297ED094F873
:20451C00F210022920D194F85F1002291CD1B4F85810B4F85A00401A00B2002844BF40427B
:20453C0000B2B4F8F020B4F8AE70091889B2A4F85810B2FBF7F111FB00F080B206F0C0FD51
:20455C0084F85F50B4F85C00002857D0B4F8AE10B4F8F020B2FBF1F181424FD006F0B0FD83
:20457C00B4F85800401CA4F85800FEBD18B1401E80B2A4F85C0094F8F20030F0010020D030
:20459C00D4F82C01C068E8B1B0F1FF3F1AD0E06E86B2000C019001A806F00AFFB04211D1DD
:2045BC00BDF80400BDF80410A4F85A00B4F85800884204DBBDF80410814203DB01E0022548
:2045DC0000E00125012015E0C7B194F8F260B4F85800012E00F1010085B2A4F8585006D1D6
:2045FC000095684606F0E4FE00EB0540A066B8470125284684F85F5006F062FDFEBDC0467A
:20461C00F02C00202DE9F04F4D4C94F833800C2018FB0040B0F84C7041F6F076ADF1140DD6
:20463C0004F1300B381F864212D286423D4610D2404629466A46002301F024F9BDF80E1055
:20465C00BDF80C00401A85B2281F8642F0D300E00425E27808F101017F1B91FBF2F08946E5
:20467C005043081ABAB2C0B22946064605F028F97C21304607F03CFA4FF0000AB00000EB96
:20469C00C600584480F819A007F11003838384F83360808B0221E086304607F0ADFD20F090
:2046BC00030002210246304607F026FF94F8300002282EDD042D2CD03046782107F018FAA8
:2046DC00E0782F1F761CBAB296FBF0F14143761AF6B20421304605F0F3F87C21304607F067
:2046FC0007FAB00000EBC600584480F819A005F10C07878384F83360808B0221E086304643
:20471C0007F07AFD20F0030002210246304607F0F3FE404602F090FA617808436070E178E4
:20473C0084F8328099FBF1F04843A9EB0000FE2184F83100404607F0DBF905B0BDE8F08FA5
:20475C00643200202DE9FC4706467568D6F808802F780FB1AF6B1FB14FF0FF30BDE8FC87C8
:20477C0029630024EC77171C6C631BD005F13C0908F00CFB82466946484606F0F1FA0028D5
:20479C0020D4504608F048FC9DF80000296B0870686B296B7F1E00F10100686301F10101E1
:2047BC002963E5D169786A6B286B0129A0EB0200286305D1E868296B0346304698476A6BE3
:2047DC00144659E0AF63D8F80010086B40F400700863D8F80010886B40F4FA6088635046D4
:2047FC0008F01AFC05F5947007F0B6FD687805F5947768BB08F0CAFA95F82D1069B1696B6B
:20481C0059B1A96B49B1AC6308F006FC05F5947007F092FD686BBDE8FC8708F0FDFB69681B
:20483C0005F1E806304608F0F7F80028F2D0AC633046214608F0F0F80028EBD0384607F00D
:20485C007BFD1022696B286BEA77401A2863E1E708F09CFA95F82D1061B1696B51B1A96BC9
:20487C0041B1AC6308F0D8FB05F19800012108F0A5FA01E008F0D0FB2046BDE8FC87704720
:20489C002DE9F04F05468846ADF1140D1C46D5F808B00E990092DBF80400019108EB04014E
:2048BC00884238BF6FF003047BD3404E30684FF0FF3108F0B1F83E48019F01684FF000095A
:2048DC0078081CD23846CDF80C90800827D334B33046DBF800200099066823464244491E40
:2048FC00521E11F8010F12F8015F054085421CBF6FF00604301C52D15B1EF2D10FE034EAA1
:20491C00010701EA040202D02A480068121801EA0801284605F016FA002803903CD1DBF8AA
:20493C00005006F05FF827464544DDF800A0029002E0BF1BB244AD1997B1082F8CBF082651
:20495C003E1C08F023FA049029463246504607F08DFD8146049808F05FFBB9F1000FE8D014
:20497C00029807F0BDFAB9F1000F12D10198C00812D38CB1DBF8000000994044491E401EFF
:20499C0010F8012F11F8013F9A4202D1641EF7D102E04FF0FF3003900448039C006808F053
:2049BC0005FA204605B0BDE8F08FC046B8430020C0430020BC4300202DE9FC4191EA030861
:2049DC004CBF4FF000484FF000084FEA03354FEA153556006D414FEA43075FEA575711BFA0
:2049FC0045F4001500210020BDE8FC814FF4E06E1EF1FF0E77456FD04FEA01334FEA133356
:204A1C0042005B414FEA4104640D11BF43F4001300210020BDE8FC8174455DD0E41B00212A
:204A3C0000205FF0360EAB4200D1B24205D340414941921B63EB050301E040414941BEF174
:204A5C00010E05D053EA020702D052005B41EAE7BEF1200F09D2BEF1160F0CD3CEF120072D
:204A7C0020FA07F100FA0EF00FE0AEF1200E00FA0EF1002009E001FA0EF1CEF1200720FA58
:204A9C0007F741EA070100FA0EF011F4001F02D140004941641E401C51F1000111F4800F5B
:204ABC001ABF641C21F4800121F400114FF44077FF37E419DEBF00210020BDE8FC8107F59C
:204ADC008067BC4208D249084FEA300041EA045141EA0801BDE8FC810020FF214FEAC10130
:204AFC00C91D4FEA015141EA0801BDE8FC8170472DE9FE4F0CAF1D468B465FEA02083E78C1
:204B1C00009014BF4FF080494FF0005908F03EF90324DFF800A10190BBF1FF3F14D15246B0
:204B3C000098D2F8801007F0D1FF50B9D2F88410009807F0CBFF00280CBF176FD2F88470A9
:204B5C0008E0D2F8807005E000985946002206F0E5F90746002F56D097F8330030F07F0082
:204B7C0050D05446D4F88000B84217D0D4F88400B84213D000982A463346394603F0E6FA32
:204B9C0000283FD0207D01283AD0207D042837D0214904F5807008F011F931E0D4F8800070
:204BBC004B46002206F0D8F9D4F884004B46002206F0D2F9B8F1000F14BF1848184807F059
:204BDC00F1F9B6B1D4F8800000224FF0807306F0C3F9D4F8840000224FF0807306F0BCF9C7
:204BFC003869C4F8F80094F8FC0040F0010084F8FC002DB1216F00982A46334603F0A6FA91
:204C1C00832400E00424019808F006FA2046BDE8FE8FC046E037002002000040010002041A
:204C3C0001000104464A2DE9F04178CAADF1280D02A978C11CCA81E81C00434E414CD6F82B
:204C5C0026100025E161D6F82A106585012884F820104FEA112284F821204FEA114184F8A4
:204C7C0022102BD094F8340005F00F0120F00F00014384F83410378C606A29462163A7B12B
:204C9C0040F6C41101FB07F2824209D394F8230020F00F0040F0040084F82300642001E052
:204CBC0001FB17006062014629E094F8230020F00F0040F0010084F823001FE094F8340056
:204CDC0020F00F0040F0020084F83400D6F822002063308C38B994F82320294622F00F0236
:204CFC0042F0010208E094F8232040F6C411414322F00F0242F0040284F8232061620591AA
:204D1C0008F096F98046114FB07F124BF870104829468DE80300606802AA04F12801FDF711
:204D3C0051FA2080404608F077F9B4F9000000284CBF02200120B8700AB0BDE8F081C0465D
:204D5C0078010100B82B0020783400200C18002002008080057700002DE9F84F164607F07C
:204D7C0033F9474D009047482F88B0F8009080465EB3B819814538BFA9EB07067FB905F115
:204D9C000C0BD8F808009BF800100446FE2916D1F3190BF10101721E5B1E9A4609E0D8F861
:204DBC00080005F10C0B05F10C01324607EB060A0446C01902F06EFF1FFA8AF72F805846DC
:204DDC000021324603F086FE03E0D8F8084005F10C0B4FF0000A2CE06078217801EB0021CC
:204DFC00091D88B2514604469047641CA1B22F88D8F8084008F108038F420ADD60187A1A15
:204E1C00401E10F8016FFE2E03D0521E01F10101F7D1B94203D07F1A7F1EBFB200E0574683
:204E3C00091918682F803A46491C02F033FFB8F800906078267806EB0026701D81450EDBF3
:204E5C00B8420ADC301D81B2204607F02FFC36193179814203D1504604E0032002E0A5F8A2
:204E7C0000A00420AA6808B9002AB5D168685946802207F028FF009807F0BCFDBDE8F88F2C
:204E9C0050310020483600200246F0B50020ADF1140D044607460190537D0294434803943B
:204EBC000068049400F44020B0F5802F04D140480068800C38BF0127906844800188A1F6E2
:204EDC000201C9B141F21E05491B15D041F6E675491B012920D8417E012B64F38201417606
:204EFC0006D0018B21F47C7141F43471018313E0018B64F30911F9E7417C012B64F3820141
:204F1C00417405D0018A21F47C7141F4347102E0018A64F309110182547504A903AB02AA53
:204F3C00009101A900F016FB50B1019800884FF6FF71814204D10298049904F0D9F903E0CA
:204F5C000298049904F012F86FB3029850B30B214FF6FF72502306F023FF0546502D22DA10
:204F7C004FF08057D7F8EC010068804706F05CF90646D7F8E001C1683046884702990D4F68
:204F9C00000440F00B0041F825003988204601F00C02042A01D1C90B00D220B1304604F051
:204FBC005DFC00E0FEE705B0F0BDC046B44F00508C13005000A00C402DE9F04F8146474D71
:204FDC0099F80000ADF1140D401E6ED0401E02D0C01E73D074E04248D9F80440007808B154
:204FFC0005F05CFE28464FF0000B80F802B004F10A052268A788667AA079D4F80FA00190A2
:20501C00384C0395207A029605284ADA0126A046304607F08DF8032803D0761C052EF7DB41
:20503C003FE0701EC0B2840108EB04050835AA6004F048FB4CF25031AF81401868630C2FE9
:20505C00A8632EDBB7F5C85F2BDC019844444FF4207108345A23C4F840A0029A207491FB40
:20507C00F7F06B82401C1FFA80F862753046414603F0FCF808F10103A07D0399607513FBFF
:20509C0007F0E8810A6804F117073A6009793971E07E00F01F00E076304600F025F800B94A
:2050BC00B3460E4880F801B00AE0D9F804000078012814BF00200120287001E006F0BAFFC0
:2050DC0007F0B6FF0090D9F8040007F05BFB009807F0A2FF05B0BDE8F08FC046A81F002060
:2050FC00A91F0020382F00202DE9FC418DF800009DF8000007F01CF8012528B19DF8000019
:20511C0007F016F8032871D13E4C9DF8000004EB8010A0F1340628380178102907DC052975
:20513C0005DB4088B0F5077F01DC282802DA0420BDE8FC8107F06EFB2E48DFF8C4C0417847
:20515C00012912D1C27881788A4207DD9DF8003099420ADC9DF80010914206DC0078614644
:20517C006F461C314018397801702348737C7768D6F834807289D6F83CE00078032835D04F
:20519C00252B03D0262B18BF272B02D11B49B9422CD16146C1F82670CB77C1F822804FF64F
:2051BC000127C1F82AE0974220DD0A84012818BF02281BD1032000F059FEB8B99DF80000FE
:2051DC0006F0B6FF032810D1207A04280DDA9DF8000030709DF80010207A2F46401C207278
:2051FC0007FA01F061780843607000252846BDE8FC81C04678000100F0360020D6BE898E88
:20521C0078340020382F00202DE9F843434CA06FA56F04F1780900287ED00646F06840F656
:20523C0003020827531C02E040687F1EFFB260B15FB101888A4218BF8B42F5D131694CC849
:20525C0030314CC189C881E8890005F1280090E80C00002705F12806B84686E88001A96896
:20527C0079B13E464FF0E24006EA020110EA03070EBF002932400340B5F93010AE682869CC
:20529C00B04707F083FD0646B4F98E00401C6FF31F30A4F88E006FF0020785F833804846A0
:2052BC002F8606F057FF304607F0B6FEB4F98C00B4F98E1088422FD16068D4F8D860D4F8CA
:2052DC00DC7090F8A41000290CBF0520072003F079FA40462EB196F8A45005B9306886F8C9
:2052FC00A48041462FB197F8A46006B9396887F8A480814238BF011C61B1B1F1FF3F0BD0CD
:20531C00074A126804F1B400B1FBF2F107F0A6FABDE8F88307F044F9BDE8F883E03700202C
:20533C00F04300202DE9F047434C407A2378E178A268A67865680E3877D0DFF800A1401E1C
:20535C0060D0401E13D0401E0DD0401E05D0401E6FD1032B6DD1012063E0022E69D1032B4C
:20537C005ED0BDE8F087032B63D1002060E007F05FFE814607F058FE554680462868016843
:20539C00084607F027FD002834D00079032831D1084607F01FFD00F108010E78407A0830E3
:2053BC00C7B2B00924BF7F1CFFB204F11C003A4602F070FC383DA86B056807F039FEAB684B
:2053DC0004F11C062BB1A96800220A71A9680968A96007F021FE484607F01EFE404607F051
:2053FC001FFE37B3E17864683A4600203346A047BDE8F087484607F00FFE404607F010FE2C
:20541C00BDE8F08702200022A07013460420A84755462868006806F02BF92078032808D14B
:20543C000220FFF7FFFBBDE8F0870220A07015209047BDE8F087C0460C180020F02B002043
:20545C002DE9F0430024302003210123ADF19C0D25AA8DF8944002F09BFD3D4A107A0228F7
:20547C006CD08020042120AA06F03EFA00285CD19DF88000400106F043F85FEA000964D0B5
:20549C009DF88000274610F0030818BF0127BDF8821017EBA0071FD03D46E11B0420B1F140
:2054BC00FF3F03D1B8F1000F18BF40464601A4F17F006A46F1B2C0B206F016FAE8B909EBEE
:2054DC00C4106946324602F0E5FB9DF88000BDF88210641C6D1EE0D14A4602F07FFE07F0D5
:2054FC00A7FD239007F0A0FD2490484607F04AF9249807F095FD239814E00121302025AAF4
:20551C008DF894100B4602F043FD07F091FD219007F08AFD2290484607F034F9229807F0FA
:20553C007FFD219807F078FD0FE00121302025AA8DF894100B4602F02BFD06E010685189B2
:20555C00D26890F8AD0002F049FE27B0BDE8F083982800202DE9F047DDF820801D469146BC
:20557C000E46044604F002FE01270E2804D004F0FDFD0F2818BF00275FEA070A17D120883E
:20559C00A0F6020040B141F21E01401A04D004F11A003060E06903E004F1120030606069BB
:2055BC00C9F8000000202860C8F8000058E02088A0F60200E8B141F21E01401A16D041F6CC
:2055DC00E671401A04D0A26AE06A94F8247002E0226A606A002704F11A013160E169C9F8A9
:2055FC0000102A60C8F80000207E0FE0616AA06A01E0A169E06904F1120232606269C9F878
:20561C0000202960C8F80000E77B207C00F00704286880B140F203714FF6FF72052306F0D1
:20563C00BFFB0646052E06DA3846214603F048FD296841F82600D8F8000088B140F2037179
:20565C004FF6FF72052306F0ABFB0446052C07DA3846FF2103F034FDD8F8001041F8240059
:20567C005046BDE8F087FEE72DE9F041414C0546207800287AD0B4F98E00B4F98C10884200
:20569C001DD004F1700128460E4606F0D5F970B9D4F88010284607F019FA28B906F1080137
:2056BC00284606F0C9F901E0D4F8800038B1B0F930100A224FF0E043284601F057F807F076
:2056DC0065FB804604F1D8000168A94219BF00264660002606602078401EC0B22070A8BBDC
:2056FC006560207D02280ED1082005F00DFE404607F092FC05F148004FF0FF3107F08CF9C7
:20571C0007F044FB804604F5807007F051FB04F1380007F039FB04F59A7007F049FB04F1BA
:20573C00540007F031FB04F1900007F021FB04F1B40007F01DFB04F1240006F07DFD0C48A9
:20575C000078012802D10E2001F04CF9606805F14807854208BF6660404607F05DFC3846A0
:20577C0007F022FB05F1800007F002FBBDE8F0819E020100E0370020B0B503FB00F402FB4D
:20579C0001F54B4302FB00302F1B2A1B36D500281DD441428A420CDC404207EBD771400155
:2057BC0000EB610090FBF7F0400000B24110403960E008462D1B00EBD070401000EB4510C2
:2057DC0090FBF1F0400000B24010414252E087420CDD014601EBD171491001EB471191FBFA
:2057FC00F0F0400000B24110803943E007EBD771491001EB40126FF03F010FE000281DD416
:20581C0087420DDB002F08BF002133D07F42404207EBD772410101EB62024021384623E0AF
:20583C00404279420246490102EBD27201EB620191FBF0F0400000B241101BE07A428242D3
:20585C000BDC07EBD7714910A1EB401191FBF7F0400000B2411040310CE0014601EBD1714D
:20587C00491001EB4212802192FBF0F0400000B2A1EB60012D2011FB00F0011100EBD1600F
:20589C004011B0BD2DE9F04715460746287A0C4600F03F01E8886FF39F2040EA0130A988F8
:2058BC006FF39F2141EA00393649C8789A460026ADF1180D884612E0241AA4B2162C1CD834
:2058DC0098F80300C119491E91FBF0F24243891ACFB2B90001EBC7014144B1F84C40B042A8
:2058FC0003DC0020A8810A2048E098F83210761CB942B6B2E6D0172CE4D3E41F38466A466A
:20591C00A4B2214602F02AF99DF80B10880827D3480825D22A7AEB885FEA0A0018D0401E68
:20593C0012D0401E07D0401E18BF042026D1009848450DD014E09DF80800904210D1BDF8E9
:20595C000600984204D00BE09DF80800904207D168460EC80EC503C885E8030000200DE0A6
:20597C00C80807D3BDF80E008442A5DC2146384604F0E8FD0020FCF795F8022006B0BDE87C
:20599C00F087C046643200202DE9F8433B4E3C4C3C4DDFF8E090DFF8E0800746012F42D1BF
:2059BC0033480068006801460120884701283AD099F8D800002836D1083420684F46C0F372
:2059DC008140B0B94046006898B1014601208847803D4FF00040A86540232B6054F8080C7C
:2059FC00000824BF4FF40050286007F1540007F0C7F906F0C1F90121206887F8D810C0F30E
:205A1C00814010B94046006848B907F001F9800905D28020B060306840F0800030600320F5
:205A3C0005F0EAFE21E007BB03F0E6FEA068C0F381475FB92068000824BF4FF400502860AA
:205A5C004046006810B101460020884799F8D80058B13068802720F0800030600320B7603A
:205A7C0005F0B2FE002089F8D8000020BDE8F883E0010010282E0020040201009022084044
:205A9C00AC4F005028A10C403D482DE9F04F001FADF1140D00F1800100F1700B804602919B
:205ABC0000F1840103914FF4804006F021FFE8B14FF00450D0F89813D8F8046090F88503C4
:205ADC00C3F38857C1F31501C0F38002C1F31501B8050143B06841EAC2716A4600F0B0FE87
:205AFC00D8F804008168012006F092FA002702260DF10409214D049759F8044F236863B382
:205B1C002068806906F0F4FE824620680023524605F022FA1AF00A0F08D1BAF1000F1CD052
:205B3C00206847F48047C8F8880016E020681249AB688069014023EA0100A8602068C16999
:205B5C002A6822EA0100286021680BF1080006F0EFF9049847F002072060761ECCD127B132
:205B7C0008F58070394607F029F901F065FEFDF73FFB05B0BDE8F08FFDBFFFFF0C1004400F
:205B9C00E43700202DE9FC4191EA03084CBF4FF000484FF000084FEAC32545EA52554FEACC
:205BBC00C2264FEA43077F0D11BF45F0004500210020BDE8FC815FF4E06E1EF1FF0E7745AC
:205BDC0055D04FEAC12343EA50534FEAC0224FEA4104640D11BF43F0004300210020BDE861
:205BFC00FC81744543D0E419A3FB0501A3FB06E7A2FB06631EEB030E57F1000751F1000162
:205C1C00A2FB05631EEB060E57F1000751F10001FF1851F10001C01951F100014CBF4FF4F0
:205C3C00806E4FF4007E10EB0E0051F1000148BF641C01D4400049415FF44077FF37E41BE8
:205C5C00DEBF00210020BDE8FC8117F58067BC420DD24FEAD02040EA41504FEA41014FEAC0
:205C7C00113141EA045141EA0801BDE8FC810020FF21C900C91D090551EA0801BDE8FC818D
:205C9C002DE9F84F0D4606465FFA85FA280824BF3448454034494FEA8A033448CA5806F425
:205CBC00E02C06EA0507BCF5E02F00EA070085EA020406EA040422EA0602C4F3006740EA46
:205CDC00020001D1420E14D306F4E022174310D000F4E027B7F5A02707D0B7F5803704BFFC
:205CFC0020F4003040F4A02003E020F4803040F4C0201F4CDFF87C80012202FA0AFBC4F877
:205D1C0000B008F1D007C8503968002002FA0AF40C4218BF101C5FEA000906D1F00D04D3C6
:205D3C004146C5F3805001F80A00300E0BD307F02DF8290E34BF0021211C3A68A24311439A
:205D5C00396007F069F9B9F1000F06D0F00D04D34046C5F3805100F80A100548C0F800B0FC
:205D7C00BDE8F88F006000A000100840007F077FE0200260002002402DE9F84F80460C4645
:205D9C00D8F800502068D8F804A0EE780789D0F804B091463EB1E86806F070FC012818BFE1
:205DBC006FF001005AD185F8099000266C612C482C496E604246AE7006F0EEF99AF8001057
:205DDC00272006F0E9FF022005F016FD4FF0805ADAF8FC01006A0622394603465846984799
:205DFC000AF5FE7790B9287A042805D1DAF8B00140690146272088471B4D0220C5F8C00195
:205E1C003868406801460620884730B1404605F09FFF4FF0FF30BDE8F88FE06820B92E609F
:205E3C006E60AE60EE6002E03968C9688847B9F1010F0CBF0420301C40F4E070286120690E
:205E5C006861AE61EE6138682169A268036960681C460B46A047404603F09CFCBDE8F88FC0
:205E7C006C4300206D9A0000404502402DE9F84F074607F0D9F8364E83463078874208BF72
:205E9C0000245FD07F1E4FF000044FD0DFF8C4A0DFF8C4807F1E22D0781E45D12F4D103D3A
:205EBC00EF7F07F0C1F881465046037893B9EF770325414605702046363102460F7013460D
:205EDC00132103F085FE0446484607F0A9F8002C38D12CE0484607F0A3F8012432E00328C9
:205EFC0022D107F0A5F8074607F09EF8814650460178032910D14546B5F90010047000295C
:205F1C000ADD6868224606F01BFDA86B006805F0AFFB6FF001002880484607F081F838469A
:205F3C0007F07AF8022502E002240BE00125357044B901208DF8005007216A46034603F0F0
:205F5C0047FE0446584607F06BF82046BDE8F88FF03600200C180020B82B002088340020A3
:205F7C0070B5324C0D46A8084FD2E8085DD301250420657005F040FC2D480068006B8047BF
:205F9C00A060606804F170060146306870B10069064649B18E4207D0716AC90803D3036A6D
:205FBC000421002298477575314661604868214900780860022005F01FFC112000F0DAFD59
:205FDC001D480078257510B90E2000F0D3FD60684168886808B9C86810B1184806F06EFDA3
:205FFC0017490720002608601649184B0E60164D4E600A68A36145EA020008601A2006F0F0
:20601C00C7FE192006F0C4FE70BDFFF7FDF8204600F17801096811B903F084FC70BD00F5F6
:20603C00807045F0020106F0C9FE70BDE03700208C010010D02108409E0201005100070626
:20605C00000004601410044002400040914300002DE9F047DFF8E490D9F8E00190F8AD0083
:20607C000027ADF1880D09F1680410F0030F18BF0127042120AA07EBA007802005F034FCE6
:20609C00002852D1D4F878019DF8806090F8AD0086424AD1BDF88200B4F88211884244D172
:2060BC0006F003082FB33E460025E91B0420B1F1FF3F03D1B8F1000F18BF40464101A5F16F
:2060DC007F008A466A46C0B2C9B205F00DFC002818BFD4F8781120D1D4F8840169465246DD
:2060FC0000EBC51001F0D6FD6D1C761EDDD19DF88060F6B14A46D2F8EC0102F1680402F57C
:20611C00F0721168D1F8B0102038891E31F8023F30F8205FAB420AD0116891F8AD10D4F89D
:20613C0084014A01002102F0D5FC012002E0761EECD1002022B0BDE8F087C046B826002029
:20615C002DE9FC41DFF8DC8000280E4647D034490878401C08706846012105F0BDFA9DF828
:20617C0000406846012105F0B7FA9DF8000004EB0024A4B204F1080080B206F0A1F9071C6D
:20619C0003D03C8007F1080078605FB1B81C012105F0A2FAF81C012105F09EFA7868398881
:2061BC0005F09AFADFB14346BD78D8881C6A996A9A696D116D1E07D06D1E09D06D1E03D05E
:2061DC00384606F0EDFD0AE040F02000224601E040F00800D88010463A4605F072FC44466F
:2061FC0066B1606AE18848B10F4A107841F04001401C1070A06AE18006F0EAFEE06906F089
:20621C00FBFE18B1606906F0F7FE30B9E08840F01000E080A06A06F0DBFEBDE8FC81C046FA
:20623C00D1370020C4320020D03700202DE9FF41384D95F83C00012101AA044606F04EF9E5
:20625C000221204602AA06F049F99DF80A4095F83D10EA78002605F130074FF0100C10E0FC
:20627C008C4214BF6346BDF80830880000EBC100491CC019838391FBF2F303FB02F0091ACF
:20629C00C9B295F83E00401C90FBF2F35343C01A8842E5D195F83D40A84635E0A00000EB48
:2062BC00C400C119898B10291AD03A180421022320461C3204F0BEFA6870E86861036A46B5
:2062DC00042306F0F6FC009800F0FF007C2802D0FE280BD1FEE72046782105F009FC05E0D1
:2062FC00204600F0A9FC761CF6B26870E97898F83E30641C94FBF1F04843241A581CE4B253
:20631C0090FBF1F24A43801AA042C7D130460090BDE8FF81643200202DE9F84F8B460746F6
:20633C0006F086FE0090022005F0B4FB8146009806F072FEB9F1000F5ED0DFF8C0A077BB5C
:20635C005246511C10780C7804234FF00008D6464FF0010C353911F8405F0CFA05F2D2B2A3
:20637C00024203D102EA0406B24202D05B1EF2D100E0A846614601FA08F10843C0B204EADD
:20639C0000018C4208BF0020B8F1000F8EF8000002D0404601F018FD4046FEF7A5FE5246D9
:2063BC0002EB8B10967889F801B000F10801343876B111F83A0C11F8397C401C01F83A0CC4
:2063DC00781C01F8390CC0B2062807DB032703E0012191700026C67089F80070032049461E
:2063FC0004F0E6FE40B906F023FE0090484606F0C9F9009806F010FEBDE8F88F382F002074
:20641C002DE9F84307467D68BE6890460C4606F0BDFC814630682B78026B02F4807203B1D5
:20643C001AB1484606F0F8FD56E005F5827006F0A9FC2C620024EC776C623168086B40F41C
:20645C0080700863484606F0E7FD05F2291005F083FF4146384605F037F805F22919A8624A
:20647C00A8B93846414604F02BF9A878D0B9A96805F1CC0006F0D0FAE8B1AC621020E87710
:20649C003146284601F0ECFC05F2291022E006F07DFC3268916B41F02001916306F0BCFDF6
:2064BC00A87810B12046BDE8F883A96805F1CC0006F0B2FA10B9686ABDE8F8833846414624
:2064DC0004F0FEF81020AC623146E877284601F0C7FC484605F030FF4FF0FF30BDE8F88340
:2064FC002DE9F04F834633483CC8ADF12C0D69463CC11DC881E81D0002A890E8800104A8A6
:20651C0003C82D4DDDF8189009902868002490F8ADA00A9126E06869660180198169089087
:20653C00083090E80C00894441463846FCF7B5FC0746287A8846022809D1E868801908302B
:20655C0090E80C003846FCF7A3FC884607460898103090E80C000A990998FCF79EFC0A91A0
:20657C00641C0990A245D6DCB9FBFAF00690504605F0D2FE0D460446414638462B46224643
:20659C00FEF71AFA02AA82E803000A9909982B462246FEF711FA6E4604AA82E803001ECEE5
:2065BC00ABE81E0096E80F008BE80F000BB0BDE8F08FC04618010100982800202A4AB0B547
:2065DC00D2F87C42B4F1FF3F08BF002405F040FF042847D1D2F878021268070F02F0FF020A
:2065FC007F2A88BF002205F033FF4FF0FF3104280AD13846012835D9801E03D0401E03D178
:20661C00153200E00B3251B214292BDB2048174F0025103805603868806C804714480068FD
:20663C0020B114480068204600F034F8124813490560134F0A686FF35B4247EA020008609E
:20665C0010490868C0F30130012806D10A680E48104040F400320A6008600C490868002834
:20667C00FCD1B0BDFEE7C046A0100050F001001080012843800520438C2108404820034064
:20669C000000390128000940EFFFFCFC0C006842940460422D4A2DE9F04180462E4C5068A7
:2066BC00800806D2106804F14D01000C40F0F000087028484FF001214FF08057C0F8041448
:2066DC0007F5F8760088D7F8F0019568204F016828468847A80E03D2680E24BF0220207044
:2066FC00306842682946404690471F48F4300068C0F305313970410A39BF402184F8231098
:20671C004021E174800900F0380040F46050A7F85C0030688168284688471049104A0AE0BC
:20673C00105C9478131D844299BF184410F8010C18444078086008684B689842FCD1022896
:20675C00EED1084901200860BDE8F081AC4F00500EB00C4000A00C400962084000600C40CE
:20677C00CC02010094046042181300502DE9F8430446994690460E1C44BF0020011C5BD490
:20679C0006F018FB054631468022204604F0C6FB071C04D097F8331031F07F0106D12846A6
:2067BC0006F03EFC02200021BDE8F8834FF0E0400A2107F1200640EA090941EA080896E88D
:2067DC00030008EA000019EA010608BF00281CD0284606F025FC07F1200003C804F17806E8
:2067FC0004F1780508EA000809EA010986E8000395E80C0007F1200696E8030007F120055E
:20681C009943904385E8030013E00C48B968884202D0B9682167B86004F1680080E80003B0
:20683C00284606F0FDFB04F148004FF0FF3106F0F3F8783494E80300BDE8F883A99C0000C3
:20685C00F0B50E460021ADF1140D0191029103911446049103AB02AA04A9009101A9FEF764
:20687C0079FE8325310824D2E0B1039F87B10499C6F3150271B1019840F22B21028038469D
:20689C0005F027FA0298049902F070FB039826E0C6F3150240B1019800884FF6FF71814237
:2068BC0002D132E0C6F31502019802806280102029E0002829D00399A9B10499C6F3150649
:2068DC0099B101984FF6FF720280084632462B2105F0FFF90298049902F00AFD0498152180
:2068FC002180606012E0C6F3150670B102982B21324605F0EEF9FF2807D001984FF6FF71AE
:20691C00018066601420208000E00325284605B0F0BD70472DE9FE4FDFF8C48098F8C901D9
