:20000000003C01208959010039FB021039FB021039FB021039FB021039FB021039FB0210FC
:1C00200039FB021039FB021039FB021039FB021039FB021039FB021011FB021002
:20003C0038B586B004468DF805104FF6FF720120ADF80220090ADFF8645CADF8000002238B
:20005C008DF806108DF8043069462A7820461AF0D5FD162803D1297820461AF0CBFD07B0FB
:20007C0030BD3EB504000D461AD0DFF88C0C006822461AF0BBFDFF2811D000200090002367
:20009C0001AA2946204610F0E9F940B900F0C3F8C00604D500F0BFF810F0040000D0012003
:2000BC003EBDFEB5164615244FF6FF7290420D4615D100208DF80400DFF8E07B9DF80400AC
:2000DC00B97988421AD23246294600F0D3F800B100249DF80400401C8DF80400EEE71AF048
:2000FC0081FD50B100F01AFD40B99DF804003246294600F0BFF8002400E014242046FEBDE1
:20011C002DE9F04387B0884691461C46002701460097002301AA404610F0A0F901250028FC
:20013C00DFF8786B69D100F076F80746082CF07908BF002500F019FA5FEA000802D100F064
:20015C0017FA61E070789DF8041002280CBF01200020009023463A46484600F0E9FC142258
:20017C00002102A8062419F0E5FC9DF8040014FB00F0243002AA00F04AF8A0B91022FF210F
:20019C0002A819F08EF870B99DF8040014FB00F4253406AA042100F065F802AA07F0010125
:2001BC0048461AF01BFDF1799DF80400890670304246090EC0B218F021FC88B9404600F054
:2001DC00CCF8002408E008EB8000018819B18278484618F0F9FE641CF179E0B28842F2D3DB
:2001FC00B80703D53178484618F090FB9DF8040000F001FA404619F013FE7078022803D178
:20021C0015B1484614F072FF07B0BDE8F0831021C0B218F0F3BB9DF80400B0E17CB50D4623
:20023C00044606214C43164600F019F8A8B900F01CF890B99DF80700002E14BF054320EAA8
:20025C000505E9B2814206D08DF807506A460821E0B218F0E7FB012076BD002076BD203418
:20027C006A460821E0B218F0C9BB0622FF21684619F017B82DE9FC410646344606235C43BC
:20029C0088461546FFF7EBFF002850D1FFF7EDFF00284CD1DFF8047AF87900F066F90400B0
:2002BC0002D100F065F942E0F979703689062246090EF0B218F0A2FB002834D1204600F0EF
:2002DC004CF85FEA08000DD1FA799206120E0021204618F0E6FF30BBFA799200002100F0EF
:2002FC0041F916E0214600F025F858B9280004D02146002000F01EF810B900F08DFA16E06E
:20031C00A0F800808178A9420DD085700DB900210180204600F021F8F97989062246090E9C
:20033C00F0B218F07FFB00F077FA012000E00020BDE8F68170B5DFF86439DD79002200E0EE
:20035C00521CD4B2AC4206D231F824608642F7D101EB840070BD002070BD10B50021DFF8E3
:20037C003C290AE030F82130DB4320F8213000EB8103491C9C78E4439C70D3799942F1DB04
:20039C0010BD2DE9F04186B0804600200E460090002398F8061004AA404610F05FF8DFF802
:2003BC00FC580627A0B1002400E0641CA979E0B2884280F0C780A869E3B20622FF2100EBBD
:2003DC00C30018F06EFF0028EFD08DF8104013E0706988B100F0C1F823306A46FFF717FF50
:2003FC0050B91022FFF742FF30B998F80600414600F001001AF0EEFB9DF81000A9798842F4
:20041C0080F09C80E87900F0B0F8040003D100F0AFF80A2093E000F0A0F8203042460821A6
:20043C0000F0AAF89DF8100000F0E5F8EA79920000F097F8E9799DF810008906703022468A
:20045C00090E00F099F8A8699DF810300822414600EBC30019F05AFB726972B1107C002398
:20047C0002F1110100F001001AF0B0FB726922B100F073F8233000F07EF8B2682AB100F00E
:20049C006CF821301C2100F077F832692AB100F064F822301C2100F06FF8F26882B100F0CA
:2004BC005CF8243000F067F8F06800F110029DF8100017FB00F725370421F8B218F0B2FA41
:2004DC00E87B08B100F05EFBB688286A4FF6FF7750B905F1120100910223DFF87428394656
:2004FC0001201AF06FFB2862296A19B3FF200390022200230292019305A800900DF11203F1
:20051C006A8A304607F0B0FD68B99DF812009DF8131000EB012290B228B1286A418992B268
:20053C003046FFF7BEFD6A8A286A002339461AF045FB286200F070F9002000E0152006B038
:20055C00BDE8F081DFF80C28107800281DBFDFF80818086804780C4637E79DF8100078431F
:20057C007047FF21204619F0E5BA800019F060BC042018F04FB81021C0B218F053BAE0B555
:20059C000623584320306A460821FFF741FE10B99DF807000EBD00200EBDDFF8C0070078EC
:2005BC0008210FF099B838B50025DFF8B04719E0A069062313FB05F300EBC5022033082167
:2005DC00D8B218F01BFA58B1A0690622FF2100EBC50019F0AFFAA06900EBC5010022CA7185
:2005FC006D1CEDB2A1798D42E2DBE07B10B1BDE83140C7E231BDF8B5DFF8A016DFF8585788
:20061C008B792E681C461A4600E00A46D1B239B1511ED2B2324412F8017C8742F5D10C46F4
:20063C00E0B2591E07E01718165C7F7817542A680244401C567088422A68F4DBE4B28C4222
:20065C0005DA1946BDE8F840052018F0EBB9F1BD38B500200024DFF80457AA79E1B29142F8
:20067C0006D2010004D1E0B200F003F8641CF4E732BD2DE9F84F83465D46062313FB05F5EF
:20069C008EB005F1200701AA0821F8B218F0B6F9002871D10622FF2101A818F002FE002823
:2006BC006AD1DFF8B866F079FFF75FFF5FEA000903D1FFF75DFF0A2060E01C22FF2103A846
:2006DC0019F038FAF2799200FF21484619F032FA05F123040AAA1021FFF7C4FD60B91022DF
:2006FC00FF210AA818F0DDFD30B99DF80A0001A900F001001AF06EFA082200F046F801AA92
:20071C000821F8B218F08EF98DF8000003AA05F1210000F036F8074605F1220003AA00F0F2
:20073C0030F8804603AA1021E0B218F07BF9044605F1240003AA102100F024F88246253553
:20075C0003AA0421E8B248EA070718F06BF92743F1799DF800504AEA0707074389060BF195
:20077C0070034A46090ED8B218F05CF90743484619F056FB3D4300E0002528460FB0BDE8D3
:20079C00F08F1C21C0B218F04DB9FF2101A819F0D1B92DE9F84187B0FF208DF80000DFF8A4
:2007BC00BC55A87919F044FB040003D1FFF7E0FE0A202EE01022FF2103A819F0BBF9AA79E2
:2007DC00FFF7CFFE0622FFF7E0FF03AA1021022018F028F9064603AA1021032018F022F9A4
:2007FC0006436A460121042018F01CF90746A9792246052018F016F9054601AA062106202B
:20081C0018F010F9804600F007F83E432E4348EA060008B0BDE8F081204619F001BBF8B526
:20083C000446DFF878542079012849D009280AD01E2803D07D2800F0848089E060880021A5
:20085C0012F0C0FD84E0617860881A2976D000F06AFA022802D0032818D079E020896688BC
:20087C000122012804BF6089032807D1E168887820B91021304600F028F902466869002846
:20089C001CBF4368002B63D0052116E020896688012804BF6089032806D1E0688278042167
:2008BC00304600F012F900E01820696900291CBF4B68002B4CD0024604213046984747E0DA
:2008DC00207A6788082838D1384600F02CFA02280FD0032831D160890022042100F0F5F863
:2008FC00696900291CBF4B68002B26D00246042121E060890022102100F0E7F806463846EF
:20091C001AF070F978B1DFF85824117839B9811D4079012200F001001AF04CF903E0DFF8DD
:20093C00441401200870686900281CBF4368002B03D03246052160899847608800F08CF96A
:20095C0006E0608800F0EFF90146608800F0A8F9217904F10800BDE8F4401AF027B9DFF8E4
:20097C00FC134088097817F0D1BFF0B5A9B006460D4614461AF036F908B91420A3E0A422FE
:20099C000021684619F0D6F8ADF800600DF12607C24EF078B17A279A8DF804005208F07AB4
:2009BC008DF8A0004B0801F0010040EA420222F0020203F0010342EA4302080922F48072AC
:2009DC0000F0010042EA0022480922F4007200F0010042EA4022880922F4806200F00100EA
:2009FC0042EA8022307B890822F0040201F00101022842EA81020CBF01200020279278743C
:200A1C001AF0D0F8412807DB307B00B108209DF8991008438DF89900707BB8B10121B974CF
:200A3C00202206F184010DF1390019F06FF8202206F1A4010DF1590019F068F8202206F15E
:200A5C00C4010DF1790019F061F800E0B874707A8DF8050088B1C44F102207F110010DF1D7
:200A7C00060019F053F89DF89900082805D1102239460DF1160019F049F8307A8DF8260068
:200A9C0028B11022B9490DF1270019F03FF8307948B1022D18BF032D03D1279840F002002B
:200ABC002790012100E000219DF899000143B0788DF8991000B1042001438DF89910684683
:200ADC0021461AF06BF829B0F0BD2DE9FC41154615244FF6FF72904288460DD100276F4EA1
:200AFC00B179F8B2884216D22A464146FFF796FB00B100247F1CF3E71AF074F850B100F025
:200B1C000DF840B99DF804002A464146FFF786FB002400E014242046BDE8F6810021009144
:200B3C000023417901AA01F00101801D0FF096BC70B504460D4606204543082B88B01646F9
:200B5C0003D1300758BF223500D521351C220021FFF71CFE01AA1C21E8B217F04FFF78B95E
:200B7C009DF81E00C01F0A280AD20C980090F20801AB02F0010206F0010120461AF00AF880
:200B9C0008B070BD38B51AF001F80024734D0FE0A8690622FF2100EBC40018F082FB28B923
:200BBC00A86900EBC401002019F0ECFF641CE4B2A8798442ECDB31BD3EB50C4600250146E1
:200BDC000095002301AA20460FF048FC38B99DF80400FFF7D4FCC00601D401203EBD0020C6
:200BFC003EBDF8B506460F4615460C2019F020F9040019D02681A77200202060E07245B152
:200C1C000821284618F0A0FC606018B9FFF704FE0BE060605648016811B9046004E00146E9
:200C3C0008680028FBD10C600CB91520F2BD0120E0722A4639463046FFF797FE04464748E3
:200C5C00406900281CBF4368002B03D000220021304698472046F2BD38B505464448046846
:200C7C0003E02089A84204D02468002CF9D1012032BDE07A012807D100F05FF820B10748BA
:200C9C00007804210EF028FDE17A491CE1722846C9B200F005F8002032BD0000E41C002060
:200CBC0038B5022904462D4D02D003290DD01EE042F6C921FFF7B4F902001CBF68690028C8
:200CDC0018D04368B3B105210CE042F6A621FFF7A7F901001CBF696900290BD04B684BB1F9
:200CFC0002460421204601B0BDE830401847BDE8324003E031BD0000680F002010B51C4B35
:200D1C001968002201E00A46096851B10C898442F9D10868002A0CBF18601060084619F0A7
:200D3C007FF8002010BD024604201149096819B10B899342FAD1C87A70470D48006828B16F
:200D5C00006818B1C17A0029FAD1704700207047ECF10100E135002074350020E41C00208C
:200D7C00AA0F0020E2350020E8320020183300207835002038B5244C2070A171E271C800BB
:200D9C0019F056F8A061D8B1A279D200002118F0D1FEA07919F04CF8E06108B9A0690DE013
:200DBC00A2791A4D002118F0C5FEA07919F040F8286050B9A06919F033F8E06919F030F807
:200DDC00BDE83240042017F025BCA279002118F0B1FE04F1E40019F0D1FE2178062019F068
:200DFC00C9FEFFF7E0FB2A68A179052017F006FE48B1002004E02B68091A4A1E1A54401C7E
:200E1C00A1798842F7DB31BDE41C0020743500202DE9F04FADF13C0D19F0A8FE15F05EF9E2
:200E3C00071C0CD017F0C4FEC54C00268146062134F80C0F28B1491E06F10106F8D119F052
:200E5C007CFA4FF6F878A4F8008067600025A560CD4C26707868A060484618F047FD04F1E0
:200E7C001C0019F080F844F26826C549E0601B224FF4A473FB2000901020019609F0C0F9EC
:200E9C002E4602208DF82D0001258DF82E60BD4F8DF82F604FF480628DF830502B460DF1FC
:200EBC002D0039460090102009F0AAF90DF12E0040F2024200902B463946102009F0A0F92A
:200EDC000DF12F0040F2034200902B463946102009F096F90CA840F2064200902B4639466C
:200EFC00102009F08DF9C649102004F1140209F087F9C44932461020134609F081F921784A
:200F1C00502017F0B3FCCC490246102009F078F92178502017F0AAFC009603460822C749C9
:200F3C000196102009F06CF9C549102009F068F9C4491020082209F063F9C349C34A1020D3
:200F5C0009F05EF904F128000D90A06800214FF040424FF0FF3319F005FE071CF5D00020FC
:200F7C0009900BA909AA0AA816F0F0FE002840F01581BDF82800102840F00C8120789DF8C2
:200F9C002C10884240F00681099D28884FF6FF71814200F0FF802878913800F0CA800F3851
:200FBC0000F08580801E62D02E3840F0F380A878E0B1401F04D0401E16D0401E11D0E9E017
:200FDC00687838B1A088814240F0E480032012F073FFDFE06889A080CA496A89102009F017
:200FFC000FF911F0ADFFD5E00420F0E7C449C64A1020002309F004F9C94910204FF48602FD
:20101C0009F0FEF84FF44870064601220023C34900901020019609F0F3F8062000220DF1AB
:20103C002A03BD49ADF82A00102009F0E9F801200DF131030246B8498DF83100102009F00D
:20105C00DFF8012006220DF13103B3498DF83100102009F0D5F840F6020003220DF12A03F2
:20107C00AD49ADF82A00102009F0CAF892E0002D05F10A0100F08E80687960380CD0401E53
:20109C0040F08880A288B9491020132309F0B8F84FF6FF70A0807DE00888E0800A88B24913
:2010BC004FF6FF73102009F0ABF800208FE7002D70D0E088A98888426CD1A88919F013F9A8
:2010DC00061C32D0A968AA8910F0AEFCA86814F049FE3078401E21D0401E1BD0401E20D1F8
:2010FC000120C14D8DF83200286858B1301D10F0D5F9051C04D1BD490220087016F0F6F9AF
:20111C008DF83250092003210DF13202012311F093FA06E0301D08F017FE02E0301D0FF00D
:20113C00D1FE304616F0A6FC34E0A86814F01AFE30E068780E3805D0801E27D02AE0C046B6
:20115C00281E0020A88842F20301814222D1A968491C0A6806A80260496841609DF81A6096
:20117C009DF81900BD4906AA00F0BF008DF8190046F0C6008DF81A00102009F041F809E0BC
:20119C000D3D021031740000E01400200820002109F0F0FE099808B119F06AF8F80FFFF42F
:2011BC00D4AEE06818F02EFA051C3FF4CEAE2888801E00F0DF81401E00F05281401E00F03C
:2011DC003C81401E00F0E281801E41D0401E40F0E6816F68002F00F0E2813878E178401E21
:2011FC0012D0801E05D0401E21D178688188BAA002E078680178BDA017F0E4FA17E0C04671
:20121C00C98C0100111C02107B68D87B0090187C0190587C0290039158690490986905904D
:20123C009A89D97893F904009B7B15F071FC7868002800F0B481FEE0D96C021025CE0000B1
:20125C002D4502103BA30100659B0100BBA101006E68002E00F0A7813078A288401E072836
:20127C0000F2E580DFE810F0AE008400D9005E003D0016000800D5007768002F00F0D78046
:20129C00B7F801000090F87800230190BE4902933B78C9E07768002F00F081817979F81DCF
:2012BC0014F0F6F8B879FF2805D0B81D012114F0EFF8B879E070387800907879FB1D0190B6
:2012DC00BB490293A2883B79102008F099FFB8787B78009001930290F878C5490390A288A7
:2012FC00A2E04FF6FF70904210D0E08870B1BF490246102008F084FF0020E08097E0C04669
:20131C008961021049250210AD850100A9A04FF6FF7117F057FA8AE095390110F5F9011064
:20133C00C56901107068002800F039810746E088ADF81800788819F011FC0028079076D01B
:20135C007A88394610F070FB788806AAA649ADF82000102008F054FFC0B2002867D0079836
:20137C0014F000FD63E0C04699FB0110A1F901107068002800F013810746B0F80700994955
:20139C00072203230090102008F03AFF07220223B7F8070093490090102008F031FFC82041
:2013BC00072205238F490090102008F029FF0120002300908A4901933A7802F001027F1C8B
:2013DC003B4631E0716820690F78012F10D0002F2DD130F00200206129D17F497F4A4FF6C6
:2013FC00FD7001270090EBE7C0110020EE19002058B94FF6FD707849784A00900023102099
:20141C0008F0FEFEC7B220698FB940F0020020610DE0706814F026FA09E06E4900200827E7
:20143C00C823A07002460097102008F0E9FE7068002800F0B480074698E0A878401E012817
:20145C0000F2AD806868807820B911F0BFFE002800F0A580032012F02FFDA0E0FD3802109D
:20147C00D5F8048063490CC906A80CC009780170A678D8F81870092206A9B81C17F094FC57
:20149C00002872D1082E70DA96B1DDF8349008F1020BB24609F1010958464946062217F007
:2014BC0083FC002861D0BAF1010A09F10709F3D15FEA080708F1020A45D0B8F816000A3042
:2014DC00814680B218F00FFF061C1DD1002105200A4617F029FE35E052544C532053657269
:2014FC007669636573204572726F720052544C532053657276696365732043544520526510
:20151C0071204661696C00C0B91C0A68B01C0260898881807878707038783070B87D707224
:20153C0097F90C003072B969FA8A06F10A0010F07BFA5FFA89F20020314617F0F5FD30465B
:20155C0016F098FAA6780D9F51460B68C6EBC602D019401C03608988818098F80100761CAD
:20157C00F3B2B854D8F81870A370C7B1384616F081FA14E0687800280CBF00200120002193
:20159C000A4617F0D1FD0AE0F1A001001A48009068680F49C2880023102008F031FE6868E0
:2015BC0008B116F067FA284616F064FAF9E5C046799B0100436F6E6E656374696F6E2048AC
:2015DC00616E646C6520696E76616C696400C046657C0100E1F4001091DC011075620100C1
:2015FC0035610210D5F40110A9C30110A93D02106D9E01003CED010040E201002DE9F84F22
:20161C00DFF8A055696884B0019121B905B0BDE8F04F19F09FBA0978DFF88C65DFF88C7555
:20163C0001291CBF0229042946F2A81A40F6C41941F64C5805D0402918BF802900F05681C4
:20165C00A7E218F005FD0028FAD0019800780BF073FC009019F07AFADFF854150446487817
:20167C00002800F0C78005F0B3FD18F009FA8246002CDAF8000001900146D1F804B003D051
:20169C0000980EF0D3FD022800F0878000990A78012A04D0022A0CD0042A41D079E218B91A
:2016BC0019F050FA4044A0600120A87011213970F4E005223A70C8B919F044FA8044DFF81B
:2016DC00F4246069C4F808801368DE69DFF8E8341978B21D01EB8101525ADFF8D81409FBD3
:2016FC000289C0F820900A68A06810616069C17F01F0EF01C1776069C17F41F08001C177DB
:20171C006069C17F01F0F00141F00201C177DBF808206169DFF8A40482184A62022199E030
:20173C0006223A70C8B919F00DFA8044DFF890246069C4F8088013685E69DFF88834197868
:20175C0006F10C020901525ADFF8741409FB0289C0F820900A68A068D060DFF8640401680A
:20177C00087C10F0BBFB6069C17F01F0EF01C1776069C17F41F08001C1776069C17F01F004
:20179C00F00141F00201C177DBF808206169DFF82C0482184A6204215CE0019801788029A2
:2017BC000CD10820DFF8201438700A78DBF81400012A1ABF716A0978012113E007203870A8
:2017DC009AF8060018F0DCFA0446207BC10700F1AD80DFF8F4030178DBF8140001291CBF79
:2017FC00716A4978C1729AF80600DFF8C41388700198C9E1009800281AD00199009A007827
:20181C00DFF8BC6391420DD1012804D0022845D0042866D002E0002C40D1C0E1002016F081
:20183C00F9FE3BE0012804D0022815D0042837D0AFE1002CF1D019F085F90146A068514453
:20185C0019F07CF918B919F07DF94044A060112038700121A97021E0052038700221A970FC
:20187C0019F070F90146A068514419F067F9A8B919F068F98044CF4A6069C4F8088013685D
:20189C00DD69CD4B1978AE1D01EB8101755A09FB0589C0F820901168A0680861009873E165
:2018BC00062038700421A97019F04CF90146A068514419F043F9A0B919F044F98044C4F86A
:2018DC00088032685369BF4A6069117803F10C0509016B5A09FB0389C0F820903168A06846
:2018FC00C8603068007C10F0F9FAD7E7B0494878002800F0E18005F06BFC18F0C1F88246C8
:20191C00DAF800000290D0F804B0A948807818F0B7F8039001980178402913D19AF80600A1
:20193C0018F02EFA0446207BC1070BD59AF8060018F0A6F8052119F0FDF8207B00F0FE00E3
:20195C0020732CE118F07EFB10F0070F0CD0A8780BF0F2FA009019F0F9F8040004D0029954
:20197C0000980EF063FC022800F0828000990A78012A04D0022A0BD0042A3CD075E018B9B9
:20199C0019F0E0F84044A06011203870012169E005213970B0B919F0D5F88044854A606918
:2019BC00C4F808801368DE69834B1978B21D01EB8101525A7F4909FB0289C0F820900A688C
:2019DC00A06810616069C17F01F0EF01C1776069C17F41F08001C1776069C17F01F0F00172
:2019FC0041F00201C177DBF808206169734882184A62022136E006213970B0B919F0A2F884
:201A1C0080446F4A6069C4F8088013685E696D4B197806F10C020901525A694909FB028999
:201A3C00C0F820900A68A068D06065480168087C10F054FA6069C17F01F0EF01C1776069A5
:201A5C00C17F41F08001C1776069C17F01F0F00141F00201C177DBF80820616957488218EB
:201A7C004A6204210098A9708EE0002016F0D2FD039850451ED0029953480A78802A0AD10A
:201A9C000821397000780128DBF814001ABF716A0978012109E007223A7000780128DBF849
:201ABC0014000EBF0121716A4978C1729AF806003F498870029867E018F0C4FA10F0070F63
:201ADC006DD0A8780BF038FA064619F03FF804463078012804D002280DD004282DD05EE077
:201AFC00002C5CD019F02EF84044A060012111203870A97047E00520387019F023F801464C
:201B1C00A068514419F01AF8A8B919F01BF88044284A6069C4F808801368DB699F1D264B45
:201B3C001B7803EB8303FB5A09FB0389C0F820901168A0680861022024E00620387019F04E
:201B5C0001F80146A0681E4F514418F0F7FFA0B918F0F8FF8044C4F808803A685369194A00
:201B7C006069127803F10C0112018B5A09FB0389C0F820903968A068C8603868007C10F018
:201B9C00ADF90420A870304605B0BDE8F04F0DF031BF05B0BDE8F04F002016F03BBD05B0DF
:201BBC00BDE8F08FFC340020FCF00100C80F0020780E0020500F0020D80F0020F0D8FFFFBF
:201BDC00540F0020D90F0020CC0F002000202DE9F04F0146ADF13C0D18F0A8FFBE4C206087
:201BFC0004F1080018F0BFF96060042084F80F026FF0360084F80E02B848006800688047E3
:201C1C00062805D1002220200121134610F014FD04F203204FF0010B4FF000080C902068E7
:201C3C0041464FF080424FF0FF3318F09BFF606818F078FF0028F2D118F070FF01906068EB
:201C5C0017F0E0FC0646019818F064FF002EEED03078401E00F08380401E0DD0401E03D0E4
:201C7C00401E00F043824CE2B4F80302C00980F0488201F0B9FF44E27768002F00F04582BF
:201C9C0097F908007F2820DA10F17F0F1DDD94F80F1294F90E2294F80252C1F1100313FB49
:201CBC0002F200FB0120001184F80E0228090CD397F908008DF80000787A59466A460223C8
:201CDC008DF80100832010F0B7FC94F802028008C0F01782D4F8E031002B00F0128238786F
:201CFC00012800F00E8294F8E601012832D193F8AC507DB3022D2DD094F8FA51012D05D1C2
:201D1C0094F9E40194F90E12884223DD2046274690F90E1297F9E4010DB9884210DB401FF3
:201D3C00884240F3EE81012D40F0EB818DF80080584669465A4616F08DF984F8FA81E0E11B
:201D5C008DF800B0584669465A4616F083F984F8FAB1D6E17A6819460EF030F8D1E17568EF
:201D7C00A878022840F0CD812888142818DC142800F00C81002800F0B581C01E00F06981E0
:201D9C00401E00F0A0810C3800F09A81401E00F09281401E00F08B81401E00F026816DE16B
:201DBC00203800F08181801E00F07381001F6CD0401E56D0401E38D0083800F06781401E80
:201DDC0040F05C81AF6867B3B4F8030281090FD3397802290CD1B4F80302234620F0200089
:201DFC00A4F8030240F01000A4F80302B3F8030240090CD33878012809D1B4F8030220F0F9
:201E1C001000A4F8030240F02000A4F803024046C4498DF809003878087031200DF1090261
:201E3C00A1E08DF809B01220F8E7A9680D78012D0ED1B4F803025A46000A0AD394F802024B
:201E5C00400806D3891C082017F05EF9424600E006228DF801208DF80050282002236A46F2
:201E7C00A9E04046AF688DF80A003FB13978082013F0E0FA012800F0218102E058468DF82B
:201E9C000A0027200DF10A026DE0404694F8E531AF688DF80B00002B70D1387801281FD07B
:201EBC0094F8E80101285BD194F8E901002857D1D4F8E0010D99B4F8EA7190F8AD0021F0D6
:201EDC00FF0100F0FF000843D4F8EC1167F31F400D9012F0BFFA37E0E00F0020E8010010B3
:201EFC00D4F8E00190F8AD30002B41D0B0F86421002A3DD094F8E801012839D0B7F80100BD
:201F1C00434393FBF2F0C0B284F8E901B7F8011011B108B984F8E9B1D4F8E011D4F8EC0108
:201F3C0091F8AD104A01414611F08EFA84F8E8B1F878A4F8EA013879012811D10CF0B2FB73
:201F5C0070B984F8E98140468DF80B00022059460DF10B025B4684F8E801262010F06CFBC1
:201F7C0026200DF10B0203215B4610F065FBA5E006208DF80B000321262004E00620594681
:201F9C008DF80B0081200DF10B02EDE74046AF688DF80D009FB9B4F8037207F0800007F4FB
:201FBC008077074300F0AD8058460DF10D025B468DF80D001420032110F03EFBA1E0B4F80B
:201FDC00030200F0800100F480750D4308D0142003210DF10D025B4610F02EFB524800880D
:201FFC00000AC0F08E80072046E0AF68404639784B4A8DF80E00B81C407984F8001279782E
:20201C0000F1070A84F801125046117017F0B0FC5FEA000952D0BF1C524639460FF004FDE3
:20203C003D4F3E483E4987F80E80034680F80E800A464B60374B97603C49596102461F462F
:20205C0049460620BA6117F05FF813200DF10E0289E7B4F80302AF688DF81080010A04D2C7
:20207C00400A08D30220032101E00320014604AA5B4610F0E1FA0220394630E006208DF808
:20209C000800594602AA5B46812095E70CF0E0FC37E040468DF80C00032103AA5B46222059
:2020BC0010F0CAFA052019E017F06CFD29E0A8680EF008FF02E0A86807F046FEA8681EE059
:2020DC0014F048FD1DE040468DF80F0003210DF10F025B46042010F0AFFA0320414617F032
:2020FC0013F80EE00C9A40460B2364E7706802F0D5FA7068C06815F0BDFC7068006915F089
:20211C00B9FC706808B115F0B5FC304615F0B2FC8DE5C0463C23002080240020702400200F
:20213C0098220020821A0020E31100202C2500202DE9F84FDFF8B454A9780024FF2904BFFC
:20215C00002016F067FAA87817F09AFC054605F1680605F5C9773168086805F1900808B1E6
:20217C00EC8311E0B07B002804BFB07E00280BD198F80010002904BF3878002804D1287FBB
:20219C00012804BF688CE8832989E88B4118491C6981284618F0BAFC01281EBFDFF85004AE
:2021BC000178012903D12989EC83491C69814FF6FF79B07E01280DD1B28B6989288918F042
:2021DC00A1FC38B1298968894A1C93B298422FD0B08B23E098F8000001280FD1B8F802208D
:2021FC006989288918F08EFC40B1298968894A1C93B298421CD0B8F802000FE0387801280F
:20221C0016D17A886989288918F07CFC80B1298968894A1C93B298420AD0788892B290424D
:20223C0006D04844688180B218F068FC4844E883387801280ED128897988401C80B28842E0
:20225C0008DB7C793C71002038702346A97922460DF010F905F59A71087920B128890021F3
:20227C00401CE983688105F12E08B07E012845D12A89B08B521C92B290423FD1688105F197
:20229C008601284618F036FCB08C688400212977E983E88969894118A981B08B298918F0C3
:2022BC002DFC8146B8F80410308C728C01FB0909F08C8A4204BFB8F80810884202BFB38CE9
:2022DC00B8F806108B4207D000090090B38CA9795208002018F00AFCB07F88F80000718C4A
:2022FC00A8F80410B08CA8F806002846F18CA8F8081018F0F7FB0220B07601E0B8F8049022
:20231C00EA8BDFF8F0C2501C00FB09F040F6C41909FB00F100912B68D3F80CE07144D96072
:20233C00DCF800E0B4499EF800A00B884FEA9A1ABAF1030F17D1DFF8C4C29CF80FE05FEA4C
:20235C00CE7C48BF00230ED45B1C1FFA83FCBCF1010F11BFB5F812C005F59A7EBEF806C062
:20237C000CF2DC5C01E0B5F812C00CFB00FC4FF4C87EBCFBFEFC0CF1010CC5F814C00B8048
:20239C00A86185F820204FF01C0BDFF874A2AB79DAF8000000F108021BFB03F3D1582A6850
:2023BC00116100F10801AB79D26868691BFB03F3121ACA50DAF80000AB7900F108021BFB0D
:2023DC0003F3D1582A68916000F10C02A9791BFB01F10C30535C03F0F00343F00203435476
:2023FC00DAF80010AB798A1C1BFB03F30021D152387908B916F00EF9DAF80000AA7900F160
:20241C00100138791BFB02F240088854A879DAF800101BFB00F008440021417438790428A8
:20243C0014D1A879DAF800101BFB00F001F110021031135C3A7A43EA82030B54AA79DAF824
:20245C0000001BFB02F2024420205074DAF80010A87901F112021BFB00F0002111526949C7
:20247C00A8790A6802F114034FEA401C143253F80C00AB79D5F814C05B0100EB4C00D050F9
:20249C00B07E02280DD10A68AE7902F11403760114329859AB7998F800605B0119FB06000F
:2024BC00D0505648C27BD0075CD5DAF80000AC7900F108031BFB04F408301A59AB791BFB17
:2024DC0003F3A2F5A862C250DAF80000AC7900F108031BFB04F41A592B689A600098121A72
:2024FC001A610868AC7900F11403640114301A59AB795B0102F5F662C250387904280BD1F2
:20251C000868AC7900F11403640114301A59AB795B0102F56162C2500868AB7900F11402FF
:20253C005B01D058C5F834016427374A0B68106BAE79006803F11C04B8F804304343B3FB54
:20255C00F7F7760109FB07F0A0F59660A0512F480378012B30D10868A97900EB4112012073
:20257C00D07230E0042C0BD10868AC7900F11403640114301A59AB795B0102F56162C250DC
:20259C0038790A68AC7904280CBF4FF4AA504FF4E66002F1140364011A59101AB8F804203A
:2025BC0009FB02F2A2F516729042BDD30821284618F0C0FA012016E0506A0968AA79407810
:2025DC0001EB4213D872A879DAF800102A681BFB00FB01EB0B00506007210D4801702846AB
:2025FC0018F07CFA0020BDE8F28F00BF780E0020D10F00203C0F0020D2350020980C002040
:20261C00980E00209C0E0020FCF00100CC0F0020C80F00202DE9F04FCA4C05462078ADF143
:20263C005C0D032840F03E824FF0000B6846182284F800B0082384F801B0594617F07AFD27
:20265C006846594615F0F6FD20612E22594604F1300010F0F9FE04F130008146FF210A2255
:20267C000C3010F0F1FE15F025FF2946584613F08DFF04F11801E06017F07DFD206AE169AB
:20269C00B1FBF0F2D7B284F83070022FC4BF022784F83070E770B0F5005F04D1E068B1EBDE
:2026BC00473F00D310B901202070FDE1FF2184F83310D846CDF828805D460B950C950D955D
:2026DC000E950F9513950A46109211921292149215924FF40056E68659461691AF4200F33A
:2026FC000B81139E002E3AD10F9E002E28D1B8F1020F25DA0E98022822DA0B9802281FDA29
:20271C000A9887421FD00E9E9EB9B8F1000F0ED10D9E0C9806430FD15D46AF4213DD28463F
:20273C000DF02CFA6D1CEDB2E7786070F5E7012016E0B8F1000F01D1032011E002200FE061
:20275C005D46AF4201DC58460AE028460DF016FA6178E7786D1CEDB201436170F1E7052077
:20277C000028A07000F0B180401E70D0401E00F09280401E1DD0801E40F095811498FF28E4
:20279C0004BF1598149084F8330094F833200C2684F83120D019401E90FBF7F17943401AAC
:2027BC0084F8320012FB0690808BE08609F080FC87E0002F08BF5D460BD009F10C01384666
:2027DC005D4611F80C2FFE2A03D0401E05F10105F7D1AF423ADD0C2084F83C5015FB0090FD
:2027FC00817E84F83D10C07E84F83E000BF0D2FFE2782D1895FBF2F050432D1AE8B284F830
:20281C003200401C90FBF2F15143401A84F831007C2014F01DFFFF2810D17E2014F018FF88
:20283C00FF280BD1FF2014F013FFFF2806D1782014F00EFFFF2808BF94F8310084F8330043
:20285C000C2110FB0190808BE0864FE0FEE71098129E84F83200FF2E00F1010090FBF7F176
:20287C0001FB07F1A0EB0100C1B284F8311008D11198FF2804D10C20129111FB009005E0BE
:20289C0012901299880000EBC100484484F83310808BE08607E1DDF8408008F1010084F8EC
:2028BC00328090FBF7F17943401A84F831005FFA88F00DF063F96070FE215FFA88F015F025
:2028DC00CDFD584603F0AAFAEDE084F831B0781E594684F832000C2684F833B011FB06909D
:2028FC00808B7E21E086584615F0B8FD94F83200FE2115F0B3FDD6E00C2115FB019706AA87
:20291C000423690317F03CFC069807F11606010EB1F1960A18D1C0F38541C0F3014040EA46
:20293C008100022810D187F819B09DF818003070FF223A769DF81930FB75284613F0B6FA1A
:20295C00B8836CE0741F00202846594607AA16F037FD2846012108AA16F032FD2846022121
:20297C0009AA16F02DFDDDF818C00CF0FF010CF0FF00FF2909D0FE2907D07E2905D07C2994
:20299C0003D0782918BF702909D15FEA0B0706D1CCF38541032908BFBAF1000F1ED028469D
:2029BC000DF0ECF80746002FE068677038D1690306AA042317F0E4FB2846594607AA16F089
:2029DC00FFFC2846012108AA16F0FAFC2846022109AA16F0F5FC069800F0FF0030709DF8A5
:2029FC001900069F9DF81E307070C7F30140F070BDF81C004FF6FF718142B37002D1284632
:202A1C0013F054FAF0809DF822003071BDF8207037819DF826307371BDF824207281E06881
:202A3C003178FF2936D0FE292ED07E2926D07C291ED0782917D0702910D0A52908D024295A
:202A5C0004D00F99491CC9B20F9127E0159500E014951399491CC9B213911FE00E99491CE9
:202A7C00C9B20E911AE00D99491CC9B20D9115E00C991295491CC9B20C910FE00B9911950B
:202A9C00491CC9B20B9109E008F1010710955FFA87F803E00A99491CC9B20A91E7786D1C4E
:202ABC00EDB21BE66070607817B0BDE8F08F70472DE9FC47D14C0F460546F80B80F0F68110
:202ADC006078DFF83C83B90F80F09C81B90880F08E81F90A80F0F980390B80F0C5803809B1
:202AFC0007D2F80FC0F01A8227F0804712F0B8F814E217F0F0FB814616F0D6FA002800F061
:202B1C00AD80082017F0B6FA002840F0A780802017F0B0FA002840F0A18068460EF0E8FEB2
:202B3C00012803D10098002800F0988000250126E8B216F0E1FF48B1837A3BB1867290F985
:202B5C00090006FA00F0C0B214F046FE6D1C032DEED30320207504F1B40017F0B8FB484683
:202B7C0017F0D8FFCF4800252A460168056050F8081CCD4940F8085C04F1380016F0D4F9C3
:202B9C0040460068006B8047A168401A010BE069C1F1FF3282422CBF08444FF0FF30E061B4
:202BBC0094F8200020B12069E169B1EBC02F25D916F08AFA294600B13146081C1BD0D448D4
:202BDC0040F6090101804580417B06F00F0221F00F010A434273017B05F00F0321F00F01C9
:202BFC0043EA010202732946416017F001F9418811F4406FFBD084F82060E56113F05AFC20
:202C1C00CA4829460560022016F02CF8022015F0F1F911200CF0C6FD207818B960684830BC
:202C3C0017F071FBC248007810B90E200CF0BAFD94F8210020B184F82150052015F0DAF971
:202C5C00BC48A0612575B4F98C00B4F98E10884214BF0220072010F0EFF802E0484617F0F1
:202C7C0059FF27F0080741E720B1042015F0C2F900206070656814F093FD38B12846ED69DF
:202C9C006FF4807100224FF00073A847E06858B140460068006B8047E2686168801AC860BB
:202CBC00000BC8600026E660A34904F13800002216F03AF90221A06F217518B104F580706B
:202CDC0017F035FB27F4006710E717F004FB064616F0EAF9216F0028894600F0828000294B
:202CFC007FD09649042504F138000022257516F01BF9304617F00EFF04F1B40017F0E7FA43
:202D1C0040460068006B8047E0604FF0010884F80180284615F086F9D9F810006060D9F88E
:202D3C001000416AC90803D3036A294600229847404612F0ABF9606880F81580606809F076
:202D5C00CBFF6568D5F808A040F60A02D01F564600F1010C00E01E46736833B119888A4210
:202D7C0003D0884218BF8C45F5D100217160727B08F00F0322F00F0213437373D9F80C20E7
:202D9C001288904224D06046904221D02B8E03B3696305F13002518095F83C0001F00F034E
:202DBC0020F00F00034385F83C3095F83D0008F00F0320F00F00034385F83D307260707BC9
:202DDC0001F00F0520F00F0045EA0001717300E0E160504617F00CF85146404615F042FF7A
:202DFC0002E0304617F096FE27F4806796E00AF0C3F9A06F08B927F002078FE0F8250020FA
:202E1C008C0100104E4A116841F08001116020B1042015F0EFF80020607017F05CFA8246CF
:202E3C00D8F85400016804208847D0B1287DC0B1A068B0B18146D8F800002E69006B804796
:202E5C00A0EB09002861000B2861B04202D280194008286140F6C41181422CBFB0F5967F02
:202E7C002961504617F056FE14F09AFC78B1EE6928466FF4807100224FF00073B047206F85
:202E9C00002808BF47F0020701D011F0E9FE2846AD6900214FF080630A46A84727F00057BA
:202EBC003CE0C046141004402958010017F013FAD4F8886076B306F1280106C90A234FF09E
:202EDC00E0450B40154008BF002B23D106F1280191E8000306F1280595E8060006F12803C6
:202EFC0022EA090221EA080183E8060017F012FEB16889B1B9F1000F08BFB8F1000F0BD09D
:202F1C003069B6F93010B5684B464246A84703E0D434002017F0FEFD27F4804727B104F528
:202F3C008070394617F003FABDE8FC87000004604AEF0100D1E5000021DE0000A590010051
:202F5C00CC2108402DE9F04F0F46780689B027D5DFF8F8231078002117F0BCFD04001FD075
:202F7C00DFF8EC0301688847054616F031FF6168884204BF40F2014017F0A8FD002020728F
:202F9C00201D0EF0F5FFDFF8CC130A6828469047204614F025F9FF223C21204617F092FD77
:202FBC00B80604D50DF0DEFD87F02000CAE1F8070CD516F00DFF30B100218160DFF89803FD
:202FDC00006800B1804787F00100BBE1380704D507F01AFF87F00800B4E1F8060FD50021A2
:202FFC00002200230691059204910393029101920091022017F062FD87F01000A2E1B8070F
:20301C000FD500210023069105910491039302910191009101223C2017F050FD87F0020012
:20303C0090E179074FF01E08CC4EDFF834A340F1CF80CC480022002108920791007817F0CE
:20305C0049FD0446C8488178FF2904BF002015F0E1FAA07A16F014FD05469AF8000095F835
:20307C002E91002805F5947B69D0606D807A022818BF032807D130680D3017F01BFD10B983
:20309C003068C11D07915946484617F00FFDA0B3606D807C3368002818BF012804D11946B3
:2030BC00584617F0FFFC04E05A464946184617F09DFDFF2843D018FB00F8306840440622B9
:2030DC005946C01D16F022FD306810F80810404400F1010BC01D41F0020908900622616D53
:2030FC00C87A00F0010085F82E01606D00F10C0105F5947016F00AFD21E05946484617F0CA
:20311C00CDFCE0B130685A46494617F06FFDFF2815D018FB00F8306840440D3017F0CAFCC2
:20313C0058B9306840440D3017F0C4FC002801BF30684044417F012901D149F0020905F148
:20315C002C004B46017806914289120905920122698C0491C0880899029140080390CDF840
:20317C0000B0079801900020A97917F0A7FCD5F89C017E498842A8790CBF0021012117F036
:20319C0089FC7B49AB790A6838204343134401225A70AB790C68434323449A70AB790C68EB
:2031BC0043432344DA700C68AA79231D424301249C54AA79096810FB02F00844002141719B
:2031DC000122A97907200FF0D3F887F00400B9E038060FD5002100230691059104910393CB
:2031FC0002910191009101223B2017F067FC87F08000A7E0F8045DD55E4930680C680D3079
:20321C0017F058FC002844D13068C11D0D3017F03DFC3EE0606D4178480704F13E0526D5E1
:20323C00287802281EBF03286878012830D16978306804F1380217F0D9FC8146B9F1FF0F93
:20325C0015D0306818FB09F948440D3017F032FC68B930684844C11D0D3017F017FC3068B0
:20327C004844C11D062204F1380016F04FFC2878022818BF03280BD130680D3017F01AFC88
:20329C0030B93068C11D062204F1300016F03EFC2468002CBED13848DAF8042000784FF4AE
:2032BC00805113F09BFC10B18E2017F0EBFB87F4805047E0B80505D516F08EFE2F490120F7
:2032DC000860FEE7780504D50AF013FB87F4806038E0780405D5812017F0D4FB87F48040AC
:2032FC0030E0B9042DD5264C206810B1002015F091F94FF0FF3020600020224C0FF07EFB85
:20331C00216851F8202F684690471F494A6B086BC96A24681D4B019200900293ADF81010B7
:20333C006B461B4A1B491C4803921C4A079225681B4AA8471B49086005F004FF87F400508F
:20335C0000E0002009B0BDE8F08F00BFD50F0020D81D0020DC1D0020480F0020680F002075
:20337C00880E0020D70F0020780E00204DE50110583500204C0F0020C70F00207C0520438A
:20339C00380F0020200F0020D41F0020CD9D0100DD9D010090240020280800201EFB0080A5
:2033BC00EC0A00201C0F00202DE9FE4307460025B978DFF8346410293CD8DFE811F0110001
:2033DC0002020202020202023C0048000202020265018E007900B60102023B017C01FA0159
:2033FC007878002826D117F049FB044617F042FB064617F03BFB8DF8000022461021022000
:20341C0015F010FB32461021032015F00BFB6A460121042015F006FB9DF80000012818BF18
:20343C00032807D1012017F01DFB02460621062015F0F8FAC5E178780028FBD1F8783B7BF1
:20345C007A89391D00F00100FCF75AFEB9E1B888FDF754FC17F002FB0028F7D1307C0128D4
:20347C0008D1FDF7F5F8F06935740422002116F061FB17E0707C012803D1FDF78AF975748B
:20349C0010E000240AE0F069E7B2C15D012904D1E0B2FDF7EEF8F169CD55641CE0B2B179DF
:2034BC008842F0D3502015F05FFEFDF77CF888E117F0D0FA00280CD0706900281CBF0468A3
:2034DC00002C07D0386900907B7B3A7B7989F81CA04775E17889012168E1787800240028F6
:2034FC0040F09180B879C10740F18D800822002101A816F01FFBB88817F074FB04005ED03C
:20351C007D69002D00F065810622002105F1110015F0C7FE00B306220021284615F0C1FE5E
:20353C00002818D1287C00F001084FF0000909F1010985F8119000200090002300224146DB
:20355C0005F111000CF08AFF00285FFA89F040F03B810028EBD13AE17D69EDB1287C00F0C6
:20357C0001008DF80A00062205F1110101A816F0CDFA6079012805D10622A11D04F10C003A
:20359C0016F0C4FA062205F11101A01D16F0BEFA287C40F002006071B879410720794CBFDC
:2035BC0040F0020000F0FD002071B879010720794CBF40F0200000F0DF00207106E0FDF7D8
:2035DC00BCFB18B1307804210CF086F8B9799DF80B00890801F0010108438DF80B00B979A5
:2035FC000A074CBF0821002108438DF80B00394601A8FCF7C6FE0400B88802D1FDF72CFB5D
:20361C0001E0FDF77BFB706900281CBF4368002B0FD07A78B888012198477878002808D18E
:20363C00B879C10705D57369B88822465C680321A047C5E0787806281BD1B88817F0D2FA86
:20365C00B8B1B17B012904D013D3032907D00CD30FE04179B8880022FDF7C3FA09E000222C
:20367C00002140F2094003F0D5FEB888052117F0EDF9706900281CBF4368002B03D07A7802
:20369C00B888022198479BE000950023F97801AA01F00101381D0CF0E1FE0028F3D19DF8D9
:2036BC00043006204343253307F10C020421D8B215F0B8F984E0706900281CBF4368002B35
:2036DC0003D0B888002200219847707810B9B88805216BE0B88817F085FA040071D0B87AFA
:2036FC00C10712D5009500236179002201F00101A01D0CF0B3FE00281EBF607900280128BF
:20371C0003D0F868C0F3402028B1307B022807D1B87A010704D4B888032117F093F950E088
:20373C006179B88807F1080228E0BD8897F80C80284617F057FA040042D017F08BF900285A
:20375C003ED100900023617901AA01F00101A01D0CF084FE28BB9DF80400FCF710FF08F062
:20377C000C01042911D008290BD00C290FD100F0090109290BD0617900222846FDF731FA61
:20379C001EE010F0090102D1F5E7C107F3D501220092A37C9DF8041002462846FDF7C8F9DE
:2037BC000EE070780028E6D10521284617F04AF906E0FDF7C2FA18B1307804210BF08CFFA8
:2037DC0001252846BDE8FE8300287FF4C5AE002078610622607900F001008DF80A00A11DCD
:2037FC0001A816F093F9D7E6E41C00202DE9FE4F0546DFF8BC03DFF8BC630278002A44D0A3
:20381C00052A52D0062A54D0072A18BF082A00F0CC80112A40F0C481DFF89C33187800216A
:20383C0017F058F90446606D407810F00C0F2CD0216DC0064CBF886CC86E0622016801F122
:20385C000805A91C684616F061F9287800F00F0105291AD16946C0F3801017F027F9002872
:20387C0013D03168684617F01DF90546316804F1380017F017F985420DD0606D4178C806C5
:20389C0004D440F2014017F021F98FE1607B40F0020060738AE133681E20454358190622EB
:2038BC006946C01D16F032F980E1012017F0C6F87CE1C24D286817F0BDF80400F8D02079CB
:2038DC000328F5D1207A00F00F01072937D1BC4800684169497A4A1E11425ED0617A04F177
:2038FC000A035A5C02F03F02252A56DBA17A8A09012A52D111F03F0F4FD0007C16F0C0F892
:20391C00E17ACA074CBF04F1110204F10B028B0748BF921D0B0748BF921CC90648BFD21C77
:20393C001621127852094A43A6498B180A31EB608A5A428699898186DA89C2862DE000F02D
:20395C000F00082829D1A17A880926D129B39C480168087C16F094F8E17A074688071CD508
:20397C00062201F001015143601800F10C01684616F0CCF8207AC009FF280ED0694617F070
:20399C0095F850B1306800F10D01684617F04EF818B90521384617F0CDF8207903281CBF0B
:2039BC00002014F037FE286838E0DFF81C9299F80200FF2834D016F063F8804608F16C0714
:2039DC00786817F037F801900179032901D0280026D001987D4A836893F800A00AF003001C
:2039FC00009038215FEA8A6008D5146898F8060004F10A0C484301240CF80040009860B1F8
:203A1C00146898F806C004F10A0011FB0CFC84442C009CF8000004D018B9786817F002F897
:203A3C00C4E05C7803F1020B98B11BF8010B00F01F038CF81A30800998F80630126811FBD4
:203A5C0003F1114481F82500404608F0E1FE002DE6D10098032808F2171519D0A4B138784B
:203A7C0068B108F1F400017801290DD1504A1178072904D0082904BFC078012804D13D21F4
:203A9C0001206970287091E051490A78012AFAD098F8940078B3241FE4B25B46224651462E
:203ABC0040460FF053FB00281EBF4A490878002807D101203D2128706970306816F0AEFFC4
:203ADC0074E0454801688847064698F80610D9F804204FF4D07041435018002280F841215F
:203AFC0008F59E700168807949080FF013FE3B490A6830469047019800218160009803283B
:203B1C0019D03748416909788A0709D541690878C1074CBF0320002000191BF8000000E03B
:203B3C00812038722246009B99F80200DBB2594607F0E2FE2CE09BF800005FEA8A6103D5DA
:203B5C001B2804BF022C01241C2803D225490B5C9C4205D0A8700721404616F05BFF14E035
:203B7C001348017808295946404607D102F0A4FA58B95946404616F049FF06E000F0E8FB5A
:203B9C0018B95946404616F03DFF584612F0EAF8786816F047FF0199404616F02FFF05E0EA
:203BBC00002014F037FD862016F024FFBDE8F78FC80F0020680F0020D50F0020BC0A00201F
:203BDC00540F0020E0070020780E002058350020D20F0020DF350020D81D0020DC1D002089
:203BFC00FCF001009CF101002DE9F04FD84C94F90E02ADF1340D0C90D4F8E00190F8AD10AB
:203C1C00B0F8640104F16805B0FBF1F0C1B20A20B1FBF0F707B90127D5F8780104F012FD2C
:203C3C002046D0F8E011002305F5C47591F8AD100B9500F1680400E05B1C994200F39D816D
:203C5C0094F87D21002A00F08B80521E49D0501E40F09B81642015F08BFE0546D4F8780114
:203C7C00D0F86081B8F1000F36D0002D00F08D81B0F8640100272F804010298868806888DA
:203C9C00401A1028D4BF87B21027281D7FB141463E460A7902710A68026091F90530761ED6
:203CBC00024601F10C0102F106005371F1D1780000EB870001212A46001D83B208200EF02E
:203CDC00BBFC2888BE00C019288006EBC7008044298868888842D3DC002D00F05681A846AA
:203CFC003AE0D4F8780104F5C476172390F8AD7035680B9603FB07F11FFA81F913FB07F06B
:203D1C0080B215F035FE5FEA000800F03E81EFB10C99A5F12000454630F8202F2A8082698B
:203D3C0000F10806C5F8132096E80C00AE1C326000F1100273600CCA05F10A0632602A46DE
:203D5C0091747F1E736002F11705E5D10720012142464B460EF070FC404613F08BFE14E13A
:203D7C0004F5C8734FF0000C1F788DF829C087B9944F04F5C6746646B14200F3EB8001212E
:203D9C001970D0F8E01190F8E52191F8AD1000F1680404F5C678D2B994F88021012A16D193
:203DBC00624612E0D8F80010D4F884415301C918E418E8C9E8C46AC984E86A00D0F8E0118C
:203DDC0000F16804521C91F8AD109142EADC6546A9424FDC68460AF08DFF94F880010128F2
:203DFC0029D194F88101002800F0CF80401E84F88101C0B2002840F0C880D4F87801B4F8D9
:203E1C00827190F8AD0021F0FF0100F0FF000843D4F8841167F31F4010F01CFB01218DF83B
:203E3C0029000DF129020B4626200EF005FC022084F88001A9E002A803C85CA20CCA0AF093
:203E5C005FF80646B4F882010D4615F0ADF90B4602462946304605F01EFC08AA0C9F10601C
:203E7C0009238DF8287006205160012108AA0EF0E3FB8AE00B9968010E68D8F80040315ACE
:203E9C00215236182418B06906F10807A06197E8030010F0CCF900EE100A10EE100A13F07F
:203EBC0043FD0FF2101B9BE80C000AF029F881460F4604F1080003C810F0B9F900EE100A32
:203EDC0010EE100A13F030FD0FF2F00A9AE80C000AF016F80B4602463946484605F0DBFB7C
:203EFC00103604F1080282E8030096E8030010F09EF900EE100A10EE100A13F015FD9BE824
:203F1C000C0009F0FDFF07460E4604F1100003C810F08DF900EE100A10EE100A13F004FD69
:203F3C009AE80C0009F0ECFF0B4602463146384605F0B1FB04F1100686E803000448D0F834
:203F5C00E001034C90F8AD106D1C683440E7C046E00F00200B99226809687501521949198D
:203F7C00B1E82043A2E8204391E8224182E82241396891F8AD10761CFEE62A46126802EB5F
:203F9C004312926997427FF657AED4F8780114F02EFCD4F878110B9891F8AD1000684A01FE
:203FBC0000210FF051FA0DB0BDE8F08F0000000000C03240666666666666E63F3433333311
:203FDC003333D33FC01100202DE9F84FDFF848730446386808B907209CE1C07A012804D0E7
:203FFC00042013F0E3FD012801D10C2092E1CB480078092818BF0A2804D00B281CBF0C2829
:20401C000D2801D1212085E1002C05D0207810B101280BD102E0E01C00F0B480A078002835
:20403C0018BF012804D0022818BF032840F0AA806078002818BF012803D0022818BF03280B
:20405C0072D1607A10F0050F6ED000210022607A01238B40184232D004EB021043F6FD75C1
:20407C0043891E1FAE423EBF8689A6F1040CAC450FD2B34222BF038BC58AAB420BD3C389DC
:20409C0040F67B459E1FAE423EBF068AA6F1060CAC4577D29E4275D3458AB5F5FA7F71DA8C
:2040BC00808AA0F10A0640F6774C66453FBF6D1C5B006B43B3EBC00F64D2521CD2B2491C0B
:2040DC00C8B20228C3DD39684869417A022904BF002014F09FFA38684461617A06299049A0
:2040FC000CBF01200020087016F080FC050008BF09200BD03A68A9791174E01C07D0A27898
:20411C00E11C402008F0AAFF08B10B2002E105F16101284616F066FC05F12C06B07B012814
:20413C0003DC28460EF026FC2CE039686078DFF8F481DFF8F4B1DFF8F491DFF8F4A18872E7
:20415C006078002818BF012807D1C0073B6854BF594641460622181D3FE0DAF800000D303D
:20417C0016F0A8FC30B999F80010002904BF2078002812D16078C10754BF5946414616F081
:20419C008DFC08B91220C5E06078C107386854BF594641460622001D0EE0DAF800003B68C1
:2041BC00C11D0622181D15F0B1FC62480168DAF8003008680622D91D15F0A8FC6078DAF800
:2041DC00001000F0010008706078C107DAF8000054BF594641460622401C15F097FC2078EB
:2041FC0070BBA07885F82E0105F594780622E11C404615F08BFCA178DAF80000E21C01F09D
:20421C00010116F0F3FC0146FF291CBF99F80000002815D0A07840F0020085F82E011E226D
:20423C00DAF8003051431944487F48B901F10D0016F040FC20B906223F49404615F066FCF0
:20425C0016F0CCFBA86215F03FFA686204F1100133480078000104F114030A5AF280195A14
:20427C0071812044428A328102223868417C3170B2700020B08015F088FF0C2290FBF2F290
:20429C000C2101FB1200401DF07304200BF070FF39682A4A2A4B086042608361294A4261EB
:2042BC000120C872A87916F095FB99F80000002801BF386841690A78012A0ED1807A02285D
:2042DC000BD1DAF8001001F10D0016F0F3FB20B91D48417941F004014171104C2078C0B9C4
:2042FC0099F8001049B11948006816F06FFB38680068816941F4802181613868007C0DF00B
:20431C00EDFD06202070012200210EF031F8FDF775F90020BDE8F28F540F0020C80F002054
:20433C00D90F0020480E0020400E0020880E0020680F002070350020006E0210040C0020B3
:20435C000200808011670100BC0A00206C0F00202DE9F84185B0044611F801CB0020382228
:20437C00BCF1030F04F5A47704F1660504F1F406DFF81883C64B00F0B380BCF1070F00F0A6
:20439C006381BCF10F0F0CD0BCF1110F00F00E81BCF11A0F00F01F81BCF11B0F00F0448138
:2043BC0071E1707A820703D40F2184F8191157E008784A7800EB02233B808878CA7800EBFE
:2043DC0002237B8008794A7900EB0223BB808879CA7900EB0223FB80087A38724A7A887A51
:2043FC0002EB00237B81C87A0A7B00EB0223BB81487B8A7B00EB0223FB81C87B0A7C00EB7A
:20441C0002233B82487C8A7C00EB02237B82C87C0A7D00EB0223BB82487D897D00EB0122D6
:20443C009C48FA8201788A0658BF1A2212D504F5AA70049079890391387A02902189019100
:20445C00F8880090BB887A883988204616F0BAFA70B11E22707A410708D40F2084F81901D6
:20447C00204616F0ABFA002837D1D6E00F21C3E004F18600798881800023BA88C28002220E
:20449C00F988018102704380A18EC91DE983628E8188B1EB520F02BFC188A28E914202BF83
:2044BC000089E18EB0EB111F18D0287C012804BF687C0F2805D0687D18B10F21A976FE2199
:2044DC0070E0FC21204616F0A5FAF8880090BB887A883988A07916F06DFACEE0102161E08C
:2044FC00707AC20709D431781A200129707002D1FF220D213AE00D2154E000202870A871B4
:20451C0001233371082204F1B00016F04FFA0146022204F1B80016F049FA04F1A80801464C
:20453C000822404616F042FA07460821404616F039FA04F19C0804223946404616F036FA3E
:20455C000421404616F02EFA04F1A00016F026FA04F1980016F01EFA4F48018841F080012E
:20457C0001803078012805D1FF220421204616F00DFA82E06E7C0F2E18BF142E03D00E2E8D
:20459C0018BF0C2E0DD12F7C204616F0FBF90421204616F03FFA012F12BF3146AE76FD2181
:2045BC0000E00421204616F035FA66E00D783D761A2D4978797666D11868A579811D5543BF
:2045DC00002048551968A37912FB03F20A445072A179787E4FE0A679186809785643064411
:2045FC0001F01F0516F82D0F890918B17078C840C70705D420221A21204616F0BFF93CE091
:20461C00F5701868A37912FB03F20244204682F82F10002109F056FF78BB98F800004FF4A1
:20463C0080410BF059F828E0A179186851430144888908B900258D71A179186812FB01F247
:20465C0081180020487218E009780F2917D01A2919D1A17918685143014400208871A17960
:20467C001B6812FB01F2991848721A20F17A01F0FB01F172A1790EF039F9012003E0717A02
:20469C0001F0FD01717206B0BDE8F081C70F002058350020200E00209C0F00202DE9F04F4F
:2046BC000446C94DA1792878ADF1340D012902D1022840F07481CA4994F9007066788A69B8
:2046DC00002817738B46567300F09080401E5FD0401E40F03F81872015F04AF9071C00F095
:2046FC0039816078B87094F9000038706088B74EA7F80500DBF814104FF000088E4208BF49
:20471C00012004D0B24888420CBF022040467870C246A7F803A0B7F80500B7F803104FF06A
:20473C000709401A202802DC86B20EB915E0202635465046E36800EB080111F903C08200F4
:20475C00BB18A3F809C02369C9566D1E00F1010007EB0203A3F80710ECD109EB860083B2C9
:20477C0001213A4624200DF067FFB7F803008019A7F80300B7F80500B7F8031008F1200553
:20479C001FFA85F88842CCDC384613F073F9E1E0E06800902069019021796279E37960889C
:2047BC0002F0F4FB6868817B012906D0A868817B012940F0F880022200E00122416800235F
:2047DC0083738DF808708DF80A608DF8092031F8020BADF80B0031F8022B0DF10D0525F8C4
:2047FC00022B0988252009232980AFE0E06800902069019021796279E379608802F0C6FBD8
:20481C006868817B012940F0A580AE68B17B012940F0A08000218173B1734268B2F9027075
:20483C00B2F90020D21902EBD27E8768427B7368BA5602EB6E0217B2B3F90220B3F9003002
:20485C009B1803EBD3735A10C2EA0747B368727B9A562D23C3EA0242A7FA02F36FF02C0790
:20487C000FFAA3F207FA83F30FFA83FE03685F681B688446DB195B081FB2336890F90C00A6
:20489C00D3F804801B6843445B080FFA83F896F90C30834204DB02237246B446474600E009
:2048BC000123287E05EB40008281AA83AB769CF90C00A8772F849CF80D0085F82200ADF839
:2048DC0022202A7EA88B05F10C0626F81200687E0628AEBF0620687E401C69626876084687
:2048FC006A7E824253DC686A90FBF2F02885287E0428DCBF401C011C2E8C297695F82230B7
:20491C00ADF8266095F91E708DF82830288D8DF82470AA7EADF8200008A98DF829200CC948
:20493C0004AF0CC709883980BDF810009DF81820ADF808009DF819608DF80C209DF9145093
:20495C008DF80B6005238DF80A502320012102AA0DF072FE237A1D4ADBF814401C491E48D0
:20497C00A2420AD0A1421ED11A49CBF814200127CBF818100021C75406E0CBF814101749B5
:20499C00CBF818100021C1548BF820100BE036F910306A6A401CC0B2D2186A62A0E703A04B
:2049BC00012113F00FFF0DB0BDE8F08F524157205246206F6E6C7920696E20414F415F4DAF
:2049DC004F44455F52415700982200202C25002034250020702400200020024080240020FC
:2049FC003C230020C9480278112A00D070472DE9F84FC74A1078002116F06CF804000AD16F
:204A1C00002013F007FE002013F004FEBDE8F24FFF2015F0EFBF04F14C0999F8000008B9D9
:204A3C000121E172401C89F80000C2B2E17DD9F804608A4229D2D9F808104A7AB17B277EBC
:204A5C000120A1F1250300FA03F3A7F125018840184322EA000000F0070012F015F8253027
:204A7C00B073A18BB06800EB8100B060607DC1060AD5628B99F80010A08B00FB1121B068B6
:204A9C00A63100EB810030663EE104F1280706F1900806F173054FF0000A4FD1A17F697579
:204ABC00E07FA875D9F808205278930710D5E27FD30604D5C91E697500F0EF00A875C6F88A
:204ADC0074A085F800A00022A97D01F0FE0116E1910608D4F88B00B1F87E2876F88B00B16B
:204AFC00386AC8F80000D9F808004178CA070DD5F88B00281CBF386A002807D0C8F800000C
:204B1C00B97EF88B814238BF08462876E07FC1060BD5B06B397800EB8100B063A18CA631C4
:204B3C0000EB81007067022002E0C6F874A0002028700022E17F01F0FC01E0E0D9F808205F
:204B5C005278D30717D5A87D697D00F0F700891E01F03F0182075CBF891D40F0020042061B
:204B7C0044BF491E00F0BF00A8756975C8F800A085F818A0C8E0401AC0B2009090077AD586
:204B9C000098012806F1400B3FD1B06BA18C00EB8100B063A07F00F03F00A0776875E17F7D
:204BBC00A975D9F8082053785A0704D5801F687501F0FD01A9750023697DFA7E9BF8000020
:204BDC0001F03F018A18521CC0F3800192B200F0030015F0CFFE00F59B70A0841E21A08CAC
:204BFC0090FBF1F18AB2A97D01F0FE01204615F0BDFE85F800A0F88B00B1F87E2876F88BCC
:204C1C0000B1386AC8F800007EE00228B06BA18C00EB8100B06326D1E07FC10706D5687D38
:204C3C00811F6975A87D00F0FE00A8750023697DFA7E9BF8000001F03F018A18521CC0F3A2
:204C5C00800192B200F0030015F094FE00F59B70A0840022A97D01F0FE01204615F086FE9E
:204C7C00787FABF81A00797F0098491C081AC0B2012814DD0BE0B06BA18C00EB8100B0630F
:204C9C00797F0098081AE17FCA06C0B207D5A28CB16BA63201EB820171670221297098B358
:204CBC00D8F8003097F81BC0E27FA17F6344C8F8003052084FEA4208D9F80820527853075C
:204CDC0048BF28F00208920748BF28F00808012807D1387F2876C6F874A028F0100885F8F2
:204CFC0000A001F0C006404615F03CFE00F03F003043687585F81680002208F0FC0120466D
:204D1C00BDE8F84F15F032BEBDE8F18FC80F0020D50F00202DE9FE4F0422FF2101A814F020
:204D3C0009FFB84988780024FF2800F0688114F0A7FE054605F217100178012908BF4178F5
:204D5C0000F0B68005F1740005F59276817B022904BF05F174018C73F18911B1307B0AF070
:204D7C00BBFC6889A84F2881FA79BB7A397BF87A97F80DC09B185B181B1805F58D7903EB5E
:204D9C000C08B9F800C0B9F80430C4445B1CA9F800C0A9F8043097F80AC0B9F802306344F5
:204DBC00A9F8023033683BB3DFF860E2DEF800E00EF10E0ACDF800A04FF01C0A95F806B088
:204DDC001AFB0BFADDF800B01BF80AA033F81AB0C34423F81AB00EF10E0A95F806B04FF0E1
:204DFC001C0E1EFB0BFB1AF80BA003EB4A03B3F84AE0F444A3F84AC0002A08BF002804D1B6
:204E1C00002904BF787B002829D02989E8892C744118287FA981012804BF688CE883A9791C
:204E3C00012207200DF0A4FAA246787868B10121297705F174018878002804BF887B00283D
:204E5C0003D1087F08B9688CE883307D002837D0022804BFF87A00282ED1347530E0A9797E
:204E7C0007200DF085FAEC83B87A40B1297F2C7401294FF0010A09D1688CE88306E0B9F855
:204E9C000600401C4FF0020AA9F80600A8892989814206D08842C8D2081A41F2AB029042EE
:204EBC00C3DA287C08B1052901D0082100E03E21284615F03FFEA2E0787A08B102213175CF
:204EDC005348F97B0068CA070AD52A683969D160143001F59071D160A9794901445011E0CD
:204EFC00AA7900F114015201885830614748AB7901681C2001F1080243432968D058C860EE
:204F1C00EC832C77434A50690078810702D5B87B802800D1812005F17406514630702846E4
:204F3C0006F0DAF828460CF069FA02281BD1F079022805DB01AA3849284610F047F8044614
:204F5C00284615F00BFD012859D020000DD0224601A9284610F0DCFE38B928460CF04EFA6E
:204F7C00012802D14BE0012849D00121284615F0F1FC284615F0EAFCFDF7DAF801283ED0D4
:204F9C0028460DF017FFFCF739FB244FB988386810B1AA79914203D04FF6FD7081422ED1FB
:204FBC001F49087B14F04CFF040028D084F800A0A879608095F83910217195F89601607125
:204FDC0096F90010A171A4F80880B9F80200608114F0FEFE050005D1FF204FF0FF31207350
:204FFC00216109E02878207315F0ACFD0146A86815F0A8FC80082061204639688847BDE8C5
:20501C00F78F00BF780E0020980C0020980E00209C0E0020FCF0010074200020800E0020E6
:20503C00A02400202DE9F84F8AB083460C4600208DF800001646B849C87981061A4602D5BD
:20505C00B6488178880640F163811D98169B199D1E9908B900250CE059B9012B0CBF4FF0AD
:20507C0040094FF020094D4503DB012B0CBF40252025DDF86880DDF86C90C6461EFB09FE98
:20509C0015FB0EF5AFB24FF0600A97FBFAFE0AFB1E775FEA070C18BF4FF0010CE6445FFAB1
:2050BC008EF70897AFB20997ADF81A208DF819408DF818609A4F3A78149CDDF854C0DDF8EC
:2050DC005CE0DDF860A01C9E002A72D0ADF860A000279DF800A0ADF81CB08DF850408DF871
:2050FC0054C08DF858308DF85CE01D901E910899F8B2884279DAA8B26028ACBF4FF0600BF7
:20511C00AB465FFA8BF02D1A4000203080B213F0F1FD04004BD0912020703E218122617081
:20513C00A2705FFA8BF20998A080A7714B46BDF81C0020819DF81910A1729DF81800E072BF
:20515C00BDF81A10A1819DF85000A0739DF85410E1739DF8580020749DF85C10617404F1A1
:20517C002001BDF86000608284F814B004F12000A06184F81580881884F81690E675E06136
:20519C0005904246A0691E9904900391CDF804A000961D989DF8581002905FFA8BF003F0E4
:2051BC003FFB82465E480078214606F09BF97F1C9DE78DF868808DF86C908DF870609DF8CB
:2051DC000090DDF82480ADF81CB08DF850408DF854C08DF858308DF85CE0ADF860A01D906B
:2051FC001E9100260899F0B2884280F29180A8B26028ACBF60272F46F8B22D1A5FFA87FA1A
:20521C004FEA4A0000F1140B0BF10B00C0B213F071FD04007AD001202070FF2104F10802D7
:20523C0061706260042010703E22606842708120616881F802B06168C8704FEA2821606861
:20525C0080F804806068417161688E716168BDF81C00C8716168BDF81C00000A087261683A
:20527C009DF81900487261689DF8180088726168BDF81A00C8726168BDF81A00000A08734B
:20529C0061689DF85000487361689DF85400887361689DF85800C87361689DF85C000874B5
:2052BC006168BDF8600048746168BDF86000000A88746068C77460689DF86810017560683E
:2052DC009DF86C10417560689DF87010817560681E9A9DF86C30039200F11701514405919E
:2052FC0017300490CDF804909DF870101D989DF8682000910290F8B29DF8581003F090FA30
:20531C00814608480078214606F0ECF8761C69E70BB0BDE8F08F00BF280E0020200E00207D
:20533C00D8350020D63500202DE9F04FAE4D0020687095F83F10EB7895F83D00ADF12C0DD1
:20535C000918491E91FBF3F25A43891AC9B20691810001EBC0014919B1F84C004FF0805949
:20537C0009F5EC76ADF8140095F83C1095F83C009E4F0790880000EBC1004019B0F84C80D1
:20539C00306895F83D4081683846884700F003000890D9F8D801426800213846904730682C
:2053BC008168384688470028F9D10021079F68780991A74200F09F808B46D946BBF1010FC4
:2053DC0000F08E80BDF81410172964DB002840F09380BDF814006A46C01F81B2ADF814109C
:2053FC0020460CF09BF9BDF80E70BDF81430F81D07F1100186B2994246D89DF80A009628C3
:20541C0042D19DF80B0042083AD2800838D3BDF814009DF80920C01B1FFA80FABDF8140016
:20543C0039462346C01B80B212F084FD10BB08EB0600B0F5005F17DCE868C8F188520AEB45
:20545C00443A3346921B514602F5005214F098FE09F1010908EB06001FFA80F8B8F5005F78
:20547C0008BF4FF0010B0BE0BDF814004FF0010BC01D2DE0BDF81400401EADF8140003E052
:20549C00BDF81400C01B23E0204605A90FF020F901281FD030E0EA78B9F1000F07D0544B64
:2054BC00BDF81470A10001EBC401C9188F830699A14220D04E49641C94FBF2F05043241A87
:2054DC00E4B2A00000EBC4004018808B4FF00009ADF8140007996878A1427FF46FAF0AE089
:2054FC00B9F1000F07D0424ABDF81470A10001EBC40189188F8320B1089814F0D9F81020C0
:20551C006FE04FF6F0704FF40051C8EA0040C8EA01414FF01009E1FA40F087B21FFAA0F1BB
:20553C008A46D7B1202FACBF20263E1C079849460AF18852334611F005F86978BF1BBFB2F7
:20555C0009EB06030AEB0602002F40EA01001FFA83F91FFA82FA6870E4D1089814F0A8F8E0
:20557C000798A0420FD1E978214F0819401E90FBF1F24A43801AC4B2A00000EBC400C0192B
:20559C00808BADF814001A4EA5F84090BDF81400079FA5F84400B90085F83E4001EBC7019E
:2055BC008919A1F81C80B5F9422095F83D100123384612F069FF95F83E10B5F944200223F0
:2055DC00384612F061FFBDF814001728BCBF01200990B8F5005F03DB099840F0020009903C
:2055FC0009980BB0BDE8F08F741F002000400340A41F00202DE9FF47AA48017806294FF0C1
:20561C00010840F04981A84EA84F3068A84C016801F108054FF0FF09297801F00F00072873
:20563C0002BFA8788309012B40F09780002800F09480E878C30707D50622291D684614F01C
:20565C0065FA2878C0F38019E978880737D5062201F001012B1D5143194402A814F056FA95
:20567C002878C009FF282AD002A915F01FFA002800F08F802068807A022818BF032804D111
:20569C0038680D3015F016FA002840F00081386800F10D0102A815F0C9F9002874D020681F
:2056BC00062202A9001D14F031FA707940F0040070710622386802A9C01D14F027FA4846AE
:2056DC00FF2800F0E480694615F0F0F91E25002800F0A8803968684615F0E4F92268014611
:2056FC0050690078FF2900F08280002815FB01F563D1107C14F0C4F990F82E11022918BFCB
:20571C00032901BF3B685A5D01F001018A4253D100F59479581906224946401C13F006FFB6
:20573C0030B906224946634813F000FF002843D020684169386840190622C91C401C13F02E
:20575C00F5FE002838D0707940F00800707106226946484614F0DAF943E011F00F0F1CBFAF
:20577C0001F00F02012A27D10622A91C684614F0CDF92878C0F3801900F00F0001289ED100
:20579C00062205F1080168E73068016800220A7184E02168887A022818BF032805D1386848
:2057BC000D3015F087F9002889D12068807A002818BF01283FF483AF69E039684A5D706910
:2057DC004919491C083815F0B9F83B490A7890425DD03968706949196A46C91D083815F034
:2057FC00A9F83868401906226946C01D4DE000284DD1107C14F044F9074620684069827887
:20581C00914544D1C11C0622684613F08FFE00283DD0707969F3C30070710622694607F54D
:20583C00947032E021684A69107880BB087C14F027F982469AF82E01022818BF032826D1E3
:20585C0038686A46494615F0D1F9FF281FD015FB00F5386841194A7F012A04D00D3040190B
:20587C0015F028F998B120684169386840190622C91C401C13F05AFE48B1707969F3C300AD
:20589C007071062269460AF5947014F03FF9306801680020087101E04FF00008404604B0F9
:2058BC00BDE8F087C80F0020BC0A0020680F0020540F0020006E0210DD3500202DE9F84FAA
:2058DC0005004AD09C480078092818BF0A2804D00B281CBF0C280D2801D1212029E1A8786F
:2058FC00002115F0F7F8040008BF4220F6D0934FA978914A3970107810B9A878904908703B
:20591C0004F14806F068417801F01201022902BF706900280C2012D0607AF0B1A07B012859
:20593C0004D1B5F8030008B1812816DA6878402813DA204614F0FAFFB06808B90720F8E004
:20595C00B561287801281BD1A07B00281CBF0128042815D17B48007808B91220E9E07A494D
:20597C004A78824208BF0920F8D004F1220004F13801427F802007F071FB08B10B20D8E028
:20599C00687808B91120D4E02878DFF8C091DFF8C0A1DFF8C0B1012840F09380207A0021F6
:2059BC00012821734FF00A0811D19BF80000402111F04AFFB5F8030008FB00F1402014F095
:2059DC00B1FF0100DFD1B16968794871B0E001202072E17261730AF0CBFB6060DAF80000DA
:2059FC0080475D4A0146106802E06268426000680028FAD10846D9F800108847616857484F
:205A1C0048610021387811F0AFF93978012211200CF0AEFCF0684178C80605D5204614F079
:205A3C007DFF01000BD084E0002060840CF058FC84F82100204614F06DFF010079D1F06824
:205A5C004178C8071CD504F14207B98800291CBF3068002814D03A788A4211D20F2014F0F6
:205A7C0055FF68B1F06801788DF80010B888ADF801000F2039788DF80310694614F042FFE5
:205A9C002D4F3878002853D13549087800281EBFF068417811F0030F03D03248006814F092
:205ABC0095FF1120387001212172B5F8030008FB00F1402014F036FF01003AD1FBF79EFDD2
:205ADC0036E0207AA8B3DAF80000804705463878012111F049F99BF80000402111F0B4FEFF
:205AFC000020207214F0B4FA012804D014F070F96168884212D112F04DFA40F2014014F086
:205B1C00E5FF19491948086001219BF8000009F0E3FDD9F800102846884709E0204614F05B
:205B3C00EDFED9F8001028468847204611F058FB0020BDE8F28F00BFC80F0020D60F002085
:205B5C00D50F0020D40F0020780E0020DC1D0020D81D0020C70F00204C0F00206176000006
:205B7C00880E00206C0F0020480F002041E700102DE9F14F82B014F0E5FF009041F60301CE
:205B9C00BDF808003225401A4FF0FF3B0328D9464FF0500842F21077DFF844A2914E6FD982
:205BBC001E38012808D9801E6AD0001F00F0D580401E00F0028110E18B4A907813F060FF2C
:205BDC000400F8D0E08E618E90FBF1F77068A17950F83110009814F0B5FE01462089A27938
:205BFC00336ADFF808C2DFF808E203280EDB814C2468382010FB02F014F80090B9F1010F72
:205C1C001EBF201890F82D0001280FD17D436424B5FBF4F47568985C2D1DF14615F83250D4
:205C3C00A54217D2B0B9514529D313E07068041D08FB07F814F83240985C4FF0640BB8FBBC
:205C5C00FBF844454FF0FA6904D218B9DFF8A881414501D3E1460AE0F369985C7D43B5FB38
:205C7C00FBF5AC4202D208B9514508D3F146401C032190FBF1F101EB4101401A9854ACE000
:205C9C005E480078002114F025FF0400F7D0606D007812F04FFEFF280190F0D0BDF80800ED
:205CBC0041F6030188421CBF41F60401884207D041F62301884202BF207D8009012802D103
:205CDC004FF07A7901E0DFF838913068019950F83110009814F036FE226E0146B2F80300E6
:205CFC00C0B1636D93F801C05FEACC6E08D5A47B012C05D1474340F2E24397FBF3FB09E02F
:205D1C00D3F80340474324F07F4440F271204443B7FBF4FB507910B1584538BF83463948A5
:205D3C0081420BD232680198131D642213F8300008FB0BF3B3FBF2F2904202D309F1020944
:205D5C004BE051453FBF05FB0BF56421B5FBF1F1884242D309F101093FE03169009814F019
:205D7C00F1FD024628480368186A41884FF07A6949B1808838B94F43D9698B8840F27120EC
:205D9C00434397FBF3FB1F498A4207D2307D08FB0BF36421B3FBF1F1884202D3DFF86C909F
:205DBC001BE052453FBF05FB0BF56421B5FBF1F1884212D3DFF858900FE0B168009814F00E
:205DDC00C1FD0D494FF07A79884228BFDFF8449003D2504528BFDFF840904846BDE8FE8F4D
:205DFC0081841E00C4320020780E00200200D0070100D0075835002001093D00D50F0020FF
:205E1C000000B80B01127A00500F00200200A00F0100A00F0200E8030100E8032DE9F04F08
:205E3C00A44C8246E07894F8315094F83290BAF1000FADF1140D0146A1F101018FB218BF6F
:205E5C0001214FF0000884F83F10464603964FF0F80B019622E0B1451ED0E06871036A46A2
:205E7C00042314F08DF9009911F4403F03D00198401CC0B2019001F0FF017C2918BF78295F
:205E9C0009D1304606215A4613F0A8FA0C2016FB004080F848B0E078761CF6B2B042DADC03
:205EBC000199401E88425BD0002F04F1300600F0CA8040464FF4005B019094F83F30E0684D
:205EDC0013B9012184F83F106A466903042314F057F9BAF1000F05D00099E07811F4403F52
:205EFC0040F09980009800F0FF00702803D02846702112F0B3FAE0684FEA49316A460423CB
:205F1C0014F03EF9009800F0FF00FE2803D04846FE2112F0A3FA48460621FE2213F05EFA2E
:205F3C004FEA8900FF22FE2184F83C9000EBC900A4F840B0AB0084F83D50801984F83E2094
:205F5C00183001700199029003EBC5008019A4F84410808BA4F84200FFF7E6F9102801D13C
:205F7C000020A4E0BAF1000F0CBF10215146BAF1000F07D0B4F84000C0F50050814207DCEC
:205F9C0001200390B4F84000C0F50050814201DD782100E07C21484612F060FA08F0FAFBB2
:205FBC00054694F83F000621FC22401B84F83F00484613F013FA0298FC21017094F83210C0
:205FDC00E0787F1B491994F83E500C23414491FBF0F24243891AC9B284F83210491C91FBC3
:205FFC00F0F24243891A84F8311015FB0361898BBFB2102905D1691C91FBF0F24243891A9B
:20601C00CDB294F83290DDF80480BAF1000F17D00398A8B117E06D1C08F1010295FBF0F1BC
:20603C007F1E94F83F30A4F840B041431FFA82F8BFB2581E6D1A84F83F00EDB284F83D5038
:20605C00002F7FF43AAF7C2011F002FB0546FF2D1CD17E2011F0FCFA0546FF2D16D194F81C
:20607C0031500C2015FB0060807DFF280AD0E27894F832008018401E90FBF2F15143401A7F
:20609C00C5B203E028467E2112F0E8F90C2084F8335015FB0060808BE08694F83200FE21B1
:2060BC0012F0DCF9B4F84000C0F5005000B205B0BDE8F08F741F00202DE9F84185B00446F0
:2060DC0011F8017B00203822072F04F5A47504F1FD06DFF86082984B00F00A810F2F09D037
:2060FC00112F00F0B7801A2F00F0C9801B2F00F0EF801CE133789A071BD504F17607387897
:20611C00012804BF78780F2808D0787908B17A7812B13A7B012A03D158070AD5232264E09E
:20613C0010B17878012802D0B87E012806D1580702D40F21317751E02A2256E008784A785F
:20615C0000EB02232B808878CA7800EB02236B8008794A7900EB0223AB808879CA7900EB7D
:20617C000223EB80087A28724A7A887A02EB00236B81C87A0A7B00EB0223AB81487B8A7BCA
:20619C0000EB0223EB81C87B0A7C00EB02232B82487C8A7C00EB02236B82C87C0A7D00EB64
:2061BC000223AB82487D897D00EB0122EA8204F5AA70049069890391287A0290218901918F
:2061DC00E8880090AB886A882988204614F0FAFB68B13078410707D40F203077204614F04A
:2061FC00EDFB002830D16CE01E220F2158E06888B882A988F9820221E8883883397400208D
:20621C007882A18EC91DF981B88A618EB0EB510F02BFF88AA18E884202BF388BE18EB0EBE3
:20623C00111F12D0787918B10F21B972FE210DE0FC21204614F0EEFBE8880090AB886A887A
:20625C002988A07914F0B6FB6BE00021204614F0E1FB66E00E782E761A2E4978697666D162
:20627C001868A679811D5643002088551968A37912FB03F20A445072A179687E4FE0A67932
:20629C00186809785643064401F01F0516F82D0F890918B17078C840C00705D420221A2137
:2062BC00204614F06BFB3CE0F5701868A37912FB03F20244204682F82F10002108F002F95A
:2062DC0078BB98F800004FF4804109F005FA28E0A179186851430144888908B900258D7173
:2062FC00A179186812FB01F281180020487218E009780F2917D01A2919D1A1791868514382
:20631C00014400208871A1791B6812FB01F2991848721A20B17801F0FB01B170A1790CF074
:20633C00E5FA012003E0317801F0FD01317006B0BDE8F081C70F00205835002070B5864DBE
:20635C00687913F075FD8549002808600BD00022026002730868C2610262A87913F068FD19
:20637C007F490028086000F0F48000220260C27200200A6810740523086843740022096895
:20639C004A61E87A13F054FD76490028086066D0754C21782878C91C10FB01F080B213F0EB
:2063BC0047FD72490028886059D0207800286DD0698811FB00F080B213F03AFD6C4A002855
:2063DC0050604CD06B482278017811FB02F080B213F02EFD68490028086040D000250AE051
:2063FC00E8B213F0CDFC00214180816001800223037101736D1C2078E9B28142F0D313F085
:20641C0017FD5E490028086029D02078400013F00FFD5B490028086021D020781C2110FB30
:20643C0001F080B213F004FD564A0028106016D02078400113F0FCFC5349002808600ED01D
:20645C002078000113F0F4FC50490028086006D02078000113F0ECFC4D490028086078D0A3
:20647C002078302110FB01F080B213F0E1FC494A002810606DD02078382110FB01F080B282
:20649C0013F0D6FC444A0028106062D0434D444E2978307800EB4100C000103080B213F0E7
:2064BC00C7FC40490028086053D000F10801416030782A7800EB4200C000103080B213F07A
:2064DC00B7FC39490028086043D000F1080141601E212878401C10FB01F080B213F0A8FC1D
:2064FC00324A0028106034D0082013F0A1FC304D286070B3062013F09BFC2968086029682E
:20651C00086830B300204860062013F091FC29490860F0B1A02013F08BFC274D2860C0B15C
:20653C002078C00013F084FC686090B1142013F07FFCA86168B10026207813F079FC05F15B
:20655C001C0141F8260020B1761C022EF4DB002070BD072070BD00BFA0240020500F00207E
:20657C00540F0020440F0020D40F0020FC340020780E0020A721002064350020340F00200C
:20659C005C350020980E00209C0E0020A00E0020A40E0020A80E002058350020DE35002048
:2065BC00DD3500206C0F0020700F0020680F002070350020400F0020C43200202DE9F04F1D
:2065DC0006469B48726900F16801C1F8B82000253561F5603289A1F86C21327E81F8B520BB
:2065FC007268C1F86821327881F8B4203269C1F86021F2680227C1F8642196F8282081F887
:20661C00BC7042F2107B81F86E2196F82920A6F822B0894681F86F21718D86F82170ADF1A1
:20663C007C0DA0F8D81116F11A00804600F0F580B08B002800F0F180F08B002800F0ED8024
:20665C00784C4046026804F1A8010A608088888094F8A800012814BFF08B1020A4F8AE002D
:20667C00B8F80210B4F8AE00484380B2824613F03AFEC4F8B000002800F0CF8098F80000BF
:20669C00012807D1504613F02EFE0028C4F8B40000F0BF803078012805D128460AF0FEFE46
:2066BC00002840F0BA8016A813F0FEF95E49684658220BF0B9F904F1DC00694658220BF003
:2066DC00B3F94FF0FF331693728CA4F81A217168C4F8FC1041F2941017903389A4F8F0306C
:2066FC000E21A4F81411F268C4F8F42084F832703369C4F8F830D4F8B020C4F804213078A1
:20671C0084F8F200D4F8B430C4F8083196F8212084F81F214FF6FF73A4F828314FF0200AAA
:20673C0084F8F3A046F60102A4F8DC20A4F8161194F8E91084F8117101F0F001A4F8125130
:20675C0041F0010184F8E9103F2384F810314FF4C862A4F81821592384F81D514FF4D27227
:20677C0084F81E3196F82830A4F824214FF0010884F8313104F17803A363B4F8AE2084F8D9
:20679C0030810128C4F80C2106D030F002000CBFA4F81AB1281C01D14FF4A560C4F8EC00EA
:2067BC0004F1140104F1240216AB09F1080001F05BFDC9F8B00080B3706A00B160601B483A
:2067DC0029465246A06004F158000CF03DFE94F8F20004F15806012802D0022805D015E052
:2067FC0084F85E70384610F081FEB4F8AE0084F8728010A7A4F8700097E803000836C4F82F
:20681C002C6104F1600282E80300A56609F1080004E0D4F8B00011F02DF928461FB0BDE895
:20683C00F08FC0469019002068E7010041BE0000E00F0020A4AA70F0CC81F85A2DE9FF47E7
:20685C007A4C7B497B4E20700A22002008600D2379484FF40471027043808180774A784825
:20687C001060377877480770FF2F7178417008BFFF29B2788270F378C37035790571767923
:20689C00467114D1FF2A08BFFF2B10D1FF2D08BFFF2E0CD16C490A7802704B7843708A7827
:2068BC008270CB78C3700A7902714979417167490278674D674E684FDFF8A0810A70437873
:2068DC004B7082788A70C378CB7002790A714079634A4871FF2028706870A870E8702871CA
:2068FC00687100205F490880F06B5F49407808705E49F06B0078087013885D485D490380C5
:20691C00F06BC06C3860F06B90F83C0008705A49F06B90F83D000870F06B4069017957484D
