:20000000003C0120C92E010039FB021039FB021039FB021039FB021039FB021039FB0210E7
:1C00200039FB021039FB021039FB021039FB021039FB021039FB021011FB021002
:20003C0038B586B004468DF805104FF6FF720120ADF80220090ADFF8645CADF8000002238B
:20005C008DF806108DF8043069462A78204617F035FE162803D12978204617F02BFE07B03F
:20007C0030BD3EB504000D461AD0DFF88C0C0068224617F01BFEFF2811D000200090002309
:20009C0001AA294620460DF003FF40B900F0C3F8C00604D500F0BFF810F0040000D00120E6
:2000BC003EBDFEB5164615244FF6FF7290420D4615D100208DF80400DFF8E07B9DF80400AC
:2000DC00B97988421AD23246294600F0D3F800B100249DF80400401C8DF80400EEE717F04B
:2000FC00E1FD50B100F01AFD40B99DF804003246294600F0BFF8002400E014242046FEBD81
:20011C002DE9F04387B0884691461C46002701460097002301AA40460DF0BAFE01250028E0
:20013C00DFF8786B69D100F076F80746082CF07908BF002500F019FA5FEA000802D100F064
:20015C0017FA61E070789DF8041002280CBF01200020009023463A46484600F0E9FC142258
:20017C00002102A8062416F0D3FD9DF8040014FB00F0243002AA00F04AF8A0B91022FF2123
:20019C0002A816F0A8F970B99DF8040014FB00F4253406AA042100F065F802AA07F001010D
:2001BC00484617F07BFDF1799DF80400890670304246090EC0B215F057FD88B9404600F0C3
:2001DC00CCF8002408E008EB8000018819B18278484616F023F8641CF179E0B28842F2D3B9
:2001FC00B80703D53178484615F0B2FC9DF8040000F001FA404616F0EDFE7078022803D181
:20021C0015B1484612F012FA07B0BDE8F0831021C0B215F029BD9DF80400B0E17CB50D4655
:20023C00044606214C43164600F019F8A8B900F01CF890B99DF80700002E14BF054320EAA8
:20025C000505E9B2814206D08DF807506A460821E0B215F01DFD012076BD002076BD2034E3
:20027C006A460821E0B215F0FFBC0622FF21684616F031B92DE9FC410646344606235C4370
:20029C0088461546FFF7EBFF002850D1FFF7EDFF00284CD1DFF8047AF87900F066F90400B0
:2002BC0002D100F065F942E0F979703689062246090EF0B215F0D8FC002834D1204600F0BB
:2002DC004CF85FEA08000DD1FA799206120E0021204616F000F930BBFA799200002100F0DD
:2002FC0041F916E0214600F025F858B9280004D02146002000F01EF810B900F08DFA16E06E
:20031C00A0F800808178A9420DD085700DB900210180204600F021F8F97989062246090E9C
:20033C00F0B215F0B5FC00F077FA012000E00020BDE8F68170B5DFF86439DD79002200E0BA
:20035C00521CD4B2AC4206D231F824608642F7D101EB840070BD002070BD10B50021DFF8E3
:20037C003C290AE030F82130DB4320F8213000EB8103491C9C78E4439C70D3799942F1DB04
:20039C0010BD2DE9F04186B0804600200E460090002398F8061004AA40460DF079FDDFF8E6
:2003BC00FC580627A0B1002400E0641CA979E0B2884280F0C780A869E3B20622FF2100EBBD
:2003DC00C30016F088F80028EFD08DF8104013E0706988B100F0C1F823306A46FFF717FF3F
:2003FC0050B91022FFF742FF30B998F80600414600F0010017F04EFC9DF81000A979884296
:20041C0080F09C80E87900F0B0F8040003D100F0AFF80A2093E000F0A0F8203042460821A6
:20043C0000F0AAF89DF8100000F0E5F8EA79920000F097F8E9799DF810008906703022468A
:20045C00090E00F099F8A8699DF810300822414600EBC30016F048FC726972B1107C0023AC
:20047C0002F1110100F0010017F010FC726922B100F073F8233000F07EF8B2682AB100F0B0
:20049C006CF821301C2100F077F832692AB100F064F822301C2100F06FF8F26882B100F0CA
:2004BC005CF8243000F067F8F06800F110029DF8100017FB00F725370421F8B215F0E8FB0D
:2004DC00E87B08B100F05EFBB688286A4FF6FF7750B905F1120100910223DFF87428394656
:2004FC00012017F0CFFB2862296A19B3FF200390022200230292019305A800900DF1120394
:20051C006A8A304606F0CAFA68B99DF812009DF8131000EB012290B228B1286A418992B252
:20053C003046FFF7BEFD6A8A286A0023394617F0A5FB286200F070F9002000E0152006B0DB
:20055C00BDE8F081DFF80C28107800281DBFDFF80818086804780C4637E79DF8100078431F
:20057C007047FF21204616F0D3BB800016F03ABD042015F085B91021C0B215F089BBE0B529
:20059C000623584320306A460821FFF741FE10B99DF807000EBD00200EBDDFF8C0070078EC
:2005BC0008210CF033BF38B50025DFF8B04719E0A069062313FB05F300EBC50220330821C9
:2005DC00D8B215F051FB58B1A0690622FF2100EBC50016F09DFBA06900EBC5010022CA7165
:2005FC006D1CEDB2A1798D42E2DBE07B10B1BDE83140C7E231BDF8B5DFF8A016DFF8585788
:20061C008B792E681C461A4600E00A46D1B239B1511ED2B2324412F8017C8742F5D10C46F4
:20063C00E0B2591E07E01718165C7F7817542A680244401C567088422A68F4DBE4B28C4222
:20065C0005DA1946BDE8F840052015F021BBF1BD38B500200024DFF80457AA79E1B29142C3
:20067C0006D2010004D1E0B200F003F8641CF4E732BD2DE9F84F83465D46062313FB05F5EF
:20069C008EB005F1200701AA0821F8B215F0ECFA002871D10622FF2101A815F01CFF0028D7
:2006BC006AD1DFF8B866F079FFF75FFF5FEA000903D1FFF75DFF0A2060E01C22FF2103A846
:2006DC0016F026FBF2799200FF21484616F020FB05F123040AAA1021FFF7C4FD60B9102207
:2006FC00FF210AA815F0F7FE30B99DF80A0001A900F0010017F0CEFA082200F046F801AA1D
:20071C000821F8B215F0C4FA8DF8000003AA05F1210000F036F8074605F1220003AA00F0BE
:20073C0030F8804603AA1021E0B215F0B1FA044605F1240003AA102100F024F8824625351F
:20075C0003AA0421E8B248EA070715F0A1FA2743F1799DF800504AEA0707074389060BF161
:20077C0070034A46090ED8B215F092FA0743484616F030FC3D4300E0002528460FB0BDE8C7
:20079C00F08F1C21C0B215F083BAFF2101A816F0BFBA2DE9F84187B0FF208DF80000DFF884
:2007BC00BC55A87916F01EFC040003D1FFF7E0FE0A202EE01022FF2103A816F0A9FAAA791E
:2007DC00FFF7CFFE0622FFF7E0FF03AA1021022015F05EFA064603AA1021032015F058FA3C
:2007FC0006436A460121042015F052FA0746A9792246052015F04CFA054601AA06210620C3
:20081C0015F046FA804600F007F83E432E4348EA060008B0BDE8F081204616F0DBBBF8B51B
:20083C000446DFF878542079012849D009280AD01E2803D07D2800F0848089E060880021A5
:20085C0010F052F984E0617860881A2976D000F06AFA022802D0032818D079E02089668830
:20087C000122012804BF6089032807D1E168887820B91021304600F028F902466869002846
:20089C001CBF4368002B63D0052116E020896688012804BF6089032806D1E0688278042167
:2008BC00304600F012F900E01820696900291CBF4B68002B4CD0024604213046984747E0DA
:2008DC00207A6788082838D1384600F02CFA02280FD0032831D160890022042100F0F5F863
:2008FC00696900291CBF4B68002B26D00246042121E060890022102100F0E7F806463846EF
:20091C0017F0D0F978B1DFF85824117839B9811D4079012200F0010017F0ACF903E0DFF823
:20093C00441401200870686900281CBF4368002B03D03246052160899847608800F08CF96A
:20095C0006E0608800F0EFF90146608800F0A8F9217904F10800BDE8F44017F087B9DFF887
:20097C00FC134088097815F0F3B8F0B5A9B006460D46144617F096F908B91420A3E0A42288
:20099C000021684616F0C4F9ADF800600DF12607C24EF078B17A279A8DF804005208F07AC8
:2009BC008DF8A0004B0801F0010040EA420222F0020203F0010342EA4302080922F48072AC
:2009DC0000F0010042EA0022480922F4007200F0010042EA4022880922F4806200F00100EA
:2009FC0042EA8022307B890822F0040201F00101022842EA81020CBF01200020279278743C
:200A1C0017F030F9412807DB307B00B108209DF8991008438DF89900707BB8B10121B97471
:200A3C00202206F184010DF1390016F05DF9202206F1A4010DF1590016F056F9202206F186
:200A5C00C4010DF1790016F04FF900E0B874707A8DF8050088B1C44F102207F110010DF1EB
:200A7C00060016F041F99DF89900082805D1102239460DF1160016F037F9307A8DF8260090
:200A9C0028B11022B9490DF1270016F02DF9307948B1022D18BF032D03D1279840F002003F
:200ABC002790012100E000219DF899000143B0788DF8991000B1042001438DF89910684683
:200ADC00214617F0CBF829B0F0BD2DE9FC41154615244FF6FF72904288460DD100276F4E44
:200AFC00B179F8B2884216D22A464146FFF796FB00B100247F1CF3E717F0D4F850B100F0C8
:200B1C000DF840B99DF804002A464146FFF786FB002400E014242046BDE8F6810021009144
:200B3C000023417901AA01F00101801D0DF0B0B970B504460D4606204543082B88B01646E4
:200B5C0003D1300758BF223500D521351C220021FFF71CFE01AA1C21E8B215F085F878B931
:200B7C009DF81E00C01F0A280AD20C980090F20801AB02F0010206F00101204617F06AF823
:200B9C0008B070BD38B517F061F80024734D0FE0A8690622FF2100EBC40015F09CFC28B9AE
:200BBC00A86900EBC401002017F04CF8641CE4B2A8798442ECDB31BD3EB50C46002501468A
:200BDC000095002301AA20460DF062F938B99DF80400FFF7D4FCC00601D401203EBD0020B1
:200BFC003EBDF8B506460F4615460C2016F0FAF9040019D02681A77200202060E07245B17B
:200C1C000821284615F0ACFD606018B9FFF704FE0BE060605648016811B9046004E00146DF
:200C3C0008680028FBD10C600CB91520F2BD0120E0722A4639463046FFF797FE04464748E3
:200C5C00406900281CBF4368002B03D000220021304698472046F2BD38B505464448046846
:200C7C0003E02089A84204D02468002CF9D1012032BDE07A012807D100F05FF820B10748BA
:200C9C00007804210CF0C2FBE17A491CE1722846C9B200F005F8002032BD0000D41C0020DA
:200CBC0038B5022904462D4D02D003290DD01EE042F6C921FFF7B4F902001CBF68690028C8
:200CDC0018D04368B3B105210CE042F6A621FFF7A7F901001CBF696900290BD04B684BB1F9
:200CFC0002460421204601B0BDE830401847BDE8324003E031BD0000680F002010B51C4B35
:200D1C001968002201E00A46096851B10C898442F9D10868002A0CBF18601060084616F0AA
:200D3C0059F9002010BD024604201149096819B10B899342FAD1C87A70470D48006828B194
:200D5C00006818B1C17A0029FAD170470020704784C10100893400201C340020D41C0020E6
:200D7C00AA0F00208A34002080310020B03100202034002038B5244C2070A171E271C80040
:200D9C0016F030F9A061D8B1A279D200002115F0BFFFA07916F026F9E06108B9A0690DE077
:200DBC00A2791A4D002115F0B3FFA07916F01AF9286050B9A06916F00DF9E06916F00AF993
:200DDC00BDE83240042014F05BBDA279002115F09FFF04F1E40016F031FF2178062016F0ED
:200DFC0029FFFFF7E0FB2A68A179052014F03CFF48B1002004E02B68091A4A1E1A54401CE9
:200E1C00A1798842F7DB31BDD41C00201C3400202DE9F04FADF1240D16F008FF12F028FC3B
:200E3C00071C0CD015F032F8C84C00268146062134F80C0F28B1491E06F10106F8D116F0EC
:200E5C002DFB4FF6F878A4F8008067600025A560C94C26707868E060484615F015FE04F126
:200E7C00200016F052F92A46C44920611346102007F058FC01208DF81900C14E8DF81A00A6
:200E9C0003468DF81B504FF480621F4631468DF81C7010200DF11907009707F043FC0DF1D2
:200EBC001A0040F20242012300903146102007F039FC0DF11B0040F2034201230090314644
:200EDC00102007F02FFC07A840F20642012300903146102007F026FCC349102004F11802BC
:200EFC0007F020FC2178502014F0F6FDBF490246102007F017FCC6491020FB2240F648035C
:200F1C0007F010FC2178502014F0E6FD009503460422C5490195102007F004FC4FF0FF3085
:200F3C00294611F013FCC249A060102007F0FAFBC0491020012207F0F5FB4FF6FF7BABF151
:200F5C00020BDFF8F4A2E068C24A00214FF0FF3316F068FE051CF6D00020029006A902AAB5
:200F7C0003A811F0C3FB002840F0BD809DF80C000DF10E0114F03EF9002840F0B180BDF82F
:200F9C000E00ADF80C0015F0EFFABDF80C00102840F0A48020789DF81810884240F09E80CE
:200FBC00029F38884FF6FF71814200F097803878913867D00F3817D0801E03D02E3800F090
:200FDC008A808BE07879602840F088807A89AD4910204FF6FF7307F0A5FBA0680421002209
:200FFC00A9A314F0E6FC79E0002F77D0B88916F02FFAD4F80880061C40D0B968BA890EF07C
:20101C0025F930780A210022A4A30090404614F0D0FCB8890090A0680B210022A7A314F0FF
:20103C00C8FCA088401C80B2A0800090A0680C210022A6A314F0BDFCB86812F033F9307817
:20105C00401E14D0401E0ED0401E13D1CB48006880B1301D0DF034FE60B9C94902200870C7
:20107C0013F036FC06E0301D07F02EFF02E0301D11F098FE304613F009FF2FE0B86812F050
:20109C0011F92BE078780E3802D0801E1ED025E0B88842F20301814220D1B968491C0A6862
:2010BC0004A80260496841609DF811009DF81270B14904AA00F0BF008DF8110047F0C6000D
:2010DC008DF81200102007F02DFB07E00820002106F02CFE02E0384603F00CFE029810B106
:2010FC00029816F078F9E80FFFF42DAF206916F095FD00287FF427AF206915F082FB051C3F
:20111C00F4D028786769002800F09880401E6FD0401E55D0401E35D0401E40F0AB806E683D
:20113C003078012823D170680378012B10D0F3B937F0020767611AD18D498E4ACDF800B0BD
:20115C001020012307F0EEFA11E0C046181E002057B98749874ACDF800B01020002307F083
:20117C00E1FA6769C3B213B947F002076761706800287FD07CE0C046E0140020111C02105B
:20119C006D6000006868B90874D3017802290CBF4FF001084FF00008D0F8109090F9067029
:2011BC0006790C2015F0B2FC011C63D081F80080C1F804900F7202204E7213F01DFF59E064
:2011DC006E68777A3FB1CDF800A0A0680421002246A314F0EEFBCDF800A06449F2881020F6
:2011FC00002307F09FFA45E0815F0100D96C02106A681079A1681278C2B1521E0AD0921E68
:20121C0038D1002808BF3DA307D041A304E0C0460D52021050B144A30090084600220221B9
:20123C0014F0C7FB26E0C046C5AD000043A3F4E72D4502109974010040E201006E68A068FA
:20125C003168B1F1004107D04E4A891A06D0C91E04D008E0010000C03CA300E040A30221E5
:20127C00002214F0A6FB3068B0F1004F02D0706813F00CFE686808B113F008FE284613F049
:20129C0005FE33E799FB01104C32434150204368616E6E656C204F70656E00C052544C538E
:2012BC00205061636B65742052656365697665642C20636D64496420256400C05061636B3E
:2012DC006574204C656E3A20256400C04E756D626572206F66207061636B657473207265D7
:2012FC006365697665643A20256400C050617373636F64653A20256400C046C0426F6E6461
:20131C002073617665207375636365737300C046426F6E642073617665206661696C6564EC
:20133C003A20256400C046C050616972696E67206661696C3A20256400C046C0506169722D
:20135C00696E67207374617274656400496E73756666696369656E74204D656D6F7279009C
:20137C004164766572746973696E67004950010091DC01103F6B0100FD380210C0110020D6
:20139C00DE190020010000802DE9F84FDFF8B454A9780024FF2904BF002014F071FAA8787E
:2013BC0015F05CFC054605F1680605F5C9773168086805F1900808B1EC8311E0B07B0028C8
:2013DC0004BFB07E00280BD198F80010002904BF3878002804D1287F012804BF688CE883D1
:2013FC002989E88B4118491C6981284616F012FC01281EBFDFF850040178012903D1298928
:20141C00EC83491C69814FF6FF79B07E01280DD1B28B6989288916F0F9FB38B1298968899A
:20143C004A1C93B298422FD0B08B23E098F8000001280FD1B8F802206989288916F0E6FBD9
:20145C0040B1298968894A1C93B298421CD0B8F802000FE03878012816D17A886989288965
:20147C0016F0D4FB80B1298968894A1C93B298420AD0788892B2904206D04844688180B2B5
:20149C0016F0C0FB4844E883387801280ED128897988401C80B2884208DB7C793C71002011
:2014BC0038702346A97922460BF07EFE05F59A71087920B128890021401CE983688105F12E
:2014DC002E08B07E012845D12A89B08B521C92B290423FD1688105F18601284616F08EFB68
:2014FC00B08C688400212977E983E88969894118A981B08B298916F085FB8146B8F8041097
:20151C00308C728C01FB0909F08C8A4204BFB8F80810884202BFB38CB8F806108B4207D0E0
:20153C0000090090B38CA9795208002016F062FBB07F88F80000718CA8F80410B08CA8F87C
:20155C0006002846F18CA8F8081016F04FFB0220B07601E0B8F80490EA8BDFF8F0C2501C9F
:20157C0000FB09F040F6C41909FB00F100912B68D3F80CE07144D960DCF800E0B4499EF843
:20159C0000A00B884FEA9A1ABAF1030F17D1DFF8C4C29CF80FE05FEACE7C48BF00230ED4EB
:2015BC005B1C1FFA83FCBCF1010F11BFB5F812C005F59A7EBEF806C00CF2DC5C01E0B5F8A2
:2015DC0012C00CFB00FC4FF4C87EBCFBFEFC0CF1010CC5F814C00B80A86185F820204FF0B5
:2015FC001C0BDFF874A2AB79DAF8000000F108021BFB03F3D1582A68116100F10801AB7973
:20161C00D26868691BFB03F3121ACA50DAF80000AB7900F108021BFB03F3D1582A689160A8
:20163C0000F10C02A9791BFB01F10C30535C03F0F00343F002034354DAF80010AB798A1C19
:20165C001BFB03F30021D152387908B914F018F9DAF80000AA7900F1100138791BFB02F2E5
:20167C0040088854A879DAF800101BFB00F00844002141743879042814D1A879DAF800103A
:20169C001BFB00F001F110021031135C3A7A43EA82030B54AA79DAF800001BFB02F202446A
:2016BC0020205074DAF80010A87901F112021BFB00F0002111526949A8790A6802F1140328
:2016DC004FEA401C143253F80C00AB79D5F814C05B0100EB4C00D050B07E02280DD10A689C
:2016FC00AE7902F11403760114329859AB7998F800605B0119FB0600D0505648C27BD00793
:20171C005CD5DAF80000AC7900F108031BFB04F408301A59AB791BFB03F3A2F5A862C250ED
:20173C00DAF80000AC7900F108031BFB04F41A592B689A600098121A1A610868AC7900F1C7
:20175C001403640114301A59AB795B0102F5F662C250387904280BD10868AC7900F1140303
:20177C00640114301A59AB795B0102F56162C2500868AB7900F114025B01D058C5F83401D4
:20179C006427374A0B68106BAE79006803F11C04B8F804304343B3FBF7F7760109FB07F018
:2017BC00A0F59660A0512F480378012B30D10868A97900EB41120120D07230E0042C0BD123
:2017DC000868AC7900F11403640114301A59AB795B0102F56162C25038790A68AC79042874
:2017FC000CBF4FF4AA504FF4E66002F1140364011A59101AB8F8042009FB02F2A2F5167245
:20181C009042BDD30821284616F0ECF9012016E0506A0968AA79407801EB4213D872A879FF
:20183C00DAF800102A681BFB00FB01EB0B00506007210D480170284616F0D0F90020BDE870
:20185C00F28F00BF780E0020D10F00203C0F00207A340020980C0020980E00209C0E0020F9
:20187C0094C00100CC0F0020C80F00202DE9F04FCA4C05462078ADF15C0D032840F03E8295
:20189C004FF0000B6846182284F800B0082384F801B0594615F014FD6846594613F05AFE19
:2018BC0020612E22594604F130000FF05FF904F130008146FF210A220C300FF057F913F05A
:2018DC0045FF2946584612F0E1F804F11801E06015F017FD206AE169B1FBF0F2D7B284F8F2
:2018FC003070022FC4BF022784F83070E770B0F5005F04D1E068B1EB473F00D310B90120DC
:20191C002070FDE1FF2184F83310D846CDF828805D460B950C950D950E950F9513950A460E
:20193C00109211921292149215924FF40056E68659461691AF4200F30B81139E002E3AD1B0
:20195C000F9E002E28D1B8F1020F25DA0E98022822DA0B9802281FDA0A9887421FD00E9E46
:20197C009EB9B8F1000F0ED10D9E0C9806430FD15D46AF4213DD28460BF0D6FE6D1CEDB2FC
:20199C00E7786070F5E7012016E0B8F1000F01D1032011E002200FE05D46AF4201DC58464B
:2019BC000AE028460BF0C0FE6178E7786D1CEDB201436170F1E705200028A07000F0B1802F
:2019DC00401E70D0401E00F09280401E1DD0801E40F095811498FF2804BF1598149084F85B
:2019FC00330094F833200C2684F83120D019401E90FBF7F17943401A84F8320012FB069099
:201A1C00808BE08608F01EFB87E0002F08BF5D460BD009F10C0138465D4611F80C2FFE2AB9
:201A3C0003D0401E05F10105F7D1AF423ADD0C2084F83C5015FB0090817E84F83D10C07EB3
:201A5C0084F83E000AF086FEE2782D1895FBF2F050432D1AE8B284F83200401C90FBF2F135
:201A7C005143401A84F831007C2012F0E3FFFF2810D17E2012F0DEFFFF280BD1FF2012F086
:201A9C00D9FFFF2806D1782012F0D4FFFF2808BF94F8310084F833000C2110FB0190808BB9
:201ABC00E0864FE0FEE71098129E84F83200FF2E00F1010090FBF7F101FB07F1A0EB010078
:201ADC00C1B284F8311008D11198FF2804D10C20129111FB009005E012901299880000EB2C
:201AFC00C100484484F83310808BE08607E1DDF8408008F1010084F8328090FBF7F1794379
:201B1C00401A84F831005FFA88F00BF00DFE6070FE215FFA88F013F0EDFD584602F09CFFF3
:201B3C00EDE084F831B0781E594684F832000C2684F833B011FB0690808B7E21E08658469B
:201B5C0013F0D8FD94F83200FE2113F0D3FDD6E00C2115FB019706AA0423690315F0D6FB3D
:201B7C00069807F11606010EB1F1960A18D1C0F38541C0F3014040EA8100022810D187F8BB
:201B9C0019B09DF818003070FF223A769DF81930FB75284611F054FCB8836CE06C1E002004
:201BBC002846594607AA14F017FD2846012108AA14F012FD2846022109AA14F00DFDDDF8B7
:201BDC0018C00CF0FF010CF0FF00FF2909D0FE2907D07E2905D07C2903D0782918BF702916
:201BFC0009D15FEA0B0706D1CCF38541032908BFBAF1000F1ED028460BF096FD0746002F25
:201C1C00E068677038D1690306AA042315F07EFB2846594607AA14F0DFFC2846012108AAE0
:201C3C0014F0DAFC2846022109AA14F0D5FC069800F0FF0030709DF81900069F9DF81E3032
:201C5C007070C7F30140F070BDF81C004FF6FF718142B37002D1284611F0F2FBF0809DF88D
:201C7C0022003071BDF8207037819DF826307371BDF824207281E0683178FF2936D0FE2987
:201C9C002ED07E2926D07C291ED0782917D0702910D0A52908D0242904D00F99491CC9B2AA
:201CBC000F9127E0159500E014951399491CC9B213911FE00E99491CC9B20E911AE00D9939
:201CDC00491CC9B20D9115E00C991295491CC9B20C910FE00B991195491CC9B20B9109E00E
:201CFC0008F1010710955FFA87F803E00A99491CC9B20A91E7786D1CEDB21BE66070607819
:201D1C0017B0BDE8F08F70472DE9FC47D14C0F460546F80B80F0F6816078DFF83C83B90FCF
:201D3C0080F09C81B90880F08E81F90A80F0F980390B80F0C580380907D2F80FC0F01A8268
:201D5C0027F0804710F09CF914E215F079FB814614F0D4FA002800F0AD80082015F056FA2A
:201D7C00002840F0A780802015F050FA002840F0A18068460DF0CEF9012803D10098002831
:201D9C0000F0988000250126E8B214F0A3FF48B1837A3BB1867290F9090006FA00F0C0B2C5
:201DBC0012F00CFF6D1C032DEED30320207504F1B40015F03FFB484615F00CFFCF48002506
:201DDC002A460168056050F8081CCD4940F8085C04F1380014F0F2F940460068006B80474F
:201DFC00A168401A010BE069C1F1FF3282422CBF08444FF0FF30E06194F8200020B120697C
:201E1C00E169B1EBC02F25D914F088FA294600B13146081C1BD0D44840F609010180458005
:201E3C00417B06F00F0221F00F010A434273017B05F00F0321F00F0143EA010202732946E8
:201E5C00416015F0AFF8418811F4406FFBD084F82060E56111F0D2FDCA48294605600220B7
:201E7C0014F05CF8022013F055FA11200BF034FB207818B96068483015F0F4FAC248007801
:201E9C0010B90E200BF028FB94F8210020B184F82150052013F03EFABC48A0612575B4F9FA
:201EBC008C00B4F98E10884214BF022007200EF0D7FB02E0484615F08DFE27F0080741E72B
:201EDC0020B1042013F026FA00206070656812F059FE38B12846ED696FF4807100224FF056
:201EFC000073A847E06858B140460068006B8047E2686168801AC860000BC8600026E6607F
:201F1C00A34904F13800002214F058F90221A06F217518B104F5807015F0BAFA27F4006760
:201F3C0010E715F08DFA064614F0E8F9216F0028894600F0828000297FD09649042504F1E3
:201F5C0038000022257514F039F9304615F042FE04F1B40015F06EFA40460068006B80474A
:201F7C00E0604FF0010884F80180284613F0EAF9D9F810006060D9F81000416AC90803D398
:201F9C00036A294600229847404610F0EFFA606880F81580606808F06FFE6568D5F808A095
:201FBC0040F60A02D01F564600F1010C00E01E46736833B119888A4203D0884218BF8C4585
:201FDC00F5D100217160727B08F00F0322F00F0213437373D9F80C201288904224D06046D4
:201FFC00904221D02B8E03B3696305F13002518095F83C0001F00F0320F00F00034385F820
:20201C003C3095F83D0008F00F0320F00F00034385F83D307260707B01F00F0520F00F0034
:20203C0045EA0001717300E0E160504614F0BAFF5146404613F072FF02E0304615F0CAFD47
:20205C0027F4806796E009F0FDF8A06F08B927F002078FE0902400208C0100104E4A11681D
:20207C0041F08001116020B1042013F053F90020607015F0E5F98246D8F854000168042091
:20209C008847D0B1287DC0B1A068B0B18146D8F800002E69006B8047A0EB09002861000BCD
:2020BC002861B04202D280194008286140F6C41181422CBFB0F5967F2961504615F08AFD2C
:2020DC0012F060FD78B1EE6928466FF4807100224FF00073B047206F002808BF47F00207BA
:2020FC0001D00FF0CDFF2846AD6900214FF080630A46A84727F000573CE0C046141004402A
:20211C00692D010015F09CF9D4F8886076B306F1280106C90A234FF0E0450B40154008BFAE
:20213C00002B23D106F1280191E8000306F1280595E8060006F1280322EA090221EA0801D4
:20215C0083E8060015F046FDB16889B1B9F1000F08BFB8F1000F0BD03069B6F93010B5689F
:20217C004B464246A84703E06C33002015F032FD27F4804727B104F58070394615F088F9BD
:20219C00BDE8FC8700000460E2BE010091C50000E1BD0000F9620100CC2108402DE9F04F1C
:2021BC000F46780689B027D5DFF8F8231078002115F00CFD04001FD0DFF8EC030168884761
:2021DC00054614F0DFFE6168884204BF40F2014015F0F8FC00202072201D0DF091FADFF8A7
:2021FC00CC130A6828469047204612F0EBF9FF223C21204615F0E2FCB80604D507F0F1F9A2
:20221C0087F02000CAE1F8070CD514F0BBFE30B100218160DFF89803006800B1804787F017
:20223C000100BBE1380704D508F085F987F00800B4E1F8060FD500210022002306910592CD
:20225C0004910393029101920091022015F0B2FC87F01000A2E1B8070FD500210023069123
:20227C0005910491039302910191009101223C2015F0A0FC87F0020090E179074FF01E08DC
:20229C00CC4EDFF834A340F1CF80CC480022002108920791007815F099FC0446C8488178EC
:2022BC00FF2904BF002013F0EBFAA07A14F0D6FC05469AF8000095F82E91002805F5947BC5
:2022DC0069D0606D807A022818BF032807D130680D3015F06BFC10B93068C11D0791594627
:2022FC00484615F05FFCA0B3606D807C3368002818BF012804D11946584615F04FFC04E0EF
:20231C005A464946184615F0D1FCFF2843D018FB00F83068404406225946C01D14F0E4FC59
:20233C00306810F80810404400F1010BC01D41F0020908900622616DC87A00F0010085F8F1
:20235C002E01606D00F10C0105F5947014F0CCFC21E05946484615F01DFCE0B130685A4688
:20237C00494615F0A3FCFF2815D018FB00F8306840440D3015F01AFC58B9306840440D3019
:20239C0015F014FC002801BF30684044417F012901D149F0020905F12C004B460178069145
:2023BC004289120905920122698C0491C0880899029140080390CDF800B0079801900020BB
:2023DC00A97915F0F7FBD5F89C017E498842A8790CBF0021012115F0D9FB7B49AB790A686B
:2023FC0038204343134401225A70AB790C68434323449A70AB790C6843432344DA700C68CD
:20241C00AA79231D424301249C54AA79096810FB02F00844002141710122A97907200DF08A
:20243C0001FC87F00400B9E038060FD50021002306910591049103930291019100910122D8
:20245C003B2015F0B7FB87F08000A7E0F8045DD55E4930680C680D3015F0A8FB002844D1CD
:20247C003068C11D0D3015F08DFB3EE0606D4178480704F13E0526D5287802281EBF032808
:20249C006878012830D16978306804F1380215F00DFC8146B9F1FF0F15D0306818FB09F94F
:2024BC0048440D3015F082FB68B930684844C11D0D3015F067FB30684844C11D062204F1CF
:2024DC00380014F011FC2878022818BF03280BD130680D3015F06AFB30B93068C11D062229
:2024FC0004F1300014F000FC2468002CBED13848DAF8042000784FF4805111F063FD10B130
:20251C008E2015F03BFB87F4805047E0B80505D514F034FE2F4901200860FEE7780504D53B
:20253C000CF0DBFA87F4806038E0780405D5812015F024FB87F4804030E0B9042DD5264CA4
:20255C00206810B1002013F09BF94FF0FF3020600020224C0DF066FE216851F8202F6846B3
:20257C0090471F494A6B086BC96A24681D4B019200900293ADF810106B461B4A1B491C4856
:20259C0003921C4A079225681B4AA8471B49086005F006FA87F4005000E0002009B0BDE8C0
:2025BC00F08F00BFD50F0020C81D0020CC1D0020480F0020680F0020880E0020D70F0020E5
:2025DC00780E00204DE50110043400204C0F0020C70F00207C052043380F0020200F002093
:2025FC00CC1E0020816F0100916F010020230020280800201EFB0080EC0A00201C0F002016
:20261C002DE9FE4307460025B978DFF8346410293CD8DFE811F011000202020202020202FF
:20263C003C0048000202020265018E007900B60102023B017C01FA017878002826D115F002
:20265C0099FA044615F092FA064615F08BFA8DF8000022461021022013F01AFB3246102119
:20267C00032013F015FB6A460121042013F010FB9DF80000012818BF032807D1012015F046
:20269C006DFA02460621062013F002FBC5E178780028FBD1F8783B7B7A89391D00F0010028
:2026BC00FDF72EFDB9E1B888FEF728FB15F052FA0028F7D1307C012808D1FDF7C9FFF069E9
:2026DC0035740422002114F023FB17E0707C012803D1FEF75EF8757410E000240AE0F06961
:2026FC00E7B2C15D012904D1E0B2FDF7C2FFF169CD55641CE0B2B1798842F0D3502013F009
:20271C004DFEFDF750FF88E115F020FA00280CD0706900281CBF0468002C07D03869009007
:20273C007B7B3A7B7989F81CA04775E17889012168E178780024002840F09180B879C1079D
:20275C0040F18D800822002101A814F0E1FAB88815F0A8FA04005ED07D69002D00F065814A
:20277C000622002105F1110013F0B5FE00B306220021284613F0AFFE002818D1287C00F078
:20279C0001084FF0000909F1010985F811900020009000230022414605F111000BF078FBB9
:2027BC0000285FFA89F040F03B810028EBD13AE17D69EDB1287C00F001008DF80A00062248
:2027DC0005F1110101A814F08FFA6079012805D10622A11D04F10C0014F086FA062205F13E
:2027FC001101A01D14F080FA287C40F002006071B879410720794CBF40F0020000F0FD008D
:20281C002071B879010720794CBF40F0200000F0DF00207106E0FEF790FA18B13078042183
:20283C000AF0F4FDB9799DF80B00890801F0010108438DF80B00B9790A074CBF08210021C8
:20285C0008438DF80B00394601A8FDF79AFD0400B88802D1FEF700FA01E0FEF74FFA7069D0
:20287C0000281CBF4368002B0FD07A78B888012198477878002808D1B879C10705D57369B1
:20289C00B88822465C680321A047C5E0787806281BD1B88815F006FAB8B1B17B012904D01E
:2028BC0013D3032907D00CD30FE04179B8880022FEF797F909E00022002140F2094003F00A
:2028DC00C7FBB888052115F03DF9706900281CBF4368002B03D07A78B888022198479BE045
:2028FC0000950023F97801AA01F00101381D0BF0CFFA0028F3D19DF8043006204343253323
:20291C0007F10C020421D8B213F0C2F984E0706900281CBF4368002B03D0B88800220021BC
:20293C009847707810B9B88805216BE0B88815F0B9F9040071D0B87AC10712D50095002365
:20295C006179002201F00101A01D0BF0A1FA00281EBF60790028012803D0F868C0F34020A4
:20297C0028B1307B022807D1B87A010704D4B888032115F0E3F850E06179B88807F1080213
:20299C0028E0BD8897F80C80284615F08BF9040042D015F0DBF800283ED10090002361790A
:2029BC0001AA01F00101A01D0BF072FA28BB9DF80400FDF7E4FD08F00C01042911D00829A4
:2029DC000BD00C290FD100F0090109290BD0617900222846FEF705F91EE010F0090102D1AC
:2029FC00F5E7C107F3D501220092A37C9DF8041002462846FEF79CF80EE070780028E6D1DE
:202A1C000521284615F09AF806E0FEF796F918B1307804210AF0FAFC01252846BDE8FE83C5
:202A3C0000287FF4C5AE002078610622607900F001008DF80A00A11D01A814F055F9D7E67C
:202A5C00D41C002000202DE9F04F0146ADF1240D15F070F8CA4C206004F1080014F055FB6B
:202A7C006060042084F80F026FF0360084F80E02C4480068006880470027206839464FF098
:202A9C0080424FF0FF3315F0CDF8606815F0C6F80028F2D115F04AF80190606813F0B1FE55
:202ABC008046019815F096F8B8F1000FEDD098F80000401E7BD0401E0AD0401E40F0AD8166
:202ADC00B4F80302C00980F0A88100F0B9FBA4E1D8F80400002800F0A58190F908107F2943
:202AFC001ADA11F17F0F17DD94F80F2294F90E3294F80262C2F1100515FB03F301FB0231CB
:202B1C00091184F80E12310906D390F908108DF80010417A8DF8011094F802128908C0F068
:202B3C007C81D4F8E051002D00F077810178012900F0738194F8E611012933D195F8AC6099
:202B5C0086B3022E2ED094F8FA61012E05D194F9E41194F90E22914224DD2046254690F999
:202B7C000E1295F9E4010EB9884210DB401F884240F35381012E40F0508101208DF80070B4
:202B9C006946024612F0F6FB84F8FA7145E1012069468DF80000024612F0ECFB012084F8FF
:202BBC00FA013AE1426829460AF0DEFE35E1D8F80450A878022840F030812888202818DCA3
:202BDC00202800F01281C01E00F02381401E00F01D810C3800F01781401E00F00D81401EAA
:202BFC0000F00681401E00F0CF80401E00F0BE8013E1223800F0F780001F56D0401E4BD0A6
:202C1C00401E30D0083800F0EB80401E40F00581AE68002E00F0F380B4F8030281090FD3C7
:202C3C00317802290CD1B4F80302234620F02000A4F8030240F01000A4F80302B3F803024B
:202C5C0040090CD33078012809D1B4F8030220F01000A4F8030240F02000A4F8030230787A
:202C7C0076490870CBE0A9680D78012D0ED1B4F803220120120A0AD394F80222520806D3E5
:202C9C00891C082013F06AFB384600E006208DF800508DF80100C0E0A868002800F0B0800C
:202CBC00017808200FF094FEA9E094F8E501AE68002840F0A4803078012820D094F8E80103
:202CDC00012840F09C8094F8E901002840F09780D4F8E011B4F8EA6191F8AD102BF0FF006A
:202CFC0001F0FF0141EA000BD4F8EC1166F31F4B58460EF025FE022084F8E8017FE0D4F894
:202D1C00E00190F8AD30002B79D0B0F86421002A75D094F8E801012871D0B6F8010043432D
:202D3C0093FBF2F0C0B284F8E901B6F8011019B110B9012084F8E901D4F8E011D4F8EC01E0
:202D5C0091F8AD104A0139460DF010FF012084F8E801F078A4F8EA01307901284FD109F0DB
:202D7C0081FC00284BD184F8E971C4E7A968002953D0B4F80302000A4FD307204BE0C04663
:202D9C00E00F0020E8010010AE68B01C31784079294A84F80012717800F1070A84F8011250
:202DBC005046117013F0B2FE5FEA000927D0B61C524631460CF04AFA1D4E1E481E49B77361
:202DDC00034687730A464B60184B96601C49596102461E4649460620B26113F0BFFA0EE003
:202DFC000BF028FB19E0052011E013F0A5FF14E0A8680FF0D7FF02E0A86806F065F8A868B5
:202E1C0012F044F809E012F007FF06E00320394601E0A968022013F0A1FAD8F8040008B1A0
:202E3C0012F034F8404612F031F82EE6FC210020102300200023002058210020721A00206B
:202E5C00CC2300202DE9FE4F0546DFF8BC03DFF8BC630278002A44D0052A52D0062A54D0B0
:202E7C00072A18BF082A00F0CC80112A40F0C481DFF89C331878002114F0A8FE0446606DF8
:202E9C00407810F00C0F2CD0216DC0064CBF886CC86E0622016801F10805A91C684613F0B8
:202EBC0023FF287800F00F0105291AD16946C0F3801014F077FE002813D03168684614F05A
:202EDC006DFE0546316804F1380014F067FE85420DD0606D4178C80604D440F2014014F0AA
:202EFC0071FE8FE1607B40F0020060738AE133681E204543581906226946C01D13F0F4FE11
:202F1C0080E1012014F00EFE7CE1C24D286814F005FE0400F8D020790328F5D1207A00F020
:202F3C000F01072937D1BC4800684169497A4A1E11425ED0617A04F10A035A5C02F03F02A5
:202F5C00252A56DBA17A8A09012A52D111F03F0F4FD0007C13F082FEE17ACA074CBF04F140
:202F7C00110204F10B028B0748BF921D0B0748BF921CC90648BFD21C1621127852094A43A4
:202F9C00A6498B180A31EB608A5A428699898186DA89C2862DE000F00F00082829D1A17A2C
:202FBC00880926D129B39C480168087C13F056FEE17A074688071CD5062201F00101514392
:202FDC00601800F10C01684613F08EFE207AC009FF280ED0694614F0E5FD50B1306800F19B
:202FFC000D01684614F096FD18B90521384614F0F9FD207903281CBF002012F041FC286865
:20301C0038E0DFF81C9299F80200FF2834D013F025FE804608F16C07786814F07FFD0190F0
:20303C000179032901D0280026D001987D4A836893F800A00AF00300009038215FEA8A6050
:20305C0008D5146898F8060004F10A0C484301240CF80040009860B1146898F806C004F1F6
:20307C000A0011FB0CFC84442C009CF8000004D018B9786814F04AFDC4E05C7803F1020B45
:20309C0098B11BF8010B00F01F038CF81A30800998F80630126811FB03F1114481F8250010
:2030BC00404607F01DFC002DE6D10098032808F2171519D0A4B1387868B108F1F400017824
:2030DC0001290DD1504A1178072904D0082904BFC078012804D13D2101206970287091E01A
:2030FC0051490A78012AFAD098F8940078B3241FE4B25B462246514640460DF0F9FB00283C
:20311C001EBF4A490878002807D101203D2128706970306814F0F6FC74E04548016888470C
:20313C00064698F80610D9F804204FF4D07041435018002280F8412108F59E7001688079B4
:20315C0049080DF03DFE3B490A68304690470198002181600098032819D037484169097896
:20317C008A0709D541690878C1074CBF0320002000191BF8000000E0812038722246009B2A
:20319C0099F80200DBB2594606F080FB2CE09BF800005FEA8A6103D51B2804BF022C0124DF
:2031BC001C2803D225490B5C9C4205D0A8700721404614F0A3FC14E0134801780829594651
:2031DC00404607D114F038F958B95946404614F091FC06E000F0E2F918B95946404614F0CE
:2031FC0085FC584610F05EF8786814F08FFC0199404614F077FC05E0002012F041FB86204F
:20321C0014F06CFCBDE8F78FC80F0020680F0020D50F0020BC0A0020540F0020E0070020F9
:20323C00780E002004340020D20F002087340020C81D0020CC1D002094C0010034C101003F
:20325C002DE9F04FD34CD4F8E00190F8AD1094F90E82B0F86401ADF1240D04F16805B0FBE6
:20327C00F1F0C1B20A20B1FBF0F707B90127D5F8780103F001FF2046D0F8E011002305F5C4
:20329C00C47591F8AD10089500F1680400E05B1C994200F35E8194F87D21002A7AD0521E87
:2032BC003ED0501E40F05D81642013F02FFCD4F87811D1F860C1BCF1000F2CD0002800F0A7
:2032DC005081B1F86411002707804910028841804188891A1029D4BF8FB21027011D7FB193
:2032FC0062463E4613790B7113680B6092F90550761E0B4602F10C0203F106015D71F1D147
:20331C000188C91901800288BE0006EBC7018C4441889142DDDC002800F02381064635E062
:20333C00D4F8780104F5C476172390F8AD703568089613FB07F080B213F0E8FB061C00F0B0
:20335C0010811FB3A5F120003346C44630F8201F1980816900F10805C3F8131095E800036F
:20337C0042469D1C49462A6000F11002696092E800037F1E03F10A0542462A601A4682F802
:20339C0012C04946696002F11703DFD1304611F07DFDE6E004F5C8731F7887B97E4E04F5A3
:2033BC00C6740025A94200F3C18001211970D0F8E01190F8E52191F8AD1000F1680404F5E5
:2033DC00C678D2B994F88021012A16D1002212E0D8F80010D4F884415301C918E418E8C962
:2033FC00E8C46AC984E86A00D0F8E01100F16804521C91F8AD109142EADC0026B14228DC7C
:20341C00684609F0E5FB94F88001012840F0A98094F88101002800F0A480401E84F88101D4
:20343C00C0B2002840F09D80D4F87801B4F8827190F8AD0021F0FF0100F0FF000843D4F859
:20345C00841167F31F400EF07BFA022084F8800187E0089871010568D8F80040685A605206
:20347C006D18A86905F108076418A06197E803000EF054F900EE100A10EE100A11F046FCE8
:20349C000FF2001B9BE80C0008F01AFD81460F4604F1080003C80EF041F900EE100A10EE34
:2034BC00100A11F033FC0FF2E40A9AE80C0008F007FD0B4602463946484604F0F8FD103559
:2034DC0004F1080282E8030095E803000EF026F900EE100A10EE100A11F018FC9BE80C0003
:2034FC0008F0EEFC07460D4604F1100003C80EF015F900EE100A10EE100A11F007FC9AE8AC
:20351C000C0008F0DDFC0B4602462946384604F0CEFD04F1100585E803001E48D0F8E001E4
:20353C001C4C90F8AD10761C683467E70899226809686F01D219C919B1E88051A2E88051A8
:20355C0091E8825082E88250316891F8AD106D1C28E72A46126802EB4312926997427FF6DC
:20357C0096AED4F8780112F078FAD4F87811089891F8AD1000684A0100210DF0F7FA09B07C
:20359C00BDE8F08F666666666666E63F343333333333D33FE00F0020C01100202DE9F841CE
:2035BC0085B0044611F801CB00203822BCF1030F04F5A47704F1660504F1F406DFF818838D
:2035DC00C64B00F0B380BCF1070F00F06381BCF10F0F0CD0BCF1110F00F00E81BCF11A0F3B
:2035FC0000F01F81BCF11B0F00F0448171E1707A820703D40F2184F8191157E008784A78A8
:20361C0000EB02233B808878CA7800EB02237B8008794A7900EB0223BB808879CA7900EBB8
:20363C000223FB80087A38724A7A887A02EB00237B81C87A0A7B00EB0223BB81487B8A7BF5
:20365C0000EB0223FB81C87B0A7C00EB02233B82487C8A7C00EB02237B82C87C0A7D00EB9F
:20367C000223BB82487D897D00EB01229C48FA8201788A0658BF1A2212D504F5AA700490A9
:20369C0079890391387A029021890191F8880090BB887A883988204614F01CFA70B11E2201
:2036BC00707A410708D40F2084F81901204614F00DFA002837D1D6E00F21C3E004F1860076
:2036DC00798881800023BA88C2800222F988018102704380A18EC91DE983628E8188B1EBB3
:2036FC00520F02BFC188A28E914202BF0089E18EB0EB111F18D0287C012804BF687C0F2829
:20371C0005D0687D18B10F21A976FE2170E0FC21204614F0F3F9F8880090BB887A883988C3
:20373C00A07914F0CFF9CEE0102161E0707AC20709D431781A200129707002D1FF220D21C9
:20375C003AE00D2154E000202870A87101233371082204F1B00014F0B1F90146022204F15B
:20377C00B80014F0ABF904F1A80801460822404614F0A4F907460821404614F09BF904F107
:20379C009C0804223946404614F098F90421404614F090F904F1A00014F088F904F19800CA
:2037BC0014F080F94F48018841F0800101803078012805D1FF220421204614F06FF982E0FC
:2037DC006E7C0F2E18BF142E03D00E2E18BF0C2E0DD12F7C204614F05DF90421204614F095
:2037FC008DF9012F12BF3146AE76FD2100E00421204614F083F966E00D783D761A2D4978FC
:20381C00797666D11868A579811D5543002048551968A37912FB03F20A445072A179787E16
:20383C004FE0A679186809785643064401F01F0516F82D0F890918B17078C840C70705D4E9
:20385C0020221A21204614F021F93CE0F5701868A37912FB03F20244204682F82F100021A6
:20387C0008F010FE78BB98F800004FF4804109F0CDFD28E0A179186851430144888908B94F
:20389C0000258D71A179186812FB01F281180020487218E009780F2917D01A2919D1A179FD
:2038BC0018685143014400208871A1791B6812FB01F2991848721A20F17A01F0FB01F1727D
:2038DC00A1790CF027FC012003E0717A01F0FD01717206B0BDE8F081C70F002004340020B8
:2038FC00200E00209C0F0020C9480278112A00D070472DE9F84FC74A1078002114F066F9CC
:20391C0004000AD1002011F0BBFF002011F0B8FFBDE8F24FFF2014F0E1B804F14C0999F87C
:20393C00000008B90121E172401C89F80000C2B2E17DD9F804608A4229D2D9F808104A7ADD
:20395C00B17B277E0120A1F1250300FA03F3A7F125018840184322EA000000F0070010F0CB
:20397C00CBFA2530B073A18BB06800EB8100B060607DC1060AD5628B99F80010A08B00FBF7
:20399C001121B068A63100EB810030663EE104F1280706F1900806F173054FF0000A4FD13E
:2039BC00A17F6975E07FA875D9F808205278930710D5E27FD30604D5C91E697500F0EF0078
:2039DC00A875C6F874A085F800A00022A97D01F0FE0116E1910608D4F88B00B1F87E2876D5
:2039FC00F88B00B1386AC8F80000D9F808004178CA070DD5F88B00281CBF386A002807D0A9
:203A1C00C8F80000B97EF88B814238BF08462876E07FC1060BD5B06B397800EB8100B06319
:203A3C00A18CA63100EB81007067022002E0C6F874A0002028700022E17F01F0FC01E0E065
:203A5C00D9F808205278D30717D5A87D697D00F0F700891E01F03F0182075CBF891D40F07D
:203A7C000200420644BF491E00F0BF00A8756975C8F800A085F818A0C8E0401AC0B2009033
:203A9C0090077AD50098012806F1400B3FD1B06BA18C00EB8100B063A07F00F03F00A077E5
:203ABC006875E17FA975D9F8082053785A0704D5801F687501F0FD01A9750023697DFA7E87
:203ADC009BF8000001F03F018A18521CC0F3800192B200F0030013F0D5FF00F59B70A08490
:203AFC001E21A08C90FBF1F18AB2A97D01F0FE01204613F0C3FF85F800A0F88B00B1F87E8E
:203B1C002876F88B00B1386AC8F800007EE00228B06BA18C00EB8100B06326D1E07FC107E8
:203B3C0006D5687D811F6975A87D00F0FE00A8750023697DFA7E9BF8000001F03F018A1814
:203B5C00521CC0F3800192B200F0030013F09AFF00F59B70A0840022A97D01F0FE01204612
:203B7C0013F08CFF787FABF81A00797F0098491C081AC0B2012814DD0BE0B06BA18C00EB26
:203B9C008100B063797F0098081AE17FCA06C0B207D5A28CB16BA63201EB820171670221B9
:203BBC00297098B3D8F8003097F81BC0E27FA17F6344C8F8003052084FEA4208D9F80820AD
:203BDC005278530748BF28F00208920748BF28F00808012807D1387F2876C6F874A028F074
:203BFC00100885F800A001F0C006404613F042FF00F03F003043687585F81680002208F047
:203C1C00FC012046BDE8F84F13F038BFBDE8F18FC80F0020D50F00202DE9FE4F0422FF2176
:203C3C0001A813F075F8B84988780024FF2800F0688113F013F8054605F217100178012910
:203C5C0008BF417800F0B68005F1740005F59276817B022904BF05F174018C73F18911B1A6
:203C7C00307B09F0D3FB6889A84F2881FA79BB7A397BF87A97F80DC09B185B181B1805F5A8
:203C9C008D7903EB0C08B9F800C0B9F80430C4445B1CA9F800C0A9F8043097F80AC0B9F8EB
:203CBC0002306344A9F8023033683BB3DFF860E2DEF800E00EF10E0ACDF800A04FF01C0A03
:203CDC0095F806B01AFB0BFADDF800B01BF80AA033F81AB0C34423F81AB00EF10E0A95F8A4
:203CFC0006B04FF01C0E1EFB0BFB1AF80BA003EB4A03B3F84AE0F444A3F84AC0002A08BFCF
:203D1C00002804D1002904BF787B002829D02989E8892C744118287FA981012804BF688CBD
:203D3C00E883A979012207200BF07CFFA246787868B10121297705F174018878002804BF11
:203D5C00887B002803D1087F08B9688CE883307D002837D0022804BFF87A00282ED1347596
:203D7C0030E0A97907200BF05DFFEC83B87A40B1297F2C7401294FF0010A09D1688CE883F0
:203D9C0006E0B9F80600401C4FF0020AA9F80600A8892989814206D08842C8D2081A41F2E7
:203DBC00AB029042C3DA287C08B1052901D0082100E03E21284613F015FFA2E0787A08B155
:203DDC00022131755348F97B0068CA070AD52A683969D160143001F59071D160A97949019A
:203DFC00445011E0AA7900F114015201885830614748AB7901681C2001F1080243432968CA
:203E1C00D058C860EC832C77434A50690078810702D5B87B802800D1812005F174065146B3
:203E3C003070284605F0C8F928460AF0F9FE02281BD1F079022805DB01AA384928460EF022
:203E5C0035FB0446284613F011FE012859D020000DD0224601A928460FF0FAF938B928462C
:203E7C000AF0DEFE012802D14BE0012849D00121284613F0F7FD284613F0F0FDFDF784FA90
:203E9C0001283ED028460CF0A9FB01F0C9FF244FB988386810B1AA79914203D04FF6FD7078
:203EBC0081422ED11F49087B13F0A4F8040028D084F800A0A879608095F83910217195F88C
:203EDC009601607196F90010A171A4F80880B9F80200608113F056F8050005D1FF204FF06B
:203EFC00FF312073216109E02878207313F0B2FD0146A86813F0AAFD800820612046396882
:203F1C008847BDE8F78F00BF780E0020980C0020980E00209C0E002094C001006C1F0020D2
:203F3C00800E0020302300202DE9F84F8AB083460C4600208DF800001646B849C8798106C8
:203F5C001A4602D5B6488178880640F163811D98169B199D1E9908B900250CE059B9012B91
:203F7C000CBF4FF040094FF020094D4503DB012B0CBF40252025DDF86880DDF86C90C646BF
:203F9C001EFB09FE15FB0EF5AFB24FF0600A97FBFAFE0AFB1E775FEA070C18BF4FF0010C25
:203FBC00E6445FFA8EF70897AFB20997ADF81A208DF819408DF818609A4F3A78149CDDF863
:203FDC0054C0DDF85CE0DDF860A01C9E002A72D0ADF860A000279DF800A0ADF81CB08DF8AE
:203FFC0050408DF854C08DF858308DF85CE01D901E910899F8B2884279DAA8B26028ACBF9D
:20401C004FF0600BAB465FFA8BF02D1A4000203080B211F0CBFF04004BD0912020703E2182
:20403C0081226170A2705FFA8BF20998A080A7714B46BDF81C0020819DF81910A1729DF8C6
:20405C001800E072BDF81A10A1819DF85000A0739DF85410E1739DF8580020749DF85C1012
:20407C00617404F12001BDF86000608284F814B004F12000A06184F81580881884F8169019
:20409C00E675E06105904246A0691E9904900391CDF804A000961D989DF8581002905FFAC7
:2040BC008BF003F0D7F882465E480078214605F089FA7F1C9DE78DF868808DF86C908DF850
:2040DC0070609DF80090DDF82480ADF81CB08DF850408DF854C08DF858308DF85CE0ADF8C4
:2040FC0060A01D901E9100260899F0B2884280F29180A8B26028ACBF60272F46F8B22D1A58
:20411C005FFA87FA4FEA4A0000F1140B0BF10B00C0B211F04BFF04007AD001202070FF2133
:20413C0004F1080261706260042010703E22606842708120616881F802B06168C8704FEA84
:20415C002821606880F804806068417161688E716168BDF81C00C8716168BDF81C00000A7D
:20417C00087261689DF81900487261689DF8180088726168BDF81A00C8726168BDF81A009E
:20419C00000A087361689DF85000487361689DF85400887361689DF85800C87361689DF819
:2041BC005C0008746168BDF8600048746168BDF86000000A88746068C77460689DF86810B5
:2041DC00017560689DF86C10417560689DF87010817560681E9A9DF86C30039200F117019C
:2041FC005144059117300490CDF804909DF870101D989DF8682000910290F8B29DF8581093
:20421C0003F028F8814608480078214605F0DAF9761C69E70BB0BDE8F08F00BF280E0020DB
:20423C00200E0020803400207E3400202DE9F04FAE4D0020687095F83F10EB7895F83D001D
:20425C00ADF12C0D0918491E91FBF3F25A43891AC9B20691810001EBC0014919B1F84C009B
:20427C004FF0805909F5EC76ADF8140095F83C1095F83C009E4F0790880000EBC10040193E
:20429C00B0F84C80306895F83D4081683846884700F003000890D9F8D80142680021384638
:2042BC00904730688168384688470028F9D10021079F68780991A74200F09F808B46D94622
:2042DC00BBF1010F00F08E80BDF81410172964DB002840F09380BDF814006A46C01F81B2BA
:2042FC00ADF8141020460AF02BFEBDF80E70BDF81430F81D07F1100186B2994246D89DF840
:20431C000A00962842D19DF80B0042083AD2800838D3BDF814009DF80920C01B1FFA80FA28
:20433C00BDF8140039462346C01B80B210F092FF10BB08EB0600B0F5005F17DCE868C8F14E
:20435C0088520AEB443A3346921B514602F5005212F0DCFF09F1010908EB06001FFA80F883
:20437C00B8F5005F08BF4FF0010B0BE0BDF814004FF0010BC01D2DE0BDF81400401EADF84E
:20439C00140003E0BDF81400C01B23E0204605A90DF0E0FB01281FD030E0EA78B9F1000F34
:2043BC0007D0544BBDF81470A10001EBC401C9188F830699A14220D04E49641C94FBF2F0F3
:2043DC005043241AE4B2A00000EBC4004018808B4FF00009ADF8140007996878A1427FF4D1
:2043FC006FAF0AE0B9F1000F07D0424ABDF81470A10001EBC40189188F8320B1089812F0CC
:20441C003DFA10206FE04FF6F0704FF40051C8EA0040C8EA01414FF01009E1FA40F087B20F
:20443C001FFAA0F18A46D7B1202FACBF20263E1C079849460AF1885233460FF003FB6978AA
:20445C00BF1BBFB209EB06030AEB0602002F40EA01001FFA83F91FFA82FA6870E4D108984A
:20447C0012F00CFA0798A0420FD1E978214F0819401E90FBF1F24A43801AC4B2A00000EBD1
:20449C00C400C019808BADF814001A4EA5F84090BDF81400079FA5F84400B90085F83E40C6
:2044BC0001EBC7018919A1F81C80B5F9422095F83D100123384611F033F995F83E10B5F913
:2044DC0044200223384611F02BF9BDF814001728BCBF01200990B8F5005F03DB099840F09C
:2044FC000200099009980BB0BDE8F08F6C1E0020004003409C1E00202DE9F84F05004AD002
:20451C009C480078092818BF0A2804D00B281CBF0C280D2801D1212029E1A878002113F03D
:20453C0055FB040008BF4220F6D0934FA978914A3970107810B9A8789049087004F1480690
:20455C00F068417801F01201022902BF706900280C2012D0607AF0B1A07B012804D1B5F8EE
:20457C00030008B1812816DA6878402813DA204613F068FAB06808B90720F8E0B56128783C
:20459C0001281BD1A07B00281CBF0128042815D17B48007808B91220E9E07A494A78824251
:2045BC0008BF0920F8D004F1220004F13801427F802006F0B9FD08B10B20D8E0687808B998
:2045DC001120D4E02878DFF8C091DFF8C0A1DFF8C0B1012840F09380207A002101282173AE
:2045FC004FF00A0811D19BF80000402110F01EFBB5F8030008FB00F1402013F01FFA01003E
:20461C00DFD1B16968794871B0E001202072E172617309F025FB6060DAF8000080475D4A97
:20463C000146106802E06268426000680028FAD10846D9F8001088476168574848610021C6
:20465C0038780FF085FD3978012211200BF0EAFAF0684178C80605D5204613F0EBF9010022
:20467C000BD084E0002060840BF094FA84F82100204613F0DBF9010079D1F0684178C8074D
:20469C001CD504F14207B98800291CBF3068002814D03A788A4211D20F2013F0C3F968B17E
:2046BC00F06801788DF80010B888ADF801000F2039788DF80310694613F0B0F92D4F387893
:2046DC00002853D13549087800281EBFF068417811F0030F03D03248006813F09BF91120CE
:2046FC00387001212172B5F8030008FB00F1402013F0A4F901003AD101F092FB36E0207A63
:20471C00A8B3DAF8000080470546387801210FF01FFD9BF80000402110F088FA0020207229
:20473C0012F062FD012804D012F02CFC6168884212D110F0BFFD40F2014013F043FA19498E
:20475C001948086001219BF8000008F05FFED9F800102846884709E0204613F057F9D9F8D9
:20477C0000102846884720460FF02CFF0020BDE8F28F00BFC80F0020D60F0020D50F00203B
:20479C00D40F0020780E0020CC1D0020C81D0020C70F00204C0F00209D620000880E002020
:2047BC006C0F0020480F002041E700102DE9F14F82B013F04FF9009041F60301BDF8080038
:2047DC003225401A4FF0FF3B0328D9464FF0500842F21077DFF844A2914E6FD91E38012894
:2047FC0008D9801E6AD0001F00F0D580401E00F0028110E18B4A907812F030FA0400F8D0E9
:20481C00E08E618E90FBF1F77068A17950F83110009813F01BF901462089A279336ADFF803
:20483C0008C2DFF808E203280EDB814C2468382010FB02F014F80090B9F1010F1EBF2018A4
:20485C0090F82D0001280FD17D436424B5FBF4F47568985C2D1DF14615F83250A54217D2ED
:20487C00B0B9514529D313E07068041D08FB07F814F83240985C4FF0640BB8FBFBF84445E4
:20489C004FF0FA6904D218B9DFF8A881414501D3E1460AE0F369985C7D43B5FBFBF5AC42AA
:2048BC0002D208B9514508D3F146401C032190FBF1F101EB4101401A9854ACE05E48007894
:2048DC00002113F083F90400F7D0606D007811F053F9FF280190F0D0BDF8080041F603014F
:2048FC0088421CBF41F60401884207D041F62301884202BF207D8009012802D14FF07A79E0
:20491C0001E0DFF838913068019950F83110009813F09CF8226E0146B2F80300C0B1636D4B
:20493C0093F801C05FEACC6E08D5A47B012C05D1474340F2E24397FBF3FB09E0D3F8034035
:20495C00474324F07F4440F271204443B7FBF4FB507910B1584538BF8346394881420BD2E7
:20497C0032680198131D642213F8300008FB0BF3B3FBF2F2904202D309F102094BE05145F7
:20499C003FBF05FB0BF56421B5FBF1F1884242D309F101093FE03169009813F057F8024618
:2049BC0028480368186A41884FF07A6949B1808838B94F43D9698B8840F27120434397FBDE
:2049DC00F3FB1F498A4207D2307D08FB0BF36421B3FBF1F1884202D3DFF86C901BE05245F9
:2049FC003FBF05FB0BF56421B5FBF1F1884212D3DFF858900FE0B168009813F027F80D4900
:204A1C004FF07A79884228BFDFF8449003D2504528BFDFF840904846BDE8FE8F81841E0011
:204A3C005C310020780E00200200D0070100D0070434002001093D00D50F00200000B80BF0
:204A5C0001127A00500F00200200A00F0100A00F0200E8030100E8032DE9F04FA44C8246E7
:204A7C00E07894F8315094F83290BAF1000FADF1140D0146A1F101018FB218BF01214FF09A
:204A9C00000884F83F10464603964FF0F80B019622E0B1451ED0E06871036A46042312F0AE
:204ABC0035FC009911F4403F03D00198401CC0B2019001F0FF017C2918BF782909D1304663
:204ADC0006215A4611F096FD0C2016FB004080F848B0E078761CF6B2B042DADC0199401E40
:204AFC0088425BD0002F04F1300600F0CA8040464FF4005B019094F83F30E06813B901212B
:204B1C0084F83F106A466903042312F0FFFBBAF1000F05D00099E07811F4403F40F0998022
:204B3C00009800F0FF00702803D02846702110F0E1FDE0684FEA49316A46042312F0E6FBD5
:204B5C00009800F0FF00FE2803D04846FE2110F0D1FD48460621FE2211F04CFD4FEA89005D
:204B7C00FF22FE2184F83C9000EBC900A4F840B0AB0084F83D50801984F83E201830017071
:204B9C000199029003EBC5008019A4F84410808BA4F84200FFF74AFB102801D10020A4E0BF
:204BBC00BAF1000F0CBF10215146BAF1000F07D0B4F84000C0F50050814207DC01200390B0
:204BDC00B4F84000C0F50050814201DD782100E07C21484610F08EFD07F0BCFD054694F871
:204BFC003F000621FC22401B84F83F00484611F001FD0298FC21017094F83210E0787F1B8A
:204C1C00491994F83E500C23414491FBF0F24243891AC9B284F83210491C91FBF0F2424321
:204C3C00891A84F8311015FB0361898BBFB2102905D1691C91FBF0F24243891ACDB294F8CA
:204C5C003290DDF80480BAF1000F17D00398A8B117E06D1C08F1010295FBF0F17F1E94F872
:204C7C003F30A4F840B041431FFA82F8BFB2581E6D1A84F83F00EDB284F83D50002F7FF493
:204C9C003AAF7C200FF0D6FE0546FF2D1CD17E200FF0D0FE0546FF2D16D194F831500C203A
:204CBC0015FB0060807DFF280AD0E27894F832008018401E90FBF2F15143401AC5B203E0A6
:204CDC0028467E2110F016FD0C2084F8335015FB0060808BE08694F83200FE2110F00AFDA8
:204CFC00B4F84000C0F5005000B205B0BDE8F08F6C1E00202DE9F04F0546994CDFF8709214
:204D1C00A978A068ADF1440D002955D0491F03D0491E00F0E580FAE09249102003F002FD43
:204D3C00C7B20097A068022100227AA310F041FE687808BB0AF078FD0020804600908A4943
:204D5C00CDF804806A894346102003F0EBFC87496A891020012303F0E5FC40460DF00AFEF2
:204D7C00A668281D0EF0F2FA009002216DA34246304610F01EFE02E001200DF0FBFDA278EB
:204D9C007FB9002500956278494610202B4603F0C9FC2B460093A2784946102003F0C2FCB5
:204DBC00B5E0744D1020294603F0BCFC62781020294603F0B7FCAAE06F78002F40F0A78021
:204DDC00022100225BA310F0F4FDDFF8ACA15146CCC902A8CCC00EC9671C80E80E0002AB80
:204DFC001020DFF89CB1654900975A4603F09AFCC0B208B111F0C1FE0E2704F12C000097FD
:204E1C006049019062780023102003F08BFC04F12C08C0B208B111F0B0FE142004F13A0629
:204E3C0000905849019662780123102003F07AFCC0B208B111F0A1FE6278534910209223D1
:204E5C0003F070FC00260096627810204946334603F068FCC0B208B111F08FFE50461C3017
:204E7C00B0E80C5009A9A1E80C500DC881E80D00A01C5A4609AB41490090102003F052FCA5
:204E9C00C0B208B111F079FE0097CDF804803D49A2781020334603F045FCC0B208B111F0CA
:204EBC006CFEA27838491020922303F03BFC0096A27810204946334603F034FCC0B208B18C
:204EDC0011F05BFEA468A81D0EF040FA1FA1009132461BA301210190204610F06AFD16E056
:204EFC00022100221AA310F064FD002500956278494610202B4603F015FC2B460093A2784D
:204F1C004946102003F00EFC04200DF033FD11B0BDE8F08F4E756D20436F6E6E733A2025B3
:204F3C006400C046436F6E6E656374656420746F20257300496E697469616C697A65640027
:204F5C00257320416464723A2025730044657600446973636F6E6E656374656400C046C058
:204F7C00E0140020AD3E02103B6E01009D740100ED74011065020210C0B901009901011038
:204F9C00835E0100F5AE00001DEF011070B5864D687912F027F88549002808600BD00022FE
:204FBC00026002730868C2610262A87912F01AF87F490028086000F0F48000220260C2725E
:204FDC0000200A681074052308684374002209684A61E87A12F006F876490028086066D02B
:204FFC00754C21782878C91C10FB01F080B211F0F9FF72490028886059D0207800286DD09E
:20501C00698811FB00F080B211F0ECFF6C4A002850604CD06B482278017811FB02F080B2C9
:20503C0011F0E0FF68490028086040D000250AE0E8B211F07FFF0021418081600180022392
:20505C00037101736D1C2078E9B28142F0D311F0C9FF5E490028086029D02078400011F038
:20507C00C1FF5B490028086021D020781C2110FB01F080B211F0B6FF564A0028106016D058
:20509C002078400111F0AEFF5349002808600ED02078000111F0A6FF50490028086006D025
:2050BC002078000111F09EFF4D490028086078D02078302110FB01F080B211F093FF494AF2
:2050DC00002810606DD02078382110FB01F080B211F088FF444A0028106062D0434D444EBE
:2050FC002978307800EB4100C000103080B211F079FF40490028086053D000F1080141609D
:20511C0030782A7800EB4200C000103080B211F069FF39490028086043D000F108014160A1
:20513C001E212878401C10FB01F080B211F05AFF324A0028106034D0082011F053FF304D80
:20515C00286070B3062011F04DFF296808602968086830B300204860062011F043FF294995
:20517C000860F0B1A02011F03DFF274D2860C0B12078C00011F036FF686090B1142011F0D4
:20519C0031FFA86168B10026207811F02BFF05F11C0141F8260020B1761C022EF4DB0020C4
:2051BC0070BD072070BD00BF30230020500F0020540F0020440F0020D40F0020A4330020B1
:2051DC00780E00206720002008340020340F002000340020980E00209C0E0020A00E0020F5
:2051FC00A40E0020A80E00200434002086340020853400206C0F0020700F0020680F00200F
:20521C0018340020400F00205C3100202DE9F04F06469B48726900F16801C1F8B82000257B
:20523C003561F5603289A1F86C21327E81F8B5207268C1F86821327881F8B4203269C1F821
:20525C006021F2680227C1F8642196F8282081F8BC7042F2107B81F86E2196F82920A6F839
:20527C0022B0894681F86F21718D86F82170ADF17C0DA0F8D81116F11A00804600F0F58067
:20529C00B08B002800F0F180F08B002800F0ED80784C4046026804F1A8010A608088888062
:2052BC0094F8A800012814BFF08B1020A4F8AE00B8F80210B4F8AE00484380B2824612F00A
:2052DC00C7F8C4F8B000002800F0CF8098F80000012807D1504612F0BBF80028C4F8B400AC
:2052FC0000F0BF803078012805D1284609F0E8FC002840F0BA8016A811F0C4FC5E4968460B
:20531C00582209F0A3FF04F1DC006946582209F09DFF4FF0FF331693728CA4F81A21716805
:20533C00C4F8FC1041F2941017903389A4F8F0300E21A4F81411F268C4F8F42084F832705B
:20535C003369C4F8F830D4F8B020C4F80421307884F8F200D4F8B430C4F8083196F82120AA
:20537C0084F81F214FF6FF73A4F828314FF0200A84F8F3A046F60102A4F8DC20A4F8161197
:20539C0094F8E91084F8117101F0F001A4F8125141F0010184F8E9103F2384F810314FF483
:2053BC00C862A4F81821592384F81D514FF4D27284F81E3196F82830A4F824214FF001080B
:2053DC0084F8313104F17803A363B4F8AE2084F830810128C4F80C2106D030F002000CBFE1
:2053FC00A4F81AB1281C01D14FF4A560C4F8EC0004F1140104F1240216AB09F1080001F04B
:20541C004DFCC9F8B00080B3706A00B160601B4829465246A06004F158000BF0A7FB94F858
:20543C00F20004F15806012802D0022805D015E084F85E7038460FF04BFAB4F8AE0084F83A
:20545C00728010A7A4F8700097E803000836C4F82C6104F1600282E80300A56609F10800A1
:20547C0004E0D4F8B0000FF011FD28461FB0BDE8F08FC0468019002008B70100D59D000051
:20549C00E00F0020A4AA70F0CC81F85A2DE9FF477A4C7B497B4E20700A22002008600D2371
:2054BC0079484FF40471027043808180774A78481060377877480770FF2F7178417008BFBC
:2054DC00FF29B2788270F378C370357905717679467114D1FF2A08BFFF2B10D1FF2D08BF31
:2054FC00FF2E0CD16C490A7802704B7843708A788270CB78C3700A790271497941716749E3
:20551C000278674D674E684FDFF8A0810A7043784B7082788A70C378CB7002790A714079D4
:20553C00634A4871FF2028706870A870E8702871687100205F490880F06B5F4940780870F5
:20555C005E49F06B0078087013885D485D490380F06BC06C3860F06B90F83C0008705A497B
:20557C00F06B90F83D000870F06B4069017957484A1E0270F06B5649C07888F80000F06B73
:20559C008069086008B910F07BF9F06B5149C069086008B910F074F912F034FAF06B4E4993
:2055BC00006A086008B910F06BF9F06BDFF82C91406AC9F8000008B910F062F9F06B484976
:2055DC00806A086008B910F05BF9FFF7DFFC07280AD104F001FA20784FF4804107F016FFD6
:2055FC00002010F04DF946E03E480168884782460BF080FFD9F8000001688847684611F04B
:20561C0011FDD9F8002004208DF80000694652F8043F00209847344908600DF039FFF06819
:20563C00324A018898F80000314B014311805046196888470C212F4811F00EFF284612F060
:20565C00DDF912F0D7F92C4800214FF6FF72016082800621387882072848006848BF072171
:20567C0011F060FC0121FF200EF072FD20784FF4005107F0CBFEBDE8FF8700BFC70F002037
:20569C00380F0020D04F0050700E00203C0F0020B63F0050400E0020E8120050500E002094
:2056BC00480E002094C001000C340020C40F0020742400209E0F0020C60F0020D40F002033
:2056DC00783400208534002086340020CB0F0020200F0020240F0020280F00202C0F0020E1
:2056FC00300F0020C81D002010340020A00F0020CC1D0020FC0D0020800E002018340020AB
:20571C002DE9F84F0422FF21684611F001FB914988780024FF2800F01B8111F09FFA054689
:20573C0005F217100178012908BF417800F0948005F59276F18911B1307B07F067FE6889D2
:20575C00288105F17401844F887B022804BF05F174008473FB7997F80AC03A7BF97A787B0D
:20577C009C4494448C4405F58D790CEB0008B9F804E0B9F800C00EF1010EC444A9F804E0E5
:20579C00A9F800C0B9F802E097F80AC0F444A9F802C036681EB3DFF8C4E195F806B0DEF801
:2057BC0000E04FF01C0C0EF10E0A1CFB0BFB0EF10E0E1AF80BA036F81AB0C34426F81AB093
:2057DC0095F806A01CFB0AFC1EF80CC006EB4C0697F80AC0B6F84AE0F444A6F84AC0002BFC
:2057FC0008BF002903D1002A08BF002813D02989E8892C744118A9810122A97908200AF020
:20581C0011FA0026564948690078810728D5B87B802825D025E0A97908200AF003FAB87AA6
:20583C0010B101262C7405E0B9F80600401C0226A9F80600A8892989814206D08842E1D204
:20585C00081A41F2AB029042DCDA287C08B1052901D0082100E03E21284612F0C3F977E05B
:20587C00812005F1740731463870284603F0A4FC28460BF0F9FF02281BD1F879022805DBE8
:20589C006A46384928460CF011FE0446284612F0ADF801285CD020000DD02246694628460C
:2058BC000DF0D6FC38B928460BF0DEFF012802D14EE001284CD00121284612F0D3F828468C
:2058DC0012F0CCF800F0E6FE012841D028460AF085FE00F0A5FADFF890A0BAF80410DAF8BF
:2058FC00000010B1AA79914203D04FF6FD7081422ED11E49087B11F07DFB040028D0267099
:20591C00A879608095F83910217195F89601607197F90010A171A4F80880B9F802006081A3
:20593C0011F030FB050005D1FF204FF0FF312073216109E02878207312F08CF80146A868A8
:20595C0012F084F8800820612046DAF800108847BDE8F18F780E0020980C0020980E002038
:20597C0094C0010076240020800E0020302300202DE9F04F0646984CF08994F833504FF08F
:20599C00FF0A002742F2010BADF1240DC01D1FFA80F8E07808910AE0284678210FF0AAFEB5
:2059BC00E0786D1C95FBF0F141436D1AEDB2B84228DD94F832007F1CA842BFB2F0D0E06814
:2059DC00690305AA042311F0A1FC059800F0FF007828E5D004F13009FF2818BF7E2803D144
:2059FC0028467C210FF086FEA80084F8335000EBC5004844818BE186808B40448345CBDDA8
:205A1C0094F833A0BAF1FF0F08D14046FFF724F8804503DD607800B90520D9E0607894F869
:205A3C003370B0B9F588307AADF80650E18EB5888DF808006A4603233846ADF8045005F0A1
:205A5C00BBFF9DF81000BDF80C50307494F83370B581E068E58E790305AA042311F056FC51
:205A7C000598B84600F0FF0100F0FF007E2806D140467C210FF03EFE059901F0FF017C2981
:205A9C0040F0A380F0895A46C11D8FB2E9198A4240F39980F288337A11128DF8192063F3E7
:205ABC009F01B3888DF818109A1003F0030106468DF81A20C0F3851200F03F0342EA81125B
:205ADC008DF81B20990072198DF81C10F31D1FFA82FA98B20D282DDBDDF8209031460022CB
:205AFC00484611F057FB0246052106A811F052FB9DF81C10334600F03F0641EAA0114A4664
:205B1C00B0008DF81C1040F0020096268DF81D0029468DF81E6040460DF094FF064651460D
:205B3C0006AA0723404666700DF08CFF304360704DD135E0089904F12400324609F086FB69
:205B5C0006A90A68301900F12409484609790260731D0171002204F1240099B211F01AFB91
:205B7C009DF81C10962300F03F068DF81E3041EAA011B0008DF81C103B4640F0020006AEE3
:205B9C0049468DF81D003268B0790A60B288887140468A8004F1240229460DF053FF60701F
:205BBC00E18EED194FEA8806AAB2C919E18606EBC8010919A1F84C2048B1404651460DF0F4
:205BDC007DFD607803E0052000E001206070C0B209B0BDE8F08FC0466C1E00202DE9FE4F1C
:205BFC008A4C617811B900200FF04AFE11F032FF06464FF0000806F6C4160027844DDFF83F
:205C1C00149211E0384611F029F8417951B12A68817902F8081008F101015FFA81F8314693
:205C3C0011F0E0FE7F1CFFB299F800008742E9DB6178884505D000200FF022FE822011F0A2
:205C5C004DFF6078012840F0C480002701E07F1CFFB299F80000874280F2B580384610F094
:205C7C00FDFF064670790028F1D02968B0790A7890421CBF00200FF003FEB079A1E02868AB
:205C9C0010F8090010F0EAFF00684068DAF808108268914204BF3E4609F1010900F0A780D5
:205CBC00A9E0286890F800B001224FF4D0710FE0636803F5B176835C11FB03F901FB0BFE0B
:205CDC0036F809C036F80E60B44538BF9B46521CFBB29A42ECDB4FF6FF7011F07FFE064608
:205CFC00584610F0BBFF4C490068D0F804A00868D94630F8192060684FF4D07300F10E0189
:205D1C0003FB09F3C85AB2EBD00F53D2720840F6C410424300920027404A0190029218E041
:205D3C00584610F09BFF01680A78802A03D1DAF81410009A4A6101680B78402B08D10299A0
:205D5C0080790A6802EB4011009800F5A060C8617F1C47452EDA2868C05D8345F8D0014615
:205D7C004FF4D073594363685A1803F5B173D289595A53088B4202D2521A9045E8DA10F07F
:205D9C006DFF00684268DAF808009168019B7208A1F6C41103FB020011F01CFE0028BFD042
:205DBC001D48006830F81910491C20F81910286810F807B01848026800215B4622F81310EB
:205DDC005846BDE8FE8F00200FF05AFD822011F085FE617828680BF0FCFB2868007810F0D8
:205DFC003DFF00260068D0F804A04FF00109771CC145FFF644AFF6B2002E1CBFF8B2002804
:205E1C007FF44FAF286890F800B064E7780E0020340F0020D40F0020003400209C0E0020B8
:205E3C002DE9FE4F854D6E681EB9BDE8F74F11F0CDBD3078DFF808B2824FDFF80C92012846
:205E5C001CBF0228042841F64C5804D0402818BF802874D0EBE011F0C7F90028FAD03078F5
:205E7C0005F0D0F8824611F0ADFD044699F8010000283DD0FFF7B2FE10F0F0FE0190016837
:205E9C0000914E6894B1504607F048FF02280DD09AF800100129DDD118B911F0DBFD4044D7
:205EBC00A0600120A8701121397046E00098017880290BD10820654938700A787069012AF2
:205EDC001ABFDBF82410097801210AE007205F4938700A787069012A0EBF0121DBF8241046
:205EFC004978C17201988179009889F802109AE0BAF1000FAED09AF80000564507D10128F4
:205F1C0001D1D4B998E000200FF0BAFC15E00128A0D1002CF6D011F09DFD0146A06801F558
:205F3C00C241A83111F056FD18B911F093FD4044A060112038700121A970504673E099F8A1
:205F5C000100002856D0FFF749FE10F087FE8246DAF800000190466899F8020010F07EFE2C
:205F7C00029011F03BF910F0070F1FD0A87805F049F8009011F026FD040017D00199009812
:205F9C0007F0CCFE022811D000990A78012A0AD118B911F05FFD4044A0601120387001214B
:205FBC000098A9703FE000200FF06AFC029850451ED0019925480A78802A0AD10821397073
:205FDC000078012870691ABFDBF824100978012109E007223A700078012870690EBF012183
:205FFC00DBF824104978C1729AF8060089F80200019818E011F0F2F810F0070F1CD0A878D1
:20601C0005F000F8064611F0DDFC04463078012812D18CB111F01EFD4044A0600121112023
:20603C003870A9703046BDE8FE4F07F0B9BABDE8FE4F00200FF024BCBDE8F78FA43300209E
:20605C0094C00100C80F0020780E0020CC0F0020F8B5144600254FF48067864EC21B84B0FC
:20607C0006F184032AD0921E2FD0521E34D0521E39D0521E3ED0521E42D0521E58D0921EA8
:20609C005BD0D21E00F08780521E00F09280921E00F09B80521E5BD0521E00F09D80521E1D
:2060BC0000F0AB80521E00F0AE80521E2FD0121F00F0BB80921E00F0BF80CDE001296BD15E
:2060DC002078022868DC7070D0E0012964D12078022869D2B070C9E001295DD120780528CC
:2060FC0062DAF070C2E0012956D1207802285BD27072BBE010294FD1102221465E4814E0FD
:20611C00012949D1207802284ED23071AEE0012942D12078022847D200287071F6D0012006
:20613C007073602206F12401184610F0DDFD9DE0012931D12078B07298E000292CD111F088
:20615C0009FD10B9FAF784FA18E0012030748DE0072921D10622611C02A810F0CBFB0095EF
:20617C000023217801AA02A807F092FE88B911F0F1FC40B99DF80400FAF77BFA0546502089
:20619C0010F00CF91EE0F1699DF80420012088546CE034256AE001295CD1317B207802291B
:2061BC0003D0C11F0A2902D354E0102852D1F0725CE001294ED1F17B2078F073002908BF3B
:2061DC00012853D1FAF7EFF950E0012942D1207803283FDCB07349E001293BD120780228EE
:2061FC0038DC002836D03073022803BF1020F0720120002011F0E2FB38E001292AD120782C
:20621C0010F022FA32E0707920BB602907D10CB360222146184610F067FD012003E0012977
:20623C0018D1BCB12078707320E0012912D18CB120781249087019E061B911F08BFC30B938
:20625C00FAF7A7FA0546502010F0A8F80EE0012070740BE0182509E0092806DA022904D120
:20627C00218811F0E7FC054600E00225284605B0F0BD00BFD41C00209031002089340020C6
:20629C002DE9F84F7F4A82461078002111F09EFC9AF80010044601291CBF00200FF0F0FAB6
:2062BC0014B900200FF0ECFA04F14C0B0025DBF808004178DBF80460C8064FF47A674FF083
:2062DC000B0841F64C5929D506F1680005808570C57005714571C58005818572C5727567A6
:2062FC00A07B012819D011F0B5FBB168484411F071FB002811D011F0ADFB4844B06011F043
:20631C000AF80B2290FBF2F2B16808FB12081FFA88F007FB0017B76027617CE006F194005D
:20633C0005808570C57005714571C58005818572C572C6F8A05011F08DFBB168484411F090
:20635C0049FB88B111F086FB4844B06010F0E3FF0B2290FBF2F2B16808FB12081FFA88F041
:20637C0007FB0017B760276106F14007607DC1064FD5307CA27D521CC0F38001002392B26F
:20639C0000F0030011F07EFBA0831E20A28B02F59B731E2193FBF0F001FB1030C0B208B1CD
:2063BC00C0F11E008C46801800F59B7002F5967293B293FBFCFC01FB1C316083A283C9B2F2
:2063DC0009B1C1F11E018A18A28392B2E17D491E4A4312FA80F06083618BB068A63100EB94
:2063FC00810030660220F877618BB06800EB8100B0633878012802D1B06B0C30B063A18C13
:20641C00B06BA63100EB81007067022086F8730001E03566FD776168DBF804001A4A8A6139
:20643C004860DBF808205078C3065CBF102088615078830703D5886940F4002088615078B8
:20645C00430703D5886940F4000088610F4B187800281CBF507810F0030F03D0886940F431
:20647C00802088618BF80050DBF80810087E10F0300F04D05046BDE8F24F0CF0F1B9BDE859
:20649C00F18F00BFD50F002002000080880E00202DE9FE4FDFF8D4B19BF80000401E03288A
:2064BC004FF0010808D9103840F0DA80704B1878002111F08BFB044614B900200FF0E0F9C3
:2064DC00606D6C4F41786C4EC806216D4CBF886CC86E0622016801F1080909F1020101A8DA
:2064FC0010F002FC99F800201E2502F00F01C2F3801003298DF80000DFF880912CD101A907
:20651C0011F050FB002826D0606D807C012818BF032820D1316801A811F040FBFF281AD081
:20653C0015FB00F53068425D4019411C386811F041FA99F8001088420DD030684019C11D5A
:20655C00386801AA11F032FA30684019062201A9C01D10F0C9FB76E002F00F00052872D17C
:20657C009DF800004FEA521A01A911F01BFB78B3316801A811F012FB616DFF2820D0897C9F
:20659C00022918BF032915FB00F50AD13068425D4019411C386811F00DFA99F800108842D1
:2065BC0051D030684019C11D386801AA11F0FEF930684019062201A9C01D10F095FB23E059
:2065DC004878C10646D5607B40F0020060731BE09BF80000022836D19DF80010306801AA76
:2065FC0011F064FBFF282ED015FB00F5306841194A7F012A04D00D30401911F0D7FA10B310
:20661C0040F2014011F0DEFA606D4178C80621D51B498878410606D55FEACA7003D4206D5B
:20663C0041F20A4102E0206D41F204414180418341861448144A0180144815491160012105
:20665C00007806F0E3FE606D4178C80602D5216D886C01E0216DC86E01680020087101E09A
:20667C004FF000084046BDE8FE8F00BFC80F0020D50F00206C0F0020680F0020853400203A
:20669C00C00C00209A0F0020480F0020C70F0020398B00102DE9F8437A4CA178FF2904BFCD
:2066BC0000200FF0EDF8A07810F0D8FA044604F5C9752089411C61812A78012A02BF6988E8
:2066DC00401C814207D16A792A71002028701346A17906F069FD04F1820704F12E0638784B
:2066FC00012802BF60897988884230D104F18601204611F083FA6189E0894118A181F88831
:20671C00B1883A8900EB0108B8898A4204BF3189884202BF7B89F1888B4207D0000900909E
:20673C007B89A1795208002011F064FAB088A4F864013989B1807889F080B9893181387904
:20675C003070204611F052FA0221397001E0B6F804802068DFF83091C168016140F6C4172F
:20677C00C16807FB0818C0F80C80C0F80880D9F80010A379C0684FF01C0801F1080218FB97
:20679C0003F3D050A079D9F8001018FB00F001F10C020C31135C03F0F00343F002030B54A1
:2067BC00D9F80000A179821C18FB01F100235352287908B90FF064F8D9F80000A27900F1CD
:2067DC001001287918FB02F240088854A079D9F8001018FB00F008440021417428790428D4
:2067FC0014D1A079D9F8001018FB00F001F110022D7A135C103143EA85030B54A279D9F840
:20681C00000018FB02F2024420205074A079D9F800101E4A18FB00F00844002141821C4911
:20683C001368086BA579006803EB451CB38843436425B3FBF5F56F43A7F596671548CCF82B
:20685C0014700378012B06D11068A17900EB41120120D07206E0486A1168A279007801EB57
:20687C004213D872A079D9F80010226818FB00F801EB08005060204611F0B0F90020BDE855
:20689C00F28300BF780E0020980E00209C0E002094C00100CC0F00202DE9FE4F9B46154683
:2068BC008946824610F0CCFD7B490190F83908680CAF504508BF4868744C6FF0010828B19E
:2068DC00803010F0F7FA002840F0D0800FF014FB061C00F0D58004F1B40010F0ABFD00236A
:2068FC00B4F98C00C6F80C90401C86F832306FF31F30A4F88C00C6F808B0B4F88C00308670
:20691C006348C6F810A097E80C0020210027B8461940104006F1180383E80300424686F822
