:20000000003C0120653A010039FB021039FB021039FB021039FB021039FB021039FB02103F
:1C00200039FB021039FB021039FB021039FB021039FB021039FB021011FB021002
:20003C0038B586B004468DF805104FF6FF720120ADF80220090ADFF8905CADF8000002235F
:20005C008DF806108DF8043069462A78204618F099FB162803D12978204618F08FFB07B07B
:20007C0030BD3EB504000D461AD0DFF88C0C0068224618F07FFBFF2811D0002000900023A7
:20009C0001AA294620460EF02FFD40B900F0B9F8C00604D500F0B5F810F0040000D00120CF
:2000BC003EBDFEB5164615244FF6FF7290420D4615D100208DF80400DFF80C7C9DF804007F
:2000DC00B97988421AD23246294600F0C9F800B100249DF80400401C8DF80400EEE718F054
:2000FC0045FB50B100F004FD40B99DF804003246294600F0B5F8002400E014242046FEBD3F
:20011C002DE9F04387B00C460021009190461D46014600F04DFD01260028DFF8AC7B62D105
:20013C0000F06FF88146082DF87908BF002600F012FA040002D100F011FA5BE078789DF864
:20015C00041002280CBF0120002000902B464A46404600F0D7FC1422002102A8062517F02C
:20017C0013FB9DF8040015FB00F0243002AA00F044F8A8B91022FF2102A816F0F8FE78B906
:20019C009DF8040015FB00F5253506AA0421E8B216F0AAFA02AA09F00101404618F0E2FA21
:2001BC00F9799DF80400890670302246090EC0B216F09AFA88B9204600F0C5F8002508E0FD
:2001DC0004EB8000018819B18278404616F062FD6D1CF979E8B28842F2D39DF8040000F0AF
:2001FC0003FA00F0C2F97878022803D116B1404613F018F807B0BDE8F0831021C0B216F075
:20021C0073BA9DF80400B3E17CB50D46044606214C43164600F01EF8A8B900F016F890B9DA
:20023C009DF80700002E14BF054320EA0505E9B2814206D08DF807506A460821E0B216F028
:20025C007BFA012076BD002076BD0622FF21684616F08DBE20346A460821E0B216F044BA5C
:20027C002DE9FC410646344606235C4388461546FFF7F0FF002850D1FFF7E7FF00284CD109
:20029C00DFF8447AF87900F066F9040002D100F065F942E0F979703689062246090EF0B2DE
:2002BC0016F022FA002834D1204600F04CF85FEA08000DD1FA799206120E0021204616F052
:2002DC0056FE30BBFA799200002100F041F916E0214600F025F858B9280004D02146002075
:2002FC0000F01EF810B900F040F916E0A0F800808178A9420DD085700DB900210180204658
:20031C0000F021F8F97989062246090EF0B216F013FA00F02AF9012000E00020BDE8F68133
:20033C0070B5DFF8A439DD79002200E0521CD4B2AC4206D231F824608642F7D101EB840009
:20035C0070BD002070BD10B50021DFF87C290AE030F82130DB4320F8213000EB8103491CE7
:20037C009C78E4439C70D3799942F1DB10BD2DE9F04186B0804600200E460090002398F860
:20039C00061004AA40460EF0AFFBDFF83C590627A0B1002400E0641CA979E0B2884280F0F3
:2003BC00C780A869E3B20622FF2100EBC30016F0DEFD0028EFD08DF8104013E0706988B19C
:2003DC0000F0C1F823306A46FFF717FF50B91022FFF73CFF30B998F80600414600F00100E6
:2003FC0018F0BCF99DF81000A979884280F09C80E87900F0B0F8040003D100F0AFF80A2075
:20041C0093E000F0A0F820304246082100F0AAF89DF8100000F0E8F8EA79920000F097F849
:20043C00E9799DF81000890670302246090E00F099F8A8699DF810300822414600EBC30025
:20045C0017F098F9726972B1107C002302F1110100F0010018F07EF9726922B100F073F8BD
:20047C00233000F07EF8B2682AB100F06CF821301C2100F077F832692AB100F064F822305D
:20049C001C2100F06FF8F26882B100F05CF8243000F067F8F06800F110029DF8100017FB26
:2004BC0000F725370421F8B216F046F9E87B08B100F052FBB688286A4FF6FF7750B905F1D6
:2004DC00120100910223DFF860283946012018F03DF92862296A19B3FF2003900222002318
:2004FC000292019305A800900DF112036A8A304607F068FA68B99DF812009DF8131000EB3A
:20051C00012290B228B1286A418992B23046FFF7C8FD6A8A286A0023394618F013F92862EA
:20053C0000F023F8002000E0152006B0BDE8F081DFF8F827107800281DBFDFF8F4170868BF
:20055C0004780C4637E79DF8100078437047FF21204617F019B9800017F076BA042015F03D
:20057C000DBF1021C0B216F0E7B8204617F074BAE0B50623584320306A460821FFF73EFEFC
:20059C0010B99DF807000EBD00200EBDDFF83807007808210DF0F8BC38B50025DFF8284764
:2005BC0019E0A069062313FB05F300EBC50220330821D8B216F098F858B1A0690622FF2146
:2005DC0000EBC50017F0E0F8A06900EBC5010022CA716D1CEDB2A1798D42E2DBE07B10B16F
:2005FC00BDE83140B8E231BDF8B5DFF8DC16DFF840578B792E681C461A4600E00A46D1B24E
:20061C0039B1511ED2B2324412F8017C8742F5D10C46E0B2591E07E01718165C7F78175410
:20063C002A680244401C567088422A68F4DBE4B28C4205DA1946BDE8F840052016F07CB89B
:20065C00F1BD38B500200024DFF87C56AA79E1B2914206D2010004D1E0B200F003F8641CC2
:20067C00F4E732BD2DE9F84F83465D46062313FB05F58EB005F1200701AA0821F8B216F0BB
:20069C0033F8002871D10622FF2101A816F06FFC00286AD1DFF83066F079FFF75CFF5FEA74
:2006BC00000903D1FFF75AFF0A2060E01C22FF2103A817F069F8F2799200FF21484617F065
:2006DC0063F805F123040AAA1021FFF7C6FD60B91022FF210AA816F04AFC30B99DF80A00F7
:2006FC0001A900F0010018F039F8082200F046F801AA0821F8B216F01FF88DF8000003AAE5
:20071C0005F1210000F036F8074605F1220003AA00F030F8804603AA1021E0B216F00CF81E
:20073C00044605F1240003AA102100F024F88246253503AA0421E8B248EA070715F0FCFF81
:20075C002743F1799DF800504AEA0707074389060BF170034A46090ED8B215F0EDFF0743CE
:20077C00484617F079F93D4300E0002528460FB0BDE8F08F1C21C0B215F0DEBFFF2101A866
:20079C0017F002B82DE9F84187B0FF208DF80000DFF83455A87917F057F9040003D1FFF7AC
:2007BC00DDFE0A202EE01022FF2103A816F0ECFFAA79FFF7CCFE0622FFF7E0FF03AA10215E
:2007DC00022015F0B9FF064603AA1021032015F0B3FF06436A460121042015F0ADFF0746DD
:2007FC00A9792246052015F0A7FF054601AA0621062015F0A1FF8046FFF7B7FE3E432E4338
:20081C0048EA060008B0BDE8F081F8B50446DFF8B8542079012842D0092803D07D2800F06F
:20083C007F8084E0617860881A2976D000F066FA022802D0032818D079E02089668801227D
:20085C00012804BF6089032807D1E168887820B91021304600F023F90246686900281CBFB3
:20087C004368002B63D0052116E020896688012804BF6089032806D1E068827804213046EC
:20089C0000F00DF900E01820696900291CBF4B68002B4CD0024604213046984747E0207ADB
:2008BC006788082838D1384600F028FA02280FD0032831D160890022042100F0F0F8696954
:2008DC0000291CBF4B68002B26D00246042121E060890022102100F0E2F80646384617F0DF
:2008FC0045FF78B1DFF84C24117839B9811D4079012200F0010017F021FF03E0DFF8381415
:20091C0001200870686900281CBF4368002B03D03246052160899847608800F089F906E0FF
:20093C00608800F0EBF90146608800F0A2F9217904F10800BDE8F44017F0FCBEF0B5A9B0F6
:20095C0006460D46144617F011FF08B91420A4E0A4220021684616F017FFADF800600DF13E
:20097C002607DFF86463F078B17A279A8DF804005208F07A8DF8A0004B0801F0010040EA5B
:20099C00420222F0020203F0010342EA4302080922F4807200F0010042EA0022480922F4BA
:2009BC00007200F0010042EA4022880922F4806200F0010042EA8022307B890822F004028E
:2009DC0001F00101022842EA81020CBF012000202792787417F0AAFE412807DB307B00B128
:2009FC0008209DF8991008438DF89900707BB8B10121B974202206F184010DF1390016F06E
:200A1C00B9FE202206F1A4010DF1590016F0B2FE202206F1C4010DF1790016F0ABFE00E014
:200A3C00B874707A8DF8050088B1C44F102207F110010DF1060016F09DFE9DF89900082870
:200A5C0005D1102239460DF1160016F093FE307A8DF8260028B11022B9490DF1270016F0BB
:200A7C0089FE307948B1022D18BF032D03D1279840F002002790012100E000219DF899002E
:200A9C000143B0788DF8991000B1042001438DF899106846214617F045FE29B0F0BD2DE95E
:200ABC00FC41154615244FF6FF72904288460DD10027854EB179F8B2884216D22A4641469E
:200ADC00FFF7A2FB00B100247F1CF3E717F04EFE50B100F00DF840B99DF804002A4641464B
:200AFC00FFF792FB002400E014242046BDE8F681002100910023417901AA01F00101801DCF
:200B1C000DF0F2BF70B504460D4606204543082B88B0164603D1300758BF223500D5213530
:200B3C001C220021FFF72BFE01AA1C21E8B215F0DBFD78B99DF81E00C01F0A280AD20C9847
:200B5C000090F20801AB02F0010206F00101204617F0E4FD08B070BD38B517F0DBFD002433
:200B7C00594D0FE0A8690622FF2100EBC40016F0FEF928B9A86900EBC401002017F0C6FD33
:200B9C00641CE4B2A8798442ECDB31BD3EB50C4600250146009500F00BF838B99DF80400C4
:200BBC00FFF7E6FCC00601D401203EBD00203EBD002301AA20460DF097BFF8B506460F469A
:200BDC0015460C2016F040FF040019D02681A77200202060E07245B10821284616F0FEFA03
:200BFC00606018B9FFF7C1FC0BE060605548016811B9046004E0014608680028FBD10C60BB
:200C1C000CB91520F2BD0120E0722A4639463046FFF794FE04462C48406900281CBF43689A
:200C3C00002B03D000220021304698472046F2BD38B505464348046803E02089A84204D074
:200C5C002468002CF9D1012032BDE07A012807D100F05EF820B11C48007804210DF094F9E9
:200C7C00E17A491CE1722846C9B200F002F8002032BD38B502290446134D02D003290DD0C6
:200C9C001EE042F6C921FFF7CBF902001CBF6869002818D04368B3B105210CE042F6A62180
:200CBC00FFF7BEF901001CBF696900290BD04B684BB102460421204601B0BDE83040184712
:200CDC00BDE8324002E031BD4417002010B51D4B1968002201E00A46096851B10C898442C7
:200CFC00F9D10868002A0CBF18601060084616F0B3FE002010BD0000680F002002460420CC
:200D1C001049096819B10B899342FAD1C87A70470C48006828B1006818B1C17A0029FAD101
:200D3C007047002070470000C4BB0100842E0020182E0020AA0F0020852E0020542B002006
:200D5C00842B00201C2E002038B5244C2070A171E271C80016F078FEA061D8B1A279D20031
:200D7C00002116F011FDA07916F06EFEE06108B9A0690DE0A2791A4D002116F005FDA079DB
:200D9C0016F062FE286050B9A06916F065FEE06916F062FEBDE83240042015F0EFBAA2791B
:200DBC00002116F0F1FC04F1E40017F0ABFC2178062017F0A3FCFFF7EFFB2A68A179052066
:200DDC0015F092FC48B1002004E02B68091A4A1E1A54401CA1798842F7DB31BD4417002060
:200DFC00182E00202DE9F04F8B4D8FA04FF0070A28600026C5F808A0ADF1240DEE604FF056
:200E1C00FF306860382017F054F8286110B3066005F1280188A74160804C87602869002807
:200E3C00C46017D089A101617D4F476112D0866105F11401C1610DD089A10162DA4F476259
:200E5C0008D0866205F15001C16203D0066305F17801416387A0A8624FF0020BC5F830B0E3
:200E7C004FF0FF37EF6210206D6317F022F805F150040FF21C2884A1A863079128B10160DE
:200E9C00CA4F476042468260C76083A0A8670327C5F880704FF0FF33EB671820C5F8845050
:200EBC0017F007F8C5F8880058B17FA10160C0497FA2416007468260F96017B17EA038616F
:200EDC0079617FA068610827EF614FF0FF33AB6140202D6216F0EDFF3146B64B686218B14C
:200EFC00CA00865082185360491C0829F7DB77A02865AF654FF0FF336B654020ED6516F0D0
:200F1C00D8FF3146AC4B286618B1CA00865082185360491C0829F7DB6E66C5F86CA04FF0E8
:200F3C00FF30A86638202C6716F0C3FF002868671FD069A10160A14F4760866005F18C0352
:200F5C00C36016D067A101619D49416111D06AA28261C1610DD06DA101629A4F476208D0D0
:200F7C00866205F13C01C16203D06DA10163964F47636EA0C5F88C000427C5F8947005F10A
:200F9C00640205924FF0FF33C5F890302020C5F8982016F08EFF0746002FC5F89C700FD0DE
:200FBC0065A038608948786066A1B960F86007D067A1396169A2786107F118031A60F86114
:200FDC0069A0E86305236B644FF0FF322A642820AD6416F06EFF0028E86414D00799016087
:200FFC007B4A426066A38360C2600CD066A101614346426100F118010B6000F12001C26145
:20101C0064A30B60426217F075FB13F0D5F85FEA000900F0EC8005E01C2800206D6301008F
:20103C007D770100D6E0C04653696D706C652043656E7472616C00C0446973636F76657291
:20105C00204465766963657300C046C053746F7020446973636F766572696E6700C046C0C2
:20107C0043616E63656C20436F6E6E656374696E6700C046536574205363616E6E696E6763
:20109C002050485900C046C031204D62707300C0436F64656400C046536574204175746FF0
:2010BC00436F6E6E6563740044697361626C650047726F757020410047726F7570204200B9
:2010DC00436F6E6E65637420746F00C0576F726B207769746800C04647415454205265617A
:2010FC006400C046537461727420525353492052656164696E6700C053746F7020525353A3
:20111C00492052656164696E6700C046436F6E6E656374696F6E2055706461746500C046F1
:20113C00446973636F6E6E65637400C04741545420577269746500C05772697465203078DB
:20115C00303000C05772697465203078353500C05772697465203078414100C0577269749B
:20117C0065203078464600C053657420436F6E6E2050485920507265666572656E636500D0
:20119C0032204D62707300C03120262032204D62707300C03120262032204D6270732C208D
:2011BC002620436F6465640069770100E52401003DAB0000E5130100B10F0100794801009F
:2011DC00290F010019D30000F16D0100DD0A01003128010015F062FB3746D64C0690062070
:2011FC0034F80C3F2BB1401E07F10107F8D116F088FE4FF6F878A4F80080C4F80490A660A6
:20121C00D24CD9F8040060610698277016F07AF904F148073146384617F068FA08F10708A6
:20123C0004F1B800A761082720F8108F7F1EC660FAD1CE4F07F1180007F10C010EF080F8C1
:20125C00CB49B86016F008FDDFF82893B8684FF4E0214A46521E14F029FAB8684FF4E021BA
:20127C004A4614F023FADFF81093B8684FF0C0514A46521E14F01AFAB8684FF0C0514A469F
:20129C0014F014FAB146C8223346CB49CDF8009007F1240013F09AF8CD48CE4ECE4915232C
:2012BC004A46786006F10C000090102008F0F2F844F26827FB201B224FF4A473CB490090EA
:2012DC001020019708F0E6F8C949102008F0E2F82178502015F068F9C6490246102008F052
:2012FC00D9F8C54910204FF0FF3208F0D3F8CC4910204FF0FF3208F0CDF82178502015F010
:20131C0053F9C9490246102008F0C4F84FF480600121324605F02EFE721C40F20240012125
:20133C0005F028FEB21C40F20340012105F022FEF21C40F20640012105F01CFE321D40F2C4
:20135C001140012105F016FE721D40F20D40012105F010FEB21D40F21240012105F00AFE50
:20137C00F21D40F20C40012105F004FE06F108024FF48360012105F0FDFD06F1090240F23F
:20139C000F40012105F0F6FD06F10A0240F20740012105F0EFFD0B3640F2144001213246F8
:2013BC0005F0E8FDB44904F14002102008F072F8C2494A461020134608F06CF821785020E8
:2013DC0015F0F2F8BE490246102008F063F82178502015F0E9F8CDF800B003460822B94957
:2013FC00CDF80490102008F055F84FF0FF30494611F0A8FF206149464FF0FF32284615F06B
:20141C00FFF92069DFF8C0B258B1AF684FB1594657460861AD4E0F702846CE6014F026FAE7
:20143C0020695D4629784A46AAA315F040F841F2054B606949464FF040424FF0FF3317F095
:20145C0051F95FEA0008F4D0CDF8089003A804A902AA11F047FF002840F017819DF80C00D8
:20147C000DF10E0114F05CFC002840F00B81BDF80E00ADF80C0015F0B5FDBDF80C001028DF
:20149C0040F0FE8020789DF81010884240F0F880029801884FF6FF728A4200F0F180017844
:2014BC0091396BD01F3903D0203900F0E780E7E04288874906460123102007F0EBFF002826
:2014DC004DD002992A7820694B78162B02F101023ED00B790B2B2FD0012B02D1097A0A2997
:2014FC002AD03179132915D0012902D1337A122B10D07E290BD07F2906D0E778002F2ED0B8
:20151C0030460AF0A5FC2AE0318978A322E0317A7AA31FE0012919BF21797CA3317B80A36C
:20153C000091D1B24A4614F0C2FF059814F09EF915E0C0462C1900203179012903D0F1688E
:20155C0009787BA306E0317B7EA303E0E00F0020317980A30091D1B24A4614F0A8FF317965
:20157C0006F1080017F0E6F88AE0C046801A0020415501000E0005800E00001041780E39F9
:20159C005BD0491E3AD0491E70D02E3978D181780C2975D1C7780FBBC17901290ED0022952
:2015BC0008BFDFF894A20BD003290CBF0FF2B81A0FF2BC1A04E0C04679760100DDF81CA054
:2015DC002F782669808815F015FC6FA344E0C046A17D0100781C0020292C01002F78266900
:2015FC00808815F007FC6EA3009038E00D3D0210397F0110F16C021001690100818826696F
:20161C002F78A1F20643002B3AD041F62C415B1A0CD180781A2805D0009067A37F1C1FE0BD
:20163C00916C01006BA3F9E72D6D021081880091807874A3FF1C019012E081888B451FD1E6
:20165C0081682F7826698A78487891F903A000EB022015F0CFFB74A30090CDF804A0BF1C99
:20167C00F9B230464A4614F022FF09E00820494609F09CFB04E0C046B569010000F0DEF879
:20169C00029810B1029816F0D9FB5FEAD870FFF4D0AEA069064617F021F8864208BF4E46C5
:2016BC0002D0866814F0A2F9002E3FF4C2AE304601F0A8FD304614F099F9EAE7111C0210B6
:2016DC00D96C0210C1B80000381D002015BB0000D54D02103D3D3D3D3D3D3D3D3D3D3D3DC9
:2016FC003D3D3D3D3D3D3D3D00C046C04D54552053697A653A20256400C046C046432056C7
:20171C00696F6C617465643A2025640057726974652073656E743A2030782530327800C042
:20173C005772697465204572726F7220256400C052656164207273703A20307825303278FD
:20175C0000C046C052656164204572726F7220256400C046415454205273702064726F703F
:20177C0070656420256400C0434F44454400C046556E6578706563746564205048592056AA
:20179C00616C756500C046C025733A20504859207570646174656420746F20257300C04615
:2017BC0025733A20504859206368616E6765206661696C75726500C0504859205570646141
:2017DC007465205374617475733A2030782530327800C046504859204368616E676520668C
:2017FC0061696C7572652C207065657220646F6573206E6F7420737570706F7274207468DE
:20181C00697300C0556E6B6E6F776E20436D64205374617475733A203078253034783A3AD1
:20183C0030782530327800C025733A20525353492025642064426D009C1100002DE9F04F14
:20185C000646AF4CDFF8BC92DFF8BCA2B178A079ADF12C0D002900F00F82491F00F0198116
:20187C00491E00F08480491E56D00A3935D0091F40F0A682216AE0B1002908BFE0790CD05B
:20189C0004F1380015F0E1FC206A14F0AFF80021E0792162401EC0B2E07100904F463978F4
:2018BC0020690022CEA30831C9B214F000FE0DF09DFD607800280CBF4B266B264F46397890
:2018DC0020690022D2A3C91CC9B214F0F0FD50463146F24314F094FF72E2B77BF5888DF81A
:2018FC0012707289ADF80A50B088ADF80E203389ADF80800AF49B789ADF80C30012502AAF1
:20191C00ADF8107010208DF8135007F0C3FDA079002840F04C8153E2D649B288102002AB0E
:20193C0007F0B8FDF0B94F46F07825693F787F1C58B90DF10A0012F0ADFA0090BDF81C1026
:20195C00BAA3480000EBC10006E00DF10A0012F0A1FAB1780091BCA30190F9B200222846AA
:20197C0014F0A5FDA079002840F0218128E2B7884FF0430BE8B104F13800804616F0AFFA81
:20199C00061C16D04FF6FF75308A87420CD14046314615F05AFC4046314615F0F5FDB07C92
:2019BC0000F0FE00B0743582304616F09AFA061CEAD1384611F0C4FF617804F1C8054FF633
:2019DC00FF7C08220020A5F1100333F8106FB74204D0521E00F10100F7D104E0491EA3F8F6
:2019FC0000C0C9B261700646A07908B10DF0FEFC082E01DB16F018F805EB0610801C12F0DE
:201A1C0049FA00904D46099029782069002294A3C91CC9B214F04BFD6078009029782069EA
:201A3C000022D9A3091DC9B214F041FD564694F80180D6F81C904FF0010A0025A94512D89F
:201A5C00B8F1000F18BF4FF0630B30466FEA0B02594614F0D5FE2089B84240F0B181304661
:201A7C0013F004FFACE1706A099950F835000F2215F010F850B906F114000AFA05F1002250
:201A9C0014F0BEFE94F80180D6F81C906D1CEDB2D4E77589311D361DD0B1276AC7B1226A4B
:201ABC00084608321146062215F08AFB216A04F13807384615F0C9FB216A384615F06FFDF9
:201ADC00216A887C40F0010088740D820027276294F801C0B6464FF0000804F1C802082375
:201AFC004FF6FF768DF82380A2F11000414630F8107FBE420AD05B1E01F10101F7D110E008
:201B1C00E00F0020381D00201C28002005807646801C3368B78803600CF101058780E8B203
:201B3C006070082901DB15F07FFF02EB011080F80880801C12F0AEF94F468346CDF800B013
:201B5C00397820694246A0A3C91CC9B214F0AFFC607800903978206942468BA3091DC9B25C
:201B7C0014F0A5FC60780828B4BF4FF01C094FF01F095646F76945464FF0010AAF421BD8A9
:201B9C006FEA090130464A4614F03AFE9C4910204FF480620DF1230307F07CFCA079002876
:201BBC0000F00E819DF82300022800F009810DF01DFC05E1D9570110706A50F835005946FB
:201BDC000F2214F067FF38B906F114000AFA05F2414614F015FEF7696D1CEDB2CEE7C04676
:201BFC004175746F436F6E6E6563743A204E756D626572206F66206D656D6265727320691A
:201C1C006E207468652067726F757020256400C0436F6E6E6574696E6720617474656D70D3
:201C3C00742063616E63656C6C656400557064617465643A2025732C20636F6E6E54696D7C
:201C5C00656F75743A256400557064617465204661696C656420307825683A20257300C019
:201C7C00257320697320646973636F6E6E656374656400C0F9DC01106249634A1020002350
:201C9C0007F008FC614910204FF4860207F002FC4FF448700122002300905D49019010205B
:201CBC0007F0F8FBDFF86CB106271020002208ABADF82070594607F0EDFB012510200DF1F1
:201CDC0022038DF822502A46594607F0E3FBA84610200DF122038DF822803A46594607F06A
:201CFC00D9FB40F60200032208ABADF820005946102007F0CFFB502710200223464D009799
:201D1C004246294607F0C6FB1020032300974246294607F0BFFBB08843210022E0815046AE
:201D3C0014F06EFD4F463978206900222AA3C91CC9B214F0BCFB607800903978206900227B
:201D5C0011A3091DC9B214F0B2FBD4F810903D78B01D12F09FF86D1D25A10091002221A313
:201D7C000190E9B2484614F0A2FB002016F0B2FC026804F131010A608088888026693D78C9
:201D9C0004F1310007E0C0464E756D20436F6E6E733A2025640012F07DF8AD1D00900022ED
:201DBC0014A3E9B2304614F082FB092040F6B83243461A49009004F1540012F007FBFFE7C6
:201DDC000BB0BDE8F08FC046436F6E6E656374656420746F20257300496E697469616C6981
:201DFC007A656400257320416464723A20257300494400C0525020416464723A20257300E3
:201E1C0071DC000089610210755B0100C5690110F5F9011095390110D5F40110ED5E010049
:201E3C002DE9F84FDFF8A055696884B0019121B905B0BDE8F04F16F049BC0978DFF88C65FF
:201E5C00DFF88C7501291CBF0229042946F2A81A40F6C41941F64C5805D0402918BF80298B
:201E7C0000F05681A7E215F0F1FE0028FAD00198007809F0AFFD009016F024FCDFF8541564
:201E9C0004464878002800F0C78004F051FF15F00DFC8246002CDAF8000001900146D1F804
:201EBC0004B003D000980CF0C1FD022800F0878000990A78012A04D0022A0CD0042A41D0AB
:201EDC0079E218B916F0FAFB4044A0600120A87011213970F4E005223A70C8B916F0EEFB12
:201EFC008044DFF8F4246069C4F808801368DE69DFF8E8341978B21D01EB8101525ADFF800
:201F1C00D81409FB0289C0F820900A68A06810616069C17F01F0EF01C1776069C17F41F07B
:201F3C008001C1776069C17F01F0F00141F00201C177DBF808206169DFF8A40482184A62EB
:201F5C00022199E006223A70C8B916F0B7FB8044DFF890246069C4F8088013685E69DFF849
:201F7C008834197806F10C020901525ADFF8741409FB0289C0F820900A68A068D060DFF866
:201F9C0064040168087C0EF0EDF96069C17F01F0EF01C1776069C17F41F08001C17760690E
:201FBC00C17F01F0F00141F00201C177DBF808206169DFF82C0482184A6204215CE001986B
:201FDC00017880290CD10820DFF8201438700A78DBF81400012A1ABF716A0978012113E02D
:201FFC00072038709AF8060015F0D6FC0446207BC10700F1AD80DFF8F4030178DBF814008E
:20201C0001291CBF716A4978C1729AF80600DFF8C41388700198C9E1009800281AD001990B
:20203C00009A0078DFF8BC6391420DD1012804D0022845D0042866D002E0002C40D1C0E16D
:20205C00002014F09BF93BE0012804D0022815D0042837D0AFE1002CF1D016F02FFB01465E
:20207C00A068514416F026FB18B916F027FB4044A060112038700121A97021E00520387021
:20209C000221A97016F01AFB0146A068514416F011FBA8B916F012FB8044CF4A6069C4F801
:2020BC0008801368DD69CD4B1978AE1D01EB8101755A09FB0589C0F820901168A068086126
:2020DC00009873E1062038700421A97016F0F6FA0146A068514416F0EDFAA0B916F0EEFADE
:2020FC008044C4F8088032685369BF4A6069117803F10C0509016B5A09FB0389C0F820903F
:20211C003168A068C8603068007C0EF02BF9D7E7B0494878002800F0E18004F009FE15F0B4
:20213C00C5FA8246DAF800000290D0F804B0A948807815F0BBFA039001980178402913D187
:20215C009AF8060015F028FC0446207BC1070BD59AF8060015F0AAFA052116F0A7FA207B6C
:20217C0000F0FE0020732CE115F06AFD10F0070F0CD0A87809F02EFC009016F0A3FA0400DD
:20219C0004D0029900980CF051FC022800F0828000990A78012A04D0022A0BD0042A3CD05C
:2021BC0075E018B916F08AFA4044A06011203870012169E005213970B0B916F07FFA804410
:2021DC00854A6069C4F808801368DE69834B1978B21D01EB8101525A7F4909FB0289C0F8EE
:2021FC0020900A68A06810616069C17F01F0EF01C1776069C17F41F08001C1776069C17F0A
:20221C0001F0F00141F00201C177DBF808206169734882184A62022136E006213970B0B91C
:20223C0016F04CFA80446F4A6069C4F8088013685E696D4B197806F10C020901525A6949B4
:20225C0009FB0289C0F820900A68A068D06065480168087C0EF086F86069C17F01F0EF01C1
:20227C00C1776069C17F41F08001C1776069C17F01F0F00141F00201C177DBF808206169FB
:20229C00574882184A6204210098A9708EE0002014F074F8039850451ED0029953480A7893
:2022BC00802A0AD10821397000780128DBF814001ABF716A0978012109E007223A70007898
:2022DC000128DBF814000EBF0121716A4978C1729AF806003F498870029867E015F0B0FC6A
:2022FC0010F0070F6DD0A87809F074FB064616F0E9F904463078012804D002280DD0042891
:20231C002DD05EE0002C5CD016F0D8F94044A060012111203870A97047E00520387016F0A5
:20233C00CDF90146A068514416F0C4F9A8B916F0C5F98044284A6069C4F808801368DB69ED
:20235C009F1D264B1B7803EB8303FB5A09FB0389C0F820901168A0680861022024E00620AA
:20237C00387016F0ABF90146A0681E4F514416F0A1F9A0B916F0A2F98044C4F808803A685A
:20239C005369194A6069127803F10C0112018B5A09FB0389C0F820903968A068C86038684D
:2023BC00007C0DF0DFFF0420A870304605B0BDE8F04F0BF0DFBF05B0BDE8F04F002013F00A
:2023DC00DDBF05B0BDE8F08FC02D0020B8BA0100C80F0020780E0020500F0020D80F0020C9
:2023FC00F0D8FFFF540F0020D90F0020CC0F00202DE9F84FDFF8B454A9780024FF2904BF09
:20241C00002013F0BBFFA87815F050F9054605F1680605F5C9773168086805F1900808B11C
:20243C00EC8311E0B07B002804BFB07E00280BD198F80010002904BF3878002804D1287FF8
:20245C00012804BF688CE8832989E88B4118491C6981284616F026F901281EBFDFF8500484
:20247C000178012903D12989EC83491C69814FF6FF79B07E01280DD1B28B6989288916F081
:20249C000DF938B1298968894A1C93B298422FD0B08B23E098F8000001280FD1B8F8022061
:2024BC006989288916F0FAF840B1298968894A1C93B298421CD0B8F802000FE038780128E6
:2024DC0016D17A886989288916F0E8F880B1298968894A1C93B298420AD0788892B2904225
:2024FC0006D04844688180B216F0D4F84844E883387801280ED128897988401C80B28842B8
:20251C0008DB7C793C71002038702346A97922460BF008FC05F59A71087920B12889002137
:20253C00401CE983688105F12E08B07E012845D12A89B08B521C92B290423FD1688105F1D4
:20255C008601284616F0A2F8B08C688400212977E983E88969894118A981B08B298916F09C
:20257C0099F88146B8F80410308C728C01FB0909F08C8A4204BFB8F80810884202BFB38CBE
:20259C00B8F806108B4207D000090090B38CA9795208002016F076F8B07F88F80000718C21
:2025BC00A8F80410B08CA8F806002846F18CA8F8081016F063F80220B07601E0B8F80490F8
:2025DC00EA8BDFF8F0C2501C00FB09F040F6C41909FB00F100912B68D3F80CE07144D960B0
:2025FC00DCF800E0B4499EF800A00B884FEA9A1ABAF1030F17D1DFF8C4C29CF80FE05FEA8A
:20261C00CE7C48BF00230ED45B1C1FFA83FCBCF1010F11BFB5F812C005F59A7EBEF806C09F
:20263C000CF2DC5C01E0B5F812C00CFB00FC4FF4C87EBCFBFEFC0CF1010CC5F814C00B8085
:20265C00A86185F820204FF01C0BDFF874A2AB79DAF8000000F108021BFB03F3D1582A688D
:20267C00116100F10801AB79D26868691BFB03F3121ACA50DAF80000AB7900F108021BFB4A
:20269C0003F3D1582A68916000F10C02A9791BFB01F10C30535C03F0F00343F002034354B3
:2026BC00DAF80010AB798A1C1BFB03F30021D152387908B913F062FEDAF80000AA7900F147
:2026DC00100138791BFB02F240088854A879DAF800101BFB00F008440021417438790428E6
:2026FC0014D1A879DAF800101BFB00F001F110021031135C3A7A43EA82030B54AA79DAF862
:20271C0000001BFB02F2024420205074DAF80010A87901F112021BFB00F000211152694904
:20273C00A8790A6802F114034FEA401C143253F80C00AB79D5F814C05B0100EB4C00D05036
:20275C00B07E02280DD10A68AE7902F11403760114329859AB7998F800605B0119FB06004C
:20277C00D0505648C27BD0075CD5DAF80000AC7900F108031BFB04F408301A59AB791BFB54
:20279C0003F3A2F5A862C250DAF80000AC7900F108031BFB04F41A592B689A600098121AAF
:2027BC001A610868AC7900F11403640114301A59AB795B0102F5F662C250387904280BD12F
:2027DC000868AC7900F11403640114301A59AB795B0102F56162C2500868AB7900F114023D
:2027FC005B01D058C5F834016427374A0B68106BAE79006803F11C04B8F804304343B3FB92
:20281C00F7F7760109FB07F0A0F59660A0512F480378012B30D10868A97900EB41120120B0
:20283C00D07230E0042C0BD10868AC7900F11403640114301A59AB795B0102F56162C25019
:20285C0038790A68AC7904280CBF4FF4AA504FF4E66002F1140364011A59101AB8F8042077
:20287C0009FB02F2A2F516729042BDD30821284615F01CFF012016E0506A0968AA794078EF
:20289C0001EB4213D872A879DAF800102A681BFB00FB01EB0B00506007210D4801702846E8
:2028BC0015F0E8FE0020BDE8F28F00BF780E0020D10F00203C0F0020742E0020980C002075
:2028DC00980E00209C0E0020B8BA0100CC0F0020C80F00202DE9F04FCA4C05462078ADF1FB
:2028FC005C0D032840F03E824FF0000B6846182284F800B0082384F801B0594615F012FAD2
:20291C006846594613F0BCFB20612E22594604F130000EF05FFF04F130008146FF210A226B
:20293C000C300EF057FF13F063FC2946584611F051FE04F11801E06015F015FA206AE169F6
:20295C00B1FBF0F2D7B284F83070022FC4BF022784F83070E770B0F5005F04D1E068B1EB1B
:20297C00473F00D310B901202070FDE1FF2184F83310D846CDF828805D460B950C950D959A
:20299C000E950F9513950A46109211921292149215924FF40056E68659461691AF4200F377
:2029BC000B81139E002E3AD10F9E002E28D1B8F1020F25DA0E98022822DA0B9802281FDA66
:2029DC000A9887421FD00E9E9EB9B8F1000F0ED10D9E0C9806430FD15D46AF4213DD28467D
:2029FC000BF08CFD6D1CEDB2E7786070F5E7012016E0B8F1000F01D1032011E002200FE03E
:202A1C005D46AF4201DC58460AE028460BF076FD6178E7786D1CEDB201436170F1E7052053
:202A3C000028A07000F0B180401E70D0401E00F09280401E1DD0801E40F095811498FF2821
:202A5C0004BF1598149084F8330094F833200C2684F83120D019401E90FBF7F17943401AE9
:202A7C0084F8320012FB0690808BE08608F03EFA87E0002F08BF5D460BD009F10C013846E8
:202A9C005D4611F80C2FFE2A03D0401E05F10105F7D1AF423ADD0C2084F83C5015FB00903A
:202ABC00817E84F83D10C07E84F83E000AF0C8FAE2782D1895FBF2F050432D1AE8B284F87D
:202ADC003200401C90FBF2F15143401A84F831007C2012F05FFDFF2810D17E2012F05AFD4A
:202AFC00FF280BD1FF2012F055FDFF2806D1782012F050FDFF2808BF94F8310084F8330005
:202B1C000C2110FB0190808BE0864FE0FEE71098129E84F83200FF2E00F1010090FBF7F1B3
:202B3C0001FB07F1A0EB0100C1B284F8311008D11198FF2804D10C20129111FB009005E0FB
:202B5C0012901299880000EBC100484484F83310808BE08607E1DDF8408008F1010084F829
:202B7C00328090FBF7F17943401A84F831005FFA88F00BF0C3FC6070FE215FFA88F013F003
:202B9C000BFB584603F05CF9EDE084F831B0781E594684F832000C2684F833B011FB0690ED
:202BBC00808B7E21E086584613F0F6FA94F83200FE2113F0F1FAD6E00C2115FB019706AA52
:202BDC000423690315F0D4F8069807F11606010EB1F1960A18D1C0F38541C0F3014040EAF2
:202BFC008100022810D187F819B09DF818003070FF223A769DF81930FB75284611F0C4F94D
:202C1C00B8836CE0801900202846594607AA14F021FA2846012108AA14F01CFA284602218E
:202C3C0009AA14F017FADDF818C00CF0FF010CF0FF00FF2909D0FE2907D07E2905D07C29EC
:202C5C0003D0782918BF702909D15FEA0B0706D1CCF38541032908BFBAF1000F1ED02846DA
:202C7C000BF04CFC0746002FE068677038D1690306AA042315F07CF82846594607AA14F0D3
:202C9C00E9F92846012108AA14F0E4F92846022109AA14F0DFF9069800F0FF0030709DF831
:202CBC001900069F9DF81E307070C7F30140F070BDF81C004FF6FF718142B37002D128466F
:202CDC0011F062F9F0809DF822003071BDF8207037819DF826307371BDF824207281E068B4
:202CFC003178FF2936D0FE292ED07E2926D07C291ED0782917D0702910D0A52908D0242998
:202D1C0004D00F99491CC9B20F9127E0159500E014951399491CC9B213911FE00E99491C26
:202D3C00C9B20E911AE00D99491CC9B20D9115E00C991295491CC9B20C910FE00B99119548
:202D5C00491CC9B20B9109E008F1010710955FFA87F803E00A99491CC9B20A91E7786D1C8B
:202D7C00EDB21BE66070607817B0BDE8F08F70472DE9FC47D14C0F460546F80B80F0F6814D
:202D9C006078DFF83C83B90F80F09C81B90880F08E81F90A80F0F980390B80F0C5803809EE
:202DBC0007D2F80FC0F01A8227F080470FF0C4FF14E215F076F8814613F0DCFF002800F005
:202DDC00AD80082014F05AFF002840F0A780802014F054FF002840F0A18068460DF01AF879
:202DFC00012803D10098002800F0988000250126E8B214F0A1FC48B1837A3BB1867290F908
:202E1C00090006FA00F0C0B212F088FC6D1C032DEED30320207504F1B40015F03EF8484601
:202E3C0015F024FCCF4800252A460168056050F8081CCD4940F8085C04F1380013F0EAFEA1
:202E5C0040460068006B8047A168401A010BE069C1F1FF3282422CBF08444FF0FF30E061F1
:202E7C0094F8200020B12069E169B1EBC02F25D913F090FF294600B13146081C1BD0D44809
:202E9C0040F6090101804580417B06F00F0221F00F010A434273017B05F00F0321F00F0106
:202EBC0043EA010202732946416014F0ADFD418811F4406FFBD084F82060E56111F042FBCB
:202EDC00CA4829460560022013F042FD022012F0CFFF11200BF088F9207818B96068483044
:202EFC0014F0F1FFC248007810B90E200BF07CF994F8210020B184F82150052012F0B8FF90
:202F1C00BC48A0612575B4F98C00B4F98E10884214BF022007200EF0D3F902E0484615F04D
:202F3C00A5FB27F0080741E720B1042012F0A0FF00206070656812F0D5FB38B12846ED69B5
:202F5C006FF4807100224FF00073A847E06858B140460068006B8047E2686168801AC860F8
:202F7C00000BC8600026E660A34904F13800002213F050FE0221A06F217518B104F5807090
:202F9C0014F0B7FF27F4006710E714F08AFF064613F0F0FE216F0028894600F08280002976
:202FBC007FD09649042504F138000022257513F031FE304615F05AFB04F1B40014F06DFF9A
:202FDC0040460068006B8047E0604FF0010884F80180284612F064FFD9F810006060D9F8EB
:202FFC001000416AC90803D3036A294600229847404610F0E7F8606880F81580606808F07C
:20301C00B9FB6568D5F808A040F60A02D01F564600F1010C00E01E46736833B119888A4263
:20303C0003D0884218BF8C45F5D100217160727B08F00F0322F00F0213437373D9F80C2024
:20305C001288904224D06046904221D02B8E03B3696305F13002518095F83C0001F00F038B
:20307C0020F00F00034385F83C3095F83D0008F00F0320F00F00034385F83D307260707B06
:20309C0001F00F0520F00F0045EA0001717300E0E160504614F0B8FC5146404613F058FCF9
:2030BC0002E0304615F0E2FA27F4806796E008F041FEA06F08B927F002078FE0C81E0020A7
:2030DC008C0100104E4A116841F08001116020B1042012F0CDFE0020607014F0E2FE8246A5
:2030FC00D8F85400016804208847D0B1287DC0B1A068B0B18146D8F800002E69006B8047D4
:20311C00A0EB09002861000B2861B04202D280194008286140F6C41181422CBFB0F5967F3F
:20313C002961504615F0A2FA12F0DCFA78B1EE6928466FF4807100224FF00073B047206F3E
:20315C00002808BF47F0020701D00FF0F5FD2846AD6900214FF080630A46A84727F00057EE
:20317C003CE0C046141004400539010014F099FED4F8886076B306F1280106C90A234FF097
:20319C00E0450B40154008BF002B23D106F1280191E8000306F1280595E8060006F1280303
:2031BC0022EA090221EA080183E8060015F05EFAB16889B1B9F1000F08BFB8F1000F0BD094
:2031DC003069B6F93010B5684B464246A84703E0882D002015F04AFA27F4804727B104F572
:2031FC008070394614F085FEBDE8FC8700000460D6B801006DCF0000C5C70000716D0100FB
:20321C00CC2108402DE9F0478046C44CC44DDFF814A3B8F80010A079D4F810902E78ADF112
:20323C00200D491E092900F2A281DFE811F023019201A8004F007D013A006F0128000A00C7
:20325C006301002015F046FA26692D78313407460622214613F01EFC002800F08881384658
:20327C0010F018FEAD1D00900022C8A3E9B2304613F01DF938682060BD88A58077E1D8F859
:20329C000450BF4C687A38B1761C009448460022C1A3F1B213F00BF90094BA49EA880023D8
:2032BC0053E198F80200C8340001215A255A4FF6FF728A4200F05B810019C06814F01FFE85
:2032DC00B14910202A4606F0E5F850E1D8F80470002842D0E079082800F01381B86904F193
:2032FC001C01042213F06CFF002833D004F13800814614F0F0FD061C0FD007F1020A06F1F5
:20331C0008005146062213F05BFF28B9304614F0E4FD061CF3D100E0E6B9142014F0C9FDCE
:20333C00061C03D12978A0A308311BE106F10800B91C062214F01EFA787800234FF6FF7281
:20335C00B0733146B3744846328214F01DF9E079401CE0712E78D4F81090B81C10F09AFDB1
:20337C00F61C0090002298A3F1B2484613F09FF8B869002800F0FB8012F038FBF7E0E1794D
:20339C00002857D1D8F804004578F61C002292A3F1B24846009513F08AF8002D14BF0B2150
:2033BC000321607808B141F020010422504613F027FA606A10B1606A12F018FBC5EB0510DB
:2033DC0014F077FD606200B9002556460028F56100F0CD800746002D08BF00241DD0DFF839
:2033FC00A892002410204946224601AB06F052F80DF1060010F04EFD01460F2238460CF0FF
:20341C0057FD706A6D1E40F8347007F10F0704F10104E7D1082C80F2AA801436012505FAFC
:20343C0004F23046002113F0EBF9641CE4B2082CF5DB9CE008294FF043050DDB00910836F7
:20345C00484600226AA3F1B213F031F80BF0CEFF607800B1632507E0009108364846002285
:20347C006FA3F1B213F023F829465046042213F0C7F959E098F80200010921D2400976D315
:20349C000E2014F01DF9002871D16A68A8689168814213D0B0F1FF3F69D0116951F8307062
:2034BC002FB901EBC001486812F0E0F95FE0116901EBC0014968C0B2884758E0D068F3E72E
:2034DC000D2014F0FDF8002851D16968A8688968814208D0B0F1FF3F09D0401C12F0AAF93A
:2034FC00B0F1FF3F02D1002012F0A4F9A86009F03DFC3CE0B61C4846002259A3F1B212F0C6
:20351C00D6FF6049102005F0C5FF30E098F80200D8F8041005F09CFB29E0C046E00F0020F8
:20353C00381D00201C2800200020A08160810127E770E0892178001FADF80400502013F0B8
:20355C0033F800905149228901AB102005F0A2FF0DE0504604216FF0040213F051F92978E2
:20357C0044A3C91C2069C9B2002212F0A0FFD8F8040008B112F03AFA08B0BDE8F087C046FF
:20359C0040E20100A95B01000D2B0210525020416464723A2025730050617373636F64653C
:2035BC003A20256400C046C04175746F436F6E6E6563743A20416C6C6F636174696F6E2063
:2035DC006661696C65642100446973636F76657265643A20257300C02564206465766963DB
:2035FC00657320646973636F766572656400C0464175746F436F6E6E6563743A204E756D9C
:20361C00626572206F66206D656D6265727320696E207468652067726F757020256400C047
:20363C004175746F436F6E6E6563743A204E6F7420616C6C206D656D6265727320666F75B2
:20365C006E642C206F6E6C79202564206D656D62657273207765726520666F756E6400C0EB
:20367C00496E73756666696369656E74204D656D6F727900446973636F766572696E672E03
:20369C002E2E00C07922021045970110ED0702102DE9F04F0F46780689B027D5DFF8F82303
:2036BC001078002114F0DEFF04001FD0DFF8EC0301688847054614F097F96168884204BF3E
:2036DC0040F2014014F0CAFF00202072201D0CF093FEDFF8CC130A6828469047204611F03E
:2036FC005FFDFF223C21204614F0B4FFB80604D50BF0CCFC87F02000CAE1F8070CD514F037
:20371C0073F930B100218160DFF89803006800B1804787F00100BBE1380704D506F04AFB85
:20373C0087F00800B4E1F8060FD500210022002306910592049103930291019200910220DF
:20375C0014F084FF87F01000A2E1B8070FD5002100230691059104910393029101910091C7
:20377C0001223C2014F072FF87F0020090E179074FF01E08CC4EDFF834A340F1CF80CC480E
:20379C000022002108920791007814F06BFF0446C8488178FF2904BF002012F0EFFDA07A4C
:2037BC0013F084FF05469AF8000095F82E91002805F5947B69D0606D807A022818BF0328E1
:2037DC0007D130680D3014F03DFF10B93068C11D07915946484614F031FFA0B3606D807C8C
:2037FC003368002818BF012804D11946584614F021FF04E05A464946184614F0BBFFFF289E
:20381C0043D018FB00F83068404406225946C01D13F0B0FF306810F80810404400F1010BC3
:20383C00C01D41F0020908900622616DC87A00F0010085F82E01606D00F10C0105F594701D
:20385C0013F098FF21E05946484614F0EFFEE0B130685A46494614F08DFFFF2815D018FB8C
:20387C0000F8306840440D3014F0ECFE58B9306840440D3014F0E6FE002801BF3068404497
:20389C00417F012901D149F0020905F12C004B46017806914289120905920122698C04911F
:2038BC00C0880899029140080390CDF800B0079801900020A97914F0C9FED5F89C017E49B2
:2038DC008842A8790CBF0021012114F0ABFE7B49AB790A6838204343134401225A70AB7986
:2038FC000C68434323449A70AB790C6843432344DA700C68AA79231D424301249C54AA79DE
:20391C00096810FB02F00844002141710122A97907200CF071FF87F00400B9E038060FD5F0
:20393C0000210023069105910491039302910191009101223B2014F089FE87F08000A7E092
:20395C00F8045DD55E4930680C680D3014F07AFE002844D13068C11D0D3014F05FFE3EE042
:20397C00606D4178480704F13E0526D5287802281EBF03286878012830D16978306804F1D9
:20399C00380214F0F7FE8146B9F1FF0F15D0306818FB09F948440D3014F054FE68B93068EF
:2039BC004844C11D0D3014F039FE30684844C11D062204F1380013F0DDFE2878022818BF33
:2039DC0003280BD130680D3014F03CFE30B93068C11D062204F1300013F0CCFE2468002C80
:2039FC00BED13848DAF8042000784FF4805111F0D5F810B18E2014F00DFE87F4805047E05C
:203A1C00B80505D514F0ECF82F4901200860FEE7780504D50CF017FE87F4806038E07804CF
:203A3C0005D5812014F0F6FD87F4804030E0B9042DD5264C206810B1002012F09FFC4FF037
:203A5C00FF3020600020224C0DF0D8F9216851F8202F684690471F494A6B086BC96A24684A
:203A7C001D4B019200900293ADF810106B461B4A1B491C4803921C4A079225681B4AA847F2
:203A9C001B49086004F01EFF87F4005000E0002009B0BDE8F08F00BFD50F0020E8180020A2
:203ABC00EC180020480F0020680F0020880E0020D70F0020780E00204DE50110FC2D0020CA
:203ADC004C0F0020C70F00207C052043380F0020200F0020E0190020E5790100F5790100D8
:203AFC005C1D0020280800201EFB0080EC0A00201C0F00202DE9FE4307460025B978DFF8F6
:203B1C00346410293CD8DFE811F0110002020202020202023C0048000202020265018E003B
:203B3C007900B60102023B017C01FA017878002826D114F06BFD044614F064FD064614F007
:203B5C005DFD8DF8000022461021022012F0F4FD32461021032012F0EFFD6A46012104200C
:203B7C0012F0EAFD9DF80000012818BF032807D1012014F0AFFD02460621062012F0DCFD67
:203B9C00C5E178780028FBD1F8783B7B7A89391D00F00100FCF7B4FAB9E1B888FDF796F812
:203BBC0014F028FD0028F7D1307C012808D1FCF748FDF06935740422002113F0E5FD17E0C5
:203BDC00707C012803D1FCF7DDFD757410E000240AE0F069E7B2C15D012904D1E0B2FCF798
:203BFC0041FDF169CD55641CE0B2B1798842F0D3502013F02FF9FCF7CFFC88E114F0F6FC6E
:203C1C0000280CD0706900281CBF0468002C07D0386900907B7B3A7B7989F81CA04775E10A
:203C3C007889012168E178780024002840F09180B879C10740F18D800822002101A813F051
:203C5C00A3FDB88814F092FD04005ED07D69002D00F065810622002105F1110013F087F9E7
:203C7C0000B306220021284613F081F9002818D1287C00F001084FF0000909F1010985F8CA
:203C9C0011900020009000230022414605F111000AF02AFF00285FFA89F040F03B810028B3
:203CBC00EBD13AE17D69EDB1287C00F001008DF80A00062205F1110101A813F05BFD60795C
:203CDC00012805D10622A11D04F10C0013F052FD062205F11101A01D13F04CFD287C40F083
:203CFC0002006071B879410720794CBF40F0020000F0FD002071B879010720794CBF40F0FB
:203D1C00200000F0DF00207106E0FDF701F818B1307804210AF038F9B9799DF80B00890810
:203D3C0001F0010108438DF80B00B9790A074CBF0821002108438DF80B00394601A8FCF70B
:203D5C0016FB0400B88802D1FCF772FF01E0FCF7BDFF706900281CBF4368002B0FD07A78A8
:203D7C00B888012198477878002808D1B879C10705D57369B88822465C680321A047C5E02A
:203D9C00787806281BD1B88814F0F0FCB8B1B17B012904D013D3032907D00CD30FE04179C9
:203DBC00B8880022FCF709FF09E00022002140F2094003F0DFF8B888052114F013FC7069C7
:203DDC0000281CBF4368002B03D07A78B888022198479BE000950023F97801AA01F00101A5
:203DFC00381D0AF081FE0028F3D19DF8043006204343253307F10C020421D8B212F09CFCD1
:203E1C0084E0706900281CBF4368002B03D0B888002200219847707810B9B88805216BE0D9
:203E3C00B88814F0A3FC040071D0B87AC10712D5009500236179002201F00101A01D0AF0FF
:203E5C0053FE00281EBF60790028012803D0F868C0F3402028B1307B022807D1B87A0107C0
:203E7C0004D4B888032114F0B9FB50E06179B88807F1080228E0BD8897F80C80284614F00C
:203E9C0075FC040042D014F0B1FB00283ED100900023617901AA01F00101A01D0AF024FE94
:203EBC0028BB9DF80400FCF763FB08F00C01042911D008290BD00C290FD100F009010929B9
:203EDC000BD0617900222846FCF777FE1EE010F0090102D1F5E7C107F3D501220092A37CFE
:203EFC009DF8041002462846FCF70CFE0EE070780028E6D10521284614F070FB06E0FCF7B9
:203F1C0007FF18B1307804210AF03EF801252846BDE8FE8300287FF4C5AE002078610622D0
:203F3C00607900F001008DF80A00A11D01A813F021FCD7E6441700202DE9FE4F0546DFF8C8
:203F5C00BC03DFF8BC630278002A44D0052A52D0062A54D0072A18BF082A00F0CC80112A82
:203F7C0040F0C481DFF89C331878002114F07AFB0446606D407810F00C0F2CD0216DC006A6
:203F9C004CBF886CC86E0622016801F10805A91C684613F0EFFB287800F00F0105291AD127
:203FBC006946C0F3801014F049FB002813D03168684614F03FFB0546316804F1380014F006
:203FDC0039FB85420DD0606D4178C80604D440F2014014F043FB8FE1607B40F002006073BC
:203FFC008AE133681E204543581906226946C01D13F0C0FB80E1012014F0ECFA7CE1C24D1E
:20401C00286814F0E3FA0400F8D020790328F5D1207A00F00F01072937D1BC4800684169D5
:20403C00497A4A1E11425ED0617A04F10A035A5C02F03F02252A56DBA17A8A09012A52D176
:20405C0011F03F0F4FD0007C13F030FBE17ACA074CBF04F1110204F10B028B0748BF921DA3
:20407C000B0748BF921CC90648BFD21C1621127852094A43A6498B180A31EB608A5A42862C
:20409C0099898186DA89C2862DE000F00F00082829D1A17A880926D129B39C480168087CAA
:2040BC0013F004FBE17A074688071CD5062201F001015143601800F10C01684613F05AFB8F
:2040DC00207AC009FF280ED0694614F0B7FA50B1306800F10D01684614F074FA18B9052149
:2040FC00384614F0E3FA207903281CBF002012F045F9286838E0DFF81C9299F80200FF285F
:20411C0034D013F0D3FA804608F16C07786814F05DFA01900179032901D0280026D0019883
:20413C007D4A836893F800A00AF00300009038215FEA8A6008D5146898F8060004F10A0C73
:20415C00484301240CF80040009860B1146898F806C004F10A0011FB0CFC84442C009CF839
:20417C00000004D018B9786814F028FAC4E05C7803F1020B98B11BF8010B00F01F038CF801
:20419C001A30800998F80630126811FB03F1114481F82500404607F021F9002DE6D10098EA
:2041BC00032808F2171519D0A4B1387868B108F1F400017801290DD1504A1178072904D0F6
:2041DC00082904BFC078012804D13D2101206970287091E051490A78012AFAD098F8940003
:2041FC0078B3241FE4B25B462246514640460DF0F1F900281EBF4A490878002807D1012059
:20421C003D2128706970306814F0D4F974E0454801688847064698F80610D9F804204FF407
:20423C00D07041435018002280F8412108F59E700168807949080DF0F7FB3B490A68304621
:20425C0090470198002181600098032819D03748416909788A0709D541690878C1074CBF0E
:20427C000320002000191BF8000000E0812038722246009B99F80200DBB2594606F0BAF91D
:20429C002CE09BF800005FEA8A6103D51B2804BF022C01241C2803D225490B5C9C4205D05D
:2042BC00A8700721404614F081F914E01348017808295946404607D101F010FF58B95946F8
:2042DC00404614F06FF906E000F0F8F918B95946404614F063F958460FF088FD786814F0AD
:2042FC006DF90199404614F055F905E0002012F045F8862014F04AF9BDE8F78FC80F002077
:20431C00680F0020D50F0020BC0A0020540F0020E0070020780E0020FC2D0020D20F002086
:20433C00822E0020E8180020EC180020B8BA010058BB01002DE9F84FDFF8487304463868ED
:20435C0008B907209CE1C07A012804D0042011F0CFFB012801D10C2092E1CB480078092860
:20437C0018BF0A2804D00B281CBF0C280D2801D1212085E1002C05D0207810B101280BD1F5
:20439C0002E0E01C00F0B480A078002818BF012804D0022818BF032840F0AA806078002865
:2043BC0018BF012803D0022818BF032872D1607A10F0050F6ED000210022607A01238B4067
:2043DC00184232D004EB021043F6FD7543891E1FAE423EBF8689A6F1040CAC450FD2B34246
:2043FC0022BF038BC58AAB420BD3C38940F67B459E1FAE423EBF068AA6F1060CAC4577D2B9
:20441C009E4275D3458AB5F5FA7F71DA808AA0F10A0640F6774C66453FBF6D1C5B006B433C
:20443C00B3EBC00F64D2521CD2B2491CC8B20228C3DD39684869417A022904BF002011F006
:20445C009DFF38684461617A062990490CBF01200020087014F096F8050008BF09200BD096
:20447C003A68A9791174E01C07D0A278E11C402007F0D2FB08B10B2002E105F1610128463C
:20449C0014F07CF805F12C06B07B012803DC28460CF070FC2CE039686078DFF8F481DFF8AF
:2044BC00F4B1DFF8F491DFF8F4A188726078002818BF012807D1C0073B6854BF59464146FE
:2044DC000622181D3FE0DAF800000D3014F0BAF830B999F80010002904BF2078002812D166
:2044FC006078C10754BF5946414614F09FF808B91220C5E06078C107386854BF594641461B
:20451C000622001D0EE0DAF800003B68C11D0622181D13F02FF962480168DAF800300868EC
:20453C000622D91D13F026F96078DAF8001000F0010008706078C107DAF8000054BF5946D8
:20455C0041460622401C13F015F9207870BBA07885F82E0105F594780622E11C404613F0E8
:20457C0009F9A178DAF80000E21C01F0010114F001F90146FF291CBF99F80000002815D05B
:20459C00A07840F0020085F82E011E22DAF8003051431944487F48B901F10D0014F052F8C1
:2045BC0020B906223F49404613F0E4F813F0E2FFA86212F0A1FE686204F11001334800789F
:2045DC00000104F114030A5AF280195A71812044428A328102223868417C3170B270002030
:2045FC00B08013F0CAFB0C2290FBF2F20C2101FB1200401DF07304200AF0BAF939682A4A29
:20461C002A4B086042608361294A42610120C872A87913F0ABFF99F80000002801BF3868C3
:20463C0041690A78012A0ED1807A02280BD1DAF8001001F10D0014F005F820B91D4841794E
:20465C0041F004014171104C2078C0B999F8001049B11948006813F085FF3868006881690C
:20467C0041F4802181613868007C0BF07BFE06202070012200210CF0BFF8FDF7D1FB002049
:20469C00BDE8F28F540F0020C80F0020D90F0020480E0020400E0020880E0020680F002025
:2046BC00142E0020006E0210040C00200200808059470100BC0A00206C0F00202DE9F84159
:2046DC0085B0044611F801CB00203822BCF1030F04F5A47704F1660504F1F406DFF818835C
:2046FC00C64B00F0B380BCF1070F00F06381BCF10F0F0CD0BCF1110F00F00E81BCF11A0F0A
:20471C0000F01F81BCF11B0F00F0448171E1707A820703D40F2184F8191157E008784A7876
:20473C0000EB02233B808878CA7800EB02237B8008794A7900EB0223BB808879CA7900EB87
:20475C000223FB80087A38724A7A887A02EB00237B81C87A0A7B00EB0223BB81487B8A7BC4
:20477C0000EB0223FB81C87B0A7C00EB02233B82487C8A7C00EB02237B82C87C0A7D00EB6E
:20479C000223BB82487D897D00EB01229C48FA8201788A0658BF1A2212D504F5AA70049078
:2047BC0079890391387A029021890191F8880090BB887A883988204613F0D0FE70B11E2219
:2047DC00707A410708D40F2084F81901204613F0C1FE002837D1D6E00F21C3E004F186008E
:2047FC00798881800023BA88C2800222F988018102704380A18EC91DE983628E8188B1EB82
:20481C00520F02BFC188A28E914202BF0089E18EB0EB111F18D0287C012804BF687C0F28F7
:20483C0005D0687D18B10F21A976FE2170E0FC21204613F0BBFEF8880090BB887A883988C6
:20485C00A07913F083FECEE0102161E0707AC20709D431781A200129707002D1FF220D21E0
:20487C003AE00D2154E000202870A87101233371082204F1B00013F065FE0146022204F172
:20489C00B80013F05FFE04F1A80801460822404613F058FE07460821404613F04FFE04F1AE
:2048BC009C0804223946404613F04CFE0421404613F044FE04F1A00013F03CFE04F1980071
:2048DC0013F034FE4F48018841F0800101803078012805D1FF220421204613F023FE82E05B
:2048FC006E7C0F2E18BF142E03D00E2E18BF0C2E0DD12F7C204613F011FE0421204613F0AD
:20491C0055FE012F12BF3146AE76FD2100E00421204613F04BFE66E00D783D761A2D497831
:20493C00797666D11868A579811D5543002048551968A37912FB03F20A445072A179787EE5
:20495C004FE0A679186809785643064401F01F0516F82D0F890918B17078C840C70705D4B8
:20497C0020221A21204613F0D5FD3CE0F5701868A37912FB03F20244204682F82F100021BE
:20499C0008F06EFA78BB98F800004FF4804109F0FBFA28E0A179186851430144888908B999
:2049BC0000258D71A179186812FB01F281180020487218E009780F2917D01A2919D1A179CC
:2049DC0018685143014400208871A1791B6812FB01F2991848721A20F17A01F0FB01F1724C
:2049FC00A1790CF083F9012003E0717A01F0FD01717206B0BDE8F081C70F0020FC2D00203D
:204A1C00200E00209C0F0020C9480278112A00D070472DE9F84FC74A1078002113F022FEDA
:204A3C0004000AD1002011F0A9FC002011F0A6FCBDE8F24FFF2013F0A9BD04F14C0999F8A9
:204A5C00000008B90121E172401C89F80000C2B2E17DD9F804608A4229D2D9F808104A7AAC
:204A7C00B17B277E0120A1F1250300FA03F3A7F125018840184322EA000000F0070010F09A
:204A9C0027F82530B073A18BB06800EB8100B060607DC1060AD5628B99F80010A08B00FB6C
:204ABC001121B068A63100EB810030663EE104F1280706F1900806F173054FF0000A4FD10D
:204ADC00A17F6975E07FA875D9F808205278930710D5E27FD30604D5C91E697500F0EF0047
:204AFC00A875C6F874A085F800A00022A97D01F0FE0116E1910608D4F88B00B1F87E2876A4
:204B1C00F88B00B1386AC8F80000D9F808004178CA070DD5F88B00281CBF386A002807D077
:204B3C00C8F80000B97EF88B814238BF08462876E07FC1060BD5B06B397800EB8100B063E8
:204B5C00A18CA63100EB81007067022002E0C6F874A0002028700022E17F01F0FC01E0E034
:204B7C00D9F808205278D30717D5A87D697D00F0F700891E01F03F0182075CBF891D40F04C
:204B9C000200420644BF491E00F0BF00A8756975C8F800A085F818A0C8E0401AC0B2009002
:204BBC0090077AD50098012806F1400B3FD1B06BA18C00EB8100B063A07F00F03F00A077B4
:204BDC006875E17FA975D9F8082053785A0704D5801F687501F0FD01A9750023697DFA7E56
:204BFC009BF8000001F03F018A18521CC0F3800192B200F0030013F089FC00F59B70A084AE
:204C1C001E21A08C90FBF1F18AB2A97D01F0FE01204613F077FC85F800A0F88B00B1F87EAB
:204C3C002876F88B00B1386AC8F800007EE00228B06BA18C00EB8100B06326D1E07FC107B7
:204C5C0006D5687D811F6975A87D00F0FE00A8750023697DFA7E9BF8000001F03F018A18E3
:204C7C00521CC0F3800192B200F0030013F04EFC00F59B70A0840022A97D01F0FE01204630
:204C9C0013F040FC787FABF81A00797F0098491C081AC0B2012814DD0BE0B06BA18C00EB44
:204CBC008100B063797F0098081AE17FCA06C0B207D5A28CB16BA63201EB82017167022188
:204CDC00297098B3D8F8003097F81BC0E27FA17F6344C8F8003052084FEA4208D9F808207C
:204CFC005278530748BF28F00208920748BF28F00808012807D1387F2876C6F874A028F043
:204D1C00100885F800A001F0C006404613F0F6FB00F03F003043687585F81680002208F065
:204D3C00FC012046BDE8F84F13F0ECBBBDE8F18FC80F0020D50F00202DE9FE4F0422FF2195
:204D5C0001A812F021FDB84988780024FF2800F0688112F0ABFC054605F217100178012994
:204D7C0008BF417800F0B68005F1740005F59276817B022904BF05F174018C73F18911B175
:204D9C00307B09F001F96889A84F2881FA79BB7A397BF87A97F80DC09B185B181B1805F54B
:204DBC008D7903EB0C08B9F800C0B9F80430C4445B1CA9F800C0A9F8043097F80AC0B9F8BA
:204DDC0002306344A9F8023033683BB3DFF860E2DEF800E00EF10E0ACDF800A04FF01C0AD2
:204DFC0095F806B01AFB0BFADDF800B01BF80AA033F81AB0C34423F81AB00EF10E0A95F873
:204E1C0006B04FF01C0E1EFB0BFB1AF80BA003EB4A03B3F84AE0F444A3F84AC0002A08BF9D
:204E3C00002804D1002904BF787B002829D02989E8892C744118287FA981012804BF688C8C
:204E5C00E883A979012207200BF0D6FCA246787868B10121297705F174018878002804BF89
:204E7C00887B002803D1087F08B9688CE883307D002837D0022804BFF87A00282ED1347565
:204E9C0030E0A97907200BF0B7FCEC83B87A40B1297F2C7401294FF0010A09D1688CE88368
:204EBC0006E0B9F80600401C4FF0020AA9F80600A8892989814206D08842C8D2081A41F2B6
:204EDC00AB029042C3DA287C08B1052901D0082100E03E21284613F0E9FBA2E0787A08B154
:204EFC00022131755348F97B0068CA070AD52A683969D160143001F59071D160A979490169
:204F1C00445011E0AA7900F114015201885830614748AB7901681C2001F108024343296898
:204F3C00D058C860EC832C77434A50690078810702D5B87B802800D1812005F17406514682
:204F5C003070284604F0ECFF28460AF0EBFC02281BD1F079022805DB01AA384928460EF0D8
:204F7C00D1F80446284613F0C5FA012859D020000DD0224601A928460EF00EFF38B9284699
:204F9C000AF0D0FC012802D14BE0012849D00121284613F0ABFA284613F0A4FAFDF728FA69
:204FBC0001283ED028460CF049F9FCF739FF244FB988386810B1AA79914203D04FF6FD7037
:204FDC0081422ED11F49087B12F04EFD040028D084F800A0A879608095F83910217195F8AD
:204FFC009601607196F90010A171A4F80880B9F80200608112F0F8FC050005D1FF204FF095
:20501C00FF312073216109E02878207313F056FB0146A86813F062FA8008206120463968F9
:20503C008847BDE8F78F00BF780E0020980C0020980E00209C0E0020B8BA01009C1C002056
:20505C00800E00206C1D00202DE9F84F8AB083460C4600208DF800001646B849C879810661
:20507C001A4602D5B6488178880640F163811D98169B199D1E9908B900250CE059B9012B60
:20509C000CBF4FF040094FF020094D4503DB012B0CBF40252025DDF86880DDF86C90C6468E
:2050BC001EFB09FE15FB0EF5AFB24FF0600A97FBFAFE0AFB1E775FEA070C18BF4FF0010CF4
:2050DC00E6445FFA8EF70897AFB20997ADF81A208DF819408DF818609A4F3A78149CDDF832
:2050FC0054C0DDF85CE0DDF860A01C9E002A72D0ADF860A000279DF800A0ADF81CB08DF87D
:20511C0050408DF854C08DF858308DF85CE01D901E910899F8B2884279DAA8B26028ACBF6B
:20513C004FF0600BAB465FFA8BF02D1A4000203080B211F055FC04004BD0912020703E21CA
:20515C0081226170A2705FFA8BF20998A080A7714B46BDF81C0020819DF81910A1729DF895
:20517C001800E072BDF81A10A1819DF85000A0739DF85410E1739DF8580020749DF85C10E1
:20519C00617404F12001BDF86000608284F814B004F12000A06184F81580881884F81690E8
:2051BC00E675E06105904246A0691E9904900391CDF804A000961D989DF8581002905FFA96
:2051DC008BF002F0EDFE82465E480078214605F0ADF87F1C9DE78DF868808DF86C908DF8E2
:2051FC0070609DF80090DDF82480ADF81CB08DF850408DF854C08DF858308DF85CE0ADF893
:20521C0060A01D901E9100260899F0B2884280F29180A8B26028ACBF60272F46F8B22D1A26
:20523C005FFA87FA4FEA4A0000F1140B0BF10B00C0B211F0D5FB04007AD001202070FF217C
:20525C0004F1080261706260042010703E22606842708120616881F802B06168C8704FEA53
:20527C002821606880F804806068417161688E716168BDF81C00C8716168BDF81C00000A4C
:20529C00087261689DF81900487261689DF8180088726168BDF81A00C8726168BDF81A006D
:2052BC00000A087361689DF85000487361689DF85400887361689DF85800C87361689DF8E8
:2052DC005C0008746168BDF8600048746168BDF86000000A88746068C77460689DF8681084
:2052FC00017560689DF86C10417560689DF87010817560681E9A9DF86C30039200F117016B
:20531C005144059117300490CDF804909DF870101D989DF8682000910290F8B29DF8581061
:20533C0002F03EFE814608480078214604F0FEFF761C69E70BB0BDE8F08F00BF280E002066
:20535C00200E00207B2E0020792E00202DE9F04FAE4D0020687095F83F10EB7895F83D0002
:20537C00ADF12C0D0918491E91FBF3F25A43891AC9B20691810001EBC0014919B1F84C006A
:20539C004FF0805909F5EC76ADF8140095F83C1095F83C009E4F0790880000EBC10040190D
:2053BC00B0F84C80306895F83D4081683846884700F003000890D9F8D80142680021384607
:2053DC00904730688168384688470028F9D10021079F68780991A74200F09F808B46D946F1
:2053FC00BBF1010F00F08E80BDF81410172964DB002840F09380BDF814006A46C01F81B289
:20541C00ADF8141020460AF0CDFBBDF80E70BDF81430F81D07F1100186B2994246D89DF86F
:20543C000A00962842D19DF80B0042083AD2800838D3BDF814009DF80920C01B1FFA80FAF7
:20545C00BDF8140039462346C01B80B210F0B0FC10BB08EB0600B0F5005F17DCE868C8F102
:20547C0088520AEB443A3346921B514602F5005212F07EFC09F1010908EB06001FFA80F8B3
:20549C00B8F5005F08BF4FF0010B0BE0BDF814004FF0010BC01D2DE0BDF81400401EADF81D
:2054BC00140003E0BDF81400C01B23E0204605A90DF014F901281FD030E0EA78B9F1000FD1
:2054DC0007D0544BBDF81470A10001EBC401C9188F830699A14220D04E49641C94FBF2F0C2
:2054FC005043241AE4B2A00000EBC4004018808B4FF00009ADF8140007996878A1427FF4A0
:20551C006FAF0AE0B9F1000F07D0424ABDF81470A10001EBC40189188F8320B1089811F09B
:20553C00DFFE10206FE04FF6F0704FF40051C8EA0040C8EA01414FF01009E1FA40F087B238
:20555C001FFAA0F18A46D7B1202FACBF20263E1C079849460AF1885233460FF017F8697868
:20557C00BF1BBFB209EB06030AEB0602002F40EA01001FFA83F91FFA82FA6870E4D1089819
:20559C0011F0AEFE0798A0420FD1E978214F0819401E90FBF1F24A43801AC4B2A00000EBFB
:2055BC00C400C019808BADF814001A4EA5F84090BDF81400079FA5F84400B90085F83E4095
:2055DC0001EBC7018919A1F81C80B5F9422095F83D100123384610F0F5FD95F83E10B5F91D
:2055FC0044200223384610F0EDFDBDF814001728BCBF01200990B8F5005F03DB099840F0A6
:20561C000200099009980BB0BDE8F08F8019002000400340B01900202DE9FF47AA48017867
:20563C0006294FF0010840F04981A84EA84F3068A84C016801F108054FF0FF09297801F023
:20565C000F00072802BFA8788309012B40F09780002800F09480E878C30707D50622291D70
:20567C00684612F087F82878C0F38019E978880737D5062201F001012B1D5143194402A8F9
:20569C0012F078F82878C009FF282AD002A912F0D5FF002800F08F802068807A022818BFC7
:2056BC00032804D138680D3012F0CCFF002840F00081386800F10D0102A812F083FF002856
:2056DC0074D02068062202A9001D12F053F8707940F0040070710622386802A9C01D12F055
:2056FC0049F84846FF2800F0E480694612F0A6FF1E25002800F0A8803968684612F09AFF81
:20571C002268014650690078FF2900F08280002815FB01F563D1107C11F0C8FF90F82E11D4
:20573C00022918BF032901BF3B685A5D01F001018A4253D100F59479581906224946401C9C
:20575C0011F03EFD30B906224946634811F038FD002843D020684169386840190622C91CFD
:20577C00401C11F02DFD002838D0707940F00800707106226946484611F0FCFF43E011F0CF
:20579C000F0F1CBF01F00F02012A27D10622A91C684611F0EFFF2878C0F3801900F00F005A
:2057BC0001289ED1062205F1080168E73068016800220A7184E02168887A022818BF032806
:2057DC0005D138680D3012F03DFF002889D12068807A002818BF01283FF483AF69E0396841
:2057FC004A5D70694919491C083812F073FE3B490A7890425DD03968706949196A46C91D1C
:20581C00083812F063FE3868401906226946C01D4DE000284DD1107C11F048FF0746206800
:20583C0040698278914544D1C11C0622684611F0C7FC00283DD0707969F3C3007071062201
:20585C00694607F5947032E021684A69107880BB087C11F02BFF82469AF82E01022818BF33
:20587C00032826D138686A46494612F083FFFF281FD015FB00F5386841194A7F012A04D0AA
:20589C000D30401912F0DEFE98B120684169386840190622C91C401C11F092FC48B170792A
:2058BC0069F3C3007071062269460AF5947011F061FF306801680020087101E04FF00008CF
:2058DC00404604B0BDE8F087C80F0020BC0A0020680F0020540F0020006E0210802E002011
:2058FC002DE9F84F05004AD09C480078092818BF0A2804D00B281CBF0C280D2801D121201C
:20591C0029E1A878002112F0ADFE040008BF4220F6D0934FA978914A3970107810B9A87888
:20593C009049087004F14806F068417801F01201022902BF706900280C2012D0607AF0B12C
:20595C00A07B012804D1B5F8030008B1812816DA6878402813DA204612F0B4FDB06808B9E9
:20597C000720F8E0B561287801281BD1A07B00281CBF0128042815D17B48007808B91220BA
:20599C00E9E07A494A78824208BF0920F8D004F1220004F13801427F802006F03DF908B196
:2059BC000B20D8E0687808B91120D4E02878DFF8C091DFF8C0A1DFF8C0B1012840F09380AE
:2059DC00207A0021012821734FF00A0811D19BF8000040210FF0DAFEB5F8030008FB00F191
:2059FC00402012F06BFD0100DFD1B16968794871B0E001202072E172617308F0B9FF606082
:205A1C00DAF8000080475D4A0146106802E06268426000680028FAD10846D9F800108847C4
:205A3C00616857484861002138780FF07DF93978012211200AF0E0FEF0684178C80605D55D
:205A5C00204612F037FD01000BD084E0002060840AF08AFE84F82100204612F027FD01009E
:205A7C0079D1F0684178C8071CD504F14207B98800291CBF3068002814D03A788A4211D267
:205A9C000F2012F00FFD68B1F06801788DF80010B888ADF801000F2039788DF80310694621
:205ABC0012F0FCFC2D4F3878002853D13549087800281EBFF068417811F0030F03D03248E4
:205ADC00006812F04FFD1120387001212172B5F8030008FB00F1402012F0F0FC01003AD168
:205AFC00FCF79EF936E0207AA8B3DAF8000080470546387801210FF017F99BF8000040213C
:205B1C000FF044FE0020207212F0A0F8012804D011F06AFF6168884212D110F079F940F25B
:205B3C00014012F09BFD19491948086001219BF8000008F029FAD9F800102846884709E06C
:205B5C00204612F0A7FCD9F800102846884720460FF026FB0020BDE8F28F00BFC80F00207E
:205B7C00D60F0020D50F0020D40F0020780E0020EC180020E8180020C70F00204C0F0020A2
:205B9C00C1710000880E00206C0F0020480F002041E700102DE9F14F82B012F08FFD009011
:205BBC0041F60301BDF808003225401A4FF0FF3B0328D9464FF0500842F21077DFF844A24E
:205BDC00914E6FD91E38012808D9801E6AD0001F00F0D580401E00F0028110E18B4A907847
:205BFC0011F064FD0400F8D0E08E618E90FBF1F77068A17950F83110009812F06FFC0146C4
:205C1C002089A279336ADFF808C2DFF808E203280EDB814C2468382010FB02F014F8009047
:205C3C00B9F1010F1EBF201890F82D0001280FD17D436424B5FBF4F47568985C2D1DF14689
:205C5C0015F83250A54217D2B0B9514529D313E07068041D08FB07F814F83240985C4FF02F
:205C7C00640BB8FBFBF844454FF0FA6904D218B9DFF8A881414501D3E1460AE0F369985C66
:205C9C007D43B5FBFBF5AC4202D208B9514508D3F146401C032190FBF1F101EB4101401AE8
:205CBC009854ACE05E480078002112F0DBFC0400F7D0606D007810F0B3FCFF280190F0D001
:205CDC00BDF8080041F6030188421CBF41F60401884207D041F62301884202BF207D800922
:205CFC00012802D14FF07A7901E0DFF838913068019950F83110009812F0F0FB226E0146C2
:205D1C00B2F80300C0B1636D93F801C05FEACC6E08D5A47B012C05D1474340F2E24397FB38
:205D3C00F3FB09E0D3F80340474324F07F4440F271204443B7FBF4FB507910B1584538BFF8
:205D5C008346394881420BD232680198131D642213F8300008FB0BF3B3FBF2F2904202D3DF
:205D7C0009F102094BE051453FBF05FB0BF56421B5FBF1F1884242D309F101093FE0316990
:205D9C00009812F0ABFB024628480368186A41884FF07A6949B1808838B94F43D9698B883D
:205DBC0040F27120434397FBF3FB1F498A4207D2307D08FB0BF36421B3FBF1F1884202D38F
:205DDC00DFF86C901BE052453FBF05FB0BF56421B5FBF1F1884212D3DFF858900FE0B168B7
:205DFC00009812F07BFB0D494FF07A79884228BFDFF8449003D2504528BFDFF8409048460D
:205E1C00BDE8FE8F81841E00302B0020780E00200200D0070100D007FC2D002001093D00AF
:205E3C00D50F00200000B80B01127A00500F00200200A00F0100A00F0200E8030100E80339
:205E5C002DE9F04FA44C8246E07894F8315094F83290BAF1000FADF1140D0146A1F1010112
:205E7C008FB218BF01214FF0000884F83F10464603964FF0F80B019622E0B1451ED0E0688E
:205E9C0071036A46042311F073FF009911F4403F03D00198401CC0B2019001F0FF017C29AA
:205EBC0018BF782909D1304606215A4611F0E0F80C2016FB004080F848B0E078761CF6B2DF
:205EDC00B042DADC0199401E88425BD0002F04F1300600F0CA8040464FF4005B019094F83C
:205EFC003F30E06813B9012184F83F106A466903042311F03DFFBAF1000F05D00099E07816
:205F1C0011F4403F40F09980009800F0FF00702803D02846702110F03FF9E0684FEA493174
:205F3C006A46042311F024FF009800F0FF00FE2803D04846FE2110F02FF948460621FE2220
:205F5C0011F096F84FEA8900FF22FE2184F83C9000EBC900A4F840B0AB0084F83D508019BF
:205F7C0084F83E20183001700199029003EBC5008019A4F84410808BA4F84200FFF7E6F94C
:205F9C00102801D10020A4E0BAF1000F0CBF10215146BAF1000F07D0B4F84000C0F5005068
:205FBC00814207DC01200390B4F84000C0F50050814201DD782100E07C21484610F0ECF851
:205FDC0007F03EF8054694F83F000621FC22401B84F83F00484611F04BF80298FC2101700D
:205FFC0094F83210E0787F1B491994F83E500C23414491FBF0F24243891AC9B284F83210C6
:20601C00491C91FBF0F24243891A84F8311015FB0361898BBFB2102905D1691C91FBF0F2B1
:20603C004243891ACDB294F83290DDF80480BAF1000F17D00398A8B117E06D1C08F10102E5
:20605C0095FBF0F17F1E94F83F30A4F840B041431FFA82F8BFB2581E6D1A84F83F00EDB2B0
:20607C0084F83D50002F7FF43AAF7C200FF092FA0546FF2D1CD17E200FF08CFA0546FF2D4B
:20609C0016D194F831500C2015FB0060807DFF280AD0E27894F832008018401E90FBF2F1DA
:2060BC005143401AC5B203E028467E2110F074F80C2084F8335015FB0060808BE08694F86B
:2060DC003200FE2110F068F8B4F84000C0F5005000B205B0BDE8F08F801900202DE9F8416F
:2060FC0085B0044611F8017B00203822072F04F5A47504F1FD06DFF86082984B00F00A81AF
:20611C000F2F09D0112F00F0B7801A2F00F0C9801B2F00F0EF801CE133789A071BD504F18C
:20613C0076073878012804BF78780F2808D0787908B17A7812B13A7B012A03D158070AD5DA
:20615C00232264E010B17878012802D0B87E012806D1580702D40F21317751E02A2256E0F8
:20617C0008784A7800EB02232B808878CA7800EB02236B8008794A7900EB0223AB80887949
:20619C00CA7900EB0223EB80087A28724A7A887A02EB00236B81C87A0A7B00EB0223AB8144
:2061BC00487B8A7B00EB0223EB81C87B0A7C00EB02232B82487C8A7C00EB02236B82C87CEE
:2061DC000A7D00EB0223AB82487D897D00EB0122EA8204F5AA70049069890391287A029039
:2061FC0021890191E8880090AB886A882988204612F0B4F968B13078410707D40F203077A2
:20621C00204612F0A7F9002830D16CE01E220F2158E06888B882A988F9820221E888388319
:20623C00397400207882A18EC91DF981B88A618EB0EB510F02BFF88AA18E884202BF388B00
:20625C00E18EB0EB111F12D0787918B10F21B972FE210DE0FC21204612F0A8F9E8880090BF
:20627C00AB886A882988A07912F070F96BE00021204612F09BF966E00E782E761A2E4978C7
:20629C00697666D11868A679811D5643002088551968A37912FB03F20A445072A179687E4A
:2062BC004FE0A679186809785643064401F01F0516F82D0F890918B17078C840C00705D446
:2062DC0020221A21204612F025F93CE0F5701868A37912FB03F20244204682F82F100021FA
:2062FC0006F0BEFD78BB98F800004FF4804107F04BFE28E0A179186851430144888908B97D
:20631C0000258D71A179186812FB01F281180020487218E009780F2917D01A2919D1A17952
:20633C0018685143014400208871A1791B6812FB01F2991848721A20B17801F0FB01B17056
:20635C00A1790AF0D3FC012003E0317801F0FD01317006B0BDE8F081C70F0020FC2D0020F6
:20637C0070B5864D687911F06FFB8549002808600BD00022026002730868C2610262A87973
:20639C0011F062FB7F490028086000F0F48000220260C27200200A681074052308684374AA
:2063BC00002209684A61E87A11F04EFB76490028086066D0754C21782878C91C10FB01F077
:2063DC0080B211F041FB72490028886059D0207800286DD0698811FB00F080B211F034FBF2
:2063FC006C4A002850604CD06B482278017811FB02F080B211F028FB68490028086040D06C
:20641C0000250AE0E8B211F0C7FA00214180816001800223037101736D1C2078E9B2814225
:20643C00F0D311F011FB5E490028086029D02078400011F009FB5B490028086021D02078A6
:20645C001C2110FB01F080B211F0FEFA564A0028106016D02078400111F0F6FA5349002810
:20647C0008600ED02078000111F0EEFA50490028086006D02078000111F0E6FA4D49002801
:20649C00086078D02078302110FB01F080B211F0DBFA494A002810606DD02078382110FBDF
:2064BC0001F080B211F0D0FA444A0028106062D0434D444E2978307800EB4100C0001030E3
:2064DC0080B211F0C1FA40490028086053D000F10801416030782A7800EB4200C000103064
:2064FC0080B211F0B1FA39490028086043D000F1080141601E212878401C10FB01F080B279
:20651C0011F0A2FA324A0028106034D0082011F09BFA304D286070B3062011F095FA29687D
:20653C0008602968086830B300204860062011F08BFA29490860F0B1A02011F085FA274D50
:20655C002860C0B12078C00011F07EFA686090B1142011F079FAA86168B10026207811F0C3
:20657C0073FA05F11C0141F8260020B1761C022EF4DB002070BD072070BD00BF6C1D0020B5
:20659C00500F0020540F0020440F0020D40F0020C02D0020780E0020BB1E0020042E002069
:2065BC00340F0020F82D0020980E00209C0E0020A00E0020A40E0020A80E0020FC2D0020C8
:2065DC00812E0020802E00206C0F0020700F0020680F0020142E0020400F0020302B0020E5
:2065FC002DE9FF477A4C7B497B4E20700A22002008600D2379484FF40471027043808180AD
:20661C00774A78481060377877480770FF2F7178417008BFFF29B2788270F378C370357969
:20663C0005717679467114D1FF2A08BFFF2B10D1FF2D08BFFF2E0CD16C490A7802704B78D9
:20665C0043708A788270CB78C3700A7902714979417167490278674D674E684FDFF8A08155
:20667C000A7043784B7082788A70C378CB7002790A714079634A4871FF2028706870A870E8
:20669C00E8702871687100205F490880F06B5F49407808705E49F06B0078087013885D485F
:2066BC005D490380F06BC06C3860F06B90F83C0008705A49F06B90F83D000870F06B4069A0
:2066DC00017957484A1E0270F06B5649C07888F80000F06B8069086008B90FF04FFEF06BE5
:2066FC005149C069086008B90FF048FE11F0CEFEF06B4E49006A086008B90FF03FFEF06B64
:20671C00DFF82C91406AC9F8000008B90FF036FEF06B4849806A086008B90FF02FFEFFF749
:20673C001FFE07280AD104F00BF820784FF4804107F02AFC00200FF021FE46E03E48016813
:20675C00884782460BF0D0FCD9F8000001688847684611F099F9D9F8002004208DF80000DB
:20677C00694652F8043F00209847344908600DF033FCF068324A018898F80000314B014304
:20679C0011805046196888470C212F4811F095FB284611F077FE11F071FE2C4800214FF603
:2067BC00FF72016082800621387882072848006848BF072111F0E8F80121FF200EF0B4FAB4
:2067DC0020784FF4005107F0DFFBBDE8FF8700BFC70F0020380F0020D04F0050700E00204C
:2067FC003C0F0020B63F0050400E0020E8120050500E0020480E0020B8BA0100002E002060
:20681C00C40F0020A81E00209E0F0020C60F0020D40F0020722E0020802E0020812E002061
:20683C00CB0F0020200F0020240F0020280F00202C0F0020300F0020E8180020082E002019
:20685C00A00F0020EC180020FC0D0020800E0020142E00202DE9F84F0422FF21684610F09F
:20687C0093FF914988780024FF2800F01B8110F01DFF054605F217100178012908BF417811
:20689C0000F0948005F59276F18911B1307B07F07BFB6889288105F17401844F887B02287D
:2068BC0004BF05F174008473FB7997F80AC03A7BF97A787B9C4494448C4405F58D790CEB31
:2068DC000008B9F804E0B9F800C00EF1010EC444A9F804E0A9F800C0B9F802E097F80AC0A6
:2068FC00F444A9F802C036681EB3DFF8C4E195F806B0DEF800E04FF01C0C0EF10E0A1CFB68
:20691C000BFB0EF10E0E1AF80BA036F81AB0C34426F81AB095F806A01CFB0AFC1EF80CC064
