:20000000003C01203D24010039FB021039FB021039FB021039FB021039FB021039FB02107D
:1C00200039FB021039FB021039FB021039FB021039FB021039FB021011FB021002
:20003C0038B586B004468DF805104FF6FF720120ADF80220090ADFF8905CADF8000002235F
:20005C008DF806108DF8043069462A78204617F057F8162803D12978204617F04DF807B007
:20007C0030BD3EB504000D461AD0DFF88C0C0068224617F03DF8FF2811D0002000900023ED
:20009C0001AA294620460DF0ABFB40B900F0B9F8C00604D500F0B5F810F0040000D0012056
:2000BC003EBDFEB5164615244FF6FF7290420D4615D100208DF80400DFF80C7C9DF804007F
:2000DC00B97988421AD23246294600F0C9F800B100249DF80400401C8DF80400EEE717F055
:2000FC0003F850B100F004FD40B99DF804003246294600F0B5F8002400E014242046FEBD84
:20011C002DE9F04387B00C460021009190461D46014600F04DFD01260028DFF8AC7B62D105
:20013C0000F06FF88146082DF87908BF002600F012FA040002D100F011FA5BE078789DF864
:20015C00041002280CBF0120002000902B464A46404600F0D7FC1422002102A8062516F02D
:20017C0015F89DF8040015FB00F0243002AA00F044F8A8B91022FF2102A815F002FC78B900
:20019C009DF8040015FB00F5253506AA0421E8B214F08CFF02AA09F00101404616F0A0FF7B
:2001BC00F9799DF80400890670302246090EC0B214F07CFF88B9204600F0C5F8002508E018
:2001DC0004EB8000018819B18278404615F08CFA6D1CF979E8B28842F2D39DF8040000F089
:2001FC0003FA00F0C2F97878022803D116B1404611F0D8FC07B0BDE8F0831021C0B214F0B5
:20021C0055BF9DF80400B3E17CB50D46044606214C43164600F01EF8A8B900F016F890B9F3
:20023C009DF80700002E14BF054320EA0505E9B2814206D08DF807506A460821E0B214F02A
:20025C005DFF012076BD002076BD0622FF21684615F097BB20346A460821E0B214F026BF8A
:20027C002DE9FC410646344606235C4388461546FFF7F0FF002850D1FFF7E7FF00284CD109
:20029C00DFF8447AF87900F066F9040002D100F065F942E0F979703689062246090EF0B2DE
:2002BC0014F004FF002834D1204600F04CF85FEA08000DD1FA799206120E0021204615F06E
:2002DC0060FB30BBFA799200002100F041F916E0214600F025F858B9280004D0214600206E
:2002FC0000F01EF810B900F040F916E0A0F800808178A9420DD085700DB900210180204658
:20031C0000F021F8F97989062246090EF0B214F0F5FE00F02AF9012000E00020BDE8F6814F
:20033C0070B5DFF8A439DD79002200E0521CD4B2AC4206D231F824608642F7D101EB840009
:20035C0070BD002070BD10B50021DFF87C290AE030F82130DB4320F8213000EB8103491CE7
:20037C009C78E4439C70D3799942F1DB10BD2DE9F04186B0804600200E460090002398F860
:20039C00061004AA40460DF02BFADFF83C590627A0B1002400E0641CA979E0B2884280F079
:2003BC00C780A869E3B20622FF2100EBC30015F0E8FA0028EFD08DF8104013E0706988B196
:2003DC0000F0C1F823306A46FFF717FF50B91022FFF73CFF30B998F80600414600F00100E6
:2003FC0016F07AFE9DF81000A979884280F09C80E87900F0B0F8040003D100F0AFF80A20B4
:20041C0093E000F0A0F820304246082100F0AAF89DF8100000F0E8F8EA79920000F097F849
:20043C00E9799DF81000890670302246090E00F099F8A8699DF810300822414600EBC30025
:20045C0015F09AFE726972B1107C002302F1110100F0010016F03CFE726922B100F073F8F7
:20047C00233000F07EF8B2682AB100F06CF821301C2100F077F832692AB100F064F822305D
:20049C001C2100F06FF8F26882B100F05CF8243000F067F8F06800F110029DF8100017FB26
:2004BC0000F725370421F8B214F028FEE87B08B100F052FBB688286A4FF6FF7750B905F1F1
:2004DC00120100910223DFF860283946012016F0FBFD2862296A19B3FF2003900222002358
:2004FC000292019305A800900DF112036A8A304606F0A4FA68B99DF812009DF8131000EBFF
:20051C00012290B228B1286A418992B23046FFF7C8FD6A8A286A0023394616F0D1FD28622A
:20053C0000F023F8002000E0152006B0BDE8F081DFF8F827107800281DBFDFF8F4170868BF
:20055C0004780C4637E79DF8100078437047FF21204615F01BBE800015F078BF042014F034
:20057C0003BC1021C0B214F0C9BD204615F076BFE0B50623584320306A460821FFF73EFE1F
:20059C0010B99DF807000EBD00200EBDDFF83807007808210CF078BB38B50025DFF82847E6
:2005BC0019E0A069062313FB05F300EBC50220330821D8B214F07AFD58B1A0690622FF2161
:2005DC0000EBC50015F0E2FDA06900EBC5010022CA716D1CEDB2A1798D42E2DBE07B10B16A
:2005FC00BDE83140B8E231BDF8B5DFF8DC16DFF840578B792E681C461A4600E00A46D1B24E
:20061C0039B1511ED2B2324412F8017C8742F5D10C46E0B2591E07E01718165C7F78175410
:20063C002A680244401C567088422A68F4DBE4B28C4205DA1946BDE8F840052014F05EBDB6
:20065C00F1BD38B500200024DFF87C56AA79E1B2914206D2010004D1E0B200F003F8641CC2
:20067C00F4E732BD2DE9F84F83465D46062313FB05F58EB005F1200701AA0821F8B214F0BD
:20069C0015FD002871D10622FF2101A815F079F900286AD1DFF83066F079FFF75CFF5FEA87
:2006BC00000903D1FFF75AFF0A2060E01C22FF2103A815F06BFDF2799200FF21484615F062
:2006DC0065FD05F123040AAA1021FFF7C6FD60B91022FF210AA815F054F930B99DF80A00EA
:2006FC0001A900F0010016F0F7FC082200F046F801AA0821F8B214F001FD8DF8000003AA40
:20071C0005F1210000F036F8074605F1220003AA00F030F8804603AA1021E0B214F0EEFC3A
:20073C00044605F1240003AA102100F024F88246253503AA0421E8B248EA070714F0DEFCA3
:20075C002743F1799DF800504AEA0707074389060BF170034A46090ED8B214F0CFFC0743F0
:20077C00484615F07BFE3D4300E0002528460FB0BDE8F08F1C21C0B214F0C0BCFF2101A883
:20079C0015F004BD2DE9F84187B0FF208DF80000DFF83455A87915F059FE040003D1FFF7A2
:2007BC00DDFE0A202EE01022FF2103A815F0EEFCAA79FFF7CCFE0622FFF7E0FF03AA102160
:2007DC00022014F09BFC064603AA1021032014F095FC06436A460121042014F08FFC074643
:2007FC00A9792246052014F089FC054601AA0621062014F083FC8046FFF7B7FE3E432E437C
:20081C0048EA060008B0BDE8F081F8B50446DFF8B8542079012842D0092803D07D2800F06F
:20083C007F8084E0617860881A2976D000F066FA022802D0032818D079E02089668801227D
:20085C00012804BF6089032807D1E168887820B91021304600F023F90246686900281CBFB3
:20087C004368002B63D0052116E020896688012804BF6089032806D1E068827804213046EC
:20089C0000F00DF900E01820696900291CBF4B68002B4CD0024604213046984747E0207ADB
:2008BC006788082838D1384600F028FA02280FD0032831D160890022042100F0F0F8696954
:2008DC0000291CBF4B68002B26D00246042121E060890022102100F0E2F80646384616F0E0
:2008FC0003FC78B1DFF84C24117839B9811D4079012200F0010016F0DFFB03E0DFF83814A1
:20091C0001200870686900281CBF4368002B03D03246052160899847608800F089F906E0FF
:20093C00608800F0EBF90146608800F0A2F9217904F10800BDE8F44016F0BABBF0B5A9B03C
:20095C0006460D46144616F0CFFB08B91420A4E0A4220021684615F019FCADF800600DF187
:20097C002607DFF86463F078B17A279A8DF804005208F07A8DF8A0004B0801F0010040EA5B
:20099C00420222F0020203F0010342EA4302080922F4807200F0010042EA0022480922F4BA
:2009BC00007200F0010042EA4022880922F4806200F0010042EA8022307B890822F004028E
:2009DC0001F00101022842EA81020CBF012000202792787416F068FB412807DB307B00B16E
:2009FC0008209DF8991008438DF89900707BB8B10121B974202206F184010DF1390015F06F
:200A1C00BBFB202206F1A4010DF1590015F0B4FB202206F1C4010DF1790015F0ADFB00E019
:200A3C00B874707A8DF8050088B1C44F102207F110010DF1060015F09FFB9DF89900082872
:200A5C0005D1102239460DF1160015F095FB307A8DF8260028B11022B9490DF1270015F0BE
:200A7C008BFB307948B1022D18BF032D03D1279840F002002790012100E000219DF899002F
:200A9C000143B0788DF8991000B1042001438DF899106846214616F003FB29B0F0BD2DE9A4
:200ABC00FC41154615244FF6FF72904288460DD10027854EB179F8B2884216D22A4641469E
:200ADC00FFF7A2FB00B100247F1CF3E716F00CFB50B100F00DF840B99DF804002A46414691
:200AFC00FFF792FB002400E014242046BDE8F681002100910023417901AA01F00101801DCF
:200B1C000CF06EBE70B504460D4606204543082B88B0164603D1300758BF223500D52135B6
:200B3C001C220021FFF72BFE01AA1C21E8B214F0BDFA78B99DF81E00C01F0A280AD20C9869
:200B5C000090F20801AB02F0010206F00101204616F0A2FA08B070BD38B516F099FA0024BF
:200B7C00594D0FE0A8690622FF2100EBC40014F008FF28B9A86900EBC401002016F084FA6B
:200B9C00641CE4B2A8798442ECDB31BD3EB50C4600250146009500F00BF838B99DF80400C4
:200BBC00FFF7E6FCC00601D401203EBD00203EBD002301AA20460CF013BEF8B506460F4620
:200BDC0015460C2015F042FC040019D02681A77200202060E07245B10821284615F016F8F0
:200BFC00606018B9FFF7C1FC0BE060605548016811B9046004E0014608680028FBD10C60BB
:200C1C000CB91520F2BD0120E0722A4639463046FFF794FE04462C48406900281CBF43689A
:200C3C00002B03D000220021304698472046F2BD38B505464348046803E02089A84204D074
:200C5C002468002CF9D1012032BDE07A012807D100F05EF820B11C48007804210CF014F86B
:200C7C00E17A491CE1722846C9B200F002F8002032BD38B502290446134D02D003290DD0C6
:200C9C001EE042F6C921FFF7CBF902001CBF6869002818D04368B3B105210CE042F6A62180
:200CBC00FFF7BEF901001CBF696900290BD04B684BB102460421204601B0BDE83040184712
:200CDC00BDE8324002E031BD9C1A002010B51D4B1968002201E00A46096851B10C8984426C
:200CFC00F9D10868002A0CBF18601060084615F0B5FB002010BD0000680F002002460420CE
:200D1C001049096819B10B899342FAD1C87A70470C48006828B1006818B1C17A0029FAD101
:200D3C007047002070470000349E01007032002004320020AA0F002071320020402F0020F3
:200D5C00702F00200832002038B5244C2070A171E271C80015F07AFBA061D8B1A279D20053
:200D7C00002115F013FAA07915F070FBE06108B9A0690DE0A2791A4D002115F007FAA079E1
:200D9C0015F064FB286050B9A06915F067FBE06915F064FBBDE83240042013F0E5BFA27928
:200DBC00002115F0F3F904F1E40016F069F92178062016F061F9FFF7EFFB2A68A1790520F4
:200DDC0014F074F948B1002004E02B68091A4A1E1A54401CA1798842F7DB31BD9C1A002027
:200DFC00043200202DE9F04FBA4D4FF0FF30686000262E604FF00208C5F80880ADF1240DDE
:200E1C00EE60102015F04EFD286140B1066005F1140141602C69866005F15007E76088A025
:200E3C0068610827EF614FF0FF34AC6140202D6215F038FD05F114043146A74B686218B19C
:200E5C00CA00865082185360491C0829F7DB7FA028650327AF654FF0FF336B651820ED656C
:200E7C0015F020FD002828660AD07CA101609B4941607CA28260C16002D07CA2026141618B
:200E9C00AE624FF0010BC5F830B04FF0FF30E86208206C6315F006FDA86318B1066005F157
:200EBC003C01416073A00627E8634FF0FF346F6405F128032C643020AB6415F0F3FC074617
:200EDC00002FEF6418D071A038608548786071A1B960F86010D071A1396173A2786107F149
:200EFC0018042260F86107D071A1396275A2786207F128042260F86216F0BAF811F048FE6B
:200F1C00071C00F0338514F0D1F976498446304631F80C4F002C40F025854FF6F879A1F844
:200F3C0000904F60704C8E60796820706046E16014F0F4FF04F140073146384616F094F89A
:200F5C006A4841F28832334627616949009004F14C0011F001FF674F67493246152307F143
:200F7C0021000090102007F06FFB644910203246434607F069FB4FF4806059463A4605F0A3
:200F9C0037F840F2024059467A1C05F031F840F203405946BA1C05F02BF840F20640594626
:200FBC00FA1C05F025F840F2114059463A1D05F01FF87A1D40F20D40594605F019F8BA1DD6
:200FDC0040F21240594605F013F8FA1D40F20C40594605F00DF807F108024FF483605946DD
:200FFC0005F006F807F1090240F20740594604F0FFFF0A3740F2144059463A4604F0F8FF04
:20101C00D14910204FF0FF3207F01EFBCF4910204FF0FF3207F018FBDFF834A3CD4F10202E
:20103C001323CD4A00905146019707F00DFB202015F038FCD94F0146B96000296ED05FE0E2
:20105C00576F726B207769746800C046536574204175746F436F6E6E6563740044697361BF
:20107C00626C650047726F757020410047726F757020420053657420436F6E6E2050485959
:20109C0020507265666572656E63650031204D62707300C032204D62707300C03120262037
:2010BC0032204D62707300C0436F64656400C0463120262032204D6270732C202620436FCC
:2010DC00646564004175746F20504859206368616E676500B82D002071340100E58A00007D
:2010FC00D5B20000841C0020E00F0020E3220020F9440100D81C002009160100111C0210A8
:20111C0009F1070013F01AF9C549102007F11402009011230191514607F096FA03238DF831
:20113C00188058468DF8193004228DF81700BD498DF81A200DF10E0330460A6809791A6015
:20115C000DF11702197159460CF0B6F85846594606AA0CF0B1F8404659460DF119020CF0BD
:20117C00ABF8032059460DF11A020CF0A5F8042005210DF10E020CF09FF804F1140004F152
:20119C003802A9497860102007F05EFA207813F0E3FCA6490246102007F056FA207813F0ED
:2011BC00DBFCA3490246102007F04EFAA1491020FB2240F6480307F047FA9F49102007F09A
:2011DC0043FA9E4F07F1180007F10C010CF0D8FE9B49B86015F042FADFF834A3B8684FF494
:2011FC00E0215246521E12F03FFFB8684FF4E021524612F039FFDFF830A3B8684FF0C0513A
:20121C005246521E12F030FFB8684FF0C051524612F02AFFC549009607F12400C822334623
:20123C0011F09AFDC248786009F105000FF03CFE207813F091FCBF49034640460422B046C5
:20125C0000901020CDF8048007F0FEF904F1E4073146C02238460EF0ADFF04F1E40B09F13C
:20127C0007060820401E27F8186BFBD14FF0FF30414610F027FDA06041464FF0FF32C8A0D9
:20129C002860284613F09EFFA068DFF8289358B1AF684FB1494607270861CC4E0F702846B5
:2012BC00CE6012F0A5FFA0684D4629784246CBA313F0F3FDE06800214FF040424FF0FF337E
:2012DC0015F0CEFE00280890F4D0002002900DF1160102AA03A813F09DF9002840F0A1816C
:2012FC00BDF80C00102840F0988120789DF81610884240F09281029908884FF6FF7282428B
:20131C0000F08B810E463078913827D01F3803D0203800F07F8180E13379A0682A787E2B27
:20133C0004D07F2B0AD10989B2A301E0317AB5A30091521CD1B2002213F0AFFD317906F179
:20135C00080015F0B5FE68E111530100E55601007D4C010090A201002C16002070780E383A
:20137C0044D0401E29D0401E00F032812E3840F05481B0780C2840F05081F778A068297805
:20139C009FB9F279012A0BD0022A08BFC5A208D0032A0CBFC4A2C6A203E0C0465C170020F4
:2013BC00C9A20092891CC9A301E0491CCCA3C9B2002213F072FD0C2014E0B08842F2320180
:2013DC00814240F02A81B278A06829781A2A1ABF0092C8A3CFA3491C0022C9B213F05DFD95
:2013FC0042F2320031460EF0DFFC16E1B168B788087841F20542BF1A24D0A7F62B47002FC7
:20141C0040F00B81002840F00881C878009008790190A1682878D3A38C46C01DCFE0C046AE
:20143C009CA2010069A30100C5530100D96C02102D6D02100D520210397F0110641E00204C
:20145C00FD3E0100B168491C91F902A0002840F0E4804A78087800EB022014F0ADFBD4F807
:20147C0008C095F800E00746082F80F2A580BAF17F0F00F08880F90001EB07110BEB0106D5
:20149C00727C531C88187374584480F80CA0727C052092FBF0F343430BEB0100D21A0C3064
:2014BC0000210523727410F9012B5B1E0A4411B2F9D1052091FBF0F040B2B074F37C002B17
:2014DC0061D110F11F0F4FF0000904DD337D022B18BF002B30D196F9120010F11E0F07DAD6
:2014FC0010F1290F04DD337D012B18BF002B17D110F1330F04DD10F1280F44DA337D4BB9C2
:20151C0010F1320F3FDA04224FF0020915E0C0460E00058004224FF001094FF006080EE0AC
:20153C004FF0010842460AE00E000010A560010043560100CDA4000002224FF00208737D49
:20155C00984502D1B07D022801DB98451BD0308811464B4612F0DCFD0120F074707D804512
:20157C001CBF0020B075B9F1000F06D0B9F1010F14BF4FF002084FF0060886F81580D4F89E
:20159C0008C095F800E0F800CDF800A000EB0710584490F91200C9A301900EF105000EE075
:2015BC0053696D706C65205065726970686572616C00C046F82000200EF10100C7A3C1B25E
:2015DC000022604613F069FC27E0C046A1C800000820002106F08CFA1FE0C0463D3D3D3D8B
:2015FC003D3D3D3D3D3D3D3D3D3D3D3D3D3D3D3D00C046C04D54552053697A653A202564A5
:20161C0000C046C046432056696F6C617465643A20256400084600F035FA029808B115F05F
:20163C0004F90898C00FFFF445AE206915F014FD00287FF43FAE2069064615F009FD86426D
:20165C0008BF002602D0866812F092FE002EECD03078401E082800F27D81DFE810F0560101
:20167C00ED00C700A3008D00730079017301090070684788384614F09FFAA1682A78082863
:20169C000DDAC10001EB00115944C87D012840F06181BA493A46102006F0D6FF5AE1571C40
:2016BC008EA39BE0324D00C0434F44454400C046556E657870656374656420504859205622
:2016DC00616C756500C046C0314D00C0504859205570646174656420746F20257300C046AA
:2016FC00504859204368616E6765206661696C75726500C0504859205570646174652053C8
:20171C007461747573204576656E743A203078257800C046504859204368616E67652066D8
:20173C0061696C7572652C207065657220646F6573206E6F7420737570706F72742074689E
:20175C00697300C002200DF11B0111F0A5FE002840F00081032001210DF11B020BF0ACFD14
:20177C00F8E0C046525850683A2025642C20545850683A20256400C07768787A48B1804845
:20179C0000902978A06800227EA3C91CC9B213F084FB7B4800907849FA880023102006F0F0
:2017BC0053FFD7E072681079A1682F781278DAB1521E10D0521E08D0521E40F0CB80002831
:2017DC000EBF74A3009078A307E0002808BF7CA303D080A305E018B984A3FF1C8846ABE022
:2017FC0086A3FF1C8846A6E089A3F6E77768A26828783968491E0CD0491E08D00E3912D156
:20181C0079680B780093498885A3019105E08DA300E091A3796809780091001DC1B2104628
:20183C00002213F03AFB3868B0F1004F00F09280786812F09DFD8DE070680078010923D268
:20185C004009C0F087800E2014F050FC002840F081806A68A8689168814213D0B0F1FF3F35
:20187C0078D0116951F830702FB901EBC001486812F0BEFC6EE0116901EBC0014968C0B208
:20189C00884767E0D068F3E70D2014F02FFC002860D16968A8688968814208D0B0F1FF3F03
:2018BC0009D0401C12F082FEB0F1FF3F02D1002012F07CFEA8600AF0E3F84BE052535349BE
:2018DC003A25642064426D2C2041564720525353493A25642064426D00C046C0436F6E6E21
:2018FC00656374696F6E2068616E646C65206973206E6F7420696E2074686520636F6E6E2B
:20191C004C6973742021212100C070682F78D4F8088000787F1C38B1801E1BD1022007A9A1
:20193C0011F0BAFD51A304E0002007A911F0B4FD51A39DF81C000090F9B24046002213F0EE
:20195C00ACFA07E07068B0F801000BF003F805E010F0E2FC706808B112F00AFD304612F092
:20197C0007FD62E6401C0628FFF4D2AA14F0C0FF09B0BDE8F08FC0462D4501000D2B0210A3
:20199C0040E2010050617373636F64653A20256400C046C0426F6E642073617665207375D3
:2019BC00636365737300C046426F6E642073617665206661696C65643A20256400C046C074
:2019DC00456E6372797074696F6E207375636365737300C0456E6372797074696F6E206636
:2019FC0061696C65643A20256400C04650616972696E672073756363657373005061697274
:201A1C00696E67206661696C3A20256400C046C050616972696E6720737461727465640026
:201A3C00416476205365742025642064697361626C656420616674657220636F6E6E2025DD
:201A5C006400C046416476205365742025642044697361626C656400416476205365742031
:201A7C00256420456E61626C656400C04368617220333A20256400C04368617220313A2099
:201A9C00256400002DE9F04F0646C44DC74CB2782878A168ADF1240D002A00F1010000F02E
:201ABC008781C14B521F0FF2E42900F0BB80521E4DD0521E1ED00A3A40F03A82B088B77BC7
:201ADC00ADF8080070898DF8127060B9ADF80E00B089ADF81000F188ADF80A103789ADF8E6
:201AFC000C70012000E00020AD498DF8130002AA0D461BE1AB49B288102002AB06F0A4FD02
:201B1C002D78A768F078AD1C30B90DF10A0010F0ADFE89A3009007E00DF10A0010F0A6FED9
:201B3C00B17800918AA30190E9B23846002213F0B4F904F1300013F043FD041C00F000822C
:201B5C0020890AF007FF204612F012FCF8E11946102006F079FD5FFA80F82978A0680022DA
:201B7C0084A3491CC9B213F098F9CDF800802978A06800224B46891CC9B213F08EF9B0882B
:201B9C00814614F019F808282CD0C60006EB00163619E436B068071C0ED014F0B5FE10B15A
:201BBC00384614F0A3FE384615F04EFA384612F0DFFB706812F0DCFB04F1300007684E46E8
:201BDC0057B182463889864203D15046394613F046FB3F68002FF5D1304612F055F830468C
:201BFC000FF062F9B8F1000F08D104F14C0014F07DFECD480221012213F0E4FA0026009626
:201C1C00CA4FA27810203346394606F01DFD0096E27810203346394606F016FD2878A16873
:201C3C00C01C87E11946102006F00EFD5FFA80FBCDF800B02978A06800224B46891CC9B2EF
:201C5C0013F02BF9B04698F80100002851D1B8F80AA004F1E409082000264FF6FF72A9F196
:201C7C00180737F8181F8A4204D0401E06F10106F7D127E0A7F800A0032014F013FE7860A9
:201C9C00D0B1082101707868A0F801A0242014F009FEB86018B9786812F06AFB0CE0F00099
:201CBC0000EB0610484441680091B249806841F27072012311F050F8F000012100EB0610C9
:201CDC00484401752D78A66808F1040010F0CEFD6D1C009000229CA3E9B2304613F0DDF808
:201CFC0091480121022213F06DFA04F14C0014F0FBFDBBF1080F12DA607880B90026009686
:201D1C008A4DA27810203346294606F09DFC33460093E2781020294606F096FC10E1964DAE
:201D3C00E2781020294606F08FFCA2782946102006F08AFC04E1C0464C696E6B205061721C
:201D5C00616D20557064617465643A20257300C04C696E6B20506172616D20557064617443
:201D7C0065204661696C656420307825783A20257300C04644657669636520446973636FBE
:201D9C006E6E65637465642100C046C04E756D20436F6E6E733A20256400C046F8200020ED
:201DBC00D9570110F9DC0110AD3E0210E00F0020B14699F80170002F40F0C280337A8DF808
:201DDC000A30B2798DF80820F7798DF80970F37A8DF80F30727A8DF80D2000278DF80C7070
:201DFC00B37A8DF80B7002AA8DF80E30634B166852681E60C6B2084631465A6056A33A4657
:201E1C0013F04BF8A01CDFF87CA1604E5C4900905246102006F1380306F016FCC0B208B1A0
:201E3C0014F0DFF84FF00B0806F10B00CDF8008055490190A2783B46102006F005FCC0B2AF
:201E5C0008B114F0CEF81C2006F1540300904E490193A2781020012306F0F6FBC0B208B11E
:201E7C0014F0BFF8A2784A491020922306F0ECFB0097DFF8B8B0A27810203B46594606F0E6
:201E9C00E3FBC0B208B114F0ACF8E01C3C490090524606F17003102006F0D6FBC0B208B140
:201EBC0014F09FF8CDF80080163601963649E27810203B4606F0C8FBC0B208B114F091F848
:201EDC00E27833491020922306F0BEFB0097E278102059463B4606F0B7FBC0B208B114F064
:201EFC0080F82D78A66809F1060010F0BFFCAD1D1FA100913A461BA30190E9B2304612F0E3
:201F1C00CCFF10F009FA234840F6B83201231949009004F1700010F01FFF1F4802213A46A9
:201F3C0013F050F90CE0C046B82D0020ED740110421CD6B2C2B208461146324614F040FB1A
:201F5C0009B0BDE8F08FC046436F6E6E656374656420746F20257300496E697469616C6901
:201F7C007A656400257320416464723A20257300494400C0F944010065020210971500200D
:201F9C0099010110A1520100FDA50000D81C00201DEF0110E4220020B82D00202DE9F84F2B
:201FBC00DFF8B454A9780024FF2904BF002012F0DBFEA87814F090F8054605F1680605F5A6
:201FDC00C9773168086805F1900808B1EC8311E0B07B002804BFB07E00280BD198F800100D
:201FFC00002904BF3878002804D1287F012804BF688CE8832989E88B4118491C69812846FF
:20201C0015F01EF801281EBFDFF850040178012903D12989EC83491C69814FF6FF79B07E86
:20203C0001280DD1B28B6989288915F005F838B1298968894A1C93B298422FD0B08B23E04D
:20205C0098F8000001280FD1B8F802206989288914F0F2FF40B1298968894A1C93B2984248
:20207C001CD0B8F802000FE03878012816D17A886989288914F0E0FF80B1298968894A1C35
:20209C0093B298420AD0788892B2904206D04844688180B214F0CCFF4844E88338780128F9
:2020BC000ED128897988401C80B2884208DB7C793C71002038702346A97922460AF0B2FC33
:2020DC0005F59A71087920B128890021401CE983688105F12E08B07E012845D12A89B08B83
:2020FC00521C92B290423FD1688105F18601284614F09AFFB08C688400212977E983E889F9
:20211C0069894118A981B08B298914F091FF8146B8F80410308C728C01FB0909F08C8A4212
:20213C0004BFB8F80810884202BFB38CB8F806108B4207D000090090B38CA9795208002050
:20215C0014F06EFFB07F88F80000718CA8F80410B08CA8F806002846F18CA8F8081014F009
:20217C005BFF0220B07601E0B8F80490EA8BDFF8F0C2501C00FB09F040F6C41909FB00F116
:20219C0000912B68D3F80CE07144D960DCF800E0B4499EF800A00B884FEA9A1ABAF1030F36
:2021BC0017D1DFF8C4C29CF80FE05FEACE7C48BF00230ED45B1C1FFA83FCBCF1010F11BF00
:2021DC00B5F812C005F59A7EBEF806C00CF2DC5C01E0B5F812C00CFB00FC4FF4C87EBCFBFD
:2021FC00FEFC0CF1010CC5F814C00B80A86185F820204FF01C0BDFF874A2AB79DAF8000094
:20221C0000F108021BFB03F3D1582A68116100F10801AB79D26868691BFB03F3121ACA50F3
:20223C00DAF80000AB7900F108021BFB03F3D1582A68916000F10C02A9791BFB01F10C3074
:20225C00535C03F0F00343F002034354DAF80010AB798A1C1BFB03F30021D152387908B990
:20227C0012F082FDDAF80000AA7900F1100138791BFB02F240088854A879DAF800101BFBD2
:20229C0000F00844002141743879042814D1A879DAF800101BFB00F001F110021031135C91
:2022BC003A7A43EA82030B54AA79DAF800001BFB02F2024420205074DAF80010A87901F1FF
:2022DC0012021BFB00F0002111526949A8790A6802F114034FEA401C143253F80C00AB799F
:2022FC00D5F814C05B0100EB4C00D050B07E02280DD10A68AE7902F11403760114329859E7
:20231C00AB7998F800605B0119FB0600D0505648C27BD0075CD5DAF80000AC7900F1080321
:20233C001BFB04F408301A59AB791BFB03F3A2F5A862C250DAF80000AC7900F108031BFBDC
:20235C0004F41A592B689A600098121A1A610868AC7900F11403640114301A59AB795B01F1
:20237C0002F5F662C250387904280BD10868AC7900F11403640114301A59AB795B0102F5F7
:20239C006162C2500868AB7900F114025B01D058C5F834016427374A0B68106BAE790068B2
:2023BC0003F11C04B8F804304343B3FBF7F7760109FB07F0A0F59660A0512F480378012BDB
:2023DC0030D10868A97900EB41120120D07230E0042C0BD10868AC7900F11403640114304B
:2023FC001A59AB795B0102F56162C25038790A68AC7904280CBF4FF4AA504FF4E66002F10A
:20241C00140364011A59101AB8F8042009FB02F2A2F516729042BDD30821284614F0F8FDAA
:20243C00012016E0506A0968AA79407801EB4213D872A879DAF800102A681BFB00FB01EB46
:20245C000B00506007210D480170284614F0DCFD0020BDE8F28F00BF780E0020D10F0020C1
:20247C003C0F002060320020980C0020980E00209C0E0020A4A40100CC0F0020C80F002094
:20249C002DE9F04FCA4C05462078ADF15C0D032840F03E824FF0000B6846182284F800B052
:2024BC00082384F801B0594614F038F96846594612F0DCFA20612E22594604F130000DF01D
:2024DC0079FE04F130008146FF210A220C300DF071FE12F099FB2946584610F041FD04F1B3
:2024FC001801E06014F03BF9206AE169B1FBF0F2D7B284F83070022FC4BF022784F830702F
:20251C00E770B0F5005F04D1E068B1EB473F00D310B901202070FDE1FF2184F83310D846DD
:20253C00CDF828805D460B950C950D950E950F9513950A46109211921292149215924FF4D4
:20255C000056E68659461691AF4200F30B81139E002E3AD10F9E002E28D1B8F1020F25DA70
:20257C000E98022822DA0B9802281FDA0A9887421FD00E9E9EB9B8F1000F0ED10D9E0C986A
:20259C0006430FD15D46AF4213DD28460AF0D4FD6D1CEDB2E7786070F5E7012016E0B8F146
:2025BC00000F01D1032011E002200FE05D46AF4201DC58460AE028460AF0BEFD6178E778A5
:2025DC006D1CEDB201436170F1E705200028A07000F0B180401E70D0401E00F09280401EF0
:2025FC001DD0801E40F095811498FF2804BF1598149084F8330094F833200C2684F831207A
:20261C00D019401E90FBF7F17943401A84F8320012FB0690808BE08607F06EFA87E0002F17
:20263C0008BF5D460BD009F10C0138465D4611F80C2FFE2A03D0401E05F10105F7D1AF42BF
:20265C003ADD0C2084F83C5015FB0090817E84F83D10C07E84F83E0009F07CFBE2782D18A4
:20267C0095FBF2F050432D1AE8B284F83200401C90FBF2F15143401A84F831007C2011F0A8
:20269C0067FCFF2810D17E2011F062FCFF280BD1FF2011F05DFCFF2806D1782011F058FC4F
:2026BC00FF2808BF94F8310084F833000C2110FB0190808BE0864FE0FEE71098129E84F882
:2026DC003200FF2E00F1010090FBF7F101FB07F1A0EB0100C1B284F8311008D11198FF28C1
:2026FC0004D10C20129111FB009005E012901299880000EBC100484484F83310808BE0865C
:20271C0007E1DDF8408008F1010084F8328090FBF7F17943401A84F831005FFA88F00AF0F7
:20273C000BFD6070FE215FFA88F012F041FA584602F0EEFBEDE084F831B0781E594684F824
:20275C0032000C2684F833B011FB0690808B7E21E086584612F02CFA94F83200FE2112F043
:20277C0027FAD6E00C2115FB019706AA0423690313F0FAFF069807F11606010EB1F1960A4F
:20279C0018D1C0F38541C0F3014040EA8100022810D187F819B09DF818003070FF223A76AB
:2027BC009DF81930FB75284610F0DAF8B8836CE0641D00202846594607AA13F055F92846CA
:2027DC00012108AA13F050F92846022109AA13F04BF9DDF818C00CF0FF010CF0FF00FF2966
:2027FC0009D0FE2907D07E2905D07C2903D0782918BF702909D15FEA0B0706D1CCF3854150
:20281C00032908BFBAF1000F1ED028460AF094FC0746002FE068677038D1690306AA042322
:20283C0013F0A2FF2846594607AA13F01DF92846012108AA13F018F92846022109AA13F064
:20285C0013F9069800F0FF0030709DF81900069F9DF81E307070C7F30140F070BDF81C00E1
:20287C004FF6FF718142B37002D1284610F078F8F0809DF822003071BDF8207037819DF896
:20289C0026307371BDF824207281E0683178FF2936D0FE292ED07E2926D07C291ED07829E1
:2028BC0017D0702910D0A52908D0242904D00F99491CC9B20F9127E0159500E014951399C7
:2028DC00491CC9B213911FE00E99491CC9B20E911AE00D99491CC9B20D9115E00C991295D4
:2028FC00491CC9B20C910FE00B991195491CC9B20B9109E008F1010710955FFA87F803E040
:20291C000A99491CC9B20A91E7786D1CEDB21BE66070607817B0BDE8F08F70472DE9FC4752
:20293C00D14C0F460546F80B80F0F6816078DFF83C83B90F80F09C81B90880F08E81F90ACE
:20295C0080F0F980390B80F0C580380907D2F80FC0F01A8227F080470EF0DEFE14E213F05B
:20297C0099FF814612F030FF002800F0AD80082013F086FE002840F0A780802013F080FE17
:20299C00002840F0A18068460BF0C0FF012803D10098002800F0988000250126E8B213F08C
:2029BC00E1FB48B1837A3BB1867290F9090006FA00F0C0B211F090FB6D1C032DEED3032028
:2029DC00207504F1B40013F05FFF484614F018FBCF4800252A460168056050F8081CCD499B
:2029FC0040F8085C04F1380012F03EFE40460068006B8047A168401A010BE069C1F1FF32F9
:202A1C0082422CBF08444FF0FF30E06194F8200020B12069E169B1EBC02F25D912F0E4FE33
:202A3C00294600B13146081C1BD0D44840F6090101804580417B06F00F0221F00F010A4301
:202A5C004273017B05F00F0321F00F0143EA010202732946416013F0E1FC418811F4406FEF
:202A7C00FBD084F82060E56110F032FACA4829460560022012F074FC022011F007FF11202D
:202A9C000AF032FA207818B96068483013F014FFC248007810B90E200AF026FA94F82100F5
:202ABC0020B184F82150052011F0F0FEBC48A0612575B4F98C00B4F98E10884214BF022046
:202ADC0007200DF0EDF802E0484614F099FA27F0080741E720B1042011F0D8FE00206070C0
:202AFC00656811F0DDFA38B12846ED696FF4807100224FF00073A847E06858B14046006812
:202B1C00006B8047E2686168801AC860000BC8600026E660A34904F13800002212F0A4FD15
:202B3C000221A06F217518B104F5807013F0D6FE27F4006710E713F0ADFE064612F044FE71
:202B5C00216F0028894600F0828000297FD09649042504F138000022257512F085FD30467D
:202B7C0014F04EFA04F1B40013F08EFE40460068006B8047E0604FF0010884F801802846A2
:202B9C0011F09CFED9F810006060D9F81000416AC90803D3036A29460022984740460EF049
:202BBC00D1FF606880F81580606807F0E9FB6568D5F808A040F60A02D01F564600F1010CA4
:202BDC0000E01E46736833B119888A4203D0884218BF8C45F5D100217160727B08F00F0375
:202BFC0022F00F0213437373D9F80C201288904224D06046904221D02B8E03B3696305F163
:202C1C003002518095F83C0001F00F0320F00F00034385F83C3095F83D0008F00F0320F097
:202C3C000F00034385F83D307260707B01F00F0520F00F0045EA0001717300E0E16050468D
:202C5C0013F0ECFB5146404612F08AFB02E0304614F0D6F927F4806796E007F077FEA06FAC
:202C7C0008B927F002078FE0F02200208C0100104E4A116841F08001116020B1042011F0EF
:202C9C0005FE0020607013F005FE8246D8F85400016804208847D0B1287DC0B1A068B0B1D7
:202CBC008146D8F800002E69006B8047A0EB09002861000B2861B04202D2801940082861B7
:202CDC0040F6C41181422CBFB0F5967F2961504614F096F911F0E4F978B1EE6928466FF483
:202CFC00807100224FF00073B047206F002808BF47F0020701D00EF00FFD2846AD690021BE
:202D1C004FF080630A46A84727F000573CE0C046141004408522010013F0BCFDD4F8886026
:202D3C0076B306F1280106C90A234FF0E0450B40154008BF002B23D106F1280191E80003AC
:202D5C0006F1280595E8060006F1280322EA090221EA080183E8060014F052F9B16889B150
:202D7C00B9F1000F08BFB8F1000F0BD03069B6F93010B5684B464246A84703E074310020CF
:202D9C0014F03EF927F4804727B104F58070394613F0A4FDBDE8FC87000004607AA201006D
:202DBC0081BC0000D9B40000C5570100CC2108402DE9F04F0F46780689B027D5DFF8F8238C
:202DDC001078002114F018F904001FD0DFF8EC0301688847054613F011FB6168884204BF78
:202DFC0040F2014014F004F900202072201D0CF035F8DFF8CC130A6828469047204610F058
:202E1C008FFEFF223C21204614F0EEF8B80604D507F04DF887F02000CAE1F8070CD513F043
:202E3C00EDFA30B100218160DFF89803006800B1804787F00100BBE1380704D509F059F9E3
:202E5C0087F00800B4E1F8060FD500210022002306910592049103930291019200910220C8
:202E7C0014F0BEF887F01000A2E1B8070FD50021002306910591049103930291019100917D
:202E9C0001223C2014F0ACF887F0020090E179074FF01E08CC4EDFF834A340F1CF80CC48C4
:202EBC000022002108920791007814F0A5F80446C8488178FF2904BF002011F055FFA07A9B
:202EDC0013F00AF905469AF8000095F82E91002805F5947B69D0606D807A022818BF03284A
:202EFC0007D130680D3014F077F810B93068C11D07915946484614F06BF8A0B3606D807C0F
:202F1C003368002818BF012804D11946584614F05BF804E05A464946184614F0E9F8FF282C
:202F3C0043D018FB00F83068404406225946C01D13F022F9306810F80810404400F1010B40
:202F5C00C01D41F0020908900622616DC87A00F0010085F82E01606D00F10C0105F5947006
:202F7C0013F00AF921E05946484614F029F8E0B130685A46494614F0BBF8FF2815D018FBAE
:202F9C0000F8306840440D3014F026F858B9306840440D3014F020F8002801BF3068404418
:202FBC00417F012901D149F0020905F12C004B46017806914289120905920122698C049108
:202FDC00C0880899029140080390CDF800B0079801900020A97914F003F8D5F89C017E4967
:202FFC008842A8790CBF0021012113F0E5FF7B49AB790A6838204343134401225A70AB7935
:20301C000C68434323449A70AB790C6843432344DA700C68AA79231D424301249C54AA79C6
:20303C00096810FB02F00844002141710122A97907200CF05BF987F00400B9E038060FD5F5
:20305C0000210023069105910491039302910191009101223B2013F0C3FF87F08000A7E041
:20307C00F8045DD55E4930680C680D3013F0B4FF002844D13068C11D0D3013F099FF3EE0B7
:20309C00606D4178480704F13E0526D5287802281EBF03286878012830D16978306804F1C2
:2030BC00380214F025F88146B9F1FF0F15D0306818FB09F948440D3013F08EFF68B9306876
:2030DC004844C11D0D3013F073FF30684844C11D062204F1380013F04FF82878022818BF76
:2030FC0003280BD130680D3013F076FF30B93068C11D062204F1300013F03EF82468002CC3
:20311C00BED13848DAF8042000784FF4805110F007FA10B18E2013F047FF87F4805047E0D7
:20313C00B80505D513F05EFA2F4901200860FEE7780504D50DF01BFA87F4806038E0780444
:20315C0005D5812013F030FF87F4804030E0B9042DD5264C206810B1002011F005FE4FF07E
:20317C00FF3020600020224C0CF07CFB216851F8202F684690471F494A6B086BC96A24688E
:20319C001D4B019200900293ADF810106B461B4A1B491C4803921C4A079225681B4AA847DB
:2031BC001B49086004F0DEFA87F4005000E0002009B0BDE8F08F00BFD50F0020401C002074
:2031DC00441C0020480F0020680F0020880E0020D70F0020780E00204DE50110E831002067
:2031FC004C0F0020C70F00207C052043380F0020200F0020C41D0020F963010009640100DC
:20321C0074210020280800201EFB0080EC0A00201C0F00202DE9FE4307460025B978DFF8C2
:20323C00346410293CD8DFE811F0110002020202020202023C0048000202020265018E0024
:20325C007900B60102023B017C01FA017878002826D113F0A5FE044613F09EFE064613F07D
:20327C0097FE8DF8000022461021022011F046FF32461021032011F041FF6A460121042014
:20329C0011F03CFF9DF80000012818BF032807D1012013F079FE02460621062011F02EFFE0
:2032BC00C5E178780028FBD1F8783B7B7A89391D00F00100FCF724FFB9E1B888FDF706FD11
:2032DC0013F05EFE0028F7D1307C012808D1FDF7B8F9F06935740422002112F057FF17E098
:2032FC00707C012803D1FDF74DFA757410E000240AE0F069E7B2C15D012904D1E0B2FDF712
:20331C00B1F9F169CD55641CE0B2B1798842F0D3502012F099FAFDF73FF988E113F02CFEDB
:20333C0000280CD0706900281CBF0468002C07D0386900907B7B3A7B7989F81CA04775E1F3
:20335C007889012168E178780024002840F09180B879C10740F18D800822002101A812F03B
:20337C0015FFB88813F0C0FE04005ED07D69002D00F065810622002105F1110012F001FBB3
:20339C0000B306220021284612F0FBFA002818D1287C00F001084FF0000909F1010985F839
:2033BC0011900020009000230022414605F111000AF016FA00285FFA89F040F03B810028B5
:2033DC00EBD13AE17D69EDB1287C00F001008DF80A00062205F1110101A812F0CDFE6079D3
:2033FC00012805D10622A11D04F10C0012F0C4FE062205F11101A01D12F0BEFE287C40F088
:20341C0002006071B879410720794CBF40F0020000F0FD002071B879010720794CBF40F0E3
:20343C00200000F0DF00207106E0FDF771FC18B13078042109F028FCB9799DF80B00890893
:20345C0001F0010108438DF80B00B9790A074CBF0821002108438DF80B00394601A8FCF7F4
:20347C0086FF0400B88802D1FDF7E2FB01E0FDF72DFC706900281CBF4368002B0FD07A7842
:20349C00B888012198477878002808D1B879C10705D57369B88822465C680321A047C5E013
:2034BC00787806281BD1B88813F01EFEB8B1B17B012904D013D3032907D00CD30FE0417983
:2034DC00B8880022FDF779FB09E00022002140F2094002F08DFDB888052113F049FD70695B
:2034FC0000281CBF4368002B03D07A78B888022198479BE000950023F97801AA01F001018E
:20351C00381D0AF06DF90028F3D19DF8043006204343253307F10C020421D8B211F0EEFD80
:20353C0084E0706900281CBF4368002B03D0B888002200219847707810B9B88805216BE0C2
:20355C00B88813F0D1FD040071D0B87AC10712D5009500236179002201F00101A01D0AF0BA
:20357C003FF900281EBF60790028012803D0F868C0F3402028B1307B022807D1B87A0107C2
:20359C0004D4B888032113F0EFFC50E06179B88807F1080228E0BD8897F80C80284613F0C0
:2035BC00A3FD040042D013F0E7FC00283ED100900023617901AA01F00101A01D0AF010F931
:2035DC0028BB9DF80400FCF7D3FF08F00C01042911D008290BD00C290FD100F0090109292E
:2035FC000BD0617900222846FDF7E7FA1EE010F0090102D1F5E7C107F3D501220092A37C7A
:20361C009DF8041002462846FDF77CFA0EE070780028E6D10521284613F0A6FC06E0FDF7FD
:20363C0077FB18B13078042109F02EFB01252846BDE8FE8300287FF4C5AE0020786106225B
:20365C00607900F001008DF80A00A11D01A812F093FDD7E69C1A00202DE9FE4F0546DFF8E4
:20367C00BC03DFF8BC630278002A44D0052A52D0062A54D0072A18BF082A00F0CC80112A6B
:20369C0040F0C481DFF89C331878002113F0B4FC0446606D407810F00C0F2CD0216DC00655
:2036BC004CBF886CC86E0622016801F10805A91C684612F061FD287800F00F0105291AD19D
:2036DC006946C0F3801013F083FC002813D03168684613F079FC0546316804F1380013F07C
:2036FC0073FC85420DD0606D4178C80604D440F2014013F07DFC8FE1607B40F00200607330
:20371C008AE133681E204543581906226946C01D12F032FD80E1012013F022FC7CE1C24D5C
:20373C00286813F019FC0400F8D020790328F5D1207A00F00F01072937D1BC480068416987
:20375C00497A4A1E11425ED0617A04F10A035A5C02F03F02252A56DBA17A8A09012A52D15F
:20377C0011F03F0F4FD0007C12F0B6FCE17ACA074CBF04F1110204F10B028B0748BF921D06
:20379C000B0748BF921CC90648BFD21C1621127852094A43A6498B180A31EB608A5A428615
:2037BC0099898186DA89C2862DE000F00F00082829D1A17A880926D129B39C480168087C93
:2037DC0012F08AFCE17A074688071CD5062201F001015143601800F10C01684612F0CCFC80
:2037FC00207AC009FF280ED0694613F0F1FB50B1306800F10D01684613F0AAFB18B90521C2
:20381C00384613F005FC207903281CBF002011F0ABFA286838E0DFF81C9299F80200FF28BE
:20383C0034D012F059FC804608F16C07786813F093FB01900179032901D0280026D00198AF
:20385C007D4A836893F800A00AF00300009038215FEA8A6008D5146898F8060004F10A0C5C
:20387C00484301240CF80040009860B1146898F806C004F10A0011FB0CFC84442C009CF822
:20389C00000004D018B9786813F05EFBC4E05C7803F1020B98B11BF8010B00F01F038CF8B4
:2038BC001A30800998F80630126811FB03F1114481F82500404606F097FB002DE6D100985C
:2038DC00032808F2171519D0A4B1387868B108F1F400017801290DD1504A1178072904D0DF
:2038FC00082904BFC078012804D13D2101206970287091E051490A78012AFAD098F89400EC
:20391C0078B3241FE4B25B462246514640460CF051FB00281EBF4A490878002807D10120E0
:20393C003D2128706970306813F00AFB74E0454801688847064698F80610D9F804204FF4B9
:20395C00D07041435018002280F8412108F59E700168807949080CF057FD3B490A683046A9
:20397C0090470198002181600098032819D03748416909788A0709D541690878C1074CBFF7
:20399C000320002000191BF8000000E0812038722246009B99F80200DBB2594605F074FD49
:2039BC002CE09BF800005FEA8A6103D51B2804BF022C01241C2803D225490B5C9C4205D046
:2039DC00A8700721404613F0B7FA14E01348017808295946404607D112F058FF58B9594652
:2039FC00404613F0A5FA06E000F034F818B95946404613F099FA58460EF0E4FE786813F094
:203A1C00A3FA0199404613F08BFA05E0002011F0ABF9862013F080FABDE8F78FC80F002056
:203A3C00680F0020D50F0020BC0A0020540F0020E0070020780E0020E8310020D20F00207F
:203A5C006E320020401C0020441C0020A4A4010044A501002DE9F84185B0044611F801CBB8
:203A7C0000203822BCF1030F04F5A47704F1660504F1F406DFF81883C64B00F0B380BCF13B
:203A9C00070F00F06381BCF10F0F0CD0BCF1110F00F00E81BCF11A0F00F01F81BCF11B0FF0
:203ABC0000F0448171E1707A820703D40F2184F8191157E008784A7800EB02233B8088787F
:203ADC00CA7800EB02237B8008794A7900EB0223BB808879CA7900EB0223FB80087A3872F3
:203AFC004A7A887A02EB00237B81C87A0A7B00EB0223BB81487B8A7B00EB0223FB81C87B2E
:203B1C000A7C00EB02233B82487C8A7C00EB02237B82C87C0A7D00EB0223BB82487D897D7C
:203B3C0000EB01229C48FA8201788A0658BF1A2212D504F5AA70049079890391387A029037
:203B5C0021890191F8880090BB887A883988204613F0DEF970B11E22707A410708D40F2019
:203B7C0084F81901204613F0CFF9002837D1D6E00F21C3E004F18600798881800023BA88C7
:203B9C00C2800222F988018102704380A18EC91DE983628E8188B1EB520F02BFC188A28EBA
:203BBC00914202BF0089E18EB0EB111F18D0287C012804BF687C0F2805D0687D18B10F214C
:203BDC00A976FE2170E0FC21204613F0B5F9F8880090BB887A883988A07913F091F9CEE09D
:203BFC00102161E0707AC20709D431781A200129707002D1FF220D213AE00D2154E00020FC
:203C1C002870A87101233371082204F1B00013F073F90146022204F1B80013F06DF904F15B
:203C3C00A80801460822404613F066F907460821404613F05DF904F19C0804223946404646
:203C5C0013F05AF90421404613F052F904F1A00013F04AF904F1980013F042F94F48018833
:203C7C0041F0800101803078012805D1FF220421204613F031F982E06E7C0F2E18BF142ED3
:203C9C0003D00E2E18BF0C2E0DD12F7C204613F01FF90421204613F04FF9012F12BF314690
:203CBC00AE76FD2100E00421204613F045F966E00D783D761A2D4978797666D11868A579B0
:203CDC00811D5543002048551968A37912FB03F20A445072A179787E4FE0A67918680978C7
:203CFC005643064401F01F0516F82D0F890918B17078C840C70705D420221A21204613F08E
:203D1C00E3F83CE0F5701868A37912FB03F20244204682F82F10002107F02CFF78BB98F822
:203D3C0000004FF4804108F0AFFF28E0A179186851430144888908B900258D71A1791868B3
:203D5C0012FB01F281180020487218E009780F2917D01A2919D1A17918685143014400207C
:203D7C008871A1791B6812FB01F2991848721A20F17A01F0FB01F172A1790BF0EBFC012014
:203D9C0003E0717A01F0FD01717206B0BDE8F081C70F0020E8310020200E00209C0F002053
:203DBC00C9480278112A00D070472DE9F84FC74A1078002113F020F904000AD1002010F068
:203DDC00D3FF002010F0D0FFBDE8F24FFF2013F0A3B804F14C0999F8000008B90121E17292
:203DFC00401C89F80000C2B2E17DD9F804608A4229D2D9F808104A7AB17B277E0120A1F1CB
:203E1C00250300FA03F3A7F125018840184322EA000000F007000FF0D9FA2530B073A18B14
:203E3C00B06800EB8100B060607DC1060AD5628B99F80010A08B00FB1121B068A63100EB8F
:203E5C00810030663EE104F1280706F1900806F173054FF0000A4FD1A17F6975E07FA8750B
:203E7C00D9F808205278930710D5E27FD30604D5C91E697500F0EF00A875C6F874A085F8C1
:203E9C0000A00022A97D01F0FE0116E1910608D4F88B00B1F87E2876F88B00B1386AC8F8E6
:203EBC000000D9F808004178CA070DD5F88B00281CBF386A002807D0C8F80000B97EF88B00
:203EDC00814238BF08462876E07FC1060BD5B06B397800EB8100B063A18CA63100EB81005F
:203EFC007067022002E0C6F874A0002028700022E17F01F0FC01E0E0D9F808205278D30774
:203F1C0017D5A87D697D00F0F700891E01F03F0182075CBF891D40F00200420644BF491EA1
:203F3C0000F0BF00A8756975C8F800A085F818A0C8E0401AC0B2009090077AD5009801287B
:203F5C0006F1400B3FD1B06BA18C00EB8100B063A07F00F03F00A0776875E17FA975D9F89B
:203F7C00082053785A0704D5801F687501F0FD01A9750023697DFA7E9BF8000001F03F012A
:203F9C008A18521CC0F3800192B200F0030012F097FF00F59B70A0841E21A08C90FBF1F1F6
:203FBC008AB2A97D01F0FE01204612F085FF85F800A0F88B00B1F87E2876F88B00B1386A6C
:203FDC00C8F800007EE00228B06BA18C00EB8100B06326D1E07FC10706D5687D811F69755A
:203FFC00A87D00F0FE00A8750023697DFA7E9BF8000001F03F018A18521CC0F3800192B2A8
:20401C0000F0030012F05CFF00F59B70A0840022A97D01F0FE01204612F04EFF787FABF889
:20403C001A00797F0098491C081AC0B2012814DD0BE0B06BA18C00EB8100B063797F009865
:20405C00081AE17FCA06C0B207D5A28CB16BA63201EB820171670221297098B3D8F8003034
:20407C0097F81BC0E27FA17F6344C8F8003052084FEA4208D9F808205278530748BF28F089
:20409C000208920748BF28F00808012807D1387F2876C6F874A028F0100885F800A001F0CC
:2040BC00C006404612F004FF00F03F003043687585F81680002208F0FC012046BDE8F84F98
:2040DC0012F0FABEBDE8F18FC80F0020D50F00202DE9FE4F0422FF2101A812F057F8B84946
:2040FC0088780024FF2800F0688111F0F5FF054605F217100178012908BF417800F0B680D9
:20411C0005F1740005F59276817B022904BF05F174018C73F18911B1307B08F0B5FD688941
:20413C00A84F2881FA79BB7A397BF87A97F80DC09B185B181B1805F58D7903EB0C08B9F88D
:20415C0000C0B9F80430C4445B1CA9F800C0A9F8043097F80AC0B9F802306344A9F8023033
:20417C0033683BB3DFF860E2DEF800E00EF10E0ACDF800A04FF01C0A95F806B01AFB0BFA8D
:20419C00DDF800B01BF80AA033F81AB0C34423F81AB00EF10E0A95F806B04FF01C0E1EFB04
:2041BC000BFB1AF80BA003EB4A03B3F84AE0F444A3F84AC0002A08BF002804D1002904BF59
:2041DC00787B002829D02989E8892C744118287FA981012804BF688CE883A979012207200B
:2041FC000BF084F8A246787868B10121297705F174018878002804BF887B002803D1087F9D
:20421C0008B9688CE883307D002837D0022804BFF87A00282ED1347530E0A97907200BF003
:20423C0065F8EC83B87A40B1297F2C7401294FF0010A09D1688CE88306E0B9F80600401C85
:20425C004FF0020AA9F80600A8892989814206D08842C8D2081A41F2AB029042C3DA287C5B
:20427C0008B1052901D0082100E03E21284612F0CFFEA2E0787A08B1022131755348F97BC0
:20429C000068CA070AD52A683969D160143001F59071D160A9794901445011E0AA7900F114
:2042BC0014015201885830614748AB7901681C2001F1080243432968D058C860EC832C773C
:2042DC00434A50690078810702D5B87B802800D1812005F1740651463070284604F06AFDE8
:2042FC0028460AF0E9F802281BD1F079022805DB01AA384928460DF0C5FB0446284612F0BF
:20431C00D3FD012859D020000DD0224601A928460EF02EFA38B928460AF0CEF8012802D1A1
:20433C004BE0012849D00121284612F0B9FD284612F0B2FDFDF732FE01283ED028460BF0C9
:20435C006DFC01F03DFD244FB988386810B1AA79914203D04FF6FD7081422ED11F49087B70
:20437C0012F084F8040028D084F800A0A879608095F83910217195F89601607196F900108E
:20439C00A171A4F80880B9F80200608112F036F8050005D1FF204FF0FF312073216109E0A0
:2043BC002878207312F074FD0146A86812F06CFD80082061204639688847BDE8F78F00BFB0
:2043DC00780E0020980C0020980E00209C0E0020A4A40100AC1E0020800E00208421002021
:2043FC002DE9F84F8AB083460C4600208DF800001646B849C87981061A4602D5B6488178F7
:20441C00880640F163811D98169B199D1E9908B900250CE059B9012B0CBF4FF040094FF068
:20443C0020094D4503DB012B0CBF40252025DDF86880DDF86C90C6461EFB09FE15FB0EF559
:20445C00AFB24FF0600A97FBFAFE0AFB1E775FEA070C18BF4FF0010CE6445FFA8EF70897EC
:20447C00AFB20997ADF81A208DF819408DF818609A4F3A78149CDDF854C0DDF85CE0DDF84B
:20449C0060A01C9E002A72D0ADF860A000279DF800A0ADF81CB08DF850408DF854C08DF835
:2044BC0058308DF85CE01D901E910899F8B2884279DAA8B26028ACBF4FF0600BAB465FFA92
:2044DC008BF02D1A4000203080B210F091FF04004BD0912020703E2181226170A2705FFA0E
:2044FC008BF20998A080A7714B46BDF81C0020819DF81910A1729DF81800E072BDF81A1098
:20451C00A1819DF85000A0739DF85410E1739DF8580020749DF85C10617404F12001BDF8F6
:20453C006000608284F814B004F12000A06184F81580881884F81690E675E061059042463B
:20455C00A0691E9904900391CDF804A000961D989DF8581002905FFA8BF002F05DFD82462C
:20457C005E480078214604F02BFE7F1C9DE78DF868808DF86C908DF870609DF80090DDF821
:20459C002480ADF81CB08DF850408DF854C08DF858308DF85CE0ADF860A01D901E91002647
:2045BC000899F0B2884280F29180A8B26028ACBF60272F46F8B22D1A5FFA87FA4FEA4A00B8
:2045DC0000F1140B0BF10B00C0B210F011FF04007AD001202070FF2104F108026170626075
:2045FC00042010703E22606842708120616881F802B06168C8704FEA2821606880F8048045
:20461C006068417161688E716168BDF81C00C8716168BDF81C00000A087261689DF81900D4
:20463C00487261689DF8180088726168BDF81A00C8726168BDF81A00000A087361689DF8E7
:20465C005000487361689DF85400887361689DF85800C87361689DF85C0008746168BDF8E1
:20467C00600048746168BDF86000000A88746068C77460689DF86810017560689DF86C10F7
:20469C00417560689DF87010817560681E9A9DF86C30039200F11701514405911730049020
:2046BC00CDF804909DF870101D989DF8682000910290F8B29DF8581002F0AEFC8146084821
:2046DC000078214604F07CFD761C69E70BB0BDE8F08F00BF280E0020200E00206732002095
:2046FC00653200202DE9F04FAE4D0020687095F83F10EB7895F83D00ADF12C0D0918491E37
:20471C0091FBF3F25A43891AC9B20691810001EBC0014919B1F84C004FF0805909F5EC76BD
:20473C00ADF8140095F83C1095F83C009E4F0790880000EBC1004019B0F84C80306895F858
:20475C003D4081683846884700F003000890D9F8D801426800213846904730688168384636
:20477C0088470028F9D10021079F68780991A74200F09F808B46D946BBF1010F00F08E8079
:20479C00BDF81410172964DB002840F09380BDF814006A46C01F81B2ADF81410204609F087
:2047BC00CBFFBDF80E70BDF81430F81D07F1100186B2994246D89DF80A00962842D19DF893
:2047DC000B0042083AD2800838D3BDF814009DF80920C01B1FFA80FABDF814003946234623
:2047FC00C01B80B20FF0F2FF10BB08EB0600B0F5005F17DCE868C8F188520AEB443A334616
:20481C00921B514602F5005211F0AEFF09F1010908EB06001FFA80F8B8F5005F08BF4FF0A1
:20483C00010B0BE0BDF814004FF0010BC01D2DE0BDF81400401EADF8140003E0BDF81400DB
:20485C00C01B23E0204605A90CF06CFC01281FD030E0EA78B9F1000F07D0544BBDF81470F4
:20487C00A10001EBC401C9188F830699A14220D04E49641C94FBF2F05043241AE4B2A000D6
:20489C0000EBC4004018808B4FF00009ADF8140007996878A1427FF46FAF0AE0B9F1000F52
:2048BC0007D0424ABDF81470A10001EBC40189188F8320B1089811F02BFA10206FE04FF6E0
:2048DC00F0704FF40051C8EA0040C8EA01414FF01009E1FA40F087B21FFAA0F18A46D7B144
:2048FC00202FACBF20263E1C079849460AF1885233460EF011FB6978BF1BBFB209EB060393
:20491C000AEB0602002F40EA01001FFA83F91FFA82FA6870E4D1089811F0FAF90798A04258
:20493C000FD1E978214F0819401E90FBF1F24A43801AC4B2A00000EBC400C019808BADF848
:20495C0014001A4EA5F84090BDF81400079FA5F84400B90085F83E4001EBC7018919A1F85F
:20497C001C80B5F9422095F83D100123384610F035F995F83E10B5F944200223384610F035
:20499C002DF9BDF814001728BCBF01200990B8F5005F03DB099840F00200099009980BB0E6
:2049BC00BDE8F08F641D002000400340941D00202DE9F84F05004AD09C480078092818BFE2
:2049DC000A2804D00B281CBF0C280D2801D1212029E1A878002112F00FFB040008BF4220A7
:2049FC00F6D0934FA978914A3970107810B9A8789049087004F14806F068417801F0120134
:204A1C00022902BF706900280C2012D0607AF0B1A07B012804D1B5F8030008B1812816DAE9
:204A3C006878402813DA204612F02AFAB06808B90720F8E0B561287801281BD1A07B0028B3
:204A5C001CBF0128042815D17B48007808B91220E9E07A494A78824208BF0920F8D004F137
:204A7C00220004F13801427F802005F0E1FE08B10B20D8E0687808B91120D4E02878DFF8FC
:204A9C00C091DFF8C0A1DFF8C0B1012840F09380207A0021012821734FF00A0811D19BF87F
:204ABC00000040210FF050FBB5F8030008FB00F1402012F0E1F90100DFD1B16968794871EA
:204ADC00B0E001202072E172617308F071FD6060DAF8000080475D4A0146106802E062687F
:204AFC00426000680028FAD10846D9F800108847616857484861002138780EF0D7FD39783A
:204B1C00012211200AF0F2FBF0684178C80605D5204612F0ADF901000BD084E00020608433
:204B3C000AF09CFB84F82100204612F09DF9010079D1F0684178C8071CD504F14207B98892
:204B5C0000291CBF3068002814D03A788A4211D20F2012F085F968B1F06801788DF8001002
:204B7C00B888ADF801000F2039788DF80310694612F072F92D4F3878002853D13549087829
:204B9C0000281EBFF068417811F0030F03D03248006812F05DF91120387001212172B5F888
:204BBC00030008FB00F1402012F066F901003AD101F006F936E0207AA8B3DAF80000804781
:204BDC000546387801210EF071FD9BF8000040210FF0BAFA0020207211F03AFD012804D0A2
:204BFC0011F00CFC6168884212D10FF01FFE40F2014012F0FDF919491948086001219BF8B3
:204C1C00000008F041F8D9F800102846884709E0204612F019F9D9F8001028468847204642
:204C3C000EF07EFF0020BDE8F28F00BFC80F0020D60F0020D50F0020D40F0020780E00202F
:204C5C00441C0020401C0020C70F00204C0F00203D620000880E00206C0F0020480F002064
:204C7C0041E700102DE9F14F82B012F011F9009041F60301BDF808003225401A4FF0FF3B9A
:204C9C000328D9464FF0500842F21077DFF844A2914E6FD91E38012808D9801E6AD0001F21
:204CBC0000F0D580401E00F0028110E18B4A907811F012FA0400F8D0E08E618E90FBF1F74B
:204CDC007068A17950F83110009812F0DDF801462089A279336ADFF808C2DFF808E2032899
:204CFC000EDB814C2468382010FB02F014F80090B9F1010F1EBF201890F82D0001280FD1D8
:204D1C007D436424B5FBF4F47568985C2D1DF14615F83250A54217D2B0B9514529D313E0F8
:204D3C007068041D08FB07F814F83240985C4FF0640BB8FBFBF844454FF0FA6904D218B9C4
:204D5C00DFF8A881414501D3E1460AE0F369985C7D43B5FBFBF5AC4202D208B9514508D328
:204D7C00F146401C032190FBF1F101EB4101401A9854ACE05E480078002112F03DF9040078
:204D9C00F7D0606D007810F02DF9FF280190F0D0BDF8080041F6030188421CBF41F6040174
:204DBC00884207D041F62301884202BF207D8009012802D14FF07A7901E0DFF838913068E3
:204DDC00019950F83110009812F05EF8226E0146B2F80300C0B1636D93F801C05FEACC6E10
:204DFC0008D5A47B012C05D1474340F2E24397FBF3FB09E0D3F80340474324F07F4440F2AD
:204E1C0071204443B7FBF4FB507910B1584538BF8346394881420BD232680198131D6422CC
:204E3C0013F8300008FB0BF3B3FBF2F2904202D309F102094BE051453FBF05FB0BF5642198
:204E5C00B5FBF1F1884242D309F101093FE03169009812F019F8024628480368186A4188EF
:204E7C004FF07A6949B1808838B94F43D9698B8840F27120434397FBF3FB1F498A4207D244
:204E9C00307D08FB0BF36421B3FBF1F1884202D3DFF86C901BE052453FBF05FB0BF56421AC
:204EBC00B5FBF1F1884212D3DFF858900FE0B168009811F0E9FF0D494FF07A79884228BF14
:204EDC00DFF8449003D2504528BFDFF840904846BDE8FE8F81841E001C2F0020780E00201F
:204EFC000200D0070100D007E831002001093D00D50F00200000B80B01127A00500F002092
:204F1C000200A00F0100A00F0200E8030100E8032DE9F04FA44C8246E07894F8315094F83D
:204F3C003290BAF1000FADF1140D0146A1F101018FB218BF01214FF0000884F83F10464667
:204F5C0003964FF0F80B019622E0B1451ED0E06871036A46042311F007FC009911F4403F29
:204F7C0003D00198401CC0B2019001F0FF017C2918BF782909D1304606215A4610F082FDA6
:204F9C000C2016FB004080F848B0E078761CF6B2B042DADC0199401E88425BD0002F04F1BD
:204FBC00300600F0CA8040464FF4005B019094F83F30E06813B9012184F83F106A46690398
:204FDC00042311F0D1FBBAF1000F05D00099E07811F4403F40F09980009800F0FF00702855
:204FFC0003D0284670210FF0E3FDE0684FEA49316A46042311F0B8FB009800F0FF00FE28B1
:20501C0003D04846FE210FF0D3FD48460621FE2210F038FD4FEA8900FF22FE2184F83C90D1
:20503C0000EBC900A4F840B0AB0084F83D50801984F83E20183001700199029003EBC50055
:20505C008019A4F84410808BA4F84200FFF74AFB102801D10020A4E0BAF1000F0CBF102123
:20507C005146BAF1000F07D0B4F84000C0F50050814207DC01200390B4F84000C0F50050B0
:20509C00814201DD782100E07C2148460FF090FD06F060FE054694F83F000621FC22401B19
:2050BC0084F83F00484610F0EDFC0298FC21017094F83210E0787F1B491994F83E500C230F
:2050DC00414491FBF0F24243891AC9B284F83210491C91FBF0F24243891A84F8311015FB98
:2050FC000361898BBFB2102905D1691C91FBF0F24243891ACDB294F83290DDF80480BAF1B0
:20511C00000F17D00398A8B117E06D1C08F1010295FBF0F17F1E94F83F30A4F840B04143F4
:20513C001FFA82F8BFB2581E6D1A84F83F00EDB284F83D50002F7FF43AAF7C200EF008FFC3
:20515C000546FF2D1CD17E200EF002FF0546FF2D16D194F831500C2015FB0060807DFF2807
:20517C000AD0E27894F832008018401E90FBF2F15143401AC5B203E028467E210FF018FD54
:20519C000C2084F8335015FB0060808BE08694F83200FE210FF00CFDB4F84000C0F5005011
:2051BC0000B205B0BDE8F08F641D002070B5864D687911F04BF98549002808600BD000222E
:2051DC00026002730868C2610262A87911F03EF97F490028086000F0F48000220260C27218
:2051FC0000200A681074052308684374002209684A61E87A11F02AF976490028086066D0E5
:20521C00754C21782878C91C10FB01F080B211F01DF972490028886059D0207800286DD05D
:20523C00698811FB00F080B211F010F96C4A002850604CD06B482278017811FB02F080B289
:20525C0011F004F968490028086040D000250AE0E8B211F0ABF8002141808160018002232D
:20527C00037101736D1C2078E9B28142F0D311F0EDF85E490028086029D02078400011F0F9
:20529C00E5F85B490028086021D020781C2110FB01F080B211F0DAF8564A0028106016D0FC
:2052BC002078400111F0D2F85349002808600ED02078000111F0CAF850490028086006D0C9
:2052DC002078000111F0C2F84D490028086078D02078302110FB01F080B211F0B7F8494A96
:2052FC00002810606DD02078382110FB01F080B211F0ACF8444A0028106062D0434D444E7F
:20531C002978307800EB4100C000103080B211F09DF840490028086053D000F1080141605D
:20533C0030782A7800EB4200C000103080B211F08DF839490028086043D000F10801416062
:20535C001E212878401C10FB01F080B211F07EF8324A0028106034D0082011F077F8304D24
:20537C00286070B3062011F071F8296808602968086830B300204860062011F067F8294939
:20539C000860F0B1A02011F061F8274D2860C0B12078C00011F05AF8686090B1142011F078
:2053BC0055F8A86168B10026207811F04FF805F11C0141F8260020B1761C022EF4DB002068
:2053DC0070BD072070BD00BF84210020500F0020540F0020440F0020D40F0020AC31002037
:2053FC00780E0020DE220020EC310020340F0020E4310020980E00209C0E0020A00E002098
:20541C00A40E0020A80E0020E83100206D3200206C3200206C0F0020700F0020680F002041
:20543C0000320020400F00201C2F00202DE9FF477A4C7B497B4E20700A22002008600D2301
:20545C0079484FF40471027043808180774A78481060377877480770FF2F7178417008BF1C
:20547C00FF29B2788270F378C370357905717679467114D1FF2A08BFFF2B10D1FF2D08BF91
:20549C00FF2E0CD16C490A7802704B7843708A788270CB78C3700A79027149794171674943
:2054BC000278674D674E684FDFF8A0810A7043784B7082788A70C378CB7002790A71407935
:2054DC00634A4871FF2028706870A870E8702871687100205F490880F06B5F494078087056
:2054FC005E49F06B0078087013885D485D490380F06BC06C3860F06B90F83C0008705A49DC
:20551C00F06B90F83D000870F06B4069017957484A1E0270F06B5649C07888F80000F06BD3
:20553C008069086008B90FF01FFCF06B5149C069086008B90FF018FC11F082FCF06B4E4958
:20555C00006A086008B90FF00FFCF06BDFF82C91406AC9F8000008B90FF006FCF06B48498A
:20557C00806A086008B90FF0FFFBFFF71FFE07280AD104F02FF820784FF4804107F084FBB9
:20559C0000200FF0F1FB46E03E480168884782460BF09AFAD9F8000001688847684610F0F2
:2055BC0075FFD9F8002004208DF80000694652F8043F00209847344908600DF0F9F9F0685A
:2055DC00324A018898F80000314B014311805046196888470C212F4811F068F9284611F06E
:2055FC002BFC11F025FC2C4800214FF6FF72016082800621387882072848006848BF072131
:20561C0010F0CCFE0121FF200EF050F820784FF4005107F039FBBDE8FF8700BFC70F0020E6
:20563C00380F0020D04F0050700E00203C0F0020B63F0050400E0020E8120050500E0020F4
:20565C00480E0020A4A40100F0310020C40F0020622100209E0F0020C60F0020D40F0020D3
:20567C005E3200206C3200206D320020CB0F0020200F0020240F0020280F00202C0F002093
:20569C00300F0020401C0020F4310020A00F0020441C0020FC0D0020800E00200032002056
:2056BC002DE9F84F0422FF21684610F06FFD914988780024FF2800F01B8110F00DFD05460B
:2056DC0005F217100178012908BF417800F0948005F59276F18911B1307B07F0D5FA6889C9
:2056FC00288105F17401844F887B022804BF05F174008473FB7997F80AC03A7BF97A787B6E
:20571C009C4494448C4405F58D790CEB0008B9F804E0B9F800C00EF1010EC444A9F804E045
:20573C00A9F800C0B9F802E097F80AC0F444A9F802C036681EB3DFF8C4E195F806B0DEF861
:20575C0000E04FF01C0C0EF10E0A1CFB0BFB0EF10E0E1AF80BA036F81AB0C34426F81AB0F3
:20577C0095F806A01CFB0AFC1EF80CC006EB4C0697F80AC0B6F84AE0F444A6F84AC0002B5C
:20579C0008BF002903D1002A08BF002813D02989E8892C744118A9810122A979082009F081
:2057BC00A5FD0026564948690078810728D5B87B802825D025E0A979082009F097FDB87ADA
:2057DC0010B101262C7405E0B9F80600401C0226A9F80600A8892989814206D08842E1D265
:2057FC00081A41F2AB029042DCDA287C08B1052901D0082100E03E21284611F009FC77E074
:20581C00812005F1740731463870284603F0D2FA28460BF0DDFA02281BD1F879022805DB3D
:20583C006A46384928460CF02DF90446284611F0FBFA01285CD020000DD022466946284606
:20585C000CF096FF38B928460BF0C2FA012802D14EE001284CD00121284611F021FB2846FB
:20587C0011F01AFB00F0E6FE012841D028460AF0D5F900F0A5FADFF890A0BAF80410DAF884
:20589C00000010B1AA79914203D04FF6FD7081422ED11E49087B10F0E9FD040028D026708C
:2058BC00A879608095F83910217195F89601607197F90010A171A4F80880B9F80200608104
:2058DC0010F09CFD050005D1FF204FF0FF312073216109E02878207311F0DAFA0146A8684D
:2058FC0011F0D2FA800820612046DAF800108847BDE8F18F780E0020980C0020980E00204A
:20591C00A4A4010002220020800E0020842100202DE9F04F0646984CF08994F833504FF01F
:20593C00FF0A002742F2010BADF1240DC01D1FFA80F8E07808910AE0284678210FF038F98C
:20595C00E0786D1C95FBF0F141436D1AEDB2B84228DD94F832007F1CA842BFB2F0D0E06874
:20597C00690305AA042310F0FFFE059800F0FF007828E5D004F13009FF2818BF7E2803D145
:20599C0028467C210FF014F9A80084F8335000EBC5004844818BE186808B40448345CBDD7F
:2059BC0094F833A0BAF1FF0F08D14046FFF7B0FA804503DD607800B90520D9E0607894F83C
:2059DC003370B0B9F588307AADF80650E18EB5888DF808006A4603233846ADF8045005F002
:2059FC00E5FA9DF81000BDF80C50307494F83370B581E068E58E790305AA042310F0B4FE2E
:205A1C000598B84600F0FF0100F0FF007E2806D140467C210FF0CCF8059901F0FF017C2959
:205A3C0040F0A380F0895A46C11D8FB2E9198A4240F39980F288337A11128DF8192063F347
:205A5C009F01B3888DF818109A1003F0030106468DF81A20C0F3851200F03F0342EA8112BB
:205A7C008DF81B20990072198DF81C10F31D1FFA82FA98B20D282DDBDDF82090314600222B
:205A9C00484610F0BBFD0246052106A810F0B6FD9DF81C10334600F03F0641EAA0114A46FA
:205ABC00B0008DF81C1040F0020096268DF81D0029468DF81E6040460DF02EFA06465146D9
:205ADC0006AA0723404666700DF026FA304360704DD135E0089904F12400324608F064FF54
:205AFC0006A90A68301900F12409484609790260731D0171002204F1240099B210F07EFD8D
:205B1C009DF81C10962300F03F068DF81E3041EAA011B0008DF81C103B4640F0020006AE43
:205B3C0049468DF81D003268B0790A60B288887140468A8004F1240229460DF0EDF96070EB
:205B5C00E18EED194FEA8806AAB2C919E18606EBC8010919A1F84C2048B1404651460DF054
:205B7C003DF8607803E0052000E001206070C0B209B0BDE8F08FC046641D00202DE9FE4FCA
:205B9C008A4C617811B900200FF0EEF811F080F906464FF0000806F6C4160027844DDFF8B9
:205BBC00149211E0384610F097FA417951B12A68817902F8081008F101015FFA81F8314685
:205BDC0011F02EF97F1CFFB299F800008742E9DB6178884505D000200FF0C6F8822011F01C
:205BFC009BF96078012840F0C480002701E07F1CFFB299F80000874280F2B580384610F0AD
:205C1C006BFA064670790028F1D02968B0790A7890421CBF00200FF0A7F8B079A1E0286804
:205C3C0010F8090010F058FA00684068DAF808108268914204BF3E4609F1010900F0A780CC
:205C5C00A9E0286890F800B001224FF4D0710FE0636803F5B176835C11FB03F901FB0BFE6B
:205C7C0036F809C036F80E60B44538BF9B46521CFBB29A42ECDB4FF6FF7011F0CDF8064620
:205C9C00584610F029FA4C490068D0F804A00868D94630F8192060684FF4D07300F10E0180
:205CBC0003FB09F3C85AB2EBD00F53D2720840F6C410424300920027404A0190029218E0A2
:205CDC00584610F009FA01680A78802A03D1DAF81410009A4A6101680B78402B08D1029998
:205CFC0080790A6802EB4011009800F5A060C8617F1C47452EDA2868C05D8345F8D0014676
:205D1C004FF4D073594363685A1803F5B173D289595A53088B4202D2521A9045E8DA10F0DF
:205D3C00DBF900684268DAF808009168019B7208A1F6C41103FB020011F06AF80028BFD0F2
:205D5C001D48006830F81910491C20F81910286810F807B01848026800215B4622F813104B
:205D7C005846BDE8FE8F00200EF0FEFF822011F0D3F8617828680AF016FF2868007810F02E
:205D9C00ABF900260068D0F804A04FF00109771CC145FFF644AFF6B2002E1CBFF8B20028FC
:205DBC007FF44FAF286890F800B064E7780E0020340F0020D40F0020E43100209C0E002038
:205DDC002DE9FE4F854D6E681EB9BDE8F74F11F01BB83078DFF808B2824FDFF80C9201285E
:205DFC001CBF0228042841F64C5804D0402818BF802874D0EBE010F02BFC0028FAD03078F0
:205E1C0004F084FC824610F0FBFF044699F8010000283DD0FFF7B2FE10F05EF90190016828
:205E3C0000914E6894B1504607F020FC02280DD09AF800100129DDD118B911F029F8404419
:205E5C00A0600120A8701121397046E00098017880290BD10820654938700A787069012A52
:205E7C001ABFDBF82410097801210AE007205F4938700A787069012A0EBF0121DBF82410A6
:205E9C004978C17201988179009889F802109AE0BAF1000FAED09AF80000564507D1012854
:205EBC0001D1D4B998E000200EF05EFF15E00128A0D1002CF6D010F0EBFF0146A06801F5C4
:205EDC00C241A83110F0A4FF18B910F0E1FF4044A060112038700121A970504673E099F864
:205EFC000100002856D0FFF749FE10F0F5F88246DAF800000190466899F8020010F0ECF8BD
:205F1C00029010F09FFB10F0070F1FD0A87804F0FDFB009010F074FF040017D00199009808
:205F3C0007F0A4FB022811D000990A78012A0AD118B910F0ADFF4044A06011203870012187
:205F5C000098A9703FE000200EF00EFF029850451ED0019925480A78802A0AD1082139702D
:205F7C000078012870691ABFDBF824100978012109E007223A700078012870690EBF0121E3
:205F9C00DBF824104978C1729AF8060089F80200019818E010F056FB10F0070F1CD0A878CB
:205FBC0004F0B4FB064610F02BFF04463078012812D18CB110F06CFF4044A060012111202F
:205FDC003870A9703046BDE8FE4F06F0F1BFBDE8FE4F00200EF0C8BEBDE8F78FAC31002018
:205FFC00A4A40100C80F0020780E0020CC0F0020F8B5144600254FF48067864EC21B84B069
:20601C0006F184032AD0921E2FD0521E34D0521E39D0521E3ED0521E42D0521E58D0921E08
:20603C005BD0D21E00F08780521E00F09280921E00F09B80521E5BD0521E00F09D80521E7D
:20605C0000F0AB80521E00F0AE80521E2FD0121F00F0BB80921E00F0BF80CDE001296BD1BE
:20607C002078022868DC7070D0E0012964D12078022869D2B070C9E001295DD1207805282C
:20609C0062DAF070C2E0012956D1207802285BD27072BBE010294FD1102221465E4814E05D
:2060BC00012949D1207802284ED23071AEE0012942D12078022847D200287071F6D0012067
:2060DC007073602206F12401184610F055F89DE0012931D12078B07298E000292CD110F077
:2060FC004FFF10B9FAF7ADFA18E0012030748DE0072921D10622611C02A80FF045FE009563
:20611C000023217801AA02A807F06AFB88B910F037FF40B99DF80400FAF7A4FA05465020A3
:20613C000FF092FB1EE0F1699DF80420012088546CE034256AE001295CD1317B20780229F4
:20615C0003D0C11F0A2902D354E0102852D1F0725CE001294ED1F17B2078F073002908BF9B
:20617C00012853D1FAF718FA50E0012942D1207803283FDCB07349E001293BD12078022824
:20619C0038DC002836D03073022803BF1020F0720120002010F030FE38E001292AD120783C
:2061BC000FF09AFC32E0707920BB602907D10CB36022214618460FF0DFFF012003E00129E6
:2061DC0018D1BCB12078707320E0012912D18CB120781249087019E061B910F0D1FE30B952
:2061FC00FAF7D0FA054650200FF02EFB0EE0012070740BE0182509E0092806DA022904D1D0
:20621C00218810F039FF054600E00225284605B0F0BD00BF9C1A0020502F00207032002069
:20623C002DE9F84F7F4A82461078002110F0E4FE9AF80010044601291CBF00200EF094FD29
:20625C0014B900200EF090FD04F14C0B0025DBF808004178DBF80460C8064FF47A674FF03D
:20627C000B0841F64C5929D506F1680005808570C57005714571C58005818572C572756706
:20629C00A07B012819D010F003FEB168484410F0BFFD002811D010F0FBFD4844B06010F0B6
:2062BC0068FA0B2290FBF2F2B16808FB12081FFA88F007FB0017B76027617CE006F194005E
:2062DC0005808570C57005714571C58005818572C572C6F8A05010F0DBFDB168484410F0A3
:2062FC0097FD88B110F0D4FD4844B06010F041FA0B2290FBF2F2B16808FB12081FFA88F0AA
:20631C0007FB0017B760276106F14007607DC1064FD5307CA27D521CC0F38001002392B2CF
:20633C0000F0030010F0CCFDA0831E20A28B02F59B731E2193FBF0F001FB1030C0B208B1DE
:20635C00C0F11E008C46801800F59B7002F5967293B293FBFCFC01FB1C316083A283C9B252
:20637C0009B1C1F11E018A18A28392B2E17D491E4A4312FA80F06083618BB068A63100EBF4
:20639C00810030660220F877618BB06800EB8100B0633878012802D1B06B0C30B063A18C73
:2063BC00B06BA63100EB81007067022086F8730001E03566FD776168DBF804001A4A8A619A
:2063DC004860DBF808205078C3065CBF102088615078830703D5886940F400208861507819
:2063FC00430703D5886940F4000088610F4B187800281CBF507810F0030F03D0886940F492
:20641C00802088618BF80050DBF80810087E10F0300F04D05046BDE8F24F0BF0DDBCBDE8CB
:20643C00F18F00BFD50F002002000080880E00202DE9FE4FDFF8D4B19BF80000401E0328EA
:20645C004FF0010808D9103840F0DA80704B1878002110F0D1FD044614B900200EF084FC36
:20647C00606D6C4F41786C4EC806216D4CBF886CC86E0622016801F1080909F1020101A83A
:20649C000FF07AFE99F800201E2502F00F01C2F3801003298DF80000DFF880912CD101A9EE
:2064BC0010F096FD002826D0606D807C012818BF032820D1316801A810F086FDFF281AD054
:2064DC0015FB00F53068425D4019411C386810F08FFC99F8001088420DD030684019C11D6C
:2064FC00386801AA10F080FC30684019062201A9C01D0FF041FE76E002F00F00052872D114
:20651C009DF800004FEA521A01A910F061FD78B3316801A810F058FD616DFF2820D0897C71
:20653C00022918BF032915FB00F50AD13068425D4019411C386810F05BFC99F800108842E2
:20655C0051D030684019C11D386801AA10F04CFC30684019062201A9C01D0FF00DFE23E0EF
:20657C004878C10646D5607B40F0020060731BE09BF80000022836D19DF80010306801AAD6
:20659C0010F0B6FDFF282ED015FB00F5306841194A7F012A04D00D30401910F01DFD10B3D5
:2065BC0040F2014010F024FD606D4178C80621D51B498878410606D55FEACA7003D4206D74
:2065DC0041F20A4102E0206D41F204414180418341861448144A0180144815491160012166
:2065FC00007806F051FB606D4178C80602D5216D886C01E0216DC86E01680020087101E090
:20661C004FF000084046BDE8FE8F00BFC80F0020D50F00206C0F0020680F00206C320020B5
:20663C00C00C00209A0F0020480F0020C70F0020398B00102DE9F8437A4CA178FF2904BF2D
:20665C0000200EF091FBA0780FF046FD044604F5C9752089411C61812A78012A02BF698832
:20667C00401C814207D16A792A71002028701346A17906F0D7F904F1820704F12E06387841
:20669C00012802BF60897988884230D104F18601204610F0C9FC6189E0894118A181F8884A
:2066BC00B1883A8900EB0108B8898A4204BF3189884202BF7B89F1888B4207D000090090FF
:2066DC007B89A1795208002010F0AAFCB088A4F864013989B1807889F080B989318138791E
:2066FC003070204610F098FC0221397001E0B6F804802068DFF83091C168016140F6C41749
:20671C00C16807FB0818C0F80C80C0F80880D9F80010A379C0684FF01C0801F1080218FBF7
:20673C0003F3D050A079D9F8001018FB00F001F10C020C31135C03F0F00343F002030B5401
:20675C00D9F80000A179821C18FB01F100235352287908B90EF008FBD9F80000A27900F187
:20677C001001287918FB02F240088854A079D9F8001018FB00F00844002141742879042834
:20679C0014D1A079D9F8001018FB00F001F110022D7A135C103143EA85030B54A279D9F8A0
:2067BC00000018FB02F2024420205074A079D9F800101E4A18FB00F00844002141821C4972
:2067DC001368086BA579006803EB451CB38843436425B3FBF5F56F43A7F596671548CCF88C
:2067FC0014700378012B06D11068A17900EB41120120D07206E0486A1168A279007801EBB8
:20681C004213D872A079D9F80010226818FB00F801EB08005060204610F0F6FB0020BDE86E
:20683C00F28300BF780E0020980E00209C0E0020A4A40100CC0F00202DE9FE4F9B461546EF
:20685C008946824610F026F87B490190F83908680CAF504508BF4868744C6FF0010828B1A9
:20687C0080300FF05BFD002840F0D0800EF066FD061C00F0D58004F1B40010F005F80023BC
:20689C00B4F98C00C6F80C90401C86F832306FF31F30A4F88C00C6F808B0B4F88C003086D0
:2068BC006348C6F810A097E80C0020210027B8461940104006F1180383E80300424686F883
:2068DC00332006F1200383E88001E8683064287C86F8440028687063287986F83800A8682F
:2068FC00F0636869B064A869F0642F7C27B9EF6817B1012086F844002F795FB999F80C00F5
:20691C0000F00F00022805D1012086F83800D9F808007063484608274568002D18BF002F3C
