:20000000003C012019EE000039FB021039FB021039FB021039FB021039FB021039FB0210D8
:1C00200039FB021039FB021039FB021039FB021039FB021039FB021011FB021002
:20003C002DE9F84FDFF8B454A9780024FF2904BF002011F0E1F8A87812F060F9054605F182
:20005C00680605F5C9773168086805F1900808B1EC8311E0B07B002804BFB07E00280BD1E4
:20007C0098F80010002904BF3878002804D1287F012804BF688CE8832989E88B4118491C56
:20009C006981284613F080F801281EBFDFF850040178012903D12989EC83491C69814FF614
:2000BC00FF79B07E01280DD1B28B6989288913F067F838B1298968894A1C93B298422FD025
:2000DC00B08B23E098F8000001280FD1B8F802206989288913F054F840B1298968894A1C6F
:2000FC0093B298421CD0B8F802000FE03878012816D17A886989288913F042F880B12989B3
:20011C0068894A1C93B298420AD0788892B2904206D04844688180B213F02EF84844E883C0
:20013C00387801280ED128897988401C80B2884208DB7C793C71002038702346A9792246A1
:20015C0009F0C8FD05F59A71087920B128890021401CE983688105F12E08B07E012845D152
:20017C002A89B08B521C92B290423FD1688105F18601284612F0FCFFB08C68840021297727
:20019C00E983E88969894118A981B08B298912F0F3FF8146B8F80410308C728C01FB0909BD
:2001BC00F08C8A4204BFB8F80810884202BFB38CB8F806108B4207D000090090B38CA97922
:2001DC005208002012F0D0FFB07F88F80000718CA8F80410B08CA8F806002846F18CA8F8EB
:2001FC00081012F0BDFF0220B07601E0B8F80490EA8BDFF8F0C2501C00FB09F040F6C4192F
:20021C0009FB00F100912B68D3F80CE07144D960DCF800E0B4499EF800A00B884FEA9A1A9D
:20023C00BAF1030F17D1DFF8C4C29CF80FE05FEACE7C48BF00230ED45B1C1FFA83FCBCF1C2
:20025C00010F11BFB5F812C005F59A7EBEF806C00CF2DC5C01E0B5F812C00CFB00FC4FF4B9
:20027C00C87EBCFBFEFC0CF1010CC5F814C00B80A86185F820204FF01C0BDFF874A2AB7908
:20029C00DAF8000000F108021BFB03F3D1582A68116100F10801AB79D26868691BFB03F307
:2002BC00121ACA50DAF80000AB7900F108021BFB03F3D1582A68916000F10C02A9791BFBFC
:2002DC0001F10C30535C03F0F00343F002034354DAF80010AB798A1C1BFB03F30021D15274
:2002FC00387908B910F088FFDAF80000AA7900F1100138791BFB02F240088854A879DAF820
:20031C0000101BFB00F00844002141743879042814D1A879DAF800101BFB00F001F11002BA
:20033C001031135C3A7A43EA82030B54AA79DAF800001BFB02F2024420205074DAF8001001
:20035C00A87901F112021BFB00F0002111526949A8790A6802F114034FEA401C143253F85B
:20037C000C00AB79D5F814C05B0100EB4C00D050B07E02280DD10A68AE7902F1140376018D
:20039C0014329859AB7998F800605B0119FB0600D0505648C27BD0075CD5DAF80000AC7986
:2003BC0000F108031BFB04F408301A59AB791BFB03F3A2F5A862C250DAF80000AC7900F1A1
:2003DC0008031BFB04F41A592B689A600098121A1A610868AC7900F11403640114301A59F0
:2003FC00AB795B0102F5F662C250387904280BD10868AC7900F11403640114301A59AB796A
:20041C005B0102F56162C2500868AB7900F114025B01D058C5F834016427374A0B68106B8D
:20043C00AE79006803F11C04B8F804304343B3FBF7F7760109FB07F0A0F59660A0512F4892
:20045C000378012B30D10868A97900EB41120120D07230E0042C0BD10868AC7900F11403EC
:20047C00640114301A59AB795B0102F56162C25038790A68AC7904280CBF4FF4AA504FF439
:20049C00E66002F1140364011A59101AB8F8042009FB02F2A2F516729042BDD3082128460A
:2004BC0012F05AFE012016E0506A0968AA79407801EB4213D872A879DAF800102A681BFB73
:2004DC0000FB01EB0B00506007210D480170284612F03EFE0020BDE8F28F00BF780E002019
:2004FC00D10F00203C0F00206E2C0020980C0020980E00209C0E0020B0640100CC0F002057
:20051C00C80F00202DE9F04FCA4C05462078ADF15C0D032840F03E824FF0000B6846182226
:20053C0084F800B0082384F801B0594612F0F6F96846594610F026FD20612E22594604F1B6
:20055C0030000CF0E3FC04F130008146FF210A220C300CF0DBFC10F0B5FD294658460FF06F
:20057C009DF904F11801E06012F0F9F9206AE169B1FBF0F2D7B284F83070022FC4BF0227A3
:20059C0084F83070E770B0F5005F04D1E068B1EB473F00D310B901202070FDE1FF2184F8C2
:2005BC003310D846CDF828805D460B950C950D950E950F9513950A461092119212921492FD
:2005DC0015924FF40056E68659461691AF4200F30B81139E002E3AD10F9E002E28D1B8F136
:2005FC00020F25DA0E98022822DA0B9802281FDA0A9887421FD00E9E9EB9B8F1000F0ED149
:20061C000D9E0C9806430FD15D46AF4213DD284609F020FE6D1CEDB2E7786070F5E70120E9
:20063C0016E0B8F1000F01D1032011E002200FE05D46AF4201DC58460AE0284609F00AFE91
:20065C006178E7786D1CEDB201436170F1E705200028A07000F0B180401E70D0401E00F0C7
:20067C009280401E1DD0801E40F095811498FF2804BF1598149084F8330094F833200C2676
:20069C0084F83120D019401E90FBF7F17943401A84F8320012FB0690808BE08606F0D8FF12
:2006BC0087E0002F08BF5D460BD009F10C0138465D4611F80C2FFE2A03D0401E05F1010582
:2006DC00F7D1AF423ADD0C2084F83C5015FB0090817E84F83D10C07E84F83E0008F03EFE66
:2006FC00E2782D1895FBF2F050432D1AE8B284F83200401C90FBF2F15143401A84F8310046
:20071C007C200FF06BFFFF2810D17E200FF066FFFF280BD1FF200FF061FFFF2806D1782097
:20073C000FF05CFFFF2808BF94F8310084F833000C2110FB0190808BE0864FE0FEE71098F3
:20075C00129E84F83200FF2E00F1010090FBF7F101FB07F1A0EB0100C1B284F8311008D104
:20077C001198FF2804D10C20129111FB009005E012901299880000EBC100484484F833109C
:20079C00808BE08607E1DDF8408008F1010084F8328090FBF7F17943401A84F831005FFA98
:2007BC0088F009F057FD6070FE215FFA88F010F05DFC584602F0CCF9EDE084F831B0781E2A
:2007DC00594684F832000C2684F833B011FB0690808B7E21E086584610F048FC94F83200CD
:2007FC00FE2110F043FCD6E00C2115FB019706AA0423690312F0B8F8069807F11606010E3E
:20081C00B1F1960A18D1C0F38541C0F3014040EA8100022810D187F819B09DF818003070D9
:20083C00FF223A769DF81930FB7528460EF05CFDB8836CE0DC1800202846594607AA11F05E
:20085C0061FA2846012108AA11F05CFA2846022109AA11F057FADDF818C00CF0FF010CF04D
:20087C00FF00FF2909D0FE2907D07E2905D07C2903D0782918BF702909D15FEA0B0706D14D
:20089C00CCF38541032908BFBAF1000F1ED0284609F0E0FC0746002FE068677038D16903C9
:2008BC0006AA042312F060F82846594607AA11F029FA2846012108AA11F024FA2846022117
:2008DC0009AA11F01FFA069800F0FF0030709DF81900069F9DF81E307070C7F30140F07091
:2008FC00BDF81C004FF6FF718142B37002D128460EF0FAFCF0809DF822003071BDF820702E
:20091C0037819DF826307371BDF824207281E0683178FF2936D0FE292ED07E2926D07C29C2
:20093C001ED0782917D0702910D0A52908D0242904D00F99491CC9B20F9127E0159500E02C
:20095C0014951399491CC9B213911FE00E99491CC9B20E911AE00D99491CC9B20D9115E06A
:20097C000C991295491CC9B20C910FE00B991195491CC9B20B9109E008F1010710955FFAF5
:20099C0087F803E00A99491CC9B20A91E7786D1CEDB21BE66070607817B0BDE8F08F7047E9
:2009BC002DE9FC47D14C0F460546F80B80F0F6816078DFF83C83B90F80F09C81B90880F027
:2009DC008E81F90A80F0F980390B80F0C580380907D2F80FC0F01A8227F080470DF0DCFBE8
:2009FC0014E212F057F8814611F05CF8002800F0AD80082011F038FF002840F0A7808020B4
:200A1C0011F032FF002840F0A18068460AF0F8FE012803D10098002800F098800025012660
:200A3C00E8B211F0A7FC48B1837A3BB1867290F9090006FA00F0C0B20FF094FE6D1C032D44
:200A5C00EED30320207504F1B40012F01DF8484612F07AFBCF4800252A460168056050F87A
:200A7C00081CCD4940F8085C04F1380010F08AFF40460068006B8047A168401A010BE069F6
:200A9C00C1F1FF3282422CBF08444FF0FF30E06194F8200020B12069E169B1EBC02F25D9D4
:200ABC0011F010F8294600B13146081C1BD0D44840F6090101804580417B06F00F0221F0F5
:200ADC000F010A434273017B05F00F0321F00F0143EA010202732946416011F09FFD418829
:200AFC0011F4406FFBD084F82060E5610EF08EFECA4829460560022010F006FE022010F061
:200B1C0051F9112009F07EFA207818B96068483011F0D2FFC248007810B90E2009F072FA74
:200B3C0094F8210020B184F82150052010F03AF9BC48A0612575B4F98C00B4F98E108842E9
:200B5C0014BF022007200BF0DBFF02E0484612F0FBFA27F0080741E720B1042010F022F9C3
:200B7C000020607065680FF0E1FD38B12846ED696FF4807100224FF00073A847E06858B1AA
:200B9C0040460068006B8047E2686168801AC860000BC8600026E660A34904F1380000226A
:200BBC0010F0F0FE0221A06F217518B104F5807011F090FF27F4006710E711F06BFF0646F1
:200BDC0010F070FF216F0028894600F0828000297FD09649042504F138000022257510F0A8
:200BFC00D1FE304612F0B0FA04F1B40011F04CFF40460068006B8047E0604FF0010884F8CF
:200C1C000180284610F0E6F8D9F810006060D9F81000416AC90803D3036A2946002298473A
:200C3C0040460DF02FFD606880F81580606807F053F96568D5F808A040F60A02D01F5646FA
:200C5C0000F1010C00E01E46736833B119888A4203D0884218BF8C45F5D100217160727B20
:200C7C0008F00F0322F00F0213437373D9F80C201288904224D06046904221D02B8E03B3BA
:200C9C00696305F13002518095F83C0001F00F0320F00F00034385F83C3095F83D0008F097
:200CBC000F0320F00F00034385F83D307260707B01F00F0520F00F0045EA0001717300E0E2
:200CDC00E160504611F0AAFC5146404610F01CFD02E0304612F038FA27F4806796E007F049
:200CFC0049FBA06F08B927F002078FE0C81D00208C0100104E4A116841F08001116020B18E
:200D1C00042010F04FF80020607011F0C3FE8246D8F85400016804208847D0B1287DC0B1BB
:200D3C00A068B0B18146D8F800002E69006B8047A0EB09002861000B2861B04202D28019BE
:200D5C004008286140F6C41181422CBFB0F5967F2961504612F0F8F90FF0E8FC78B1EE69BD
:200D7C0028466FF4807100224FF00073B047206F002808BF47F0020701D00DF00DFA2846C9
:200D9C00AD6900214FF080630A46A84727F000573CE0C0461410044069ED000011F07AFED8
:200DBC00D4F8886076B306F1280106C90A234FF0E0450B40154008BF002B23D106F1280114
:200DDC0091E8000306F1280595E8060006F1280322EA090221EA080183E8060012F0B4F967
:200DFC00B16889B1B9F1000F08BFB8F1000F0BD03069B6F93010B5684B464246A84703E0E1
:200E1C00902B002012F0A0F927F4804727B104F58070394611F05EFEBDE8FC870000046035
:200E3C00BA62010089920000D58B0000A11A0100CC2108402DE9F04F0F46780689B027D5B0
:200E5C00DFF8F8231078002112F07AF904001FD0DFF8EC0301688847054611F0CFFB616896
:200E7C00884204BF40F2014012F066F900202072201D0AF06DFFDFF8CC130A682846904733
:200E9C0020460FF0EAF9FF223C21204612F050F9B80604D506F0B7FD87F02000CAE1F8073D
:200EBC000CD511F0ABFB30B100218160DFF89803006800B1804787F00100BBE1380704D52D
:200EDC0008F09FFE87F00800B4E1F8060FD500210022002306910592049103930291019286
:200EFC000091022012F020F987F01000A2E1B8070FD500210023069105910491039302912C
:200F1C000191009101223C2012F00EF987F0020090E179074FF01E08CC4EDFF834A340F142
:200F3C00CF80CC480022002108920791007812F007F90446C8488178FF2904BF002010F0E5
:200F5C005BF9A07A11F0DAF905469AF8000095F82E91002805F5947B69D0606D807A0228AF
:200F7C0018BF032807D130680D3012F0D9F810B93068C11D07915946484612F0CDF8A0B3B5
:200F9C00606D807C3368002818BF012804D11946584612F0BDF804E05A464946184612F0AD
:200FBC00B3F8FF2843D018FB00F83068404406225946C01D11F0F2F9306810F8081040443D
:200FDC0000F1010BC01D41F0020908900622616DC87A00F0010085F82E01606D00F10C01A7
:200FFC0005F5947011F0DAF921E05946484612F087F8E0B130685A46494612F085F8FF2856
:20101C0015D018FB00F8306840440D3012F088F858B9306840440D3012F082F8002801BF1B
:20103C0030684044417F012901D149F0020905F12C004B4601780691428912090592012215
:20105C00698C0491C0880899029140080390CDF800B0079801900020A97912F065F8D5F880
:20107C009C017E498842A8790CBF0021012112F043F87B49AB790A68382043431344012208
:20109C005A70AB790C68434323449A70AB790C6843432344DA700C68AA79231D424301248B
:2010BC009C54AA79096810FB02F00844002141710122A97907200BF04BF887F00400B9E0B6
:2010DC0038060FD500210023069105910491039302910191009101223B2012F025F887F06C
:2010FC008000A7E0F8045DD55E4930680C680D3012F016F8002844D13068C11D0D3011F0AE
:20111C00F7FF3EE0606D4178480704F13E0526D5287802281EBF03286878012830D16978DA
:20113C00306804F1380211F0EFFF8146B9F1FF0F15D0306818FB09F948440D3011F0F0FF13
:20115C0068B930684844C11D0D3011F0D1FF30684844C11D062204F1380011F01FF9287832
:20117C00022818BF03280BD130680D3011F0D8FF30B93068C11D062204F1300011F00EF9EA
:20119C002468002CBED13848DAF8042000784FF480510EF0FDFD10B18E2011F0A5FF87F463
:2011BC00805047E0B80505D511F01CFB2F4901200860FEE7780504D50CF049F887F4806099
:2011DC0038E0780405D5812011F08EFF87F4804030E0B9042DD5264C206810B1002010F071
:2011FC000BF84FF0FF3020600020224C0BF06CFA216851F8202F684690471F494A6B086BBD
:20121C00C96A24681D4B019200900293ADF810106B461B4A1B491C4803921C4A079225680F
:20123C001B4AA8471B49086003F0BCFE87F4005000E0002009B0BDE8F08F00BFD50F00205A
:20125C004418002048180020480F0020680F0020880E0020D70F0020780E00204DE50110C3
:20127C00FC2B00204C0F0020C70F00207C052043380F0020200F00203C190020F92501006C
:20129C0009260100601C0020280800201EFB0080EC0A00201C0F00202DE9FE4F0546DFF897
:2012BC00BC03DFF8BC630278002A44D0052A52D0062A54D0072A18BF082A00F0CC80112A4F
:2012DC0040F0C481DFF89C331878002111F038FF0446606D407810F00C0F2CD0216DC006B4
:2012FC004CBF886CC86E0622016801F10805A91C684611F053F8287800F00F0105291AD195
:20131C006946C0F3801011F007FF002813D03168684611F0FDFE0546316804F1380011F058
:20133C00F7FE85420DD0606D4178C80604D440F2014011F001FF8FE1607B40F00200607308
:20135C008AE133681E204543581906226946C01D11F024F880E1012011F0C2FE7CE1C24DB4
:20137C00286811F0B9FE0400F8D020790328F5D1207A00F00F01072937D1BC4800684169CB
:20139C00497A4A1E11425ED0617A04F10A035A5C02F03F02252A56DBA17A8A09012A52D143
:2013BC0011F03F0F4FD0007C10F0A8FFE17ACA074CBF04F1110204F10B028B0748BF921DF7
:2013DC000B0748BF921CC90648BFD21C1621127852094A43A6498B180A31EB608A5A4286F9
:2013FC0099898186DA89C2862DE000F00F00082829D1A17A880926D129B39C480168087C77
:20141C0010F07CFFE17A074688071CD5062201F001015143601800F10C01684610F0BEFF7D
:20143C00207AC009FF280ED0694611F075FE50B1306800F10D01684611F04AFE18B905217F
:20145C00384611F089FE207903281CBF00200FF0D3FE286838E0DFF81C9299F80200FF28F4
:20147C0034D010F04BFF804608F16C07786811F033FE01900179032901D0280026D00198FF
:20149C007D4A836893F800A00AF00300009038215FEA8A6008D5146898F8060004F10A0C40
:2014BC00484301240CF80040009860B1146898F806C004F10A0011FB0CFC84442C009CF806
:2014DC00000004D018B9786811F0FEFDC4E05C7803F1020B98B11BF8010B00F01F038CF8F8
:2014FC001A30800998F80630126811FB03F1114481F82500404606F023FB002DE6D10098B4
:20151C00032808F2171519D0A4B1387868B108F1F400017801290DD1504A1178072904D0C2
:20153C00082904BFC078012804D13D2101206970287091E051490A78012AFAD098F89400CF
:20155C0078B3241FE4B25B462246514640460BF0DDFB00281EBF4A490878002807D1012039
:20157C003D2128706970306811F0AAFD74E0454801688847064698F80610D9F804204FF4FD
:20159C00D07041435018002280F8412108F59E700168807949080BF0A7FD3B490A6830463E
:2015BC0090470198002181600098032819D03748416909788A0709D541690878C1074CBFDB
:2015DC000320002000191BF8000000E0812038722246009B99F80200DBB2594605F060FC42
:2015FC002CE09BF800005FEA8A6103D51B2804BF022C01241C2803D225490B5C9C4205D02A
:20161C00A8700721404611F057FD14E01348017808295946404607D111F038FA58B95946BA
:20163C00404611F045FD06E000F034F818B95946404611F039FD58460DF088FD786811F095
:20165C0043FD0199404611F02BFD05E000200FF0D3FD862011F020FDBDE8F78FC80F00202B
:20167C00680F0020D50F0020BC0A0020540F0020E0070020780E0020FC2B0020D20F002055
:20169C007B2C00204418002048180020B0640100506501002DE9F84185B0044611F801CBFD
:2016BC0000203822BCF1030F04F5A47704F1660504F1F406DFF81883C64B00F0B380BCF11F
:2016DC00070F00F06381BCF10F0F0CD0BCF1110F00F00E81BCF11A0F00F01F81BCF11B0FD4
:2016FC0000F0448171E1707A820703D40F2184F8191157E008784A7800EB02233B80887863
:20171C00CA7800EB02237B8008794A7900EB0223BB808879CA7900EB0223FB80087A3872D6
:20173C004A7A887A02EB00237B81C87A0A7B00EB0223BB81487B8A7B00EB0223FB81C87B11
:20175C000A7C00EB02233B82487C8A7C00EB02237B82C87C0A7D00EB0223BB82487D897D60
:20177C0000EB01229C48FA8201788A0658BF1A2212D504F5AA70049079890391387A02901B
:20179C0021890191F8880090BB887A883988204611F07EFC70B11E22707A410708D40F205C
:2017BC0084F81901204611F06FFC002837D1D6E00F21C3E004F18600798881800023BA880A
:2017DC00C2800222F988018102704380A18EC91DE983628E8188B1EB520F02BFC188A28E9E
:2017FC00914202BF0089E18EB0EB111F18D0287C012804BF687C0F2805D0687D18B10F2130
:20181C00A976FE2170E0FC21204611F055FCF8880090BB887A883988A07911F031FCCEE03E
:20183C00102161E0707AC20709D431781A200129707002D1FF220D213AE00D2154E00020DF
:20185C002870A87101233371082204F1B00011F013FC0146022204F1B80011F00DFC04F1FD
:20187C00A80801460822404611F006FC07460821404611F0FDFB04F19C08042239464046E9
:20189C0011F0FAFB0421404611F0F2FB04F1A00011F0EAFB04F1980011F0E2FB4F48018897
:2018BC0041F0800101803078012805D1FF220421204611F0D1FB82E06E7C0F2E18BF142E17
:2018DC0003D00E2E18BF0C2E0DD12F7C204611F0BFFB0421204611F0EFFB012F12BF314634
:2018FC00AE76FD2100E00421204611F0E5FB66E00D783D761A2D4978797666D11868A579F4
:20191C00811D5543002048551968A37912FB03F20A445072A179787E4FE0A67918680978AA
:20193C005643064401F01F0516F82D0F890918B17078C840C70705D420221A21204611F073
:20195C0083FB3CE0F5701868A37912FB03F20244204682F82F10002107F010FC78BB98F882
:20197C0000004FF4804108F0E7FA28E0A179186851430144888908B900258D71A179186864
:20199C0012FB01F281180020487218E009780F2917D01A2919D1A179186851430144002060
:2019BC008871A1791B6812FB01F2991848721A20F17A01F0FB01F172A1790AF0FDFD0120E6
:2019DC0003E0717A01F0FD01717206B0BDE8F081C70F0020FC2B0020200E00209C0F002029
:2019FC00C9480278112A00D070472DE9F84FC74A1078002111F0A4FB04000AD100200FF0C9
:201A1C00FBFB00200FF0F8FBBDE8F24FFF2011F043BB04F14C0999F8000008B90121E1728D
:201A3C00401C89F80000C2B2E17DD9F804608A4229D2D9F808104A7AB17B277E0120A1F1AE
:201A5C00250300FA03F3A7F125018840184322EA000000F007000EF035F92530B073A18B9E
:201A7C00B06800EB8100B060607DC1060AD5628B99F80010A08B00FB1121B068A63100EB73
:201A9C00810030663EE104F1280706F1900806F173054FF0000A4FD1A17F6975E07FA875EF
:201ABC00D9F808205278930710D5E27FD30604D5C91E697500F0EF00A875C6F874A085F8A5
:201ADC0000A00022A97D01F0FE0116E1910608D4F88B00B1F87E2876F88B00B1386AC8F8CA
:201AFC000000D9F808004178CA070DD5F88B00281CBF386A002807D0C8F80000B97EF88BE4
:201B1C00814238BF08462876E07FC1060BD5B06B397800EB8100B063A18CA63100EB810042
:201B3C007067022002E0C6F874A0002028700022E17F01F0FC01E0E0D9F808205278D30757
:201B5C0017D5A87D697D00F0F700891E01F03F0182075CBF891D40F00200420644BF491E85
:201B7C0000F0BF00A8756975C8F800A085F818A0C8E0401AC0B2009090077AD5009801285F
:201B9C0006F1400B3FD1B06BA18C00EB8100B063A07F00F03F00A0776875E17FA975D9F87F
:201BBC00082053785A0704D5801F687501F0FD01A9750023697DFA7E9BF8000001F03F010E
:201BDC008A18521CC0F3800192B200F0030011F037FA00F59B70A0841E21A08C90FBF1F140
:201BFC008AB2A97D01F0FE01204611F025FA85F800A0F88B00B1F87E2876F88B00B1386AB6
:201C1C00C8F800007EE00228B06BA18C00EB8100B06326D1E07FC10706D5687D811F69753D
:201C3C00A87D00F0FE00A8750023697DFA7E9BF8000001F03F018A18521CC0F3800192B28B
:201C5C0000F0030011F0FCF900F59B70A0840022A97D01F0FE01204611F0EEF9787FABF83B
:201C7C001A00797F0098491C081AC0B2012814DD0BE0B06BA18C00EB8100B063797F009849
:201C9C00081AE17FCA06C0B207D5A28CB16BA63201EB820171670221297098B3D8F8003018
:201CBC0097F81BC0E27FA17F6344C8F8003052084FEA4208D9F808205278530748BF28F06D
:201CDC000208920748BF28F00808012807D1387F2876C6F874A028F0100885F800A001F0B0
:201CFC00C006404611F0A4F900F03F003043687585F81680002208F0FC012046BDE8F84FE3
:201D1C0011F09AB9BDE8F18FC80F0020D50F00202DE9FE4F0422FF2101A810F049FBB8499C
:201D3C0088780024FF2800F0688110F0E7FA054605F217100178012908BF417800F0B680D0
:201D5C0005F1740005F59276817B022904BF05F174018C73F18911B1307B08F0EDF86889F2
:201D7C00A84F2881FA79BB7A397BF87A97F80DC09B185B181B1805F58D7903EB0C08B9F871
:201D9C0000C0B9F80430C4445B1CA9F800C0A9F8043097F80AC0B9F802306344A9F8023017
:201DBC0033683BB3DFF860E2DEF800E00EF10E0ACDF800A04FF01C0A95F806B01AFB0BFA71
:201DDC00DDF800B01BF80AA033F81AB0C34423F81AB00EF10E0A95F806B04FF01C0E1EFBE8
:201DFC000BFB1AF80BA003EB4A03B3F84AE0F444A3F84AC0002A08BF002804D1002904BF3D
:201E1C00787B002829D02989E8892C744118287FA981012804BF688CE883A97901220720EE
:201E3C000AF096F9A246787868B10121297705F174018878002804BF887B002803D1087F6E
:201E5C0008B9688CE883307D002837D0022804BFF87A00282ED1347530E0A97907200AF0E8
:201E7C0077F9EC83B87A40B1297F2C7401294FF0010A09D1688CE88306E0B9F80600401C56
:201E9C004FF0020AA9F80600A8892989814206D08842C8D2081A41F2AB029042C3DA287C3F
:201EBC0008B1052901D0082100E03E21284611F053F9A2E0787A08B1022131755348F97B26
:201EDC000068CA070AD52A683969D160143001F59071D160A9794901445011E0AA7900F1F8
:201EFC0014015201885830614748AB7901681C2001F1080243432968D058C860EC832C7720
:201F1C00434A50690078810702D5B87B802800D1812005F1740651463070284604F056FCE0
:201F3C00284609F043FA02281BD1F079022805DB01AA384928460CF045FB0446284611F0C9
:201F5C0073F8012859D020000DD0224601A928460DF0D2F838B9284609F028FA012802D1EE
:201F7C004BE0012849D00121284611F059F8284611F052F8FEF754F801283ED028460AF05D
:201F9C003BFD01F03DFD244FB988386810B1AA79914203D04FF6FD7081422ED11F49087B85
:201FBC0010F064FB040028D084F800A0A879608095F83910217195F89601607196F9001091
:201FDC00A171A4F80880B9F80200608110F016FB050005D1FF204FF0FF312073216109E0A3
:201FFC002878207311F014F80146A86811F00CF880082061204639688847BDE8F78F00BF60
:20201C00780E0020980C0020980E00209C0E0020B0640100DC190020800E0020701C002026
:20203C002DE9F84F8AB083460C4600208DF800001646B849C87981061A4602D5B6488178DA
:20205C00880640F163811D98169B199D1E9908B900250CE059B9012B0CBF4FF040094FF04C
:20207C0020094D4503DB012B0CBF40252025DDF86880DDF86C90C6461EFB09FE15FB0EF53D
:20209C00AFB24FF0600A97FBFAFE0AFB1E775FEA070C18BF4FF0010CE6445FFA8EF70897D0
:2020BC00AFB20997ADF81A208DF819408DF818609A4F3A78149CDDF854C0DDF85CE0DDF82F
:2020DC0060A01C9E002A72D0ADF860A000279DF800A0ADF81CB08DF850408DF854C08DF819
:2020FC0058308DF85CE01D901E910899F8B2884279DAA8B26028ACBF4FF0600BAB465FFA76
:20211C008BF02D1A4000203080B20FF033FB04004BD0912020703E2181226170A2705FFA54
:20213C008BF20998A080A7714B46BDF81C0020819DF81910A1729DF81800E072BDF81A107B
:20215C00A1819DF85000A0739DF85410E1739DF8580020749DF85C10617404F12001BDF8DA
:20217C006000608284F814B004F12000A06184F81580881884F81690E675E061059042461F
:20219C00A0691E9904900391CDF804A000961D989DF8581002905FFA8BF002F045FC824629
:2021BC005E480078214604F017FD7F1C9DE78DF868808DF86C908DF870609DF80090DDF81A
:2021DC002480ADF81CB08DF850408DF854C08DF858308DF85CE0ADF860A01D901E9100262B
:2021FC000899F0B2884280F29180A8B26028ACBF60272F46F8B22D1A5FFA87FA4FEA4A009C
:20221C0000F1140B0BF10B00C0B20FF0B3FA04007AD001202070FF2104F1080261706260BC
:20223C00042010703E22606842708120616881F802B06168C8704FEA2821606880F8048028
:20225C006068417161688E716168BDF81C00C8716168BDF81C00000A087261689DF81900B8
:20227C00487261689DF8180088726168BDF81A00C8726168BDF81A00000A087361689DF8CB
:20229C005000487361689DF85400887361689DF85800C87361689DF85C0008746168BDF8C5
:2022BC00600048746168BDF86000000A88746068C77460689DF86810017560689DF86C10DB
:2022DC00417560689DF87010817560681E9A9DF86C30039200F11701514405911730049004
:2022FC00CDF804909DF870101D989DF8682000910290F8B29DF8581002F096FB814608481E
:20231C000078214604F068FC761C69E70BB0BDE8F08F00BF280E0020200E0020742C002086
:20233C00722C00202DE9F04FAE4D0020687095F83F10EB7895F83D00ADF12C0D0918491E13
:20235C0091FBF3F25A43891AC9B20691810001EBC0014919B1F84C004FF0805909F5EC76A1
:20237C00ADF8140095F83C1095F83C009E4F0790880000EBC1004019B0F84C80306895F83C
:20239C003D4081683846884700F003000890D9F8D80142680021384690473068816838461A
:2023BC0088470028F9D10021079F68780991A74200F09F808B46D946BBF1010F00F08E805D
:2023DC00BDF81410172964DB002840F09380BDF814006A46C01F81B2ADF81410204609F06B
:2023FC0025F9BDF80E70BDF81430F81D07F1100186B2994246D89DF80A00962842D19DF823
:20241C000B0042083AD2800838D3BDF814009DF80920C01B1FFA80FABDF814003946234606
:20243C00C01B80B20EF05EFC10BB08EB0600B0F5005F17DCE868C8F188520AEB443A334691
:20245C00921B514602F5005210F08EFA09F1010908EB06001FFA80F8B8F5005F08BF4FF0AB
:20247C00010B0BE0BDF814004FF0010BC01D2DE0BDF81400401EADF8140003E0BDF81400BF
:20249C00C01B23E0204605A90BF056FC01281FD030E0EA78B9F1000F07D0544BBDF81470EF
:2024BC00A10001EBC401C9188F830699A14220D04E49641C94FBF2F05043241AE4B2A000BA
:2024DC0000EBC4004018808B4FF00009ADF8140007996878A1427FF46FAF0AE0B9F1000F36
:2024FC0007D0424ABDF81470A10001EBC40189188F8320B108980FF03DFD10206FE04FF6B1
:20251C00F0704FF40051C8EA0040C8EA01414FF01009E1FA40F087B21FFAA0F18A46D7B127
:20253C00202FACBF20263E1C079849460AF1885233460DF08FF96978BF1BBFB209EB0603FB
:20255C000AEB0602002F40EA01001FFA83F91FFA82FA6870E4D108980FF00CFD0798A04228
:20257C000FD1E978214F0819401E90FBF1F24A43801AC4B2A00000EBC400C019808BADF82C
:20259C0014001A4EA5F84090BDF81400079FA5F84400B90085F83E4001EBC7018919A1F843
:2025BC001C80B5F9422095F83D10012338460EF073FD95F83E10B5F94420022338460EF0DB
:2025DC006BFDBDF814001728BCBF01200990B8F5005F03DB099840F00200099009980BB088
:2025FC00BDE8F08FDC180020004003400C1900202DE9F84F05004AD09C480078092818BFDF
:20261C000A2804D00B281CBF0C280D2801D1212029E1A878002110F093FD040008BF422006
:20263C00F6D0934FA978914A3970107810B9A8789049087004F14806F068417801F0120117
:20265C00022902BF706900280C2012D0607AF0B1A07B012804D1B5F8030008B1812816DACD
:20267C006878402813DA204610F0CAFCB06808B90720F8E0B561287801281BD1A07B0028F7
:20269C001CBF0128042815D17B48007808B91220E9E07A494A78824208BF0920F8D004F11B
:2026BC00220004F13801427F802005F0D5FD08B10B20D8E0687808B91120D4E02878DFF8ED
:2026DC00C091DFF8C0A1DFF8C0B1012840F09380207A0021012821734FF00A0811D19BF863
:2026FC00000040210EF05AF8B5F8030008FB00F1402010F081FC0100DFD1B1696879487127
:20271C00B0E001202072E172617307F07FFF6060DAF8000080475D4A0146106802E0626853
:20273C00426000680028FAD10846D9F800108847616857484861002138780DF0CFFB397828
:20275C000122112009F004FDF0684178C80605D5204610F04DFC01000BD084E00020608463
:20277C0009F0AEFC84F82100204610F03DFC010079D1F0684178C8071CD504F14207B988C3
:20279C0000291CBF3068002814D03A788A4211D20F2010F025FC68B1F06801788DF8001045
:2027BC00B888ADF801000F2039788DF80310694610F012FC2D4F3878002853D1354908786C
:2027DC0000281EBFF068417811F0030F03D03248006810F0FDFB1120387001212172B5F8CC
:2027FC00030008FB00F1402010F006FC01003AD101F006F936E0207AA8B3DAF800008047C4
:20281C000546387801210DF069FB9BF8000040210DF0C4FF0020207210F014F8012804D0AF
:20283C000FF0ECFE6168884212D10EF08BFA40F2014010F081FC19491948086001219BF8CA
:20285C00000007F079FBD9F800102846884709E0204610F0B9FBD9F800102846884720464C
:20287C000DF0FBFC0020BDE8F28F00BFC80F0020D60F0020D50F0020D40F0020780E00209A
:20289C004818002044180020C70F00204C0F00204D3C0000880E00206C0F0020480F00205E
:2028BC0041E700102DE9F14F82B010F0B1FB009041F60301BDF808003225401A4FF0FF3BDE
:2028DC000328D9464FF0500842F21077DFF844A2914E6FD91E38012808D9801E6AD0001F05
:2028FC0000F0D580401E00F0028110E18B4A90780FF004FD0400F8D0E08E618E90FBF1F73C
:20291C007068A17950F83110009810F07DFB01462089A279336ADFF808C2DFF808E20328DB
:20293C000EDB814C2468382010FB02F014F80090B9F1010F1EBF201890F82D0001280FD1BB
:20295C007D436424B5FBF4F47568985C2D1DF14615F83250A54217D2B0B9514529D313E0DC
:20297C007068041D08FB07F814F83240985C4FF0640BB8FBFBF844454FF0FA6904D218B9A8
:20299C00DFF8A881414501D3E1460AE0F369985C7D43B5FBFBF5AC4202D208B9514508D30C
:2029BC00F146401C032190FBF1F101EB4101401A9854ACE05E480078002110F0C1FB0400D8
:2029DC00F7D0606D00780EF055FDFF280190F0D0BDF8080041F6030188421CBF41F604012E
:2029FC00884207D041F62301884202BF207D8009012802D14FF07A7901E0DFF838913068C7
:202A1C00019950F83110009810F0FEFA226E0146B2F80300C0B1636D93F801C05FEACC6E53
:202A3C0008D5A47B012C05D1474340F2E24397FBF3FB09E0D3F80340474324F07F4440F290
:202A5C0071204443B7FBF4FB507910B1584538BF8346394881420BD232680198131D6422B0
:202A7C0013F8300008FB0BF3B3FBF2F2904202D309F102094BE051453FBF05FB0BF564217C
:202A9C00B5FBF1F1884242D309F101093FE03169009810F0B9FA024628480368186A418833
:202ABC004FF07A6949B1808838B94F43D9698B8840F27120434397FBF3FB1F498A4207D228
:202ADC00307D08FB0BF36421B3FBF1F1884202D3DFF86C901BE052453FBF05FB0BF5642190
:202AFC00B5FBF1F1884212D3DFF858900FE0B168009810F089FA0D494FF07A79884228BF5E
:202B1C00DFF8449003D2504528BFDFF840904846BDE8FE8F81841E0090290020780E002094
:202B3C000200D0070100D007FC2B002001093D00D50F00200000B80B01127A00500F002067
:202B5C000200A00F0100A00F0200E8030100E8032DE9F04FA44C8246E07894F8315094F821
:202B7C003290BAF1000FADF1140D0146A1F101018FB218BF01214FF0000884F83F1046464B
:202B9C0003964FF0F80B019622E0B1451ED0E06871036A4604230FF0E7FE009911F4403F2D
:202BBC0003D00198401CC0B2019001F0FF017C2918BF782909D1304606215A460FF0B0F862
:202BDC000C2016FB004080F848B0E078761CF6B2B042DADC0199401E88425BD0002F04F1A1
:202BFC00300600F0CA8040464FF4005B019094F83F30E06813B9012184F83F106A4669037C
:202C1C0004230FF0B1FEBAF1000F05D00099E07811F4403F40F09980009800F0FF00702857
:202C3C0003D0284670210EF021FAE0684FEA49316A4604230FF098FE009800F0FF00FE2879
:202C5C0003D04846FE210EF011FA48460621FE220FF066F84FEA8900FF22FE2184F83C9053
:202C7C0000EBC900A4F840B0AB0084F83D50801984F83E20183001700199029003EBC50039
:202C9C008019A4F84410808BA4F84200FFF74AFB102801D10020A4E0BAF1000F0CBF102107
:202CBC005146BAF1000F07D0B4F84000C0F50050814207DC01200390B4F84000C0F5005094
:202CDC00814201DD782100E07C2148460EF0CEF906F044FB054694F83F000621FC22401BE3
:202CFC0084F83F0048460FF01BF80298FC21017094F83210E0787F1B491994F83E500C23CA
:202D1C00414491FBF0F24243891AC9B284F83210491C91FBF0F24243891A84F8311015FB7B
:202D3C000361898BBFB2102905D1691C91FBF0F24243891ACDB294F83290DDF80480BAF193
:202D5C00000F17D00398A8B117E06D1C08F1010295FBF0F17F1E94F83F30A4F840B04143D8
:202D7C001FFA82F8BFB2581E6D1A84F83F00EDB284F83D50002F7FF43AAF7C200DF02EFC85
:202D9C000546FF2D1CD17E200DF028FC0546FF2D16D194F831500C2015FB0060807DFF28C9
:202DBC000AD0E27894F832008018401E90FBF2F15143401AC5B203E028467E210EF056F9FF
:202DDC000C2084F8335015FB0060808BE08694F83200FE210EF04AF9B4F84000C0F50050BC
:202DFC0000B205B0BDE8F08FDC18002070B5864D68790FF02BFC8549002808600BD00022BE
:202E1C00026002730868C2610262A8790FF01EFC7F490028086000F0F48000220260C2721A
:202E3C0000200A681074052308684374002209684A61E87A0FF00AFC76490028086066D0E7
:202E5C00754C21782878C91C10FB01F080B20FF0FDFB72490028886059D0207800286DD061
:202E7C00698811FB00F080B20FF0F0FB6C4A002850604CD06B482278017811FB02F080B28D
:202E9C000FF0E4FB68490028086040D000250AE0E8B20FF08BFB0021418081600180022350
:202EBC00037101736D1C2078E9B28142F0D30FF0CDFB5E490028086029D0207840000FF0FE
:202EDC00C5FB5B490028086021D020781C2110FB01F080B20FF0BAFB564A0028106016D01C
:202EFC00207840010FF0B2FB5349002808600ED0207800010FF0AAFB50490028086006D0EB
:202F1C00207800010FF0A2FB4D490028086078D02078302110FB01F080B20FF097FB494AB7
:202F3C00002810606DD02078382110FB01F080B20FF08CFB444A0028106062D0434D444E81
:202F5C002978307800EB4100C000103080B20FF07DFB40490028086053D000F10801416060
:202F7C0030782A7800EB4200C000103080B20FF06DFB39490028086043D000F10801416065
:202F9C001E212878401C10FB01F080B20FF05EFB324A0028106034D008200FF057FB304D46
:202FBC00286070B306200FF051FB296808602968086830B30020486006200FF047FB29495B
:202FDC000860F0B1A0200FF041FB274D2860C0B12078C0000FF03AFB686090B114200FF09C
:202FFC0035FBA86168B1002620780FF02FFB05F11C0141F8260020B1761C022EF4DB002088
:20301C0070BD072070BD00BF701C0020500F0020540F0020440F0020D40F0020C82B00201D
:20303C00780E00200F1B0020042C0020340F0020002C0020980E00209C0E0020A00E002027
:20305C00A40E0020A80E0020FC2B00207A2C0020792C00206C0F0020700F0020680F002009
:20307C00182C0020400F0020902900202DE9FF477A4C7B497B4E20700A22002008600D2365
:20309C0079484FF40471027043808180774A78481060377877480770FF2F7178417008BF00
:2030BC00FF29B2788270F378C370357905717679467114D1FF2A08BFFF2B10D1FF2D08BF75
:2030DC00FF2E0CD16C490A7802704B7843708A788270CB78C3700A79027149794171674927
:2030FC000278674D674E684FDFF8A0810A7043784B7082788A70C378CB7002790A71407919
:20311C00634A4871FF2028706870A870E8702871687100205F490880F06B5F494078087039
:20313C005E49F06B0078087013885D485D490380F06BC06C3860F06B90F83C0008705A49BF
:20315C00F06B90F83D000870F06B4069017957484A1E0270F06B5649C07888F80000F06BB7
:20317C008069086008B90EF047F8F06B5149C069086008B90EF040F80FF022FFF06B4E4955
:20319C00006A086008B90EF037F8F06BDFF82C91406AC9F8000008B90EF02EF8F06B484928
:2031BC00806A086008B90EF027F8FFF71FFE07280AD103F01BFF20784FF4804106F0BCFE4D
:2031DC0000200EF019F846E03E480168884782460AF0EAFAD9F800000168884768460FF064
:2031FC0055FAD9F8002004208DF80000694652F8043F00209847344908600CF09DF8F068C1
:20321C00324A018898F80000314B014311805046196888470C212F480FF048FC28460FF072
:20323C00CBFE0FF0C5FE2C4800214FF6FF72016082800621387882072848006848BF0721D2
:20325C000FF0ACF90121FF200CF048FE20784FF4005106F071FEBDE8FF8700BFC70F0020BA
:20327C00380F0020D04F0050700E00203C0F0020B63F0050400E0020E8120050500E0020D8
:20329C00480E0020B0640100082C0020C40F0020FE1C00209E0F0020C60F0020D40F002041
:2032BC006C2C0020792C00207A2C0020CB0F0020200F0020240F0020280F00202C0F002061
:2032DC00300F0020441800200C2C0020A00F002048180020FC0D0020800E0020182C002015
:2032FC002DE9F84F0422FF2168460FF061F8914988780024FF2800F01B810EF0FFFF054611
:20331C0005F217100178012908BF417800F0948005F59276F18911B1307B06F00DFE688971
:20333C00288105F17401844F887B022804BF05F174008473FB7997F80AC03A7BF97A787B51
:20335C009C4494448C4405F58D790CEB0008B9F804E0B9F800C00EF1010EC444A9F804E029
:20337C00A9F800C0B9F802E097F80AC0F444A9F802C036681EB3DFF8C4E195F806B0DEF845
:20339C0000E04FF01C0C0EF10E0A1CFB0BFB0EF10E0E1AF80BA036F81AB0C34426F81AB0D7
:2033BC0095F806A01CFB0AFC1EF80CC006EB4C0697F80AC0B6F84AE0F444A6F84AC0002B40
:2033DC0008BF002903D1002A08BF002813D02989E8892C744118A9810122A979082008F066
:2033FC00B7FE0026564948690078810728D5B87B802825D025E0A979082008F0A9FEB87A99
:20341C0010B101262C7405E0B9F80600401C0226A9F80600A8892989814206D08842E1D248
:20343C00081A41F2AB029042DCDA287C08B1052901D0082100E03E2128460FF08DFE77E0D3
:20345C00812005F1740731463870284603F0BEF928460AF065FB02281BD1F879022805DBAE
:20347C006A46384928460BF0ADF8044628460FF09BFD01285CD020000DD0224669462846CB
:20349C000BF03AFE38B928460AF04AFB012802D14EE001284CD0012128460FF0C1FD284615
:2034BC000FF0BAFD00F0CEFD012841D0284609F0A3FA00F0A5FADFF890A0BAF80410DAF813
:2034DC00000010B1AA79914203D04FF6FD7081422ED11E49087B0FF0C9F8040028D0267096
:2034FC00A879608095F83910217195F89601607197F90010A171A4F80880B9F802006081E8
:20351C000FF07CF8050005D1FF204FF0FF312073216109E0287820730FF07AFD0146A868B5
:20353C000FF072FD800820612046DAF800108847BDE8F18F780E0020980C0020980E00208C
:20355C00B0640100B01D0020800E0020701C00202DE9F04F0646984CF08994F833504FF0A7
:20357C00FF0A002742F2010BADF1240DC01D1FFA80F8E07808910AE0284678210DF076FD30
:20359C00E0786D1C95FBF0F141436D1AEDB2B84228DD94F832007F1CA842BFB2F0D0E06858
:2035BC00690305AA04230FF0DFF9059800F0FF007828E5D004F13009FF2818BF7E2803D14F
:2035DC0028467C210DF052FDA80084F8335000EBC5004844818BE186808B40448345CBDD23
:2035FC0094F833A0BAF1FF0F08D14046FFF7B0FA804503DD607800B90520D9E0607894F820
:20361C003370B0B9F588307AADF80650E18EB5888DF808006A4603233846ADF8045005F0E5
:20363C00C5F89DF81000BDF80C50307494F83370B581E068E58E790305AA04230FF094F959
:20365C000598B84600F0FF0100F0FF007E2806D140467C210DF00AFD059901F0FF017C29FC
:20367C0040F0A380F0895A46C11D8FB2E9198A4240F39980F288337A11128DF8192063F32B
:20369C009F01B3888DF818109A1003F0030106468DF81A20C0F3851200F03F0342EA81129F
:2036BC008DF81B20990072198DF81C10F31D1FFA82FA98B20D282DDBDDF82090314600220F
:2036DC0048460FF09BF80246052106A80FF096F89DF81C10334600F03F0641EAA0114A462A
:2036FC00B0008DF81C1040F0020096268DF81D0029468DF81E6040460CF0ACF80646514642
:20371C0006AA0723404666700CF0A4F8304360704DD135E0089904F12400324608F0BEF869
:20373C0006A90A68301900F12409484609790260731D0171002204F1240099B20FF05EF896
:20375C009DF81C10962300F03F068DF81E3041EAA011B0008DF81C103B4640F0020006AE27
:20377C0049468DF81D003268B0790A60B288887140468A8004F1240229460CF06BF8607053
:20379C00E18EED194FEA8806AAB2C919E18606EBC8010919A1F84C2048B1404651460BF03A
:2037BC00E1FE607803E0052000E001206070C0B209B0BDE8F08FC046DC1800202DE9FE4F91
:2037DC008A4C617811B900200DF016FD0FF020FC06464FF0000806F6C4160027844DDFF8D1
:2037FC00149211E038460EF089FD417951B12A68817902F8081008F101015FFA81F8314676
:20381C000FF0CEFB7F1CFFB299F800008742E9DB6178884505D000200DF0EEFC82200FF037
:20383C003BFC6078012840F0C480002701E07F1CFFB299F80000874280F2B58038460EF0EF
:20385C005DFD064670790028F1D02968B0790A7890421CBF00200DF0CFFCB079A1E02868C9
:20387C0010F809000EF04AFD00684068DAF808108268914204BF3E4609F1010900F0A780BD
:20389C00A9E0286890F800B001224FF4D0710FE0636803F5B176835C11FB03F901FB0BFE4F
:2038BC0036F809C036F80E60B44538BF9B46521CFBB29A42ECDB4FF6FF700FF06DFB064663
:2038DC0058460EF01BFD4C490068D0F804A00868D94630F8192060684FF4D07300F10E0171
:2038FC0003FB09F3C85AB2EBD00F53D2720840F6C410424300920027404A0190029218E086
:20391C0058460EF0FBFC01680A78802A03D1DAF81410009A4A6101680B78402B08D1029989
:20393C0080790A6802EB4011009800F5A060C8617F1C47452EDA2868C05D8345F8D0014659
:20395C004FF4D073594363685A1803F5B173D289595A53088B4202D2521A9045E8DA0EF0C5
:20397C00CDFC00684268DAF808009168019B7208A1F6C41103FB02000FF00AFB0028BFD040
:20399C001D48006830F81910491C20F81910286810F807B01848026800215B4622F813102F
:2039BC005846BDE8FE8F00200DF026FC82200FF073FB6178286809F09EFF286800780EF0C8
:2039DC009DFC00260068D0F804A04FF00109771CC145FFF644AFF6B2002E1CBFF8B20028EB
:2039FC007FF44FAF286890F800B064E7780E0020340F0020D40F0020002C00209C0E002005
:203A1C002DE9FE4F854D6E681EB9BDE8F74F0FF0BBBA3078DFF808B2824FDFF80C920128A1
:203A3C001CBF0228042841F64C5804D0402818BF802874D0EBE00EF005FF0028FAD03078F8
:203A5C0004F078FB82460FF09BFA044699F8010000283DD0FFF7B2FE0EF050FC019001688C
:203A7C0000914E6894B1504606F02EFE02280DD09AF800100129DDD118B90FF0C9FA40444E
:203A9C00A0600120A8701121397046E00098017880290BD10820654938700A787069012A36
:203ABC001ABFDBF82410097801210AE007205F4938700A787069012A0EBF0121DBF824108A
:203ADC004978C17201988179009889F802109AE0BAF1000FAED09AF80000564507D1012838
:203AFC0001D1D4B998E000200DF086FB15E00128A0D1002CF6D00FF08BFA0146A06801F5EB
:203B1C00C241A8310FF044FA18B90FF081FA4044A060112038700121A970504673E099F813
:203B3C000100002856D0FFF749FE0EF0E7FB8246DAF800000190466899F802000EF0DEFBBA
:203B5C0002900EF079FE10F0070F1FD0A87804F0F1FA00900FF014FA040017D00199009884
:203B7C0006F0B2FD022811D000990A78012A0AD118B90FF04DFA4044A060112038700121C2
:203B9C000098A9703FE000200DF036FB029850451ED0019925480A78802A0AD108213970EE
:203BBC000078012870691ABFDBF824100978012109E007223A700078012870690EBF0121C7
:203BDC00DBF824104978C1729AF8060089F80200019818E00EF030FE10F0070F1CD0A878D4
:203BFC0004F0A8FA06460FF0CBF904463078012812D18CB10FF00CFA4044A06001211120ED
:203C1C003870A9703046BDE8FE4F06F05FBABDE8FE4F00200DF0F0BABDE8F78FC82B002059
:203C3C00B0640100C80F0020780E0020CC0F00202DE9F84F7F4A8246107800210FF080FAAB
:203C5C009AF80010044601291CBF00200DF0D4FA14B900200DF0D0FA04F14C0B0025DBF874
:203C7C0008004178DBF80460C8064FF47A674FF00B0841F64C5929D506F168000580857039
:203C9C00C57005714571C58005818572C5727567A07B012819D00FF0BBF9B16848440FF04E
:203CBC0077F9002811D00FF0B3F94844B0600EF060FE0B2290FBF2F2B16808FB12081FFAE1
:203CDC0088F007FB0017B76027617CE006F1940005808570C57005714571C5800581857214
:203CFC00C572C6F8A0500FF093F9B16848440FF04FF988B10FF08CF94844B0600EF039FEBE
:203D1C000B2290FBF2F2B16808FB12081FFA88F007FB0017B760276106F14007607DC1068A
:203D3C004FD5307CA27D521CC0F38001002392B200F003000FF084F9A0831E20A28B02F57B
:203D5C009B731E2193FBF0F001FB1030C0B208B1C0F11E008C46801800F59B7002F59672ED
:203D7C0093B293FBFCFC01FB1C316083A283C9B209B1C1F11E018A18A28392B2E17D491E35
:203D9C004A4312FA80F06083618BB068A63100EB810030660220F877618BB06800EB81003D
:203DBC00B0633878012802D1B06B0C30B063A18CB06BA63100EB81007067022086F8730049
:203DDC0001E03566FD776168DBF804001A4A8A614860DBF808205078C3065CBF1020886180
:203DFC005078830703D5886940F4002088615078430703D5886940F4000088610F4B18786D
:203E1C0000281CBF507810F0030F03D0886940F4802088618BF80050DBF80810087E10F0E4
:203E3C00300F04D05046BDE8F24F0AF047BDBDE8F18F00BFD50F002002000080880E0020B9
:203E5C002DE9FE4FDFF8D4B19BF80000401E03284FF0010808D9103840F0DA80704B187825
:203E7C0000210FF06DF9044614B900200DF0C4F9606D6C4F41786C4EC806216D4CBF886C59
:203E9C00C86E0622016801F1080909F1020101A80EF084FA99F800201E2502F00F01C2F36F
:203EBC00801003298DF80000DFF880912CD101A90FF032F9002826D0606D807C012818BF05
:203EDC00032820D1316801A80FF022F9FF281AD015FB00F53068425D4019411C38680FF0AC
:203EFC004BF899F8001088420DD030684019C11D386801AA0FF03CF830684019062201A90B
:203F1C00C01D0EF04BFA76E002F00F00052872D19DF800004FEA521A01A90FF0FDF878B39B
:203F3C00316801A80FF0F4F8616DFF2820D0897C022918BF032915FB00F50AD13068425D09
:203F5C004019411C38680FF017F899F80010884251D030684019C11D386801AA0FF008F83C
:203F7C0030684019062201A9C01D0EF017FA23E04878C10646D5607B40F0020060731BE0F6
:203F9C009BF80000022836D19DF80010306801AA0FF0BAF8FF282ED015FB00F5306841198C
:203FBC004A7F012A04D00D3040190FF0B9F810B340F201400FF0C0F8606D4178C80621D5A0
:203FDC001B498878410606D55FEACA7003D4206D41F20A4102E0206D41F20441418041836E
:203FFC0041861448144A01801448154911600121007805F0A1FF606D4178C80602D5216D90
:20401C00886C01E0216DC86E01680020087101E04FF000084046BDE8FE8F00BFC80F002053
:20403C00D50F00206C0F0020680F0020792C0020C00C00209A0F0020480F0020C70F002047
:20405C00398B00102DE9F8437A4CA178FF2904BF00200DF0D1F8A0780EF050F9044604F5CD
:20407C00C9752089411C61812A78012A02BF6988401C814207D16A792A71002028701346F9
:20409C00A17905F027FE04F1820704F12E063878012802BF60897988884230D104F186015E
:2040BC0020460FF065F86189E0894118A181F888B1883A8900EB0108B8898A4204BF31895A
:2040DC00884202BF7B89F1888B4207D0000900907B89A179520800200FF046F8B088A4F8D6
:2040FC0064013989B1807889F080B98931813879307020460FF034F80221397001E0B6F8AA
:20411C0004802068DFF83091C168016140F6C417C16807FB0818C0F80C80C0F80880D9F8A3
:20413C000010A379C0684FF01C0801F1080218FB03F3D050A079D9F8001018FB00F001F198
:20415C000C020C31135C03F0F00343F002030B54D9F80000A179821C18FB01F100235352B6
:20417C00287908B90DF048F8D9F80000A27900F11001287918FB02F240088854A079D9F8E0
:20419C00001018FB00F00844002141742879042814D1A079D9F8001018FB00F001F110021B
:2041BC002D7A135C103143EA85030B54A279D9F8000018FB02F2024420205074A079D9F851
:2041DC0000101E4A18FB00F00844002141821C491368086BA579006803EB451CB38843432F
:2041FC006425B3FBF5F56F43A7F596671548CCF814700378012B06D11068A17900EB411244
:20421C000120D07206E0486A1168A279007801EB4213D872A079D9F80010226818FB00F861
:20423C0001EB0800506020460EF092FF0020BDE8F28300BF780E0020980E00209C0E00209A
:20425C00B0640100CC0F00202DE9FE4F9B461546894682460EF01EFC7B490190F8390868EE
:20427C000CAF504508BF4868744C6FF0010828B180300EF05BF9002840F0D0800DF032FA87
:20429C00061C00F0D58004F1B4000EF0FDFB0023B4F98C00C6F80C90401C86F832306FF3A8
:2042BC001F30A4F88C00C6F808B0B4F88C0030866348C6F810A097E80C0020210027B846FD
:2042DC001940104006F1180383E80300424686F8332006F1200383E88001E8683064287CB2
:2042FC0086F8440028687063287986F83800A868F0636869B064A869F0642F7C27B9EF6897
:20431C0017B1012086F844002F795FB999F80C0000F00F00022805D1012086F83800D9F8D2
:20433C0008007063484608274568002D18BF002F70D100886FF30900B0F5305F18BF022583
:20435C0006D196F83300082540F0100086F8330006F1180090E80C00414606F1180745EA2C
:20437C000200194387E80300D4F8F800824507D194F8FC00410824BF00F0FE0084F8FC00D4
:20439C0030480768002F39D004F178000090D4F88010D4F8842004F170052B463046B847C9
:2043BC0010F1030F10D0B6F93010B4F98C20914207D0B4F98C1001F6FF716FF31F31A4F8FE
:2043DC008C1010F1020F1BD010F1030F18D096F83300B6F9308040F0800086F83300002785
:2043FC008AF8A4702868864205D0F068007B00F00F0002281CD109F0CFFE19E06FF00200D5
:20441C00B4F98C10804601F6FF716FF31F31A4F88C1005E07F1E2846FFB285E76FF00208AA
:20443C0094F8FC0040F0040084F8FC00C4F8F8A001980EF089FE4046BDE8FE8FC81D0020FD
:20445C00FFEFFF9F2C630100981F00202DE9FE4F0E468246307AC10693461F464FF00009D7
:20447C000CD558460EF080FD030000F0E8800A223146504698475FEA00094DD130780C9DF2
:20449C000D9CDDF8388002281AD170680178407801EB002292B24FF42053D21A012A10D9A4
:2044BC00921E3AD0521E14D0FD3A7AD0521E00F08180521E6DD0521E73D0521E00F095801B
:2044DC00ABE0002C2AD1F068017829800278416887E0002C22D101202880F1680A783A709D
:2044FC0000217089401C80B20EF03AFD298860B10278921C51182980418979704289120A2D
:20451C00BA7041680278F81C6CE0091D298004220021781C0DF04CFF93E0002C66D1F068B2
:20453C000688042129803E70320A7A700DF1020130460EF015FD040021D0D4F80C80BDF8A6
:20455C0002204FF6FF766B4631460EF005FD40B9237862683C4802210EF0FAFC08B9ADF8DC
:20457C00006098F8000002280BD1D8F804100222381D0DF013FF2888801C288001E0ADF843
:20459C000060BDF80000B870BDF80010090AF97057E0002C2AD1F068016850460EF07CF959
:2045BC0002E01CBBF0680088022129803870000A787046E0F0680EF083FA80B2A042B8BF5C
:2045DC004FF007093DDB844208BF002205D004EB08028242B4BF4246021B2A8092B2F068B9
:2045FC00011938460DF0DAFE2BE014B14FF00B0927E0F0680721298002783A7043787B7015
:20461C004188B9704288120AFA7001793971C2887A71C088000AB87113E058460EF094FC49
:20463C005FEA00090BD00F980290CDF8048000942B463A4631465046C847814601E04FF027
:20465C000E094846BDE8FE8FA46501002DE9F047DFF8B4910E46D9F808101F4615460446AD
:20467C00ADF1300DBEB1B5B130784FF0010808FA00F001420FD0104600210EF015FAA560E1
:20469C0066600EF007FA614D82462878022804DB50460EF059FD0020B2E000286CD101F028
:2046BC00D1FC5B495B4E086840F00200086008A8C9F800600DF0E2FF574E5849707808AA2B
:2046DC000A9005F580700BF0F5FE554905F59A7008AA0BF0EFFE08A80DF040FF192108AB37
:2046FC003078504A099005F138000BF097FD4E4A05F154001A2108AB0BF090FD4B490022F8
:20471C0005F1900013460AF0C7FD4949002205F1B40013460AF0C0FD46480068C0F3814008
:20473C0030B1454A05F12400042100230CF0B6FEB078012802D10E2005F02AFD05F17800FF
:20475C000DF0C8FD05F170000DF0C4FD002185F820102975E961072085F8C80185F8211086
:20477C00364B1970A9600526E960354A2E610420AA610CF0C9FF287805EB8001401CC1F86F
:20479C00D840C0B2287050460EF0DEFC1FB968460DF0C8FD6F4638684FF4FA76E660206057
:2047BC00B86941466062388A6175E082F869E062786800280CBF40F6C410002120612148EE
:2047DC00E06120622175A061F86800B1E061786900B12062B86800B1A061782204F130006C
:2047FC00002108F093FB04F1480000210CF0D8FC1549002204F1800013460AF04DFD2046D0
:20481C000CB0BDE8F087C046CC210840C81D002000200940110000E0B8620100D91F0100F6
:20483C00219C000069ED000055D70000811A0100E51D0100B44F0050A5F30000812C0020C6
:20485C008992000083B20000592A01002DE9FE4F0CF0B4FF00255FEA000803D009F0D4FA46
:20487C004FF0FF386248006830B1804704E06148016809B101988847DFF87C915F4CD9F874
:20489C00003053F81C7F01AA69460DF10100B84700285B4F2DD10198A0F10C07B979032923
:2048BC00E5D09DF80000002600E0761C55490A78964206D2E1688A5D8242F6D1F0B2FF28A6
:2048DC0005D1D9F8000050F8081F8847D4E738790BF078FDB979012902D10199087003E0D7
:2048FC00022904BF019988700199F0B202F074F9C2E73968EAB231F8120028B9414802787C
:20491C006D1CE9B29142F4D33E493F4E0878DFF8FCA08DF80000E9B2814224D2DAF80010FB
:20493C00884739685FFA85FB31F81B20ADF80220002321F81B3031688847354A2570BDF82F
:20495C00021052F82B30E8B298470546FF202070DAF800108847396831F81B20154321F8EA
:20497C001B50316888470CF029FF054645451ED005B9284D28480068DAF80010A84238BF93
:20499C0005468847D9F8001051F8202F804660689047A2682149521CA2602846D9F8005090
:2049BC0055F80CCF231DE0473168404688471C4A1C4C106830B1D9F80010206851F8242F32
:2049DC00904712E000250BE03968EAB231F8120028B1D9F80010206851F8242F90476D1C2C
:2049FC009DF80010E8B28842EED3BDE8F78F00BF302C0020282C00209C1D0020801C002062
:204A1C00682C0020CD6301004818002044180020E86101008EC2F528242C0020A96B00005E
:204A3C002C2C00201C2C00202DE9FA479C4614462346614687B0002200254B4390FBF3F15C
:204A5C00042C8DF800100BD19DF81C30ADF80820012B03D12421ADF802100FE02C230BE0C6
:204A7C009DF81C1001260129ADF8086003D12520ADF8020002E02D23ADF802301498119BDA
:204A9C00DDF84CE0A0F500610691DB07159816991FD59DF8002012FB04F20023D4B2A342F4
:204ABC0080F28F809DF848505C19A4B2B4F5007FA6BF069D55F824405EF824400194BDF87C
:204ADC00044021F81340BDF8064020F813405B1CE4E7ACF10103DBB207E0022AACBF92081C
:204AFC00AD1E160008BF6D1E5B1C022B6BDA0127AF404FF00008049771E09DF81C60083FDC
:204B1C00012EBDF802600CBF06EBC70606EB0716B6B2002705968DF8014018E0BDF804609B
:204B3C0021F8196020F8194010E0DDF80C90BCF1010F09FB0879F1D1049C9AFBF4F401F8DB
:204B5C000940049C96FBF4F600F809607F1C9DF801600396B7423FDA059C059E3C19B6F5F4
:204B7C00007F03DA5EF82460019603E0069E56F824400194002BBDF90640BDF904A0264691
:204B9C00D3D15446002C48BF6442002E48BF76421FFA82F9B145B8BF324696B2A642D5DA9D
:204BBC002246D3E7002B9FD195B2802DB8BF00259ADB12040825120E082AB4BF04251209CB
:204BDC008BE78DF800209DF848009DF800100818C0B209B0BDE8F087344608F101089DF8A8
:204BFC000060B045DEDA9DF848609DF848704644082E4744BFF681AFBDF8086006EB870637
:204C1C0086E770472DE9F0436E4904686E4E704D0A68607D8846ADF1140D401E0B2866D8C4
:204C3C00DFE800F076062B58092B2D112BAE172B2169886809E02169886809680BF00EF9C5
:204C5C0021698A680CE02169C86809680BF006F910E02169C86809680BF000F92169CA68E0
:204C7C000446096850684A6A00218018401C08F04DF920460BF01EFEA1E000209FE0206978
:204C9C004FF080590168D9F80072CA68786D00920A6901924A6A4D4F02928B684A68844632
:204CBC0030463946E047002809F5007118BF6FF0050040F08480206902680C689168206ACC
:204CDC000091D1680191516A0291CDF80C8053683A4662E0206941684968CA7F12F0070FFC
:204CFC0005D1097831F07F0701D1C90902D24FF0FF3064E04FF080590368D9F80002596A57
:204D1C00C06D0091CDF804805A68996A9B6845E04FF080592169D9F8002248680968526C0F
:204D3C004068496A904709F50076002818BF6FF0040044D1216930680A68C06A1169526A46
:204D5C000346284698473068406A80470828FAD0306840688047062818BF6FF003002ED131
:204D7C002069036837689968386A0091D9680191596A0291CDF80C80DA6A996A5B680DE0DF
:204D9C0020694FF080590168D9F800724A6AF86D0092CDF804808B684A68314604462846E2
:204DBC00A047D9F8B001006A014613208847D9F8B00100690146132088476FF01F0005B054
:204DDC00BDE8F083502C002060620240C0620240006202402DE9F04F89B080460E461546F4
:204DFC009B4602A862491C2206F058FDB8F1280F0FDA280018BF012D0DD0022D18BF032DCF
:204E1C0009D0042D18BF052D05D0062D18BF072D01D01220A8E0DFF85CA19AF8000008B1A6
:204E3C002120A1E0544F554C41F62A00002238807A80914623685889C7F8089000280CBF8E
:204E5C003846002078604FEA4801387B00F06000387358897B7B8DF8006000280CBF0222BD
:204E7C0001226631B97303F0F0031A43802158467A73F9730128424EDFF808B17E61C7F86E
:204E9C0018B021684A8932809DF80010B170F5709DF8002007D0022807D101203874002377
:204EBC00387C00210AE00020F8E703280CBF0220062038740023397C890802200EF0C0F8ED
:204EDC00F93040F27122B0FBF2F240F27121726001FB120000B1012080187060014640F6DE
:204EFC00C4104143716087F81190274AD06B274A41691378086803EB43031844244BB0F8E4
:204F1C0001107982307A00F0FE00307286F80990C6F80C90F07A00F0F00040F00100F072E1
:204F3C00ABF80090216881F8008020689DF800204270802221688D7039462068A0F8049056
:204F5C00A0F80690027209208AF8000002AA1148114CCDE900092568104855F85CAF006822
:204F7C00D0470F490880002009B0BDE8F08F00BFD0630100C80F0020940B0020440F002005
:204F9C00040D0020AC0E0020B0640100CB0F002099CA000002000080200F00201C0F00205C
:204FBC00880F002070B54F4C4F4B2568186855F8183F00224FF0FF3198470BF0C3FE4B4953
:204FDC004B4AC86B406941794A481170002301680B8000244B800C7100684371002007F0C1
:204FFC0073FB06F093F9444800680DF0A9FF0DF0A3FF4248006800B104734148006800B1B1
:20501C00C47200263F4C404D0EE06068F1B24FF4D072514342185379012B04D1F0B20DF0C8
:20503C006DF90DF085FF761C2978F0B28842ECD30DF07AFF3548364A017811700AF0DEFAD0
:20505C000BF004FB3348344A8078C1074CBF072105211170FF24000711784CBFFF20FB20AF
:20507C000840107000202D4A2D49107000232D4A0B7001202C4910700B702C4A2C491070AE
:20509C000B704FF4A4702B4A2B4913700B702B4A2B4913801B232B4A0B801080FB222A4B5F
:2050BC002A4918804FF42960294B08801A8044F290202849284B0A80284A108018800DF07C
:2050DC002FFF0DF029FF2649264A002008701F212548047044708470C470017125201070B6
:2050FC00002070BD200F00201C0F0020B0640100CA0F0020400F00206C0F0020500F002016
:20511C00540F0020780E0020D40F0020C60F0020D30F0020C00C0020C50F0020CC0F002075
:20513C00CD0F0020CE0F0020CF0F0020D00F0020D10F0020D20F0020772C00209C0F0020CE
:20515C008A0F00208C0F00208E0F0020900F0020920F0020960F0020980F0020940F002033
:20517C00C80F0020782C0020EC2B00202DE9F04F8246ADF11C0D00F065FF5D48007809F0D3
:20519C0013FF5C4D0024012807D90C3805D0401E0FD0401E012809D906E00CF0DFFE022863
:2051BC0004BF01210C1C06D0296806E005211F2401E003210724284601604F4AD068C0F38D
:2051DC008150012804D112680120120E904004430DF01CFADFF828B1DFF82081FF2240185E
:2051FC005B46401E471CC8F800007F1E03F8012BFBD1DAF80020002702F0FF03FE2B1CD0BF
:20521C00D4463B46012602F0FF05FF2D0ED0A84205D3A94203D806FA05F52C4201D00220CD
:20523C0062E002F0FF022F430BF802305CF8042F5B1C02F0FF05FE2DE7D1092004F0A8FFDB
:20525C003048C0F800A0384801210BF0A9FF374D00264FF00109B04609FA06F0044214D110
:20527C00074207BF06F0FF0141F4C0411BF806005AF82010244803F01DFDF0B24FF0FF31B2
:20529C000CF0D0FBC5F8008001E0042028601B480068761C2D1D8642DED904A80DF05EF93B
:2052BC001A4C20781B4A05901948102104AB0AF0B5FF68460DF0E2F960681849029016484C
:2052DC00CDF80C806A460BF0F5F8154951F80D0C20F4F85040F4005041F80D0C114AC1F8C3
:2052FC00FF9F4046C2F8009007B0BDE8F08FC046822C00201C1D0020A84F0050181D002080
:20531C00B4290020542C0020007FC76724630100682A0020911D01003429002025FD00009F
:20533C000D3009402C000940842A00209C2700202DE9F84F694CE579AC0686B002D5684DC1
:20535C00AC78A50640F1C680159D169C0CB900250FE0179C6CB99DF84840012C0CBF482455
:20537C002824A54205DB9DF84840012C0CBF4825282506468DF802108DF801209B46594923
:20539C000878DDF84080DDF84490DDF84CA0149F00283BD068001C3080B20CF0EBF90400C2
:2053BC003FD0912020703E2116226170A270A68000229DF80200A07101239DF80110E171FB
:2053DC00A4F808B084F80A8084F80B9004F11C019DF84800207384F80DA004F11C00E7811C
:2053FC00606125744819A0610590606917990490039101920092012216989DF8481002902A
:20541C002846FFF711FB214636485DE068000E308DF800009DF800000B30C0B20CF0AAF9D2
:20543C00040057D001202070FF2104F1080261706260042010703E22606842700122606859
:20545C009DF80010817016216068C17061680E71360A6068467160689DF80210817160683A
:20547C009DF80110C171616881F808B04FEA1B2160684172616881F80A80606880F80B90A7
:20549C0060689DF848100173616881F80DA0606887733F0A6068C77361680D746068179B07
:2054BC00039300F1110129441130059104900021169801910091029001239DF8481028465C
:2054DC00FFF7B2FA21460848007807B0BDE8F04F01F082BB07B0BDE8F08F00BF280E002026
:2054FC00200E0020742C0020722C00202DE9F843DFF89C910028074600F09F803D68A86836
:20551C0008B15E490160E86808B15D4901605D4C28785D49207045260E8068786070687995
:20553C0084F83C00A879BB6884F83D001978E1705A6862609968A160D968E16019692161AC
:20555C0099695E6921653079032110FB01F080B20DF0A8FA804606200DF0A4FAB8F1000F07
:20557C0014D098B1DFF824C10023B96849690979994251DCC0F80080B968496909790171A7
:20559C00B968496991F905104171606178680068A0612E69E66268692063A8696063EB6966
:2055BC00A363286A7A682064906810B906F0BFFF00E020627868C06810B906F0B8FF00E09C
:2055DC0060627868006910B906F0B1FF00E0A0627868406810B906F0AAFF00E0E0612869B1
:2055FC00E0626E6A6664AB6AA364E86AFA68E0649068006801210CF01FFCF968C86820B994
:20561C0006F095FFF9684C4601E04C462060086849680CF0B9FE13E003EB8301614491F996
:20563C00006003EB430242441670D1F801105B1C6FF39F51A2F8011097E706F078FF4C46E4
:20565C0020681449144A154B45685020A84710B1206880688047124C6068804705461148F6
:20567C000DF020F90BF06AFF09F0B6FEA168284688470AF0B3FC0020BDE8F88307090100A7
:20569C00A32401003C190020FE1C0020D81A00209C1D00206D1701007E2C00201C2C0020D5
:2056BC0040180020F11F010001282DE9F84F40F0B880DFF89491D9F8D400012840F0AE802F
:2056DC000220C9F8D4000CF063FB01200BF082F85FEA000805D00120C9F8D4000CF066FBCE
:2056FC00A1E00DF0F3F9009011200DF0B7F800280CBF0025012510200DF0B0F808B145F0B6
:20571C0002050F200DF0AAF808B145F00405474CA06A0068014601208847012805D099F8D6
:20573C00D800012818BF002703D1002003F0C4F901270DF08DF8DFF8F8A040080AD2002647
:20575C00206A80680146504688478346BBF1040FF6D000E00126304600214FF0FF3201F0C2
:20577C004BFA012E0ED0BBF1010F05D1206A4068012102465046904734496C39086840F05E
:20579C0003000860206840690146284688470B200DF064F8274E30B12068C06A3146091DA4
:2057BC000246088890470A200DF058F828B12068C06A31460246088890471F490320012644
:2057DC00C9F8D4001D4B0E6000221A602068406B0146284688470128F8D1194C20680420EC
:2057FC000AF0F8FF0546174806602068012F02D1304603F061F90CF0FBFF08200AF0EAFF3D
:20581C0007460098C9F8D4600DF082FB0CF0CEFA57EA050018BF4FF0FF3804E06FF0040872
:20583C0001E06FF001084046BDE8F88FB801001000400340AE5C0100282008608001044382
:20585C002C2009400C40094024160020902208402DE9F043ADF1140D0DF056FB09F05CFE05
:20587C00071C0CD00BF008FF5D4C00268046062134F80C0F28B1491E06F10106F8D10DF004
:20589C002FF94FF6F870208067600025A560554C26707868A06040460CF072FC04F1100674
:2058BC00304629460DF02CFB4FF0FF302946E66008F0A8FF2178606050200BF09FFD4A490E
:2058DC000246102000F0F6FA217850200BF096FD4FF0020903464549CDF8009001221020F4
:2058FC00019500F0E7FA6068294636A30A460BF01CFD3F4EA8460DF0FFFAA06841464FF072
:20591C0040424FF0FF330DF0F3FA071CF3D0CDF8088003A804A902AA08F044FF00BB9DF8CC
:20593C000C000DF10E010BF095F9B0B9BDF80E00ADF80C000CF0AEF9BDF80C0010280AD155
:20595C0020789DF81010884205D102980178D02901D100F04FF8029810B102980DF065F8DA
:20597C00F80FC8D3E0680DF0BFFA0028C3D1E06805460DF0B5FA854208BF454602D0856898
:20599C000AF0EAFF002DEDD02878012811D1696860680B680127B3F1004302D09B1B02D0FE
:2059BC0006E0474604E0494642460AA30BF0BDFC1FB1686808B10AF0CFFF28460AF0CCFFA8
:2059DC00D0E7C046424C452042726F6164636173746572004164766572746973696E670011
:2059FC0088180020E00F0020D96C021035D8000001000080F0B55F4C87786668ADF11C0DF3
:205A1C00002F40F09B804778002F40F09C80C7798DF80970037A8DF80A30C27A8DF80F204C
:205A3C0000258DF80C5081798DF80B50877A8DF80810437A8DF80E704F4A8DF80D3002AF00
:205A5C003B6879681360801D516009F0D3FB42A100913EA32A460121019030460BF065FCD4
:205A7C00606802213DA32A460BF05FFC666828460DF032FA09F0BEFB009003213AA32A4661
:205A9C0030460BF052FC3D4E3D493E4A671C122006F11C0318801020009700F00BFAC0B201
:205ABC0030B101208DF810009DF810000028FBD103200090344F019662782B4639461020D3
:205ADC0000F0F8F9C0B230B101208DF811009DF811000028FBD117200090F61C01966278DB
:205AFC0039460123102000F0E5F9C0B230B101208DF812009DF812000028FBD123496278FD
:205B1C001020922300F0D6F9C0B230B101208DF813009DF813000028FBD12B4600931C49B4
:205B3C006278102000F0C6F9C0B260B101208DF814009DF814000028FBD104E03046022139
:205B5C0000220CF03DFE07B0F0BDC046257320416464723A20257300494400C0496E697460
:205B7C0069616C697A656400525020416464723A20257300E00F00205F140020681A0020B4
:205B9C0099010110EDE90000258000001DEF0110ED7401102DE9FF415F4C04F1700108685D
:205BBC00002588460028074650D0D4F88400002851D1D4F8800000284FD0D4F88010386917
:205BDC000969884203D197F83300400931D2019502A8012101AA06F0BBFD00283BD0029902
:205BFC0011BB4E480668002E35D0D4F88000D4F8841008F108034246B047022807D001282D
:205C1C0029D10120009001992B46084605E001230093D4F88000D4F880100069B1F93010CD
:205C3C002A4602F027F816E004F190000CF0D4FA11E0D4F88000C06840880028F9D0D4F898
:205C5C008000C06840880128F3D006E004F5807002210CF03FFF002D5BD060683969884214
:205C7C0051D1294603A80A4606F072FD58B1039848B1D4F8800030B9D4F8840018B90820FC
:205C9C000AF070FD45E008200CF0C8F897F8330004F58075C0F3001028B940460BF040FE65
:205CBC00C4F8800004E040460BF03AFEC4F88400B8691B49C0430860B8694A6810434860F1
:205CDC00F869C04341F8080CF86951F8042C104341F8040CF86804460BF0E0FC2088A0F6C2
:205CFC00020040B141F21E01401A04D041F6E671401A012803D8012021460BF005FD4FF065
:205D1C008041284603E004F580704FF480610CF0E1FE0090BDE8FF81C81D0020306301001F
:205D3C0010100440F8B5074661485F4C001DC26A0168B7F5C067C2F30722C4F8B070C1F3A2
:205D5C008441C4F8B420C069C4F8B810C0F38120C4F8C80000F0A38094F8D0606EB9C4F89B
:205D7C00CC70D4F8B800C4F8C000D4F8B460C4F8BC60D4F8C850C4F8C450D4F8CC00D4F8FB
:205D9C00B450002854BF02236FF0010304F1C002116800EB4000C018431000EB937001EBC0
:205DBC00A0011160D4F8C010C4F8BC5000291CDD1E293DDDD4F8C40030B93429B4BF153937
:205DDC001E21C4F8C01025E02A29BABFD4F8C0000B381E20C4F8C000D4F8BC003E28D4BF01
:205DFC00401C3F20C4F8BC001FE0D4F8C400032812D011F10A0FA6BFD4F8C0000B30012050
:205E1C00C4F8C000D4F8BC000028CCBF401E0020C4F8BC00032009E011F1140FA6BFD4F857
:205E3C00C00015300120C4F8C0000020C4F8C4004FF08057D7F8A401B4F8BC101B4D4068F2
:205E5C004FF47F4208230646009128463021B047D7F8A40101214FF40032112340680091EC
:205E7C00064604212846B047D7F8A401B4F8C01040684FF4F80212230646009104212846B6
:205E9C00B047D7F8A401B4F8C41040684FF440620A230446009120212846A047F8BD0020FB
:205EBC0084F8D000F8BDC0462416002000A00C4000A00C400FB42DE9F04106AF8046ADF16A
:205EDC00280D0DF005F83E1D26F00306361D30F0010001D10CF049F9CDF81A601420ADF861
:205EFC0016000025CDF80E50FF248DF818407B68CDF81E300DF008F806460CF0E9FF30F0E5
:205F1C00010016D00BF0B8FB84464D4806212A46483030F80C7F4FB143681B689E4204D0CD
:205F3C00491E02F10102F4D100E0D4B260460CF027F940460AF02AFD0146FF2905D02046AA
:205F5C0003220DF11A0308F00DFB0CF0DDFF0AF099FEA8460746CDF800800CF0B9FF30F028
:205F7C00010063D0002F61D041F2883001A90AF059FE009C002853D10CF0BEFF0199012629
:205F9C0045187868019B41464FF000520CF0B0FF00282BD00DF122000DF1230102AA08F040
:205FBC0001FCB0B99DF8220003A90AF053FE38B9029A0CF0A1FC00281CBF029C464615D178
:205FDC00029968460BF03CF878684FF000510CF07BFF0198B0F1FF3FD3D00028D1D00CF067
:205FFC008BFF281A02D00199814217D20BF052FE07F10805009F0BF03FFB01463FB13A46C6
:20601C0052F80C0C40B9286842F80C0C2F6008460CF0B6F8304603E00246F1E70190B0E7FF
:20603C0020B92CB120460CF000FD01E00CF09DF8DDF81A0000680AB0BDE8F04104B070476B
:20605C004018002055482DE9F043006842F21072ADF1140DB0FBF2F1514340F2AB22401A6E
:20607C00824200F29680594C94F8E200002840F08E804B484B4E4FF00108027B336841688A
:20609C0084F8E280814684F8E120C3F38147C4F80C1197B9D9F8100078B1434856F8083CF4
:2060BC0002686421C3F306604143B1FBF2F23F49002304F1540009F0EFF801A80CF040FCF0
:2060DC0000252F4604F10C00029501AB8DF80470374903953A4609F0DFF801A80CF030FC94
:2060FC0004F130000822029501AB8DF804703149039509F0D1F8304A04F1780032213B466A
:20611C000AF08CF82E4A2D4F04F194002C212B463D600AF083F82B4899F80D300078306847
:20613C00C0F381501BB1032803D184F8D98003281FD002281DD001281BD14FF08059D9F8F0
:20615C00A401214C406803214FF040521C230746009129462046B847D9F8A40140682946F6
:20617C004FF4007209230746CDF800802046B84706E0386840F04000386002200AF02AFE59
:20619C0056F8040CC00802D228460AF023FE002000E0FEE705B0BDE8F083C0461C14005028
:2061BC00AC610100B44F0050582C00201D240100CBDA000069FA0000D11501009022084093
:2061DC00E1D20000822C002000A00C40241600202DE9F8435F4CDFF868815B4DD4F8DC00D0
:2061FC0000286ED0574E401E0AD0401E60D0401E1CD0401E53D0401E1AD0401E33D02FE02F
:20621C004E4801250221006884F8DA507022042340680091002107464046B847356004F106
:20623C0030000CF02FFC2846BDE8F883022100E003214FF08059D9F8A40184F8DA1040689A
:20625C000025702204232946074600954046B847D9F8A401C0687022294613460125DAE78F
:20627C000320BDE8F88300262E606E6028688008FCD268688008FCD2374834490127001DF0
:20629C0006600E200F6003F0BDFE02200AF08AFDC4F8DC6084F8DB600220BDE8F883052078
:2062BC00C4F8DC000027376030688008FCD242E00320C4F8DC000027376030688008FCD2F5
:2062DC0039E0234F01260F202E6042F62A21C7F80B004FF08059C7F80F10D9F8A4014068D2
:2062FC004FF4C072072302218446404600910021E047D9F8A401C06800214FF4C072072339
:20631C0084464046E0472E6028688008FCD394F8D900C7F81B6018B9032100200E4602E08B
:20633C00002028630321C4F8DC6047F8011C686068688008FCD20020BDE8F883A40100103B
:20635C0000A00C4058600C4054600C4004800C4001400C402416002038500C402DE9F0435D
:20637C0089B004460E46154602A84F491C2205F095FA310018BF012E0BD0022E18BF032E81
:20639C0007D0042E18BF052E03D0062E18BF072E09D129000BD045488078012905D002292E
:2063BC0018BF062908D012207AE0C20706D5404D287828B1212073E00007F8D411206FE0C6
:2063DC0022463C4C3C4FDFF8F490646041F62A0020800023207B638000F0650040F00500DB
:2063FC00207340F6C418607BC4F8088000F0F00040F00200607380236620A073E37367617E
:20641C00C4F8189001203880BA70FE70217408468108002300F003000CF012FEF93040F2A2
:20643C007122B0FBF2F240F271217A6001FB120000B101208018786008FB00F07860A06065
:20645C00002060741E491F4AC86B4169137808681D4A03EB430318441C4BB0F8011061828A
:20647C000021387A00F0FE00387279720020F860F97A01F0F00141F00101F972A9F800009E
:20649C000D2129702146124C2568CDE90020114855F85C6F006802AAB0470F490880002075
:2064BC0009B0BDE8F08300BF78640100C00C0020C80F0020940B0020040D0020AC0E0020A6
:2064DC00B0640100CB0F00200100008099CA0000200F00201C0F0020880F00202DE9F24F05
:2064FC00044686B06088594DDFF86491DFF864A10CF0E6FC074604A80090237B6189208932
:20651C0004F10D020CF0D8FC002680460597B8F1000FB7B200F08480BDF81020608841469A
:20653C0007F09AF8002883467CD120790599D9F8003003908A1F92B2002002920190CDF8B6
:20655C0000A0BDF8102060884146FDF77FFF0028834667D1B0B200284DD1608800234FF698
:20657C00FF7211210CF0A4FC002868603DD0BAF80000001D6880761C6968B8F80A00C855D2
:20659C00B2B2B8F80A006968000A8854BDF8102061890DF1120340460CF0DEFC771C804673
:2065BC007E1CB8F1000FBFB207D16968FF20C855B3B26868FF22C25409E06968BDF812002A
:2065DC00C855B2B2BDF812006968000A8854761C6868BAF80020D9F80010B3B218440BF0CF
:2065FC00DDFEBAF800108E1991E70699B8F80A000880112011E0BAF800006988021D91422B
:20661C0018D10599891FC0198142B4DA12E0069A01002189118008BF0A2007B0BDE8F08F6B
:20663C00002004E0069AB8F80A1011805846B6B2002EECD0688897FBF0F0288029466088EE
:20665C000CF032FC0028E8D01620E6E7380C0020080F0020840F00202DE9F0475348017862
:20667C00012511297CD1524E307800210CF068FD040075D0DFF83C814F48DFF84091C8F8AB
:20669C00000001223178112005F062FD616D4B78206DDFF82CC14B4ADB064BD5438841F217
:2066BC000446B3421FBF478BB742B0F832A0B24506D041F20A46B3421CBFB742B24501D17A
:2066DC0016803FE04FF0000C4FF48067182303FB0CFE8644BEF80260168016F47F4FF5D01C
:2066FC00022E57D9F61B13D0F61B45D04FF44067F61B39D0B61E012E36D9361F34D040F263
:20671C00FA37F61B46D0761E3ED0F61E34D048E0038840F60106B34226D10CF1010CBCF1B8
:20673C00020FD3DD16E0AEF8020011E00868002101710DE0408E108041F20441401A01D0FC
:20675C00801F02D1C8F800C004E041F206401080C8F8009001211C4A107803F0EDFB00E023
:20677C0000252846BDE8F087A07B012818BF0428EED04FF4A050EAE7A17B01290CBF41F201
:20679C0002404FF4A050CEE74978CA064CBF816CC16ECBE700200AF02FFD83200CF07CFCEC
:2067BC00DFE700200AF028FD8420F7E7C80F0020D50F0020480F0020756B021041E700109A
:2067DC00398B00109A0F0020C70F00202DE9F04F8BB0DFF8589104463825A279D9F8000027
:2067FC006A431044837A012B40F09C8000228272D9F80000A27994F8747000F120036A43D4
:20681C0067F0FF079F521E30A2796A438154D9F80010A27901F11C006A4394F89611815464
:20683C00D9F80000A179238900F1220269431D305352A17994F8382069434254A079D9F8C8
:20685C00001003466B43CF1807F12408397F97F805E0012907BF7B7897F803C0BB7897F8E7
:20687C0004C05FEACE72D8F8042092F801A098F800204CBF02260126D200A2F10C0B4FEAD1
:20689C004A029BFBF2F256430836012BD8BFBCF1010F1ADDBA690A92B6B27A690992CDF85E
:2068BC0020E0CDF81CC0069305967A8C0492BB7F0393CDF808A098F801200192FA7F0092BF
:2068DC003B8C7A7FFBF7ACFB14E0BA690792F6B27B69069305967A8C0492BB7F0393CDF8A2
:2068FC0008A098F801200192FB7F00937A7F3B8CFEF71EFDD9F80000A27900F114016A4314
:20691C00885808B10BF0AAFED9F80000A27900F1180115FB02F5485920B10BB0BDE8F04F11
